{
  "address": "0x881256ada5dD7CcB2457226C4bC978B067daF70B",
  "abi": [
    {
      "inputs": [
        {
          "internalType": "address",
          "name": "metadataPrinter",
          "type": "address"
        },
        {
          "internalType": "address",
          "name": "initialOwner",
          "type": "address"
        }
      ],
      "stateMutability": "nonpayable",
      "type": "constructor"
    },
    {
      "inputs": [],
      "name": "AlreadyClaimed",
      "type": "error"
    },
    {
      "inputs": [],
      "name": "Unauthorized",
      "type": "error"
    },
    {
      "anonymous": false,
      "inputs": [
        {
          "indexed": true,
          "internalType": "address",
          "name": "account",
          "type": "address"
        },
        {
          "indexed": true,
          "internalType": "address",
          "name": "operator",
          "type": "address"
        },
        {
          "indexed": false,
          "internalType": "bool",
          "name": "approved",
          "type": "bool"
        }
      ],
      "name": "ApprovalForAll",
      "type": "event"
    },
    {
      "anonymous": false,
      "inputs": [
        {
          "indexed": true,
          "internalType": "address",
          "name": "previousOwner",
          "type": "address"
        },
        {
          "indexed": true,
          "internalType": "address",
          "name": "newOwner",
          "type": "address"
        }
      ],
      "name": "OwnershipTransferred",
      "type": "event"
    },
    {
      "anonymous": false,
      "inputs": [
        {
          "indexed": true,
          "internalType": "bytes32",
          "name": "role",
          "type": "bytes32"
        },
        {
          "indexed": true,
          "internalType": "bytes32",
          "name": "previousAdminRole",
          "type": "bytes32"
        },
        {
          "indexed": true,
          "internalType": "bytes32",
          "name": "newAdminRole",
          "type": "bytes32"
        }
      ],
      "name": "RoleAdminChanged",
      "type": "event"
    },
    {
      "anonymous": false,
      "inputs": [
        {
          "indexed": true,
          "internalType": "bytes32",
          "name": "role",
          "type": "bytes32"
        },
        {
          "indexed": true,
          "internalType": "address",
          "name": "account",
          "type": "address"
        },
        {
          "indexed": true,
          "internalType": "address",
          "name": "sender",
          "type": "address"
        }
      ],
      "name": "RoleGranted",
      "type": "event"
    },
    {
      "anonymous": false,
      "inputs": [
        {
          "indexed": true,
          "internalType": "bytes32",
          "name": "role",
          "type": "bytes32"
        },
        {
          "indexed": true,
          "internalType": "address",
          "name": "account",
          "type": "address"
        },
        {
          "indexed": true,
          "internalType": "address",
          "name": "sender",
          "type": "address"
        }
      ],
      "name": "RoleRevoked",
      "type": "event"
    },
    {
      "anonymous": false,
      "inputs": [
        {
          "indexed": true,
          "internalType": "address",
          "name": "operator",
          "type": "address"
        },
        {
          "indexed": true,
          "internalType": "address",
          "name": "from",
          "type": "address"
        },
        {
          "indexed": true,
          "internalType": "address",
          "name": "to",
          "type": "address"
        },
        {
          "indexed": false,
          "internalType": "uint256[]",
          "name": "ids",
          "type": "uint256[]"
        },
        {
          "indexed": false,
          "internalType": "uint256[]",
          "name": "values",
          "type": "uint256[]"
        }
      ],
      "name": "TransferBatch",
      "type": "event"
    },
    {
      "anonymous": false,
      "inputs": [
        {
          "indexed": true,
          "internalType": "address",
          "name": "operator",
          "type": "address"
        },
        {
          "indexed": true,
          "internalType": "address",
          "name": "from",
          "type": "address"
        },
        {
          "indexed": true,
          "internalType": "address",
          "name": "to",
          "type": "address"
        },
        {
          "indexed": false,
          "internalType": "uint256",
          "name": "id",
          "type": "uint256"
        },
        {
          "indexed": false,
          "internalType": "uint256",
          "name": "value",
          "type": "uint256"
        }
      ],
      "name": "TransferSingle",
      "type": "event"
    },
    {
      "anonymous": false,
      "inputs": [
        {
          "indexed": false,
          "internalType": "string",
          "name": "value",
          "type": "string"
        },
        {
          "indexed": true,
          "internalType": "uint256",
          "name": "id",
          "type": "uint256"
        }
      ],
      "name": "URI",
      "type": "event"
    },
    {
      "inputs": [],
      "name": "ADMIN_ROLE",
      "outputs": [
        {
          "internalType": "bytes32",
          "name": "",
          "type": "bytes32"
        }
      ],
      "stateMutability": "view",
      "type": "function"
    },
    {
      "inputs": [],
      "name": "CREATOR_ROLE",
      "outputs": [
        {
          "internalType": "bytes32",
          "name": "",
          "type": "bytes32"
        }
      ],
      "stateMutability": "view",
      "type": "function"
    },
    {
      "inputs": [],
      "name": "DEFAULT_ADMIN_ROLE",
      "outputs": [
        {
          "internalType": "bytes32",
          "name": "",
          "type": "bytes32"
        }
      ],
      "stateMutability": "view",
      "type": "function"
    },
    {
      "inputs": [],
      "name": "_contractURI",
      "outputs": [
        {
          "internalType": "string",
          "name": "",
          "type": "string"
        }
      ],
      "stateMutability": "view",
      "type": "function"
    },
    {
      "inputs": [
        {
          "internalType": "address",
          "name": "account",
          "type": "address"
        },
        {
          "internalType": "uint256",
          "name": "id",
          "type": "uint256"
        }
      ],
      "name": "balanceOf",
      "outputs": [
        {
          "internalType": "uint256",
          "name": "",
          "type": "uint256"
        }
      ],
      "stateMutability": "view",
      "type": "function"
    },
    {
      "inputs": [
        {
          "internalType": "address[]",
          "name": "accounts",
          "type": "address[]"
        },
        {
          "internalType": "uint256[]",
          "name": "ids",
          "type": "uint256[]"
        }
      ],
      "name": "balanceOfBatch",
      "outputs": [
        {
          "internalType": "uint256[]",
          "name": "",
          "type": "uint256[]"
        }
      ],
      "stateMutability": "view",
      "type": "function"
    },
    {
      "inputs": [],
      "name": "contractURI",
      "outputs": [
        {
          "internalType": "string",
          "name": "",
          "type": "string"
        }
      ],
      "stateMutability": "view",
      "type": "function"
    },
    {
      "inputs": [],
      "name": "gatedAccess",
      "outputs": [
        {
          "internalType": "bool",
          "name": "",
          "type": "bool"
        }
      ],
      "stateMutability": "view",
      "type": "function"
    },
    {
      "inputs": [
        {
          "internalType": "bytes32",
          "name": "role",
          "type": "bytes32"
        }
      ],
      "name": "getRoleAdmin",
      "outputs": [
        {
          "internalType": "bytes32",
          "name": "",
          "type": "bytes32"
        }
      ],
      "stateMutability": "view",
      "type": "function"
    },
    {
      "inputs": [
        {
          "internalType": "bytes32",
          "name": "role",
          "type": "bytes32"
        },
        {
          "internalType": "address",
          "name": "account",
          "type": "address"
        }
      ],
      "name": "grantRole",
      "outputs": [],
      "stateMutability": "nonpayable",
      "type": "function"
    },
    {
      "inputs": [
        {
          "internalType": "bytes32",
          "name": "role",
          "type": "bytes32"
        },
        {
          "internalType": "address",
          "name": "account",
          "type": "address"
        }
      ],
      "name": "hasRole",
      "outputs": [
        {
          "internalType": "bool",
          "name": "",
          "type": "bool"
        }
      ],
      "stateMutability": "view",
      "type": "function"
    },
    {
      "inputs": [
        {
          "internalType": "address",
          "name": "account",
          "type": "address"
        },
        {
          "internalType": "address",
          "name": "operator",
          "type": "address"
        }
      ],
      "name": "isApprovedForAll",
      "outputs": [
        {
          "internalType": "bool",
          "name": "",
          "type": "bool"
        }
      ],
      "stateMutability": "view",
      "type": "function"
    },
    {
      "inputs": [
        {
          "internalType": "uint256",
          "name": "",
          "type": "uint256"
        }
      ],
      "name": "metadata",
      "outputs": [
        {
          "internalType": "string",
          "name": "name",
          "type": "string"
        },
        {
          "internalType": "string",
          "name": "description",
          "type": "string"
        },
        {
          "internalType": "string",
          "name": "image",
          "type": "string"
        },
        {
          "internalType": "string",
          "name": "animationUrl",
          "type": "string"
        },
        {
          "internalType": "string",
          "name": "youtubeUrl",
          "type": "string"
        },
        {
          "internalType": "uint256",
          "name": "maxPerWallet",
          "type": "uint256"
        }
      ],
      "stateMutability": "view",
      "type": "function"
    },
    {
      "inputs": [
        {
          "internalType": "address",
          "name": "to",
          "type": "address"
        },
        {
          "internalType": "uint256",
          "name": "tokenID",
          "type": "uint256"
        },
        {
          "internalType": "uint256",
          "name": "amount",
          "type": "uint256"
        }
      ],
      "name": "mint",
      "outputs": [
        {
          "internalType": "bool",
          "name": "",
          "type": "bool"
        }
      ],
      "stateMutability": "nonpayable",
      "type": "function"
    },
    {
      "inputs": [
        {
          "internalType": "uint256",
          "name": "",
          "type": "uint256"
        },
        {
          "internalType": "address",
          "name": "",
          "type": "address"
        }
      ],
      "name": "minters",
      "outputs": [
        {
          "internalType": "bool",
          "name": "",
          "type": "bool"
        }
      ],
      "stateMutability": "view",
      "type": "function"
    },
    {
      "inputs": [
        {
          "internalType": "uint256",
          "name": "",
          "type": "uint256"
        },
        {
          "internalType": "address",
          "name": "",
          "type": "address"
        }
      ],
      "name": "mints",
      "outputs": [
        {
          "internalType": "uint256",
          "name": "",
          "type": "uint256"
        }
      ],
      "stateMutability": "view",
      "type": "function"
    },
    {
      "inputs": [],
      "name": "owner",
      "outputs": [
        {
          "internalType": "address",
          "name": "",
          "type": "address"
        }
      ],
      "stateMutability": "view",
      "type": "function"
    },
    {
      "inputs": [],
      "name": "renounceOwnership",
      "outputs": [],
      "stateMutability": "nonpayable",
      "type": "function"
    },
    {
      "inputs": [
        {
          "internalType": "bytes32",
          "name": "role",
          "type": "bytes32"
        },
        {
          "internalType": "address",
          "name": "account",
          "type": "address"
        }
      ],
      "name": "renounceRole",
      "outputs": [],
      "stateMutability": "nonpayable",
      "type": "function"
    },
    {
      "inputs": [
        {
          "internalType": "bytes32",
          "name": "role",
          "type": "bytes32"
        },
        {
          "internalType": "address",
          "name": "account",
          "type": "address"
        }
      ],
      "name": "revokeRole",
      "outputs": [],
      "stateMutability": "nonpayable",
      "type": "function"
    },
    {
      "inputs": [
        {
          "internalType": "address",
          "name": "from",
          "type": "address"
        },
        {
          "internalType": "address",
          "name": "to",
          "type": "address"
        },
        {
          "internalType": "uint256[]",
          "name": "ids",
          "type": "uint256[]"
        },
        {
          "internalType": "uint256[]",
          "name": "amounts",
          "type": "uint256[]"
        },
        {
          "internalType": "bytes",
          "name": "data",
          "type": "bytes"
        }
      ],
      "name": "safeBatchTransferFrom",
      "outputs": [],
      "stateMutability": "nonpayable",
      "type": "function"
    },
    {
      "inputs": [
        {
          "internalType": "address",
          "name": "from",
          "type": "address"
        },
        {
          "internalType": "address",
          "name": "to",
          "type": "address"
        },
        {
          "internalType": "uint256",
          "name": "id",
          "type": "uint256"
        },
        {
          "internalType": "uint256",
          "name": "amount",
          "type": "uint256"
        },
        {
          "internalType": "bytes",
          "name": "data",
          "type": "bytes"
        }
      ],
      "name": "safeTransferFrom",
      "outputs": [],
      "stateMutability": "nonpayable",
      "type": "function"
    },
    {
      "inputs": [
        {
          "internalType": "address",
          "name": "operator",
          "type": "address"
        },
        {
          "internalType": "bool",
          "name": "approved",
          "type": "bool"
        }
      ],
      "name": "setApprovalForAll",
      "outputs": [],
      "stateMutability": "nonpayable",
      "type": "function"
    },
    {
      "inputs": [
        {
          "internalType": "string",
          "name": "newContractURI",
          "type": "string"
        }
      ],
      "name": "setContractURI",
      "outputs": [
        {
          "internalType": "bool",
          "name": "",
          "type": "bool"
        }
      ],
      "stateMutability": "nonpayable",
      "type": "function"
    },
    {
      "inputs": [
        {
          "internalType": "address",
          "name": "newContract",
          "type": "address"
        }
      ],
      "name": "setMetadataPrinter",
      "outputs": [
        {
          "internalType": "bool",
          "name": "",
          "type": "bool"
        }
      ],
      "stateMutability": "nonpayable",
      "type": "function"
    },
    {
      "inputs": [
        {
          "internalType": "uint256",
          "name": "tokenID",
          "type": "uint256"
        },
        {
          "internalType": "address",
          "name": "minter",
          "type": "address"
        },
        {
          "internalType": "bool",
          "name": "canMint",
          "type": "bool"
        }
      ],
      "name": "setMinterAccess",
      "outputs": [
        {
          "internalType": "bool",
          "name": "",
          "type": "bool"
        }
      ],
      "stateMutability": "nonpayable",
      "type": "function"
    },
    {
      "inputs": [
        {
          "internalType": "bool",
          "name": "isOpen",
          "type": "bool"
        }
      ],
      "name": "setOpenToThePublic",
      "outputs": [
        {
          "internalType": "bool",
          "name": "",
          "type": "bool"
        }
      ],
      "stateMutability": "nonpayable",
      "type": "function"
    },
    {
      "inputs": [
        {
          "components": [
            {
              "internalType": "string",
              "name": "name",
              "type": "string"
            },
            {
              "internalType": "string",
              "name": "description",
              "type": "string"
            },
            {
              "internalType": "string",
              "name": "image",
              "type": "string"
            },
            {
              "internalType": "string",
              "name": "animationUrl",
              "type": "string"
            },
            {
              "internalType": "string",
              "name": "youtubeUrl",
              "type": "string"
            },
            {
              "internalType": "uint256",
              "name": "maxPerWallet",
              "type": "uint256"
            }
          ],
          "internalType": "struct BadgeOfAssembly.BadgeMetadata",
          "name": "_metadata",
          "type": "tuple"
        },
        {
          "internalType": "uint256",
          "name": "initialSupply",
          "type": "uint256"
        }
      ],
      "name": "setup",
      "outputs": [
        {
          "internalType": "uint256",
          "name": "",
          "type": "uint256"
        }
      ],
      "stateMutability": "nonpayable",
      "type": "function"
    },
    {
      "inputs": [
        {
          "internalType": "bytes4",
          "name": "interfaceId",
          "type": "bytes4"
        }
      ],
      "name": "supportsInterface",
      "outputs": [
        {
          "internalType": "bool",
          "name": "",
          "type": "bool"
        }
      ],
      "stateMutability": "view",
      "type": "function"
    },
    {
      "inputs": [
        {
          "internalType": "address",
          "name": "user",
          "type": "address"
        }
      ],
      "name": "tokenAdminOf",
      "outputs": [
        {
          "internalType": "uint256[]",
          "name": "",
          "type": "uint256[]"
        }
      ],
      "stateMutability": "view",
      "type": "function"
    },
    {
      "inputs": [
        {
          "internalType": "uint256",
          "name": "",
          "type": "uint256"
        }
      ],
      "name": "totalSupply",
      "outputs": [
        {
          "internalType": "uint256",
          "name": "",
          "type": "uint256"
        }
      ],
      "stateMutability": "view",
      "type": "function"
    },
    {
      "inputs": [
        {
          "internalType": "address",
          "name": "newOwner",
          "type": "address"
        }
      ],
      "name": "transferOwnership",
      "outputs": [],
      "stateMutability": "nonpayable",
      "type": "function"
    },
    {
      "inputs": [
        {
          "internalType": "uint256",
          "name": "tokenID",
          "type": "uint256"
        },
        {
          "components": [
            {
              "internalType": "string",
              "name": "name",
              "type": "string"
            },
            {
              "internalType": "string",
              "name": "description",
              "type": "string"
            },
            {
              "internalType": "string",
              "name": "image",
              "type": "string"
            },
            {
              "internalType": "string",
              "name": "animationUrl",
              "type": "string"
            },
            {
              "internalType": "string",
              "name": "youtubeUrl",
              "type": "string"
            },
            {
              "internalType": "uint256",
              "name": "maxPerWallet",
              "type": "uint256"
            }
          ],
          "internalType": "struct BadgeOfAssembly.BadgeMetadata",
          "name": "newMetadata",
          "type": "tuple"
        }
      ],
      "name": "updateMetadata",
      "outputs": [
        {
          "internalType": "bool",
          "name": "",
          "type": "bool"
        }
      ],
      "stateMutability": "nonpayable",
      "type": "function"
    },
    {
      "inputs": [
        {
          "internalType": "uint256",
          "name": "tokenID",
          "type": "uint256"
        }
      ],
      "name": "uri",
      "outputs": [
        {
          "internalType": "string",
          "name": "",
          "type": "string"
        }
      ],
      "stateMutability": "view",
      "type": "function"
    },
    {
      "inputs": [
        {
          "internalType": "address",
          "name": "userId",
          "type": "address"
        }
      ],
      "name": "userTokens",
      "outputs": [
        {
          "internalType": "uint256[]",
          "name": "",
          "type": "uint256[]"
        }
      ],
      "stateMutability": "view",
      "type": "function"
    }
  ],
  "transactionHash": "0xe7b3468c4bd8f67f1916ac2d9d9c93e0b65c2b91170f8d33614af5e2d52a5122",
  "args": [
    "0x0F428D26C28914f637E94E4eC892b693744b825D",
    "0xBFef9277d497B67d3D730E59F85020d8B064Af88"
  ],
  "numDeployments": 1,
  "solcInputHash": "60e755853970205cfceddd790204f960",
  "bytecode": "0x6004805460ff60a01b1916600160a01b17905560e060405260246080818152906200336f60a03980516200003c9160059160209091019062000235565b503480156200004a57600080fd5b5060405162003393380380620033938339810160408190526200006d91620002f8565b60408051602081019091526000815262000087816200011d565b50620000933362000136565b620000bf7f828634d95e775031b9ff576b159a8509d3053581a8c9c4d7d86899e0afcd882f8262000188565b620000eb7fa49807205ce4d355092ef5a8a18f56e8913cf4a201fbe287825b095693c217758262000188565b620000f68162000136565b50600680546001600160a01b0319166001600160a01b03929092169190911790556200036c565b80516200013290600290602084019062000235565b5050565b600480546001600160a01b038381166001600160a01b0319831681179093556040519116919082907f8be0079c531659141344cd1fd0a4f28419497f9722a3daafe3b4186f6b6457e090600090a35050565b60008281526003602090815260408083206001600160a01b038516845290915290205462000132908390839060ff16620001325760008281526003602090815260408083206001600160a01b03851684529091529020805460ff19166001179055620001f13390565b6001600160a01b0316816001600160a01b0316837f2f8788117e7eff1d82e926ec794901d17c78024a50270940304540a733656f0d60405160405180910390a45050565b828054620002439062000330565b90600052602060002090601f016020900481019282620002675760008555620002b2565b82601f106200028257805160ff1916838001178555620002b2565b82800160010185558215620002b2579182015b82811115620002b257825182559160200191906001019062000295565b50620002c0929150620002c4565b5090565b5b80821115620002c05760008155600101620002c5565b80516001600160a01b0381168114620002f357600080fd5b919050565b600080604083850312156200030c57600080fd5b6200031783620002db565b91506200032760208401620002db565b90509250929050565b600181811c908216806200034557607f821691505b6020821081036200036657634e487b7160e01b600052602260045260246000fd5b50919050565b612ff3806200037c6000396000f3fe608060405234801561001057600080fd5b50600436106102105760003560e01c8063938e3d7b11610125578063e4e298a4116100ad578063eadcf88c1161007c578063eadcf88c1461050c578063ed498fa81461051f578063f242432a14610532578063f2fde38b14610545578063fa82c14e1461055857600080fd5b8063e4e298a414610487578063e8a3d4851461049a578063e942bdd2146104a2578063e985e9c5146104d057600080fd5b8063bd85b039116100f4578063bd85b03914610414578063bf50149314610434578063c0e7274014610447578063d547741f1461044f578063e3684e391461046257600080fd5b8063938e3d7b146103d357806399c41e5f146103e6578063a217fddf146103f9578063a22cb4651461040157600080fd5b806336568abe116101a857806375b238fc1161017757806375b238fc1461035557806389dea1d01461036a5780638aeda25a1461037e5780638da5cb5b146103a557806391d14854146103c057600080fd5b806336568abe146103075780634ce460261461031a5780634e1273f41461032d578063715018a61461034d57600080fd5b8063156e29f6116101e4578063156e29f6146102a9578063248a9ca3146102bc5780632eb2c2d6146102df5780632f2ff15d146102f457600080fd5b8062fdd58e1461021557806301ffc9a71461023b5780630e89341c1461025e57806314ef237e1461027e575b600080fd5b610228610223366004612198565b61056b565b6040519081526020015b60405180910390f35b61024e6102493660046121d8565b610605565b6040519015158152602001610232565b61027161026c3660046121f5565b610610565b604051610232919061226a565b61022861028c36600461227d565b600c60209081526000928352604080842090915290825290205481565b61024e6102b73660046122a9565b610682565b6102286102ca3660046121f5565b60009081526003602052604090206001015490565b6102f26102ed366004612435565b6107aa565b005b6102f261030236600461227d565b610841565b6102f261031536600461227d565b61086b565b61024e6103283660046124f6565b6108e9565b61034061033b36600461253c565b610936565b6040516102329190612637565b6102f2610a5f565b610228600080516020612f9e83398151915281565b60045461024e90600160a01b900460ff1681565b6102287f828634d95e775031b9ff576b159a8509d3053581a8c9c4d7d86899e0afcd882f81565b6004546040516001600160a01b039091168152602001610232565b61024e6103ce36600461227d565b610ac5565b61024e6103e136600461264a565b610af0565b6102286103f43660046126bb565b610b3c565b610228600081565b6102f261040f36600461270f565b610c92565b6102286104223660046121f5565b600d6020526000908152604090205481565b61024e610442366004612739565b610c9d565b610271610d6d565b6102f261045d36600461227d565b610dfb565b6104756104703660046121f5565b610e20565b60405161023296959493929190612775565b61024e6104953660046127ea565b6110fc565b610271611158565b61024e6104b036600461227d565b600b60209081526000928352604080842090915290825290205460ff1681565b61024e6104de366004612805565b6001600160a01b03918216600090815260016020908152604080832093909416825291909152205460ff1690565b61034061051a3660046127ea565b6111ea565b61034061052d3660046127ea565b61120e565b6102f261054036600461282f565b611232565b6102f26105533660046127ea565b6112b9565b61024e610566366004612893565b611384565b60006001600160a01b0383166105dc5760405162461bcd60e51b815260206004820152602b60248201527f455243313135353a2062616c616e636520717565727920666f7220746865207a60448201526a65726f206164647265737360a81b60648201526084015b60405180910390fd5b506000818152602081815260408083206001600160a01b03861684529091529020545b92915050565b60006105ff826113dc565b60065460405163e3684e3960e01b8152600481018390526060916001600160a01b03169063e3684e3990602401600060405180830381865afa15801561065a573d6000803e3d6000fd5b505050506040513d6000823e601f3d908101601f191682016040526105ff91908101906128ae565b600061068e8333611401565b6106aa576040516282b42960e81b815260040160405180910390fd5b6000838152600c602090815260408083206001600160a01b0388168452825280832054868452600a9092529091206005015480158015906106f35750806106f18584612945565b115b1561071157604051630c8d9eab60e31b815260040160405180910390fd5b61071b8483612945565b6000868152600c602090815260408083206001600160a01b038b1684528252808320939093558251908101909252815261075a9087908790879061142c565b6000858152600d602052604081208054916107748361295d565b90915550506001600160a01b038616600090815260086020526040902061079b9086611540565b506001925050505b9392505050565b6001600160a01b0385163314806107c657506107c685336104de565b61082d5760405162461bcd60e51b815260206004820152603260248201527f455243313135353a207472616e736665722063616c6c6572206973206e6f74206044820152711bdddb995c881b9bdc88185c1c1c9bdd995960721b60648201526084016105d3565b61083a858585858561154c565b5050505050565b60008281526003602052604090206001015461085c81611729565b6108668383611733565b505050565b6001600160a01b03811633146108db5760405162461bcd60e51b815260206004820152602f60248201527f416363657373436f6e74726f6c3a2063616e206f6e6c792072656e6f756e636560448201526e103937b632b9903337b91039b2b63360891b60648201526084016105d3565b6108e582826117b9565b5050565b60006108f58333611401565b610911576040516282b42960e81b815260040160405180910390fd5b6000838152600a60205260409020829061092b8282612afc565b506001949350505050565b6060815183511461099b5760405162461bcd60e51b815260206004820152602960248201527f455243313135353a206163636f756e747320616e6420696473206c656e677468604482015268040dad2e6dac2e8c6d60bb1b60648201526084016105d3565b600083516001600160401b038111156109b6576109b66122dc565b6040519080825280602002602001820160405280156109df578160200160208202803683370190505b50905060005b8451811015610a5757610a2a858281518110610a0357610a03612c45565b6020026020010151858381518110610a1d57610a1d612c45565b602002602001015161056b565b828281518110610a3c57610a3c612c45565b6020908102919091010152610a508161295d565b90506109e5565b509392505050565b6004546001600160a01b03163314610ab95760405162461bcd60e51b815260206004820181905260248201527f4f776e61626c653a2063616c6c6572206973206e6f7420746865206f776e657260448201526064016105d3565b610ac36000611820565b565b60009182526003602090815260408084206001600160a01b0393909316845291905290205460ff1690565b6000610b0a600080516020612f9e83398151915233610ac5565b610b26576040516282b42960e81b815260040160405180910390fd5b610b32600584846120e3565b5060019392505050565b6004546000903390600160a01b900460ff168015610b815750610b7f7f828634d95e775031b9ff576b159a8509d3053581a8c9c4d7d86899e0afcd882f82610ac5565b155b15610b9e576040516282b42960e81b815260040160405180910390fd5b610bac600780546001019055565b6000610bb760075490565b6000818152600a602052604090209091508590610bd48282612afc565b50506000818152600b602090815260408083206001600160a01b03861684529091529020805460ff191660011790558315610c6757610c248282866040518060200160405280600081525061142c565b6001600160a01b0382166000908152600860205260409020610c469082611540565b506000818152600d60205260408120805491610c618361295d565b91905055505b6001600160a01b0382166000908152600960205260409020610c899082611540565b50949350505050565b6108e5338383611872565b600033610caa8582611401565b610cc6576040516282b42960e81b815260040160405180910390fd5b8215610d26576001600160a01b0384166000908152600960205260409020610cee9086611540565b5050506000838152600b602090815260408083206001600160a01b03861684529091529020805460ff191660019081179091556107a3565b6000858152600b602090815260408083206001600160a01b03881684528252808320805460ff1916905560099091529020610d619086611952565b50600195945050505050565b60058054610d7a906129c3565b80601f0160208091040260200160405190810160405280929190818152602001828054610da6906129c3565b8015610df35780601f10610dc857610100808354040283529160200191610df3565b820191906000526020600020905b815481529060010190602001808311610dd657829003601f168201915b505050505081565b600082815260036020526040902060010154610e1681611729565b61086683836117b9565b600a60205260009081526040902080548190610e3b906129c3565b80601f0160208091040260200160405190810160405280929190818152602001828054610e67906129c3565b8015610eb45780601f10610e8957610100808354040283529160200191610eb4565b820191906000526020600020905b815481529060010190602001808311610e9757829003601f168201915b505050505090806001018054610ec9906129c3565b80601f0160208091040260200160405190810160405280929190818152602001828054610ef5906129c3565b8015610f425780601f10610f1757610100808354040283529160200191610f42565b820191906000526020600020905b815481529060010190602001808311610f2557829003601f168201915b505050505090806002018054610f57906129c3565b80601f0160208091040260200160405190810160405280929190818152602001828054610f83906129c3565b8015610fd05780601f10610fa557610100808354040283529160200191610fd0565b820191906000526020600020905b815481529060010190602001808311610fb357829003601f168201915b505050505090806003018054610fe5906129c3565b80601f0160208091040260200160405190810160405280929190818152602001828054611011906129c3565b801561105e5780601f106110335761010080835404028352916020019161105e565b820191906000526020600020905b81548152906001019060200180831161104157829003601f168201915b505050505090806004018054611073906129c3565b80601f016020809104026020016040519081016040528092919081815260200182805461109f906129c3565b80156110ec5780601f106110c1576101008083540402835291602001916110ec565b820191906000526020600020905b8154815290600101906020018083116110cf57829003601f168201915b5050505050908060050154905086565b6000611116600080516020612f9e83398151915233610ac5565b611132576040516282b42960e81b815260040160405180910390fd5b50600680546001600160a01b0319166001600160a01b0392909216919091179055600190565b606060058054611167906129c3565b80601f0160208091040260200160405190810160405280929190818152602001828054611193906129c3565b80156111e05780601f106111b5576101008083540402835291602001916111e0565b820191906000526020600020905b8154815290600101906020018083116111c357829003601f168201915b5050505050905090565b6001600160a01b03811660009081526009602052604090206060906105ff9061195e565b6001600160a01b03811660009081526008602052604090206060906105ff9061195e565b6001600160a01b03851633148061124e575061124e85336104de565b6112ac5760405162461bcd60e51b815260206004820152602960248201527f455243313135353a2063616c6c6572206973206e6f74206f776e6572206e6f7260448201526808185c1c1c9bdd995960ba1b60648201526084016105d3565b61083a858585858561196b565b6004546001600160a01b031633146113135760405162461bcd60e51b815260206004820181905260248201527f4f776e61626c653a2063616c6c6572206973206e6f7420746865206f776e657260448201526064016105d3565b6001600160a01b0381166113785760405162461bcd60e51b815260206004820152602660248201527f4f776e61626c653a206e6577206f776e657220697320746865207a65726f206160448201526564647265737360d01b60648201526084016105d3565b61138181611820565b50565b600061139e600080516020612f9e83398151915233610ac5565b6113ba576040516282b42960e81b815260040160405180910390fd5b5060048054911515600160a01b0260ff60a01b19909216919091179055600190565b60006001600160e01b03198216637965db0b60e01b14806105ff57506105ff82611a95565b6000918252600b602090815260408084206001600160a01b0393909316845291905290205460ff1690565b6001600160a01b03841661148c5760405162461bcd60e51b815260206004820152602160248201527f455243313135353a206d696e7420746f20746865207a65726f206164647265736044820152607360f81b60648201526084016105d3565b33600061149885611ae5565b905060006114a585611ae5565b90506000868152602081815260408083206001600160a01b038b168452909152812080548792906114d7908490612945565b909155505060408051878152602081018790526001600160a01b03808a1692600092918716917fc3d58168c5ae7397731d063d5bbf3d657854427343f4c083240f7aacaa2d0f62910160405180910390a461153783600089898989611b30565b50505050505050565b60006107a38383611c8b565b81518351146115ae5760405162461bcd60e51b815260206004820152602860248201527f455243313135353a2069647320616e6420616d6f756e7473206c656e677468206044820152670dad2e6dac2e8c6d60c31b60648201526084016105d3565b6001600160a01b0384166115d45760405162461bcd60e51b81526004016105d390612c5b565b3360005b84518110156116bb5760008582815181106115f5576115f5612c45565b60200260200101519050600085838151811061161357611613612c45565b602090810291909101810151600084815280835260408082206001600160a01b038e1683529093529190912054909150818110156116635760405162461bcd60e51b81526004016105d390612ca0565b6000838152602081815260408083206001600160a01b038e8116855292528083208585039055908b168252812080548492906116a0908490612945565b92505081905550505050806116b49061295d565b90506115d8565b50846001600160a01b0316866001600160a01b0316826001600160a01b03167f4a39dc06d4c0dbc64b70af90fd698a233a518aa5d07e595d983b8c0526c8f7fb878760405161170b929190612cea565b60405180910390a4611721818787878787611cda565b505050505050565b6113818133611d95565b61173d8282610ac5565b6108e55760008281526003602090815260408083206001600160a01b03851684529091529020805460ff191660011790556117753390565b6001600160a01b0316816001600160a01b0316837f2f8788117e7eff1d82e926ec794901d17c78024a50270940304540a733656f0d60405160405180910390a45050565b6117c38282610ac5565b156108e55760008281526003602090815260408083206001600160a01b0385168085529252808320805460ff1916905551339285917ff6391f5c32d9c69d2a47ea670b442974b53935d1edc7fd64eb21e047a839171b9190a45050565b600480546001600160a01b038381166001600160a01b0319831681179093556040519116919082907f8be0079c531659141344cd1fd0a4f28419497f9722a3daafe3b4186f6b6457e090600090a35050565b816001600160a01b0316836001600160a01b0316036118e55760405162461bcd60e51b815260206004820152602960248201527f455243313135353a2073657474696e6720617070726f76616c20737461747573604482015268103337b91039b2b63360b91b60648201526084016105d3565b6001600160a01b03838116600081815260016020908152604080832094871680845294825291829020805460ff191686151590811790915591519182527f17307eab39ab6107e8899845ad3d59bd9653f200f220920489ca2b5937696c31910160405180910390a3505050565b60006107a38383611df9565b606060006107a383611eec565b6001600160a01b0384166119915760405162461bcd60e51b81526004016105d390612c5b565b33600061199d85611ae5565b905060006119aa85611ae5565b90506000868152602081815260408083206001600160a01b038c168452909152902054858110156119ed5760405162461bcd60e51b81526004016105d390612ca0565b6000878152602081815260408083206001600160a01b038d8116855292528083208985039055908a16825281208054889290611a2a908490612945565b909155505060408051888152602081018890526001600160a01b03808b16928c821692918816917fc3d58168c5ae7397731d063d5bbf3d657854427343f4c083240f7aacaa2d0f62910160405180910390a4611a8a848a8a8a8a8a611b30565b505050505050505050565b60006001600160e01b03198216636cdb3d1360e11b1480611ac657506001600160e01b031982166303a24d0760e21b145b806105ff57506301ffc9a760e01b6001600160e01b03198316146105ff565b60408051600180825281830190925260609160009190602080830190803683370190505090508281600081518110611b1f57611b1f612c45565b602090810291909101015292915050565b6001600160a01b0384163b156117215760405163f23a6e6160e01b81526001600160a01b0385169063f23a6e6190611b749089908990889088908890600401612d18565b6020604051808303816000875af1925050508015611baf575060408051601f3d908101601f19168201909252611bac91810190612d5d565b60015b611c5b57611bbb612d7a565b806308c379a003611bf45750611bcf612d96565b80611bda5750611bf6565b8060405162461bcd60e51b81526004016105d3919061226a565b505b60405162461bcd60e51b815260206004820152603460248201527f455243313135353a207472616e7366657220746f206e6f6e20455243313135356044820152732932b1b2b4bb32b91034b6b83632b6b2b73a32b960611b60648201526084016105d3565b6001600160e01b0319811663f23a6e6160e01b146115375760405162461bcd60e51b81526004016105d390612e1f565b6000818152600183016020526040812054611cd2575081546001818101845560008481526020808220909301849055845484825282860190935260409020919091556105ff565b5060006105ff565b6001600160a01b0384163b156117215760405163bc197c8160e01b81526001600160a01b0385169063bc197c8190611d1e9089908990889088908890600401612e67565b6020604051808303816000875af1925050508015611d59575060408051601f3d908101601f19168201909252611d5691810190612d5d565b60015b611d6557611bbb612d7a565b6001600160e01b0319811663bc197c8160e01b146115375760405162461bcd60e51b81526004016105d390612e1f565b611d9f8282610ac5565b6108e557611db7816001600160a01b03166014611f48565b611dc2836020611f48565b604051602001611dd3929190612ec5565b60408051601f198184030181529082905262461bcd60e51b82526105d39160040161226a565b60008181526001830160205260408120548015611ee2576000611e1d600183612f3a565b8554909150600090611e3190600190612f3a565b9050818114611e96576000866000018281548110611e5157611e51612c45565b9060005260206000200154905080876000018481548110611e7457611e74612c45565b6000918252602080832090910192909255918252600188019052604090208390555b8554869080611ea757611ea7612f51565b6001900381819060005260206000200160009055905585600101600086815260200190815260200160002060009055600193505050506105ff565b60009150506105ff565b606081600001805480602002602001604051908101604052809291908181526020018280548015611f3c57602002820191906000526020600020905b815481526020019060010190808311611f28575b50505050509050919050565b60606000611f57836002612f67565b611f62906002612945565b6001600160401b03811115611f7957611f796122dc565b6040519080825280601f01601f191660200182016040528015611fa3576020820181803683370190505b509050600360fc1b81600081518110611fbe57611fbe612c45565b60200101906001600160f81b031916908160001a905350600f60fb1b81600181518110611fed57611fed612c45565b60200101906001600160f81b031916908160001a9053506000612011846002612f67565b61201c906001612945565b90505b6001811115612094576f181899199a1a9b1b9c1cb0b131b232b360811b85600f166010811061205057612050612c45565b1a60f81b82828151811061206657612066612c45565b60200101906001600160f81b031916908160001a90535060049490941c9361208d81612f86565b905061201f565b5083156107a35760405162461bcd60e51b815260206004820181905260248201527f537472696e67733a20686578206c656e67746820696e73756666696369656e7460448201526064016105d3565b8280546120ef906129c3565b90600052602060002090601f0160209004810192826121115760008555612157565b82601f1061212a5782800160ff19823516178555612157565b82800160010185558215612157579182015b8281111561215757823582559160200191906001019061213c565b50612163929150612167565b5090565b5b808211156121635760008155600101612168565b80356001600160a01b038116811461219357600080fd5b919050565b600080604083850312156121ab57600080fd5b6121b48361217c565b946020939093013593505050565b6001600160e01b03198116811461138157600080fd5b6000602082840312156121ea57600080fd5b81356107a3816121c2565b60006020828403121561220757600080fd5b5035919050565b60005b83811015612229578181015183820152602001612211565b83811115612238576000848401525b50505050565b6000815180845261225681602086016020860161220e565b601f01601f19169290920160200192915050565b6020815260006107a3602083018461223e565b6000806040838503121561229057600080fd5b823591506122a06020840161217c565b90509250929050565b6000806000606084860312156122be57600080fd5b6122c78461217c565b95602085013595506040909401359392505050565b634e487b7160e01b600052604160045260246000fd5b601f8201601f191681016001600160401b0381118282101715612317576123176122dc565b6040525050565b60006001600160401b03821115612337576123376122dc565b5060051b60200190565b600082601f83011261235257600080fd5b8135602061235f8261231e565b60405161236c82826122f2565b83815260059390931b850182019282810191508684111561238c57600080fd5b8286015b848110156123a75780358352918301918301612390565b509695505050505050565b60006001600160401b038211156123cb576123cb6122dc565b50601f01601f191660200190565b600082601f8301126123ea57600080fd5b81356123f5816123b2565b60405161240282826122f2565b82815285602084870101111561241757600080fd5b82602086016020830137600092810160200192909252509392505050565b600080600080600060a0868803121561244d57600080fd5b6124568661217c565b94506124646020870161217c565b935060408601356001600160401b038082111561248057600080fd5b61248c89838a01612341565b945060608801359150808211156124a257600080fd5b6124ae89838a01612341565b935060808801359150808211156124c457600080fd5b506124d1888289016123d9565b9150509295509295909350565b600060c082840312156124f057600080fd5b50919050565b6000806040838503121561250957600080fd5b8235915060208301356001600160401b0381111561252657600080fd5b612532858286016124de565b9150509250929050565b6000806040838503121561254f57600080fd5b82356001600160401b038082111561256657600080fd5b818501915085601f83011261257a57600080fd5b813560206125878261231e565b60405161259482826122f2565b83815260059390931b85018201928281019150898411156125b457600080fd5b948201945b838610156125d9576125ca8661217c565b825294820194908201906125b9565b965050860135925050808211156125ef57600080fd5b5061253285828601612341565b600081518084526020808501945080840160005b8381101561262c57815187529582019590820190600101612610565b509495945050505050565b6020815260006107a360208301846125fc565b6000806020838503121561265d57600080fd5b82356001600160401b038082111561267457600080fd5b818501915085601f83011261268857600080fd5b81358181111561269757600080fd5b8660208285010111156126a957600080fd5b60209290920196919550909350505050565b600080604083850312156126ce57600080fd5b82356001600160401b038111156126e457600080fd5b6126f0858286016124de565b95602094909401359450505050565b8035801515811461219357600080fd5b6000806040838503121561272257600080fd5b61272b8361217c565b91506122a0602084016126ff565b60008060006060848603121561274e57600080fd5b8335925061275e6020850161217c565b915061276c604085016126ff565b90509250925092565b60c08152600061278860c083018961223e565b828103602084015261279a818961223e565b905082810360408401526127ae818861223e565b905082810360608401526127c2818761223e565b905082810360808401526127d6818661223e565b9150508260a0830152979650505050505050565b6000602082840312156127fc57600080fd5b6107a38261217c565b6000806040838503121561281857600080fd5b6128218361217c565b91506122a06020840161217c565b600080600080600060a0868803121561284757600080fd5b6128508661217c565b945061285e6020870161217c565b9350604086013592506060860135915060808601356001600160401b0381111561288757600080fd5b6124d1888289016123d9565b6000602082840312156128a557600080fd5b6107a3826126ff565b6000602082840312156128c057600080fd5b81516001600160401b038111156128d657600080fd5b8201601f810184136128e757600080fd5b80516128f2816123b2565b6040516128ff82826122f2565b82815286602084860101111561291457600080fd5b61292583602083016020870161220e565b9695505050505050565b634e487b7160e01b600052601160045260246000fd5b600082198211156129585761295861292f565b500190565b60006001820161296f5761296f61292f565b5060010190565b6000808335601e1984360301811261298d57600080fd5b8301803591506001600160401b038211156129a757600080fd5b6020019150368190038213156129bc57600080fd5b9250929050565b600181811c908216806129d757607f821691505b6020821081036124f057634e487b7160e01b600052602260045260246000fd5b601f82111561086657600081815260208120601f850160051c81016020861015612a1e5750805b601f850160051c820191505b8181101561172157828155600101612a2a565b6001600160401b03831115612a5457612a546122dc565b612a6883612a6283546129c3565b836129f7565b6000601f841160018114612a9c5760008515612a845750838201355b600019600387901b1c1916600186901b17835561083a565b600083815260209020601f19861690835b82811015612acd5786850135825560209485019460019092019101612aad565b5086821015612aea5760001960f88860031b161c19848701351681555b505060018560011b0183555050505050565b612b068283612976565b6001600160401b03811115612b1d57612b1d6122dc565b612b3181612b2b85546129c3565b856129f7565b6000601f821160018114612b655760008315612b4d5750838201355b600019600385901b1c1916600184901b178555612bbf565b600085815260209020601f19841690835b82811015612b965786850135825560209485019460019092019101612b76565b5084821015612bb35760001960f88660031b161c19848701351681555b505060018360011b0185555b50505050612bd06020830183612976565b612bde818360018601612a3d565b5050612bed6040830183612976565b612bfb818360028601612a3d565b5050612c0a6060830183612976565b612c18818360038601612a3d565b5050612c276080830183612976565b612c35818360048601612a3d565b505060a082013560058201555050565b634e487b7160e01b600052603260045260246000fd5b60208082526025908201527f455243313135353a207472616e7366657220746f20746865207a65726f206164604082015264647265737360d81b606082015260800190565b6020808252602a908201527f455243313135353a20696e73756666696369656e742062616c616e636520666f60408201526939103a3930b739b332b960b11b606082015260800190565b604081526000612cfd60408301856125fc565b8281036020840152612d0f81856125fc565b95945050505050565b6001600160a01b03868116825285166020820152604081018490526060810183905260a060808201819052600090612d529083018461223e565b979650505050505050565b600060208284031215612d6f57600080fd5b81516107a3816121c2565b600060033d1115612d935760046000803e5060005160e01c5b90565b600060443d1015612da45790565b6040516003193d81016004833e81513d6001600160401b038160248401118184111715612dd357505050505090565b8285019150815181811115612deb5750505050505090565b843d8701016020828501011115612e055750505050505090565b612e14602082860101876122f2565b509095945050505050565b60208082526028908201527f455243313135353a204552433131353552656365697665722072656a656374656040820152676420746f6b656e7360c01b606082015260800190565b6001600160a01b0386811682528516602082015260a060408201819052600090612e93908301866125fc565b8281036060840152612ea581866125fc565b90508281036080840152612eb9818561223e565b98975050505050505050565b7f416363657373436f6e74726f6c3a206163636f756e7420000000000000000000815260008351612efd81601785016020880161220e565b7001034b99036b4b9b9b4b733903937b6329607d1b6017918401918201528351612f2e81602884016020880161220e565b01602801949350505050565b600082821015612f4c57612f4c61292f565b500390565b634e487b7160e01b600052603160045260246000fd5b6000816000190483118215151615612f8157612f8161292f565b500290565b600081612f9557612f9561292f565b50600019019056fea49807205ce4d355092ef5a8a18f56e8913cf4a201fbe287825b095693c21775a264697066735822122095fda50c2b10ca9fa5c43cd7a41e31f078e0be0085b720070cf310c59b912de664736f6c634300080e003368747470733a2f2f626f612e6c617276616d61696f72756d2e636f6d2f6170692f626f61",
  "devdoc": {
    "kind": "dev",
    "methods": {
      "balanceOf(address,uint256)": {
        "details": "See {IERC1155-balanceOf}. Requirements: - `account` cannot be the zero address."
      },
      "balanceOfBatch(address[],uint256[])": {
        "details": "See {IERC1155-balanceOfBatch}. Requirements: - `accounts` and `ids` must have the same length."
      },
      "getRoleAdmin(bytes32)": {
        "details": "Returns the admin role that controls `role`. See {grantRole} and {revokeRole}. To change a role's admin, use {_setRoleAdmin}."
      },
      "grantRole(bytes32,address)": {
        "details": "Grants `role` to `account`. If `account` had not been already granted `role`, emits a {RoleGranted} event. Requirements: - the caller must have ``role``'s admin role."
      },
      "hasRole(bytes32,address)": {
        "details": "Returns `true` if `account` has been granted `role`."
      },
      "isApprovedForAll(address,address)": {
        "details": "See {IERC1155-isApprovedForAll}."
      },
      "owner()": {
        "details": "Returns the address of the current owner."
      },
      "renounceOwnership()": {
        "details": "Leaves the contract without owner. It will not be possible to call `onlyOwner` functions anymore. Can only be called by the current owner. NOTE: Renouncing ownership will leave the contract without an owner, thereby removing any functionality that is only available to the owner."
      },
      "renounceRole(bytes32,address)": {
        "details": "Revokes `role` from the calling account. Roles are often managed via {grantRole} and {revokeRole}: this function's purpose is to provide a mechanism for accounts to lose their privileges if they are compromised (such as when a trusted device is misplaced). If the calling account had been revoked `role`, emits a {RoleRevoked} event. Requirements: - the caller must be `account`."
      },
      "revokeRole(bytes32,address)": {
        "details": "Revokes `role` from `account`. If `account` had been granted `role`, emits a {RoleRevoked} event. Requirements: - the caller must have ``role``'s admin role."
      },
      "safeBatchTransferFrom(address,address,uint256[],uint256[],bytes)": {
        "details": "See {IERC1155-safeBatchTransferFrom}."
      },
      "safeTransferFrom(address,address,uint256,uint256,bytes)": {
        "details": "See {IERC1155-safeTransferFrom}."
      },
      "setApprovalForAll(address,bool)": {
        "details": "See {IERC1155-setApprovalForAll}."
      },
      "supportsInterface(bytes4)": {
        "details": "See {IERC165-supportsInterface}."
      },
      "transferOwnership(address)": {
        "details": "Transfers ownership of the contract to a new account (`newOwner`). Can only be called by the current owner."
      }
    },
    "version": 1
  },
  "userdoc": {
    "kind": "user",
    "methods": {},
    "version": 1
  },
  "storageLayout": {
    "storage": [
      {
        "astId": 523,
        "contract": "contracts/BadgeOfAssembly.sol:BadgeOfAssembly",
        "label": "_balances",
        "offset": 0,
        "slot": "0",
        "type": "t_mapping(t_uint256,t_mapping(t_address,t_uint256))"
      },
      {
        "astId": 529,
        "contract": "contracts/BadgeOfAssembly.sol:BadgeOfAssembly",
        "label": "_operatorApprovals",
        "offset": 0,
        "slot": "1",
        "type": "t_mapping(t_address,t_mapping(t_address,t_bool))"
      },
      {
        "astId": 531,
        "contract": "contracts/BadgeOfAssembly.sol:BadgeOfAssembly",
        "label": "_uri",
        "offset": 0,
        "slot": "2",
        "type": "t_string_storage"
      },
      {
        "astId": 24,
        "contract": "contracts/BadgeOfAssembly.sol:BadgeOfAssembly",
        "label": "_roles",
        "offset": 0,
        "slot": "3",
        "type": "t_mapping(t_bytes32,t_struct(RoleData)19_storage)"
      },
      {
        "astId": 400,
        "contract": "contracts/BadgeOfAssembly.sol:BadgeOfAssembly",
        "label": "_owner",
        "offset": 0,
        "slot": "4",
        "type": "t_address"
      },
      {
        "astId": 3216,
        "contract": "contracts/BadgeOfAssembly.sol:BadgeOfAssembly",
        "label": "gatedAccess",
        "offset": 20,
        "slot": "4",
        "type": "t_bool"
      },
      {
        "astId": 3229,
        "contract": "contracts/BadgeOfAssembly.sol:BadgeOfAssembly",
        "label": "_contractURI",
        "offset": 0,
        "slot": "5",
        "type": "t_string_storage"
      },
      {
        "astId": 3232,
        "contract": "contracts/BadgeOfAssembly.sol:BadgeOfAssembly",
        "label": "_metadataPrinter",
        "offset": 0,
        "slot": "6",
        "type": "t_contract(IMetadataPrinter)3859"
      },
      {
        "astId": 3235,
        "contract": "contracts/BadgeOfAssembly.sol:BadgeOfAssembly",
        "label": "_tokenId",
        "offset": 0,
        "slot": "7",
        "type": "t_struct(Counter)2268_storage"
      },
      {
        "astId": 3240,
        "contract": "contracts/BadgeOfAssembly.sol:BadgeOfAssembly",
        "label": "_userTokens",
        "offset": 0,
        "slot": "8",
        "type": "t_mapping(t_address,t_struct(UintSet)3044_storage)"
      },
      {
        "astId": 3245,
        "contract": "contracts/BadgeOfAssembly.sol:BadgeOfAssembly",
        "label": "_badgeAdmin",
        "offset": 0,
        "slot": "9",
        "type": "t_mapping(t_address,t_struct(UintSet)3044_storage)"
      },
      {
        "astId": 3250,
        "contract": "contracts/BadgeOfAssembly.sol:BadgeOfAssembly",
        "label": "metadata",
        "offset": 0,
        "slot": "10",
        "type": "t_mapping(t_uint256,t_struct(BadgeMetadata)3213_storage)"
      },
      {
        "astId": 3256,
        "contract": "contracts/BadgeOfAssembly.sol:BadgeOfAssembly",
        "label": "minters",
        "offset": 0,
        "slot": "11",
        "type": "t_mapping(t_uint256,t_mapping(t_address,t_bool))"
      },
      {
        "astId": 3262,
        "contract": "contracts/BadgeOfAssembly.sol:BadgeOfAssembly",
        "label": "mints",
        "offset": 0,
        "slot": "12",
        "type": "t_mapping(t_uint256,t_mapping(t_address,t_uint256))"
      },
      {
        "astId": 3266,
        "contract": "contracts/BadgeOfAssembly.sol:BadgeOfAssembly",
        "label": "totalSupply",
        "offset": 0,
        "slot": "13",
        "type": "t_mapping(t_uint256,t_uint256)"
      }
    ],
    "types": {
      "t_address": {
        "encoding": "inplace",
        "label": "address",
        "numberOfBytes": "20"
      },
      "t_array(t_bytes32)dyn_storage": {
        "base": "t_bytes32",
        "encoding": "dynamic_array",
        "label": "bytes32[]",
        "numberOfBytes": "32"
      },
      "t_bool": {
        "encoding": "inplace",
        "label": "bool",
        "numberOfBytes": "1"
      },
      "t_bytes32": {
        "encoding": "inplace",
        "label": "bytes32",
        "numberOfBytes": "32"
      },
      "t_contract(IMetadataPrinter)3859": {
        "encoding": "inplace",
        "label": "contract IMetadataPrinter",
        "numberOfBytes": "20"
      },
      "t_mapping(t_address,t_bool)": {
        "encoding": "mapping",
        "key": "t_address",
        "label": "mapping(address => bool)",
        "numberOfBytes": "32",
        "value": "t_bool"
      },
      "t_mapping(t_address,t_mapping(t_address,t_bool))": {
        "encoding": "mapping",
        "key": "t_address",
        "label": "mapping(address => mapping(address => bool))",
        "numberOfBytes": "32",
        "value": "t_mapping(t_address,t_bool)"
      },
      "t_mapping(t_address,t_struct(UintSet)3044_storage)": {
        "encoding": "mapping",
        "key": "t_address",
        "label": "mapping(address => struct EnumerableSet.UintSet)",
        "numberOfBytes": "32",
        "value": "t_struct(UintSet)3044_storage"
      },
      "t_mapping(t_address,t_uint256)": {
        "encoding": "mapping",
        "key": "t_address",
        "label": "mapping(address => uint256)",
        "numberOfBytes": "32",
        "value": "t_uint256"
      },
      "t_mapping(t_bytes32,t_struct(RoleData)19_storage)": {
        "encoding": "mapping",
        "key": "t_bytes32",
        "label": "mapping(bytes32 => struct AccessControl.RoleData)",
        "numberOfBytes": "32",
        "value": "t_struct(RoleData)19_storage"
      },
      "t_mapping(t_bytes32,t_uint256)": {
        "encoding": "mapping",
        "key": "t_bytes32",
        "label": "mapping(bytes32 => uint256)",
        "numberOfBytes": "32",
        "value": "t_uint256"
      },
      "t_mapping(t_uint256,t_mapping(t_address,t_bool))": {
        "encoding": "mapping",
        "key": "t_uint256",
        "label": "mapping(uint256 => mapping(address => bool))",
        "numberOfBytes": "32",
        "value": "t_mapping(t_address,t_bool)"
      },
      "t_mapping(t_uint256,t_mapping(t_address,t_uint256))": {
        "encoding": "mapping",
        "key": "t_uint256",
        "label": "mapping(uint256 => mapping(address => uint256))",
        "numberOfBytes": "32",
        "value": "t_mapping(t_address,t_uint256)"
      },
      "t_mapping(t_uint256,t_struct(BadgeMetadata)3213_storage)": {
        "encoding": "mapping",
        "key": "t_uint256",
        "label": "mapping(uint256 => struct BadgeOfAssembly.BadgeMetadata)",
        "numberOfBytes": "32",
        "value": "t_struct(BadgeMetadata)3213_storage"
      },
      "t_mapping(t_uint256,t_uint256)": {
        "encoding": "mapping",
        "key": "t_uint256",
        "label": "mapping(uint256 => uint256)",
        "numberOfBytes": "32",
        "value": "t_uint256"
      },
      "t_string_storage": {
        "encoding": "bytes",
        "label": "string",
        "numberOfBytes": "32"
      },
      "t_struct(BadgeMetadata)3213_storage": {
        "encoding": "inplace",
        "label": "struct BadgeOfAssembly.BadgeMetadata",
        "members": [
          {
            "astId": 3202,
            "contract": "contracts/BadgeOfAssembly.sol:BadgeOfAssembly",
            "label": "name",
            "offset": 0,
            "slot": "0",
            "type": "t_string_storage"
          },
          {
            "astId": 3204,
            "contract": "contracts/BadgeOfAssembly.sol:BadgeOfAssembly",
            "label": "description",
            "offset": 0,
            "slot": "1",
            "type": "t_string_storage"
          },
          {
            "astId": 3206,
            "contract": "contracts/BadgeOfAssembly.sol:BadgeOfAssembly",
            "label": "image",
            "offset": 0,
            "slot": "2",
            "type": "t_string_storage"
          },
          {
            "astId": 3208,
            "contract": "contracts/BadgeOfAssembly.sol:BadgeOfAssembly",
            "label": "animationUrl",
            "offset": 0,
            "slot": "3",
            "type": "t_string_storage"
          },
          {
            "astId": 3210,
            "contract": "contracts/BadgeOfAssembly.sol:BadgeOfAssembly",
            "label": "youtubeUrl",
            "offset": 0,
            "slot": "4",
            "type": "t_string_storage"
          },
          {
            "astId": 3212,
            "contract": "contracts/BadgeOfAssembly.sol:BadgeOfAssembly",
            "label": "maxPerWallet",
            "offset": 0,
            "slot": "5",
            "type": "t_uint256"
          }
        ],
        "numberOfBytes": "192"
      },
      "t_struct(Counter)2268_storage": {
        "encoding": "inplace",
        "label": "struct Counters.Counter",
        "members": [
          {
            "astId": 2267,
            "contract": "contracts/BadgeOfAssembly.sol:BadgeOfAssembly",
            "label": "_value",
            "offset": 0,
            "slot": "0",
            "type": "t_uint256"
          }
        ],
        "numberOfBytes": "32"
      },
      "t_struct(RoleData)19_storage": {
        "encoding": "inplace",
        "label": "struct AccessControl.RoleData",
        "members": [
          {
            "astId": 16,
            "contract": "contracts/BadgeOfAssembly.sol:BadgeOfAssembly",
            "label": "members",
            "offset": 0,
            "slot": "0",
            "type": "t_mapping(t_address,t_bool)"
          },
          {
            "astId": 18,
            "contract": "contracts/BadgeOfAssembly.sol:BadgeOfAssembly",
            "label": "adminRole",
            "offset": 0,
            "slot": "1",
            "type": "t_bytes32"
          }
        ],
        "numberOfBytes": "64"
      },
      "t_struct(Set)2586_storage": {
        "encoding": "inplace",
        "label": "struct EnumerableSet.Set",
        "members": [
          {
            "astId": 2581,
            "contract": "contracts/BadgeOfAssembly.sol:BadgeOfAssembly",
            "label": "_values",
            "offset": 0,
            "slot": "0",
            "type": "t_array(t_bytes32)dyn_storage"
          },
          {
            "astId": 2585,
            "contract": "contracts/BadgeOfAssembly.sol:BadgeOfAssembly",
            "label": "_indexes",
            "offset": 0,
            "slot": "1",
            "type": "t_mapping(t_bytes32,t_uint256)"
          }
        ],
        "numberOfBytes": "64"
      },
      "t_struct(UintSet)3044_storage": {
        "encoding": "inplace",
        "label": "struct EnumerableSet.UintSet",
        "members": [
          {
            "astId": 3043,
            "contract": "contracts/BadgeOfAssembly.sol:BadgeOfAssembly",
            "label": "_inner",
            "offset": 0,
            "slot": "0",
            "type": "t_struct(Set)2586_storage"
          }
        ],
        "numberOfBytes": "64"
      },
      "t_uint256": {
        "encoding": "inplace",
        "label": "uint256",
        "numberOfBytes": "32"
      }
    }
  }
}