{
  "address": "0x6201CCc4842db6148df04A4b2d155FdC86E23b95",
  "abi": [
    {
      "inputs": [
        {
          "internalType": "address",
          "name": "metadataPrinter",
          "type": "address"
        },
        {
          "internalType": "address",
          "name": "initialOwner",
          "type": "address"
        }
      ],
      "stateMutability": "nonpayable",
      "type": "constructor"
    },
    {
      "inputs": [],
      "name": "AlreadyClaimed",
      "type": "error"
    },
    {
      "inputs": [],
      "name": "Unauthorized",
      "type": "error"
    },
    {
      "anonymous": false,
      "inputs": [
        {
          "indexed": true,
          "internalType": "address",
          "name": "account",
          "type": "address"
        },
        {
          "indexed": true,
          "internalType": "address",
          "name": "operator",
          "type": "address"
        },
        {
          "indexed": false,
          "internalType": "bool",
          "name": "approved",
          "type": "bool"
        }
      ],
      "name": "ApprovalForAll",
      "type": "event"
    },
    {
      "anonymous": false,
      "inputs": [
        {
          "indexed": true,
          "internalType": "address",
          "name": "previousOwner",
          "type": "address"
        },
        {
          "indexed": true,
          "internalType": "address",
          "name": "newOwner",
          "type": "address"
        }
      ],
      "name": "OwnershipTransferred",
      "type": "event"
    },
    {
      "anonymous": false,
      "inputs": [
        {
          "indexed": true,
          "internalType": "bytes32",
          "name": "role",
          "type": "bytes32"
        },
        {
          "indexed": true,
          "internalType": "bytes32",
          "name": "previousAdminRole",
          "type": "bytes32"
        },
        {
          "indexed": true,
          "internalType": "bytes32",
          "name": "newAdminRole",
          "type": "bytes32"
        }
      ],
      "name": "RoleAdminChanged",
      "type": "event"
    },
    {
      "anonymous": false,
      "inputs": [
        {
          "indexed": true,
          "internalType": "bytes32",
          "name": "role",
          "type": "bytes32"
        },
        {
          "indexed": true,
          "internalType": "address",
          "name": "account",
          "type": "address"
        },
        {
          "indexed": true,
          "internalType": "address",
          "name": "sender",
          "type": "address"
        }
      ],
      "name": "RoleGranted",
      "type": "event"
    },
    {
      "anonymous": false,
      "inputs": [
        {
          "indexed": true,
          "internalType": "bytes32",
          "name": "role",
          "type": "bytes32"
        },
        {
          "indexed": true,
          "internalType": "address",
          "name": "account",
          "type": "address"
        },
        {
          "indexed": true,
          "internalType": "address",
          "name": "sender",
          "type": "address"
        }
      ],
      "name": "RoleRevoked",
      "type": "event"
    },
    {
      "anonymous": false,
      "inputs": [
        {
          "indexed": true,
          "internalType": "address",
          "name": "operator",
          "type": "address"
        },
        {
          "indexed": true,
          "internalType": "address",
          "name": "from",
          "type": "address"
        },
        {
          "indexed": true,
          "internalType": "address",
          "name": "to",
          "type": "address"
        },
        {
          "indexed": false,
          "internalType": "uint256[]",
          "name": "ids",
          "type": "uint256[]"
        },
        {
          "indexed": false,
          "internalType": "uint256[]",
          "name": "values",
          "type": "uint256[]"
        }
      ],
      "name": "TransferBatch",
      "type": "event"
    },
    {
      "anonymous": false,
      "inputs": [
        {
          "indexed": true,
          "internalType": "address",
          "name": "operator",
          "type": "address"
        },
        {
          "indexed": true,
          "internalType": "address",
          "name": "from",
          "type": "address"
        },
        {
          "indexed": true,
          "internalType": "address",
          "name": "to",
          "type": "address"
        },
        {
          "indexed": false,
          "internalType": "uint256",
          "name": "id",
          "type": "uint256"
        },
        {
          "indexed": false,
          "internalType": "uint256",
          "name": "value",
          "type": "uint256"
        }
      ],
      "name": "TransferSingle",
      "type": "event"
    },
    {
      "anonymous": false,
      "inputs": [
        {
          "indexed": false,
          "internalType": "string",
          "name": "value",
          "type": "string"
        },
        {
          "indexed": true,
          "internalType": "uint256",
          "name": "id",
          "type": "uint256"
        }
      ],
      "name": "URI",
      "type": "event"
    },
    {
      "inputs": [],
      "name": "ADMIN_ROLE",
      "outputs": [
        {
          "internalType": "bytes32",
          "name": "",
          "type": "bytes32"
        }
      ],
      "stateMutability": "view",
      "type": "function"
    },
    {
      "inputs": [],
      "name": "CREATOR_ROLE",
      "outputs": [
        {
          "internalType": "bytes32",
          "name": "",
          "type": "bytes32"
        }
      ],
      "stateMutability": "view",
      "type": "function"
    },
    {
      "inputs": [],
      "name": "DEFAULT_ADMIN_ROLE",
      "outputs": [
        {
          "internalType": "bytes32",
          "name": "",
          "type": "bytes32"
        }
      ],
      "stateMutability": "view",
      "type": "function"
    },
    {
      "inputs": [],
      "name": "_contractURI",
      "outputs": [
        {
          "internalType": "string",
          "name": "",
          "type": "string"
        }
      ],
      "stateMutability": "view",
      "type": "function"
    },
    {
      "inputs": [
        {
          "internalType": "address",
          "name": "account",
          "type": "address"
        },
        {
          "internalType": "uint256",
          "name": "id",
          "type": "uint256"
        }
      ],
      "name": "balanceOf",
      "outputs": [
        {
          "internalType": "uint256",
          "name": "",
          "type": "uint256"
        }
      ],
      "stateMutability": "view",
      "type": "function"
    },
    {
      "inputs": [
        {
          "internalType": "address[]",
          "name": "accounts",
          "type": "address[]"
        },
        {
          "internalType": "uint256[]",
          "name": "ids",
          "type": "uint256[]"
        }
      ],
      "name": "balanceOfBatch",
      "outputs": [
        {
          "internalType": "uint256[]",
          "name": "",
          "type": "uint256[]"
        }
      ],
      "stateMutability": "view",
      "type": "function"
    },
    {
      "inputs": [],
      "name": "contractURI",
      "outputs": [
        {
          "internalType": "string",
          "name": "",
          "type": "string"
        }
      ],
      "stateMutability": "view",
      "type": "function"
    },
    {
      "inputs": [],
      "name": "gatedAccess",
      "outputs": [
        {
          "internalType": "bool",
          "name": "",
          "type": "bool"
        }
      ],
      "stateMutability": "view",
      "type": "function"
    },
    {
      "inputs": [
        {
          "internalType": "bytes32",
          "name": "role",
          "type": "bytes32"
        }
      ],
      "name": "getRoleAdmin",
      "outputs": [
        {
          "internalType": "bytes32",
          "name": "",
          "type": "bytes32"
        }
      ],
      "stateMutability": "view",
      "type": "function"
    },
    {
      "inputs": [
        {
          "internalType": "bytes32",
          "name": "role",
          "type": "bytes32"
        },
        {
          "internalType": "address",
          "name": "account",
          "type": "address"
        }
      ],
      "name": "grantRole",
      "outputs": [],
      "stateMutability": "nonpayable",
      "type": "function"
    },
    {
      "inputs": [
        {
          "internalType": "bytes32",
          "name": "role",
          "type": "bytes32"
        },
        {
          "internalType": "address",
          "name": "account",
          "type": "address"
        }
      ],
      "name": "hasRole",
      "outputs": [
        {
          "internalType": "bool",
          "name": "",
          "type": "bool"
        }
      ],
      "stateMutability": "view",
      "type": "function"
    },
    {
      "inputs": [
        {
          "internalType": "address",
          "name": "account",
          "type": "address"
        },
        {
          "internalType": "address",
          "name": "operator",
          "type": "address"
        }
      ],
      "name": "isApprovedForAll",
      "outputs": [
        {
          "internalType": "bool",
          "name": "",
          "type": "bool"
        }
      ],
      "stateMutability": "view",
      "type": "function"
    },
    {
      "inputs": [
        {
          "internalType": "uint256",
          "name": "",
          "type": "uint256"
        }
      ],
      "name": "metadata",
      "outputs": [
        {
          "internalType": "string",
          "name": "name",
          "type": "string"
        },
        {
          "internalType": "string",
          "name": "description",
          "type": "string"
        },
        {
          "internalType": "string",
          "name": "image",
          "type": "string"
        },
        {
          "internalType": "string",
          "name": "animationUrl",
          "type": "string"
        },
        {
          "internalType": "string",
          "name": "youtubeUrl",
          "type": "string"
        },
        {
          "internalType": "uint256",
          "name": "maxPerWallet",
          "type": "uint256"
        }
      ],
      "stateMutability": "view",
      "type": "function"
    },
    {
      "inputs": [
        {
          "internalType": "address",
          "name": "to",
          "type": "address"
        },
        {
          "internalType": "uint256",
          "name": "tokenID",
          "type": "uint256"
        },
        {
          "internalType": "uint256",
          "name": "amount",
          "type": "uint256"
        }
      ],
      "name": "mint",
      "outputs": [
        {
          "internalType": "bool",
          "name": "",
          "type": "bool"
        }
      ],
      "stateMutability": "nonpayable",
      "type": "function"
    },
    {
      "inputs": [
        {
          "internalType": "uint256",
          "name": "",
          "type": "uint256"
        },
        {
          "internalType": "address",
          "name": "",
          "type": "address"
        }
      ],
      "name": "minters",
      "outputs": [
        {
          "internalType": "bool",
          "name": "",
          "type": "bool"
        }
      ],
      "stateMutability": "view",
      "type": "function"
    },
    {
      "inputs": [
        {
          "internalType": "uint256",
          "name": "",
          "type": "uint256"
        },
        {
          "internalType": "address",
          "name": "",
          "type": "address"
        }
      ],
      "name": "mints",
      "outputs": [
        {
          "internalType": "uint256",
          "name": "",
          "type": "uint256"
        }
      ],
      "stateMutability": "view",
      "type": "function"
    },
    {
      "inputs": [],
      "name": "owner",
      "outputs": [
        {
          "internalType": "address",
          "name": "",
          "type": "address"
        }
      ],
      "stateMutability": "view",
      "type": "function"
    },
    {
      "inputs": [],
      "name": "renounceOwnership",
      "outputs": [],
      "stateMutability": "nonpayable",
      "type": "function"
    },
    {
      "inputs": [
        {
          "internalType": "bytes32",
          "name": "role",
          "type": "bytes32"
        },
        {
          "internalType": "address",
          "name": "account",
          "type": "address"
        }
      ],
      "name": "renounceRole",
      "outputs": [],
      "stateMutability": "nonpayable",
      "type": "function"
    },
    {
      "inputs": [
        {
          "internalType": "bytes32",
          "name": "role",
          "type": "bytes32"
        },
        {
          "internalType": "address",
          "name": "account",
          "type": "address"
        }
      ],
      "name": "revokeRole",
      "outputs": [],
      "stateMutability": "nonpayable",
      "type": "function"
    },
    {
      "inputs": [
        {
          "internalType": "address",
          "name": "from",
          "type": "address"
        },
        {
          "internalType": "address",
          "name": "to",
          "type": "address"
        },
        {
          "internalType": "uint256[]",
          "name": "ids",
          "type": "uint256[]"
        },
        {
          "internalType": "uint256[]",
          "name": "amounts",
          "type": "uint256[]"
        },
        {
          "internalType": "bytes",
          "name": "data",
          "type": "bytes"
        }
      ],
      "name": "safeBatchTransferFrom",
      "outputs": [],
      "stateMutability": "nonpayable",
      "type": "function"
    },
    {
      "inputs": [
        {
          "internalType": "address",
          "name": "from",
          "type": "address"
        },
        {
          "internalType": "address",
          "name": "to",
          "type": "address"
        },
        {
          "internalType": "uint256",
          "name": "id",
          "type": "uint256"
        },
        {
          "internalType": "uint256",
          "name": "amount",
          "type": "uint256"
        },
        {
          "internalType": "bytes",
          "name": "data",
          "type": "bytes"
        }
      ],
      "name": "safeTransferFrom",
      "outputs": [],
      "stateMutability": "nonpayable",
      "type": "function"
    },
    {
      "inputs": [
        {
          "internalType": "address",
          "name": "operator",
          "type": "address"
        },
        {
          "internalType": "bool",
          "name": "approved",
          "type": "bool"
        }
      ],
      "name": "setApprovalForAll",
      "outputs": [],
      "stateMutability": "nonpayable",
      "type": "function"
    },
    {
      "inputs": [
        {
          "internalType": "string",
          "name": "newContractURI",
          "type": "string"
        }
      ],
      "name": "setContractURI",
      "outputs": [
        {
          "internalType": "bool",
          "name": "",
          "type": "bool"
        }
      ],
      "stateMutability": "nonpayable",
      "type": "function"
    },
    {
      "inputs": [
        {
          "internalType": "address",
          "name": "newContract",
          "type": "address"
        }
      ],
      "name": "setMetadataPrinter",
      "outputs": [
        {
          "internalType": "bool",
          "name": "",
          "type": "bool"
        }
      ],
      "stateMutability": "nonpayable",
      "type": "function"
    },
    {
      "inputs": [
        {
          "internalType": "uint256",
          "name": "tokenID",
          "type": "uint256"
        },
        {
          "internalType": "address",
          "name": "minter",
          "type": "address"
        },
        {
          "internalType": "bool",
          "name": "canMint",
          "type": "bool"
        }
      ],
      "name": "setMinterAccess",
      "outputs": [
        {
          "internalType": "bool",
          "name": "",
          "type": "bool"
        }
      ],
      "stateMutability": "nonpayable",
      "type": "function"
    },
    {
      "inputs": [
        {
          "internalType": "bool",
          "name": "isOpen",
          "type": "bool"
        }
      ],
      "name": "setOpenToThePublic",
      "outputs": [
        {
          "internalType": "bool",
          "name": "",
          "type": "bool"
        }
      ],
      "stateMutability": "nonpayable",
      "type": "function"
    },
    {
      "inputs": [
        {
          "components": [
            {
              "internalType": "string",
              "name": "name",
              "type": "string"
            },
            {
              "internalType": "string",
              "name": "description",
              "type": "string"
            },
            {
              "internalType": "string",
              "name": "image",
              "type": "string"
            },
            {
              "internalType": "string",
              "name": "animationUrl",
              "type": "string"
            },
            {
              "internalType": "string",
              "name": "youtubeUrl",
              "type": "string"
            },
            {
              "internalType": "uint256",
              "name": "maxPerWallet",
              "type": "uint256"
            }
          ],
          "internalType": "struct BadgeOfAssembly.BadgeMetadata",
          "name": "_metadata",
          "type": "tuple"
        },
        {
          "internalType": "uint256",
          "name": "initialSupply",
          "type": "uint256"
        }
      ],
      "name": "setup",
      "outputs": [
        {
          "internalType": "uint256",
          "name": "",
          "type": "uint256"
        }
      ],
      "stateMutability": "nonpayable",
      "type": "function"
    },
    {
      "inputs": [
        {
          "internalType": "bytes4",
          "name": "interfaceId",
          "type": "bytes4"
        }
      ],
      "name": "supportsInterface",
      "outputs": [
        {
          "internalType": "bool",
          "name": "",
          "type": "bool"
        }
      ],
      "stateMutability": "view",
      "type": "function"
    },
    {
      "inputs": [
        {
          "internalType": "address",
          "name": "user",
          "type": "address"
        }
      ],
      "name": "tokenAdminOf",
      "outputs": [
        {
          "internalType": "uint256[]",
          "name": "",
          "type": "uint256[]"
        }
      ],
      "stateMutability": "view",
      "type": "function"
    },
    {
      "inputs": [
        {
          "internalType": "uint256",
          "name": "",
          "type": "uint256"
        }
      ],
      "name": "totalSupply",
      "outputs": [
        {
          "internalType": "uint256",
          "name": "",
          "type": "uint256"
        }
      ],
      "stateMutability": "view",
      "type": "function"
    },
    {
      "inputs": [
        {
          "internalType": "address",
          "name": "newOwner",
          "type": "address"
        }
      ],
      "name": "transferOwnership",
      "outputs": [],
      "stateMutability": "nonpayable",
      "type": "function"
    },
    {
      "inputs": [
        {
          "internalType": "uint256",
          "name": "tokenID",
          "type": "uint256"
        },
        {
          "components": [
            {
              "internalType": "string",
              "name": "name",
              "type": "string"
            },
            {
              "internalType": "string",
              "name": "description",
              "type": "string"
            },
            {
              "internalType": "string",
              "name": "image",
              "type": "string"
            },
            {
              "internalType": "string",
              "name": "animationUrl",
              "type": "string"
            },
            {
              "internalType": "string",
              "name": "youtubeUrl",
              "type": "string"
            },
            {
              "internalType": "uint256",
              "name": "maxPerWallet",
              "type": "uint256"
            }
          ],
          "internalType": "struct BadgeOfAssembly.BadgeMetadata",
          "name": "newMetadata",
          "type": "tuple"
        }
      ],
      "name": "updateMetadata",
      "outputs": [
        {
          "internalType": "bool",
          "name": "",
          "type": "bool"
        }
      ],
      "stateMutability": "nonpayable",
      "type": "function"
    },
    {
      "inputs": [
        {
          "internalType": "uint256",
          "name": "tokenID",
          "type": "uint256"
        }
      ],
      "name": "uri",
      "outputs": [
        {
          "internalType": "string",
          "name": "",
          "type": "string"
        }
      ],
      "stateMutability": "view",
      "type": "function"
    },
    {
      "inputs": [
        {
          "internalType": "address",
          "name": "userId",
          "type": "address"
        }
      ],
      "name": "userTokens",
      "outputs": [
        {
          "internalType": "uint256[]",
          "name": "",
          "type": "uint256[]"
        }
      ],
      "stateMutability": "view",
      "type": "function"
    }
  ],
  "transactionHash": "0xed1cde5592d7f687832954d188b71055d385bcdf0208ae2278d6b5d30c97c993",
  "args": [
    "0xc256F5460E9Fd07159e2063F4B6BBa020b1ba3df",
    "0xC88856AaA172152B7f10AD28443C372033165246"
  ],
  "numDeployments": 1,
  "solcInputHash": "1233a1ba48709a19f78e14153809e320",
  "bytecode": "0x6004805460ff60a01b1916600160a01b17905560e06040526024608081815290620032e660a03980516200003c9160059160209091019062000235565b503480156200004a57600080fd5b506040516200330a3803806200330a8339810160408190526200006d91620002f8565b60408051602081019091526000815262000087816200011d565b50620000933362000136565b620000bf7f828634d95e775031b9ff576b159a8509d3053581a8c9c4d7d86899e0afcd882f8262000188565b620000eb7fa49807205ce4d355092ef5a8a18f56e8913cf4a201fbe287825b095693c217758262000188565b620000f68162000136565b50600680546001600160a01b0319166001600160a01b03929092169190911790556200036c565b80516200013290600290602084019062000235565b5050565b600480546001600160a01b038381166001600160a01b0319831681179093556040519116919082907f8be0079c531659141344cd1fd0a4f28419497f9722a3daafe3b4186f6b6457e090600090a35050565b60008281526003602090815260408083206001600160a01b038516845290915290205462000132908390839060ff16620001325760008281526003602090815260408083206001600160a01b03851684529091529020805460ff19166001179055620001f13390565b6001600160a01b0316816001600160a01b0316837f2f8788117e7eff1d82e926ec794901d17c78024a50270940304540a733656f0d60405160405180910390a45050565b828054620002439062000330565b90600052602060002090601f016020900481019282620002675760008555620002b2565b82601f106200028257805160ff1916838001178555620002b2565b82800160010185558215620002b2579182015b82811115620002b257825182559160200191906001019062000295565b50620002c0929150620002c4565b5090565b5b80821115620002c05760008155600101620002c5565b80516001600160a01b0381168114620002f357600080fd5b919050565b600080604083850312156200030c57600080fd5b6200031783620002db565b91506200032760208401620002db565b90509250929050565b600181811c908216806200034557607f821691505b6020821081036200036657634e487b7160e01b600052602260045260246000fd5b50919050565b612f6a806200037c6000396000f3fe608060405234801561001057600080fd5b50600436106102105760003560e01c8063938e3d7b11610125578063e4e298a4116100ad578063eadcf88c1161007c578063eadcf88c1461050c578063ed498fa81461051f578063f242432a14610532578063f2fde38b14610545578063fa82c14e1461055857600080fd5b8063e4e298a414610487578063e8a3d4851461049a578063e942bdd2146104a2578063e985e9c5146104d057600080fd5b8063bd85b039116100f4578063bd85b03914610414578063bf50149314610434578063c0e7274014610447578063d547741f1461044f578063e3684e391461046257600080fd5b8063938e3d7b146103d357806399c41e5f146103e6578063a217fddf146103f9578063a22cb4651461040157600080fd5b806336568abe116101a857806375b238fc1161017757806375b238fc1461035557806389dea1d01461036a5780638aeda25a1461037e5780638da5cb5b146103a557806391d14854146103c057600080fd5b806336568abe146103075780634ce460261461031a5780634e1273f41461032d578063715018a61461034d57600080fd5b8063156e29f6116101e4578063156e29f6146102a9578063248a9ca3146102bc5780632eb2c2d6146102df5780632f2ff15d146102f457600080fd5b8062fdd58e1461021557806301ffc9a71461023b5780630e89341c1461025e57806314ef237e1461027e575b600080fd5b6102286102233660046120c0565b61056b565b6040519081526020015b60405180910390f35b61024e610249366004612100565b610604565b6040519015158152602001610232565b61027161026c36600461211d565b61060f565b6040516102329190612192565b61022861028c3660046121a5565b600c60209081526000928352604080842090915290825290205481565b61024e6102b73660046121d1565b610681565b6102286102ca36600461211d565b60009081526003602052604090206001015490565b6102f26102ed36600461235d565b6107a9565b005b6102f26103023660046121a5565b6107f5565b6102f26103153660046121a5565b61081f565b61024e61032836600461241e565b61089d565b61034061033b366004612464565b6108ea565b604051610232919061255f565b6102f2610a13565b610228600080516020612f1583398151915281565b60045461024e90600160a01b900460ff1681565b6102287f828634d95e775031b9ff576b159a8509d3053581a8c9c4d7d86899e0afcd882f81565b6004546040516001600160a01b039091168152602001610232565b61024e6103ce3660046121a5565b610a27565b61024e6103e1366004612572565b610a52565b6102286103f43660046125e3565b610a9e565b610228600081565b6102f261040f366004612637565b610bf4565b61022861042236600461211d565b600d6020526000908152604090205481565b61024e610442366004612661565b610bff565b610271610ccf565b6102f261045d3660046121a5565b610d5d565b61047561047036600461211d565b610d82565b6040516102329695949392919061269d565b61024e610495366004612712565b61105e565b6102716110ba565b61024e6104b03660046121a5565b600b60209081526000928352604080842090915290825290205460ff1681565b61024e6104de36600461272d565b6001600160a01b03918216600090815260016020908152604080832093909416825291909152205460ff1690565b61034061051a366004612712565b61114c565b61034061052d366004612712565b611170565b6102f2610540366004612757565b611194565b6102f2610553366004612712565b6111d9565b61024e6105663660046127bb565b611252565b60006001600160a01b0383166105db5760405162461bcd60e51b815260206004820152602a60248201527f455243313135353a2061646472657373207a65726f206973206e6f742061207660448201526930b634b21037bbb732b960b11b60648201526084015b60405180910390fd5b506000818152602081815260408083206001600160a01b03861684529091529020545b92915050565b60006105fe826112aa565b60065460405163e3684e3960e01b8152600481018390526060916001600160a01b03169063e3684e3990602401600060405180830381865afa158015610659573d6000803e3d6000fd5b505050506040513d6000823e601f3d908101601f191682016040526105fe91908101906127d6565b600061068d83336112cf565b6106a9576040516282b42960e81b815260040160405180910390fd5b6000838152600c602090815260408083206001600160a01b0388168452825280832054868452600a9092529091206005015480158015906106f25750806106f0858461286d565b115b1561071057604051630c8d9eab60e31b815260040160405180910390fd5b61071a848361286d565b6000868152600c602090815260408083206001600160a01b038b16845282528083209390935582519081019092528152610759908790879087906112fa565b6000858152600d6020526040812080549161077383612885565b90915550506001600160a01b038616600090815260086020526040902061079a908661140e565b506001925050505b9392505050565b6001600160a01b0385163314806107c557506107c585336104de565b6107e15760405162461bcd60e51b81526004016105d29061289e565b6107ee858585858561141a565b5050505050565b600082815260036020526040902060010154610810816115f7565b61081a8383611601565b505050565b6001600160a01b038116331461088f5760405162461bcd60e51b815260206004820152602f60248201527f416363657373436f6e74726f6c3a2063616e206f6e6c792072656e6f756e636560448201526e103937b632b9903337b91039b2b63360891b60648201526084016105d2565b6108998282611687565b5050565b60006108a983336112cf565b6108c5576040516282b42960e81b815260040160405180910390fd5b6000838152600a6020526040902082906108df8282612a73565b506001949350505050565b6060815183511461094f5760405162461bcd60e51b815260206004820152602960248201527f455243313135353a206163636f756e747320616e6420696473206c656e677468604482015268040dad2e6dac2e8c6d60bb1b60648201526084016105d2565b600083516001600160401b0381111561096a5761096a612204565b604051908082528060200260200182016040528015610993578160200160208202803683370190505b50905060005b8451811015610a0b576109de8582815181106109b7576109b7612bbc565b60200260200101518583815181106109d1576109d1612bbc565b602002602001015161056b565b8282815181106109f0576109f0612bbc565b6020908102919091010152610a0481612885565b9050610999565b509392505050565b610a1b6116ee565b610a256000611748565b565b60009182526003602090815260408084206001600160a01b0393909316845291905290205460ff1690565b6000610a6c600080516020612f1583398151915233610a27565b610a88576040516282b42960e81b815260040160405180910390fd5b610a946005848461200b565b5060019392505050565b6004546000903390600160a01b900460ff168015610ae35750610ae17f828634d95e775031b9ff576b159a8509d3053581a8c9c4d7d86899e0afcd882f82610a27565b155b15610b00576040516282b42960e81b815260040160405180910390fd5b610b0e600780546001019055565b6000610b1960075490565b6000818152600a602052604090209091508590610b368282612a73565b50506000818152600b602090815260408083206001600160a01b03861684529091529020805460ff191660011790558315610bc957610b86828286604051806020016040528060008152506112fa565b6001600160a01b0382166000908152600860205260409020610ba8908261140e565b506000818152600d60205260408120805491610bc383612885565b91905055505b6001600160a01b0382166000908152600960205260409020610beb908261140e565b50949350505050565b61089933838361179a565b600033610c0c85826112cf565b610c28576040516282b42960e81b815260040160405180910390fd5b8215610c88576001600160a01b0384166000908152600960205260409020610c50908661140e565b5050506000838152600b602090815260408083206001600160a01b03861684529091529020805460ff191660019081179091556107a2565b6000858152600b602090815260408083206001600160a01b03881684528252808320805460ff1916905560099091529020610cc3908661187a565b50600195945050505050565b60058054610cdc9061293a565b80601f0160208091040260200160405190810160405280929190818152602001828054610d089061293a565b8015610d555780601f10610d2a57610100808354040283529160200191610d55565b820191906000526020600020905b815481529060010190602001808311610d3857829003601f168201915b505050505081565b600082815260036020526040902060010154610d78816115f7565b61081a8383611687565b600a60205260009081526040902080548190610d9d9061293a565b80601f0160208091040260200160405190810160405280929190818152602001828054610dc99061293a565b8015610e165780601f10610deb57610100808354040283529160200191610e16565b820191906000526020600020905b815481529060010190602001808311610df957829003601f168201915b505050505090806001018054610e2b9061293a565b80601f0160208091040260200160405190810160405280929190818152602001828054610e579061293a565b8015610ea45780601f10610e7957610100808354040283529160200191610ea4565b820191906000526020600020905b815481529060010190602001808311610e8757829003601f168201915b505050505090806002018054610eb99061293a565b80601f0160208091040260200160405190810160405280929190818152602001828054610ee59061293a565b8015610f325780601f10610f0757610100808354040283529160200191610f32565b820191906000526020600020905b815481529060010190602001808311610f1557829003601f168201915b505050505090806003018054610f479061293a565b80601f0160208091040260200160405190810160405280929190818152602001828054610f739061293a565b8015610fc05780601f10610f9557610100808354040283529160200191610fc0565b820191906000526020600020905b815481529060010190602001808311610fa357829003601f168201915b505050505090806004018054610fd59061293a565b80601f01602080910402602001604051908101604052809291908181526020018280546110019061293a565b801561104e5780601f106110235761010080835404028352916020019161104e565b820191906000526020600020905b81548152906001019060200180831161103157829003601f168201915b5050505050908060050154905086565b6000611078600080516020612f1583398151915233610a27565b611094576040516282b42960e81b815260040160405180910390fd5b50600680546001600160a01b0319166001600160a01b0392909216919091179055600190565b6060600580546110c99061293a565b80601f01602080910402602001604051908101604052809291908181526020018280546110f59061293a565b80156111425780601f1061111757610100808354040283529160200191611142565b820191906000526020600020905b81548152906001019060200180831161112557829003601f168201915b5050505050905090565b6001600160a01b03811660009081526009602052604090206060906105fe90611886565b6001600160a01b03811660009081526008602052604090206060906105fe90611886565b6001600160a01b0385163314806111b057506111b085336104de565b6111cc5760405162461bcd60e51b81526004016105d29061289e565b6107ee8585858585611893565b6111e16116ee565b6001600160a01b0381166112465760405162461bcd60e51b815260206004820152602660248201527f4f776e61626c653a206e6577206f776e657220697320746865207a65726f206160448201526564647265737360d01b60648201526084016105d2565b61124f81611748565b50565b600061126c600080516020612f1583398151915233610a27565b611288576040516282b42960e81b815260040160405180910390fd5b5060048054911515600160a01b0260ff60a01b19909216919091179055600190565b60006001600160e01b03198216637965db0b60e01b14806105fe57506105fe826119bd565b6000918252600b602090815260408084206001600160a01b0393909316845291905290205460ff1690565b6001600160a01b03841661135a5760405162461bcd60e51b815260206004820152602160248201527f455243313135353a206d696e7420746f20746865207a65726f206164647265736044820152607360f81b60648201526084016105d2565b33600061136685611a0d565b9050600061137385611a0d565b90506000868152602081815260408083206001600160a01b038b168452909152812080548792906113a590849061286d565b909155505060408051878152602081018790526001600160a01b03808a1692600092918716917fc3d58168c5ae7397731d063d5bbf3d657854427343f4c083240f7aacaa2d0f62910160405180910390a461140583600089898989611a58565b50505050505050565b60006107a28383611bb3565b815183511461147c5760405162461bcd60e51b815260206004820152602860248201527f455243313135353a2069647320616e6420616d6f756e7473206c656e677468206044820152670dad2e6dac2e8c6d60c31b60648201526084016105d2565b6001600160a01b0384166114a25760405162461bcd60e51b81526004016105d290612bd2565b3360005b84518110156115895760008582815181106114c3576114c3612bbc565b6020026020010151905060008583815181106114e1576114e1612bbc565b602090810291909101810151600084815280835260408082206001600160a01b038e1683529093529190912054909150818110156115315760405162461bcd60e51b81526004016105d290612c17565b6000838152602081815260408083206001600160a01b038e8116855292528083208585039055908b1682528120805484929061156e90849061286d565b925050819055505050508061158290612885565b90506114a6565b50846001600160a01b0316866001600160a01b0316826001600160a01b03167f4a39dc06d4c0dbc64b70af90fd698a233a518aa5d07e595d983b8c0526c8f7fb87876040516115d9929190612c61565b60405180910390a46115ef818787878787611c02565b505050505050565b61124f8133611cbd565b61160b8282610a27565b6108995760008281526003602090815260408083206001600160a01b03851684529091529020805460ff191660011790556116433390565b6001600160a01b0316816001600160a01b0316837f2f8788117e7eff1d82e926ec794901d17c78024a50270940304540a733656f0d60405160405180910390a45050565b6116918282610a27565b156108995760008281526003602090815260408083206001600160a01b0385168085529252808320805460ff1916905551339285917ff6391f5c32d9c69d2a47ea670b442974b53935d1edc7fd64eb21e047a839171b9190a45050565b6004546001600160a01b03163314610a255760405162461bcd60e51b815260206004820181905260248201527f4f776e61626c653a2063616c6c6572206973206e6f7420746865206f776e657260448201526064016105d2565b600480546001600160a01b038381166001600160a01b0319831681179093556040519116919082907f8be0079c531659141344cd1fd0a4f28419497f9722a3daafe3b4186f6b6457e090600090a35050565b816001600160a01b0316836001600160a01b03160361180d5760405162461bcd60e51b815260206004820152602960248201527f455243313135353a2073657474696e6720617070726f76616c20737461747573604482015268103337b91039b2b63360b91b60648201526084016105d2565b6001600160a01b03838116600081815260016020908152604080832094871680845294825291829020805460ff191686151590811790915591519182527f17307eab39ab6107e8899845ad3d59bd9653f200f220920489ca2b5937696c31910160405180910390a3505050565b60006107a28383611d21565b606060006107a283611e14565b6001600160a01b0384166118b95760405162461bcd60e51b81526004016105d290612bd2565b3360006118c585611a0d565b905060006118d285611a0d565b90506000868152602081815260408083206001600160a01b038c168452909152902054858110156119155760405162461bcd60e51b81526004016105d290612c17565b6000878152602081815260408083206001600160a01b038d8116855292528083208985039055908a1682528120805488929061195290849061286d565b909155505060408051888152602081018890526001600160a01b03808b16928c821692918816917fc3d58168c5ae7397731d063d5bbf3d657854427343f4c083240f7aacaa2d0f62910160405180910390a46119b2848a8a8a8a8a611a58565b505050505050505050565b60006001600160e01b03198216636cdb3d1360e11b14806119ee57506001600160e01b031982166303a24d0760e21b145b806105fe57506301ffc9a760e01b6001600160e01b03198316146105fe565b60408051600180825281830190925260609160009190602080830190803683370190505090508281600081518110611a4757611a47612bbc565b602090810291909101015292915050565b6001600160a01b0384163b156115ef5760405163f23a6e6160e01b81526001600160a01b0385169063f23a6e6190611a9c9089908990889088908890600401612c8f565b6020604051808303816000875af1925050508015611ad7575060408051601f3d908101601f19168201909252611ad491810190612cd4565b60015b611b8357611ae3612cf1565b806308c379a003611b1c5750611af7612d0d565b80611b025750611b1e565b8060405162461bcd60e51b81526004016105d29190612192565b505b60405162461bcd60e51b815260206004820152603460248201527f455243313135353a207472616e7366657220746f206e6f6e20455243313135356044820152732932b1b2b4bb32b91034b6b83632b6b2b73a32b960611b60648201526084016105d2565b6001600160e01b0319811663f23a6e6160e01b146114055760405162461bcd60e51b81526004016105d290612d96565b6000818152600183016020526040812054611bfa575081546001818101845560008481526020808220909301849055845484825282860190935260409020919091556105fe565b5060006105fe565b6001600160a01b0384163b156115ef5760405163bc197c8160e01b81526001600160a01b0385169063bc197c8190611c469089908990889088908890600401612dde565b6020604051808303816000875af1925050508015611c81575060408051601f3d908101601f19168201909252611c7e91810190612cd4565b60015b611c8d57611ae3612cf1565b6001600160e01b0319811663bc197c8160e01b146114055760405162461bcd60e51b81526004016105d290612d96565b611cc78282610a27565b61089957611cdf816001600160a01b03166014611e70565b611cea836020611e70565b604051602001611cfb929190612e3c565b60408051601f198184030181529082905262461bcd60e51b82526105d291600401612192565b60008181526001830160205260408120548015611e0a576000611d45600183612eb1565b8554909150600090611d5990600190612eb1565b9050818114611dbe576000866000018281548110611d7957611d79612bbc565b9060005260206000200154905080876000018481548110611d9c57611d9c612bbc565b6000918252602080832090910192909255918252600188019052604090208390555b8554869080611dcf57611dcf612ec8565b6001900381819060005260206000200160009055905585600101600086815260200190815260200160002060009055600193505050506105fe565b60009150506105fe565b606081600001805480602002602001604051908101604052809291908181526020018280548015611e6457602002820191906000526020600020905b815481526020019060010190808311611e50575b50505050509050919050565b60606000611e7f836002612ede565b611e8a90600261286d565b6001600160401b03811115611ea157611ea1612204565b6040519080825280601f01601f191660200182016040528015611ecb576020820181803683370190505b509050600360fc1b81600081518110611ee657611ee6612bbc565b60200101906001600160f81b031916908160001a905350600f60fb1b81600181518110611f1557611f15612bbc565b60200101906001600160f81b031916908160001a9053506000611f39846002612ede565b611f4490600161286d565b90505b6001811115611fbc576f181899199a1a9b1b9c1cb0b131b232b360811b85600f1660108110611f7857611f78612bbc565b1a60f81b828281518110611f8e57611f8e612bbc565b60200101906001600160f81b031916908160001a90535060049490941c93611fb581612efd565b9050611f47565b5083156107a25760405162461bcd60e51b815260206004820181905260248201527f537472696e67733a20686578206c656e67746820696e73756666696369656e7460448201526064016105d2565b8280546120179061293a565b90600052602060002090601f016020900481019282612039576000855561207f565b82601f106120525782800160ff1982351617855561207f565b8280016001018555821561207f579182015b8281111561207f578235825591602001919060010190612064565b5061208b92915061208f565b5090565b5b8082111561208b5760008155600101612090565b80356001600160a01b03811681146120bb57600080fd5b919050565b600080604083850312156120d357600080fd5b6120dc836120a4565b946020939093013593505050565b6001600160e01b03198116811461124f57600080fd5b60006020828403121561211257600080fd5b81356107a2816120ea565b60006020828403121561212f57600080fd5b5035919050565b60005b83811015612151578181015183820152602001612139565b83811115612160576000848401525b50505050565b6000815180845261217e816020860160208601612136565b601f01601f19169290920160200192915050565b6020815260006107a26020830184612166565b600080604083850312156121b857600080fd5b823591506121c8602084016120a4565b90509250929050565b6000806000606084860312156121e657600080fd5b6121ef846120a4565b95602085013595506040909401359392505050565b634e487b7160e01b600052604160045260246000fd5b601f8201601f191681016001600160401b038111828210171561223f5761223f612204565b6040525050565b60006001600160401b0382111561225f5761225f612204565b5060051b60200190565b600082601f83011261227a57600080fd5b8135602061228782612246565b604051612294828261221a565b83815260059390931b85018201928281019150868411156122b457600080fd5b8286015b848110156122cf57803583529183019183016122b8565b509695505050505050565b60006001600160401b038211156122f3576122f3612204565b50601f01601f191660200190565b600082601f83011261231257600080fd5b813561231d816122da565b60405161232a828261221a565b82815285602084870101111561233f57600080fd5b82602086016020830137600092810160200192909252509392505050565b600080600080600060a0868803121561237557600080fd5b61237e866120a4565b945061238c602087016120a4565b935060408601356001600160401b03808211156123a857600080fd5b6123b489838a01612269565b945060608801359150808211156123ca57600080fd5b6123d689838a01612269565b935060808801359150808211156123ec57600080fd5b506123f988828901612301565b9150509295509295909350565b600060c0828403121561241857600080fd5b50919050565b6000806040838503121561243157600080fd5b8235915060208301356001600160401b0381111561244e57600080fd5b61245a85828601612406565b9150509250929050565b6000806040838503121561247757600080fd5b82356001600160401b038082111561248e57600080fd5b818501915085601f8301126124a257600080fd5b813560206124af82612246565b6040516124bc828261221a565b83815260059390931b85018201928281019150898411156124dc57600080fd5b948201945b83861015612501576124f2866120a4565b825294820194908201906124e1565b9650508601359250508082111561251757600080fd5b5061245a85828601612269565b600081518084526020808501945080840160005b8381101561255457815187529582019590820190600101612538565b509495945050505050565b6020815260006107a26020830184612524565b6000806020838503121561258557600080fd5b82356001600160401b038082111561259c57600080fd5b818501915085601f8301126125b057600080fd5b8135818111156125bf57600080fd5b8660208285010111156125d157600080fd5b60209290920196919550909350505050565b600080604083850312156125f657600080fd5b82356001600160401b0381111561260c57600080fd5b61261885828601612406565b95602094909401359450505050565b803580151581146120bb57600080fd5b6000806040838503121561264a57600080fd5b612653836120a4565b91506121c860208401612627565b60008060006060848603121561267657600080fd5b83359250612686602085016120a4565b915061269460408501612627565b90509250925092565b60c0815260006126b060c0830189612166565b82810360208401526126c28189612166565b905082810360408401526126d68188612166565b905082810360608401526126ea8187612166565b905082810360808401526126fe8186612166565b9150508260a0830152979650505050505050565b60006020828403121561272457600080fd5b6107a2826120a4565b6000806040838503121561274057600080fd5b612749836120a4565b91506121c8602084016120a4565b600080600080600060a0868803121561276f57600080fd5b612778866120a4565b9450612786602087016120a4565b9350604086013592506060860135915060808601356001600160401b038111156127af57600080fd5b6123f988828901612301565b6000602082840312156127cd57600080fd5b6107a282612627565b6000602082840312156127e857600080fd5b81516001600160401b038111156127fe57600080fd5b8201601f8101841361280f57600080fd5b805161281a816122da565b604051612827828261221a565b82815286602084860101111561283c57600080fd5b61284d836020830160208701612136565b9695505050505050565b634e487b7160e01b600052601160045260246000fd5b6000821982111561288057612880612857565b500190565b60006001820161289757612897612857565b5060010190565b6020808252602f908201527f455243313135353a2063616c6c6572206973206e6f7420746f6b656e206f776e60408201526e195c881b9bdc88185c1c1c9bdd9959608a1b606082015260800190565b6000808335601e1984360301811261290457600080fd5b8301803591506001600160401b0382111561291e57600080fd5b60200191503681900382131561293357600080fd5b9250929050565b600181811c9082168061294e57607f821691505b60208210810361241857634e487b7160e01b600052602260045260246000fd5b601f82111561081a57600081815260208120601f850160051c810160208610156129955750805b601f850160051c820191505b818110156115ef578281556001016129a1565b6001600160401b038311156129cb576129cb612204565b6129df836129d9835461293a565b8361296e565b6000601f841160018114612a1357600085156129fb5750838201355b600019600387901b1c1916600186901b1783556107ee565b600083815260209020601f19861690835b82811015612a445786850135825560209485019460019092019101612a24565b5086821015612a615760001960f88860031b161c19848701351681555b505060018560011b0183555050505050565b612a7d82836128ed565b6001600160401b03811115612a9457612a94612204565b612aa881612aa2855461293a565b8561296e565b6000601f821160018114612adc5760008315612ac45750838201355b600019600385901b1c1916600184901b178555612b36565b600085815260209020601f19841690835b82811015612b0d5786850135825560209485019460019092019101612aed565b5084821015612b2a5760001960f88660031b161c19848701351681555b505060018360011b0185555b50505050612b4760208301836128ed565b612b558183600186016129b4565b5050612b6460408301836128ed565b612b728183600286016129b4565b5050612b8160608301836128ed565b612b8f8183600386016129b4565b5050612b9e60808301836128ed565b612bac8183600486016129b4565b505060a082013560058201555050565b634e487b7160e01b600052603260045260246000fd5b60208082526025908201527f455243313135353a207472616e7366657220746f20746865207a65726f206164604082015264647265737360d81b606082015260800190565b6020808252602a908201527f455243313135353a20696e73756666696369656e742062616c616e636520666f60408201526939103a3930b739b332b960b11b606082015260800190565b604081526000612c746040830185612524565b8281036020840152612c868185612524565b95945050505050565b6001600160a01b03868116825285166020820152604081018490526060810183905260a060808201819052600090612cc990830184612166565b979650505050505050565b600060208284031215612ce657600080fd5b81516107a2816120ea565b600060033d1115612d0a5760046000803e5060005160e01c5b90565b600060443d1015612d1b5790565b6040516003193d81016004833e81513d6001600160401b038160248401118184111715612d4a57505050505090565b8285019150815181811115612d625750505050505090565b843d8701016020828501011115612d7c5750505050505090565b612d8b6020828601018761221a565b509095945050505050565b60208082526028908201527f455243313135353a204552433131353552656365697665722072656a656374656040820152676420746f6b656e7360c01b606082015260800190565b6001600160a01b0386811682528516602082015260a060408201819052600090612e0a90830186612524565b8281036060840152612e1c8186612524565b90508281036080840152612e308185612166565b98975050505050505050565b7f416363657373436f6e74726f6c3a206163636f756e7420000000000000000000815260008351612e74816017850160208801612136565b7001034b99036b4b9b9b4b733903937b6329607d1b6017918401918201528351612ea5816028840160208801612136565b01602801949350505050565b600082821015612ec357612ec3612857565b500390565b634e487b7160e01b600052603160045260246000fd5b6000816000190483118215151615612ef857612ef8612857565b500290565b600081612f0c57612f0c612857565b50600019019056fea49807205ce4d355092ef5a8a18f56e8913cf4a201fbe287825b095693c21775a2646970667358221220139bf0663dd962cb8f0436d9e42a5adb3b506b92c1143bef0d9743a62d3e4ac064736f6c634300080e003368747470733a2f2f626f612e6c617276616d61696f72756d2e636f6d2f6170692f626f61",
  "devdoc": {
    "kind": "dev",
    "methods": {
      "balanceOf(address,uint256)": {
        "details": "See {IERC1155-balanceOf}. Requirements: - `account` cannot be the zero address."
      },
      "balanceOfBatch(address[],uint256[])": {
        "details": "See {IERC1155-balanceOfBatch}. Requirements: - `accounts` and `ids` must have the same length."
      },
      "getRoleAdmin(bytes32)": {
        "details": "Returns the admin role that controls `role`. See {grantRole} and {revokeRole}. To change a role's admin, use {_setRoleAdmin}."
      },
      "grantRole(bytes32,address)": {
        "details": "Grants `role` to `account`. If `account` had not been already granted `role`, emits a {RoleGranted} event. Requirements: - the caller must have ``role``'s admin role. May emit a {RoleGranted} event."
      },
      "hasRole(bytes32,address)": {
        "details": "Returns `true` if `account` has been granted `role`."
      },
      "isApprovedForAll(address,address)": {
        "details": "See {IERC1155-isApprovedForAll}."
      },
      "owner()": {
        "details": "Returns the address of the current owner."
      },
      "renounceOwnership()": {
        "details": "Leaves the contract without owner. It will not be possible to call `onlyOwner` functions anymore. Can only be called by the current owner. NOTE: Renouncing ownership will leave the contract without an owner, thereby removing any functionality that is only available to the owner."
      },
      "renounceRole(bytes32,address)": {
        "details": "Revokes `role` from the calling account. Roles are often managed via {grantRole} and {revokeRole}: this function's purpose is to provide a mechanism for accounts to lose their privileges if they are compromised (such as when a trusted device is misplaced). If the calling account had been revoked `role`, emits a {RoleRevoked} event. Requirements: - the caller must be `account`. May emit a {RoleRevoked} event."
      },
      "revokeRole(bytes32,address)": {
        "details": "Revokes `role` from `account`. If `account` had been granted `role`, emits a {RoleRevoked} event. Requirements: - the caller must have ``role``'s admin role. May emit a {RoleRevoked} event."
      },
      "safeBatchTransferFrom(address,address,uint256[],uint256[],bytes)": {
        "details": "See {IERC1155-safeBatchTransferFrom}."
      },
      "safeTransferFrom(address,address,uint256,uint256,bytes)": {
        "details": "See {IERC1155-safeTransferFrom}."
      },
      "setApprovalForAll(address,bool)": {
        "details": "See {IERC1155-setApprovalForAll}."
      },
      "supportsInterface(bytes4)": {
        "details": "See {IERC165-supportsInterface}."
      },
      "transferOwnership(address)": {
        "details": "Transfers ownership of the contract to a new account (`newOwner`). Can only be called by the current owner."
      }
    },
    "version": 1
  },
  "userdoc": {
    "kind": "user",
    "methods": {},
    "version": 1
  },
  "storageLayout": {
    "storage": [
      {
        "astId": 531,
        "contract": "contracts/BadgeOfAssembly.sol:BadgeOfAssembly",
        "label": "_balances",
        "offset": 0,
        "slot": "0",
        "type": "t_mapping(t_uint256,t_mapping(t_address,t_uint256))"
      },
      {
        "astId": 537,
        "contract": "contracts/BadgeOfAssembly.sol:BadgeOfAssembly",
        "label": "_operatorApprovals",
        "offset": 0,
        "slot": "1",
        "type": "t_mapping(t_address,t_mapping(t_address,t_bool))"
      },
      {
        "astId": 539,
        "contract": "contracts/BadgeOfAssembly.sol:BadgeOfAssembly",
        "label": "_uri",
        "offset": 0,
        "slot": "2",
        "type": "t_string_storage"
      },
      {
        "astId": 24,
        "contract": "contracts/BadgeOfAssembly.sol:BadgeOfAssembly",
        "label": "_roles",
        "offset": 0,
        "slot": "3",
        "type": "t_mapping(t_bytes32,t_struct(RoleData)19_storage)"
      },
      {
        "astId": 400,
        "contract": "contracts/BadgeOfAssembly.sol:BadgeOfAssembly",
        "label": "_owner",
        "offset": 0,
        "slot": "4",
        "type": "t_address"
      },
      {
        "astId": 3247,
        "contract": "contracts/BadgeOfAssembly.sol:BadgeOfAssembly",
        "label": "gatedAccess",
        "offset": 20,
        "slot": "4",
        "type": "t_bool"
      },
      {
        "astId": 3260,
        "contract": "contracts/BadgeOfAssembly.sol:BadgeOfAssembly",
        "label": "_contractURI",
        "offset": 0,
        "slot": "5",
        "type": "t_string_storage"
      },
      {
        "astId": 3263,
        "contract": "contracts/BadgeOfAssembly.sol:BadgeOfAssembly",
        "label": "_metadataPrinter",
        "offset": 0,
        "slot": "6",
        "type": "t_contract(IMetadataPrinter)3890"
      },
      {
        "astId": 3266,
        "contract": "contracts/BadgeOfAssembly.sol:BadgeOfAssembly",
        "label": "_tokenId",
        "offset": 0,
        "slot": "7",
        "type": "t_struct(Counter)2276_storage"
      },
      {
        "astId": 3271,
        "contract": "contracts/BadgeOfAssembly.sol:BadgeOfAssembly",
        "label": "_userTokens",
        "offset": 0,
        "slot": "8",
        "type": "t_mapping(t_address,t_struct(UintSet)3075_storage)"
      },
      {
        "astId": 3276,
        "contract": "contracts/BadgeOfAssembly.sol:BadgeOfAssembly",
        "label": "_badgeAdmin",
        "offset": 0,
        "slot": "9",
        "type": "t_mapping(t_address,t_struct(UintSet)3075_storage)"
      },
      {
        "astId": 3281,
        "contract": "contracts/BadgeOfAssembly.sol:BadgeOfAssembly",
        "label": "metadata",
        "offset": 0,
        "slot": "10",
        "type": "t_mapping(t_uint256,t_struct(BadgeMetadata)3244_storage)"
      },
      {
        "astId": 3287,
        "contract": "contracts/BadgeOfAssembly.sol:BadgeOfAssembly",
        "label": "minters",
        "offset": 0,
        "slot": "11",
        "type": "t_mapping(t_uint256,t_mapping(t_address,t_bool))"
      },
      {
        "astId": 3293,
        "contract": "contracts/BadgeOfAssembly.sol:BadgeOfAssembly",
        "label": "mints",
        "offset": 0,
        "slot": "12",
        "type": "t_mapping(t_uint256,t_mapping(t_address,t_uint256))"
      },
      {
        "astId": 3297,
        "contract": "contracts/BadgeOfAssembly.sol:BadgeOfAssembly",
        "label": "totalSupply",
        "offset": 0,
        "slot": "13",
        "type": "t_mapping(t_uint256,t_uint256)"
      }
    ],
    "types": {
      "t_address": {
        "encoding": "inplace",
        "label": "address",
        "numberOfBytes": "20"
      },
      "t_array(t_bytes32)dyn_storage": {
        "base": "t_bytes32",
        "encoding": "dynamic_array",
        "label": "bytes32[]",
        "numberOfBytes": "32"
      },
      "t_bool": {
        "encoding": "inplace",
        "label": "bool",
        "numberOfBytes": "1"
      },
      "t_bytes32": {
        "encoding": "inplace",
        "label": "bytes32",
        "numberOfBytes": "32"
      },
      "t_contract(IMetadataPrinter)3890": {
        "encoding": "inplace",
        "label": "contract IMetadataPrinter",
        "numberOfBytes": "20"
      },
      "t_mapping(t_address,t_bool)": {
        "encoding": "mapping",
        "key": "t_address",
        "label": "mapping(address => bool)",
        "numberOfBytes": "32",
        "value": "t_bool"
      },
      "t_mapping(t_address,t_mapping(t_address,t_bool))": {
        "encoding": "mapping",
        "key": "t_address",
        "label": "mapping(address => mapping(address => bool))",
        "numberOfBytes": "32",
        "value": "t_mapping(t_address,t_bool)"
      },
      "t_mapping(t_address,t_struct(UintSet)3075_storage)": {
        "encoding": "mapping",
        "key": "t_address",
        "label": "mapping(address => struct EnumerableSet.UintSet)",
        "numberOfBytes": "32",
        "value": "t_struct(UintSet)3075_storage"
      },
      "t_mapping(t_address,t_uint256)": {
        "encoding": "mapping",
        "key": "t_address",
        "label": "mapping(address => uint256)",
        "numberOfBytes": "32",
        "value": "t_uint256"
      },
      "t_mapping(t_bytes32,t_struct(RoleData)19_storage)": {
        "encoding": "mapping",
        "key": "t_bytes32",
        "label": "mapping(bytes32 => struct AccessControl.RoleData)",
        "numberOfBytes": "32",
        "value": "t_struct(RoleData)19_storage"
      },
      "t_mapping(t_bytes32,t_uint256)": {
        "encoding": "mapping",
        "key": "t_bytes32",
        "label": "mapping(bytes32 => uint256)",
        "numberOfBytes": "32",
        "value": "t_uint256"
      },
      "t_mapping(t_uint256,t_mapping(t_address,t_bool))": {
        "encoding": "mapping",
        "key": "t_uint256",
        "label": "mapping(uint256 => mapping(address => bool))",
        "numberOfBytes": "32",
        "value": "t_mapping(t_address,t_bool)"
      },
      "t_mapping(t_uint256,t_mapping(t_address,t_uint256))": {
        "encoding": "mapping",
        "key": "t_uint256",
        "label": "mapping(uint256 => mapping(address => uint256))",
        "numberOfBytes": "32",
        "value": "t_mapping(t_address,t_uint256)"
      },
      "t_mapping(t_uint256,t_struct(BadgeMetadata)3244_storage)": {
        "encoding": "mapping",
        "key": "t_uint256",
        "label": "mapping(uint256 => struct BadgeOfAssembly.BadgeMetadata)",
        "numberOfBytes": "32",
        "value": "t_struct(BadgeMetadata)3244_storage"
      },
      "t_mapping(t_uint256,t_uint256)": {
        "encoding": "mapping",
        "key": "t_uint256",
        "label": "mapping(uint256 => uint256)",
        "numberOfBytes": "32",
        "value": "t_uint256"
      },
      "t_string_storage": {
        "encoding": "bytes",
        "label": "string",
        "numberOfBytes": "32"
      },
      "t_struct(BadgeMetadata)3244_storage": {
        "encoding": "inplace",
        "label": "struct BadgeOfAssembly.BadgeMetadata",
        "members": [
          {
            "astId": 3233,
            "contract": "contracts/BadgeOfAssembly.sol:BadgeOfAssembly",
            "label": "name",
            "offset": 0,
            "slot": "0",
            "type": "t_string_storage"
          },
          {
            "astId": 3235,
            "contract": "contracts/BadgeOfAssembly.sol:BadgeOfAssembly",
            "label": "description",
            "offset": 0,
            "slot": "1",
            "type": "t_string_storage"
          },
          {
            "astId": 3237,
            "contract": "contracts/BadgeOfAssembly.sol:BadgeOfAssembly",
            "label": "image",
            "offset": 0,
            "slot": "2",
            "type": "t_string_storage"
          },
          {
            "astId": 3239,
            "contract": "contracts/BadgeOfAssembly.sol:BadgeOfAssembly",
            "label": "animationUrl",
            "offset": 0,
            "slot": "3",
            "type": "t_string_storage"
          },
          {
            "astId": 3241,
            "contract": "contracts/BadgeOfAssembly.sol:BadgeOfAssembly",
            "label": "youtubeUrl",
            "offset": 0,
            "slot": "4",
            "type": "t_string_storage"
          },
          {
            "astId": 3243,
            "contract": "contracts/BadgeOfAssembly.sol:BadgeOfAssembly",
            "label": "maxPerWallet",
            "offset": 0,
            "slot": "5",
            "type": "t_uint256"
          }
        ],
        "numberOfBytes": "192"
      },
      "t_struct(Counter)2276_storage": {
        "encoding": "inplace",
        "label": "struct Counters.Counter",
        "members": [
          {
            "astId": 2275,
            "contract": "contracts/BadgeOfAssembly.sol:BadgeOfAssembly",
            "label": "_value",
            "offset": 0,
            "slot": "0",
            "type": "t_uint256"
          }
        ],
        "numberOfBytes": "32"
      },
      "t_struct(RoleData)19_storage": {
        "encoding": "inplace",
        "label": "struct AccessControl.RoleData",
        "members": [
          {
            "astId": 16,
            "contract": "contracts/BadgeOfAssembly.sol:BadgeOfAssembly",
            "label": "members",
            "offset": 0,
            "slot": "0",
            "type": "t_mapping(t_address,t_bool)"
          },
          {
            "astId": 18,
            "contract": "contracts/BadgeOfAssembly.sol:BadgeOfAssembly",
            "label": "adminRole",
            "offset": 0,
            "slot": "1",
            "type": "t_bytes32"
          }
        ],
        "numberOfBytes": "64"
      },
      "t_struct(Set)2617_storage": {
        "encoding": "inplace",
        "label": "struct EnumerableSet.Set",
        "members": [
          {
            "astId": 2612,
            "contract": "contracts/BadgeOfAssembly.sol:BadgeOfAssembly",
            "label": "_values",
            "offset": 0,
            "slot": "0",
            "type": "t_array(t_bytes32)dyn_storage"
          },
          {
            "astId": 2616,
            "contract": "contracts/BadgeOfAssembly.sol:BadgeOfAssembly",
            "label": "_indexes",
            "offset": 0,
            "slot": "1",
            "type": "t_mapping(t_bytes32,t_uint256)"
          }
        ],
        "numberOfBytes": "64"
      },
      "t_struct(UintSet)3075_storage": {
        "encoding": "inplace",
        "label": "struct EnumerableSet.UintSet",
        "members": [
          {
            "astId": 3074,
            "contract": "contracts/BadgeOfAssembly.sol:BadgeOfAssembly",
            "label": "_inner",
            "offset": 0,
            "slot": "0",
            "type": "t_struct(Set)2617_storage"
          }
        ],
        "numberOfBytes": "64"
      },
      "t_uint256": {
        "encoding": "inplace",
        "label": "uint256",
        "numberOfBytes": "32"
      }
    }
  }
}