{
  "address": "0xaA3BB07dE9AbBD2bE9f54DD1C2aA3E6BF8DD0b7d",
  "abi": [
    {
      "inputs": [
        {
          "internalType": "address",
          "name": "initialAdmin",
          "type": "address"
        }
      ],
      "stateMutability": "nonpayable",
      "type": "constructor"
    },
    {
      "inputs": [],
      "name": "NameAlreadyTaken",
      "type": "error"
    },
    {
      "inputs": [],
      "name": "OnlyOneProfilePerAddress",
      "type": "error"
    },
    {
      "inputs": [],
      "name": "UnauthorizedError",
      "type": "error"
    },
    {
      "anonymous": false,
      "inputs": [
        {
          "indexed": true,
          "internalType": "address",
          "name": "owner",
          "type": "address"
        },
        {
          "indexed": true,
          "internalType": "address",
          "name": "approved",
          "type": "address"
        },
        {
          "indexed": true,
          "internalType": "uint256",
          "name": "tokenId",
          "type": "uint256"
        }
      ],
      "name": "Approval",
      "type": "event"
    },
    {
      "anonymous": false,
      "inputs": [
        {
          "indexed": true,
          "internalType": "address",
          "name": "owner",
          "type": "address"
        },
        {
          "indexed": true,
          "internalType": "address",
          "name": "operator",
          "type": "address"
        },
        {
          "indexed": false,
          "internalType": "bool",
          "name": "approved",
          "type": "bool"
        }
      ],
      "name": "ApprovalForAll",
      "type": "event"
    },
    {
      "anonymous": false,
      "inputs": [
        {
          "indexed": false,
          "internalType": "address",
          "name": "account",
          "type": "address"
        }
      ],
      "name": "Paused",
      "type": "event"
    },
    {
      "anonymous": false,
      "inputs": [
        {
          "indexed": true,
          "internalType": "bytes32",
          "name": "role",
          "type": "bytes32"
        },
        {
          "indexed": true,
          "internalType": "bytes32",
          "name": "previousAdminRole",
          "type": "bytes32"
        },
        {
          "indexed": true,
          "internalType": "bytes32",
          "name": "newAdminRole",
          "type": "bytes32"
        }
      ],
      "name": "RoleAdminChanged",
      "type": "event"
    },
    {
      "anonymous": false,
      "inputs": [
        {
          "indexed": true,
          "internalType": "bytes32",
          "name": "role",
          "type": "bytes32"
        },
        {
          "indexed": true,
          "internalType": "address",
          "name": "account",
          "type": "address"
        },
        {
          "indexed": true,
          "internalType": "address",
          "name": "sender",
          "type": "address"
        }
      ],
      "name": "RoleGranted",
      "type": "event"
    },
    {
      "anonymous": false,
      "inputs": [
        {
          "indexed": true,
          "internalType": "bytes32",
          "name": "role",
          "type": "bytes32"
        },
        {
          "indexed": true,
          "internalType": "address",
          "name": "account",
          "type": "address"
        },
        {
          "indexed": true,
          "internalType": "address",
          "name": "sender",
          "type": "address"
        }
      ],
      "name": "RoleRevoked",
      "type": "event"
    },
    {
      "anonymous": false,
      "inputs": [
        {
          "indexed": true,
          "internalType": "address",
          "name": "from",
          "type": "address"
        },
        {
          "indexed": true,
          "internalType": "address",
          "name": "to",
          "type": "address"
        },
        {
          "indexed": true,
          "internalType": "uint256",
          "name": "tokenId",
          "type": "uint256"
        }
      ],
      "name": "Transfer",
      "type": "event"
    },
    {
      "anonymous": false,
      "inputs": [
        {
          "indexed": false,
          "internalType": "address",
          "name": "account",
          "type": "address"
        }
      ],
      "name": "Unpaused",
      "type": "event"
    },
    {
      "inputs": [],
      "name": "DEFAULT_ADMIN_ROLE",
      "outputs": [
        {
          "internalType": "bytes32",
          "name": "",
          "type": "bytes32"
        }
      ],
      "stateMutability": "view",
      "type": "function"
    },
    {
      "inputs": [],
      "name": "MINTER_ROLE",
      "outputs": [
        {
          "internalType": "bytes32",
          "name": "",
          "type": "bytes32"
        }
      ],
      "stateMutability": "view",
      "type": "function"
    },
    {
      "inputs": [],
      "name": "PAUSER_ROLE",
      "outputs": [
        {
          "internalType": "bytes32",
          "name": "",
          "type": "bytes32"
        }
      ],
      "stateMutability": "view",
      "type": "function"
    },
    {
      "inputs": [
        {
          "internalType": "address",
          "name": "to",
          "type": "address"
        },
        {
          "internalType": "uint256",
          "name": "tokenId",
          "type": "uint256"
        }
      ],
      "name": "approve",
      "outputs": [],
      "stateMutability": "nonpayable",
      "type": "function"
    },
    {
      "inputs": [
        {
          "internalType": "address",
          "name": "owner",
          "type": "address"
        }
      ],
      "name": "balanceOf",
      "outputs": [
        {
          "internalType": "uint256",
          "name": "",
          "type": "uint256"
        }
      ],
      "stateMutability": "view",
      "type": "function"
    },
    {
      "inputs": [
        {
          "internalType": "uint256",
          "name": "tokenId",
          "type": "uint256"
        }
      ],
      "name": "burn",
      "outputs": [],
      "stateMutability": "nonpayable",
      "type": "function"
    },
    {
      "inputs": [
        {
          "internalType": "uint256",
          "name": "tokenId",
          "type": "uint256"
        }
      ],
      "name": "getApproved",
      "outputs": [
        {
          "internalType": "address",
          "name": "",
          "type": "address"
        }
      ],
      "stateMutability": "view",
      "type": "function"
    },
    {
      "inputs": [
        {
          "internalType": "bytes32",
          "name": "role",
          "type": "bytes32"
        }
      ],
      "name": "getRoleAdmin",
      "outputs": [
        {
          "internalType": "bytes32",
          "name": "",
          "type": "bytes32"
        }
      ],
      "stateMutability": "view",
      "type": "function"
    },
    {
      "inputs": [
        {
          "internalType": "bytes32",
          "name": "role",
          "type": "bytes32"
        },
        {
          "internalType": "address",
          "name": "account",
          "type": "address"
        }
      ],
      "name": "grantRole",
      "outputs": [],
      "stateMutability": "nonpayable",
      "type": "function"
    },
    {
      "inputs": [
        {
          "internalType": "bytes32",
          "name": "role",
          "type": "bytes32"
        },
        {
          "internalType": "address",
          "name": "account",
          "type": "address"
        }
      ],
      "name": "hasRole",
      "outputs": [
        {
          "internalType": "bool",
          "name": "",
          "type": "bool"
        }
      ],
      "stateMutability": "view",
      "type": "function"
    },
    {
      "inputs": [
        {
          "internalType": "address",
          "name": "owner",
          "type": "address"
        },
        {
          "internalType": "address",
          "name": "operator",
          "type": "address"
        }
      ],
      "name": "isApprovedForAll",
      "outputs": [
        {
          "internalType": "bool",
          "name": "",
          "type": "bool"
        }
      ],
      "stateMutability": "view",
      "type": "function"
    },
    {
      "inputs": [
        {
          "internalType": "uint256",
          "name": "tokenID",
          "type": "uint256"
        }
      ],
      "name": "metadata",
      "outputs": [
        {
          "components": [
            {
              "internalType": "string",
              "name": "name",
              "type": "string"
            },
            {
              "internalType": "string",
              "name": "description",
              "type": "string"
            },
            {
              "internalType": "string",
              "name": "image",
              "type": "string"
            },
            {
              "internalType": "string",
              "name": "animationUrl",
              "type": "string"
            }
          ],
          "internalType": "struct PlayerProfile.Metadata",
          "name": "meta",
          "type": "tuple"
        }
      ],
      "stateMutability": "view",
      "type": "function"
    },
    {
      "inputs": [],
      "name": "name",
      "outputs": [
        {
          "internalType": "string",
          "name": "",
          "type": "string"
        }
      ],
      "stateMutability": "view",
      "type": "function"
    },
    {
      "inputs": [
        {
          "internalType": "uint256",
          "name": "tokenId",
          "type": "uint256"
        }
      ],
      "name": "ownerOf",
      "outputs": [
        {
          "internalType": "address",
          "name": "",
          "type": "address"
        }
      ],
      "stateMutability": "view",
      "type": "function"
    },
    {
      "inputs": [],
      "name": "pause",
      "outputs": [],
      "stateMutability": "nonpayable",
      "type": "function"
    },
    {
      "inputs": [],
      "name": "paused",
      "outputs": [
        {
          "internalType": "bool",
          "name": "",
          "type": "bool"
        }
      ],
      "stateMutability": "view",
      "type": "function"
    },
    {
      "inputs": [
        {
          "internalType": "bytes32",
          "name": "role",
          "type": "bytes32"
        },
        {
          "internalType": "address",
          "name": "account",
          "type": "address"
        }
      ],
      "name": "renounceRole",
      "outputs": [],
      "stateMutability": "nonpayable",
      "type": "function"
    },
    {
      "inputs": [
        {
          "internalType": "bytes32",
          "name": "role",
          "type": "bytes32"
        },
        {
          "internalType": "address",
          "name": "account",
          "type": "address"
        }
      ],
      "name": "revokeRole",
      "outputs": [],
      "stateMutability": "nonpayable",
      "type": "function"
    },
    {
      "inputs": [
        {
          "components": [
            {
              "internalType": "string",
              "name": "name",
              "type": "string"
            },
            {
              "internalType": "string",
              "name": "description",
              "type": "string"
            },
            {
              "internalType": "string",
              "name": "image",
              "type": "string"
            },
            {
              "internalType": "string",
              "name": "animationUrl",
              "type": "string"
            }
          ],
          "internalType": "struct PlayerProfile.Metadata",
          "name": "meta",
          "type": "tuple"
        }
      ],
      "name": "safeMint",
      "outputs": [],
      "stateMutability": "nonpayable",
      "type": "function"
    },
    {
      "inputs": [
        {
          "internalType": "address",
          "name": "from",
          "type": "address"
        },
        {
          "internalType": "address",
          "name": "to",
          "type": "address"
        },
        {
          "internalType": "uint256",
          "name": "tokenId",
          "type": "uint256"
        }
      ],
      "name": "safeTransferFrom",
      "outputs": [],
      "stateMutability": "nonpayable",
      "type": "function"
    },
    {
      "inputs": [
        {
          "internalType": "address",
          "name": "from",
          "type": "address"
        },
        {
          "internalType": "address",
          "name": "to",
          "type": "address"
        },
        {
          "internalType": "uint256",
          "name": "tokenId",
          "type": "uint256"
        },
        {
          "internalType": "bytes",
          "name": "data",
          "type": "bytes"
        }
      ],
      "name": "safeTransferFrom",
      "outputs": [],
      "stateMutability": "nonpayable",
      "type": "function"
    },
    {
      "inputs": [
        {
          "internalType": "address",
          "name": "operator",
          "type": "address"
        },
        {
          "internalType": "bool",
          "name": "approved",
          "type": "bool"
        }
      ],
      "name": "setApprovalForAll",
      "outputs": [],
      "stateMutability": "nonpayable",
      "type": "function"
    },
    {
      "inputs": [
        {
          "components": [
            {
              "internalType": "string",
              "name": "name",
              "type": "string"
            },
            {
              "internalType": "string",
              "name": "description",
              "type": "string"
            },
            {
              "internalType": "string",
              "name": "image",
              "type": "string"
            },
            {
              "internalType": "string",
              "name": "animationUrl",
              "type": "string"
            }
          ],
          "internalType": "struct PlayerProfile.Metadata",
          "name": "meta",
          "type": "tuple"
        },
        {
          "internalType": "uint256",
          "name": "tokenID",
          "type": "uint256"
        }
      ],
      "name": "setMetadata",
      "outputs": [],
      "stateMutability": "nonpayable",
      "type": "function"
    },
    {
      "inputs": [
        {
          "internalType": "bytes4",
          "name": "interfaceId",
          "type": "bytes4"
        }
      ],
      "name": "supportsInterface",
      "outputs": [
        {
          "internalType": "bool",
          "name": "",
          "type": "bool"
        }
      ],
      "stateMutability": "view",
      "type": "function"
    },
    {
      "inputs": [],
      "name": "symbol",
      "outputs": [
        {
          "internalType": "string",
          "name": "",
          "type": "string"
        }
      ],
      "stateMutability": "view",
      "type": "function"
    },
    {
      "inputs": [
        {
          "internalType": "uint256",
          "name": "index",
          "type": "uint256"
        }
      ],
      "name": "tokenByIndex",
      "outputs": [
        {
          "internalType": "uint256",
          "name": "",
          "type": "uint256"
        }
      ],
      "stateMutability": "view",
      "type": "function"
    },
    {
      "inputs": [
        {
          "internalType": "address",
          "name": "owner",
          "type": "address"
        },
        {
          "internalType": "uint256",
          "name": "index",
          "type": "uint256"
        }
      ],
      "name": "tokenOfOwnerByIndex",
      "outputs": [
        {
          "internalType": "uint256",
          "name": "",
          "type": "uint256"
        }
      ],
      "stateMutability": "view",
      "type": "function"
    },
    {
      "inputs": [
        {
          "internalType": "uint256",
          "name": "tokenId",
          "type": "uint256"
        }
      ],
      "name": "tokenURI",
      "outputs": [
        {
          "internalType": "string",
          "name": "",
          "type": "string"
        }
      ],
      "stateMutability": "view",
      "type": "function"
    },
    {
      "inputs": [],
      "name": "totalSupply",
      "outputs": [
        {
          "internalType": "uint256",
          "name": "",
          "type": "uint256"
        }
      ],
      "stateMutability": "view",
      "type": "function"
    },
    {
      "inputs": [
        {
          "internalType": "address",
          "name": "from",
          "type": "address"
        },
        {
          "internalType": "address",
          "name": "to",
          "type": "address"
        },
        {
          "internalType": "uint256",
          "name": "tokenId",
          "type": "uint256"
        }
      ],
      "name": "transferFrom",
      "outputs": [],
      "stateMutability": "nonpayable",
      "type": "function"
    },
    {
      "inputs": [],
      "name": "unpause",
      "outputs": [],
      "stateMutability": "nonpayable",
      "type": "function"
    },
    {
      "inputs": [
        {
          "internalType": "uint256",
          "name": "tokenID",
          "type": "uint256"
        }
      ],
      "name": "uri",
      "outputs": [
        {
          "internalType": "string",
          "name": "",
          "type": "string"
        }
      ],
      "stateMutability": "view",
      "type": "function"
    }
  ],
  "args": [
    "0x6DE3D3747D54d0Adc11e5Cf678D4045B0441D332"
  ],
  "numDeployments": 1,
  "solcInputHash": "64b4d4523354b6988d38ba935f8245ea",
  "bytecode": "0x60806040523480156200001157600080fd5b5060405162003a4a38038062003a4a8339810160408190526200003491620001b5565b6040518060400160405280600d81526020016c506c6179657250726f66696c6560981b815250604051806040016040528060048152602001630434350560e41b81525081600090816200008891906200028c565b5060016200009782826200028c565b5050600a805460ff1916905550620000b160008262000110565b620000dd7f65d7a28e3265b37a6474929f336521b332c1681b933f6cb9f3376673440d862a8262000110565b620001097f9f2df0fed2c77648de5860a4cc508cd0818c85b8b8a1ab4ceeef8d981c8956a68262000110565b5062000358565b6000828152600b602090815260408083206001600160a01b038516845290915290205460ff16620001b1576000828152600b602090815260408083206001600160a01b03851684529091529020805460ff19166001179055620001703390565b6001600160a01b0316816001600160a01b0316837f2f8788117e7eff1d82e926ec794901d17c78024a50270940304540a733656f0d60405160405180910390a45b5050565b600060208284031215620001c857600080fd5b81516001600160a01b0381168114620001e057600080fd5b9392505050565b634e487b7160e01b600052604160045260246000fd5b600181811c908216806200021257607f821691505b6020821081036200023357634e487b7160e01b600052602260045260246000fd5b50919050565b601f8211156200028757600081815260208120601f850160051c81016020861015620002625750805b601f850160051c820191505b8181101562000283578281556001016200026e565b5050505b505050565b81516001600160401b03811115620002a857620002a8620001e7565b620002c081620002b98454620001fd565b8462000239565b602080601f831160018114620002f85760008415620002df5750858301515b600019600386901b1c1916600185901b17855562000283565b600085815260208120601f198616915b82811015620003295788860151825594840194600190910190840162000308565b5085821015620003485787850151600019600388901b60f8161c191681555b5050505050600190811b01905550565b6136e280620003686000396000f3fe608060405234801561001057600080fd5b50600436106101805760003560e01c806301ffc9a71461018557806306fdde03146101ad578063081812fc146101c2578063095ea7b3146101e25780630e89341c146101f757806318160ddd1461020a57806323b872dd1461021c578063248a9ca31461022f5780632f2ff15d146102425780632f745c591461025557806336568abe146102685780633f4ba83a1461027b57806342842e0e1461028357806342966c68146102965780634f6ccce7146102a95780635c975abb146102bc5780636352211e146102c75780636a2e60db146102da57806370a08231146102ed5780638456cb591461030057806391d148541461030857806395d89b411461031b578063a217fddf14610323578063a22cb4651461032b578063b88d4fde1461033e578063c87b56dd14610351578063d2e21bab14610364578063d539139314610377578063d547741f1461038c578063e3684e391461039f578063e63ab1e9146103bf578063e985e9c5146103d4575b600080fd5b6101986101933660046128f7565b6103e7565b60405190151581526020015b60405180910390f35b6101b56103f8565b6040516101a49190612964565b6101d56101d0366004612977565b61048a565b6040516101a49190612990565b6101f56101f03660046129c0565b6104b1565b005b6101b5610205366004612977565b6105cb565b6008545b6040519081526020016101a4565b6101f561022a3660046129ea565b610959565b61020e61023d366004612977565b61098b565b6101f5610250366004612a26565b6109a0565b61020e6102633660046129c0565b6109bc565b6101f5610276366004612a26565b610a52565b6101f5610ad0565b6101f56102913660046129ea565b610af3565b6101f56102a4366004612977565b610b0e565b61020e6102b7366004612977565b610b3c565b600a5460ff16610198565b6101d56102d5366004612977565b610bcf565b6101f56102e8366004612a6a565b610c03565b61020e6102fb366004612a9e565b610c70565b6101f5610cf6565b610198610316366004612a26565b610d16565b6101b5610d41565b61020e600081565b6101f5610339366004612ab9565b610d50565b6101f561034c366004612b0b565b610d5b565b6101b561035f366004612977565b610d93565b6101f5610372366004612be6565b610e07565b61020e60008051602061366d83398151915281565b6101f561039a366004612a26565b610f21565b6103b26103ad366004612977565b610f3d565b6040516101a49190612c2a565b61020e60008051602061364d83398151915281565b6101986103e2366004612ca8565b6111cf565b60006103f2826111fd565b92915050565b60606000805461040790612cd2565b80601f016020809104026020016040519081016040528092919081815260200182805461043390612cd2565b80156104805780601f1061045557610100808354040283529160200191610480565b820191906000526020600020905b81548152906001019060200180831161046357829003601f168201915b5050505050905090565b600061049582611222565b506000908152600460205260409020546001600160a01b031690565b60006104bc82610bcf565b9050806001600160a01b0316836001600160a01b03160361052e5760405162461bcd60e51b815260206004820152602160248201527f4552433732313a20617070726f76616c20746f2063757272656e74206f776e656044820152603960f91b60648201526084015b60405180910390fd5b336001600160a01b038216148061054a575061054a81336111cf565b6105bc5760405162461bcd60e51b815260206004820152603d60248201527f4552433732313a20617070726f76652063616c6c6572206973206e6f7420746f60448201527f6b656e206f776e6572206f7220617070726f76656420666f7220616c6c0000006064820152608401610525565b6105c68383611247565b505050565b60606105d56128c7565b6000838152600e60205260408082208151608081019092528054829082906105fc90612cd2565b80601f016020809104026020016040519081016040528092919081815260200182805461062890612cd2565b80156106755780601f1061064a57610100808354040283529160200191610675565b820191906000526020600020905b81548152906001019060200180831161065857829003601f168201915b5050505050815260200160018201805461068e90612cd2565b80601f01602080910402602001604051908101604052809291908181526020018280546106ba90612cd2565b80156107075780601f106106dc57610100808354040283529160200191610707565b820191906000526020600020905b8154815290600101906020018083116106ea57829003601f168201915b5050505050815260200160028201805461072090612cd2565b80601f016020809104026020016040519081016040528092919081815260200182805461074c90612cd2565b80156107995780601f1061076e57610100808354040283529160200191610799565b820191906000526020600020905b81548152906001019060200180831161077c57829003601f168201915b505050505081526020016003820180546107b290612cd2565b80601f01602080910402602001604051908101604052809291908181526020018280546107de90612cd2565b801561082b5780601f106108005761010080835404028352916020019161082b565b820191906000526020600020905b81548152906001019060200180831161080e57829003601f168201915b505050505081525050905061083f826112b5565b6040805180820190915260048152636e616d6560e01b6020820152825191935061086b918491906112cb565b91506108a96040518060400160405280600b81526020016a3232b9b1b934b83a34b7b760a91b8152508260200151846112cb9092919063ffffffff16565b6040805180820182526005815264696d61676560d81b6020820152908301519193506108d7918491906112cb565b91506109176040518060400160405280600d81526020016c185b9a5b585d1a5bdb97dd5c9b609a1b8152508260600151846112cb9092919063ffffffff16565b915061092282611365565b9150610931826020015161137b565b6040516020016109419190612d06565b60405160208183030381529060405292505050919050565b610964335b826114cd565b6109805760405162461bcd60e51b815260040161052590612d4b565b6105c683838361152c565b6000908152600b602052604090206001015490565b6109a98261098b565b6109b28161168b565b6105c68383611695565b60006109c783610c70565b8210610a295760405162461bcd60e51b815260206004820152602b60248201527f455243373231456e756d657261626c653a206f776e657220696e646578206f7560448201526a74206f6620626f756e647360a81b6064820152608401610525565b506001600160a01b03919091166000908152600660209081526040808320938352929052205490565b6001600160a01b0381163314610ac25760405162461bcd60e51b815260206004820152602f60248201527f416363657373436f6e74726f6c3a2063616e206f6e6c792072656e6f756e636560448201526e103937b632b9903337b91039b2b63360891b6064820152608401610525565b610acc828261171b565b5050565b60008051602061364d833981519152610ae88161168b565b610af0611782565b50565b6105c683838360405180602001604052806000815250610d5b565b610b173361095e565b610b335760405162461bcd60e51b815260040161052590612d4b565b610af0816117ce565b6000610b4760085490565b8210610baa5760405162461bcd60e51b815260206004820152602c60248201527f455243373231456e756d657261626c653a20676c6f62616c20696e646578206f60448201526b7574206f6620626f756e647360a01b6064820152608401610525565b60088281548110610bbd57610bbd612d98565b90600052602060002001549050919050565b600080610bdb8361185f565b90506001600160a01b0381166103f25760405162461bcd60e51b815260040161052590612dae565b336000610c0f600c5490565b9050610c1f600c80546001019055565b610c29828261187a565b6000818152600e602052604090208390610c438282612f49565b9050506001610c5183610c70565b11156105c6576040516352ff2fd960e11b815260040160405180910390fd5b60006001600160a01b038216610cda5760405162461bcd60e51b815260206004820152602960248201527f4552433732313a2061646472657373207a65726f206973206e6f7420612076616044820152683634b21037bbb732b960b91b6064820152608401610525565b506001600160a01b031660009081526003602052604090205490565b60008051602061364d833981519152610d0e8161168b565b610af0611894565b6000918252600b602090815260408084206001600160a01b0393909316845291905290205460ff1690565b60606001805461040790612cd2565b610acc3383836118d1565b610d6533836114cd565b610d815760405162461bcd60e51b815260040161052590612d4b565b610d8d8484848461199b565b50505050565b6060610d9e82611222565b6000610db560408051602081019091526000815290565b90506000815111610dd55760405180602001604052806000815250610e00565b80610ddf846119ce565b604051602001610df092919061305f565b6040516020818303038152906040525b9392505050565b610e1f60008051602061366d83398151915233610d16565b158015610e3d575033610e3182610bcf565b6001600160a01b031614155b15610e5b57604051638b5701f760e01b815260040160405180910390fd5b6000818152600e60205260408082209051909190600d908290610e7f90859061308e565b604080519182900390912082526020820192909252016000908120805460ff191692151592909217909155600d90610eb78580612de0565b604051610ec5929190613104565b604080519182900390912082526020820192909252016000205460ff1615610f0057604051630d706ecd60e21b815260040160405180910390fd5b6000828152600e602052604090208390610f1a8282612f49565b5050505050565b610f2a8261098b565b610f338161168b565b6105c6838361171b565b610f686040518060800160405280606081526020016060815260200160608152602001606081525090565b6000828152600e602052604090819020815160808101909252805482908290610f9090612cd2565b80601f0160208091040260200160405190810160405280929190818152602001828054610fbc90612cd2565b80156110095780601f10610fde57610100808354040283529160200191611009565b820191906000526020600020905b815481529060010190602001808311610fec57829003601f168201915b5050505050815260200160018201805461102290612cd2565b80601f016020809104026020016040519081016040528092919081815260200182805461104e90612cd2565b801561109b5780601f106110705761010080835404028352916020019161109b565b820191906000526020600020905b81548152906001019060200180831161107e57829003601f168201915b505050505081526020016002820180546110b490612cd2565b80601f01602080910402602001604051908101604052809291908181526020018280546110e090612cd2565b801561112d5780601f106111025761010080835404028352916020019161112d565b820191906000526020600020905b81548152906001019060200180831161111057829003601f168201915b5050505050815260200160038201805461114690612cd2565b80601f016020809104026020016040519081016040528092919081815260200182805461117290612cd2565b80156111bf5780601f10611194576101008083540402835291602001916111bf565b820191906000526020600020905b8154815290600101906020018083116111a257829003601f168201915b5050505050815250509050919050565b6001600160a01b03918216600090815260056020908152604080832093909416825291909152205460ff1690565b60006001600160e01b03198216637965db0b60e01b14806103f257506103f282611a60565b61122b81611a85565b610af05760405162461bcd60e51b815260040161052590612dae565b600081815260046020526040902080546001600160a01b0319166001600160a01b038416908117909155819061127c82610bcf565b6001600160a01b03167f8c5be1e5ebec7d5bd14f71427d1e84f3dd0314c0f7b2291e5b200ac8c7c3b92560405160405180910390a45050565b6112bd6128c7565b6103f282607b60f81b611aa2565b6112d36128c7565b60006112de83611b36565b90506000856000015112156113245760208086015160405161130a92600b60fa1b918891869101613114565b60408051601f198184030181529190526020860152611351565b60208086015160405161133b928791859101613190565b60408051601f1981840301815291905260208601525b61135a85611f93565b855250929392505050565b61136d6128c7565b6103f282607d60f81b611f9d565b6060815160000361139a57505060408051602081019091526000815290565b600060405180606001604052806040815260200161360d60409139905060006003845160026113c99190613212565b6113d39190613225565b6113de906004613247565b6001600160401b038111156113f5576113f5612af5565b6040519080825280601f01601f19166020018201604052801561141f576020820181803683370190505b509050600182016020820185865187015b8082101561148b576003820191508151603f8160121c168501518453600184019350603f81600c1c168501518453600184019350603f8160061c168501518453600184019350603f8116850151845350600183019250611430565b50506003865106600181146114a757600281146114ba576114c2565b603d6001830353603d60028303536114c2565b603d60018303535b509195945050505050565b6000806114d983610bcf565b9050806001600160a01b0316846001600160a01b03161480611500575061150081856111cf565b806115245750836001600160a01b03166115198461048a565b6001600160a01b0316145b949350505050565b826001600160a01b031661153f82610bcf565b6001600160a01b0316146115655760405162461bcd60e51b81526004016105259061325e565b6001600160a01b0382166115c75760405162461bcd60e51b8152602060048201526024808201527f4552433732313a207472616e7366657220746f20746865207a65726f206164646044820152637265737360e01b6064820152608401610525565b6115d48383836001611ffc565b826001600160a01b03166115e782610bcf565b6001600160a01b03161461160d5760405162461bcd60e51b81526004016105259061325e565b600081815260046020908152604080832080546001600160a01b03199081169091556001600160a01b03878116808652600385528386208054600019019055908716808652838620805460010190558686526002909452828520805490921684179091559051849360008051602061368d83398151915291a4505050565b610af08133612010565b61169f8282610d16565b610acc576000828152600b602090815260408083206001600160a01b03851684529091529020805460ff191660011790556116d73390565b6001600160a01b0316816001600160a01b0316837f2f8788117e7eff1d82e926ec794901d17c78024a50270940304540a733656f0d60405160405180910390a45050565b6117258282610d16565b15610acc576000828152600b602090815260408083206001600160a01b0385168085529252808320805460ff1916905551339285917ff6391f5c32d9c69d2a47ea670b442974b53935d1edc7fd64eb21e047a839171b9190a45050565b61178a612069565b600a805460ff191690557f5db9ee0a495bf2e6ff9c91a7834c1ba4fdd244a5e8aa4e537bd38aeae4b073aa335b6040516117c49190612990565b60405180910390a1565b60006117d982610bcf565b90506117e9816000846001611ffc565b6117f282610bcf565b600083815260046020908152604080832080546001600160a01b03199081169091556001600160a01b03851680855260038452828520805460001901905587855260029093528184208054909116905551929350849260008051602061368d833981519152908390a45050565b6000908152600260205260409020546001600160a01b031690565b610acc8282604051806020016040528060008152506120b4565b61189c6120e7565b600a805460ff191660011790557f62e78cea01bee320cd4e420270b5ea74000d11b0c9f74754ebdbfc544b05a2586117b73390565b816001600160a01b0316836001600160a01b03160361192e5760405162461bcd60e51b815260206004820152601960248201527822a9219b99189d1030b8383937bb32903a379031b0b63632b960391b6044820152606401610525565b6001600160a01b03838116600081815260056020908152604080832094871680845294825291829020805460ff191686151590811790915591519182527f17307eab39ab6107e8899845ad3d59bd9653f200f220920489ca2b5937696c31910160405180910390a3505050565b6119a684848461152c565b6119b28484848461212d565b610d8d5760405162461bcd60e51b8152600401610525906132a3565b606060006119db8361222e565b60010190506000816001600160401b038111156119fa576119fa612af5565b6040519080825280601f01601f191660200182016040528015611a24576020820181803683370190505b5090508181016020015b600019016f181899199a1a9b1b9c1cb0b131b232b360811b600a86061a8153600a8504945084611a2e57509392505050565b60006001600160e01b0319821663780e9d6360e01b14806103f257506103f282612304565b600080611a918361185f565b6001600160a01b0316141592915050565b611aaa6128c7565b825160001315611ae957602080840151604051611acf92600b60fa1b918691016132f5565b60408051601f198184030181529190526020840152611b14565b602080840151604051611afe92859101613328565b60408051601f1981840301815291905260208401525b82516001600160ff1b031680845283611b2c82613357565b9052509192915050565b6060816000805b8251811015611d10578251601760fa1b90849083908110611b6057611b60612d98565b01602001516001600160f81b03191603611b7d5760019150611d10565b8251601160f91b90849083908110611b9757611b97612d98565b01602001516001600160f81b03191603611bb45760019150611d10565b8251602f60f81b90849083908110611bce57611bce612d98565b01602001516001600160f81b03191603611beb5760019150611d10565b8251600960f81b90849083908110611c0557611c05612d98565b01602001516001600160f81b03191603611c225760019150611d10565b8251600360fa1b90849083908110611c3c57611c3c612d98565b01602001516001600160f81b03191603611c595760019150611d10565b8251600560f91b90849083908110611c7357611c73612d98565b01602001516001600160f81b03191603611c905760019150611d10565b8251600d60f81b90849083908110611caa57611caa612d98565b01602001516001600160f81b03191603611cc75760019150611d10565b8251600160fb1b90849083908110611ce157611ce1612d98565b01602001516001600160f81b03191603611cfe5760019150611d10565b80611d0881613376565b915050611b3d565b5080611d1e57509192915050565b60005b8251811015611f8b578251601760fa1b90849083908110611d4457611d44612d98565b01602001516001600160f81b03191603611d7f5783604051602001611d699190613388565b6040516020818303038152906040529350611f79565b8251601160f91b90849083908110611d9957611d99612d98565b01602001516001600160f81b03191603611dbe5783604051602001611d6991906133ae565b8251602f60f81b90849083908110611dd857611dd8612d98565b01602001516001600160f81b03191603611dfd5783604051602001611d6991906133d4565b8251600960f81b90849083908110611e1757611e17612d98565b01602001516001600160f81b03191603611e3c5783604051602001611d6991906133fa565b8251600360fa1b90849083908110611e5657611e56612d98565b01602001516001600160f81b03191603611e7b5783604051602001611d699190613420565b8251600560f91b90849083908110611e9557611e95612d98565b01602001516001600160f81b03191603611eba5783604051602001611d699190613446565b8251600d60f81b90849083908110611ed457611ed4612d98565b01602001516001600160f81b03191603611ef95783604051602001611d69919061346c565b8251600160fb1b90849083908110611f1357611f13612d98565b01602001516001600160f81b03191603611f385783604051602001611d699190613492565b83838281518110611f4b57611f4b612d98565b602001015160f81c60f81b604051602001611f67929190613328565b60405160208183030381529060405293505b80611f8381613376565b915050611d21565b505050919050565b51600160ff1b1790565b611fa56128c7565b602080840151604051611fba92859101613328565b60408051601f198184030181529190526020840152611fd883611f93565b8084526001600160ff1b031615611ff557825183611b2c826134b8565b5090919050565b6120046120e7565b610d8d84848484612354565b61201a8282610d16565b610acc5761202781612481565b612032836020612493565b6040516020016120439291906134d5565b60408051601f198184030181529082905262461bcd60e51b825261052591600401612964565b600a5460ff166120b25760405162461bcd60e51b815260206004820152601460248201527314185d5cd8589b194e881b9bdd081c185d5cd95960621b6044820152606401610525565b565b6120be838361262e565b6120cb600084848461212d565b6105c65760405162461bcd60e51b8152600401610525906132a3565b600a5460ff16156120b25760405162461bcd60e51b815260206004820152601060248201526f14185d5cd8589b194e881c185d5cd95960821b6044820152606401610525565b60006001600160a01b0384163b1561222357604051630a85bd0160e11b81526001600160a01b0385169063150b7a0290612171903390899088908890600401613544565b6020604051808303816000875af19250505080156121ac575060408051601f3d908101601f191682019092526121a991810190613581565b60015b612209573d8080156121da576040519150601f19603f3d011682016040523d82523d6000602084013e6121df565b606091505b5080516000036122015760405162461bcd60e51b8152600401610525906132a3565b805181602001fd5b6001600160e01b031916630a85bd0160e11b149050611524565b506001949350505050565b60008072184f03e93ff9f4daa797ed6e38ed64bf6a1f0160401b831061226d5772184f03e93ff9f4daa797ed6e38ed64bf6a1f0160401b830492506040015b6904ee2d6d415b85acef8160201b8310612297576904ee2d6d415b85acef8160201b830492506020015b662386f26fc1000083106122b557662386f26fc10000830492506010015b6305f5e10083106122cd576305f5e100830492506008015b61271083106122e157612710830492506004015b606483106122f3576064830492506002015b600a83106103f25760010192915050565b60006001600160e01b031982166380ac58cd60e01b148061233557506001600160e01b03198216635b5e139f60e01b145b806103f257506301ffc9a760e01b6001600160e01b03198316146103f2565b60018111156123c35760405162461bcd60e51b815260206004820152603560248201527f455243373231456e756d657261626c653a20636f6e7365637574697665207472604482015274185b9cd9995c9cc81b9bdd081cdd5c1c1bdc9d1959605a1b6064820152608401610525565b816001600160a01b03851661241f5761241a81600880546000838152600960205260408120829055600182018355919091527ff3f7a9fe364faab93b216da50a3214154f22a0a2b415b23a84c8169e8b636ee30155565b612442565b836001600160a01b0316856001600160a01b031614612442576124428582612737565b6001600160a01b03841661245e57612459816127d4565b610f1a565b846001600160a01b0316846001600160a01b031614610f1a57610f1a8482612883565b60606103f26001600160a01b03831660145b606060006124a2836002613247565b6124ad906002613212565b6001600160401b038111156124c4576124c4612af5565b6040519080825280601f01601f1916602001820160405280156124ee576020820181803683370190505b509050600360fc1b8160008151811061250957612509612d98565b60200101906001600160f81b031916908160001a905350600f60fb1b8160018151811061253857612538612d98565b60200101906001600160f81b031916908160001a905350600061255c846002613247565b612567906001613212565b90505b60018111156125df576f181899199a1a9b1b9c1cb0b131b232b360811b85600f166010811061259b5761259b612d98565b1a60f81b8282815181106125b1576125b1612d98565b60200101906001600160f81b031916908160001a90535060049490941c936125d88161359e565b905061256a565b508315610e005760405162461bcd60e51b815260206004820181905260248201527f537472696e67733a20686578206c656e67746820696e73756666696369656e746044820152606401610525565b6001600160a01b0382166126845760405162461bcd60e51b815260206004820181905260248201527f4552433732313a206d696e7420746f20746865207a65726f20616464726573736044820152606401610525565b61268d81611a85565b156126aa5760405162461bcd60e51b8152600401610525906135ad565b6126b8600083836001611ffc565b6126c181611a85565b156126de5760405162461bcd60e51b8152600401610525906135ad565b6001600160a01b038216600081815260036020908152604080832080546001019055848352600290915280822080546001600160a01b03191684179055518392919060008051602061368d833981519152908290a45050565b6000600161274484610c70565b61274e91906135e3565b6000838152600760205260409020549091508082146127a1576001600160a01b03841660009081526006602090815260408083208584528252808320548484528184208190558352600790915290208190555b5060009182526007602090815260408084208490556001600160a01b039094168352600681528383209183525290812055565b6008546000906127e6906001906135e3565b6000838152600960205260408120546008805493945090928490811061280e5761280e612d98565b90600052602060002001549050806008838154811061282f5761282f612d98565b6000918252602080832090910192909255828152600990915260408082208490558582528120556008805480612867576128676135f6565b6001900381819060005260206000200160009055905550505050565b600061288e83610c70565b6001600160a01b039093166000908152600660209081526040808320868452825280832085905593825260079052919091209190915550565b604051806040016040528060008152602001606081525090565b6001600160e01b031981168114610af057600080fd5b60006020828403121561290957600080fd5b8135610e00816128e1565b60005b8381101561292f578181015183820152602001612917565b50506000910152565b60008151808452612950816020860160208601612914565b601f01601f19169290920160200192915050565b602081526000610e006020830184612938565b60006020828403121561298957600080fd5b5035919050565b6001600160a01b0391909116815260200190565b80356001600160a01b03811681146129bb57600080fd5b919050565b600080604083850312156129d357600080fd5b6129dc836129a4565b946020939093013593505050565b6000806000606084860312156129ff57600080fd5b612a08846129a4565b9250612a16602085016129a4565b9150604084013590509250925092565b60008060408385031215612a3957600080fd5b82359150612a49602084016129a4565b90509250929050565b600060808284031215612a6457600080fd5b50919050565b600060208284031215612a7c57600080fd5b81356001600160401b03811115612a9257600080fd5b61152484828501612a52565b600060208284031215612ab057600080fd5b610e00826129a4565b60008060408385031215612acc57600080fd5b612ad5836129a4565b915060208301358015158114612aea57600080fd5b809150509250929050565b634e487b7160e01b600052604160045260246000fd5b60008060008060808587031215612b2157600080fd5b612b2a856129a4565b9350612b38602086016129a4565b92506040850135915060608501356001600160401b0380821115612b5b57600080fd5b818701915087601f830112612b6f57600080fd5b813581811115612b8157612b81612af5565b604051601f8201601f19908116603f01168101908382118183101715612ba957612ba9612af5565b816040528281528a6020848701011115612bc257600080fd5b82602086016020830137600060208483010152809550505050505092959194509250565b60008060408385031215612bf957600080fd5b82356001600160401b03811115612c0f57600080fd5b612c1b85828601612a52565b95602094909401359450505050565b602081526000825160806020840152612c4660a0840182612938565b90506020840151601f1980858403016040860152612c648383612938565b92506040860151915080858403016060860152612c818383612938565b9250606086015191508085840301608086015250612c9f8282612938565b95945050505050565b60008060408385031215612cbb57600080fd5b612cc4836129a4565b9150612a49602084016129a4565b600181811c90821680612ce657607f821691505b602082108103612a6457634e487b7160e01b600052602260045260246000fd5b7f646174613a6170706c69636174696f6e2f6a736f6e3b6261736536342c000000815260008251612d3e81601d850160208701612914565b91909101601d0192915050565b6020808252602d908201527f4552433732313a2063616c6c6572206973206e6f7420746f6b656e206f776e6560408201526c1c881bdc88185c1c1c9bdd9959609a1b606082015260800190565b634e487b7160e01b600052603260045260246000fd5b602080825260189082015277115490cdcc8c4e881a5b9d985b1a59081d1bdad95b88125160421b604082015260600190565b6000808335601e19843603018112612df757600080fd5b8301803591506001600160401b03821115612e1157600080fd5b602001915036819003821315612e2657600080fd5b9250929050565b601f8211156105c657600081815260208120601f850160051c81016020861015612e545750805b601f850160051c820191505b81811015612e7357828155600101612e60565b505050505050565b600019600383901b1c191660019190911b1790565b6001600160401b03831115612ea757612ea7612af5565b612ebb83612eb58354612cd2565b83612e2d565b6000601f841160018114612ee95760008515612ed75750838201355b612ee18682612e7b565b845550610f1a565b600083815260209020601f19861690835b82811015612f1a5786850135825560209485019460019092019101612efa565b5086821015612f375760001960f88860031b161c19848701351681555b505060018560011b0183555050505050565b612f538283612de0565b6001600160401b03811115612f6a57612f6a612af5565b612f7e81612f788554612cd2565b85612e2d565b6000601f821160018114612fac5760008315612f9a5750838201355b612fa48482612e7b565b865550613006565b600085815260209020601f19841690835b82811015612fdd5786850135825560209485019460019092019101612fbd565b5084821015612ffa5760001960f88660031b161c19848701351681555b505060018360011b0185555b505050506130176020830183612de0565b613025818360018601612e90565b50506130346040830183612de0565b613042818360028601612e90565b50506130516060830183612de0565b610d8d818360038601612e90565b60008351613071818460208801612914565b835190830190613085818360208801612914565b01949350505050565b600080835461309c81612cd2565b600182811680156130b457600181146130c9576130f8565b60ff19841687528215158302870194506130f8565b8760005260208060002060005b858110156130ef5781548a8201529084019082016130d6565b50505082870194505b50929695505050505050565b8183823760009101908152919050565b60008551613126818460208a01612914565b6001600160f81b03198616908301908152601160f91b600182018190528551613156816002850160208a01612914565b63111d101160e11b60029390910192830152845161317b816006850160208901612914565b60069201918201526007019695505050505050565b600084516131a2818460208901612914565b601160f91b90830181815285519091906131c3816001850160208a01612914565b63111d101160e11b6001939091019283015284516131e8816005850160208901612914565b600592019182015260060195945050505050565b634e487b7160e01b600052601160045260246000fd5b808201808211156103f2576103f26131fc565b60008261324257634e487b7160e01b600052601260045260246000fd5b500490565b80820281158282048414176103f2576103f26131fc565b60208082526025908201527f4552433732313a207472616e736665722066726f6d20696e636f72726563742060408201526437bbb732b960d91b606082015260800190565b60208082526032908201527f4552433732313a207472616e7366657220746f206e6f6e20455243373231526560408201527131b2b4bb32b91034b6b83632b6b2b73a32b960711b606082015260800190565b60008451613307818460208901612914565b6001600160f81b031994851692019182525091166001820152600201919050565b6000835161333a818460208801612914565b6001600160f81b0319939093169190920190815260010192915050565b60006001600160ff1b01820161336f5761336f6131fc565b5060010190565b60006001820161336f5761336f6131fc565b6000825161339a818460208701612914565b61171760f21b920191825250600201919050565b600082516133c0818460208701612914565b612e1160f11b920191825250600201919050565b600082516133e6818460208701612914565b615c2f60f01b920191825250600201919050565b6000825161340c818460208701612914565b61171d60f21b920191825250600201919050565b60008251613432818460208701612914565b612e3360f11b920191825250600201919050565b60008251613458818460208701612914565b612e3760f11b920191825250600201919050565b6000825161347e818460208701612914565b612e3960f11b920191825250600201919050565b600082516134a4818460208701612914565b612e3160f11b920191825250600201919050565b6000600160ff1b82016134cd576134cd6131fc565b506000190190565b76020b1b1b2b9b9a1b7b73a3937b61d1030b1b1b7bab73a1604d1b815260008351613507816017850160208801612914565b7001034b99036b4b9b9b4b733903937b6329607d1b6017918401918201528351613538816028840160208801612914565b01602801949350505050565b6001600160a01b038581168252841660208201526040810183905260806060820181905260009061357790830184612938565b9695505050505050565b60006020828403121561359357600080fd5b8151610e00816128e1565b6000816134cd576134cd6131fc565b6020808252601c908201527b115490cdcc8c4e881d1bdad95b88185b1c9958591e481b5a5b9d195960221b604082015260600190565b818103818111156103f2576103f26131fc565b634e487b7160e01b600052603160045260246000fdfe4142434445464748494a4b4c4d4e4f505152535455565758595a6162636465666768696a6b6c6d6e6f707172737475767778797a303132333435363738392b2f65d7a28e3265b37a6474929f336521b332c1681b933f6cb9f3376673440d862a9f2df0fed2c77648de5860a4cc508cd0818c85b8b8a1ab4ceeef8d981c8956a6ddf252ad1be2c89b69c2b068fc378daa952ba7f163c4a11628f55a4df523b3efa2646970667358221220a258da3f8ea806f7e7cbb0d1e678511a215a1c0f7dd1adbb264142f4dd7eddf664736f6c63430008120033",
  "devdoc": {
    "events": {
      "Approval(address,address,uint256)": {
        "details": "Emitted when `owner` enables `approved` to manage the `tokenId` token."
      },
      "ApprovalForAll(address,address,bool)": {
        "details": "Emitted when `owner` enables or disables (`approved`) `operator` to manage all of its assets."
      },
      "Paused(address)": {
        "details": "Emitted when the pause is triggered by `account`."
      },
      "RoleAdminChanged(bytes32,bytes32,bytes32)": {
        "details": "Emitted when `newAdminRole` is set as ``role``'s admin role, replacing `previousAdminRole` `DEFAULT_ADMIN_ROLE` is the starting admin for all roles, despite {RoleAdminChanged} not being emitted signaling this. _Available since v3.1._"
      },
      "RoleGranted(bytes32,address,address)": {
        "details": "Emitted when `account` is granted `role`. `sender` is the account that originated the contract call, an admin role bearer except when using {AccessControl-_setupRole}."
      },
      "RoleRevoked(bytes32,address,address)": {
        "details": "Emitted when `account` is revoked `role`. `sender` is the account that originated the contract call:   - if using `revokeRole`, it is the admin role bearer   - if using `renounceRole`, it is the role bearer (i.e. `account`)"
      },
      "Transfer(address,address,uint256)": {
        "details": "Emitted when `tokenId` token is transferred from `from` to `to`."
      },
      "Unpaused(address)": {
        "details": "Emitted when the pause is lifted by `account`."
      }
    },
    "kind": "dev",
    "methods": {
      "approve(address,uint256)": {
        "details": "See {IERC721-approve}."
      },
      "balanceOf(address)": {
        "details": "See {IERC721-balanceOf}."
      },
      "burn(uint256)": {
        "details": "Burns `tokenId`. See {ERC721-_burn}. Requirements: - The caller must own `tokenId` or be an approved operator."
      },
      "getApproved(uint256)": {
        "details": "See {IERC721-getApproved}."
      },
      "getRoleAdmin(bytes32)": {
        "details": "Returns the admin role that controls `role`. See {grantRole} and {revokeRole}. To change a role's admin, use {_setRoleAdmin}."
      },
      "grantRole(bytes32,address)": {
        "details": "Grants `role` to `account`. If `account` had not been already granted `role`, emits a {RoleGranted} event. Requirements: - the caller must have ``role``'s admin role. May emit a {RoleGranted} event."
      },
      "hasRole(bytes32,address)": {
        "details": "Returns `true` if `account` has been granted `role`."
      },
      "isApprovedForAll(address,address)": {
        "details": "See {IERC721-isApprovedForAll}."
      },
      "name()": {
        "details": "See {IERC721Metadata-name}."
      },
      "ownerOf(uint256)": {
        "details": "See {IERC721-ownerOf}."
      },
      "paused()": {
        "details": "Returns true if the contract is paused, and false otherwise."
      },
      "renounceRole(bytes32,address)": {
        "details": "Revokes `role` from the calling account. Roles are often managed via {grantRole} and {revokeRole}: this function's purpose is to provide a mechanism for accounts to lose their privileges if they are compromised (such as when a trusted device is misplaced). If the calling account had been revoked `role`, emits a {RoleRevoked} event. Requirements: - the caller must be `account`. May emit a {RoleRevoked} event."
      },
      "revokeRole(bytes32,address)": {
        "details": "Revokes `role` from `account`. If `account` had been granted `role`, emits a {RoleRevoked} event. Requirements: - the caller must have ``role``'s admin role. May emit a {RoleRevoked} event."
      },
      "safeTransferFrom(address,address,uint256)": {
        "details": "See {IERC721-safeTransferFrom}."
      },
      "safeTransferFrom(address,address,uint256,bytes)": {
        "details": "See {IERC721-safeTransferFrom}."
      },
      "setApprovalForAll(address,bool)": {
        "details": "See {IERC721-setApprovalForAll}."
      },
      "symbol()": {
        "details": "See {IERC721Metadata-symbol}."
      },
      "tokenByIndex(uint256)": {
        "details": "See {IERC721Enumerable-tokenByIndex}."
      },
      "tokenOfOwnerByIndex(address,uint256)": {
        "details": "See {IERC721Enumerable-tokenOfOwnerByIndex}."
      },
      "tokenURI(uint256)": {
        "details": "See {IERC721Metadata-tokenURI}."
      },
      "totalSupply()": {
        "details": "See {IERC721Enumerable-totalSupply}."
      },
      "transferFrom(address,address,uint256)": {
        "details": "See {IERC721-transferFrom}."
      }
    },
    "version": 1
  },
  "userdoc": {
    "kind": "user",
    "methods": {},
    "version": 1
  },
  "storageLayout": {
    "storage": [
      {
        "astId": 522,
        "contract": "contracts/PlayerProfile.sol:PlayerProfile",
        "label": "_name",
        "offset": 0,
        "slot": "0",
        "type": "t_string_storage"
      },
      {
        "astId": 524,
        "contract": "contracts/PlayerProfile.sol:PlayerProfile",
        "label": "_symbol",
        "offset": 0,
        "slot": "1",
        "type": "t_string_storage"
      },
      {
        "astId": 528,
        "contract": "contracts/PlayerProfile.sol:PlayerProfile",
        "label": "_owners",
        "offset": 0,
        "slot": "2",
        "type": "t_mapping(t_uint256,t_address)"
      },
      {
        "astId": 532,
        "contract": "contracts/PlayerProfile.sol:PlayerProfile",
        "label": "_balances",
        "offset": 0,
        "slot": "3",
        "type": "t_mapping(t_address,t_uint256)"
      },
      {
        "astId": 536,
        "contract": "contracts/PlayerProfile.sol:PlayerProfile",
        "label": "_tokenApprovals",
        "offset": 0,
        "slot": "4",
        "type": "t_mapping(t_uint256,t_address)"
      },
      {
        "astId": 542,
        "contract": "contracts/PlayerProfile.sol:PlayerProfile",
        "label": "_operatorApprovals",
        "offset": 0,
        "slot": "5",
        "type": "t_mapping(t_address,t_mapping(t_address,t_bool))"
      },
      {
        "astId": 1602,
        "contract": "contracts/PlayerProfile.sol:PlayerProfile",
        "label": "_ownedTokens",
        "offset": 0,
        "slot": "6",
        "type": "t_mapping(t_address,t_mapping(t_uint256,t_uint256))"
      },
      {
        "astId": 1606,
        "contract": "contracts/PlayerProfile.sol:PlayerProfile",
        "label": "_ownedTokensIndex",
        "offset": 0,
        "slot": "7",
        "type": "t_mapping(t_uint256,t_uint256)"
      },
      {
        "astId": 1609,
        "contract": "contracts/PlayerProfile.sol:PlayerProfile",
        "label": "_allTokens",
        "offset": 0,
        "slot": "8",
        "type": "t_array(t_uint256)dyn_storage"
      },
      {
        "astId": 1613,
        "contract": "contracts/PlayerProfile.sol:PlayerProfile",
        "label": "_allTokensIndex",
        "offset": 0,
        "slot": "9",
        "type": "t_mapping(t_uint256,t_uint256)"
      },
      {
        "astId": 406,
        "contract": "contracts/PlayerProfile.sol:PlayerProfile",
        "label": "_paused",
        "offset": 0,
        "slot": "10",
        "type": "t_bool"
      },
      {
        "astId": 24,
        "contract": "contracts/PlayerProfile.sol:PlayerProfile",
        "label": "_roles",
        "offset": 0,
        "slot": "11",
        "type": "t_mapping(t_bytes32,t_struct(RoleData)19_storage)"
      },
      {
        "astId": 3595,
        "contract": "contracts/PlayerProfile.sol:PlayerProfile",
        "label": "_tokenIdCounter",
        "offset": 0,
        "slot": "12",
        "type": "t_struct(Counter)2404_storage"
      },
      {
        "astId": 3599,
        "contract": "contracts/PlayerProfile.sol:PlayerProfile",
        "label": "_usedNames",
        "offset": 0,
        "slot": "13",
        "type": "t_mapping(t_bytes32,t_bool)"
      },
      {
        "astId": 3604,
        "contract": "contracts/PlayerProfile.sol:PlayerProfile",
        "label": "_metadata",
        "offset": 0,
        "slot": "14",
        "type": "t_mapping(t_uint256,t_struct(Metadata)3613_storage)"
      }
    ],
    "types": {
      "t_address": {
        "encoding": "inplace",
        "label": "address",
        "numberOfBytes": "20"
      },
      "t_array(t_uint256)dyn_storage": {
        "base": "t_uint256",
        "encoding": "dynamic_array",
        "label": "uint256[]",
        "numberOfBytes": "32"
      },
      "t_bool": {
        "encoding": "inplace",
        "label": "bool",
        "numberOfBytes": "1"
      },
      "t_bytes32": {
        "encoding": "inplace",
        "label": "bytes32",
        "numberOfBytes": "32"
      },
      "t_mapping(t_address,t_bool)": {
        "encoding": "mapping",
        "key": "t_address",
        "label": "mapping(address => bool)",
        "numberOfBytes": "32",
        "value": "t_bool"
      },
      "t_mapping(t_address,t_mapping(t_address,t_bool))": {
        "encoding": "mapping",
        "key": "t_address",
        "label": "mapping(address => mapping(address => bool))",
        "numberOfBytes": "32",
        "value": "t_mapping(t_address,t_bool)"
      },
      "t_mapping(t_address,t_mapping(t_uint256,t_uint256))": {
        "encoding": "mapping",
        "key": "t_address",
        "label": "mapping(address => mapping(uint256 => uint256))",
        "numberOfBytes": "32",
        "value": "t_mapping(t_uint256,t_uint256)"
      },
      "t_mapping(t_address,t_uint256)": {
        "encoding": "mapping",
        "key": "t_address",
        "label": "mapping(address => uint256)",
        "numberOfBytes": "32",
        "value": "t_uint256"
      },
      "t_mapping(t_bytes32,t_bool)": {
        "encoding": "mapping",
        "key": "t_bytes32",
        "label": "mapping(bytes32 => bool)",
        "numberOfBytes": "32",
        "value": "t_bool"
      },
      "t_mapping(t_bytes32,t_struct(RoleData)19_storage)": {
        "encoding": "mapping",
        "key": "t_bytes32",
        "label": "mapping(bytes32 => struct AccessControl.RoleData)",
        "numberOfBytes": "32",
        "value": "t_struct(RoleData)19_storage"
      },
      "t_mapping(t_uint256,t_address)": {
        "encoding": "mapping",
        "key": "t_uint256",
        "label": "mapping(uint256 => address)",
        "numberOfBytes": "32",
        "value": "t_address"
      },
      "t_mapping(t_uint256,t_struct(Metadata)3613_storage)": {
        "encoding": "mapping",
        "key": "t_uint256",
        "label": "mapping(uint256 => struct PlayerProfile.Metadata)",
        "numberOfBytes": "32",
        "value": "t_struct(Metadata)3613_storage"
      },
      "t_mapping(t_uint256,t_uint256)": {
        "encoding": "mapping",
        "key": "t_uint256",
        "label": "mapping(uint256 => uint256)",
        "numberOfBytes": "32",
        "value": "t_uint256"
      },
      "t_string_storage": {
        "encoding": "bytes",
        "label": "string",
        "numberOfBytes": "32"
      },
      "t_struct(Counter)2404_storage": {
        "encoding": "inplace",
        "label": "struct Counters.Counter",
        "members": [
          {
            "astId": 2403,
            "contract": "contracts/PlayerProfile.sol:PlayerProfile",
            "label": "_value",
            "offset": 0,
            "slot": "0",
            "type": "t_uint256"
          }
        ],
        "numberOfBytes": "32"
      },
      "t_struct(Metadata)3613_storage": {
        "encoding": "inplace",
        "label": "struct PlayerProfile.Metadata",
        "members": [
          {
            "astId": 3606,
            "contract": "contracts/PlayerProfile.sol:PlayerProfile",
            "label": "name",
            "offset": 0,
            "slot": "0",
            "type": "t_string_storage"
          },
          {
            "astId": 3608,
            "contract": "contracts/PlayerProfile.sol:PlayerProfile",
            "label": "description",
            "offset": 0,
            "slot": "1",
            "type": "t_string_storage"
          },
          {
            "astId": 3610,
            "contract": "contracts/PlayerProfile.sol:PlayerProfile",
            "label": "image",
            "offset": 0,
            "slot": "2",
            "type": "t_string_storage"
          },
          {
            "astId": 3612,
            "contract": "contracts/PlayerProfile.sol:PlayerProfile",
            "label": "animationUrl",
            "offset": 0,
            "slot": "3",
            "type": "t_string_storage"
          }
        ],
        "numberOfBytes": "128"
      },
      "t_struct(RoleData)19_storage": {
        "encoding": "inplace",
        "label": "struct AccessControl.RoleData",
        "members": [
          {
            "astId": 16,
            "contract": "contracts/PlayerProfile.sol:PlayerProfile",
            "label": "members",
            "offset": 0,
            "slot": "0",
            "type": "t_mapping(t_address,t_bool)"
          },
          {
            "astId": 18,
            "contract": "contracts/PlayerProfile.sol:PlayerProfile",
            "label": "adminRole",
            "offset": 0,
            "slot": "1",
            "type": "t_bytes32"
          }
        ],
        "numberOfBytes": "64"
      },
      "t_uint256": {
        "encoding": "inplace",
        "label": "uint256",
        "numberOfBytes": "32"
      }
    }
  }
}