{
  "address": "0x4AeE11EFB8686EDC0E8a38DF1CEF3Fcb8a782586",
  "abi": [
    {
      "inputs": [
        {
          "internalType": "address",
          "name": "initialOwner",
          "type": "address"
        }
      ],
      "stateMutability": "nonpayable",
      "type": "constructor"
    },
    {
      "anonymous": false,
      "inputs": [
        {
          "indexed": true,
          "internalType": "uint256",
          "name": "originalAmount",
          "type": "uint256"
        },
        {
          "indexed": true,
          "internalType": "uint256",
          "name": "newAmount",
          "type": "uint256"
        },
        {
          "indexed": true,
          "internalType": "address",
          "name": "signer",
          "type": "address"
        }
      ],
      "name": "AmountUpdated",
      "type": "event"
    },
    {
      "anonymous": false,
      "inputs": [
        {
          "indexed": true,
          "internalType": "address",
          "name": "previousOwner",
          "type": "address"
        },
        {
          "indexed": true,
          "internalType": "address",
          "name": "newOwner",
          "type": "address"
        }
      ],
      "name": "OwnershipTransferred",
      "type": "event"
    },
    {
      "anonymous": false,
      "inputs": [
        {
          "indexed": true,
          "internalType": "address",
          "name": "payee",
          "type": "address"
        },
        {
          "indexed": true,
          "internalType": "uint256",
          "name": "amount",
          "type": "uint256"
        },
        {
          "indexed": true,
          "internalType": "uint256",
          "name": "timestamp",
          "type": "uint256"
        }
      ],
      "name": "Payed",
      "type": "event"
    },
    {
      "anonymous": false,
      "inputs": [
        {
          "indexed": true,
          "internalType": "address",
          "name": "signer",
          "type": "address"
        },
        {
          "indexed": true,
          "internalType": "bool",
          "name": "newState",
          "type": "bool"
        }
      ],
      "name": "StateToggled",
      "type": "event"
    },
    {
      "stateMutability": "payable",
      "type": "fallback"
    },
    {
      "inputs": [],
      "name": "getAmount",
      "outputs": [
        {
          "internalType": "uint256",
          "name": "",
          "type": "uint256"
        }
      ],
      "stateMutability": "view",
      "type": "function"
    },
    {
      "inputs": [],
      "name": "getBalance",
      "outputs": [
        {
          "internalType": "uint256",
          "name": "",
          "type": "uint256"
        }
      ],
      "stateMutability": "view",
      "type": "function"
    },
    {
      "inputs": [],
      "name": "getState",
      "outputs": [
        {
          "internalType": "bool",
          "name": "",
          "type": "bool"
        }
      ],
      "stateMutability": "view",
      "type": "function"
    },
    {
      "inputs": [],
      "name": "owner",
      "outputs": [
        {
          "internalType": "address",
          "name": "",
          "type": "address"
        }
      ],
      "stateMutability": "view",
      "type": "function"
    },
    {
      "inputs": [
        {
          "internalType": "address payable",
          "name": "receiver",
          "type": "address"
        }
      ],
      "name": "pay",
      "outputs": [],
      "stateMutability": "nonpayable",
      "type": "function"
    },
    {
      "inputs": [],
      "name": "renounceOwnership",
      "outputs": [],
      "stateMutability": "nonpayable",
      "type": "function"
    },
    {
      "inputs": [],
      "name": "toggleState",
      "outputs": [],
      "stateMutability": "nonpayable",
      "type": "function"
    },
    {
      "inputs": [
        {
          "internalType": "address",
          "name": "newOwner",
          "type": "address"
        }
      ],
      "name": "transferOwnership",
      "outputs": [],
      "stateMutability": "nonpayable",
      "type": "function"
    },
    {
      "inputs": [
        {
          "internalType": "uint256",
          "name": "_newAmount",
          "type": "uint256"
        }
      ],
      "name": "updateAmount",
      "outputs": [],
      "stateMutability": "nonpayable",
      "type": "function"
    },
    {
      "inputs": [],
      "name": "withdraw",
      "outputs": [],
      "stateMutability": "nonpayable",
      "type": "function"
    },
    {
      "stateMutability": "payable",
      "type": "receive"
    }
  ],
  "transactionHash": "0x95f65f48a05d667ff1af37d9b892abb47a63f2cb27244708078ec41351d0386e",
  "args": [
    "0x6DE3D3747D54d0Adc11e5Cf678D4045B0441D332"
  ],
  "numDeployments": 1,
  "solcInputHash": "570a5af6b230326990a8394e07936a9e",
  "bytecode": "0x6080604052655af3107a400060015534801561001a57600080fd5b506040516106fe3803806106fe833981016040819052610039916100ae565b6100423361005e565b6002805460ff191660011790556100588161005e565b506100de565b600080546001600160a01b038381166001600160a01b0319831681178455604051919092169283917f8be0079c531659141344cd1fd0a4f28419497f9722a3daafe3b4186f6b6457e09190a35050565b6000602082840312156100c057600080fd5b81516001600160a01b03811681146100d757600080fd5b9392505050565b610611806100ed6000396000f3fe6080604052600436106100825760003560e01c80630c11dedd1461008b57806312065fe0146100ab5780631865c57d146100cd57806334d6093d146100f05780633ccfd60b14610110578063715018a6146101255780638da5cb5b1461013a578063d321fe2914610167578063d37e51041461017c578063f2fde38b1461019157005b3661008957005b005b34801561009757600080fd5b506100896100a6366004610577565b6101b1565b3480156100b757600080fd5b50475b6040519081526020015b60405180910390f35b3480156100d957600080fd5b5060025460ff1660405190151581526020016100c4565b3480156100fc57600080fd5b5061008961010b36600461059b565b6102f4565b34801561011c57600080fd5b50610089610383565b34801561013157600080fd5b506100896103cb565b34801561014657600080fd5b5061014f6103df565b6040516001600160a01b0390911681526020016100c4565b34801561017357600080fd5b506001546100ba565b34801561018857600080fd5b506100896103ee565b34801561019d57600080fd5b506100896101ac366004610577565b61043d565b60025460ff166102085760405162461bcd60e51b815260206004820152601d60248201527f506f575365637572653a20436f6e74726163742069732050617573656400000060448201526064015b60405180910390fd5b6001544710156102565760405162461bcd60e51b8152602060048201526019602482015278506f575365637572653a20436f6e747261637420456d70747960381b60448201526064016101ff565b6001546001600160a01b03821631908110156102f05760008160015461027c91906105b4565b6040519091506001600160a01b0384169082156108fc029083906000818181858888f193505050501580156102b5573d6000803e3d6000fd5b504281846001600160a01b03167fc4afcd8d38f903c1c3c8ab41a84f6df29cb7fb88e0d7121bc9633c15eb94af8660405160405180910390a4505b5050565b6102fc6104b3565b600081116103485760405162461bcd60e51b8152602060048201526019602482015278141bddd4d958dd5c994e88125b9d985b1a5908105b5bdd5b9d603a1b60448201526064016101ff565b60018054908290556040513390839083907f32598843ebd8872cccdb9c21be935270ca4d457ae763774808d1b802e33f123390600090a45050565b61038b6104b3565b6103936103df565b6001600160a01b03166108fc476040518115909202916000818181858888f193505050501580156103c8573d6000803e3d6000fd5b50565b6103d36104b3565b6103dd6000610512565b565b6000546001600160a01b031690565b6103f66104b3565b6002805460ff19811660ff91821615908117909255604051911615159033907f756dab92326c7665f3daa85a3340c845b6f4f0e1b22c4b75a15bce75ba7abe9a90600090a3565b6104456104b3565b6001600160a01b0381166104aa5760405162461bcd60e51b815260206004820152602660248201527f4f776e61626c653a206e6577206f776e657220697320746865207a65726f206160448201526564647265737360d01b60648201526084016101ff565b6103c881610512565b336104bc6103df565b6001600160a01b0316146103dd5760405162461bcd60e51b815260206004820181905260248201527f4f776e61626c653a2063616c6c6572206973206e6f7420746865206f776e657260448201526064016101ff565b600080546001600160a01b038381166001600160a01b0319831681178455604051919092169283917f8be0079c531659141344cd1fd0a4f28419497f9722a3daafe3b4186f6b6457e09190a35050565b6001600160a01b03811681146103c857600080fd5b60006020828403121561058957600080fd5b813561059481610562565b9392505050565b6000602082840312156105ad57600080fd5b5035919050565b818103818111156105d557634e487b7160e01b600052601160045260246000fd5b9291505056fea264697066735822122089dfca593a595289b316beb5aa4d424fba3efeafa0bec3b7fd72e2ae6c8016ce64736f6c63430008120033",
  "devdoc": {
    "events": {
      "AmountUpdated(uint256,uint256,address)": {
        "details": "the AmountUpdated Event is called when amount which contracts pays to user is updated"
      },
      "Payed(address,uint256,uint256)": {
        "details": "the Payed Event is called with a successful pay"
      },
      "StateToggled(address,bool)": {
        "details": "the StateToggled Event is called when state is changed"
      }
    },
    "kind": "dev",
    "methods": {
      "getAmount()": {
        "details": "Gets the public amount this faucet gives out"
      },
      "getBalance()": {
        "details": "Gets the balance of the contract (sFUEL)"
      },
      "getState()": {
        "details": "Gets the state of the active contract If true -> IsActive"
      },
      "owner()": {
        "details": "Returns the address of the current owner."
      },
      "pay(address)": {
        "details": "The pay function hit via PoW",
        "params": {
          "receiver": "is a payable address"
        }
      },
      "renounceOwnership()": {
        "details": "Leaves the contract without owner. It will not be possible to call `onlyOwner` functions anymore. Can only be called by the current owner. NOTE: Renouncing ownership will leave the contract without an owner, thereby removing any functionality that is only available to the owner."
      },
      "toggleState()": {
        "details": "Toggles the ability for users to use this contract via the sFUEL Station"
      },
      "transferOwnership(address)": {
        "details": "Transfers ownership of the contract to a new account (`newOwner`). Can only be called by the current owner."
      },
      "updateAmount(uint256)": {
        "details": "Updates the base amount the contract checks for",
        "params": {
          "_newAmount": "-> Uint256"
        }
      },
      "withdraw()": {
        "details": "Withdraw all SFUEL amount to the owner"
      }
    },
    "stateVariables": {
      "amount": {
        "details": "the amount the contract should fill a user up to 0.0001 is enough to send 10K txs with average gas consumption 100K gas "
      },
      "isActive": {
        "details": "Value used to determine state"
      }
    },
    "version": 1
  },
  "userdoc": {
    "kind": "user",
    "methods": {},
    "version": 1
  },
  "storageLayout": {
    "storage": [
      {
        "astId": 7,
        "contract": "contracts/PoWSecure.sol:PoWSecure",
        "label": "_owner",
        "offset": 0,
        "slot": "0",
        "type": "t_address"
      },
      {
        "astId": 168,
        "contract": "contracts/PoWSecure.sol:PoWSecure",
        "label": "amount",
        "offset": 0,
        "slot": "1",
        "type": "t_uint256"
      },
      {
        "astId": 171,
        "contract": "contracts/PoWSecure.sol:PoWSecure",
        "label": "isActive",
        "offset": 0,
        "slot": "2",
        "type": "t_bool"
      }
    ],
    "types": {
      "t_address": {
        "encoding": "inplace",
        "label": "address",
        "numberOfBytes": "20"
      },
      "t_bool": {
        "encoding": "inplace",
        "label": "bool",
        "numberOfBytes": "1"
      },
      "t_uint256": {
        "encoding": "inplace",
        "label": "uint256",
        "numberOfBytes": "32"
      }
    }
  }
}