{
  "address": "0x845d123Ba9c8465CD0f9593620Ad3A8dEFAB4c12",
  "abi": [
    {
      "inputs": [
        {
          "internalType": "address",
          "name": "metadataPrinter",
          "type": "address"
        }
      ],
      "stateMutability": "nonpayable",
      "type": "constructor"
    },
    {
      "inputs": [],
      "name": "Unauthorized",
      "type": "error"
    },
    {
      "anonymous": false,
      "inputs": [
        {
          "indexed": true,
          "internalType": "address",
          "name": "account",
          "type": "address"
        },
        {
          "indexed": true,
          "internalType": "address",
          "name": "operator",
          "type": "address"
        },
        {
          "indexed": false,
          "internalType": "bool",
          "name": "approved",
          "type": "bool"
        }
      ],
      "name": "ApprovalForAll",
      "type": "event"
    },
    {
      "anonymous": false,
      "inputs": [
        {
          "indexed": true,
          "internalType": "address",
          "name": "previousOwner",
          "type": "address"
        },
        {
          "indexed": true,
          "internalType": "address",
          "name": "newOwner",
          "type": "address"
        }
      ],
      "name": "OwnershipTransferred",
      "type": "event"
    },
    {
      "anonymous": false,
      "inputs": [
        {
          "indexed": true,
          "internalType": "bytes32",
          "name": "role",
          "type": "bytes32"
        },
        {
          "indexed": true,
          "internalType": "bytes32",
          "name": "previousAdminRole",
          "type": "bytes32"
        },
        {
          "indexed": true,
          "internalType": "bytes32",
          "name": "newAdminRole",
          "type": "bytes32"
        }
      ],
      "name": "RoleAdminChanged",
      "type": "event"
    },
    {
      "anonymous": false,
      "inputs": [
        {
          "indexed": true,
          "internalType": "bytes32",
          "name": "role",
          "type": "bytes32"
        },
        {
          "indexed": true,
          "internalType": "address",
          "name": "account",
          "type": "address"
        },
        {
          "indexed": true,
          "internalType": "address",
          "name": "sender",
          "type": "address"
        }
      ],
      "name": "RoleGranted",
      "type": "event"
    },
    {
      "anonymous": false,
      "inputs": [
        {
          "indexed": true,
          "internalType": "bytes32",
          "name": "role",
          "type": "bytes32"
        },
        {
          "indexed": true,
          "internalType": "address",
          "name": "account",
          "type": "address"
        },
        {
          "indexed": true,
          "internalType": "address",
          "name": "sender",
          "type": "address"
        }
      ],
      "name": "RoleRevoked",
      "type": "event"
    },
    {
      "anonymous": false,
      "inputs": [
        {
          "indexed": true,
          "internalType": "address",
          "name": "operator",
          "type": "address"
        },
        {
          "indexed": true,
          "internalType": "address",
          "name": "from",
          "type": "address"
        },
        {
          "indexed": true,
          "internalType": "address",
          "name": "to",
          "type": "address"
        },
        {
          "indexed": false,
          "internalType": "uint256[]",
          "name": "ids",
          "type": "uint256[]"
        },
        {
          "indexed": false,
          "internalType": "uint256[]",
          "name": "values",
          "type": "uint256[]"
        }
      ],
      "name": "TransferBatch",
      "type": "event"
    },
    {
      "anonymous": false,
      "inputs": [
        {
          "indexed": true,
          "internalType": "address",
          "name": "operator",
          "type": "address"
        },
        {
          "indexed": true,
          "internalType": "address",
          "name": "from",
          "type": "address"
        },
        {
          "indexed": true,
          "internalType": "address",
          "name": "to",
          "type": "address"
        },
        {
          "indexed": false,
          "internalType": "uint256",
          "name": "id",
          "type": "uint256"
        },
        {
          "indexed": false,
          "internalType": "uint256",
          "name": "value",
          "type": "uint256"
        }
      ],
      "name": "TransferSingle",
      "type": "event"
    },
    {
      "anonymous": false,
      "inputs": [
        {
          "indexed": false,
          "internalType": "string",
          "name": "value",
          "type": "string"
        },
        {
          "indexed": true,
          "internalType": "uint256",
          "name": "id",
          "type": "uint256"
        }
      ],
      "name": "URI",
      "type": "event"
    },
    {
      "inputs": [],
      "name": "ADMIN_ROLE",
      "outputs": [
        {
          "internalType": "bytes32",
          "name": "",
          "type": "bytes32"
        }
      ],
      "stateMutability": "view",
      "type": "function"
    },
    {
      "inputs": [],
      "name": "DEFAULT_ADMIN_ROLE",
      "outputs": [
        {
          "internalType": "bytes32",
          "name": "",
          "type": "bytes32"
        }
      ],
      "stateMutability": "view",
      "type": "function"
    },
    {
      "inputs": [],
      "name": "MINTER_ROLE",
      "outputs": [
        {
          "internalType": "bytes32",
          "name": "",
          "type": "bytes32"
        }
      ],
      "stateMutability": "view",
      "type": "function"
    },
    {
      "inputs": [],
      "name": "_contractURI",
      "outputs": [
        {
          "internalType": "string",
          "name": "",
          "type": "string"
        }
      ],
      "stateMutability": "view",
      "type": "function"
    },
    {
      "inputs": [
        {
          "internalType": "address",
          "name": "account",
          "type": "address"
        },
        {
          "internalType": "uint256",
          "name": "id",
          "type": "uint256"
        }
      ],
      "name": "balanceOf",
      "outputs": [
        {
          "internalType": "uint256",
          "name": "",
          "type": "uint256"
        }
      ],
      "stateMutability": "view",
      "type": "function"
    },
    {
      "inputs": [
        {
          "internalType": "address[]",
          "name": "accounts",
          "type": "address[]"
        },
        {
          "internalType": "uint256[]",
          "name": "ids",
          "type": "uint256[]"
        }
      ],
      "name": "balanceOfBatch",
      "outputs": [
        {
          "internalType": "uint256[]",
          "name": "",
          "type": "uint256[]"
        }
      ],
      "stateMutability": "view",
      "type": "function"
    },
    {
      "inputs": [
        {
          "internalType": "uint256",
          "name": "tokenID",
          "type": "uint256"
        },
        {
          "internalType": "address",
          "name": "newMinter",
          "type": "address"
        }
      ],
      "name": "changeMinter",
      "outputs": [
        {
          "internalType": "bool",
          "name": "",
          "type": "bool"
        }
      ],
      "stateMutability": "nonpayable",
      "type": "function"
    },
    {
      "inputs": [],
      "name": "contractURI",
      "outputs": [
        {
          "internalType": "string",
          "name": "",
          "type": "string"
        }
      ],
      "stateMutability": "view",
      "type": "function"
    },
    {
      "inputs": [
        {
          "internalType": "bytes32",
          "name": "role",
          "type": "bytes32"
        }
      ],
      "name": "getRoleAdmin",
      "outputs": [
        {
          "internalType": "bytes32",
          "name": "",
          "type": "bytes32"
        }
      ],
      "stateMutability": "view",
      "type": "function"
    },
    {
      "inputs": [
        {
          "internalType": "bytes32",
          "name": "role",
          "type": "bytes32"
        },
        {
          "internalType": "address",
          "name": "account",
          "type": "address"
        }
      ],
      "name": "grantRole",
      "outputs": [],
      "stateMutability": "nonpayable",
      "type": "function"
    },
    {
      "inputs": [
        {
          "internalType": "bytes32",
          "name": "role",
          "type": "bytes32"
        },
        {
          "internalType": "address",
          "name": "account",
          "type": "address"
        }
      ],
      "name": "hasRole",
      "outputs": [
        {
          "internalType": "bool",
          "name": "",
          "type": "bool"
        }
      ],
      "stateMutability": "view",
      "type": "function"
    },
    {
      "inputs": [
        {
          "internalType": "address",
          "name": "account",
          "type": "address"
        },
        {
          "internalType": "address",
          "name": "operator",
          "type": "address"
        }
      ],
      "name": "isApprovedForAll",
      "outputs": [
        {
          "internalType": "bool",
          "name": "",
          "type": "bool"
        }
      ],
      "stateMutability": "view",
      "type": "function"
    },
    {
      "inputs": [
        {
          "internalType": "uint256",
          "name": "",
          "type": "uint256"
        }
      ],
      "name": "metadata",
      "outputs": [
        {
          "internalType": "string",
          "name": "name",
          "type": "string"
        },
        {
          "internalType": "string",
          "name": "description",
          "type": "string"
        },
        {
          "internalType": "string",
          "name": "image",
          "type": "string"
        },
        {
          "internalType": "string",
          "name": "animationUrl",
          "type": "string"
        },
        {
          "internalType": "string",
          "name": "youtubeUrl",
          "type": "string"
        },
        {
          "internalType": "address",
          "name": "minter",
          "type": "address"
        }
      ],
      "stateMutability": "view",
      "type": "function"
    },
    {
      "inputs": [
        {
          "internalType": "address",
          "name": "to",
          "type": "address"
        },
        {
          "internalType": "uint256",
          "name": "tokenID",
          "type": "uint256"
        },
        {
          "internalType": "uint256",
          "name": "amount",
          "type": "uint256"
        }
      ],
      "name": "mint",
      "outputs": [
        {
          "internalType": "bool",
          "name": "",
          "type": "bool"
        }
      ],
      "stateMutability": "nonpayable",
      "type": "function"
    },
    {
      "inputs": [],
      "name": "owner",
      "outputs": [
        {
          "internalType": "address",
          "name": "",
          "type": "address"
        }
      ],
      "stateMutability": "view",
      "type": "function"
    },
    {
      "inputs": [],
      "name": "renounceOwnership",
      "outputs": [],
      "stateMutability": "nonpayable",
      "type": "function"
    },
    {
      "inputs": [
        {
          "internalType": "bytes32",
          "name": "role",
          "type": "bytes32"
        },
        {
          "internalType": "address",
          "name": "account",
          "type": "address"
        }
      ],
      "name": "renounceRole",
      "outputs": [],
      "stateMutability": "nonpayable",
      "type": "function"
    },
    {
      "inputs": [
        {
          "internalType": "bytes32",
          "name": "role",
          "type": "bytes32"
        },
        {
          "internalType": "address",
          "name": "account",
          "type": "address"
        }
      ],
      "name": "revokeRole",
      "outputs": [],
      "stateMutability": "nonpayable",
      "type": "function"
    },
    {
      "inputs": [
        {
          "internalType": "address",
          "name": "from",
          "type": "address"
        },
        {
          "internalType": "address",
          "name": "to",
          "type": "address"
        },
        {
          "internalType": "uint256[]",
          "name": "ids",
          "type": "uint256[]"
        },
        {
          "internalType": "uint256[]",
          "name": "amounts",
          "type": "uint256[]"
        },
        {
          "internalType": "bytes",
          "name": "data",
          "type": "bytes"
        }
      ],
      "name": "safeBatchTransferFrom",
      "outputs": [],
      "stateMutability": "nonpayable",
      "type": "function"
    },
    {
      "inputs": [
        {
          "internalType": "address",
          "name": "from",
          "type": "address"
        },
        {
          "internalType": "address",
          "name": "to",
          "type": "address"
        },
        {
          "internalType": "uint256",
          "name": "id",
          "type": "uint256"
        },
        {
          "internalType": "uint256",
          "name": "amount",
          "type": "uint256"
        },
        {
          "internalType": "bytes",
          "name": "data",
          "type": "bytes"
        }
      ],
      "name": "safeTransferFrom",
      "outputs": [],
      "stateMutability": "nonpayable",
      "type": "function"
    },
    {
      "inputs": [
        {
          "internalType": "address",
          "name": "operator",
          "type": "address"
        },
        {
          "internalType": "bool",
          "name": "approved",
          "type": "bool"
        }
      ],
      "name": "setApprovalForAll",
      "outputs": [],
      "stateMutability": "nonpayable",
      "type": "function"
    },
    {
      "inputs": [
        {
          "internalType": "string",
          "name": "newContractURI",
          "type": "string"
        }
      ],
      "name": "setContractURI",
      "outputs": [
        {
          "internalType": "bool",
          "name": "",
          "type": "bool"
        }
      ],
      "stateMutability": "nonpayable",
      "type": "function"
    },
    {
      "inputs": [
        {
          "internalType": "address",
          "name": "newContract",
          "type": "address"
        }
      ],
      "name": "setMetadataPrinter",
      "outputs": [
        {
          "internalType": "bool",
          "name": "",
          "type": "bool"
        }
      ],
      "stateMutability": "nonpayable",
      "type": "function"
    },
    {
      "inputs": [
        {
          "components": [
            {
              "internalType": "string",
              "name": "name",
              "type": "string"
            },
            {
              "internalType": "string",
              "name": "description",
              "type": "string"
            },
            {
              "internalType": "string",
              "name": "image",
              "type": "string"
            },
            {
              "internalType": "string",
              "name": "animationUrl",
              "type": "string"
            },
            {
              "internalType": "string",
              "name": "youtubeUrl",
              "type": "string"
            },
            {
              "internalType": "address",
              "name": "minter",
              "type": "address"
            }
          ],
          "internalType": "struct BadgeOfAssembly.BadgeMetadata",
          "name": "_metadata",
          "type": "tuple"
        },
        {
          "internalType": "uint256",
          "name": "initialSupply",
          "type": "uint256"
        }
      ],
      "name": "setup",
      "outputs": [
        {
          "internalType": "uint256",
          "name": "",
          "type": "uint256"
        }
      ],
      "stateMutability": "nonpayable",
      "type": "function"
    },
    {
      "inputs": [
        {
          "internalType": "bytes4",
          "name": "interfaceId",
          "type": "bytes4"
        }
      ],
      "name": "supportsInterface",
      "outputs": [
        {
          "internalType": "bool",
          "name": "",
          "type": "bool"
        }
      ],
      "stateMutability": "view",
      "type": "function"
    },
    {
      "inputs": [
        {
          "internalType": "address",
          "name": "newOwner",
          "type": "address"
        }
      ],
      "name": "transferOwnership",
      "outputs": [],
      "stateMutability": "nonpayable",
      "type": "function"
    },
    {
      "inputs": [
        {
          "internalType": "uint256",
          "name": "tokenID",
          "type": "uint256"
        }
      ],
      "name": "uri",
      "outputs": [
        {
          "internalType": "string",
          "name": "",
          "type": "string"
        }
      ],
      "stateMutability": "view",
      "type": "function"
    },
    {
      "inputs": [
        {
          "internalType": "address",
          "name": "userId",
          "type": "address"
        }
      ],
      "name": "userTokens",
      "outputs": [
        {
          "internalType": "uint256[]",
          "name": "",
          "type": "uint256[]"
        }
      ],
      "stateMutability": "view",
      "type": "function"
    }
  ],
  "transactionHash": "0x85fe3ff55b4872fb16b19abc44b8cd2dac7bd82af310bc835f6ff497f6027ac2",
  "args": [
    "0x8107B797f35494C485BaB8e62F3bf397B0153B37"
  ],
  "numDeployments": 4,
  "solcInputHash": "f551fdb40695c319a26374805d4db379",
  "bytecode": "0x60e0604052602d60808181529062002de860a0398051620000299160059160209091019062000221565b503480156200003757600080fd5b5060405162002e1538038062002e158339810160408190526200005a91620002c7565b604080516020810190915260008152620000748162000109565b50620000803362000122565b620000ac7f9f2df0fed2c77648de5860a4cc508cd0818c85b8b8a1ab4ceeef8d981c8956a63362000174565b620000d87fa49807205ce4d355092ef5a8a18f56e8913cf4a201fbe287825b095693c217753362000174565b620000e33362000122565b600680546001600160a01b0319166001600160a01b039290921691909117905562000335565b80516200011e90600290602084019062000221565b5050565b600480546001600160a01b038381166001600160a01b0319831681179093556040519116919082907f8be0079c531659141344cd1fd0a4f28419497f9722a3daafe3b4186f6b6457e090600090a35050565b60008281526003602090815260408083206001600160a01b03851684529091529020546200011e908390839060ff166200011e5760008281526003602090815260408083206001600160a01b03851684529091529020805460ff19166001179055620001dd3390565b6001600160a01b0316816001600160a01b0316837f2f8788117e7eff1d82e926ec794901d17c78024a50270940304540a733656f0d60405160405180910390a45050565b8280546200022f90620002f9565b90600052602060002090601f0160209004810192826200025357600085556200029e565b82601f106200026e57805160ff19168380011785556200029e565b828001600101855582156200029e579182015b828111156200029e57825182559160200191906001019062000281565b50620002ac929150620002b0565b5090565b5b80821115620002ac5760008155600101620002b1565b600060208284031215620002da57600080fd5b81516001600160a01b0381168114620002f257600080fd5b9392505050565b600181811c908216806200030e57607f821691505b6020821081036200032f57634e487b7160e01b600052602260045260246000fd5b50919050565b612aa380620003456000396000f3fe608060405234801561001057600080fd5b50600436106101c35760003560e01c806391d14854116100f9578063e3684e3911610097578063e985e9c511610071578063e985e9c5146103f5578063ed498fa814610431578063f242432a14610444578063f2fde38b1461045757600080fd5b8063e3684e39146103b5578063e4e298a4146103da578063e8a3d485146103ed57600080fd5b8063a22cb465116100d3578063a22cb46514610360578063c0e7274014610373578063d53913931461037b578063d547741f146103a257600080fd5b806391d1485414610332578063938e3d7b14610345578063a217fddf1461035857600080fd5b806336568abe11610166578063715018a611610140578063715018a6146102d557806375b238fc146102dd578063896ae081146103045780638da5cb5b1461031757600080fd5b806336568abe1461028f5780633d7050c2146102a25780634e1273f4146102b557600080fd5b8063156e29f6116101a2578063156e29f614610231578063248a9ca3146102445780632eb2c2d6146102675780632f2ff15d1461027c57600080fd5b8062fdd58e146101c857806301ffc9a7146101ee5780630e89341c14610211575b600080fd5b6101db6101d6366004611cf8565b61046a565b6040519081526020015b60405180910390f35b6102016101fc366004611d3a565b610504565b60405190151581526020016101e5565b61022461021f366004611d57565b61050f565b6040516101e59190611dcc565b61020161023f366004611ddf565b610581565b6101db610252366004611d57565b60009081526003602052604090206001015490565b61027a610275366004611f6d565b61060b565b005b61027a61028a36600461201a565b6106a2565b61027a61029d36600461201a565b6106cc565b6102016102b036600461201a565b61074a565b6102c86102c336600461204a565b6107ab565b6040516101e59190612151565b61027a6108d4565b6101db7fa49807205ce4d355092ef5a8a18f56e8913cf4a201fbe287825b095693c2177581565b6101db610312366004612164565b61093a565b6004546040516001600160a01b0390911681526020016101e5565b61020161034036600461201a565b6109cb565b61020161035336600461219f565b6109f6565b6101db600081565b61027a61036e366004612210565b610a54565b610224610a5f565b6101db7f9f2df0fed2c77648de5860a4cc508cd0818c85b8b8a1ab4ceeef8d981c8956a681565b61027a6103b036600461201a565b610aed565b6103c86103c3366004611d57565b610b12565b6040516101e596959493929190612243565b6102016103e83660046122c0565b610df7565b610224610e65565b6102016104033660046122dd565b6001600160a01b03918216600090815260016020908152604080832093909416825291909152205460ff1690565b6102c861043f3660046122c0565b610ef7565b61027a61045236600461230b565b610f1b565b61027a6104653660046122c0565b610fa2565b60006001600160a01b0383166104db5760405162461bcd60e51b815260206004820152602b60248201527f455243313135353a2062616c616e636520717565727920666f7220746865207a60448201526a65726f206164647265737360a81b60648201526084015b60405180910390fd5b506000818152602081815260408083206001600160a01b03861684529091529020545b92915050565b60006104fe8261106d565b60065460405163e3684e3960e01b8152600481018390526060916001600160a01b03169063e3684e3990602401600060405180830381865afa158015610559573d6000803e3d6000fd5b505050506040513d6000823e601f3d908101601f191682016040526104fe9190810190612373565b600082815260096020526040812060058101546001600160a01b031633146105bb576040516282b42960e81b815260040160405180910390fd5b6105d685858560405180602001604052806000815250611092565b6105ff8460086000335b6001600160a01b031681526020810191909152604001600020906111a6565b50600195945050505050565b6001600160a01b03851633148061062757506106278533610403565b61068e5760405162461bcd60e51b815260206004820152603260248201527f455243313135353a207472616e736665722063616c6c6572206973206e6f74206044820152711bdddb995c881b9bdc88185c1c1c9bdd995960721b60648201526084016104d2565b61069b85858585856111b2565b5050505050565b6000828152600360205260409020600101546106bd8161138f565b6106c78383611399565b505050565b6001600160a01b038116331461073c5760405162461bcd60e51b815260206004820152602f60248201527f416363657373436f6e74726f6c3a2063616e206f6e6c792072656e6f756e636560448201526e103937b632b9903337b91039b2b63360891b60648201526084016104d2565b610746828261141f565b5050565b600082815260096020526040812060058101546001600160a01b03163314610784576040516282b42960e81b815260040160405180910390fd5b60050180546001600160a01b0384166001600160a01b031990911617905550600192915050565b606081518351146108105760405162461bcd60e51b815260206004820152602960248201527f455243313135353a206163636f756e747320616e6420696473206c656e677468604482015268040dad2e6dac2e8c6d60bb1b60648201526084016104d2565b600083516001600160401b0381111561082b5761082b611e14565b604051908082528060200260200182016040528015610854578160200160208202803683370190505b50905060005b84518110156108cc5761089f858281518110610878576108786123f4565b6020026020010151858381518110610892576108926123f4565b602002602001015161046a565b8282815181106108b1576108b16123f4565b60209081029190910101526108c581612420565b905061085a565b509392505050565b6004546001600160a01b0316331461092e5760405162461bcd60e51b815260206004820181905260248201527f4f776e61626c653a2063616c6c6572206973206e6f7420746865206f776e657260448201526064016104d2565b6109386000611486565b565b600061094a600780546001019055565b600061095560075490565b6000818152600960205260409020909150849061097282826125d2565b5050600081815260096020526040902060050180546001600160a01b0319163317905582156109c4576109b633828560405180602001604052806000815250611092565b6108cc8160086000336105e0565b9392505050565b60009182526003602090815260408084206001600160a01b0393909316845291905290205460ff1690565b6000610a227fa49807205ce4d355092ef5a8a18f56e8913cf4a201fbe287825b095693c21775336109cb565b610a3e576040516282b42960e81b815260040160405180910390fd5b610a4a60058484611c4a565b5060019392505050565b6107463383836114d8565b60058054610a6c90612486565b80601f0160208091040260200160405190810160405280929190818152602001828054610a9890612486565b8015610ae55780601f10610aba57610100808354040283529160200191610ae5565b820191906000526020600020905b815481529060010190602001808311610ac857829003601f168201915b505050505081565b600082815260036020526040902060010154610b088161138f565b6106c7838361141f565b600960205260009081526040902080548190610b2d90612486565b80601f0160208091040260200160405190810160405280929190818152602001828054610b5990612486565b8015610ba65780601f10610b7b57610100808354040283529160200191610ba6565b820191906000526020600020905b815481529060010190602001808311610b8957829003601f168201915b505050505090806001018054610bbb90612486565b80601f0160208091040260200160405190810160405280929190818152602001828054610be790612486565b8015610c345780601f10610c0957610100808354040283529160200191610c34565b820191906000526020600020905b815481529060010190602001808311610c1757829003601f168201915b505050505090806002018054610c4990612486565b80601f0160208091040260200160405190810160405280929190818152602001828054610c7590612486565b8015610cc25780601f10610c9757610100808354040283529160200191610cc2565b820191906000526020600020905b815481529060010190602001808311610ca557829003601f168201915b505050505090806003018054610cd790612486565b80601f0160208091040260200160405190810160405280929190818152602001828054610d0390612486565b8015610d505780601f10610d2557610100808354040283529160200191610d50565b820191906000526020600020905b815481529060010190602001808311610d3357829003601f168201915b505050505090806004018054610d6590612486565b80601f0160208091040260200160405190810160405280929190818152602001828054610d9190612486565b8015610dde5780601f10610db357610100808354040283529160200191610dde565b820191906000526020600020905b815481529060010190602001808311610dc157829003601f168201915b505050600590930154919250506001600160a01b031686565b6000610e237fa49807205ce4d355092ef5a8a18f56e8913cf4a201fbe287825b095693c21775336109cb565b610e3f576040516282b42960e81b815260040160405180910390fd5b50600680546001600160a01b0319166001600160a01b0392909216919091179055600190565b606060058054610e7490612486565b80601f0160208091040260200160405190810160405280929190818152602001828054610ea090612486565b8015610eed5780601f10610ec257610100808354040283529160200191610eed565b820191906000526020600020905b815481529060010190602001808311610ed057829003601f168201915b5050505050905090565b6001600160a01b03811660009081526008602052604090206060906104fe906115b8565b6001600160a01b038516331480610f375750610f378533610403565b610f955760405162461bcd60e51b815260206004820152602960248201527f455243313135353a2063616c6c6572206973206e6f74206f776e6572206e6f7260448201526808185c1c1c9bdd995960ba1b60648201526084016104d2565b61069b85858585856115c5565b6004546001600160a01b03163314610ffc5760405162461bcd60e51b815260206004820181905260248201527f4f776e61626c653a2063616c6c6572206973206e6f7420746865206f776e657260448201526064016104d2565b6001600160a01b0381166110615760405162461bcd60e51b815260206004820152602660248201527f4f776e61626c653a206e6577206f776e657220697320746865207a65726f206160448201526564647265737360d01b60648201526084016104d2565b61106a81611486565b50565b60006001600160e01b03198216637965db0b60e01b14806104fe57506104fe826116ef565b6001600160a01b0384166110f25760405162461bcd60e51b815260206004820152602160248201527f455243313135353a206d696e7420746f20746865207a65726f206164647265736044820152607360f81b60648201526084016104d2565b3360006110fe8561173f565b9050600061110b8561173f565b90506000868152602081815260408083206001600160a01b038b1684529091528120805487929061113d908490612740565b909155505060408051878152602081018790526001600160a01b03808a1692600092918716917fc3d58168c5ae7397731d063d5bbf3d657854427343f4c083240f7aacaa2d0f62910160405180910390a461119d8360008989898961178a565b50505050505050565b60006109c483836118e5565b81518351146112145760405162461bcd60e51b815260206004820152602860248201527f455243313135353a2069647320616e6420616d6f756e7473206c656e677468206044820152670dad2e6dac2e8c6d60c31b60648201526084016104d2565b6001600160a01b03841661123a5760405162461bcd60e51b81526004016104d290612758565b3360005b845181101561132157600085828151811061125b5761125b6123f4565b602002602001015190506000858381518110611279576112796123f4565b602090810291909101810151600084815280835260408082206001600160a01b038e1683529093529190912054909150818110156112c95760405162461bcd60e51b81526004016104d29061279d565b6000838152602081815260408083206001600160a01b038e8116855292528083208585039055908b16825281208054849290611306908490612740565b925050819055505050508061131a90612420565b905061123e565b50846001600160a01b0316866001600160a01b0316826001600160a01b03167f4a39dc06d4c0dbc64b70af90fd698a233a518aa5d07e595d983b8c0526c8f7fb87876040516113719291906127e7565b60405180910390a4611387818787878787611934565b505050505050565b61106a81336119ef565b6113a382826109cb565b6107465760008281526003602090815260408083206001600160a01b03851684529091529020805460ff191660011790556113db3390565b6001600160a01b0316816001600160a01b0316837f2f8788117e7eff1d82e926ec794901d17c78024a50270940304540a733656f0d60405160405180910390a45050565b61142982826109cb565b156107465760008281526003602090815260408083206001600160a01b0385168085529252808320805460ff1916905551339285917ff6391f5c32d9c69d2a47ea670b442974b53935d1edc7fd64eb21e047a839171b9190a45050565b600480546001600160a01b038381166001600160a01b0319831681179093556040519116919082907f8be0079c531659141344cd1fd0a4f28419497f9722a3daafe3b4186f6b6457e090600090a35050565b816001600160a01b0316836001600160a01b03160361154b5760405162461bcd60e51b815260206004820152602960248201527f455243313135353a2073657474696e6720617070726f76616c20737461747573604482015268103337b91039b2b63360b91b60648201526084016104d2565b6001600160a01b03838116600081815260016020908152604080832094871680845294825291829020805460ff191686151590811790915591519182527f17307eab39ab6107e8899845ad3d59bd9653f200f220920489ca2b5937696c31910160405180910390a3505050565b606060006109c483611a53565b6001600160a01b0384166115eb5760405162461bcd60e51b81526004016104d290612758565b3360006115f78561173f565b905060006116048561173f565b90506000868152602081815260408083206001600160a01b038c168452909152902054858110156116475760405162461bcd60e51b81526004016104d29061279d565b6000878152602081815260408083206001600160a01b038d8116855292528083208985039055908a16825281208054889290611684908490612740565b909155505060408051888152602081018890526001600160a01b03808b16928c821692918816917fc3d58168c5ae7397731d063d5bbf3d657854427343f4c083240f7aacaa2d0f62910160405180910390a46116e4848a8a8a8a8a61178a565b505050505050505050565b60006001600160e01b03198216636cdb3d1360e11b148061172057506001600160e01b031982166303a24d0760e21b145b806104fe57506301ffc9a760e01b6001600160e01b03198316146104fe565b60408051600180825281830190925260609160009190602080830190803683370190505090508281600081518110611779576117796123f4565b602090810291909101015292915050565b6001600160a01b0384163b156113875760405163f23a6e6160e01b81526001600160a01b0385169063f23a6e61906117ce9089908990889088908890600401612815565b6020604051808303816000875af1925050508015611809575060408051601f3d908101601f191682019092526118069181019061285a565b60015b6118b557611815612877565b806308c379a00361184e5750611829612893565b806118345750611850565b8060405162461bcd60e51b81526004016104d29190611dcc565b505b60405162461bcd60e51b815260206004820152603460248201527f455243313135353a207472616e7366657220746f206e6f6e20455243313135356044820152732932b1b2b4bb32b91034b6b83632b6b2b73a32b960611b60648201526084016104d2565b6001600160e01b0319811663f23a6e6160e01b1461119d5760405162461bcd60e51b81526004016104d29061291c565b600081815260018301602052604081205461192c575081546001818101845560008481526020808220909301849055845484825282860190935260409020919091556104fe565b5060006104fe565b6001600160a01b0384163b156113875760405163bc197c8160e01b81526001600160a01b0385169063bc197c81906119789089908990889088908890600401612964565b6020604051808303816000875af19250505080156119b3575060408051601f3d908101601f191682019092526119b09181019061285a565b60015b6119bf57611815612877565b6001600160e01b0319811663bc197c8160e01b1461119d5760405162461bcd60e51b81526004016104d29061291c565b6119f982826109cb565b61074657611a11816001600160a01b03166014611aaf565b611a1c836020611aaf565b604051602001611a2d9291906129c2565b60408051601f198184030181529082905262461bcd60e51b82526104d291600401611dcc565b606081600001805480602002602001604051908101604052809291908181526020018280548015611aa357602002820191906000526020600020905b815481526020019060010190808311611a8f575b50505050509050919050565b60606000611abe836002612a37565b611ac9906002612740565b6001600160401b03811115611ae057611ae0611e14565b6040519080825280601f01601f191660200182016040528015611b0a576020820181803683370190505b509050600360fc1b81600081518110611b2557611b256123f4565b60200101906001600160f81b031916908160001a905350600f60fb1b81600181518110611b5457611b546123f4565b60200101906001600160f81b031916908160001a9053506000611b78846002612a37565b611b83906001612740565b90505b6001811115611bfb576f181899199a1a9b1b9c1cb0b131b232b360811b85600f1660108110611bb757611bb76123f4565b1a60f81b828281518110611bcd57611bcd6123f4565b60200101906001600160f81b031916908160001a90535060049490941c93611bf481612a56565b9050611b86565b5083156109c45760405162461bcd60e51b815260206004820181905260248201527f537472696e67733a20686578206c656e67746820696e73756666696369656e7460448201526064016104d2565b828054611c5690612486565b90600052602060002090601f016020900481019282611c785760008555611cbe565b82601f10611c915782800160ff19823516178555611cbe565b82800160010185558215611cbe579182015b82811115611cbe578235825591602001919060010190611ca3565b50611cca929150611cce565b5090565b5b80821115611cca5760008155600101611ccf565b6001600160a01b038116811461106a57600080fd5b60008060408385031215611d0b57600080fd5b8235611d1681611ce3565b946020939093013593505050565b6001600160e01b03198116811461106a57600080fd5b600060208284031215611d4c57600080fd5b81356109c481611d24565b600060208284031215611d6957600080fd5b5035919050565b60005b83811015611d8b578181015183820152602001611d73565b83811115611d9a576000848401525b50505050565b60008151808452611db8816020860160208601611d70565b601f01601f19169290920160200192915050565b6020815260006109c46020830184611da0565b600080600060608486031215611df457600080fd5b8335611dff81611ce3565b95602085013595506040909401359392505050565b634e487b7160e01b600052604160045260246000fd5b601f8201601f191681016001600160401b0381118282101715611e4f57611e4f611e14565b6040525050565b60006001600160401b03821115611e6f57611e6f611e14565b5060051b60200190565b600082601f830112611e8a57600080fd5b81356020611e9782611e56565b604051611ea48282611e2a565b83815260059390931b8501820192828101915086841115611ec457600080fd5b8286015b84811015611edf5780358352918301918301611ec8565b509695505050505050565b60006001600160401b03821115611f0357611f03611e14565b50601f01601f191660200190565b600082601f830112611f2257600080fd5b8135611f2d81611eea565b604051611f3a8282611e2a565b828152856020848701011115611f4f57600080fd5b82602086016020830137600092810160200192909252509392505050565b600080600080600060a08688031215611f8557600080fd5b8535611f9081611ce3565b94506020860135611fa081611ce3565b935060408601356001600160401b0380821115611fbc57600080fd5b611fc889838a01611e79565b94506060880135915080821115611fde57600080fd5b611fea89838a01611e79565b9350608088013591508082111561200057600080fd5b5061200d88828901611f11565b9150509295509295909350565b6000806040838503121561202d57600080fd5b82359150602083013561203f81611ce3565b809150509250929050565b6000806040838503121561205d57600080fd5b82356001600160401b038082111561207457600080fd5b818501915085601f83011261208857600080fd5b8135602061209582611e56565b6040516120a28282611e2a565b83815260059390931b85018201928281019150898411156120c257600080fd5b948201945b838610156120e95785356120da81611ce3565b825294820194908201906120c7565b965050860135925050808211156120ff57600080fd5b5061210c85828601611e79565b9150509250929050565b600081518084526020808501945080840160005b838110156121465781518752958201959082019060010161212a565b509495945050505050565b6020815260006109c46020830184612116565b6000806040838503121561217757600080fd5b82356001600160401b0381111561218d57600080fd5b830160c08186031215611d1657600080fd5b600080602083850312156121b257600080fd5b82356001600160401b03808211156121c957600080fd5b818501915085601f8301126121dd57600080fd5b8135818111156121ec57600080fd5b8660208285010111156121fe57600080fd5b60209290920196919550909350505050565b6000806040838503121561222357600080fd5b823561222e81611ce3565b91506020830135801515811461203f57600080fd5b60c08152600061225660c0830189611da0565b82810360208401526122688189611da0565b9050828103604084015261227c8188611da0565b905082810360608401526122908187611da0565b905082810360808401526122a48186611da0565b91505060018060a01b03831660a0830152979650505050505050565b6000602082840312156122d257600080fd5b81356109c481611ce3565b600080604083850312156122f057600080fd5b82356122fb81611ce3565b9150602083013561203f81611ce3565b600080600080600060a0868803121561232357600080fd5b853561232e81611ce3565b9450602086013561233e81611ce3565b9350604086013592506060860135915060808601356001600160401b0381111561236757600080fd5b61200d88828901611f11565b60006020828403121561238557600080fd5b81516001600160401b0381111561239b57600080fd5b8201601f810184136123ac57600080fd5b80516123b781611eea565b6040516123c48282611e2a565b8281528660208486010111156123d957600080fd5b6123ea836020830160208701611d70565b9695505050505050565b634e487b7160e01b600052603260045260246000fd5b634e487b7160e01b600052601160045260246000fd5b6000600182016124325761243261240a565b5060010190565b6000808335601e1984360301811261245057600080fd5b8301803591506001600160401b0382111561246a57600080fd5b60200191503681900382131561247f57600080fd5b9250929050565b600181811c9082168061249a57607f821691505b6020821081036124ba57634e487b7160e01b600052602260045260246000fd5b50919050565b601f8211156106c757600081815260208120601f850160051c810160208610156124e75750805b601f850160051c820191505b81811015611387578281556001016124f3565b6001600160401b0383111561251d5761251d611e14565b6125318361252b8354612486565b836124c0565b6000601f841160018114612565576000851561254d5750838201355b600019600387901b1c1916600186901b17835561069b565b600083815260209020601f19861690835b828110156125965786850135825560209485019460019092019101612576565b50868210156125b35760001960f88860031b161c19848701351681555b505060018560011b0183555050505050565b600081356104fe81611ce3565b6125dc8283612439565b6001600160401b038111156125f3576125f3611e14565b612607816126018554612486565b856124c0565b6000601f82116001811461263b57600083156126235750838201355b600019600385901b1c1916600184901b178555612695565b600085815260209020601f19841690835b8281101561266c578685013582556020948501946001909201910161264c565b50848210156126895760001960f88660031b161c19848701351681555b505060018360011b0185555b505050506126a66020830183612439565b6126b4818360018601612506565b50506126c36040830183612439565b6126d1818360028601612506565b50506126e06060830183612439565b6126ee818360038601612506565b50506126fd6080830183612439565b61270b818360048601612506565b505061074661271c60a084016125c5565b6005830180546001600160a01b0319166001600160a01b0392909216919091179055565b600082198211156127535761275361240a565b500190565b60208082526025908201527f455243313135353a207472616e7366657220746f20746865207a65726f206164604082015264647265737360d81b606082015260800190565b6020808252602a908201527f455243313135353a20696e73756666696369656e742062616c616e636520666f60408201526939103a3930b739b332b960b11b606082015260800190565b6040815260006127fa6040830185612116565b828103602084015261280c8185612116565b95945050505050565b6001600160a01b03868116825285166020820152604081018490526060810183905260a06080820181905260009061284f90830184611da0565b979650505050505050565b60006020828403121561286c57600080fd5b81516109c481611d24565b600060033d11156128905760046000803e5060005160e01c5b90565b600060443d10156128a15790565b6040516003193d81016004833e81513d6001600160401b0381602484011181841117156128d057505050505090565b82850191508151818111156128e85750505050505090565b843d87010160208285010111156129025750505050505090565b61291160208286010187611e2a565b509095945050505050565b60208082526028908201527f455243313135353a204552433131353552656365697665722072656a656374656040820152676420746f6b656e7360c01b606082015260800190565b6001600160a01b0386811682528516602082015260a06040820181905260009061299090830186612116565b82810360608401526129a28186612116565b905082810360808401526129b68185611da0565b98975050505050505050565b7f416363657373436f6e74726f6c3a206163636f756e74200000000000000000008152600083516129fa816017850160208801611d70565b7001034b99036b4b9b9b4b733903937b6329607d1b6017918401918201528351612a2b816028840160208801611d70565b01602801949350505050565b6000816000190483118215151615612a5157612a5161240a565b500290565b600081612a6557612a6561240a565b50600019019056fea2646970667358221220a7755193042edec767231c37224e5247b9dfe9655ba9b779cc8504afba65036c64736f6c634300080e003368747470733a2f2f62616467652d6f662d617373656d626c792e6e65746c6966792e6170702f6170692f626f61",
  "devdoc": {
    "kind": "dev",
    "methods": {
      "balanceOf(address,uint256)": {
        "details": "See {IERC1155-balanceOf}. Requirements: - `account` cannot be the zero address."
      },
      "balanceOfBatch(address[],uint256[])": {
        "details": "See {IERC1155-balanceOfBatch}. Requirements: - `accounts` and `ids` must have the same length."
      },
      "getRoleAdmin(bytes32)": {
        "details": "Returns the admin role that controls `role`. See {grantRole} and {revokeRole}. To change a role's admin, use {_setRoleAdmin}."
      },
      "grantRole(bytes32,address)": {
        "details": "Grants `role` to `account`. If `account` had not been already granted `role`, emits a {RoleGranted} event. Requirements: - the caller must have ``role``'s admin role."
      },
      "hasRole(bytes32,address)": {
        "details": "Returns `true` if `account` has been granted `role`."
      },
      "isApprovedForAll(address,address)": {
        "details": "See {IERC1155-isApprovedForAll}."
      },
      "owner()": {
        "details": "Returns the address of the current owner."
      },
      "renounceOwnership()": {
        "details": "Leaves the contract without owner. It will not be possible to call `onlyOwner` functions anymore. Can only be called by the current owner. NOTE: Renouncing ownership will leave the contract without an owner, thereby removing any functionality that is only available to the owner."
      },
      "renounceRole(bytes32,address)": {
        "details": "Revokes `role` from the calling account. Roles are often managed via {grantRole} and {revokeRole}: this function's purpose is to provide a mechanism for accounts to lose their privileges if they are compromised (such as when a trusted device is misplaced). If the calling account had been revoked `role`, emits a {RoleRevoked} event. Requirements: - the caller must be `account`."
      },
      "revokeRole(bytes32,address)": {
        "details": "Revokes `role` from `account`. If `account` had been granted `role`, emits a {RoleRevoked} event. Requirements: - the caller must have ``role``'s admin role."
      },
      "safeBatchTransferFrom(address,address,uint256[],uint256[],bytes)": {
        "details": "See {IERC1155-safeBatchTransferFrom}."
      },
      "safeTransferFrom(address,address,uint256,uint256,bytes)": {
        "details": "See {IERC1155-safeTransferFrom}."
      },
      "setApprovalForAll(address,bool)": {
        "details": "See {IERC1155-setApprovalForAll}."
      },
      "supportsInterface(bytes4)": {
        "details": "See {IERC165-supportsInterface}."
      },
      "transferOwnership(address)": {
        "details": "Transfers ownership of the contract to a new account (`newOwner`). Can only be called by the current owner."
      }
    },
    "version": 1
  },
  "userdoc": {
    "kind": "user",
    "methods": {},
    "version": 1
  },
  "storageLayout": {
    "storage": [
      {
        "astId": 523,
        "contract": "contracts/BadgeOfAssembly.sol:BadgeOfAssembly",
        "label": "_balances",
        "offset": 0,
        "slot": "0",
        "type": "t_mapping(t_uint256,t_mapping(t_address,t_uint256))"
      },
      {
        "astId": 529,
        "contract": "contracts/BadgeOfAssembly.sol:BadgeOfAssembly",
        "label": "_operatorApprovals",
        "offset": 0,
        "slot": "1",
        "type": "t_mapping(t_address,t_mapping(t_address,t_bool))"
      },
      {
        "astId": 531,
        "contract": "contracts/BadgeOfAssembly.sol:BadgeOfAssembly",
        "label": "_uri",
        "offset": 0,
        "slot": "2",
        "type": "t_string_storage"
      },
      {
        "astId": 24,
        "contract": "contracts/BadgeOfAssembly.sol:BadgeOfAssembly",
        "label": "_roles",
        "offset": 0,
        "slot": "3",
        "type": "t_mapping(t_bytes32,t_struct(RoleData)19_storage)"
      },
      {
        "astId": 400,
        "contract": "contracts/BadgeOfAssembly.sol:BadgeOfAssembly",
        "label": "_owner",
        "offset": 0,
        "slot": "4",
        "type": "t_address"
      },
      {
        "astId": 3224,
        "contract": "contracts/BadgeOfAssembly.sol:BadgeOfAssembly",
        "label": "_contractURI",
        "offset": 0,
        "slot": "5",
        "type": "t_string_storage"
      },
      {
        "astId": 3227,
        "contract": "contracts/BadgeOfAssembly.sol:BadgeOfAssembly",
        "label": "_metadataPrinter",
        "offset": 0,
        "slot": "6",
        "type": "t_contract(IMetadataPrinter)3655"
      },
      {
        "astId": 3230,
        "contract": "contracts/BadgeOfAssembly.sol:BadgeOfAssembly",
        "label": "_tokenId",
        "offset": 0,
        "slot": "7",
        "type": "t_struct(Counter)2268_storage"
      },
      {
        "astId": 3235,
        "contract": "contracts/BadgeOfAssembly.sol:BadgeOfAssembly",
        "label": "_userTokens",
        "offset": 0,
        "slot": "8",
        "type": "t_mapping(t_address,t_struct(UintSet)3044_storage)"
      },
      {
        "astId": 3240,
        "contract": "contracts/BadgeOfAssembly.sol:BadgeOfAssembly",
        "label": "metadata",
        "offset": 0,
        "slot": "9",
        "type": "t_mapping(t_uint256,t_struct(BadgeMetadata)3211_storage)"
      }
    ],
    "types": {
      "t_address": {
        "encoding": "inplace",
        "label": "address",
        "numberOfBytes": "20"
      },
      "t_array(t_bytes32)dyn_storage": {
        "base": "t_bytes32",
        "encoding": "dynamic_array",
        "label": "bytes32[]",
        "numberOfBytes": "32"
      },
      "t_bool": {
        "encoding": "inplace",
        "label": "bool",
        "numberOfBytes": "1"
      },
      "t_bytes32": {
        "encoding": "inplace",
        "label": "bytes32",
        "numberOfBytes": "32"
      },
      "t_contract(IMetadataPrinter)3655": {
        "encoding": "inplace",
        "label": "contract IMetadataPrinter",
        "numberOfBytes": "20"
      },
      "t_mapping(t_address,t_bool)": {
        "encoding": "mapping",
        "key": "t_address",
        "label": "mapping(address => bool)",
        "numberOfBytes": "32",
        "value": "t_bool"
      },
      "t_mapping(t_address,t_mapping(t_address,t_bool))": {
        "encoding": "mapping",
        "key": "t_address",
        "label": "mapping(address => mapping(address => bool))",
        "numberOfBytes": "32",
        "value": "t_mapping(t_address,t_bool)"
      },
      "t_mapping(t_address,t_struct(UintSet)3044_storage)": {
        "encoding": "mapping",
        "key": "t_address",
        "label": "mapping(address => struct EnumerableSet.UintSet)",
        "numberOfBytes": "32",
        "value": "t_struct(UintSet)3044_storage"
      },
      "t_mapping(t_address,t_uint256)": {
        "encoding": "mapping",
        "key": "t_address",
        "label": "mapping(address => uint256)",
        "numberOfBytes": "32",
        "value": "t_uint256"
      },
      "t_mapping(t_bytes32,t_struct(RoleData)19_storage)": {
        "encoding": "mapping",
        "key": "t_bytes32",
        "label": "mapping(bytes32 => struct AccessControl.RoleData)",
        "numberOfBytes": "32",
        "value": "t_struct(RoleData)19_storage"
      },
      "t_mapping(t_bytes32,t_uint256)": {
        "encoding": "mapping",
        "key": "t_bytes32",
        "label": "mapping(bytes32 => uint256)",
        "numberOfBytes": "32",
        "value": "t_uint256"
      },
      "t_mapping(t_uint256,t_mapping(t_address,t_uint256))": {
        "encoding": "mapping",
        "key": "t_uint256",
        "label": "mapping(uint256 => mapping(address => uint256))",
        "numberOfBytes": "32",
        "value": "t_mapping(t_address,t_uint256)"
      },
      "t_mapping(t_uint256,t_struct(BadgeMetadata)3211_storage)": {
        "encoding": "mapping",
        "key": "t_uint256",
        "label": "mapping(uint256 => struct BadgeOfAssembly.BadgeMetadata)",
        "numberOfBytes": "32",
        "value": "t_struct(BadgeMetadata)3211_storage"
      },
      "t_string_storage": {
        "encoding": "bytes",
        "label": "string",
        "numberOfBytes": "32"
      },
      "t_struct(BadgeMetadata)3211_storage": {
        "encoding": "inplace",
        "label": "struct BadgeOfAssembly.BadgeMetadata",
        "members": [
          {
            "astId": 3200,
            "contract": "contracts/BadgeOfAssembly.sol:BadgeOfAssembly",
            "label": "name",
            "offset": 0,
            "slot": "0",
            "type": "t_string_storage"
          },
          {
            "astId": 3202,
            "contract": "contracts/BadgeOfAssembly.sol:BadgeOfAssembly",
            "label": "description",
            "offset": 0,
            "slot": "1",
            "type": "t_string_storage"
          },
          {
            "astId": 3204,
            "contract": "contracts/BadgeOfAssembly.sol:BadgeOfAssembly",
            "label": "image",
            "offset": 0,
            "slot": "2",
            "type": "t_string_storage"
          },
          {
            "astId": 3206,
            "contract": "contracts/BadgeOfAssembly.sol:BadgeOfAssembly",
            "label": "animationUrl",
            "offset": 0,
            "slot": "3",
            "type": "t_string_storage"
          },
          {
            "astId": 3208,
            "contract": "contracts/BadgeOfAssembly.sol:BadgeOfAssembly",
            "label": "youtubeUrl",
            "offset": 0,
            "slot": "4",
            "type": "t_string_storage"
          },
          {
            "astId": 3210,
            "contract": "contracts/BadgeOfAssembly.sol:BadgeOfAssembly",
            "label": "minter",
            "offset": 0,
            "slot": "5",
            "type": "t_address"
          }
        ],
        "numberOfBytes": "192"
      },
      "t_struct(Counter)2268_storage": {
        "encoding": "inplace",
        "label": "struct Counters.Counter",
        "members": [
          {
            "astId": 2267,
            "contract": "contracts/BadgeOfAssembly.sol:BadgeOfAssembly",
            "label": "_value",
            "offset": 0,
            "slot": "0",
            "type": "t_uint256"
          }
        ],
        "numberOfBytes": "32"
      },
      "t_struct(RoleData)19_storage": {
        "encoding": "inplace",
        "label": "struct AccessControl.RoleData",
        "members": [
          {
            "astId": 16,
            "contract": "contracts/BadgeOfAssembly.sol:BadgeOfAssembly",
            "label": "members",
            "offset": 0,
            "slot": "0",
            "type": "t_mapping(t_address,t_bool)"
          },
          {
            "astId": 18,
            "contract": "contracts/BadgeOfAssembly.sol:BadgeOfAssembly",
            "label": "adminRole",
            "offset": 0,
            "slot": "1",
            "type": "t_bytes32"
          }
        ],
        "numberOfBytes": "64"
      },
      "t_struct(Set)2586_storage": {
        "encoding": "inplace",
        "label": "struct EnumerableSet.Set",
        "members": [
          {
            "astId": 2581,
            "contract": "contracts/BadgeOfAssembly.sol:BadgeOfAssembly",
            "label": "_values",
            "offset": 0,
            "slot": "0",
            "type": "t_array(t_bytes32)dyn_storage"
          },
          {
            "astId": 2585,
            "contract": "contracts/BadgeOfAssembly.sol:BadgeOfAssembly",
            "label": "_indexes",
            "offset": 0,
            "slot": "1",
            "type": "t_mapping(t_bytes32,t_uint256)"
          }
        ],
        "numberOfBytes": "64"
      },
      "t_struct(UintSet)3044_storage": {
        "encoding": "inplace",
        "label": "struct EnumerableSet.UintSet",
        "members": [
          {
            "astId": 3043,
            "contract": "contracts/BadgeOfAssembly.sol:BadgeOfAssembly",
            "label": "_inner",
            "offset": 0,
            "slot": "0",
            "type": "t_struct(Set)2586_storage"
          }
        ],
        "numberOfBytes": "64"
      },
      "t_uint256": {
        "encoding": "inplace",
        "label": "uint256",
        "numberOfBytes": "32"
      }
    }
  }
}