{
  "address": "0x6693B082c6295a61a3126eD67A40b4311ad56Fb8",
  "abi": [
    {
      "inputs": [
        {
          "internalType": "address",
          "name": "trustedForwarder",
          "type": "address"
        },
        {
          "internalType": "address",
          "name": "initialOwner",
          "type": "address"
        }
      ],
      "stateMutability": "nonpayable",
      "type": "constructor"
    },
    {
      "anonymous": false,
      "inputs": [
        {
          "indexed": true,
          "internalType": "address",
          "name": "account",
          "type": "address"
        },
        {
          "indexed": true,
          "internalType": "address",
          "name": "operator",
          "type": "address"
        },
        {
          "indexed": false,
          "internalType": "bool",
          "name": "approved",
          "type": "bool"
        }
      ],
      "name": "ApprovalForAll",
      "type": "event"
    },
    {
      "anonymous": false,
      "inputs": [
        {
          "indexed": true,
          "internalType": "bytes32",
          "name": "role",
          "type": "bytes32"
        },
        {
          "indexed": true,
          "internalType": "bytes32",
          "name": "previousAdminRole",
          "type": "bytes32"
        },
        {
          "indexed": true,
          "internalType": "bytes32",
          "name": "newAdminRole",
          "type": "bytes32"
        }
      ],
      "name": "RoleAdminChanged",
      "type": "event"
    },
    {
      "anonymous": false,
      "inputs": [
        {
          "indexed": true,
          "internalType": "bytes32",
          "name": "role",
          "type": "bytes32"
        },
        {
          "indexed": true,
          "internalType": "address",
          "name": "account",
          "type": "address"
        },
        {
          "indexed": true,
          "internalType": "address",
          "name": "sender",
          "type": "address"
        }
      ],
      "name": "RoleGranted",
      "type": "event"
    },
    {
      "anonymous": false,
      "inputs": [
        {
          "indexed": true,
          "internalType": "bytes32",
          "name": "role",
          "type": "bytes32"
        },
        {
          "indexed": true,
          "internalType": "address",
          "name": "account",
          "type": "address"
        },
        {
          "indexed": true,
          "internalType": "address",
          "name": "sender",
          "type": "address"
        }
      ],
      "name": "RoleRevoked",
      "type": "event"
    },
    {
      "anonymous": false,
      "inputs": [
        {
          "indexed": true,
          "internalType": "address",
          "name": "operator",
          "type": "address"
        },
        {
          "indexed": true,
          "internalType": "address",
          "name": "from",
          "type": "address"
        },
        {
          "indexed": true,
          "internalType": "address",
          "name": "to",
          "type": "address"
        },
        {
          "indexed": false,
          "internalType": "uint256[]",
          "name": "ids",
          "type": "uint256[]"
        },
        {
          "indexed": false,
          "internalType": "uint256[]",
          "name": "values",
          "type": "uint256[]"
        }
      ],
      "name": "TransferBatch",
      "type": "event"
    },
    {
      "anonymous": false,
      "inputs": [
        {
          "indexed": true,
          "internalType": "address",
          "name": "operator",
          "type": "address"
        },
        {
          "indexed": true,
          "internalType": "address",
          "name": "from",
          "type": "address"
        },
        {
          "indexed": true,
          "internalType": "address",
          "name": "to",
          "type": "address"
        },
        {
          "indexed": false,
          "internalType": "uint256",
          "name": "id",
          "type": "uint256"
        },
        {
          "indexed": false,
          "internalType": "uint256",
          "name": "value",
          "type": "uint256"
        }
      ],
      "name": "TransferSingle",
      "type": "event"
    },
    {
      "anonymous": false,
      "inputs": [
        {
          "indexed": false,
          "internalType": "string",
          "name": "value",
          "type": "string"
        },
        {
          "indexed": true,
          "internalType": "uint256",
          "name": "id",
          "type": "uint256"
        }
      ],
      "name": "URI",
      "type": "event"
    },
    {
      "inputs": [],
      "name": "DEFAULT_ADMIN_ROLE",
      "outputs": [
        {
          "internalType": "bytes32",
          "name": "",
          "type": "bytes32"
        }
      ],
      "stateMutability": "view",
      "type": "function"
    },
    {
      "inputs": [],
      "name": "MINTER_ROLE",
      "outputs": [
        {
          "internalType": "bytes32",
          "name": "",
          "type": "bytes32"
        }
      ],
      "stateMutability": "view",
      "type": "function"
    },
    {
      "inputs": [],
      "name": "URI_SETTER_ROLE",
      "outputs": [
        {
          "internalType": "bytes32",
          "name": "",
          "type": "bytes32"
        }
      ],
      "stateMutability": "view",
      "type": "function"
    },
    {
      "inputs": [
        {
          "internalType": "address",
          "name": "account",
          "type": "address"
        },
        {
          "internalType": "uint256",
          "name": "id",
          "type": "uint256"
        }
      ],
      "name": "balanceOf",
      "outputs": [
        {
          "internalType": "uint256",
          "name": "",
          "type": "uint256"
        }
      ],
      "stateMutability": "view",
      "type": "function"
    },
    {
      "inputs": [
        {
          "internalType": "address[]",
          "name": "accounts",
          "type": "address[]"
        },
        {
          "internalType": "uint256[]",
          "name": "ids",
          "type": "uint256[]"
        }
      ],
      "name": "balanceOfBatch",
      "outputs": [
        {
          "internalType": "uint256[]",
          "name": "",
          "type": "uint256[]"
        }
      ],
      "stateMutability": "view",
      "type": "function"
    },
    {
      "inputs": [],
      "name": "contractURI",
      "outputs": [
        {
          "internalType": "string",
          "name": "",
          "type": "string"
        }
      ],
      "stateMutability": "view",
      "type": "function"
    },
    {
      "inputs": [
        {
          "internalType": "uint256",
          "name": "id",
          "type": "uint256"
        }
      ],
      "name": "exists",
      "outputs": [
        {
          "internalType": "bool",
          "name": "",
          "type": "bool"
        }
      ],
      "stateMutability": "view",
      "type": "function"
    },
    {
      "inputs": [
        {
          "internalType": "bytes32",
          "name": "role",
          "type": "bytes32"
        }
      ],
      "name": "getRoleAdmin",
      "outputs": [
        {
          "internalType": "bytes32",
          "name": "",
          "type": "bytes32"
        }
      ],
      "stateMutability": "view",
      "type": "function"
    },
    {
      "inputs": [
        {
          "internalType": "bytes32",
          "name": "role",
          "type": "bytes32"
        },
        {
          "internalType": "address",
          "name": "account",
          "type": "address"
        }
      ],
      "name": "grantRole",
      "outputs": [],
      "stateMutability": "nonpayable",
      "type": "function"
    },
    {
      "inputs": [
        {
          "internalType": "bytes32",
          "name": "role",
          "type": "bytes32"
        },
        {
          "internalType": "address",
          "name": "account",
          "type": "address"
        }
      ],
      "name": "hasRole",
      "outputs": [
        {
          "internalType": "bool",
          "name": "",
          "type": "bool"
        }
      ],
      "stateMutability": "view",
      "type": "function"
    },
    {
      "inputs": [
        {
          "internalType": "address",
          "name": "account",
          "type": "address"
        },
        {
          "internalType": "address",
          "name": "operator",
          "type": "address"
        }
      ],
      "name": "isApprovedForAll",
      "outputs": [
        {
          "internalType": "bool",
          "name": "",
          "type": "bool"
        }
      ],
      "stateMutability": "view",
      "type": "function"
    },
    {
      "inputs": [
        {
          "internalType": "address",
          "name": "forwarder",
          "type": "address"
        }
      ],
      "name": "isTrustedForwarder",
      "outputs": [
        {
          "internalType": "bool",
          "name": "",
          "type": "bool"
        }
      ],
      "stateMutability": "view",
      "type": "function"
    },
    {
      "inputs": [
        {
          "internalType": "address",
          "name": "account",
          "type": "address"
        },
        {
          "internalType": "uint256",
          "name": "id",
          "type": "uint256"
        },
        {
          "internalType": "uint256",
          "name": "amount",
          "type": "uint256"
        },
        {
          "internalType": "bytes",
          "name": "data",
          "type": "bytes"
        }
      ],
      "name": "mint",
      "outputs": [],
      "stateMutability": "nonpayable",
      "type": "function"
    },
    {
      "inputs": [
        {
          "internalType": "address",
          "name": "to",
          "type": "address"
        },
        {
          "internalType": "uint256[]",
          "name": "ids",
          "type": "uint256[]"
        },
        {
          "internalType": "uint256[]",
          "name": "amounts",
          "type": "uint256[]"
        },
        {
          "internalType": "bytes",
          "name": "data",
          "type": "bytes"
        }
      ],
      "name": "mintBatch",
      "outputs": [],
      "stateMutability": "nonpayable",
      "type": "function"
    },
    {
      "inputs": [
        {
          "internalType": "bytes32",
          "name": "role",
          "type": "bytes32"
        },
        {
          "internalType": "address",
          "name": "account",
          "type": "address"
        }
      ],
      "name": "renounceRole",
      "outputs": [],
      "stateMutability": "nonpayable",
      "type": "function"
    },
    {
      "inputs": [
        {
          "internalType": "bytes32",
          "name": "role",
          "type": "bytes32"
        },
        {
          "internalType": "address",
          "name": "account",
          "type": "address"
        }
      ],
      "name": "revokeRole",
      "outputs": [],
      "stateMutability": "nonpayable",
      "type": "function"
    },
    {
      "inputs": [
        {
          "internalType": "address",
          "name": "from",
          "type": "address"
        },
        {
          "internalType": "address",
          "name": "to",
          "type": "address"
        },
        {
          "internalType": "uint256[]",
          "name": "ids",
          "type": "uint256[]"
        },
        {
          "internalType": "uint256[]",
          "name": "amounts",
          "type": "uint256[]"
        },
        {
          "internalType": "bytes",
          "name": "data",
          "type": "bytes"
        }
      ],
      "name": "safeBatchTransferFrom",
      "outputs": [],
      "stateMutability": "nonpayable",
      "type": "function"
    },
    {
      "inputs": [
        {
          "internalType": "address",
          "name": "from",
          "type": "address"
        },
        {
          "internalType": "address",
          "name": "to",
          "type": "address"
        },
        {
          "internalType": "uint256",
          "name": "id",
          "type": "uint256"
        },
        {
          "internalType": "uint256",
          "name": "amount",
          "type": "uint256"
        },
        {
          "internalType": "bytes",
          "name": "data",
          "type": "bytes"
        }
      ],
      "name": "safeTransferFrom",
      "outputs": [],
      "stateMutability": "nonpayable",
      "type": "function"
    },
    {
      "inputs": [
        {
          "internalType": "address",
          "name": "operator",
          "type": "address"
        },
        {
          "internalType": "bool",
          "name": "approved",
          "type": "bool"
        }
      ],
      "name": "setApprovalForAll",
      "outputs": [],
      "stateMutability": "nonpayable",
      "type": "function"
    },
    {
      "inputs": [
        {
          "internalType": "string",
          "name": "newuri",
          "type": "string"
        }
      ],
      "name": "setContractURI",
      "outputs": [],
      "stateMutability": "nonpayable",
      "type": "function"
    },
    {
      "inputs": [
        {
          "internalType": "string",
          "name": "newuri",
          "type": "string"
        }
      ],
      "name": "setURI",
      "outputs": [],
      "stateMutability": "nonpayable",
      "type": "function"
    },
    {
      "inputs": [
        {
          "internalType": "bytes4",
          "name": "interfaceId",
          "type": "bytes4"
        }
      ],
      "name": "supportsInterface",
      "outputs": [
        {
          "internalType": "bool",
          "name": "",
          "type": "bool"
        }
      ],
      "stateMutability": "view",
      "type": "function"
    },
    {
      "inputs": [
        {
          "internalType": "uint256",
          "name": "id",
          "type": "uint256"
        }
      ],
      "name": "totalSupply",
      "outputs": [
        {
          "internalType": "uint256",
          "name": "",
          "type": "uint256"
        }
      ],
      "stateMutability": "view",
      "type": "function"
    },
    {
      "inputs": [
        {
          "internalType": "uint256",
          "name": "",
          "type": "uint256"
        }
      ],
      "name": "uri",
      "outputs": [
        {
          "internalType": "string",
          "name": "",
          "type": "string"
        }
      ],
      "stateMutability": "view",
      "type": "function"
    }
  ],
  "transactionHash": "0x24f0ca2b492c641cfbd66f42f654156b55e81c5abf00d7b098b9263cfa78704b",
  "args": [
    "0xcF0C20986DBDCFd2BE32318F4aca6BcE970D9E35",
    "0x6DE3D3747D54d0Adc11e5Cf678D4045B0441D332"
  ],
  "numDeployments": 1,
  "solcInputHash": "51d6abb5eca4143e46dda681cbceaf72",
  "bytecode": "0x60a06040523480156200001157600080fd5b506040516200440938038062004409833981810160405281019062000037919062000471565b816040518060400160405280601e81526020017f43727970746f20436f6c6f737365756d3a2047726170686963204c6f726500008152506200007f816200013660201b60201c565b508073ffffffffffffffffffffffffffffffffffffffff1660808173ffffffffffffffffffffffffffffffffffffffff168152505050620000ca6000801b826200015260201b60201c565b620000fc7f7804d923f43a17d325d77e781528e0793b2edd9890ab45fc64efd7b4b427744c826200015260201b60201c565b6200012e7f9f2df0fed2c77648de5860a4cc508cd0818c85b8b8a1ab4ceeef8d981c8956a6826200015260201b60201c565b50506200051d565b80600290805190602001906200014e92919062000357565b5050565b6200016482826200024460201b60201c565b620002405760016003600084815260200190815260200160002060000160008373ffffffffffffffffffffffffffffffffffffffff1673ffffffffffffffffffffffffffffffffffffffff16815260200190815260200160002060006101000a81548160ff021916908315150217905550620001e5620002af60201b60201c565b73ffffffffffffffffffffffffffffffffffffffff168173ffffffffffffffffffffffffffffffffffffffff16837f2f8788117e7eff1d82e926ec794901d17c78024a50270940304540a733656f0d60405160405180910390a45b5050565b60006003600084815260200190815260200160002060000160008373ffffffffffffffffffffffffffffffffffffffff1673ffffffffffffffffffffffffffffffffffffffff16815260200190815260200160002060009054906101000a900460ff16905092915050565b6000620002c6620002cb60201b62000cf01760201c565b905090565b6000620002de336200031560201b60201c565b15620002f457601436033560601c905062000311565b620003096200034f60201b62000d221760201c565b905062000312565b5b90565b600060805173ffffffffffffffffffffffffffffffffffffffff168273ffffffffffffffffffffffffffffffffffffffff16149050919050565b600033905090565b8280546200036590620004e7565b90600052602060002090601f016020900481019282620003895760008555620003d5565b82601f10620003a457805160ff1916838001178555620003d5565b82800160010185558215620003d5579182015b82811115620003d4578251825591602001919060010190620003b7565b5b509050620003e49190620003e8565b5090565b5b8082111562000403576000816000905550600101620003e9565b5090565b600080fd5b600073ffffffffffffffffffffffffffffffffffffffff82169050919050565b600062000439826200040c565b9050919050565b6200044b816200042c565b81146200045757600080fd5b50565b6000815190506200046b8162000440565b92915050565b600080604083850312156200048b576200048a62000407565b5b60006200049b858286016200045a565b9250506020620004ae858286016200045a565b9150509250929050565b7f4e487b7100000000000000000000000000000000000000000000000000000000600052602260045260246000fd5b600060028204905060018216806200050057607f821691505b60208210811415620005175762000516620004b8565b5b50919050565b608051613ed06200053960003960006109450152613ed06000f3fe608060405234801561001057600080fd5b50600436106101575760003560e01c8063731133e9116100c3578063bd85b0391161007c578063bd85b039146103f8578063d539139314610428578063d547741f14610446578063e8a3d48514610462578063e985e9c514610480578063f242432a146104b057610157565b8063731133e9146103385780637f3457101461035457806391d1485414610372578063938e3d7b146103a2578063a217fddf146103be578063a22cb465146103dc57610157565b80632eb2c2d6116101155780632eb2c2d6146102545780632f2ff15d1461027057806336568abe1461028c5780634e1273f4146102a85780634f558e79146102d8578063572b6c051461030857610157565b8062fdd58e1461015c57806301ffc9a71461018c57806302fe5305146101bc5780630e89341c146101d85780631f7fdffa14610208578063248a9ca314610224575b600080fd5b61017660048036038101906101719190612680565b6104cc565b60405161018391906126cf565b60405180910390f35b6101a660048036038101906101a19190612742565b610595565b6040516101b3919061278a565b60405180910390f35b6101d660048036038101906101d191906128eb565b6105a7565b005b6101f260048036038101906101ed9190612934565b6105de565b6040516101ff91906129e9565b60405180910390f35b610222600480360381019061021d9190612b74565b610672565b005b61023e60048036038101906102399190612c65565b6106af565b60405161024b9190612ca1565b60405180910390f35b61026e60048036038101906102699190612cbc565b6106cf565b005b61028a60048036038101906102859190612d8b565b610770565b005b6102a660048036038101906102a19190612d8b565b610791565b005b6102c260048036038101906102bd9190612e8e565b610814565b6040516102cf9190612fc4565b60405180910390f35b6102f260048036038101906102ed9190612934565b61092d565b6040516102ff919061278a565b60405180910390f35b610322600480360381019061031d9190612fe6565b610941565b60405161032f919061278a565b60405180910390f35b610352600480360381019061034d9190613013565b610999565b005b61035c6109d6565b6040516103699190612ca1565b60405180910390f35b61038c60048036038101906103879190612d8b565b6109fa565b604051610399919061278a565b60405180910390f35b6103bc60048036038101906103b791906128eb565b610a65565b005b6103c6610aaa565b6040516103d39190612ca1565b60405180910390f35b6103f660048036038101906103f191906130c2565b610ab1565b005b610412600480360381019061040d9190612934565b610ac7565b60405161041f91906126cf565b60405180910390f35b610430610ae4565b60405161043d9190612ca1565b60405180910390f35b610460600480360381019061045b9190612d8b565b610b08565b005b61046a610b29565b60405161047791906129e9565b60405180910390f35b61049a60048036038101906104959190613102565b610bbb565b6040516104a7919061278a565b60405180910390f35b6104ca60048036038101906104c59190613142565b610c4f565b005b60008073ffffffffffffffffffffffffffffffffffffffff168373ffffffffffffffffffffffffffffffffffffffff16141561053d576040517f08c379a00000000000000000000000000000000000000000000000000000000081526004016105349061324b565b60405180910390fd5b60008083815260200190815260200160002060008473ffffffffffffffffffffffffffffffffffffffff1673ffffffffffffffffffffffffffffffffffffffff16815260200190815260200160002054905092915050565b60006105a082610d2a565b9050919050565b7f7804d923f43a17d325d77e781528e0793b2edd9890ab45fc64efd7b4b427744c6105d181610da4565b6105da82610db8565b5050565b6060600280546105ed9061329a565b80601f01602080910402602001604051908101604052809291908181526020018280546106199061329a565b80156106665780601f1061063b57610100808354040283529160200191610666565b820191906000526020600020905b81548152906001019060200180831161064957829003601f168201915b50505050509050919050565b7f9f2df0fed2c77648de5860a4cc508cd0818c85b8b8a1ab4ceeef8d981c8956a661069c81610da4565b6106a885858585610dd2565b5050505050565b600060036000838152602001908152602001600020600101549050919050565b6106d7610fff565b73ffffffffffffffffffffffffffffffffffffffff168573ffffffffffffffffffffffffffffffffffffffff16148061071d575061071c85610717610fff565b610bbb565b5b61075c576040517f08c379a00000000000000000000000000000000000000000000000000000000081526004016107539061333e565b60405180910390fd5b610769858585858561100e565b5050505050565b610779826106af565b61078281610da4565b61078c8383611330565b505050565b610799610fff565b73ffffffffffffffffffffffffffffffffffffffff168173ffffffffffffffffffffffffffffffffffffffff1614610806576040517f08c379a00000000000000000000000000000000000000000000000000000000081526004016107fd906133d0565b60405180910390fd5b6108108282611411565b5050565b6060815183511461085a576040517f08c379a000000000000000000000000000000000000000000000000000000000815260040161085190613462565b60405180910390fd5b6000835167ffffffffffffffff811115610877576108766127c0565b5b6040519080825280602002602001820160405280156108a55781602001602082028036833780820191505090505b50905060005b8451811015610922576108f28582815181106108ca576108c9613482565b5b60200260200101518583815181106108e5576108e4613482565b5b60200260200101516104cc565b82828151811061090557610904613482565b5b6020026020010181815250508061091b906134e0565b90506108ab565b508091505092915050565b60008061093983610ac7565b119050919050565b60007f000000000000000000000000000000000000000000000000000000000000000073ffffffffffffffffffffffffffffffffffffffff168273ffffffffffffffffffffffffffffffffffffffff16149050919050565b7f9f2df0fed2c77648de5860a4cc508cd0818c85b8b8a1ab4ceeef8d981c8956a66109c381610da4565b6109cf858585856114f3565b5050505050565b7f7804d923f43a17d325d77e781528e0793b2edd9890ab45fc64efd7b4b427744c81565b60006003600084815260200190815260200160002060000160008373ffffffffffffffffffffffffffffffffffffffff1673ffffffffffffffffffffffffffffffffffffffff16815260200190815260200160002060009054906101000a900460ff16905092915050565b7f7804d923f43a17d325d77e781528e0793b2edd9890ab45fc64efd7b4b427744c610a8f81610da4565b8160059080519060200190610aa5929190612535565b505050565b6000801b81565b610ac3610abc610fff565b83836116a4565b5050565b600060046000838152602001908152602001600020549050919050565b7f9f2df0fed2c77648de5860a4cc508cd0818c85b8b8a1ab4ceeef8d981c8956a681565b610b11826106af565b610b1a81610da4565b610b248383611411565b505050565b606060058054610b389061329a565b80601f0160208091040260200160405190810160405280929190818152602001828054610b649061329a565b8015610bb15780601f10610b8657610100808354040283529160200191610bb1565b820191906000526020600020905b815481529060010190602001808311610b9457829003601f168201915b5050505050905090565b6000600160008473ffffffffffffffffffffffffffffffffffffffff1673ffffffffffffffffffffffffffffffffffffffff16815260200190815260200160002060008373ffffffffffffffffffffffffffffffffffffffff1673ffffffffffffffffffffffffffffffffffffffff16815260200190815260200160002060009054906101000a900460ff16905092915050565b610c57610fff565b73ffffffffffffffffffffffffffffffffffffffff168573ffffffffffffffffffffffffffffffffffffffff161480610c9d5750610c9c85610c97610fff565b610bbb565b5b610cdc576040517f08c379a0000000000000000000000000000000000000000000000000000000008152600401610cd39061333e565b60405180910390fd5b610ce98585858585611811565b5050505050565b6000610cfb33610941565b15610d0f57601436033560601c9050610d1e565b610d17610d22565b9050610d1f565b5b90565b600033905090565b60007f7965db0b000000000000000000000000000000000000000000000000000000007bffffffffffffffffffffffffffffffffffffffffffffffffffffffff1916827bffffffffffffffffffffffffffffffffffffffffffffffffffffffff19161480610d9d5750610d9c82611aad565b5b9050919050565b610db581610db0610fff565b611b8f565b50565b8060029080519060200190610dce929190612535565b5050565b600073ffffffffffffffffffffffffffffffffffffffff168473ffffffffffffffffffffffffffffffffffffffff161415610e42576040517f08c379a0000000000000000000000000000000000000000000000000000000008152600401610e399061359b565b60405180910390fd5b8151835114610e86576040517f08c379a0000000000000000000000000000000000000000000000000000000008152600401610e7d9061362d565b60405180910390fd5b6000610e90610fff565b9050610ea181600087878787611c2c565b60005b8451811015610f5a57838181518110610ec057610ebf613482565b5b6020026020010151600080878481518110610ede57610edd613482565b5b6020026020010151815260200190815260200160002060008873ffffffffffffffffffffffffffffffffffffffff1673ffffffffffffffffffffffffffffffffffffffff1681526020019081526020016000206000828254610f40919061364d565b925050819055508080610f52906134e0565b915050610ea4565b508473ffffffffffffffffffffffffffffffffffffffff16600073ffffffffffffffffffffffffffffffffffffffff168273ffffffffffffffffffffffffffffffffffffffff167f4a39dc06d4c0dbc64b70af90fd698a233a518aa5d07e595d983b8c0526c8f7fb8787604051610fd29291906136a3565b60405180910390a4610fe981600087878787611c42565b610ff881600087878787611c4a565b5050505050565b6000611009610cf0565b905090565b8151835114611052576040517f08c379a00000000000000000000000000000000000000000000000000000000081526004016110499061362d565b60405180910390fd5b600073ffffffffffffffffffffffffffffffffffffffff168473ffffffffffffffffffffffffffffffffffffffff1614156110c2576040517f08c379a00000000000000000000000000000000000000000000000000000000081526004016110b99061374c565b60405180910390fd5b60006110cc610fff565b90506110dc818787878787611c2c565b60005b845181101561128d5760008582815181106110fd576110fc613482565b5b60200260200101519050600085838151811061111c5761111b613482565b5b60200260200101519050600080600084815260200190815260200160002060008b73ffffffffffffffffffffffffffffffffffffffff1673ffffffffffffffffffffffffffffffffffffffff168152602001908152602001600020549050818110156111bd576040517f08c379a00000000000000000000000000000000000000000000000000000000081526004016111b4906137de565b60405180910390fd5b81810360008085815260200190815260200160002060008c73ffffffffffffffffffffffffffffffffffffffff1673ffffffffffffffffffffffffffffffffffffffff168152602001908152602001600020819055508160008085815260200190815260200160002060008b73ffffffffffffffffffffffffffffffffffffffff1673ffffffffffffffffffffffffffffffffffffffff1681526020019081526020016000206000828254611272919061364d565b9250508190555050505080611286906134e0565b90506110df565b508473ffffffffffffffffffffffffffffffffffffffff168673ffffffffffffffffffffffffffffffffffffffff168273ffffffffffffffffffffffffffffffffffffffff167f4a39dc06d4c0dbc64b70af90fd698a233a518aa5d07e595d983b8c0526c8f7fb87876040516113049291906136a3565b60405180910390a461131a818787878787611c42565b611328818787878787611c4a565b505050505050565b61133a82826109fa565b61140d5760016003600084815260200190815260200160002060000160008373ffffffffffffffffffffffffffffffffffffffff1673ffffffffffffffffffffffffffffffffffffffff16815260200190815260200160002060006101000a81548160ff0219169083151502179055506113b2610fff565b73ffffffffffffffffffffffffffffffffffffffff168173ffffffffffffffffffffffffffffffffffffffff16837f2f8788117e7eff1d82e926ec794901d17c78024a50270940304540a733656f0d60405160405180910390a45b5050565b61141b82826109fa565b156114ef5760006003600084815260200190815260200160002060000160008373ffffffffffffffffffffffffffffffffffffffff1673ffffffffffffffffffffffffffffffffffffffff16815260200190815260200160002060006101000a81548160ff021916908315150217905550611494610fff565b73ffffffffffffffffffffffffffffffffffffffff168173ffffffffffffffffffffffffffffffffffffffff16837ff6391f5c32d9c69d2a47ea670b442974b53935d1edc7fd64eb21e047a839171b60405160405180910390a45b5050565b600073ffffffffffffffffffffffffffffffffffffffff168473ffffffffffffffffffffffffffffffffffffffff161415611563576040517f08c379a000000000000000000000000000000000000000000000000000000000815260040161155a9061359b565b60405180910390fd5b600061156d610fff565b9050600061157a85611e31565b9050600061158785611e31565b905061159883600089858589611c2c565b8460008088815260200190815260200160002060008973ffffffffffffffffffffffffffffffffffffffff1673ffffffffffffffffffffffffffffffffffffffff16815260200190815260200160002060008282546115f7919061364d565b925050819055508673ffffffffffffffffffffffffffffffffffffffff16600073ffffffffffffffffffffffffffffffffffffffff168473ffffffffffffffffffffffffffffffffffffffff167fc3d58168c5ae7397731d063d5bbf3d657854427343f4c083240f7aacaa2d0f6289896040516116759291906137fe565b60405180910390a461168c83600089858589611c42565b61169b83600089898989611eab565b50505050505050565b8173ffffffffffffffffffffffffffffffffffffffff168373ffffffffffffffffffffffffffffffffffffffff161415611713576040517f08c379a000000000000000000000000000000000000000000000000000000000815260040161170a90613899565b60405180910390fd5b80600160008573ffffffffffffffffffffffffffffffffffffffff1673ffffffffffffffffffffffffffffffffffffffff16815260200190815260200160002060008473ffffffffffffffffffffffffffffffffffffffff1673ffffffffffffffffffffffffffffffffffffffff16815260200190815260200160002060006101000a81548160ff0219169083151502179055508173ffffffffffffffffffffffffffffffffffffffff168373ffffffffffffffffffffffffffffffffffffffff167f17307eab39ab6107e8899845ad3d59bd9653f200f220920489ca2b5937696c3183604051611804919061278a565b60405180910390a3505050565b600073ffffffffffffffffffffffffffffffffffffffff168473ffffffffffffffffffffffffffffffffffffffff161415611881576040517f08c379a00000000000000000000000000000000000000000000000000000000081526004016118789061374c565b60405180910390fd5b600061188b610fff565b9050600061189885611e31565b905060006118a585611e31565b90506118b5838989858589611c2c565b600080600088815260200190815260200160002060008a73ffffffffffffffffffffffffffffffffffffffff1673ffffffffffffffffffffffffffffffffffffffff1681526020019081526020016000205490508581101561194c576040517f08c379a0000000000000000000000000000000000000000000000000000000008152600401611943906137de565b60405180910390fd5b85810360008089815260200190815260200160002060008b73ffffffffffffffffffffffffffffffffffffffff1673ffffffffffffffffffffffffffffffffffffffff168152602001908152602001600020819055508560008089815260200190815260200160002060008a73ffffffffffffffffffffffffffffffffffffffff1673ffffffffffffffffffffffffffffffffffffffff1681526020019081526020016000206000828254611a01919061364d565b925050819055508773ffffffffffffffffffffffffffffffffffffffff168973ffffffffffffffffffffffffffffffffffffffff168573ffffffffffffffffffffffffffffffffffffffff167fc3d58168c5ae7397731d063d5bbf3d657854427343f4c083240f7aacaa2d0f628a8a604051611a7e9291906137fe565b60405180910390a4611a94848a8a86868a611c42565b611aa2848a8a8a8a8a611eab565b505050505050505050565b60007fd9b67a26000000000000000000000000000000000000000000000000000000007bffffffffffffffffffffffffffffffffffffffffffffffffffffffff1916827bffffffffffffffffffffffffffffffffffffffffffffffffffffffff19161480611b7857507f0e89341c000000000000000000000000000000000000000000000000000000007bffffffffffffffffffffffffffffffffffffffffffffffffffffffff1916827bffffffffffffffffffffffffffffffffffffffffffffffffffffffff1916145b80611b885750611b8782612092565b5b9050919050565b611b9982826109fa565b611c2857611bbe8173ffffffffffffffffffffffffffffffffffffffff1660146120fc565b611bcc8360001c60206120fc565b604051602001611bdd92919061398d565b6040516020818303038152906040526040517f08c379a0000000000000000000000000000000000000000000000000000000008152600401611c1f91906129e9565b60405180910390fd5b5050565b611c3a868686868686612338565b505050505050565b505050505050565b611c698473ffffffffffffffffffffffffffffffffffffffff1661250a565b15611e29578373ffffffffffffffffffffffffffffffffffffffff1663bc197c8187878686866040518663ffffffff1660e01b8152600401611caf959493929190613a2b565b602060405180830381600087803b158015611cc957600080fd5b505af1925050508015611cfa57506040513d601f19601f82011682018060405250810190611cf79190613aa8565b60015b611da057611d06613ae2565b806308c379a01415611d635750611d1b613b04565b80611d265750611d65565b806040517f08c379a0000000000000000000000000000000000000000000000000000000008152600401611d5a91906129e9565b60405180910390fd5b505b6040517f08c379a0000000000000000000000000000000000000000000000000000000008152600401611d9790613c0c565b60405180910390fd5b63bc197c8160e01b7bffffffffffffffffffffffffffffffffffffffffffffffffffffffff1916817bffffffffffffffffffffffffffffffffffffffffffffffffffffffff191614611e27576040517f08c379a0000000000000000000000000000000000000000000000000000000008152600401611e1e90613c9e565b60405180910390fd5b505b505050505050565b60606000600167ffffffffffffffff811115611e5057611e4f6127c0565b5b604051908082528060200260200182016040528015611e7e5781602001602082028036833780820191505090505b5090508281600081518110611e9657611e95613482565b5b60200260200101818152505080915050919050565b611eca8473ffffffffffffffffffffffffffffffffffffffff1661250a565b1561208a578373ffffffffffffffffffffffffffffffffffffffff1663f23a6e6187878686866040518663ffffffff1660e01b8152600401611f10959493929190613cbe565b602060405180830381600087803b158015611f2a57600080fd5b505af1925050508015611f5b57506040513d601f19601f82011682018060405250810190611f589190613aa8565b60015b61200157611f67613ae2565b806308c379a01415611fc45750611f7c613b04565b80611f875750611fc6565b806040517f08c379a0000000000000000000000000000000000000000000000000000000008152600401611fbb91906129e9565b60405180910390fd5b505b6040517f08c379a0000000000000000000000000000000000000000000000000000000008152600401611ff890613c0c565b60405180910390fd5b63f23a6e6160e01b7bffffffffffffffffffffffffffffffffffffffffffffffffffffffff1916817bffffffffffffffffffffffffffffffffffffffffffffffffffffffff191614612088576040517f08c379a000000000000000000000000000000000000000000000000000000000815260040161207f90613c9e565b60405180910390fd5b505b505050505050565b60007f01ffc9a7000000000000000000000000000000000000000000000000000000007bffffffffffffffffffffffffffffffffffffffffffffffffffffffff1916827bffffffffffffffffffffffffffffffffffffffffffffffffffffffff1916149050919050565b60606000600283600261210f9190613d18565b612119919061364d565b67ffffffffffffffff811115612132576121316127c0565b5b6040519080825280601f01601f1916602001820160405280156121645781602001600182028036833780820191505090505b5090507f30000000000000000000000000000000000000000000000000000000000000008160008151811061219c5761219b613482565b5b60200101907effffffffffffffffffffffffffffffffffffffffffffffffffffffffffffff1916908160001a9053507f780000000000000000000000000000000000000000000000000000000000000081600181518110612200576121ff613482565b5b60200101907effffffffffffffffffffffffffffffffffffffffffffffffffffffffffffff1916908160001a905350600060018460026122409190613d18565b61224a919061364d565b90505b60018111156122ea577f3031323334353637383961626364656600000000000000000000000000000000600f86166010811061228c5761228b613482565b5b1a60f81b8282815181106122a3576122a2613482565b5b60200101907effffffffffffffffffffffffffffffffffffffffffffffffffffffffffffff1916908160001a905350600485901c9450806122e390613d72565b905061224d565b506000841461232e576040517f08c379a000000000000000000000000000000000000000000000000000000000815260040161232590613de8565b60405180910390fd5b8091505092915050565b61234686868686868661252d565b600073ffffffffffffffffffffffffffffffffffffffff168573ffffffffffffffffffffffffffffffffffffffff1614156123f85760005b83518110156123f65782818151811061239a57612399613482565b5b6020026020010151600460008684815181106123b9576123b8613482565b5b6020026020010151815260200190815260200160002060008282546123de919061364d565b92505081905550806123ef906134e0565b905061237e565b505b600073ffffffffffffffffffffffffffffffffffffffff168473ffffffffffffffffffffffffffffffffffffffff1614156125025760005b835181101561250057600084828151811061244e5761244d613482565b5b60200260200101519050600084838151811061246d5761246c613482565b5b60200260200101519050600060046000848152602001908152602001600020549050818110156124d2576040517f08c379a00000000000000000000000000000000000000000000000000000000081526004016124c990613e7a565b60405180910390fd5b8181036004600085815260200190815260200160002081905550505050806124f9906134e0565b9050612430565b505b505050505050565b6000808273ffffffffffffffffffffffffffffffffffffffff163b119050919050565b505050505050565b8280546125419061329a565b90600052602060002090601f01602090048101928261256357600085556125aa565b82601f1061257c57805160ff19168380011785556125aa565b828001600101855582156125aa579182015b828111156125a957825182559160200191906001019061258e565b5b5090506125b791906125bb565b5090565b5b808211156125d45760008160009055506001016125bc565b5090565b6000604051905090565b600080fd5b600080fd5b600073ffffffffffffffffffffffffffffffffffffffff82169050919050565b6000612617826125ec565b9050919050565b6126278161260c565b811461263257600080fd5b50565b6000813590506126448161261e565b92915050565b6000819050919050565b61265d8161264a565b811461266857600080fd5b50565b60008135905061267a81612654565b92915050565b60008060408385031215612697576126966125e2565b5b60006126a585828601612635565b92505060206126b68582860161266b565b9150509250929050565b6126c98161264a565b82525050565b60006020820190506126e460008301846126c0565b92915050565b60007fffffffff0000000000000000000000000000000000000000000000000000000082169050919050565b61271f816126ea565b811461272a57600080fd5b50565b60008135905061273c81612716565b92915050565b600060208284031215612758576127576125e2565b5b60006127668482850161272d565b91505092915050565b60008115159050919050565b6127848161276f565b82525050565b600060208201905061279f600083018461277b565b92915050565b600080fd5b600080fd5b6000601f19601f8301169050919050565b7f4e487b7100000000000000000000000000000000000000000000000000000000600052604160045260246000fd5b6127f8826127af565b810181811067ffffffffffffffff82111715612817576128166127c0565b5b80604052505050565b600061282a6125d8565b905061283682826127ef565b919050565b600067ffffffffffffffff821115612856576128556127c0565b5b61285f826127af565b9050602081019050919050565b82818337600083830152505050565b600061288e6128898461283b565b612820565b9050828152602081018484840111156128aa576128a96127aa565b5b6128b584828561286c565b509392505050565b600082601f8301126128d2576128d16127a5565b5b81356128e284826020860161287b565b91505092915050565b600060208284031215612901576129006125e2565b5b600082013567ffffffffffffffff81111561291f5761291e6125e7565b5b61292b848285016128bd565b91505092915050565b60006020828403121561294a576129496125e2565b5b60006129588482850161266b565b91505092915050565b600081519050919050565b600082825260208201905092915050565b60005b8381101561299b578082015181840152602081019050612980565b838111156129aa576000848401525b50505050565b60006129bb82612961565b6129c5818561296c565b93506129d581856020860161297d565b6129de816127af565b840191505092915050565b60006020820190508181036000830152612a0381846129b0565b905092915050565b600067ffffffffffffffff821115612a2657612a256127c0565b5b602082029050602081019050919050565b600080fd5b6000612a4f612a4a84612a0b565b612820565b90508083825260208201905060208402830185811115612a7257612a71612a37565b5b835b81811015612a9b5780612a87888261266b565b845260208401935050602081019050612a74565b5050509392505050565b600082601f830112612aba57612ab96127a5565b5b8135612aca848260208601612a3c565b91505092915050565b600067ffffffffffffffff821115612aee57612aed6127c0565b5b612af7826127af565b9050602081019050919050565b6000612b17612b1284612ad3565b612820565b905082815260208101848484011115612b3357612b326127aa565b5b612b3e84828561286c565b509392505050565b600082601f830112612b5b57612b5a6127a5565b5b8135612b6b848260208601612b04565b91505092915050565b60008060008060808587031215612b8e57612b8d6125e2565b5b6000612b9c87828801612635565b945050602085013567ffffffffffffffff811115612bbd57612bbc6125e7565b5b612bc987828801612aa5565b935050604085013567ffffffffffffffff811115612bea57612be96125e7565b5b612bf687828801612aa5565b925050606085013567ffffffffffffffff811115612c1757612c166125e7565b5b612c2387828801612b46565b91505092959194509250565b6000819050919050565b612c4281612c2f565b8114612c4d57600080fd5b50565b600081359050612c5f81612c39565b92915050565b600060208284031215612c7b57612c7a6125e2565b5b6000612c8984828501612c50565b91505092915050565b612c9b81612c2f565b82525050565b6000602082019050612cb66000830184612c92565b92915050565b600080600080600060a08688031215612cd857612cd76125e2565b5b6000612ce688828901612635565b9550506020612cf788828901612635565b945050604086013567ffffffffffffffff811115612d1857612d176125e7565b5b612d2488828901612aa5565b935050606086013567ffffffffffffffff811115612d4557612d446125e7565b5b612d5188828901612aa5565b925050608086013567ffffffffffffffff811115612d7257612d716125e7565b5b612d7e88828901612b46565b9150509295509295909350565b60008060408385031215612da257612da16125e2565b5b6000612db085828601612c50565b9250506020612dc185828601612635565b9150509250929050565b600067ffffffffffffffff821115612de657612de56127c0565b5b602082029050602081019050919050565b6000612e0a612e0584612dcb565b612820565b90508083825260208201905060208402830185811115612e2d57612e2c612a37565b5b835b81811015612e565780612e428882612635565b845260208401935050602081019050612e2f565b5050509392505050565b600082601f830112612e7557612e746127a5565b5b8135612e85848260208601612df7565b91505092915050565b60008060408385031215612ea557612ea46125e2565b5b600083013567ffffffffffffffff811115612ec357612ec26125e7565b5b612ecf85828601612e60565b925050602083013567ffffffffffffffff811115612ef057612eef6125e7565b5b612efc85828601612aa5565b9150509250929050565b600081519050919050565b600082825260208201905092915050565b6000819050602082019050919050565b612f3b8161264a565b82525050565b6000612f4d8383612f32565b60208301905092915050565b6000602082019050919050565b6000612f7182612f06565b612f7b8185612f11565b9350612f8683612f22565b8060005b83811015612fb7578151612f9e8882612f41565b9750612fa983612f59565b925050600181019050612f8a565b5085935050505092915050565b60006020820190508181036000830152612fde8184612f66565b905092915050565b600060208284031215612ffc57612ffb6125e2565b5b600061300a84828501612635565b91505092915050565b6000806000806080858703121561302d5761302c6125e2565b5b600061303b87828801612635565b945050602061304c8782880161266b565b935050604061305d8782880161266b565b925050606085013567ffffffffffffffff81111561307e5761307d6125e7565b5b61308a87828801612b46565b91505092959194509250565b61309f8161276f565b81146130aa57600080fd5b50565b6000813590506130bc81613096565b92915050565b600080604083850312156130d9576130d86125e2565b5b60006130e785828601612635565b92505060206130f8858286016130ad565b9150509250929050565b60008060408385031215613119576131186125e2565b5b600061312785828601612635565b925050602061313885828601612635565b9150509250929050565b600080600080600060a0868803121561315e5761315d6125e2565b5b600061316c88828901612635565b955050602061317d88828901612635565b945050604061318e8882890161266b565b935050606061319f8882890161266b565b925050608086013567ffffffffffffffff8111156131c0576131bf6125e7565b5b6131cc88828901612b46565b9150509295509295909350565b7f455243313135353a2061646472657373207a65726f206973206e6f742061207660008201527f616c6964206f776e657200000000000000000000000000000000000000000000602082015250565b6000613235602a8361296c565b9150613240826131d9565b604082019050919050565b6000602082019050818103600083015261326481613228565b9050919050565b7f4e487b7100000000000000000000000000000000000000000000000000000000600052602260045260246000fd5b600060028204905060018216806132b257607f821691505b602082108114156132c6576132c561326b565b5b50919050565b7f455243313135353a2063616c6c6572206973206e6f7420746f6b656e206f776e60008201527f6572206e6f7220617070726f7665640000000000000000000000000000000000602082015250565b6000613328602f8361296c565b9150613333826132cc565b604082019050919050565b600060208201905081810360008301526133578161331b565b9050919050565b7f416363657373436f6e74726f6c3a2063616e206f6e6c792072656e6f756e636560008201527f20726f6c657320666f722073656c660000000000000000000000000000000000602082015250565b60006133ba602f8361296c565b91506133c58261335e565b604082019050919050565b600060208201905081810360008301526133e9816133ad565b9050919050565b7f455243313135353a206163636f756e747320616e6420696473206c656e67746860008201527f206d69736d617463680000000000000000000000000000000000000000000000602082015250565b600061344c60298361296c565b9150613457826133f0565b604082019050919050565b6000602082019050818103600083015261347b8161343f565b9050919050565b7f4e487b7100000000000000000000000000000000000000000000000000000000600052603260045260246000fd5b7f4e487b7100000000000000000000000000000000000000000000000000000000600052601160045260246000fd5b60006134eb8261264a565b91507fffffffffffffffffffffffffffffffffffffffffffffffffffffffffffffffff82141561351e5761351d6134b1565b5b600182019050919050565b7f455243313135353a206d696e7420746f20746865207a65726f2061646472657360008201527f7300000000000000000000000000000000000000000000000000000000000000602082015250565b600061358560218361296c565b915061359082613529565b604082019050919050565b600060208201905081810360008301526135b481613578565b9050919050565b7f455243313135353a2069647320616e6420616d6f756e7473206c656e6774682060008201527f6d69736d61746368000000000000000000000000000000000000000000000000602082015250565b600061361760288361296c565b9150613622826135bb565b604082019050919050565b600060208201905081810360008301526136468161360a565b9050919050565b60006136588261264a565b91506136638361264a565b9250827fffffffffffffffffffffffffffffffffffffffffffffffffffffffffffffffff03821115613698576136976134b1565b5b828201905092915050565b600060408201905081810360008301526136bd8185612f66565b905081810360208301526136d18184612f66565b90509392505050565b7f455243313135353a207472616e7366657220746f20746865207a65726f20616460008201527f6472657373000000000000000000000000000000000000000000000000000000602082015250565b600061373660258361296c565b9150613741826136da565b604082019050919050565b6000602082019050818103600083015261376581613729565b9050919050565b7f455243313135353a20696e73756666696369656e742062616c616e636520666f60008201527f72207472616e7366657200000000000000000000000000000000000000000000602082015250565b60006137c8602a8361296c565b91506137d38261376c565b604082019050919050565b600060208201905081810360008301526137f7816137bb565b9050919050565b600060408201905061381360008301856126c0565b61382060208301846126c0565b9392505050565b7f455243313135353a2073657474696e6720617070726f76616c2073746174757360008201527f20666f722073656c660000000000000000000000000000000000000000000000602082015250565b600061388360298361296c565b915061388e82613827565b604082019050919050565b600060208201905081810360008301526138b281613876565b9050919050565b600081905092915050565b7f416363657373436f6e74726f6c3a206163636f756e7420000000000000000000600082015250565b60006138fa6017836138b9565b9150613905826138c4565b601782019050919050565b600061391b82612961565b61392581856138b9565b935061393581856020860161297d565b80840191505092915050565b7f206973206d697373696e6720726f6c6520000000000000000000000000000000600082015250565b60006139776011836138b9565b915061398282613941565b601182019050919050565b6000613998826138ed565b91506139a48285613910565b91506139af8261396a565b91506139bb8284613910565b91508190509392505050565b6139d08161260c565b82525050565b600081519050919050565b600082825260208201905092915050565b60006139fd826139d6565b613a0781856139e1565b9350613a1781856020860161297d565b613a20816127af565b840191505092915050565b600060a082019050613a4060008301886139c7565b613a4d60208301876139c7565b8181036040830152613a5f8186612f66565b90508181036060830152613a738185612f66565b90508181036080830152613a8781846139f2565b90509695505050505050565b600081519050613aa281612716565b92915050565b600060208284031215613abe57613abd6125e2565b5b6000613acc84828501613a93565b91505092915050565b60008160e01c9050919050565b600060033d1115613b015760046000803e613afe600051613ad5565b90505b90565b600060443d1015613b1457613b97565b613b1c6125d8565b60043d036004823e80513d602482011167ffffffffffffffff82111715613b44575050613b97565b808201805167ffffffffffffffff811115613b625750505050613b97565b80602083010160043d038501811115613b7f575050505050613b97565b613b8e826020018501866127ef565b82955050505050505b90565b7f455243313135353a207472616e7366657220746f206e6f6e204552433131353560008201527f526563656976657220696d706c656d656e746572000000000000000000000000602082015250565b6000613bf660348361296c565b9150613c0182613b9a565b604082019050919050565b60006020820190508181036000830152613c2581613be9565b9050919050565b7f455243313135353a204552433131353552656365697665722072656a6563746560008201527f6420746f6b656e73000000000000000000000000000000000000000000000000602082015250565b6000613c8860288361296c565b9150613c9382613c2c565b604082019050919050565b60006020820190508181036000830152613cb781613c7b565b9050919050565b600060a082019050613cd360008301886139c7565b613ce060208301876139c7565b613ced60408301866126c0565b613cfa60608301856126c0565b8181036080830152613d0c81846139f2565b90509695505050505050565b6000613d238261264a565b9150613d2e8361264a565b9250817fffffffffffffffffffffffffffffffffffffffffffffffffffffffffffffffff0483118215151615613d6757613d666134b1565b5b828202905092915050565b6000613d7d8261264a565b91506000821415613d9157613d906134b1565b5b600182039050919050565b7f537472696e67733a20686578206c656e67746820696e73756666696369656e74600082015250565b6000613dd260208361296c565b9150613ddd82613d9c565b602082019050919050565b60006020820190508181036000830152613e0181613dc5565b9050919050565b7f455243313135353a206275726e20616d6f756e74206578636565647320746f7460008201527f616c537570706c79000000000000000000000000000000000000000000000000602082015250565b6000613e6460288361296c565b9150613e6f82613e08565b604082019050919050565b60006020820190508181036000830152613e9381613e57565b905091905056fea2646970667358221220ea5b90ea36e9865a45fb77b86478fcba43adaf18b11afc361609c5bd7243e3a564736f6c63430008090033",
  "devdoc": {
    "kind": "dev",
    "methods": {
      "balanceOf(address,uint256)": {
        "details": "See {IERC1155-balanceOf}. Requirements: - `account` cannot be the zero address."
      },
      "balanceOfBatch(address[],uint256[])": {
        "details": "See {IERC1155-balanceOfBatch}. Requirements: - `accounts` and `ids` must have the same length."
      },
      "exists(uint256)": {
        "details": "Indicates whether any token exist with a given id, or not."
      },
      "getRoleAdmin(bytes32)": {
        "details": "Returns the admin role that controls `role`. See {grantRole} and {revokeRole}. To change a role's admin, use {_setRoleAdmin}."
      },
      "grantRole(bytes32,address)": {
        "details": "Grants `role` to `account`. If `account` had not been already granted `role`, emits a {RoleGranted} event. Requirements: - the caller must have ``role``'s admin role. May emit a {RoleGranted} event."
      },
      "hasRole(bytes32,address)": {
        "details": "Returns `true` if `account` has been granted `role`."
      },
      "isApprovedForAll(address,address)": {
        "details": "See {IERC1155-isApprovedForAll}."
      },
      "renounceRole(bytes32,address)": {
        "details": "Revokes `role` from the calling account. Roles are often managed via {grantRole} and {revokeRole}: this function's purpose is to provide a mechanism for accounts to lose their privileges if they are compromised (such as when a trusted device is misplaced). If the calling account had been revoked `role`, emits a {RoleRevoked} event. Requirements: - the caller must be `account`. May emit a {RoleRevoked} event."
      },
      "revokeRole(bytes32,address)": {
        "details": "Revokes `role` from `account`. If `account` had been granted `role`, emits a {RoleRevoked} event. Requirements: - the caller must have ``role``'s admin role. May emit a {RoleRevoked} event."
      },
      "safeBatchTransferFrom(address,address,uint256[],uint256[],bytes)": {
        "details": "See {IERC1155-safeBatchTransferFrom}."
      },
      "safeTransferFrom(address,address,uint256,uint256,bytes)": {
        "details": "See {IERC1155-safeTransferFrom}."
      },
      "setApprovalForAll(address,bool)": {
        "details": "See {IERC1155-setApprovalForAll}."
      },
      "totalSupply(uint256)": {
        "details": "Total amount of tokens in with a given id."
      },
      "uri(uint256)": {
        "details": "See {IERC1155MetadataURI-uri}. This implementation returns the same URI for *all* token types. It relies on the token type ID substitution mechanism https://eips.ethereum.org/EIPS/eip-1155#metadata[defined in the EIP]. Clients calling this function must replace the `\\{id\\}` substring with the actual token type ID."
      }
    },
    "version": 1
  },
  "userdoc": {
    "kind": "user",
    "methods": {},
    "version": 1
  },
  "storageLayout": {
    "storage": [
      {
        "astId": 497,
        "contract": "contracts/GraphicLore.sol:GraphicLore",
        "label": "_balances",
        "offset": 0,
        "slot": "0",
        "type": "t_mapping(t_uint256,t_mapping(t_address,t_uint256))"
      },
      {
        "astId": 503,
        "contract": "contracts/GraphicLore.sol:GraphicLore",
        "label": "_operatorApprovals",
        "offset": 0,
        "slot": "1",
        "type": "t_mapping(t_address,t_mapping(t_address,t_bool))"
      },
      {
        "astId": 505,
        "contract": "contracts/GraphicLore.sol:GraphicLore",
        "label": "_uri",
        "offset": 0,
        "slot": "2",
        "type": "t_string_storage"
      },
      {
        "astId": 24,
        "contract": "contracts/GraphicLore.sol:GraphicLore",
        "label": "_roles",
        "offset": 0,
        "slot": "3",
        "type": "t_mapping(t_bytes32,t_struct(RoleData)19_storage)"
      },
      {
        "astId": 1867,
        "contract": "contracts/GraphicLore.sol:GraphicLore",
        "label": "_totalSupply",
        "offset": 0,
        "slot": "4",
        "type": "t_mapping(t_uint256,t_uint256)"
      },
      {
        "astId": 2634,
        "contract": "contracts/GraphicLore.sol:GraphicLore",
        "label": "_contractURI",
        "offset": 0,
        "slot": "5",
        "type": "t_string_storage"
      }
    ],
    "types": {
      "t_address": {
        "encoding": "inplace",
        "label": "address",
        "numberOfBytes": "20"
      },
      "t_bool": {
        "encoding": "inplace",
        "label": "bool",
        "numberOfBytes": "1"
      },
      "t_bytes32": {
        "encoding": "inplace",
        "label": "bytes32",
        "numberOfBytes": "32"
      },
      "t_mapping(t_address,t_bool)": {
        "encoding": "mapping",
        "key": "t_address",
        "label": "mapping(address => bool)",
        "numberOfBytes": "32",
        "value": "t_bool"
      },
      "t_mapping(t_address,t_mapping(t_address,t_bool))": {
        "encoding": "mapping",
        "key": "t_address",
        "label": "mapping(address => mapping(address => bool))",
        "numberOfBytes": "32",
        "value": "t_mapping(t_address,t_bool)"
      },
      "t_mapping(t_address,t_uint256)": {
        "encoding": "mapping",
        "key": "t_address",
        "label": "mapping(address => uint256)",
        "numberOfBytes": "32",
        "value": "t_uint256"
      },
      "t_mapping(t_bytes32,t_struct(RoleData)19_storage)": {
        "encoding": "mapping",
        "key": "t_bytes32",
        "label": "mapping(bytes32 => struct AccessControl.RoleData)",
        "numberOfBytes": "32",
        "value": "t_struct(RoleData)19_storage"
      },
      "t_mapping(t_uint256,t_mapping(t_address,t_uint256))": {
        "encoding": "mapping",
        "key": "t_uint256",
        "label": "mapping(uint256 => mapping(address => uint256))",
        "numberOfBytes": "32",
        "value": "t_mapping(t_address,t_uint256)"
      },
      "t_mapping(t_uint256,t_uint256)": {
        "encoding": "mapping",
        "key": "t_uint256",
        "label": "mapping(uint256 => uint256)",
        "numberOfBytes": "32",
        "value": "t_uint256"
      },
      "t_string_storage": {
        "encoding": "bytes",
        "label": "string",
        "numberOfBytes": "32"
      },
      "t_struct(RoleData)19_storage": {
        "encoding": "inplace",
        "label": "struct AccessControl.RoleData",
        "members": [
          {
            "astId": 16,
            "contract": "contracts/GraphicLore.sol:GraphicLore",
            "label": "members",
            "offset": 0,
            "slot": "0",
            "type": "t_mapping(t_address,t_bool)"
          },
          {
            "astId": 18,
            "contract": "contracts/GraphicLore.sol:GraphicLore",
            "label": "adminRole",
            "offset": 0,
            "slot": "1",
            "type": "t_bytes32"
          }
        ],
        "numberOfBytes": "64"
      },
      "t_uint256": {
        "encoding": "inplace",
        "label": "uint256",
        "numberOfBytes": "32"
      }
    }
  }
}