{
  "address": "0xBC4858032220ABC938e10f7B6cAF287C621701e0",
  "abi": [
    {
      "inputs": [
        {
          "internalType": "address",
          "name": "trustedForwarder",
          "type": "address"
        },
        {
          "internalType": "address",
          "name": "diceRollerAddress",
          "type": "address"
        },
        {
          "internalType": "address",
          "name": "initialOwner",
          "type": "address"
        }
      ],
      "stateMutability": "nonpayable",
      "type": "constructor"
    },
    {
      "inputs": [],
      "name": "AlreadyExists",
      "type": "error"
    },
    {
      "inputs": [],
      "name": "AlreadyStarted",
      "type": "error"
    },
    {
      "inputs": [],
      "name": "CantCreateAlreadyStarted",
      "type": "error"
    },
    {
      "inputs": [],
      "name": "NoTwoRollsPerBlock",
      "type": "error"
    },
    {
      "inputs": [],
      "name": "Unauthorized",
      "type": "error"
    },
    {
      "anonymous": false,
      "inputs": [
        {
          "indexed": true,
          "internalType": "uint256",
          "name": "index",
          "type": "uint256"
        },
        {
          "indexed": true,
          "internalType": "uint256",
          "name": "blockNumber",
          "type": "uint256"
        },
        {
          "indexed": false,
          "internalType": "bytes32",
          "name": "random",
          "type": "bytes32"
        }
      ],
      "name": "DiceRolled",
      "type": "event"
    },
    {
      "anonymous": false,
      "inputs": [
        {
          "indexed": true,
          "internalType": "bytes32",
          "name": "role",
          "type": "bytes32"
        },
        {
          "indexed": true,
          "internalType": "bytes32",
          "name": "previousAdminRole",
          "type": "bytes32"
        },
        {
          "indexed": true,
          "internalType": "bytes32",
          "name": "newAdminRole",
          "type": "bytes32"
        }
      ],
      "name": "RoleAdminChanged",
      "type": "event"
    },
    {
      "anonymous": false,
      "inputs": [
        {
          "indexed": true,
          "internalType": "bytes32",
          "name": "role",
          "type": "bytes32"
        },
        {
          "indexed": true,
          "internalType": "address",
          "name": "account",
          "type": "address"
        },
        {
          "indexed": true,
          "internalType": "address",
          "name": "sender",
          "type": "address"
        }
      ],
      "name": "RoleGranted",
      "type": "event"
    },
    {
      "anonymous": false,
      "inputs": [
        {
          "indexed": true,
          "internalType": "bytes32",
          "name": "role",
          "type": "bytes32"
        },
        {
          "indexed": true,
          "internalType": "address",
          "name": "account",
          "type": "address"
        },
        {
          "indexed": true,
          "internalType": "address",
          "name": "sender",
          "type": "address"
        }
      ],
      "name": "RoleRevoked",
      "type": "event"
    },
    {
      "anonymous": false,
      "inputs": [
        {
          "indexed": true,
          "internalType": "bytes32",
          "name": "id",
          "type": "bytes32"
        },
        {
          "indexed": true,
          "internalType": "uint256",
          "name": "roll",
          "type": "uint256"
        }
      ],
      "name": "Started",
      "type": "event"
    },
    {
      "anonymous": false,
      "inputs": [
        {
          "indexed": true,
          "internalType": "bytes32",
          "name": "id",
          "type": "bytes32"
        }
      ],
      "name": "TableCreated",
      "type": "event"
    },
    {
      "inputs": [],
      "name": "ADMIN_ROLE",
      "outputs": [
        {
          "internalType": "bytes32",
          "name": "",
          "type": "bytes32"
        }
      ],
      "stateMutability": "view",
      "type": "function"
    },
    {
      "inputs": [],
      "name": "DEFAULT_ADMIN_ROLE",
      "outputs": [
        {
          "internalType": "bytes32",
          "name": "",
          "type": "bytes32"
        }
      ],
      "stateMutability": "view",
      "type": "function"
    },
    {
      "inputs": [
        {
          "internalType": "bytes32",
          "name": "id",
          "type": "bytes32"
        }
      ],
      "name": "attributes",
      "outputs": [
        {
          "internalType": "bytes32[]",
          "name": "",
          "type": "bytes32[]"
        }
      ],
      "stateMutability": "view",
      "type": "function"
    },
    {
      "inputs": [
        {
          "internalType": "uint256",
          "name": "",
          "type": "uint256"
        }
      ],
      "name": "blockOfRoll",
      "outputs": [
        {
          "internalType": "uint256",
          "name": "",
          "type": "uint256"
        }
      ],
      "stateMutability": "view",
      "type": "function"
    },
    {
      "inputs": [
        {
          "components": [
            {
              "internalType": "bytes32",
              "name": "id",
              "type": "bytes32"
            },
            {
              "internalType": "address",
              "name": "owner",
              "type": "address"
            },
            {
              "internalType": "uint256",
              "name": "startedAt",
              "type": "uint256"
            },
            {
              "internalType": "uint256",
              "name": "gameLength",
              "type": "uint256"
            },
            {
              "internalType": "uint32",
              "name": "tableSize",
              "type": "uint32"
            },
            {
              "internalType": "uint32",
              "name": "wootgumpMultiplier",
              "type": "uint32"
            },
            {
              "internalType": "address[]",
              "name": "players",
              "type": "address[]"
            },
            {
              "internalType": "bytes32[]",
              "name": "seeds",
              "type": "bytes32[]"
            },
            {
              "internalType": "bytes32[]",
              "name": "attributes",
              "type": "bytes32[]"
            },
            {
              "internalType": "uint256[]",
              "name": "initialGump",
              "type": "uint256[]"
            }
          ],
          "internalType": "struct DelphsTable.Table",
          "name": "newTable",
          "type": "tuple"
        }
      ],
      "name": "createAndStart",
      "outputs": [],
      "stateMutability": "nonpayable",
      "type": "function"
    },
    {
      "inputs": [
        {
          "components": [
            {
              "internalType": "bytes32",
              "name": "id",
              "type": "bytes32"
            },
            {
              "internalType": "address",
              "name": "owner",
              "type": "address"
            },
            {
              "internalType": "uint256",
              "name": "startedAt",
              "type": "uint256"
            },
            {
              "internalType": "uint256",
              "name": "gameLength",
              "type": "uint256"
            },
            {
              "internalType": "uint32",
              "name": "tableSize",
              "type": "uint32"
            },
            {
              "internalType": "uint32",
              "name": "wootgumpMultiplier",
              "type": "uint32"
            },
            {
              "internalType": "address[]",
              "name": "players",
              "type": "address[]"
            },
            {
              "internalType": "bytes32[]",
              "name": "seeds",
              "type": "bytes32[]"
            },
            {
              "internalType": "bytes32[]",
              "name": "attributes",
              "type": "bytes32[]"
            },
            {
              "internalType": "uint256[]",
              "name": "initialGump",
              "type": "uint256[]"
            }
          ],
          "internalType": "struct DelphsTable.Table",
          "name": "newTable",
          "type": "tuple"
        }
      ],
      "name": "createTable",
      "outputs": [],
      "stateMutability": "nonpayable",
      "type": "function"
    },
    {
      "inputs": [
        {
          "internalType": "bytes32",
          "name": "",
          "type": "bytes32"
        },
        {
          "internalType": "uint256",
          "name": "",
          "type": "uint256"
        },
        {
          "internalType": "uint256",
          "name": "",
          "type": "uint256"
        }
      ],
      "name": "destinations",
      "outputs": [
        {
          "internalType": "address",
          "name": "player",
          "type": "address"
        },
        {
          "internalType": "int64",
          "name": "x",
          "type": "int64"
        },
        {
          "internalType": "int64",
          "name": "y",
          "type": "int64"
        }
      ],
      "stateMutability": "view",
      "type": "function"
    },
    {
      "inputs": [
        {
          "internalType": "bytes32",
          "name": "id",
          "type": "bytes32"
        },
        {
          "internalType": "uint256",
          "name": "roll",
          "type": "uint256"
        }
      ],
      "name": "destinationsForRoll",
      "outputs": [
        {
          "components": [
            {
              "internalType": "address",
              "name": "player",
              "type": "address"
            },
            {
              "internalType": "int64",
              "name": "x",
              "type": "int64"
            },
            {
              "internalType": "int64",
              "name": "y",
              "type": "int64"
            }
          ],
          "internalType": "struct DelphsTable.Destination[]",
          "name": "",
          "type": "tuple[]"
        }
      ],
      "stateMutability": "view",
      "type": "function"
    },
    {
      "inputs": [
        {
          "internalType": "bytes32",
          "name": "role",
          "type": "bytes32"
        }
      ],
      "name": "getRoleAdmin",
      "outputs": [
        {
          "internalType": "bytes32",
          "name": "",
          "type": "bytes32"
        }
      ],
      "stateMutability": "view",
      "type": "function"
    },
    {
      "inputs": [
        {
          "internalType": "bytes32",
          "name": "role",
          "type": "bytes32"
        },
        {
          "internalType": "address",
          "name": "account",
          "type": "address"
        }
      ],
      "name": "grantRole",
      "outputs": [],
      "stateMutability": "nonpayable",
      "type": "function"
    },
    {
      "inputs": [
        {
          "internalType": "bytes32",
          "name": "role",
          "type": "bytes32"
        },
        {
          "internalType": "address",
          "name": "account",
          "type": "address"
        }
      ],
      "name": "hasRole",
      "outputs": [
        {
          "internalType": "bool",
          "name": "",
          "type": "bool"
        }
      ],
      "stateMutability": "view",
      "type": "function"
    },
    {
      "inputs": [
        {
          "internalType": "bytes32",
          "name": "id",
          "type": "bytes32"
        }
      ],
      "name": "initialGump",
      "outputs": [
        {
          "internalType": "uint256[]",
          "name": "",
          "type": "uint256[]"
        }
      ],
      "stateMutability": "view",
      "type": "function"
    },
    {
      "inputs": [
        {
          "internalType": "address",
          "name": "forwarder",
          "type": "address"
        }
      ],
      "name": "isTrustedForwarder",
      "outputs": [
        {
          "internalType": "bool",
          "name": "",
          "type": "bool"
        }
      ],
      "stateMutability": "view",
      "type": "function"
    },
    {
      "inputs": [
        {
          "internalType": "bytes32",
          "name": "",
          "type": "bytes32"
        },
        {
          "internalType": "uint256",
          "name": "",
          "type": "uint256"
        },
        {
          "internalType": "uint256",
          "name": "",
          "type": "uint256"
        }
      ],
      "name": "itemPlays",
      "outputs": [
        {
          "internalType": "address",
          "name": "player",
          "type": "address"
        },
        {
          "internalType": "address",
          "name": "itemContract",
          "type": "address"
        },
        {
          "internalType": "uint256",
          "name": "id",
          "type": "uint256"
        }
      ],
      "stateMutability": "view",
      "type": "function"
    },
    {
      "inputs": [
        {
          "internalType": "bytes32",
          "name": "id",
          "type": "bytes32"
        },
        {
          "internalType": "uint256",
          "name": "roll",
          "type": "uint256"
        }
      ],
      "name": "itemPlaysForRoll",
      "outputs": [
        {
          "components": [
            {
              "internalType": "address",
              "name": "player",
              "type": "address"
            },
            {
              "internalType": "address",
              "name": "itemContract",
              "type": "address"
            },
            {
              "internalType": "uint256",
              "name": "id",
              "type": "uint256"
            }
          ],
          "internalType": "struct DelphsTable.ItemPlay[]",
          "name": "",
          "type": "tuple[]"
        }
      ],
      "stateMutability": "view",
      "type": "function"
    },
    {
      "inputs": [],
      "name": "latestRoll",
      "outputs": [
        {
          "internalType": "uint256",
          "name": "",
          "type": "uint256"
        }
      ],
      "stateMutability": "view",
      "type": "function"
    },
    {
      "inputs": [
        {
          "internalType": "bytes32",
          "name": "tableId",
          "type": "bytes32"
        },
        {
          "internalType": "address",
          "name": "itemContract",
          "type": "address"
        },
        {
          "internalType": "uint256",
          "name": "itemId",
          "type": "uint256"
        }
      ],
      "name": "playItem",
      "outputs": [
        {
          "internalType": "bool",
          "name": "",
          "type": "bool"
        }
      ],
      "stateMutability": "nonpayable",
      "type": "function"
    },
    {
      "inputs": [
        {
          "internalType": "bytes32",
          "name": "id",
          "type": "bytes32"
        }
      ],
      "name": "players",
      "outputs": [
        {
          "internalType": "address[]",
          "name": "",
          "type": "address[]"
        }
      ],
      "stateMutability": "view",
      "type": "function"
    },
    {
      "inputs": [
        {
          "internalType": "bytes32",
          "name": "role",
          "type": "bytes32"
        },
        {
          "internalType": "address",
          "name": "account",
          "type": "address"
        }
      ],
      "name": "renounceRole",
      "outputs": [],
      "stateMutability": "nonpayable",
      "type": "function"
    },
    {
      "inputs": [
        {
          "internalType": "bytes32",
          "name": "role",
          "type": "bytes32"
        },
        {
          "internalType": "address",
          "name": "account",
          "type": "address"
        }
      ],
      "name": "revokeRole",
      "outputs": [],
      "stateMutability": "nonpayable",
      "type": "function"
    },
    {
      "inputs": [],
      "name": "rollTheDice",
      "outputs": [
        {
          "internalType": "uint256",
          "name": "",
          "type": "uint256"
        }
      ],
      "stateMutability": "nonpayable",
      "type": "function"
    },
    {
      "inputs": [],
      "name": "roller",
      "outputs": [
        {
          "internalType": "contract IDiceRoller",
          "name": "",
          "type": "address"
        }
      ],
      "stateMutability": "view",
      "type": "function"
    },
    {
      "inputs": [
        {
          "internalType": "uint256",
          "name": "",
          "type": "uint256"
        }
      ],
      "name": "rolls",
      "outputs": [
        {
          "internalType": "bytes32",
          "name": "",
          "type": "bytes32"
        }
      ],
      "stateMutability": "view",
      "type": "function"
    },
    {
      "inputs": [
        {
          "internalType": "bytes32",
          "name": "id",
          "type": "bytes32"
        }
      ],
      "name": "seeds",
      "outputs": [
        {
          "internalType": "bytes32[]",
          "name": "",
          "type": "bytes32[]"
        }
      ],
      "stateMutability": "view",
      "type": "function"
    },
    {
      "inputs": [
        {
          "internalType": "bytes32",
          "name": "id",
          "type": "bytes32"
        },
        {
          "internalType": "int64",
          "name": "x",
          "type": "int64"
        },
        {
          "internalType": "int64",
          "name": "y",
          "type": "int64"
        }
      ],
      "name": "setDestination",
      "outputs": [
        {
          "internalType": "bool",
          "name": "",
          "type": "bool"
        }
      ],
      "stateMutability": "nonpayable",
      "type": "function"
    },
    {
      "inputs": [
        {
          "internalType": "bytes32",
          "name": "id",
          "type": "bytes32"
        }
      ],
      "name": "start",
      "outputs": [
        {
          "internalType": "uint256",
          "name": "",
          "type": "uint256"
        }
      ],
      "stateMutability": "nonpayable",
      "type": "function"
    },
    {
      "inputs": [
        {
          "internalType": "bytes32",
          "name": "id",
          "type": "bytes32"
        },
        {
          "internalType": "address",
          "name": "playerAddress",
          "type": "address"
        }
      ],
      "name": "statsForPlayer",
      "outputs": [
        {
          "components": [
            {
              "internalType": "uint256",
              "name": "attack",
              "type": "uint256"
            },
            {
              "internalType": "uint256",
              "name": "defense",
              "type": "uint256"
            },
            {
              "internalType": "uint256",
              "name": "health",
              "type": "uint256"
            }
          ],
          "internalType": "struct DelphsTable.Stats",
          "name": "",
          "type": "tuple"
        }
      ],
      "stateMutability": "view",
      "type": "function"
    },
    {
      "inputs": [
        {
          "internalType": "bytes4",
          "name": "interfaceId",
          "type": "bytes4"
        }
      ],
      "name": "supportsInterface",
      "outputs": [
        {
          "internalType": "bool",
          "name": "",
          "type": "bool"
        }
      ],
      "stateMutability": "view",
      "type": "function"
    },
    {
      "inputs": [
        {
          "internalType": "bytes32",
          "name": "",
          "type": "bytes32"
        }
      ],
      "name": "tables",
      "outputs": [
        {
          "internalType": "bytes32",
          "name": "id",
          "type": "bytes32"
        },
        {
          "internalType": "address",
          "name": "owner",
          "type": "address"
        },
        {
          "internalType": "uint256",
          "name": "startedAt",
          "type": "uint256"
        },
        {
          "internalType": "uint256",
          "name": "gameLength",
          "type": "uint256"
        },
        {
          "internalType": "uint32",
          "name": "tableSize",
          "type": "uint32"
        },
        {
          "internalType": "uint32",
          "name": "wootgumpMultiplier",
          "type": "uint32"
        }
      ],
      "stateMutability": "view",
      "type": "function"
    }
  ],
  "transactionHash": "0x87badff1f98d6091232c04246b6c105ed847df4f421ee763ff99945631cd0d37",
  "args": [
    "0x7cC2757877Dc42F7216D3E8009cCB06f297BbAe7",
    "0x2AdD7b7f25CE6f1F48E40cD1c419934bE469d325",
    "0x6DE3D3747D54d0Adc11e5Cf678D4045B0441D332"
  ],
  "numDeployments": 5,
  "solcInputHash": "9b9469702cf694c225394cf79ee78c83",
  "bytecode": "0x60c06040523480156200001157600080fd5b5060405162001f7038038062001f708339810160408190526200003491620001b0565b6001600160a01b03808416608052821660a052620000737fa49807205ce4d355092ef5a8a18f56e8913cf4a201fbe287825b095693c217758262000089565b6200008060008262000089565b505050620001fa565b62000095828262000099565b5050565b6000828152602081815260408083206001600160a01b038516845290915290205460ff1662000095576000828152602081815260408083206001600160a01b03851684529091529020805460ff19166001179055620000f76200013b565b6001600160a01b0316816001600160a01b0316837f2f8788117e7eff1d82e926ec794901d17c78024a50270940304540a733656f0d60405160405180910390a45050565b6000620001526200015760201b620010fb1760201c565b905090565b6080516000906001600160a01b031633036200017a575060131936013560601c90565b620001526200018f60201b620011441760201c565b3390565b80516001600160a01b0381168114620001ab57600080fd5b919050565b600080600060608486031215620001c657600080fd5b620001d18462000193565b9250620001e16020850162000193565b9150620001f16040850162000193565b90509250925092565b60805160a051611d426200022e600039600081816102a00152610a3f01526000818161033001526110ff0152611d426000f3fe608060405234801561001057600080fd5b50600436106101cf5760003560e01c806375b238fc11610104578063ae383a4d116100a2578063d547741f11610071578063d547741f14610541578063e0e543d014610554578063f9bc31e114610574578063fec9adcf1461058757600080fd5b8063ae383a4d1461046e578063b115ce0d14610477578063b53e33af1461048a578063d3098b9a146104aa57600080fd5b8063907efe00116100de578063907efe00146103fe57806391d14854146104335780639424732e14610446578063a217fddf1461046657600080fd5b806375b238fc146103bc5780637d789dee146103e357806383f7fbf4146103eb57600080fd5b80632f09177d1161017157806336568abe1161014b57806336568abe1461030d578063572b6c05146103205780635d69f16c146103605780637213b8141461038057600080fd5b80632f09177d1461029b5780632f2ff15d146102da57806336150852146102ed57600080fd5b806303523938116101ad57806303523938146102325780631387013214610245578063248a9ca3146102585780632d1dc1221461027b57600080fd5b8063015a18ed146101d457806301728959146101fa57806301ffc9a71461020f575b600080fd5b6101e76101e2366004611523565b6105c0565b6040519081526020015b60405180910390f35b61020d61020836600461153c565b61067c565b005b61022261021d366004611578565b610693565b60405190151581526020016101f1565b6102226102403660046115b7565b6106ca565b610222610253366004611606565b610798565b6101e7610266366004611523565b60009081526020819052604090206001015490565b6101e7610289366004611523565b60036020526000908152604090205481565b6102c27f000000000000000000000000000000000000000000000000000000000000000081565b6040516001600160a01b0390911681526020016101f1565b61020d6102e8366004611642565b61088a565b6103006102fb366004611523565b6108b4565b6040516101f19190611672565b61020d61031b366004611642565b610919565b61022261032e3660046116b6565b7f00000000000000000000000000000000000000000000000000000000000000006001600160a01b0390811691161490565b6101e761036e366004611523565b60026020526000908152604090205481565b61039361038e3660046116d3565b6109a8565b604080516001600160a01b039094168452600792830b6020850152910b908201526060016101f1565b6101e77fa49807205ce4d355092ef5a8a18f56e8913cf4a201fbe287825b095693c2177581565b6101e7610a09565b61020d6103f936600461153c565b610b6a565b61041161040c366004611642565b610c54565b60408051825181526020808401519082015291810151908201526060016101f1565b610222610441366004611642565b610dee565b610459610454366004611523565b610e17565b6040516101f191906116ff565b6101e7600081565b6101e760015481565b610300610485366004611523565b610e85565b61049d610498366004611740565b610ee8565b6040516101f19190611762565b6105036104b8366004611523565b6006602052600090815260409020805460018201546002830154600384015460049094015492936001600160a01b039092169290919063ffffffff8082169164010000000090041686565b604080519687526001600160a01b03909516602087015293850192909252606084015263ffffffff90811660808401521660a082015260c0016101f1565b61020d61054f366004611642565b610f84565b610567610562366004611740565b610fa9565b6040516101f191906117c7565b610300610582366004611523565b61103d565b61059a6105953660046116d3565b6110a0565b604080516001600160a01b039485168152939092166020840152908201526060016101f1565b600081815260066020526040812060018101546001600160a01b03166105e4611148565b6001600160a01b03161461060a576040516282b42960e81b815260040160405180910390fd5b60028101541561062d57604051631fbde44560e01b815260040160405180910390fd5b6000600154600161063e919061183a565b60028301819055604051909150819085907f3a5803cb6dcb9c83b0584d712b7825e7e9fa6243be3cde9e798681f5c091e65c90600090a39392505050565b61068581610b6a565b61068f81356105c0565b5050565b60006001600160e01b03198216637965db0b60e01b14806106c457506301ffc9a760e01b6001600160e01b03198316145b92915050565b6000806106d5611148565b60008681526006602052604090209091506106f36005820183611152565b61070f576040516282b42960e81b815260040160405180910390fd5b50600094855260056020908152604080872060018054895290835281882082516060810184526001600160a01b03958616815297851688850190815292880196875280548083018255908952929097209551600390920290950180549183166001600160a01b031992831617815594518587018054919093169116179055505160029091015590565b6000806107a3611148565b60008681526006602052604090209091506107c16005820183611152565b6107dd576040516282b42960e81b815260040160405180910390fd5b50600094855260046020908152604080872060018054895290835281882082516060810184526001600160a01b039586168152600798890b8186019081529790980b92880192835280548083018255908952929097209551600290920290950180549451919092166001600160e01b031990941693909317600160a01b67ffffffffffffffff948516021781559251928401805467ffffffffffffffff1916939092169290921790555090565b6000828152602081905260409020600101546108a5816111bf565b6108af83836111d3565b505050565b60008181526006602081815260409283902090910180548351818402810184019094528084526060939283018282801561090d57602002820191906000526020600020905b8154815260200190600101908083116108f9575b50505050509050919050565b610921611148565b6001600160a01b0316816001600160a01b03161461099e5760405162461bcd60e51b815260206004820152602f60248201527f416363657373436f6e74726f6c3a2063616e206f6e6c792072656e6f756e636560448201526e103937b632b9903337b91039b2b63360891b60648201526084015b60405180910390fd5b61068f8282611258565b600460205282600052604060002060205281600052604060002081815481106109d057600080fd5b6000918252602090912060029091020180546001909101546001600160a01b0382169450600160a01b909104600790810b93500b905083565b600154600090815260036020526040812054439003610a3b576040516374f70e7960e11b815260040160405180910390fd5b60007f00000000000000000000000000000000000000000000000000000000000000006001600160a01b031663aacc5a176040518163ffffffff1660e01b8152600401602060405180830381865afa158015610a9b573d6000803e3d6000fd5b505050506040513d601f19601f82011682018060405250810190610abf9190611852565b905080600260006001546001610ad5919061183a565b81526020019081526020016000208190555043600360006001546001610afb919061183a565b81526020019081526020016000208190555060016000815480929190610b209061186b565b9190505550436001547f61a648c0140ef625babe35b3bc5ba2a28852bd10a17c53f6d9f3831b21096cd783604051610b5a91815260200190565b60405180910390a3505060015490565b604081013515610b8d57604051630f0b92ed60e21b815260040160405180910390fd5b610bb97fa49807205ce4d355092ef5a8a18f56e8913cf4a201fbe287825b095693c21775610441611148565b610bd5576040516282b42960e81b815260040160405180910390fd5b803560009081526006602052604090206005015415610c075760405163119b4fd360e11b815260040160405180910390fd5b803560009081526006602052604090208190610c238282611aa2565b50506040518135907fff39e0eaf58742100b3d96f355f818806f2c4c75c3fb9c8ff1101305924884fa90600090a250565b610c7860405180606001604052806000815260200160008152602001600081525090565b600083815260066020908152604080832060028082015485529092529091205480610cd45760405162461bcd60e51b815260206004820152600c60248201526b1b9bc81cdd185d1cc81e595d60a21b6044820152606401610995565b604080516060810190915280610d2583610d0e886080850160609190911b6001600160601b0319168152606160f81b601482015260150190565b6040516020818303038152906040526103e86112db565b610d31906101f461183a565b8152602001610d7f8387604051602001610d68919060609190911b6001600160601b0319168152601960fa1b601482015260150190565b6040516020818303038152906040526103206112db565b610d8a9060c861183a565b8152602001610dd88387604051602001610dc1919060609190911b6001600160601b0319168152600d60fb1b601482015260150190565b6040516020818303038152906040526102586112db565b610de39060c861183a565b905295945050505050565b6000918252602082815260408084206001600160a01b0393909316845291905290205460ff1690565b60008181526006602090815260409182902060050180548351818402810184019094528084526060939283018282801561090d57602002820191906000526020600020905b81546001600160a01b03168152600190910190602001808311610e5c5750505050509050919050565b60008181526006602090815260409182902060070180548351818402810184019094528084526060939283018282801561090d57602002820191906000526020600020908154815260200190600101908083116108f95750505050509050919050565b60008281526005602090815260408083208484528252808320805482518185028101850190935280835260609492939192909184015b82821015610f78576000848152602090819020604080516060810182526003860290920180546001600160a01b03908116845260018083015490911684860152600290910154918301919091529083529092019101610f1e565b50505050905092915050565b600082815260208190526040902060010154610f9f816111bf565b6108af8383611258565b60008281526004602090815260408083208484528252808320805482518185028101850190935280835260609492939192909184015b82821015610f78576000848152602090819020604080516060810182526002860290920180546001600160a01b0381168452600160a01b9004600790810b84860152600191820154900b918301919091529083529092019101610fdf565b60008181526006602090815260409182902060080180548351818402810184019094528084526060939283018282801561090d57602002820191906000526020600020908154815260200190600101908083116108f95750505050509050919050565b600560205282600052604060002060205281600052604060002081815481106110c857600080fd5b60009182526020909120600390910201805460018201546002909201546001600160a01b03918216955091169250905083565b60007f00000000000000000000000000000000000000000000000000000000000000006001600160a01b0316330361113a575060131936013560601c90565b503390565b905090565b3390565b600061113f6110fb565b8154600090815b818110156111b457836001600160a01b031685828154811061117d5761117d611bc3565b6000918252602090912001546001600160a01b0316036111a2576001925050506106c4565b806111ac8161186b565b915050611159565b506000949350505050565b6111d0816111cb611148565b61131c565b50565b6111dd8282610dee565b61068f576000828152602081815260408083206001600160a01b03851684529091529020805460ff19166001179055611214611148565b6001600160a01b0316816001600160a01b0316837f2f8788117e7eff1d82e926ec794901d17c78024a50270940304540a733656f0d60405160405180910390a45050565b6112628282610dee565b1561068f576000828152602081815260408083206001600160a01b03851684529091529020805460ff19169055611297611148565b6001600160a01b0316816001600160a01b0316837ff6391f5c32d9c69d2a47ea670b442974b53935d1edc7fd64eb21e047a839171b60405160405180910390a45050565b60008184846040516020016112f1929190611c05565b6040516020818303038152906040528051906020012060001c6113149190611c2b565b949350505050565b6113268282610dee565b61068f5761133e816001600160a01b03166014611380565b611349836020611380565b60405160200161135a929190611c4d565b60408051601f198184030181529082905262461bcd60e51b825261099591600401611cc2565b6060600061138f83600261190e565b61139a90600261183a565b67ffffffffffffffff8111156113b2576113b26118f8565b6040519080825280601f01601f1916602001820160405280156113dc576020820181803683370190505b509050600360fc1b816000815181106113f7576113f7611bc3565b60200101906001600160f81b031916908160001a905350600f60fb1b8160018151811061142657611426611bc3565b60200101906001600160f81b031916908160001a905350600061144a84600261190e565b61145590600161183a565b90505b60018111156114cd576f181899199a1a9b1b9c1cb0b131b232b360811b85600f166010811061148957611489611bc3565b1a60f81b82828151811061149f5761149f611bc3565b60200101906001600160f81b031916908160001a90535060049490941c936114c681611cf5565b9050611458565b50831561151c5760405162461bcd60e51b815260206004820181905260248201527f537472696e67733a20686578206c656e67746820696e73756666696369656e746044820152606401610995565b9392505050565b60006020828403121561153557600080fd5b5035919050565b60006020828403121561154e57600080fd5b813567ffffffffffffffff81111561156557600080fd5b8201610140818503121561151c57600080fd5b60006020828403121561158a57600080fd5b81356001600160e01b03198116811461151c57600080fd5b6001600160a01b03811681146111d057600080fd5b6000806000606084860312156115cc57600080fd5b8335925060208401356115de816115a2565b929592945050506040919091013590565b8035600781900b811461160157600080fd5b919050565b60008060006060848603121561161b57600080fd5b8335925061162b602085016115ef565b9150611639604085016115ef565b90509250925092565b6000806040838503121561165557600080fd5b823591506020830135611667816115a2565b809150509250929050565b6020808252825182820181905260009190848201906040850190845b818110156116aa5783518352928401929184019160010161168e565b50909695505050505050565b6000602082840312156116c857600080fd5b813561151c816115a2565b6000806000606084860312156116e857600080fd5b505081359360208301359350604090920135919050565b6020808252825182820181905260009190848201906040850190845b818110156116aa5783516001600160a01b03168352928401929184019160010161171b565b6000806040838503121561175357600080fd5b50508035926020909101359150565b602080825282518282018190526000919060409081850190868401855b828110156117ba57815180516001600160a01b039081168652878201511687860152850151858501526060909301929085019060010161177f565b5091979650505050505050565b602080825282518282018190526000919060409081850190868401855b828110156117ba57815180516001600160a01b0316855286810151600790810b8887015290860151900b85850152606090930192908501906001016117e4565b634e487b7160e01b600052601160045260246000fd5b6000821982111561184d5761184d611824565b500190565b60006020828403121561186457600080fd5b5051919050565b60006001820161187d5761187d611824565b5060010190565b600081356106c4816115a2565b6000813563ffffffff811681146106c457600080fd5b6000808335601e198436030181126118be57600080fd5b83018035915067ffffffffffffffff8211156118d957600080fd5b6020019150600581901b36038213156118f157600080fd5b9250929050565b634e487b7160e01b600052604160045260246000fd5b600081600019048311821515161561192857611928611824565b500290565b818310156108af576000818152602081208481019084015b8082101561195b57828255600182019150611945565b505050505050565b600160401b831115611977576119776118f8565b805483825561198784828461192d565b50818160005260208060002060005b868110156119d45783356119a9816115a2565b82546001600160a01b0319166001600160a01b03919091161782559282019260019182019101611996565b50505050505050565b600160401b8311156119f1576119f16118f8565b805483825580841015611a28576000828152602081208581019083015b80821015611a2457828255600182019150611a0e565b5050505b5060008181526020812083915b8581101561195b578235825560209092019160019182019101611a35565b600160401b831115611a6757611a676118f8565b8054838255611a7784828461192d565b50818160005260208060002060005b868110156119d457833582559282019260019182019101611a86565b81358155611ad9611ab560208401611884565b6001830180546001600160a01b0319166001600160a01b0392909216919091179055565b604082013560028201556060820135600382015560048101611b17611b0060808501611891565b825463ffffffff191663ffffffff91909116178255565b611b48611b2660a08501611891565b825467ffffffff00000000191660209190911b67ffffffff0000000016178255565b50611b5660c08301836118a7565b611b64818360058601611963565b5050611b7360e08301836118a7565b611b818183600686016119dd565b5050611b916101008301836118a7565b611b9f8183600786016119dd565b5050611baf6101208301836118a7565b611bbd818360088601611a53565b50505050565b634e487b7160e01b600052603260045260246000fd5b60005b83811015611bf4578181015183820152602001611bdc565b83811115611bbd5750506000910152565b82815260008251611c1d816020850160208701611bd9565b919091016020019392505050565b600082611c4857634e487b7160e01b600052601260045260246000fd5b500690565b7f416363657373436f6e74726f6c3a206163636f756e7420000000000000000000815260008351611c85816017850160208801611bd9565b7001034b99036b4b9b9b4b733903937b6329607d1b6017918401918201528351611cb6816028840160208801611bd9565b01602801949350505050565b6020815260008251806020840152611ce1816040850160208701611bd9565b601f01601f19169190910160400192915050565b600081611d0457611d04611824565b50600019019056fea26469706673582212203496f57ca718f27b593aa137aaf60f529350542a9d830eff460f2b53dfb3842564736f6c634300080e0033",
  "devdoc": {
    "kind": "dev",
    "methods": {
      "getRoleAdmin(bytes32)": {
        "details": "Returns the admin role that controls `role`. See {grantRole} and {revokeRole}. To change a role's admin, use {_setRoleAdmin}."
      },
      "grantRole(bytes32,address)": {
        "details": "Grants `role` to `account`. If `account` had not been already granted `role`, emits a {RoleGranted} event. Requirements: - the caller must have ``role``'s admin role."
      },
      "hasRole(bytes32,address)": {
        "details": "Returns `true` if `account` has been granted `role`."
      },
      "renounceRole(bytes32,address)": {
        "details": "Revokes `role` from the calling account. Roles are often managed via {grantRole} and {revokeRole}: this function's purpose is to provide a mechanism for accounts to lose their privileges if they are compromised (such as when a trusted device is misplaced). If the calling account had been revoked `role`, emits a {RoleRevoked} event. Requirements: - the caller must be `account`."
      },
      "revokeRole(bytes32,address)": {
        "details": "Revokes `role` from `account`. If `account` had been granted `role`, emits a {RoleRevoked} event. Requirements: - the caller must have ``role``'s admin role."
      },
      "supportsInterface(bytes4)": {
        "details": "See {IERC165-supportsInterface}."
      }
    },
    "version": 1
  },
  "userdoc": {
    "kind": "user",
    "methods": {},
    "version": 1
  },
  "storageLayout": {
    "storage": [
      {
        "astId": 24,
        "contract": "contracts/DelphsTable.sol:DelphsTable",
        "label": "_roles",
        "offset": 0,
        "slot": "0",
        "type": "t_mapping(t_bytes32,t_struct(RoleData)19_storage)"
      },
      {
        "astId": 4965,
        "contract": "contracts/DelphsTable.sol:DelphsTable",
        "label": "latestRoll",
        "offset": 0,
        "slot": "1",
        "type": "t_uint256"
      },
      {
        "astId": 4969,
        "contract": "contracts/DelphsTable.sol:DelphsTable",
        "label": "rolls",
        "offset": 0,
        "slot": "2",
        "type": "t_mapping(t_uint256,t_bytes32)"
      },
      {
        "astId": 4973,
        "contract": "contracts/DelphsTable.sol:DelphsTable",
        "label": "blockOfRoll",
        "offset": 0,
        "slot": "3",
        "type": "t_mapping(t_uint256,t_uint256)"
      },
      {
        "astId": 4981,
        "contract": "contracts/DelphsTable.sol:DelphsTable",
        "label": "destinations",
        "offset": 0,
        "slot": "4",
        "type": "t_mapping(t_bytes32,t_mapping(t_uint256,t_array(t_struct(Destination)5001_storage)dyn_storage))"
      },
      {
        "astId": 4989,
        "contract": "contracts/DelphsTable.sol:DelphsTable",
        "label": "itemPlays",
        "offset": 0,
        "slot": "5",
        "type": "t_mapping(t_bytes32,t_mapping(t_uint256,t_array(t_struct(ItemPlay)5008_storage)dyn_storage))"
      },
      {
        "astId": 4994,
        "contract": "contracts/DelphsTable.sol:DelphsTable",
        "label": "tables",
        "offset": 0,
        "slot": "6",
        "type": "t_mapping(t_bytes32,t_struct(Table)5033_storage)"
      }
    ],
    "types": {
      "t_address": {
        "encoding": "inplace",
        "label": "address",
        "numberOfBytes": "20"
      },
      "t_array(t_address)dyn_storage": {
        "base": "t_address",
        "encoding": "dynamic_array",
        "label": "address[]",
        "numberOfBytes": "32"
      },
      "t_array(t_bytes32)dyn_storage": {
        "base": "t_bytes32",
        "encoding": "dynamic_array",
        "label": "bytes32[]",
        "numberOfBytes": "32"
      },
      "t_array(t_struct(Destination)5001_storage)dyn_storage": {
        "base": "t_struct(Destination)5001_storage",
        "encoding": "dynamic_array",
        "label": "struct DelphsTable.Destination[]",
        "numberOfBytes": "32"
      },
      "t_array(t_struct(ItemPlay)5008_storage)dyn_storage": {
        "base": "t_struct(ItemPlay)5008_storage",
        "encoding": "dynamic_array",
        "label": "struct DelphsTable.ItemPlay[]",
        "numberOfBytes": "32"
      },
      "t_array(t_uint256)dyn_storage": {
        "base": "t_uint256",
        "encoding": "dynamic_array",
        "label": "uint256[]",
        "numberOfBytes": "32"
      },
      "t_bool": {
        "encoding": "inplace",
        "label": "bool",
        "numberOfBytes": "1"
      },
      "t_bytes32": {
        "encoding": "inplace",
        "label": "bytes32",
        "numberOfBytes": "32"
      },
      "t_int64": {
        "encoding": "inplace",
        "label": "int64",
        "numberOfBytes": "8"
      },
      "t_mapping(t_address,t_bool)": {
        "encoding": "mapping",
        "key": "t_address",
        "label": "mapping(address => bool)",
        "numberOfBytes": "32",
        "value": "t_bool"
      },
      "t_mapping(t_bytes32,t_mapping(t_uint256,t_array(t_struct(Destination)5001_storage)dyn_storage))": {
        "encoding": "mapping",
        "key": "t_bytes32",
        "label": "mapping(bytes32 => mapping(uint256 => struct DelphsTable.Destination[]))",
        "numberOfBytes": "32",
        "value": "t_mapping(t_uint256,t_array(t_struct(Destination)5001_storage)dyn_storage)"
      },
      "t_mapping(t_bytes32,t_mapping(t_uint256,t_array(t_struct(ItemPlay)5008_storage)dyn_storage))": {
        "encoding": "mapping",
        "key": "t_bytes32",
        "label": "mapping(bytes32 => mapping(uint256 => struct DelphsTable.ItemPlay[]))",
        "numberOfBytes": "32",
        "value": "t_mapping(t_uint256,t_array(t_struct(ItemPlay)5008_storage)dyn_storage)"
      },
      "t_mapping(t_bytes32,t_struct(RoleData)19_storage)": {
        "encoding": "mapping",
        "key": "t_bytes32",
        "label": "mapping(bytes32 => struct AccessControl.RoleData)",
        "numberOfBytes": "32",
        "value": "t_struct(RoleData)19_storage"
      },
      "t_mapping(t_bytes32,t_struct(Table)5033_storage)": {
        "encoding": "mapping",
        "key": "t_bytes32",
        "label": "mapping(bytes32 => struct DelphsTable.Table)",
        "numberOfBytes": "32",
        "value": "t_struct(Table)5033_storage"
      },
      "t_mapping(t_uint256,t_array(t_struct(Destination)5001_storage)dyn_storage)": {
        "encoding": "mapping",
        "key": "t_uint256",
        "label": "mapping(uint256 => struct DelphsTable.Destination[])",
        "numberOfBytes": "32",
        "value": "t_array(t_struct(Destination)5001_storage)dyn_storage"
      },
      "t_mapping(t_uint256,t_array(t_struct(ItemPlay)5008_storage)dyn_storage)": {
        "encoding": "mapping",
        "key": "t_uint256",
        "label": "mapping(uint256 => struct DelphsTable.ItemPlay[])",
        "numberOfBytes": "32",
        "value": "t_array(t_struct(ItemPlay)5008_storage)dyn_storage"
      },
      "t_mapping(t_uint256,t_bytes32)": {
        "encoding": "mapping",
        "key": "t_uint256",
        "label": "mapping(uint256 => bytes32)",
        "numberOfBytes": "32",
        "value": "t_bytes32"
      },
      "t_mapping(t_uint256,t_uint256)": {
        "encoding": "mapping",
        "key": "t_uint256",
        "label": "mapping(uint256 => uint256)",
        "numberOfBytes": "32",
        "value": "t_uint256"
      },
      "t_struct(Destination)5001_storage": {
        "encoding": "inplace",
        "label": "struct DelphsTable.Destination",
        "members": [
          {
            "astId": 4996,
            "contract": "contracts/DelphsTable.sol:DelphsTable",
            "label": "player",
            "offset": 0,
            "slot": "0",
            "type": "t_address"
          },
          {
            "astId": 4998,
            "contract": "contracts/DelphsTable.sol:DelphsTable",
            "label": "x",
            "offset": 20,
            "slot": "0",
            "type": "t_int64"
          },
          {
            "astId": 5000,
            "contract": "contracts/DelphsTable.sol:DelphsTable",
            "label": "y",
            "offset": 0,
            "slot": "1",
            "type": "t_int64"
          }
        ],
        "numberOfBytes": "64"
      },
      "t_struct(ItemPlay)5008_storage": {
        "encoding": "inplace",
        "label": "struct DelphsTable.ItemPlay",
        "members": [
          {
            "astId": 5003,
            "contract": "contracts/DelphsTable.sol:DelphsTable",
            "label": "player",
            "offset": 0,
            "slot": "0",
            "type": "t_address"
          },
          {
            "astId": 5005,
            "contract": "contracts/DelphsTable.sol:DelphsTable",
            "label": "itemContract",
            "offset": 0,
            "slot": "1",
            "type": "t_address"
          },
          {
            "astId": 5007,
            "contract": "contracts/DelphsTable.sol:DelphsTable",
            "label": "id",
            "offset": 0,
            "slot": "2",
            "type": "t_uint256"
          }
        ],
        "numberOfBytes": "96"
      },
      "t_struct(RoleData)19_storage": {
        "encoding": "inplace",
        "label": "struct AccessControl.RoleData",
        "members": [
          {
            "astId": 16,
            "contract": "contracts/DelphsTable.sol:DelphsTable",
            "label": "members",
            "offset": 0,
            "slot": "0",
            "type": "t_mapping(t_address,t_bool)"
          },
          {
            "astId": 18,
            "contract": "contracts/DelphsTable.sol:DelphsTable",
            "label": "adminRole",
            "offset": 0,
            "slot": "1",
            "type": "t_bytes32"
          }
        ],
        "numberOfBytes": "64"
      },
      "t_struct(Table)5033_storage": {
        "encoding": "inplace",
        "label": "struct DelphsTable.Table",
        "members": [
          {
            "astId": 5010,
            "contract": "contracts/DelphsTable.sol:DelphsTable",
            "label": "id",
            "offset": 0,
            "slot": "0",
            "type": "t_bytes32"
          },
          {
            "astId": 5012,
            "contract": "contracts/DelphsTable.sol:DelphsTable",
            "label": "owner",
            "offset": 0,
            "slot": "1",
            "type": "t_address"
          },
          {
            "astId": 5014,
            "contract": "contracts/DelphsTable.sol:DelphsTable",
            "label": "startedAt",
            "offset": 0,
            "slot": "2",
            "type": "t_uint256"
          },
          {
            "astId": 5016,
            "contract": "contracts/DelphsTable.sol:DelphsTable",
            "label": "gameLength",
            "offset": 0,
            "slot": "3",
            "type": "t_uint256"
          },
          {
            "astId": 5018,
            "contract": "contracts/DelphsTable.sol:DelphsTable",
            "label": "tableSize",
            "offset": 0,
            "slot": "4",
            "type": "t_uint32"
          },
          {
            "astId": 5020,
            "contract": "contracts/DelphsTable.sol:DelphsTable",
            "label": "wootgumpMultiplier",
            "offset": 4,
            "slot": "4",
            "type": "t_uint32"
          },
          {
            "astId": 5023,
            "contract": "contracts/DelphsTable.sol:DelphsTable",
            "label": "players",
            "offset": 0,
            "slot": "5",
            "type": "t_array(t_address)dyn_storage"
          },
          {
            "astId": 5026,
            "contract": "contracts/DelphsTable.sol:DelphsTable",
            "label": "seeds",
            "offset": 0,
            "slot": "6",
            "type": "t_array(t_bytes32)dyn_storage"
          },
          {
            "astId": 5029,
            "contract": "contracts/DelphsTable.sol:DelphsTable",
            "label": "attributes",
            "offset": 0,
            "slot": "7",
            "type": "t_array(t_bytes32)dyn_storage"
          },
          {
            "astId": 5032,
            "contract": "contracts/DelphsTable.sol:DelphsTable",
            "label": "initialGump",
            "offset": 0,
            "slot": "8",
            "type": "t_array(t_uint256)dyn_storage"
          }
        ],
        "numberOfBytes": "288"
      },
      "t_uint256": {
        "encoding": "inplace",
        "label": "uint256",
        "numberOfBytes": "32"
      },
      "t_uint32": {
        "encoding": "inplace",
        "label": "uint32",
        "numberOfBytes": "4"
      }
    }
  }
}