{
  "address": "0xB42F2Bb77574812Aa63c42458e413863A1b8d568",
  "abi": [
    {
      "inputs": [
        {
          "internalType": "address",
          "name": "trustedForwarder",
          "type": "address"
        },
        {
          "internalType": "address",
          "name": "wootgumpAddress",
          "type": "address"
        },
        {
          "internalType": "address",
          "name": "initialOwner",
          "type": "address"
        }
      ],
      "stateMutability": "nonpayable",
      "type": "constructor"
    },
    {
      "anonymous": false,
      "inputs": [
        {
          "indexed": true,
          "internalType": "address",
          "name": "owner",
          "type": "address"
        },
        {
          "indexed": true,
          "internalType": "address",
          "name": "spender",
          "type": "address"
        },
        {
          "indexed": false,
          "internalType": "uint256",
          "name": "value",
          "type": "uint256"
        }
      ],
      "name": "Approval",
      "type": "event"
    },
    {
      "anonymous": false,
      "inputs": [
        {
          "indexed": false,
          "internalType": "address",
          "name": "account",
          "type": "address"
        }
      ],
      "name": "Paused",
      "type": "event"
    },
    {
      "anonymous": false,
      "inputs": [
        {
          "indexed": true,
          "internalType": "bytes32",
          "name": "role",
          "type": "bytes32"
        },
        {
          "indexed": true,
          "internalType": "bytes32",
          "name": "previousAdminRole",
          "type": "bytes32"
        },
        {
          "indexed": true,
          "internalType": "bytes32",
          "name": "newAdminRole",
          "type": "bytes32"
        }
      ],
      "name": "RoleAdminChanged",
      "type": "event"
    },
    {
      "anonymous": false,
      "inputs": [
        {
          "indexed": true,
          "internalType": "bytes32",
          "name": "role",
          "type": "bytes32"
        },
        {
          "indexed": true,
          "internalType": "address",
          "name": "account",
          "type": "address"
        },
        {
          "indexed": true,
          "internalType": "address",
          "name": "sender",
          "type": "address"
        }
      ],
      "name": "RoleGranted",
      "type": "event"
    },
    {
      "anonymous": false,
      "inputs": [
        {
          "indexed": true,
          "internalType": "bytes32",
          "name": "role",
          "type": "bytes32"
        },
        {
          "indexed": true,
          "internalType": "address",
          "name": "account",
          "type": "address"
        },
        {
          "indexed": true,
          "internalType": "address",
          "name": "sender",
          "type": "address"
        }
      ],
      "name": "RoleRevoked",
      "type": "event"
    },
    {
      "anonymous": false,
      "inputs": [
        {
          "indexed": true,
          "internalType": "address",
          "name": "from",
          "type": "address"
        },
        {
          "indexed": true,
          "internalType": "address",
          "name": "to",
          "type": "address"
        },
        {
          "indexed": false,
          "internalType": "uint256",
          "name": "value",
          "type": "uint256"
        }
      ],
      "name": "Transfer",
      "type": "event"
    },
    {
      "anonymous": false,
      "inputs": [
        {
          "indexed": false,
          "internalType": "address",
          "name": "account",
          "type": "address"
        }
      ],
      "name": "Unpaused",
      "type": "event"
    },
    {
      "anonymous": false,
      "inputs": [
        {
          "indexed": true,
          "internalType": "address",
          "name": "account",
          "type": "address"
        },
        {
          "indexed": false,
          "internalType": "uint256",
          "name": "value",
          "type": "uint256"
        }
      ],
      "name": "Vest",
      "type": "event"
    },
    {
      "inputs": [],
      "name": "DEFAULT_ADMIN_ROLE",
      "outputs": [
        {
          "internalType": "bytes32",
          "name": "",
          "type": "bytes32"
        }
      ],
      "stateMutability": "view",
      "type": "function"
    },
    {
      "inputs": [],
      "name": "MINTER_ROLE",
      "outputs": [
        {
          "internalType": "bytes32",
          "name": "",
          "type": "bytes32"
        }
      ],
      "stateMutability": "view",
      "type": "function"
    },
    {
      "inputs": [],
      "name": "PAUSER_ROLE",
      "outputs": [
        {
          "internalType": "bytes32",
          "name": "",
          "type": "bytes32"
        }
      ],
      "stateMutability": "view",
      "type": "function"
    },
    {
      "inputs": [],
      "name": "VESTER_ROLE",
      "outputs": [
        {
          "internalType": "bytes32",
          "name": "",
          "type": "bytes32"
        }
      ],
      "stateMutability": "view",
      "type": "function"
    },
    {
      "inputs": [
        {
          "internalType": "address",
          "name": "owner",
          "type": "address"
        },
        {
          "internalType": "address",
          "name": "spender",
          "type": "address"
        }
      ],
      "name": "allowance",
      "outputs": [
        {
          "internalType": "uint256",
          "name": "",
          "type": "uint256"
        }
      ],
      "stateMutability": "view",
      "type": "function"
    },
    {
      "inputs": [
        {
          "internalType": "address",
          "name": "spender",
          "type": "address"
        },
        {
          "internalType": "uint256",
          "name": "amount",
          "type": "uint256"
        }
      ],
      "name": "approve",
      "outputs": [
        {
          "internalType": "bool",
          "name": "",
          "type": "bool"
        }
      ],
      "stateMutability": "nonpayable",
      "type": "function"
    },
    {
      "inputs": [
        {
          "internalType": "address",
          "name": "account",
          "type": "address"
        }
      ],
      "name": "balanceOf",
      "outputs": [
        {
          "internalType": "uint256",
          "name": "",
          "type": "uint256"
        }
      ],
      "stateMutability": "view",
      "type": "function"
    },
    {
      "inputs": [
        {
          "components": [
            {
              "internalType": "address",
              "name": "to",
              "type": "address"
            },
            {
              "internalType": "uint256",
              "name": "amount",
              "type": "uint256"
            }
          ],
          "internalType": "struct DelphsGump.BulkMint[]",
          "name": "burnInfo",
          "type": "tuple[]"
        }
      ],
      "name": "bulkBurn",
      "outputs": [
        {
          "internalType": "bool",
          "name": "",
          "type": "bool"
        }
      ],
      "stateMutability": "nonpayable",
      "type": "function"
    },
    {
      "inputs": [
        {
          "components": [
            {
              "internalType": "address",
              "name": "to",
              "type": "address"
            },
            {
              "internalType": "uint256",
              "name": "amount",
              "type": "uint256"
            }
          ],
          "internalType": "struct DelphsGump.BulkMint[]",
          "name": "mintInfo",
          "type": "tuple[]"
        }
      ],
      "name": "bulkMint",
      "outputs": [
        {
          "internalType": "bool",
          "name": "",
          "type": "bool"
        }
      ],
      "stateMutability": "nonpayable",
      "type": "function"
    },
    {
      "inputs": [
        {
          "internalType": "uint256",
          "name": "amount",
          "type": "uint256"
        }
      ],
      "name": "burn",
      "outputs": [],
      "stateMutability": "nonpayable",
      "type": "function"
    },
    {
      "inputs": [
        {
          "internalType": "address",
          "name": "to",
          "type": "address"
        },
        {
          "internalType": "uint256",
          "name": "amount",
          "type": "uint256"
        }
      ],
      "name": "burn",
      "outputs": [],
      "stateMutability": "nonpayable",
      "type": "function"
    },
    {
      "inputs": [
        {
          "internalType": "address",
          "name": "account",
          "type": "address"
        },
        {
          "internalType": "uint256",
          "name": "amount",
          "type": "uint256"
        }
      ],
      "name": "burnFrom",
      "outputs": [],
      "stateMutability": "nonpayable",
      "type": "function"
    },
    {
      "inputs": [],
      "name": "decimals",
      "outputs": [
        {
          "internalType": "uint8",
          "name": "",
          "type": "uint8"
        }
      ],
      "stateMutability": "view",
      "type": "function"
    },
    {
      "inputs": [
        {
          "internalType": "address",
          "name": "spender",
          "type": "address"
        },
        {
          "internalType": "uint256",
          "name": "subtractedValue",
          "type": "uint256"
        }
      ],
      "name": "decreaseAllowance",
      "outputs": [
        {
          "internalType": "bool",
          "name": "",
          "type": "bool"
        }
      ],
      "stateMutability": "nonpayable",
      "type": "function"
    },
    {
      "inputs": [
        {
          "internalType": "bytes32",
          "name": "role",
          "type": "bytes32"
        }
      ],
      "name": "getRoleAdmin",
      "outputs": [
        {
          "internalType": "bytes32",
          "name": "",
          "type": "bytes32"
        }
      ],
      "stateMutability": "view",
      "type": "function"
    },
    {
      "inputs": [
        {
          "internalType": "bytes32",
          "name": "role",
          "type": "bytes32"
        },
        {
          "internalType": "address",
          "name": "account",
          "type": "address"
        }
      ],
      "name": "grantRole",
      "outputs": [],
      "stateMutability": "nonpayable",
      "type": "function"
    },
    {
      "inputs": [
        {
          "internalType": "bytes32",
          "name": "role",
          "type": "bytes32"
        },
        {
          "internalType": "address",
          "name": "account",
          "type": "address"
        }
      ],
      "name": "hasRole",
      "outputs": [
        {
          "internalType": "bool",
          "name": "",
          "type": "bool"
        }
      ],
      "stateMutability": "view",
      "type": "function"
    },
    {
      "inputs": [
        {
          "internalType": "address",
          "name": "spender",
          "type": "address"
        },
        {
          "internalType": "uint256",
          "name": "addedValue",
          "type": "uint256"
        }
      ],
      "name": "increaseAllowance",
      "outputs": [
        {
          "internalType": "bool",
          "name": "",
          "type": "bool"
        }
      ],
      "stateMutability": "nonpayable",
      "type": "function"
    },
    {
      "inputs": [
        {
          "internalType": "address",
          "name": "forwarder",
          "type": "address"
        }
      ],
      "name": "isTrustedForwarder",
      "outputs": [
        {
          "internalType": "bool",
          "name": "",
          "type": "bool"
        }
      ],
      "stateMutability": "view",
      "type": "function"
    },
    {
      "inputs": [
        {
          "internalType": "address",
          "name": "",
          "type": "address"
        }
      ],
      "name": "lastVesting",
      "outputs": [
        {
          "internalType": "uint256",
          "name": "",
          "type": "uint256"
        }
      ],
      "stateMutability": "view",
      "type": "function"
    },
    {
      "inputs": [
        {
          "internalType": "address",
          "name": "to",
          "type": "address"
        },
        {
          "internalType": "uint256",
          "name": "amount",
          "type": "uint256"
        }
      ],
      "name": "mint",
      "outputs": [],
      "stateMutability": "nonpayable",
      "type": "function"
    },
    {
      "inputs": [],
      "name": "name",
      "outputs": [
        {
          "internalType": "string",
          "name": "",
          "type": "string"
        }
      ],
      "stateMutability": "view",
      "type": "function"
    },
    {
      "inputs": [],
      "name": "pause",
      "outputs": [],
      "stateMutability": "nonpayable",
      "type": "function"
    },
    {
      "inputs": [],
      "name": "paused",
      "outputs": [
        {
          "internalType": "bool",
          "name": "",
          "type": "bool"
        }
      ],
      "stateMutability": "view",
      "type": "function"
    },
    {
      "inputs": [],
      "name": "rateDenominator",
      "outputs": [
        {
          "internalType": "uint256",
          "name": "",
          "type": "uint256"
        }
      ],
      "stateMutability": "view",
      "type": "function"
    },
    {
      "inputs": [],
      "name": "rateOfWithdrawl",
      "outputs": [
        {
          "internalType": "uint256",
          "name": "",
          "type": "uint256"
        }
      ],
      "stateMutability": "view",
      "type": "function"
    },
    {
      "inputs": [
        {
          "internalType": "bytes32",
          "name": "role",
          "type": "bytes32"
        },
        {
          "internalType": "address",
          "name": "account",
          "type": "address"
        }
      ],
      "name": "renounceRole",
      "outputs": [],
      "stateMutability": "nonpayable",
      "type": "function"
    },
    {
      "inputs": [
        {
          "internalType": "bytes32",
          "name": "role",
          "type": "bytes32"
        },
        {
          "internalType": "address",
          "name": "account",
          "type": "address"
        }
      ],
      "name": "revokeRole",
      "outputs": [],
      "stateMutability": "nonpayable",
      "type": "function"
    },
    {
      "inputs": [
        {
          "internalType": "uint256",
          "name": "numerator",
          "type": "uint256"
        },
        {
          "internalType": "uint256",
          "name": "denominator",
          "type": "uint256"
        }
      ],
      "name": "setRateOfWithdrawl",
      "outputs": [],
      "stateMutability": "nonpayable",
      "type": "function"
    },
    {
      "inputs": [
        {
          "internalType": "bytes4",
          "name": "interfaceId",
          "type": "bytes4"
        }
      ],
      "name": "supportsInterface",
      "outputs": [
        {
          "internalType": "bool",
          "name": "",
          "type": "bool"
        }
      ],
      "stateMutability": "view",
      "type": "function"
    },
    {
      "inputs": [],
      "name": "symbol",
      "outputs": [
        {
          "internalType": "string",
          "name": "",
          "type": "string"
        }
      ],
      "stateMutability": "view",
      "type": "function"
    },
    {
      "inputs": [],
      "name": "totalSupply",
      "outputs": [
        {
          "internalType": "uint256",
          "name": "",
          "type": "uint256"
        }
      ],
      "stateMutability": "view",
      "type": "function"
    },
    {
      "inputs": [
        {
          "internalType": "address",
          "name": "to",
          "type": "address"
        },
        {
          "internalType": "uint256",
          "name": "amount",
          "type": "uint256"
        }
      ],
      "name": "transfer",
      "outputs": [
        {
          "internalType": "bool",
          "name": "",
          "type": "bool"
        }
      ],
      "stateMutability": "nonpayable",
      "type": "function"
    },
    {
      "inputs": [
        {
          "internalType": "address",
          "name": "from",
          "type": "address"
        },
        {
          "internalType": "address",
          "name": "to",
          "type": "address"
        },
        {
          "internalType": "uint256",
          "name": "amount",
          "type": "uint256"
        }
      ],
      "name": "transferFrom",
      "outputs": [
        {
          "internalType": "bool",
          "name": "",
          "type": "bool"
        }
      ],
      "stateMutability": "nonpayable",
      "type": "function"
    },
    {
      "inputs": [],
      "name": "unpause",
      "outputs": [],
      "stateMutability": "nonpayable",
      "type": "function"
    },
    {
      "inputs": [
        {
          "internalType": "address",
          "name": "account",
          "type": "address"
        }
      ],
      "name": "vest",
      "outputs": [],
      "stateMutability": "nonpayable",
      "type": "function"
    }
  ],
  "transactionHash": "0xc546f9320ca80878ea3d42344a6b4b8a9eafe4cd8b80d340451225ba8f04d459",
  "args": [
    "0x7cC2757877Dc42F7216D3E8009cCB06f297BbAe7",
    "0x8D1E200a2C572f9738f26554AAcbC2F9a462EF2D",
    "0x6DE3D3747D54d0Adc11e5Cf678D4045B0441D332"
  ],
  "numDeployments": 9,
  "solcInputHash": "16cb579d121865531ac3da50c6870aa8",
  "bytecode": "0x60a0604052606f600755629896806008553480156200001d57600080fd5b506040516200201d3803806200201d83398101604081905262000040916200033b565b604080518082018252600b81526a044656c7068732047756d760ac1b60208083019182528351808501909452600584526406447554d560dc1b90840152815186939162000091916003919062000278565b508051620000a790600490602084019062000278565b50506005805460ff19169055506001600160a01b0316608052620000cd60008262000179565b620000f97f65d7a28e3265b37a6474929f336521b332c1681b933f6cb9f3376673440d862a8262000179565b620001257f9f2df0fed2c77648de5860a4cc508cd0818c85b8b8a1ab4ceeef8d981c8956a68262000179565b620001517f64ed6499e2f5a7ea55dfd56da361bf9d48064843bb3891c36f1dabd9ba2461358262000179565b50600980546001600160a01b0319166001600160a01b039290921691909117905550620003c1565b60008281526006602090815260408083206001600160a01b038516845290915290205460ff166200021c5760008281526006602090815260408083206001600160a01b03851684529091529020805460ff19166001179055620001db62000220565b6001600160a01b0316816001600160a01b0316837f2f8788117e7eff1d82e926ec794901d17c78024a50270940304540a733656f0d60405160405180910390a45b5050565b6000620002376200023c60201b62000b351760201c565b905090565b6080516000906001600160a01b031633036200025f575060131936013560601c90565b620002376200027460201b62000b7e1760201c565b3390565b828054620002869062000385565b90600052602060002090601f016020900481019282620002aa5760008555620002f5565b82601f10620002c557805160ff1916838001178555620002f5565b82800160010185558215620002f5579182015b82811115620002f5578251825591602001919060010190620002d8565b506200030392915062000307565b5090565b5b8082111562000303576000815560010162000308565b80516001600160a01b03811681146200033657600080fd5b919050565b6000806000606084860312156200035157600080fd5b6200035c846200031e565b92506200036c602085016200031e565b91506200037c604085016200031e565b90509250925092565b600181811c908216806200039a57607f821691505b602082108103620003bb57634e487b7160e01b600052602260045260246000fd5b50919050565b608051611c39620003e4600039600081816103670152610b390152611c396000f3fe608060405234801561001057600080fd5b506004361061021c5760003560e01c806379cc679011610125578063a457c2d7116100ad578063d53913931161007c578063d5391393146104ae578063d547741f146104c3578063dd62ed3e146104d6578063e63ab1e9146104e9578063f3c5f51e1461051057600080fd5b8063a457c2d714610441578063a9059cbb14610454578063ae5ad22714610467578063d41f7f0d1461048e57600080fd5b8063942a4e15116100f4578063942a4e151461040257806395d89b411461040b5780639dc29fac146104135780639f52803814610426578063a217fddf1461043957600080fd5b806379cc6790146103cb5780638456cb59146103de578063865192f7146103e657806391d14854146103ef57600080fd5b806336568abe116101a857806342966c681161017757806342966c681461033157806356b0114d14610344578063572b6c05146103575780635c975abb1461039757806370a08231146103a257600080fd5b806336568abe146102f057806339509351146103035780633f4ba83a1461031657806340c10f191461031e57600080fd5b806323b872dd116101ef57806323b872dd14610283578063248a9ca3146102965780632f2ff15d146102b9578063313ce567146102ce57806333d98fd9146102dd57600080fd5b806301ffc9a71461022157806306fdde0314610249578063095ea7b31461025e57806318160ddd14610271575b600080fd5b61023461022f366004611826565b610523565b60405190151581526020015b60405180910390f35b61025161055a565b604051610240919061187c565b61023461026c3660046118cb565b6105ec565b6002545b604051908152602001610240565b6102346102913660046118f5565b61060e565b6102756102a4366004611931565b60009081526006602052604090206001015490565b6102cc6102c736600461194a565b61063c565b005b60405160128152602001610240565b6102346102eb366004611976565b610666565b6102cc6102fe36600461194a565b6106f6565b6102346103113660046118cb565b610789565b6102cc6107b5565b6102cc61032c3660046118cb565b6107ea565b6102cc61033f366004611931565b61080c565b610234610352366004611976565b61081d565b6102346103653660046119eb565b7f00000000000000000000000000000000000000000000000000000000000000006001600160a01b0390811691161490565b60055460ff16610234565b6102756103b03660046119eb565b6001600160a01b031660009081526020819052604090205490565b6102cc6103d93660046118cb565b6108de565b6102cc6108fa565b61027560085481565b6102346103fd36600461194a565b61092c565b61027560075481565b610251610957565b6102cc6104213660046118cb565b610966565b6102cc610434366004611a06565b610988565b610275600081565b61023461044f3660046118cb565b6109be565b6102346104623660046118cb565b610a44565b6102757f64ed6499e2f5a7ea55dfd56da361bf9d48064843bb3891c36f1dabd9ba24613581565b61027561049c3660046119eb565b600a6020526000908152604090205481565b610275600080516020611be483398151915281565b6102cc6104d136600461194a565b610a5c565b6102756104e4366004611a28565b610a81565b6102757f65d7a28e3265b37a6474929f336521b332c1681b933f6cb9f3376673440d862a81565b6102cc61051e3660046119eb565b610aac565b60006001600160e01b03198216637965db0b60e01b148061055457506301ffc9a760e01b6001600160e01b03198316145b92915050565b60606003805461056990611a52565b80601f016020809104026020016040519081016040528092919081815260200182805461059590611a52565b80156105e25780601f106105b7576101008083540402835291602001916105e2565b820191906000526020600020905b8154815290600101906020018083116105c557829003601f168201915b5050505050905090565b6000806105f7610b82565b9050610604818585610b8c565b5060019392505050565b600080610619610b82565b9050610626858285610cb0565b610631858585610d2a565b506001949350505050565b60008281526006602052604090206001015461065781610f09565b6106618383610f1a565b505050565b6000600080516020611be483398151915261068081610f09565b8260005b818110156106ea576106d88686838181106106a1576106a1611a8c565b6106b792602060409092020190810191506119eb565b8787848181106106c9576106c9611a8c565b90506040020160200135610fa1565b806106e281611ab8565b915050610684565b50600195945050505050565b6106fe610b82565b6001600160a01b0316816001600160a01b03161461077b5760405162461bcd60e51b815260206004820152602f60248201527f416363657373436f6e74726f6c3a2063616e206f6e6c792072656e6f756e636560448201526e103937b632b9903337b91039b2b63360891b60648201526084015b60405180910390fd5b6107858282611094565b5050565b600080610794610b82565b90506106048185856107a68589610a81565b6107b09190611ad1565b610b8c565b7f65d7a28e3265b37a6474929f336521b332c1681b933f6cb9f3376673440d862a6107df81610f09565b6107e7611119565b50565b600080516020611be483398151915261080281610f09565b6106618383610fa1565b6107e7610817610b82565b826111b2565b6000600080516020611be483398151915261083781610f09565b8260005b818110156106ea57600086868381811061085757610857611a8c565b61086d92602060409092020190810191506119eb565b9050600087878481811061088357610883611a8c565b90506040020160200135905060006108b0836001600160a01b031660009081526020819052604090205490565b9050808211156108be578091505b6108c883836111b2565b50505080806108d690611ab8565b91505061083b565b6108f0826108ea610b82565b83610cb0565b61078582826111b2565b7f65d7a28e3265b37a6474929f336521b332c1681b933f6cb9f3376673440d862a61092481610f09565b6107e7611313565b60009182526006602090815260408084206001600160a01b0393909316845291905290205460ff1690565b60606004805461056990611a52565b600080516020611be483398151915261097e81610f09565b61066183836111b2565b7f64ed6499e2f5a7ea55dfd56da361bf9d48064843bb3891c36f1dabd9ba2461356109b281610f09565b50600791909155600855565b6000806109c9610b82565b905060006109d78286610a81565b905083811015610a375760405162461bcd60e51b815260206004820152602560248201527f45524332303a2064656372656173656420616c6c6f77616e63652062656c6f77604482015264207a65726f60d81b6064820152608401610772565b6106318286868403610b8c565b600080610a4f610b82565b9050610604818585610d2a565b600082815260066020526040902060010154610a7781610f09565b6106618383611094565b6001600160a01b03918216600090815260016020908152604080832093909416825291909152205490565b7f64ed6499e2f5a7ea55dfd56da361bf9d48064843bb3891c36f1dabd9ba246135610ad681610f09565b6001600160a01b0382166000908152600a60205260408120549003610b2c5760405162461bcd60e51b815260206004820152600c60248201526b1b9bc81b185cdd081d995cdd60a21b6044820152606401610772565b6107858261138f565b60007f00000000000000000000000000000000000000000000000000000000000000006001600160a01b03163303610b74575060131936013560601c90565b503390565b905090565b3390565b6000610b79610b35565b6001600160a01b038316610bee5760405162461bcd60e51b8152602060048201526024808201527f45524332303a20617070726f76652066726f6d20746865207a65726f206164646044820152637265737360e01b6064820152608401610772565b6001600160a01b038216610c4f5760405162461bcd60e51b815260206004820152602260248201527f45524332303a20617070726f766520746f20746865207a65726f206164647265604482015261737360f01b6064820152608401610772565b6001600160a01b0383811660008181526001602090815260408083209487168084529482529182902085905590518481527f8c5be1e5ebec7d5bd14f71427d1e84f3dd0314c0f7b2291e5b200ac8c7c3b925910160405180910390a3505050565b6000610cbc8484610a81565b90506000198114610d245781811015610d175760405162461bcd60e51b815260206004820152601d60248201527f45524332303a20696e73756666696369656e7420616c6c6f77616e63650000006044820152606401610772565b610d248484848403610b8c565b50505050565b6001600160a01b038316610d8e5760405162461bcd60e51b815260206004820152602560248201527f45524332303a207472616e736665722066726f6d20746865207a65726f206164604482015264647265737360d81b6064820152608401610772565b6001600160a01b038216610df05760405162461bcd60e51b815260206004820152602360248201527f45524332303a207472616e7366657220746f20746865207a65726f206164647260448201526265737360e81b6064820152608401610772565b610dfb8383836114d3565b6001600160a01b03831660009081526020819052604090205481811015610e735760405162461bcd60e51b815260206004820152602660248201527f45524332303a207472616e7366657220616d6f756e7420657863656564732062604482015265616c616e636560d01b6064820152608401610772565b6001600160a01b03808516600090815260208190526040808220858503905591851681529081208054849290610eaa908490611ad1565b92505081905550826001600160a01b0316846001600160a01b03167fddf252ad1be2c89b69c2b068fc378daa952ba7f163c4a11628f55a4df523b3ef84604051610ef691815260200190565b60405180910390a3610d24848484611525565b6107e781610f15610b82565b61153c565b610f24828261092c565b6107855760008281526006602090815260408083206001600160a01b03851684529091529020805460ff19166001179055610f5d610b82565b6001600160a01b0316816001600160a01b0316837f2f8788117e7eff1d82e926ec794901d17c78024a50270940304540a733656f0d60405160405180910390a45050565b6001600160a01b038216610ff75760405162461bcd60e51b815260206004820152601f60248201527f45524332303a206d696e7420746f20746865207a65726f2061646472657373006044820152606401610772565b611003600083836114d3565b80600260008282546110159190611ad1565b90915550506001600160a01b03821660009081526020819052604081208054839290611042908490611ad1565b90915550506040518181526001600160a01b038316906000907fddf252ad1be2c89b69c2b068fc378daa952ba7f163c4a11628f55a4df523b3ef9060200160405180910390a361078560008383611525565b61109e828261092c565b156107855760008281526006602090815260408083206001600160a01b03851684529091529020805460ff191690556110d5610b82565b6001600160a01b0316816001600160a01b0316837ff6391f5c32d9c69d2a47ea670b442974b53935d1edc7fd64eb21e047a839171b60405160405180910390a45050565b60055460ff166111625760405162461bcd60e51b815260206004820152601460248201527314185d5cd8589b194e881b9bdd081c185d5cd95960621b6044820152606401610772565b6005805460ff191690557f5db9ee0a495bf2e6ff9c91a7834c1ba4fdd244a5e8aa4e537bd38aeae4b073aa611195610b82565b6040516001600160a01b03909116815260200160405180910390a1565b6001600160a01b0382166112125760405162461bcd60e51b815260206004820152602160248201527f45524332303a206275726e2066726f6d20746865207a65726f206164647265736044820152607360f81b6064820152608401610772565b61121e826000836114d3565b6001600160a01b038216600090815260208190526040902054818110156112925760405162461bcd60e51b815260206004820152602260248201527f45524332303a206275726e20616d6f756e7420657863656564732062616c616e604482015261636560f01b6064820152608401610772565b6001600160a01b03831660009081526020819052604081208383039055600280548492906112c1908490611ae9565b90915550506040518281526000906001600160a01b038516907fddf252ad1be2c89b69c2b068fc378daa952ba7f163c4a11628f55a4df523b3ef9060200160405180910390a361066183600084611525565b60055460ff16156113595760405162461bcd60e51b815260206004820152601060248201526f14185d5cd8589b194e881c185d5cd95960821b6044820152606401610772565b6005805460ff191660011790557f62e78cea01bee320cd4e420270b5ea74000d11b0c9f74754ebdbfc544b05a258611195610b82565b6001600160a01b038116600090815260208190526040812054908190036113b4575050565b6001600160a01b0382166000908152600a6020526040812054906113d88243611ae9565b9050806000036113e85750505050565b60006113f484836115a0565b905060006114028286611ae9565b6001600160a01b0387166000818152600a60205260409081902043905551919250907fd4a50953e9ae2104f507446be8391c79b33e1e86e626473e34bb79eb5fea1f3e906114539084815260200190565b60405180910390a261146586826111b2565b6009546040516340c10f1960e01b81526001600160a01b03888116600483015260248201849052909116906340c10f1990604401600060405180830381600087803b1580156114b357600080fd5b505af11580156114c7573d6000803e3d6000fd5b50505050505050505050565b6001600160a01b038316610661576001600160a01b0382166000908152600a6020526040812054900361151c576001600160a01b0382166000908152600a602052604090204390555b6106618261138f565b6001600160a01b038216610661576106618361138f565b611546828261092c565b6107855761155e816001600160a01b03166014611683565b611569836020611683565b60405160200161157a929190611b00565b60408051601f198184030181529082905262461bcd60e51b82526107729160040161187c565b600754600854600091906001836115b96103e887611b75565b90505b6000811180156115e057506103e86115d48382611b97565b6115de9088611ae9565b115b1561161057816115ef81611ab8565b92506115ff9050826103e8611b97565b6116099087611b75565b90506115bc565b60006103e88710611623576103e8611625565b865b9050600084826116358689611b97565b61163f9190611b97565b611649908b611b97565b6116539190611b75565b90508881111561166c5760009650505050505050610554565b611676818a611ae9565b9998505050505050505050565b60606000611692836002611b97565b61169d906002611ad1565b67ffffffffffffffff8111156116b5576116b5611bb6565b6040519080825280601f01601f1916602001820160405280156116df576020820181803683370190505b509050600360fc1b816000815181106116fa576116fa611a8c565b60200101906001600160f81b031916908160001a905350600f60fb1b8160018151811061172957611729611a8c565b60200101906001600160f81b031916908160001a905350600061174d846002611b97565b611758906001611ad1565b90505b60018111156117d0576f181899199a1a9b1b9c1cb0b131b232b360811b85600f166010811061178c5761178c611a8c565b1a60f81b8282815181106117a2576117a2611a8c565b60200101906001600160f81b031916908160001a90535060049490941c936117c981611bcc565b905061175b565b50831561181f5760405162461bcd60e51b815260206004820181905260248201527f537472696e67733a20686578206c656e67746820696e73756666696369656e746044820152606401610772565b9392505050565b60006020828403121561183857600080fd5b81356001600160e01b03198116811461181f57600080fd5b60005b8381101561186b578181015183820152602001611853565b83811115610d245750506000910152565b602081526000825180602084015261189b816040850160208701611850565b601f01601f19169190910160400192915050565b80356001600160a01b03811681146118c657600080fd5b919050565b600080604083850312156118de57600080fd5b6118e7836118af565b946020939093013593505050565b60008060006060848603121561190a57600080fd5b611913846118af565b9250611921602085016118af565b9150604084013590509250925092565b60006020828403121561194357600080fd5b5035919050565b6000806040838503121561195d57600080fd5b8235915061196d602084016118af565b90509250929050565b6000806020838503121561198957600080fd5b823567ffffffffffffffff808211156119a157600080fd5b818501915085601f8301126119b557600080fd5b8135818111156119c457600080fd5b8660208260061b85010111156119d957600080fd5b60209290920196919550909350505050565b6000602082840312156119fd57600080fd5b61181f826118af565b60008060408385031215611a1957600080fd5b50508035926020909101359150565b60008060408385031215611a3b57600080fd5b611a44836118af565b915061196d602084016118af565b600181811c90821680611a6657607f821691505b602082108103611a8657634e487b7160e01b600052602260045260246000fd5b50919050565b634e487b7160e01b600052603260045260246000fd5b634e487b7160e01b600052601160045260246000fd5b600060018201611aca57611aca611aa2565b5060010190565b60008219821115611ae457611ae4611aa2565b500190565b600082821015611afb57611afb611aa2565b500390565b7f416363657373436f6e74726f6c3a206163636f756e7420000000000000000000815260008351611b38816017850160208801611850565b7001034b99036b4b9b9b4b733903937b6329607d1b6017918401918201528351611b69816028840160208801611850565b01602801949350505050565b600082611b9257634e487b7160e01b600052601260045260246000fd5b500490565b6000816000190483118215151615611bb157611bb1611aa2565b500290565b634e487b7160e01b600052604160045260246000fd5b600081611bdb57611bdb611aa2565b50600019019056fe9f2df0fed2c77648de5860a4cc508cd0818c85b8b8a1ab4ceeef8d981c8956a6a264697066735822122050f0b50962a79f1d9de488492966ca1e777ee31efad812d3c1392e423b41b94e64736f6c634300080e0033",
  "devdoc": {
    "kind": "dev",
    "methods": {
      "allowance(address,address)": {
        "details": "See {IERC20-allowance}."
      },
      "approve(address,uint256)": {
        "details": "See {IERC20-approve}. NOTE: If `amount` is the maximum `uint256`, the allowance is not updated on `transferFrom`. This is semantically equivalent to an infinite approval. Requirements: - `spender` cannot be the zero address."
      },
      "balanceOf(address)": {
        "details": "See {IERC20-balanceOf}."
      },
      "burn(uint256)": {
        "details": "Destroys `amount` tokens from the caller. See {ERC20-_burn}."
      },
      "burnFrom(address,uint256)": {
        "details": "Destroys `amount` tokens from `account`, deducting from the caller's allowance. See {ERC20-_burn} and {ERC20-allowance}. Requirements: - the caller must have allowance for ``accounts``'s tokens of at least `amount`."
      },
      "decimals()": {
        "details": "Returns the number of decimals used to get its user representation. For example, if `decimals` equals `2`, a balance of `505` tokens should be displayed to a user as `5.05` (`505 / 10 ** 2`). Tokens usually opt for a value of 18, imitating the relationship between Ether and Wei. This is the value {ERC20} uses, unless this function is overridden; NOTE: This information is only used for _display_ purposes: it in no way affects any of the arithmetic of the contract, including {IERC20-balanceOf} and {IERC20-transfer}."
      },
      "decreaseAllowance(address,uint256)": {
        "details": "Atomically decreases the allowance granted to `spender` by the caller. This is an alternative to {approve} that can be used as a mitigation for problems described in {IERC20-approve}. Emits an {Approval} event indicating the updated allowance. Requirements: - `spender` cannot be the zero address. - `spender` must have allowance for the caller of at least `subtractedValue`."
      },
      "getRoleAdmin(bytes32)": {
        "details": "Returns the admin role that controls `role`. See {grantRole} and {revokeRole}. To change a role's admin, use {_setRoleAdmin}."
      },
      "grantRole(bytes32,address)": {
        "details": "Grants `role` to `account`. If `account` had not been already granted `role`, emits a {RoleGranted} event. Requirements: - the caller must have ``role``'s admin role."
      },
      "hasRole(bytes32,address)": {
        "details": "Returns `true` if `account` has been granted `role`."
      },
      "increaseAllowance(address,uint256)": {
        "details": "Atomically increases the allowance granted to `spender` by the caller. This is an alternative to {approve} that can be used as a mitigation for problems described in {IERC20-approve}. Emits an {Approval} event indicating the updated allowance. Requirements: - `spender` cannot be the zero address."
      },
      "name()": {
        "details": "Returns the name of the token."
      },
      "paused()": {
        "details": "Returns true if the contract is paused, and false otherwise."
      },
      "renounceRole(bytes32,address)": {
        "details": "Revokes `role` from the calling account. Roles are often managed via {grantRole} and {revokeRole}: this function's purpose is to provide a mechanism for accounts to lose their privileges if they are compromised (such as when a trusted device is misplaced). If the calling account had been revoked `role`, emits a {RoleRevoked} event. Requirements: - the caller must be `account`."
      },
      "revokeRole(bytes32,address)": {
        "details": "Revokes `role` from `account`. If `account` had been granted `role`, emits a {RoleRevoked} event. Requirements: - the caller must have ``role``'s admin role."
      },
      "supportsInterface(bytes4)": {
        "details": "See {IERC165-supportsInterface}."
      },
      "symbol()": {
        "details": "Returns the symbol of the token, usually a shorter version of the name."
      },
      "totalSupply()": {
        "details": "See {IERC20-totalSupply}."
      },
      "transfer(address,uint256)": {
        "details": "See {IERC20-transfer}. Requirements: - `to` cannot be the zero address. - the caller must have a balance of at least `amount`."
      },
      "transferFrom(address,address,uint256)": {
        "details": "See {IERC20-transferFrom}. Emits an {Approval} event indicating the updated allowance. This is not required by the EIP. See the note at the beginning of {ERC20}. NOTE: Does not update the allowance if the current allowance is the maximum `uint256`. Requirements: - `from` and `to` cannot be the zero address. - `from` must have a balance of at least `amount`. - the caller must have allowance for ``from``'s tokens of at least `amount`."
      }
    },
    "version": 1
  },
  "userdoc": {
    "kind": "user",
    "methods": {
      "setRateOfWithdrawl(uint256,uint256)": {
        "notice": "set the rate at which Delph's Gump can become Wootgump (this is a per-block rate)cal"
      }
    },
    "version": 1
  },
  "storageLayout": {
    "storage": [
      {
        "astId": 2137,
        "contract": "contracts/DelphsGump.sol:DelphsGump",
        "label": "_balances",
        "offset": 0,
        "slot": "0",
        "type": "t_mapping(t_address,t_uint256)"
      },
      {
        "astId": 2143,
        "contract": "contracts/DelphsGump.sol:DelphsGump",
        "label": "_allowances",
        "offset": 0,
        "slot": "1",
        "type": "t_mapping(t_address,t_mapping(t_address,t_uint256))"
      },
      {
        "astId": 2145,
        "contract": "contracts/DelphsGump.sol:DelphsGump",
        "label": "_totalSupply",
        "offset": 0,
        "slot": "2",
        "type": "t_uint256"
      },
      {
        "astId": 2147,
        "contract": "contracts/DelphsGump.sol:DelphsGump",
        "label": "_name",
        "offset": 0,
        "slot": "3",
        "type": "t_string_storage"
      },
      {
        "astId": 2149,
        "contract": "contracts/DelphsGump.sol:DelphsGump",
        "label": "_symbol",
        "offset": 0,
        "slot": "4",
        "type": "t_string_storage"
      },
      {
        "astId": 489,
        "contract": "contracts/DelphsGump.sol:DelphsGump",
        "label": "_paused",
        "offset": 0,
        "slot": "5",
        "type": "t_bool"
      },
      {
        "astId": 24,
        "contract": "contracts/DelphsGump.sol:DelphsGump",
        "label": "_roles",
        "offset": 0,
        "slot": "6",
        "type": "t_mapping(t_bytes32,t_struct(RoleData)19_storage)"
      },
      {
        "astId": 4415,
        "contract": "contracts/DelphsGump.sol:DelphsGump",
        "label": "rateOfWithdrawl",
        "offset": 0,
        "slot": "7",
        "type": "t_uint256"
      },
      {
        "astId": 4420,
        "contract": "contracts/DelphsGump.sol:DelphsGump",
        "label": "rateDenominator",
        "offset": 0,
        "slot": "8",
        "type": "t_uint256"
      },
      {
        "astId": 4426,
        "contract": "contracts/DelphsGump.sol:DelphsGump",
        "label": "_wootgump",
        "offset": 0,
        "slot": "9",
        "type": "t_contract(IERC20Minter)7713"
      },
      {
        "astId": 4430,
        "contract": "contracts/DelphsGump.sol:DelphsGump",
        "label": "lastVesting",
        "offset": 0,
        "slot": "10",
        "type": "t_mapping(t_address,t_uint256)"
      }
    ],
    "types": {
      "t_address": {
        "encoding": "inplace",
        "label": "address",
        "numberOfBytes": "20"
      },
      "t_bool": {
        "encoding": "inplace",
        "label": "bool",
        "numberOfBytes": "1"
      },
      "t_bytes32": {
        "encoding": "inplace",
        "label": "bytes32",
        "numberOfBytes": "32"
      },
      "t_contract(IERC20Minter)7713": {
        "encoding": "inplace",
        "label": "contract IERC20Minter",
        "numberOfBytes": "20"
      },
      "t_mapping(t_address,t_bool)": {
        "encoding": "mapping",
        "key": "t_address",
        "label": "mapping(address => bool)",
        "numberOfBytes": "32",
        "value": "t_bool"
      },
      "t_mapping(t_address,t_mapping(t_address,t_uint256))": {
        "encoding": "mapping",
        "key": "t_address",
        "label": "mapping(address => mapping(address => uint256))",
        "numberOfBytes": "32",
        "value": "t_mapping(t_address,t_uint256)"
      },
      "t_mapping(t_address,t_uint256)": {
        "encoding": "mapping",
        "key": "t_address",
        "label": "mapping(address => uint256)",
        "numberOfBytes": "32",
        "value": "t_uint256"
      },
      "t_mapping(t_bytes32,t_struct(RoleData)19_storage)": {
        "encoding": "mapping",
        "key": "t_bytes32",
        "label": "mapping(bytes32 => struct AccessControl.RoleData)",
        "numberOfBytes": "32",
        "value": "t_struct(RoleData)19_storage"
      },
      "t_string_storage": {
        "encoding": "bytes",
        "label": "string",
        "numberOfBytes": "32"
      },
      "t_struct(RoleData)19_storage": {
        "encoding": "inplace",
        "label": "struct AccessControl.RoleData",
        "members": [
          {
            "astId": 16,
            "contract": "contracts/DelphsGump.sol:DelphsGump",
            "label": "members",
            "offset": 0,
            "slot": "0",
            "type": "t_mapping(t_address,t_bool)"
          },
          {
            "astId": 18,
            "contract": "contracts/DelphsGump.sol:DelphsGump",
            "label": "adminRole",
            "offset": 0,
            "slot": "1",
            "type": "t_bytes32"
          }
        ],
        "numberOfBytes": "64"
      },
      "t_uint256": {
        "encoding": "inplace",
        "label": "uint256",
        "numberOfBytes": "32"
      }
    }
  }
}