{
  "address": "0xdD2048Ac654DbC5868E816516a3054190CF0cE87",
  "abi": [
    {
      "inputs": [
        {
          "internalType": "address",
          "name": "trustedForwarder",
          "type": "address"
        },
        {
          "internalType": "address",
          "name": "wootgumpAddress",
          "type": "address"
        },
        {
          "internalType": "address",
          "name": "initialOwner",
          "type": "address"
        }
      ],
      "stateMutability": "nonpayable",
      "type": "constructor"
    },
    {
      "anonymous": false,
      "inputs": [
        {
          "indexed": true,
          "internalType": "address",
          "name": "owner",
          "type": "address"
        },
        {
          "indexed": true,
          "internalType": "address",
          "name": "spender",
          "type": "address"
        },
        {
          "indexed": false,
          "internalType": "uint256",
          "name": "value",
          "type": "uint256"
        }
      ],
      "name": "Approval",
      "type": "event"
    },
    {
      "anonymous": false,
      "inputs": [
        {
          "indexed": false,
          "internalType": "address",
          "name": "account",
          "type": "address"
        }
      ],
      "name": "Paused",
      "type": "event"
    },
    {
      "anonymous": false,
      "inputs": [
        {
          "indexed": true,
          "internalType": "bytes32",
          "name": "role",
          "type": "bytes32"
        },
        {
          "indexed": true,
          "internalType": "bytes32",
          "name": "previousAdminRole",
          "type": "bytes32"
        },
        {
          "indexed": true,
          "internalType": "bytes32",
          "name": "newAdminRole",
          "type": "bytes32"
        }
      ],
      "name": "RoleAdminChanged",
      "type": "event"
    },
    {
      "anonymous": false,
      "inputs": [
        {
          "indexed": true,
          "internalType": "bytes32",
          "name": "role",
          "type": "bytes32"
        },
        {
          "indexed": true,
          "internalType": "address",
          "name": "account",
          "type": "address"
        },
        {
          "indexed": true,
          "internalType": "address",
          "name": "sender",
          "type": "address"
        }
      ],
      "name": "RoleGranted",
      "type": "event"
    },
    {
      "anonymous": false,
      "inputs": [
        {
          "indexed": true,
          "internalType": "bytes32",
          "name": "role",
          "type": "bytes32"
        },
        {
          "indexed": true,
          "internalType": "address",
          "name": "account",
          "type": "address"
        },
        {
          "indexed": true,
          "internalType": "address",
          "name": "sender",
          "type": "address"
        }
      ],
      "name": "RoleRevoked",
      "type": "event"
    },
    {
      "anonymous": false,
      "inputs": [
        {
          "indexed": true,
          "internalType": "address",
          "name": "from",
          "type": "address"
        },
        {
          "indexed": true,
          "internalType": "address",
          "name": "to",
          "type": "address"
        },
        {
          "indexed": false,
          "internalType": "uint256",
          "name": "value",
          "type": "uint256"
        }
      ],
      "name": "Transfer",
      "type": "event"
    },
    {
      "anonymous": false,
      "inputs": [
        {
          "indexed": false,
          "internalType": "address",
          "name": "account",
          "type": "address"
        }
      ],
      "name": "Unpaused",
      "type": "event"
    },
    {
      "inputs": [],
      "name": "DEFAULT_ADMIN_ROLE",
      "outputs": [
        {
          "internalType": "bytes32",
          "name": "",
          "type": "bytes32"
        }
      ],
      "stateMutability": "view",
      "type": "function"
    },
    {
      "inputs": [],
      "name": "MINTER_ROLE",
      "outputs": [
        {
          "internalType": "bytes32",
          "name": "",
          "type": "bytes32"
        }
      ],
      "stateMutability": "view",
      "type": "function"
    },
    {
      "inputs": [],
      "name": "PAUSER_ROLE",
      "outputs": [
        {
          "internalType": "bytes32",
          "name": "",
          "type": "bytes32"
        }
      ],
      "stateMutability": "view",
      "type": "function"
    },
    {
      "inputs": [],
      "name": "VESTER_ROLE",
      "outputs": [
        {
          "internalType": "bytes32",
          "name": "",
          "type": "bytes32"
        }
      ],
      "stateMutability": "view",
      "type": "function"
    },
    {
      "inputs": [
        {
          "internalType": "address",
          "name": "owner",
          "type": "address"
        },
        {
          "internalType": "address",
          "name": "spender",
          "type": "address"
        }
      ],
      "name": "allowance",
      "outputs": [
        {
          "internalType": "uint256",
          "name": "",
          "type": "uint256"
        }
      ],
      "stateMutability": "view",
      "type": "function"
    },
    {
      "inputs": [
        {
          "internalType": "address",
          "name": "spender",
          "type": "address"
        },
        {
          "internalType": "uint256",
          "name": "amount",
          "type": "uint256"
        }
      ],
      "name": "approve",
      "outputs": [
        {
          "internalType": "bool",
          "name": "",
          "type": "bool"
        }
      ],
      "stateMutability": "nonpayable",
      "type": "function"
    },
    {
      "inputs": [
        {
          "internalType": "address",
          "name": "account",
          "type": "address"
        }
      ],
      "name": "balanceOf",
      "outputs": [
        {
          "internalType": "uint256",
          "name": "",
          "type": "uint256"
        }
      ],
      "stateMutability": "view",
      "type": "function"
    },
    {
      "inputs": [
        {
          "components": [
            {
              "internalType": "address",
              "name": "to",
              "type": "address"
            },
            {
              "internalType": "uint256",
              "name": "amount",
              "type": "uint256"
            }
          ],
          "internalType": "struct DelphsGump.BulkMint[]",
          "name": "mintInfo",
          "type": "tuple[]"
        }
      ],
      "name": "bulkMint",
      "outputs": [
        {
          "internalType": "bool",
          "name": "",
          "type": "bool"
        }
      ],
      "stateMutability": "nonpayable",
      "type": "function"
    },
    {
      "inputs": [
        {
          "internalType": "uint256",
          "name": "amount",
          "type": "uint256"
        }
      ],
      "name": "burn",
      "outputs": [],
      "stateMutability": "nonpayable",
      "type": "function"
    },
    {
      "inputs": [
        {
          "internalType": "address",
          "name": "account",
          "type": "address"
        },
        {
          "internalType": "uint256",
          "name": "amount",
          "type": "uint256"
        }
      ],
      "name": "burnFrom",
      "outputs": [],
      "stateMutability": "nonpayable",
      "type": "function"
    },
    {
      "inputs": [],
      "name": "decimals",
      "outputs": [
        {
          "internalType": "uint8",
          "name": "",
          "type": "uint8"
        }
      ],
      "stateMutability": "view",
      "type": "function"
    },
    {
      "inputs": [
        {
          "internalType": "address",
          "name": "spender",
          "type": "address"
        },
        {
          "internalType": "uint256",
          "name": "subtractedValue",
          "type": "uint256"
        }
      ],
      "name": "decreaseAllowance",
      "outputs": [
        {
          "internalType": "bool",
          "name": "",
          "type": "bool"
        }
      ],
      "stateMutability": "nonpayable",
      "type": "function"
    },
    {
      "inputs": [
        {
          "internalType": "bytes32",
          "name": "role",
          "type": "bytes32"
        }
      ],
      "name": "getRoleAdmin",
      "outputs": [
        {
          "internalType": "bytes32",
          "name": "",
          "type": "bytes32"
        }
      ],
      "stateMutability": "view",
      "type": "function"
    },
    {
      "inputs": [
        {
          "internalType": "bytes32",
          "name": "role",
          "type": "bytes32"
        },
        {
          "internalType": "address",
          "name": "account",
          "type": "address"
        }
      ],
      "name": "grantRole",
      "outputs": [],
      "stateMutability": "nonpayable",
      "type": "function"
    },
    {
      "inputs": [
        {
          "internalType": "bytes32",
          "name": "role",
          "type": "bytes32"
        },
        {
          "internalType": "address",
          "name": "account",
          "type": "address"
        }
      ],
      "name": "hasRole",
      "outputs": [
        {
          "internalType": "bool",
          "name": "",
          "type": "bool"
        }
      ],
      "stateMutability": "view",
      "type": "function"
    },
    {
      "inputs": [
        {
          "internalType": "address",
          "name": "spender",
          "type": "address"
        },
        {
          "internalType": "uint256",
          "name": "addedValue",
          "type": "uint256"
        }
      ],
      "name": "increaseAllowance",
      "outputs": [
        {
          "internalType": "bool",
          "name": "",
          "type": "bool"
        }
      ],
      "stateMutability": "nonpayable",
      "type": "function"
    },
    {
      "inputs": [
        {
          "internalType": "address",
          "name": "forwarder",
          "type": "address"
        }
      ],
      "name": "isTrustedForwarder",
      "outputs": [
        {
          "internalType": "bool",
          "name": "",
          "type": "bool"
        }
      ],
      "stateMutability": "view",
      "type": "function"
    },
    {
      "inputs": [
        {
          "internalType": "address",
          "name": "to",
          "type": "address"
        },
        {
          "internalType": "uint256",
          "name": "amount",
          "type": "uint256"
        }
      ],
      "name": "mint",
      "outputs": [],
      "stateMutability": "nonpayable",
      "type": "function"
    },
    {
      "inputs": [],
      "name": "name",
      "outputs": [
        {
          "internalType": "string",
          "name": "",
          "type": "string"
        }
      ],
      "stateMutability": "view",
      "type": "function"
    },
    {
      "inputs": [],
      "name": "pause",
      "outputs": [],
      "stateMutability": "nonpayable",
      "type": "function"
    },
    {
      "inputs": [],
      "name": "paused",
      "outputs": [
        {
          "internalType": "bool",
          "name": "",
          "type": "bool"
        }
      ],
      "stateMutability": "view",
      "type": "function"
    },
    {
      "inputs": [],
      "name": "rateDenominator",
      "outputs": [
        {
          "internalType": "uint256",
          "name": "",
          "type": "uint256"
        }
      ],
      "stateMutability": "view",
      "type": "function"
    },
    {
      "inputs": [],
      "name": "rateOfWithdrawl",
      "outputs": [
        {
          "internalType": "uint256",
          "name": "",
          "type": "uint256"
        }
      ],
      "stateMutability": "view",
      "type": "function"
    },
    {
      "inputs": [
        {
          "internalType": "bytes32",
          "name": "role",
          "type": "bytes32"
        },
        {
          "internalType": "address",
          "name": "account",
          "type": "address"
        }
      ],
      "name": "renounceRole",
      "outputs": [],
      "stateMutability": "nonpayable",
      "type": "function"
    },
    {
      "inputs": [
        {
          "internalType": "bytes32",
          "name": "role",
          "type": "bytes32"
        },
        {
          "internalType": "address",
          "name": "account",
          "type": "address"
        }
      ],
      "name": "revokeRole",
      "outputs": [],
      "stateMutability": "nonpayable",
      "type": "function"
    },
    {
      "inputs": [
        {
          "internalType": "uint256",
          "name": "numerator",
          "type": "uint256"
        },
        {
          "internalType": "uint256",
          "name": "denominator",
          "type": "uint256"
        }
      ],
      "name": "setRateOfWithdrawl",
      "outputs": [],
      "stateMutability": "nonpayable",
      "type": "function"
    },
    {
      "inputs": [
        {
          "internalType": "bytes4",
          "name": "interfaceId",
          "type": "bytes4"
        }
      ],
      "name": "supportsInterface",
      "outputs": [
        {
          "internalType": "bool",
          "name": "",
          "type": "bool"
        }
      ],
      "stateMutability": "view",
      "type": "function"
    },
    {
      "inputs": [],
      "name": "symbol",
      "outputs": [
        {
          "internalType": "string",
          "name": "",
          "type": "string"
        }
      ],
      "stateMutability": "view",
      "type": "function"
    },
    {
      "inputs": [],
      "name": "totalSupply",
      "outputs": [
        {
          "internalType": "uint256",
          "name": "",
          "type": "uint256"
        }
      ],
      "stateMutability": "view",
      "type": "function"
    },
    {
      "inputs": [
        {
          "internalType": "address",
          "name": "to",
          "type": "address"
        },
        {
          "internalType": "uint256",
          "name": "amount",
          "type": "uint256"
        }
      ],
      "name": "transfer",
      "outputs": [
        {
          "internalType": "bool",
          "name": "",
          "type": "bool"
        }
      ],
      "stateMutability": "nonpayable",
      "type": "function"
    },
    {
      "inputs": [
        {
          "internalType": "address",
          "name": "from",
          "type": "address"
        },
        {
          "internalType": "address",
          "name": "to",
          "type": "address"
        },
        {
          "internalType": "uint256",
          "name": "amount",
          "type": "uint256"
        }
      ],
      "name": "transferFrom",
      "outputs": [
        {
          "internalType": "bool",
          "name": "",
          "type": "bool"
        }
      ],
      "stateMutability": "nonpayable",
      "type": "function"
    },
    {
      "inputs": [],
      "name": "unpause",
      "outputs": [],
      "stateMutability": "nonpayable",
      "type": "function"
    },
    {
      "inputs": [
        {
          "internalType": "address",
          "name": "account",
          "type": "address"
        }
      ],
      "name": "vest",
      "outputs": [],
      "stateMutability": "nonpayable",
      "type": "function"
    }
  ],
  "transactionHash": "0x3e082083e1a04005f7af991849e088972025f9a80c92e5eb5cba1c6f8fda49c4",
  "args": [
    "0x7cC2757877Dc42F7216D3E8009cCB06f297BbAe7",
    "0x8D1E200a2C572f9738f26554AAcbC2F9a462EF2D",
    "0x6DE3D3747D54d0Adc11e5Cf678D4045B0441D332"
  ],
  "numDeployments": 1,
  "solcInputHash": "1030078ca3e7dcb4578dab082f29a59a",
  "bytecode": "0x60a0604052606f600755629896806008553480156200001d57600080fd5b5060405162001ea038038062001ea0833981016040819052620000409162000337565b60408051808201825260088152670576f6f7467756d760c41b602080830191825283518085019094526004845263047554d560e41b9084015281518693916200008d916003919062000274565b508051620000a390600490602084019062000274565b50506005805460ff19169055506001600160a01b0316608052620000c960008262000175565b620000f57f65d7a28e3265b37a6474929f336521b332c1681b933f6cb9f3376673440d862a8262000175565b620001217f9f2df0fed2c77648de5860a4cc508cd0818c85b8b8a1ab4ceeef8d981c8956a68262000175565b6200014d7f64ed6499e2f5a7ea55dfd56da361bf9d48064843bb3891c36f1dabd9ba2461358262000175565b50600980546001600160a01b0319166001600160a01b039290921691909117905550620003bd565b60008281526006602090815260408083206001600160a01b038516845290915290205460ff16620002185760008281526006602090815260408083206001600160a01b03851684529091529020805460ff19166001179055620001d76200021c565b6001600160a01b0316816001600160a01b0316837f2f8788117e7eff1d82e926ec794901d17c78024a50270940304540a733656f0d60405160405180910390a45b5050565b6000620002336200023860201b62000a211760201c565b905090565b6080516000906001600160a01b031633036200025b575060131936013560601c90565b620002336200027060201b62000a6a1760201c565b3390565b828054620002829062000381565b90600052602060002090601f016020900481019282620002a65760008555620002f1565b82601f10620002c157805160ff1916838001178555620002f1565b82800160010185558215620002f1579182015b82811115620002f1578251825591602001919060010190620002d4565b50620002ff92915062000303565b5090565b5b80821115620002ff576000815560010162000304565b80516001600160a01b03811681146200033257600080fd5b919050565b6000806000606084860312156200034d57600080fd5b62000358846200031a565b925062000368602085016200031a565b915062000378604085016200031a565b90509250925092565b600181811c908216806200039657607f821691505b602082108103620003b757634e487b7160e01b600052602260045260246000fd5b50919050565b608051611ac0620003e0600039600081816103330152610a250152611ac06000f3fe608060405234801561001057600080fd5b50600436106101fb5760003560e01c806370a082311161011a578063a217fddf116100ad578063d53913931161007c578063d539139314610447578063d547741f1461046e578063dd62ed3e14610481578063e63ab1e914610494578063f3c5f51e146104bb57600080fd5b8063a217fddf146103f2578063a457c2d7146103fa578063a9059cbb1461040d578063ae5ad2271461042057600080fd5b806391d14854116100e957806391d14854146103bb578063942a4e15146103ce57806395d89b41146103d75780639f528038146103df57600080fd5b806370a082311461036e57806379cc6790146103975780638456cb59146103aa578063865192f7146103b257600080fd5b806333d98fd91161019257806340c10f191161016157806340c10f19146102fd57806342966c6814610310578063572b6c05146103235780635c975abb1461036357600080fd5b806333d98fd9146102bc57806336568abe146102cf57806339509351146102e25780633f4ba83a146102f557600080fd5b806323b872dd116101ce57806323b872dd14610262578063248a9ca3146102755780632f2ff15d14610298578063313ce567146102ad57600080fd5b806301ffc9a71461020057806306fdde0314610228578063095ea7b31461023d57806318160ddd14610250575b600080fd5b61021361020e3660046116ab565b6104ce565b60405190151581526020015b60405180910390f35b610230610505565b60405161021f9190611701565b61021361024b366004611750565b610597565b6002545b60405190815260200161021f565b61021361027036600461177a565b6105b9565b6102546102833660046117b6565b60009081526006602052604090206001015490565b6102ab6102a63660046117cf565b6105e7565b005b6040516012815260200161021f565b6102136102ca3660046117fb565b610611565b6102ab6102dd3660046117cf565b6106b3565b6102136102f0366004611750565b610746565b6102ab610772565b6102ab61030b366004611750565b6107a7565b6102ab61031e3660046117b6565b6107db565b610213610331366004611870565b7f00000000000000000000000000000000000000000000000000000000000000006001600160a01b0390811691161490565b60055460ff16610213565b61025461037c366004611870565b6001600160a01b031660009081526020819052604090205490565b6102ab6103a5366004611750565b6107ec565b6102ab610808565b61025460085481565b6102136103c93660046117cf565b61083a565b61025460075481565b610230610865565b6102ab6103ed36600461188b565b610874565b610254600081565b610213610408366004611750565b6108aa565b61021361041b366004611750565b610930565b6102547f64ed6499e2f5a7ea55dfd56da361bf9d48064843bb3891c36f1dabd9ba24613581565b6102547f9f2df0fed2c77648de5860a4cc508cd0818c85b8b8a1ab4ceeef8d981c8956a681565b6102ab61047c3660046117cf565b610948565b61025461048f3660046118ad565b61096d565b6102547f65d7a28e3265b37a6474929f336521b332c1681b933f6cb9f3376673440d862a81565b6102ab6104c9366004611870565b610998565b60006001600160e01b03198216637965db0b60e01b14806104ff57506301ffc9a760e01b6001600160e01b03198316145b92915050565b606060038054610514906118d7565b80601f0160208091040260200160405190810160405280929190818152602001828054610540906118d7565b801561058d5780601f106105625761010080835404028352916020019161058d565b820191906000526020600020905b81548152906001019060200180831161057057829003601f168201915b5050505050905090565b6000806105a2610a6e565b90506105af818585610a78565b5060019392505050565b6000806105c4610a6e565b90506105d1858285610b9c565b6105dc858585610c16565b506001949350505050565b60008281526006602052604090206001015461060281610df5565b61060c8383610e06565b505050565b60007f9f2df0fed2c77648de5860a4cc508cd0818c85b8b8a1ab4ceeef8d981c8956a661063d81610df5565b8260005b818110156106a75761069586868381811061065e5761065e611911565b6106749260206040909202019081019150611870565b87878481811061068657610686611911565b90506040020160200135610e8d565b8061069f8161193d565b915050610641565b50600195945050505050565b6106bb610a6e565b6001600160a01b0316816001600160a01b0316146107385760405162461bcd60e51b815260206004820152602f60248201527f416363657373436f6e74726f6c3a2063616e206f6e6c792072656e6f756e636560448201526e103937b632b9903337b91039b2b63360891b60648201526084015b60405180910390fd5b6107428282610f80565b5050565b600080610751610a6e565b90506105af818585610763858961096d565b61076d9190611956565b610a78565b7f65d7a28e3265b37a6474929f336521b332c1681b933f6cb9f3376673440d862a61079c81610df5565b6107a4611005565b50565b7f9f2df0fed2c77648de5860a4cc508cd0818c85b8b8a1ab4ceeef8d981c8956a66107d181610df5565b61060c8383610e8d565b6107a46107e6610a6e565b8261109e565b6107fe826107f8610a6e565b83610b9c565b610742828261109e565b7f65d7a28e3265b37a6474929f336521b332c1681b933f6cb9f3376673440d862a61083281610df5565b6107a46111ff565b60009182526006602090815260408084206001600160a01b0393909316845291905290205460ff1690565b606060048054610514906118d7565b7f64ed6499e2f5a7ea55dfd56da361bf9d48064843bb3891c36f1dabd9ba24613561089e81610df5565b50600791909155600855565b6000806108b5610a6e565b905060006108c3828661096d565b9050838110156109235760405162461bcd60e51b815260206004820152602560248201527f45524332303a2064656372656173656420616c6c6f77616e63652062656c6f77604482015264207a65726f60d81b606482015260840161072f565b6105dc8286868403610a78565b60008061093b610a6e565b90506105af818585610c16565b60008281526006602052604090206001015461096381610df5565b61060c8383610f80565b6001600160a01b03918216600090815260016020908152604080832093909416825291909152205490565b7f64ed6499e2f5a7ea55dfd56da361bf9d48064843bb3891c36f1dabd9ba2461356109c281610df5565b6001600160a01b0382166000908152600a60205260408120549003610a185760405162461bcd60e51b815260206004820152600c60248201526b1b9bc81b185cdd081d995cdd60a21b604482015260640161072f565b6107428261127b565b60007f00000000000000000000000000000000000000000000000000000000000000006001600160a01b03163303610a60575060131936013560601c90565b503390565b905090565b3390565b6000610a65610a21565b6001600160a01b038316610ada5760405162461bcd60e51b8152602060048201526024808201527f45524332303a20617070726f76652066726f6d20746865207a65726f206164646044820152637265737360e01b606482015260840161072f565b6001600160a01b038216610b3b5760405162461bcd60e51b815260206004820152602260248201527f45524332303a20617070726f766520746f20746865207a65726f206164647265604482015261737360f01b606482015260840161072f565b6001600160a01b0383811660008181526001602090815260408083209487168084529482529182902085905590518481527f8c5be1e5ebec7d5bd14f71427d1e84f3dd0314c0f7b2291e5b200ac8c7c3b925910160405180910390a3505050565b6000610ba8848461096d565b90506000198114610c105781811015610c035760405162461bcd60e51b815260206004820152601d60248201527f45524332303a20696e73756666696369656e7420616c6c6f77616e6365000000604482015260640161072f565b610c108484848403610a78565b50505050565b6001600160a01b038316610c7a5760405162461bcd60e51b815260206004820152602560248201527f45524332303a207472616e736665722066726f6d20746865207a65726f206164604482015264647265737360d81b606482015260840161072f565b6001600160a01b038216610cdc5760405162461bcd60e51b815260206004820152602360248201527f45524332303a207472616e7366657220746f20746865207a65726f206164647260448201526265737360e81b606482015260840161072f565b610ce783838361135f565b6001600160a01b03831660009081526020819052604090205481811015610d5f5760405162461bcd60e51b815260206004820152602660248201527f45524332303a207472616e7366657220616d6f756e7420657863656564732062604482015265616c616e636560d01b606482015260840161072f565b6001600160a01b03808516600090815260208190526040808220858503905591851681529081208054849290610d96908490611956565b92505081905550826001600160a01b0316846001600160a01b03167fddf252ad1be2c89b69c2b068fc378daa952ba7f163c4a11628f55a4df523b3ef84604051610de291815260200190565b60405180910390a3610c108484846113aa565b6107a481610e01610a6e565b6113c1565b610e10828261083a565b6107425760008281526006602090815260408083206001600160a01b03851684529091529020805460ff19166001179055610e49610a6e565b6001600160a01b0316816001600160a01b0316837f2f8788117e7eff1d82e926ec794901d17c78024a50270940304540a733656f0d60405160405180910390a45050565b6001600160a01b038216610ee35760405162461bcd60e51b815260206004820152601f60248201527f45524332303a206d696e7420746f20746865207a65726f206164647265737300604482015260640161072f565b610eef6000838361135f565b8060026000828254610f019190611956565b90915550506001600160a01b03821660009081526020819052604081208054839290610f2e908490611956565b90915550506040518181526001600160a01b038316906000907fddf252ad1be2c89b69c2b068fc378daa952ba7f163c4a11628f55a4df523b3ef9060200160405180910390a3610742600083836113aa565b610f8a828261083a565b156107425760008281526006602090815260408083206001600160a01b03851684529091529020805460ff19169055610fc1610a6e565b6001600160a01b0316816001600160a01b0316837ff6391f5c32d9c69d2a47ea670b442974b53935d1edc7fd64eb21e047a839171b60405160405180910390a45050565b60055460ff1661104e5760405162461bcd60e51b815260206004820152601460248201527314185d5cd8589b194e881b9bdd081c185d5cd95960621b604482015260640161072f565b6005805460ff191690557f5db9ee0a495bf2e6ff9c91a7834c1ba4fdd244a5e8aa4e537bd38aeae4b073aa611081610a6e565b6040516001600160a01b03909116815260200160405180910390a1565b6001600160a01b0382166110fe5760405162461bcd60e51b815260206004820152602160248201527f45524332303a206275726e2066726f6d20746865207a65726f206164647265736044820152607360f81b606482015260840161072f565b61110a8260008361135f565b6001600160a01b0382166000908152602081905260409020548181101561117e5760405162461bcd60e51b815260206004820152602260248201527f45524332303a206275726e20616d6f756e7420657863656564732062616c616e604482015261636560f01b606482015260840161072f565b6001600160a01b03831660009081526020819052604081208383039055600280548492906111ad90849061196e565b90915550506040518281526000906001600160a01b038516907fddf252ad1be2c89b69c2b068fc378daa952ba7f163c4a11628f55a4df523b3ef9060200160405180910390a361060c836000846113aa565b60055460ff16156112455760405162461bcd60e51b815260206004820152601060248201526f14185d5cd8589b194e881c185d5cd95960821b604482015260640161072f565b6005805460ff191660011790557f62e78cea01bee320cd4e420270b5ea74000d11b0c9f74754ebdbfc544b05a258611081610a6e565b6001600160a01b03811660009081526020818152604080832054600a90925282205490916112a9824361196e565b9050806000036112b95750505050565b60006112c58483611425565b905060006112d3828661196e565b90506112df868261109e565b60095460405163a9059cbb60e01b81526001600160a01b038881166004830152602482018490529091169063a9059cbb906044016020604051808303816000875af1158015611332573d6000803e3d6000fd5b505050506040513d601f19601f820116820180604052508101906113569190611985565b50505050505050565b6001600160a01b03831661060c576001600160a01b0382166000908152600a6020526040812054900361060c57506001600160a01b03166000908152600a6020526040902043905550565b6001600160a01b03831661060c5761060c8261127b565b6113cb828261083a565b610742576113e3816001600160a01b03166014611508565b6113ee836020611508565b6040516020016113ff9291906119a7565b60408051601f198184030181529082905262461bcd60e51b825261072f91600401611701565b6007546008546000919060018361143e6103e887611a1c565b90505b60008111801561146557506103e86114598382611a3e565b611463908861196e565b115b1561149557816114748161193d565b92506114849050826103e8611a3e565b61148e9087611a1c565b9050611441565b60006103e887106114a8576103e86114aa565b865b9050600084826114ba8689611a3e565b6114c49190611a3e565b6114ce908b611a3e565b6114d89190611a1c565b9050888111156114f157600096505050505050506104ff565b6114fb818a61196e565b9998505050505050505050565b60606000611517836002611a3e565b611522906002611956565b67ffffffffffffffff81111561153a5761153a611a5d565b6040519080825280601f01601f191660200182016040528015611564576020820181803683370190505b509050600360fc1b8160008151811061157f5761157f611911565b60200101906001600160f81b031916908160001a905350600f60fb1b816001815181106115ae576115ae611911565b60200101906001600160f81b031916908160001a90535060006115d2846002611a3e565b6115dd906001611956565b90505b6001811115611655576f181899199a1a9b1b9c1cb0b131b232b360811b85600f166010811061161157611611611911565b1a60f81b82828151811061162757611627611911565b60200101906001600160f81b031916908160001a90535060049490941c9361164e81611a73565b90506115e0565b5083156116a45760405162461bcd60e51b815260206004820181905260248201527f537472696e67733a20686578206c656e67746820696e73756666696369656e74604482015260640161072f565b9392505050565b6000602082840312156116bd57600080fd5b81356001600160e01b0319811681146116a457600080fd5b60005b838110156116f05781810151838201526020016116d8565b83811115610c105750506000910152565b60208152600082518060208401526117208160408501602087016116d5565b601f01601f19169190910160400192915050565b80356001600160a01b038116811461174b57600080fd5b919050565b6000806040838503121561176357600080fd5b61176c83611734565b946020939093013593505050565b60008060006060848603121561178f57600080fd5b61179884611734565b92506117a660208501611734565b9150604084013590509250925092565b6000602082840312156117c857600080fd5b5035919050565b600080604083850312156117e257600080fd5b823591506117f260208401611734565b90509250929050565b6000806020838503121561180e57600080fd5b823567ffffffffffffffff8082111561182657600080fd5b818501915085601f83011261183a57600080fd5b81358181111561184957600080fd5b8660208260061b850101111561185e57600080fd5b60209290920196919550909350505050565b60006020828403121561188257600080fd5b6116a482611734565b6000806040838503121561189e57600080fd5b50508035926020909101359150565b600080604083850312156118c057600080fd5b6118c983611734565b91506117f260208401611734565b600181811c908216806118eb57607f821691505b60208210810361190b57634e487b7160e01b600052602260045260246000fd5b50919050565b634e487b7160e01b600052603260045260246000fd5b634e487b7160e01b600052601160045260246000fd5b60006001820161194f5761194f611927565b5060010190565b6000821982111561196957611969611927565b500190565b60008282101561198057611980611927565b500390565b60006020828403121561199757600080fd5b815180151581146116a457600080fd5b7f416363657373436f6e74726f6c3a206163636f756e74200000000000000000008152600083516119df8160178501602088016116d5565b7001034b99036b4b9b9b4b733903937b6329607d1b6017918401918201528351611a108160288401602088016116d5565b01602801949350505050565b600082611a3957634e487b7160e01b600052601260045260246000fd5b500490565b6000816000190483118215151615611a5857611a58611927565b500290565b634e487b7160e01b600052604160045260246000fd5b600081611a8257611a82611927565b50600019019056fea26469706673582212208c2045f4157f0a538604b122467daac0e100fc266aef1c683ba118d70782ff5464736f6c634300080e0033",
  "devdoc": {
    "kind": "dev",
    "methods": {
      "allowance(address,address)": {
        "details": "See {IERC20-allowance}."
      },
      "approve(address,uint256)": {
        "details": "See {IERC20-approve}. NOTE: If `amount` is the maximum `uint256`, the allowance is not updated on `transferFrom`. This is semantically equivalent to an infinite approval. Requirements: - `spender` cannot be the zero address."
      },
      "balanceOf(address)": {
        "details": "See {IERC20-balanceOf}."
      },
      "burn(uint256)": {
        "details": "Destroys `amount` tokens from the caller. See {ERC20-_burn}."
      },
      "burnFrom(address,uint256)": {
        "details": "Destroys `amount` tokens from `account`, deducting from the caller's allowance. See {ERC20-_burn} and {ERC20-allowance}. Requirements: - the caller must have allowance for ``accounts``'s tokens of at least `amount`."
      },
      "decimals()": {
        "details": "Returns the number of decimals used to get its user representation. For example, if `decimals` equals `2`, a balance of `505` tokens should be displayed to a user as `5.05` (`505 / 10 ** 2`). Tokens usually opt for a value of 18, imitating the relationship between Ether and Wei. This is the value {ERC20} uses, unless this function is overridden; NOTE: This information is only used for _display_ purposes: it in no way affects any of the arithmetic of the contract, including {IERC20-balanceOf} and {IERC20-transfer}."
      },
      "decreaseAllowance(address,uint256)": {
        "details": "Atomically decreases the allowance granted to `spender` by the caller. This is an alternative to {approve} that can be used as a mitigation for problems described in {IERC20-approve}. Emits an {Approval} event indicating the updated allowance. Requirements: - `spender` cannot be the zero address. - `spender` must have allowance for the caller of at least `subtractedValue`."
      },
      "getRoleAdmin(bytes32)": {
        "details": "Returns the admin role that controls `role`. See {grantRole} and {revokeRole}. To change a role's admin, use {_setRoleAdmin}."
      },
      "grantRole(bytes32,address)": {
        "details": "Grants `role` to `account`. If `account` had not been already granted `role`, emits a {RoleGranted} event. Requirements: - the caller must have ``role``'s admin role."
      },
      "hasRole(bytes32,address)": {
        "details": "Returns `true` if `account` has been granted `role`."
      },
      "increaseAllowance(address,uint256)": {
        "details": "Atomically increases the allowance granted to `spender` by the caller. This is an alternative to {approve} that can be used as a mitigation for problems described in {IERC20-approve}. Emits an {Approval} event indicating the updated allowance. Requirements: - `spender` cannot be the zero address."
      },
      "name()": {
        "details": "Returns the name of the token."
      },
      "paused()": {
        "details": "Returns true if the contract is paused, and false otherwise."
      },
      "renounceRole(bytes32,address)": {
        "details": "Revokes `role` from the calling account. Roles are often managed via {grantRole} and {revokeRole}: this function's purpose is to provide a mechanism for accounts to lose their privileges if they are compromised (such as when a trusted device is misplaced). If the calling account had been revoked `role`, emits a {RoleRevoked} event. Requirements: - the caller must be `account`."
      },
      "revokeRole(bytes32,address)": {
        "details": "Revokes `role` from `account`. If `account` had been granted `role`, emits a {RoleRevoked} event. Requirements: - the caller must have ``role``'s admin role."
      },
      "supportsInterface(bytes4)": {
        "details": "See {IERC165-supportsInterface}."
      },
      "symbol()": {
        "details": "Returns the symbol of the token, usually a shorter version of the name."
      },
      "totalSupply()": {
        "details": "See {IERC20-totalSupply}."
      },
      "transfer(address,uint256)": {
        "details": "See {IERC20-transfer}. Requirements: - `to` cannot be the zero address. - the caller must have a balance of at least `amount`."
      },
      "transferFrom(address,address,uint256)": {
        "details": "See {IERC20-transferFrom}. Emits an {Approval} event indicating the updated allowance. This is not required by the EIP. See the note at the beginning of {ERC20}. NOTE: Does not update the allowance if the current allowance is the maximum `uint256`. Requirements: - `from` and `to` cannot be the zero address. - `from` must have a balance of at least `amount`. - the caller must have allowance for ``from``'s tokens of at least `amount`."
      }
    },
    "version": 1
  },
  "userdoc": {
    "kind": "user",
    "methods": {
      "setRateOfWithdrawl(uint256,uint256)": {
        "notice": "set the rate at which Delph's Gump can become Wootgump (this is a per-block rate)cal"
      }
    },
    "version": 1
  },
  "storageLayout": {
    "storage": [
      {
        "astId": 2137,
        "contract": "contracts/DelphsGump.sol:DelphsGump",
        "label": "_balances",
        "offset": 0,
        "slot": "0",
        "type": "t_mapping(t_address,t_uint256)"
      },
      {
        "astId": 2143,
        "contract": "contracts/DelphsGump.sol:DelphsGump",
        "label": "_allowances",
        "offset": 0,
        "slot": "1",
        "type": "t_mapping(t_address,t_mapping(t_address,t_uint256))"
      },
      {
        "astId": 2145,
        "contract": "contracts/DelphsGump.sol:DelphsGump",
        "label": "_totalSupply",
        "offset": 0,
        "slot": "2",
        "type": "t_uint256"
      },
      {
        "astId": 2147,
        "contract": "contracts/DelphsGump.sol:DelphsGump",
        "label": "_name",
        "offset": 0,
        "slot": "3",
        "type": "t_string_storage"
      },
      {
        "astId": 2149,
        "contract": "contracts/DelphsGump.sol:DelphsGump",
        "label": "_symbol",
        "offset": 0,
        "slot": "4",
        "type": "t_string_storage"
      },
      {
        "astId": 489,
        "contract": "contracts/DelphsGump.sol:DelphsGump",
        "label": "_paused",
        "offset": 0,
        "slot": "5",
        "type": "t_bool"
      },
      {
        "astId": 24,
        "contract": "contracts/DelphsGump.sol:DelphsGump",
        "label": "_roles",
        "offset": 0,
        "slot": "6",
        "type": "t_mapping(t_bytes32,t_struct(RoleData)19_storage)"
      },
      {
        "astId": 4415,
        "contract": "contracts/DelphsGump.sol:DelphsGump",
        "label": "rateOfWithdrawl",
        "offset": 0,
        "slot": "7",
        "type": "t_uint256"
      },
      {
        "astId": 4420,
        "contract": "contracts/DelphsGump.sol:DelphsGump",
        "label": "rateDenominator",
        "offset": 0,
        "slot": "8",
        "type": "t_uint256"
      },
      {
        "astId": 4426,
        "contract": "contracts/DelphsGump.sol:DelphsGump",
        "label": "_wootgump",
        "offset": 0,
        "slot": "9",
        "type": "t_contract(IERC20)2785"
      },
      {
        "astId": 4430,
        "contract": "contracts/DelphsGump.sol:DelphsGump",
        "label": "_lastVesting",
        "offset": 0,
        "slot": "10",
        "type": "t_mapping(t_address,t_uint256)"
      }
    ],
    "types": {
      "t_address": {
        "encoding": "inplace",
        "label": "address",
        "numberOfBytes": "20"
      },
      "t_bool": {
        "encoding": "inplace",
        "label": "bool",
        "numberOfBytes": "1"
      },
      "t_bytes32": {
        "encoding": "inplace",
        "label": "bytes32",
        "numberOfBytes": "32"
      },
      "t_contract(IERC20)2785": {
        "encoding": "inplace",
        "label": "contract IERC20",
        "numberOfBytes": "20"
      },
      "t_mapping(t_address,t_bool)": {
        "encoding": "mapping",
        "key": "t_address",
        "label": "mapping(address => bool)",
        "numberOfBytes": "32",
        "value": "t_bool"
      },
      "t_mapping(t_address,t_mapping(t_address,t_uint256))": {
        "encoding": "mapping",
        "key": "t_address",
        "label": "mapping(address => mapping(address => uint256))",
        "numberOfBytes": "32",
        "value": "t_mapping(t_address,t_uint256)"
      },
      "t_mapping(t_address,t_uint256)": {
        "encoding": "mapping",
        "key": "t_address",
        "label": "mapping(address => uint256)",
        "numberOfBytes": "32",
        "value": "t_uint256"
      },
      "t_mapping(t_bytes32,t_struct(RoleData)19_storage)": {
        "encoding": "mapping",
        "key": "t_bytes32",
        "label": "mapping(bytes32 => struct AccessControl.RoleData)",
        "numberOfBytes": "32",
        "value": "t_struct(RoleData)19_storage"
      },
      "t_string_storage": {
        "encoding": "bytes",
        "label": "string",
        "numberOfBytes": "32"
      },
      "t_struct(RoleData)19_storage": {
        "encoding": "inplace",
        "label": "struct AccessControl.RoleData",
        "members": [
          {
            "astId": 16,
            "contract": "contracts/DelphsGump.sol:DelphsGump",
            "label": "members",
            "offset": 0,
            "slot": "0",
            "type": "t_mapping(t_address,t_bool)"
          },
          {
            "astId": 18,
            "contract": "contracts/DelphsGump.sol:DelphsGump",
            "label": "adminRole",
            "offset": 0,
            "slot": "1",
            "type": "t_bytes32"
          }
        ],
        "numberOfBytes": "64"
      },
      "t_uint256": {
        "encoding": "inplace",
        "label": "uint256",
        "numberOfBytes": "32"
      }
    }
  }
}