{
  "address": "0x46d7dbFed5bE53f5c55eBf84510c9C2B163d3Bd2",
  "abi": [
    {
      "inputs": [
        {
          "internalType": "address",
          "name": "trustedForwarder",
          "type": "address"
        },
        {
          "internalType": "address",
          "name": "diceRollerAddress",
          "type": "address"
        },
        {
          "internalType": "address",
          "name": "initialOwner",
          "type": "address"
        }
      ],
      "stateMutability": "nonpayable",
      "type": "constructor"
    },
    {
      "inputs": [],
      "name": "AlreadyExists",
      "type": "error"
    },
    {
      "inputs": [],
      "name": "AlreadyStarted",
      "type": "error"
    },
    {
      "inputs": [],
      "name": "CantCreateAlreadyStarted",
      "type": "error"
    },
    {
      "inputs": [],
      "name": "NoTwoRollsPerBlock",
      "type": "error"
    },
    {
      "inputs": [],
      "name": "Unauthorized",
      "type": "error"
    },
    {
      "anonymous": false,
      "inputs": [
        {
          "indexed": true,
          "internalType": "uint256",
          "name": "index",
          "type": "uint256"
        },
        {
          "indexed": true,
          "internalType": "uint256",
          "name": "blockNumber",
          "type": "uint256"
        },
        {
          "indexed": false,
          "internalType": "bytes32",
          "name": "random",
          "type": "bytes32"
        }
      ],
      "name": "DiceRolled",
      "type": "event"
    },
    {
      "anonymous": false,
      "inputs": [
        {
          "indexed": true,
          "internalType": "bytes32",
          "name": "role",
          "type": "bytes32"
        },
        {
          "indexed": true,
          "internalType": "bytes32",
          "name": "previousAdminRole",
          "type": "bytes32"
        },
        {
          "indexed": true,
          "internalType": "bytes32",
          "name": "newAdminRole",
          "type": "bytes32"
        }
      ],
      "name": "RoleAdminChanged",
      "type": "event"
    },
    {
      "anonymous": false,
      "inputs": [
        {
          "indexed": true,
          "internalType": "bytes32",
          "name": "role",
          "type": "bytes32"
        },
        {
          "indexed": true,
          "internalType": "address",
          "name": "account",
          "type": "address"
        },
        {
          "indexed": true,
          "internalType": "address",
          "name": "sender",
          "type": "address"
        }
      ],
      "name": "RoleGranted",
      "type": "event"
    },
    {
      "anonymous": false,
      "inputs": [
        {
          "indexed": true,
          "internalType": "bytes32",
          "name": "role",
          "type": "bytes32"
        },
        {
          "indexed": true,
          "internalType": "address",
          "name": "account",
          "type": "address"
        },
        {
          "indexed": true,
          "internalType": "address",
          "name": "sender",
          "type": "address"
        }
      ],
      "name": "RoleRevoked",
      "type": "event"
    },
    {
      "anonymous": false,
      "inputs": [
        {
          "indexed": true,
          "internalType": "bytes32",
          "name": "id",
          "type": "bytes32"
        },
        {
          "indexed": true,
          "internalType": "uint256",
          "name": "roll",
          "type": "uint256"
        }
      ],
      "name": "Started",
      "type": "event"
    },
    {
      "anonymous": false,
      "inputs": [
        {
          "indexed": true,
          "internalType": "bytes32",
          "name": "id",
          "type": "bytes32"
        }
      ],
      "name": "TableCreated",
      "type": "event"
    },
    {
      "inputs": [],
      "name": "ADMIN_ROLE",
      "outputs": [
        {
          "internalType": "bytes32",
          "name": "",
          "type": "bytes32"
        }
      ],
      "stateMutability": "view",
      "type": "function"
    },
    {
      "inputs": [],
      "name": "DEFAULT_ADMIN_ROLE",
      "outputs": [
        {
          "internalType": "bytes32",
          "name": "",
          "type": "bytes32"
        }
      ],
      "stateMutability": "view",
      "type": "function"
    },
    {
      "inputs": [
        {
          "internalType": "bytes32",
          "name": "id",
          "type": "bytes32"
        }
      ],
      "name": "attributes",
      "outputs": [
        {
          "internalType": "bytes32[]",
          "name": "",
          "type": "bytes32[]"
        }
      ],
      "stateMutability": "view",
      "type": "function"
    },
    {
      "inputs": [
        {
          "internalType": "uint256",
          "name": "",
          "type": "uint256"
        }
      ],
      "name": "blockOfRoll",
      "outputs": [
        {
          "internalType": "uint256",
          "name": "",
          "type": "uint256"
        }
      ],
      "stateMutability": "view",
      "type": "function"
    },
    {
      "inputs": [
        {
          "components": [
            {
              "internalType": "bytes32",
              "name": "id",
              "type": "bytes32"
            },
            {
              "internalType": "address",
              "name": "owner",
              "type": "address"
            },
            {
              "internalType": "uint256",
              "name": "startedAt",
              "type": "uint256"
            },
            {
              "internalType": "uint256",
              "name": "gameLength",
              "type": "uint256"
            },
            {
              "internalType": "uint32",
              "name": "tableSize",
              "type": "uint32"
            },
            {
              "internalType": "uint32",
              "name": "wootgumpMultiplier",
              "type": "uint32"
            },
            {
              "internalType": "address[]",
              "name": "players",
              "type": "address[]"
            },
            {
              "internalType": "bytes32[]",
              "name": "seeds",
              "type": "bytes32[]"
            },
            {
              "internalType": "bytes32[]",
              "name": "attributes",
              "type": "bytes32[]"
            },
            {
              "internalType": "uint256[]",
              "name": "initialGump",
              "type": "uint256[]"
            }
          ],
          "internalType": "struct DelphsTable.Table",
          "name": "newTable",
          "type": "tuple"
        }
      ],
      "name": "createAndStart",
      "outputs": [],
      "stateMutability": "nonpayable",
      "type": "function"
    },
    {
      "inputs": [
        {
          "components": [
            {
              "internalType": "bytes32",
              "name": "id",
              "type": "bytes32"
            },
            {
              "internalType": "address",
              "name": "owner",
              "type": "address"
            },
            {
              "internalType": "uint256",
              "name": "startedAt",
              "type": "uint256"
            },
            {
              "internalType": "uint256",
              "name": "gameLength",
              "type": "uint256"
            },
            {
              "internalType": "uint32",
              "name": "tableSize",
              "type": "uint32"
            },
            {
              "internalType": "uint32",
              "name": "wootgumpMultiplier",
              "type": "uint32"
            },
            {
              "internalType": "address[]",
              "name": "players",
              "type": "address[]"
            },
            {
              "internalType": "bytes32[]",
              "name": "seeds",
              "type": "bytes32[]"
            },
            {
              "internalType": "bytes32[]",
              "name": "attributes",
              "type": "bytes32[]"
            },
            {
              "internalType": "uint256[]",
              "name": "initialGump",
              "type": "uint256[]"
            }
          ],
          "internalType": "struct DelphsTable.Table",
          "name": "newTable",
          "type": "tuple"
        }
      ],
      "name": "createTable",
      "outputs": [],
      "stateMutability": "nonpayable",
      "type": "function"
    },
    {
      "inputs": [
        {
          "internalType": "bytes32",
          "name": "",
          "type": "bytes32"
        },
        {
          "internalType": "uint256",
          "name": "",
          "type": "uint256"
        },
        {
          "internalType": "uint256",
          "name": "",
          "type": "uint256"
        }
      ],
      "name": "destinations",
      "outputs": [
        {
          "internalType": "address",
          "name": "player",
          "type": "address"
        },
        {
          "internalType": "int64",
          "name": "x",
          "type": "int64"
        },
        {
          "internalType": "int64",
          "name": "y",
          "type": "int64"
        }
      ],
      "stateMutability": "view",
      "type": "function"
    },
    {
      "inputs": [
        {
          "internalType": "bytes32",
          "name": "id",
          "type": "bytes32"
        },
        {
          "internalType": "uint256",
          "name": "roll",
          "type": "uint256"
        }
      ],
      "name": "destinationsForRoll",
      "outputs": [
        {
          "components": [
            {
              "internalType": "address",
              "name": "player",
              "type": "address"
            },
            {
              "internalType": "int64",
              "name": "x",
              "type": "int64"
            },
            {
              "internalType": "int64",
              "name": "y",
              "type": "int64"
            }
          ],
          "internalType": "struct DelphsTable.Destination[]",
          "name": "",
          "type": "tuple[]"
        }
      ],
      "stateMutability": "view",
      "type": "function"
    },
    {
      "inputs": [
        {
          "internalType": "bytes32",
          "name": "role",
          "type": "bytes32"
        }
      ],
      "name": "getRoleAdmin",
      "outputs": [
        {
          "internalType": "bytes32",
          "name": "",
          "type": "bytes32"
        }
      ],
      "stateMutability": "view",
      "type": "function"
    },
    {
      "inputs": [
        {
          "internalType": "bytes32",
          "name": "role",
          "type": "bytes32"
        },
        {
          "internalType": "address",
          "name": "account",
          "type": "address"
        }
      ],
      "name": "grantRole",
      "outputs": [],
      "stateMutability": "nonpayable",
      "type": "function"
    },
    {
      "inputs": [
        {
          "internalType": "bytes32",
          "name": "role",
          "type": "bytes32"
        },
        {
          "internalType": "address",
          "name": "account",
          "type": "address"
        }
      ],
      "name": "hasRole",
      "outputs": [
        {
          "internalType": "bool",
          "name": "",
          "type": "bool"
        }
      ],
      "stateMutability": "view",
      "type": "function"
    },
    {
      "inputs": [
        {
          "internalType": "bytes32",
          "name": "id",
          "type": "bytes32"
        }
      ],
      "name": "initialGump",
      "outputs": [
        {
          "internalType": "uint256[]",
          "name": "",
          "type": "uint256[]"
        }
      ],
      "stateMutability": "view",
      "type": "function"
    },
    {
      "inputs": [
        {
          "internalType": "address",
          "name": "forwarder",
          "type": "address"
        }
      ],
      "name": "isTrustedForwarder",
      "outputs": [
        {
          "internalType": "bool",
          "name": "",
          "type": "bool"
        }
      ],
      "stateMutability": "view",
      "type": "function"
    },
    {
      "inputs": [],
      "name": "latestRoll",
      "outputs": [
        {
          "internalType": "uint256",
          "name": "",
          "type": "uint256"
        }
      ],
      "stateMutability": "view",
      "type": "function"
    },
    {
      "inputs": [
        {
          "internalType": "bytes32",
          "name": "id",
          "type": "bytes32"
        }
      ],
      "name": "players",
      "outputs": [
        {
          "internalType": "address[]",
          "name": "",
          "type": "address[]"
        }
      ],
      "stateMutability": "view",
      "type": "function"
    },
    {
      "inputs": [
        {
          "internalType": "bytes32",
          "name": "role",
          "type": "bytes32"
        },
        {
          "internalType": "address",
          "name": "account",
          "type": "address"
        }
      ],
      "name": "renounceRole",
      "outputs": [],
      "stateMutability": "nonpayable",
      "type": "function"
    },
    {
      "inputs": [
        {
          "internalType": "bytes32",
          "name": "role",
          "type": "bytes32"
        },
        {
          "internalType": "address",
          "name": "account",
          "type": "address"
        }
      ],
      "name": "revokeRole",
      "outputs": [],
      "stateMutability": "nonpayable",
      "type": "function"
    },
    {
      "inputs": [],
      "name": "rollTheDice",
      "outputs": [
        {
          "internalType": "uint256",
          "name": "",
          "type": "uint256"
        }
      ],
      "stateMutability": "nonpayable",
      "type": "function"
    },
    {
      "inputs": [],
      "name": "roller",
      "outputs": [
        {
          "internalType": "contract IDiceRoller",
          "name": "",
          "type": "address"
        }
      ],
      "stateMutability": "view",
      "type": "function"
    },
    {
      "inputs": [
        {
          "internalType": "uint256",
          "name": "",
          "type": "uint256"
        }
      ],
      "name": "rolls",
      "outputs": [
        {
          "internalType": "bytes32",
          "name": "",
          "type": "bytes32"
        }
      ],
      "stateMutability": "view",
      "type": "function"
    },
    {
      "inputs": [
        {
          "internalType": "bytes32",
          "name": "id",
          "type": "bytes32"
        }
      ],
      "name": "seeds",
      "outputs": [
        {
          "internalType": "bytes32[]",
          "name": "",
          "type": "bytes32[]"
        }
      ],
      "stateMutability": "view",
      "type": "function"
    },
    {
      "inputs": [
        {
          "internalType": "bytes32",
          "name": "id",
          "type": "bytes32"
        },
        {
          "internalType": "int64",
          "name": "x",
          "type": "int64"
        },
        {
          "internalType": "int64",
          "name": "y",
          "type": "int64"
        }
      ],
      "name": "setDestination",
      "outputs": [
        {
          "internalType": "bool",
          "name": "",
          "type": "bool"
        }
      ],
      "stateMutability": "nonpayable",
      "type": "function"
    },
    {
      "inputs": [
        {
          "internalType": "bytes32",
          "name": "id",
          "type": "bytes32"
        }
      ],
      "name": "start",
      "outputs": [
        {
          "internalType": "uint256",
          "name": "",
          "type": "uint256"
        }
      ],
      "stateMutability": "nonpayable",
      "type": "function"
    },
    {
      "inputs": [
        {
          "internalType": "bytes32",
          "name": "id",
          "type": "bytes32"
        },
        {
          "internalType": "address",
          "name": "playerAddress",
          "type": "address"
        }
      ],
      "name": "statsForPlayer",
      "outputs": [
        {
          "components": [
            {
              "internalType": "uint256",
              "name": "attack",
              "type": "uint256"
            },
            {
              "internalType": "uint256",
              "name": "defense",
              "type": "uint256"
            },
            {
              "internalType": "uint256",
              "name": "health",
              "type": "uint256"
            }
          ],
          "internalType": "struct DelphsTable.Stats",
          "name": "",
          "type": "tuple"
        }
      ],
      "stateMutability": "view",
      "type": "function"
    },
    {
      "inputs": [
        {
          "internalType": "bytes4",
          "name": "interfaceId",
          "type": "bytes4"
        }
      ],
      "name": "supportsInterface",
      "outputs": [
        {
          "internalType": "bool",
          "name": "",
          "type": "bool"
        }
      ],
      "stateMutability": "view",
      "type": "function"
    },
    {
      "inputs": [
        {
          "internalType": "bytes32",
          "name": "",
          "type": "bytes32"
        }
      ],
      "name": "tables",
      "outputs": [
        {
          "internalType": "bytes32",
          "name": "id",
          "type": "bytes32"
        },
        {
          "internalType": "address",
          "name": "owner",
          "type": "address"
        },
        {
          "internalType": "uint256",
          "name": "startedAt",
          "type": "uint256"
        },
        {
          "internalType": "uint256",
          "name": "gameLength",
          "type": "uint256"
        },
        {
          "internalType": "uint32",
          "name": "tableSize",
          "type": "uint32"
        },
        {
          "internalType": "uint32",
          "name": "wootgumpMultiplier",
          "type": "uint32"
        }
      ],
      "stateMutability": "view",
      "type": "function"
    }
  ],
  "transactionHash": "0xa524a746466cfcf7f46a6fc09fbdac0dd45964c2b2957f2632b0c13709f87ae7",
  "args": [
    "0x7cC2757877Dc42F7216D3E8009cCB06f297BbAe7",
    "0x2AdD7b7f25CE6f1F48E40cD1c419934bE469d325",
    "0x6DE3D3747D54d0Adc11e5Cf678D4045B0441D332"
  ],
  "numDeployments": 4,
  "solcInputHash": "5cc034a72287c1af6309948e602a58c7",
  "bytecode": "0x60c06040523480156200001157600080fd5b5060405162001c8938038062001c898339810160408190526200003491620001b0565b6001600160a01b03808416608052821660a052620000737fa49807205ce4d355092ef5a8a18f56e8913cf4a201fbe287825b095693c217758262000089565b6200008060008262000089565b505050620001fa565b62000095828262000099565b5050565b6000828152602081815260408083206001600160a01b038516845290915290205460ff1662000095576000828152602081815260408083206001600160a01b03851684529091529020805460ff19166001179055620000f76200013b565b6001600160a01b0316816001600160a01b0316837f2f8788117e7eff1d82e926ec794901d17c78024a50270940304540a733656f0d60405160405180910390a45050565b6000620001526200015760201b62000e8e1760201c565b905090565b6080516000906001600160a01b031633036200017a575060131936013560601c90565b620001526200018f60201b62000ed71760201c565b3390565b80516001600160a01b0381168114620001ab57600080fd5b919050565b600080600060608486031215620001c657600080fd5b620001d18462000193565b9250620001e16020850162000193565b9150620001f16040850162000193565b90509250925092565b60805160a051611a5b6200022e6000396000818161024c01526108c60152600081816102dc0152610e920152611a5b6000f3fe608060405234801561001057600080fd5b506004361061018e5760003560e01c806375b238fc116100de578063a217fddf11610097578063d3098b9a11610071578063d3098b9a14610436578063d547741f146104cd578063e0e543d0146104e0578063f9bc31e11461050057600080fd5b8063a217fddf14610412578063ae383a4d1461041a578063b115ce0d1461042357600080fd5b806375b238fc146103685780637d789dee1461038f57806383f7fbf414610397578063907efe00146103aa57806391d14854146103df5780639424732e146103f257600080fd5b80632f09177d1161014b57806336568abe1161012557806336568abe146102b9578063572b6c05146102cc5780635d69f16c1461030c5780637213b8141461032c57600080fd5b80632f09177d146102475780632f2ff15d14610286578063361508521461029957600080fd5b8063015a18ed1461019357806301728959146101b957806301ffc9a7146101ce57806313870132146101f1578063248a9ca3146102045780632d1dc12214610227575b600080fd5b6101a66101a13660046112cc565b610513565b6040519081526020015b60405180910390f35b6101cc6101c73660046112e5565b6105cf565b005b6101e16101dc366004611321565b6105e6565b60405190151581526020016101b0565b6101e16101ff366004611362565b61061d565b6101a66102123660046112cc565b60009081526020819052604090206001015490565b6101a66102353660046112cc565b60036020526000908152604090205481565b61026e7f000000000000000000000000000000000000000000000000000000000000000081565b6040516001600160a01b0390911681526020016101b0565b6101cc6102943660046113b3565b610711565b6102ac6102a73660046112cc565b61073b565b6040516101b091906113e3565b6101cc6102c73660046113b3565b6107a0565b6101e16102da366004611427565b7f00000000000000000000000000000000000000000000000000000000000000006001600160a01b0390811691161490565b6101a661031a3660046112cc565b60026020526000908152604090205481565b61033f61033a366004611444565b61082f565b604080516001600160a01b039094168452600792830b6020850152910b908201526060016101b0565b6101a67fa49807205ce4d355092ef5a8a18f56e8913cf4a201fbe287825b095693c2177581565b6101a6610890565b6101cc6103a53660046112e5565b6109f1565b6103bd6103b83660046113b3565b610adc565b60408051825181526020808401519082015291810151908201526060016101b0565b6101e16103ed3660046113b3565b610c6c565b6104056104003660046112cc565b610c95565b6040516101b09190611470565b6101a6600081565b6101a660015481565b6102ac6104313660046112cc565b610d03565b61048f6104443660046112cc565b6005602052600090815260409020805460018201546002830154600384015460049094015492936001600160a01b039092169290919063ffffffff8082169164010000000090041686565b604080519687526001600160a01b03909516602087015293850192909252606084015263ffffffff90811660808401521660a082015260c0016101b0565b6101cc6104db3660046113b3565b610d66565b6104f36104ee3660046114b1565b610d8b565b6040516101b091906114d3565b6102ac61050e3660046112cc565b610e2b565b600081815260056020526040812060018101546001600160a01b0316610537610edb565b6001600160a01b03161461055d576040516282b42960e81b815260040160405180910390fd5b60028101541561058057604051631fbde44560e01b815260040160405180910390fd5b600060015460016105919190611553565b60028301819055604051909150819085907f3a5803cb6dcb9c83b0584d712b7825e7e9fa6243be3cde9e798681f5c091e65c90600090a39392505050565b6105d8816109f1565b6105e28135610513565b5050565b60006001600160e01b03198216637965db0b60e01b148061061757506301ffc9a760e01b6001600160e01b03198316145b92915050565b600080610628610edb565b600086815260056020819052604090912091925061064890820183610ee5565b610664576040516282b42960e81b815260040160405180910390fd5b50600094855260046020908152604080872060018054895290835281882082516060810184526001600160a01b039586168152600798890b8186019081529790980b92880192835280548083018255908952929097209551600290920290950180549451919092166001600160e01b031990941693909317600160a01b67ffffffffffffffff948516021781559251928401805467ffffffffffffffff1916939092169290921790555090565b60008281526020819052604090206001015461072c81610f52565b6107368383610f66565b505050565b60008181526005602090815260409182902060060180548351818402810184019094528084526060939283018282801561079457602002820191906000526020600020905b815481526020019060010190808311610780575b50505050509050919050565b6107a8610edb565b6001600160a01b0316816001600160a01b0316146108255760405162461bcd60e51b815260206004820152602f60248201527f416363657373436f6e74726f6c3a2063616e206f6e6c792072656e6f756e636560448201526e103937b632b9903337b91039b2b63360891b60648201526084015b60405180910390fd5b6105e28282610feb565b6004602052826000526040600020602052816000526040600020818154811061085757600080fd5b6000918252602090912060029091020180546001909101546001600160a01b0382169450600160a01b909104600790810b93500b905083565b6001546000908152600360205260408120544390036108c2576040516374f70e7960e11b815260040160405180910390fd5b60007f00000000000000000000000000000000000000000000000000000000000000006001600160a01b031663aacc5a176040518163ffffffff1660e01b8152600401602060405180830381865afa158015610922573d6000803e3d6000fd5b505050506040513d601f19601f82011682018060405250810190610946919061156b565b90508060026000600154600161095c9190611553565b815260200190815260200160002081905550436003600060015460016109829190611553565b815260200190815260200160002081905550600160008154809291906109a790611584565b9190505550436001547f61a648c0140ef625babe35b3bc5ba2a28852bd10a17c53f6d9f3831b21096cd7836040516109e191815260200190565b60405180910390a3505060015490565b604081013515610a1457604051630f0b92ed60e21b815260040160405180910390fd5b610a407fa49807205ce4d355092ef5a8a18f56e8913cf4a201fbe287825b095693c217756103ed610edb565b610a5c576040516282b42960e81b815260040160405180910390fd5b80356000908152600560208190526040909120015415610a8f5760405163119b4fd360e11b815260040160405180910390fd5b803560009081526005602052604090208190610aab82826117bb565b50506040518135907fff39e0eaf58742100b3d96f355f818806f2c4c75c3fb9c8ff1101305924884fa90600090a250565b610b0060405180606001604052806000815260200160008152602001600081525090565b600083815260056020908152604080832060028082015485529092529091205480610b5c5760405162461bcd60e51b815260206004820152600c60248201526b1b9bc81cdd185d1cc81e595d60a21b604482015260640161081c565b604080516060810190915280610bb8610bb084610b99896080860160609190911b6001600160601b0319168152606160f81b601482015260150190565b6040516020818303038152906040526103e861106e565b6101906110af565b8152602001610c10610c098488604051602001610bf2919060609190911b6001600160601b0319168152601960fa1b601482015260150190565b60405160208183030381529060405261032061106e565b60c86110af565b8152602001610c61610c098488604051602001610c4a919060609190911b6001600160601b0319168152600d60fb1b601482015260150190565b6040516020818303038152906040526102bc61106e565b905295945050505050565b6000918252602082815260408084206001600160a01b0393909316845291905290205460ff1690565b60008181526005602081815260409283902090910180548351818402810184019094528084526060939283018282801561079457602002820191906000526020600020905b81546001600160a01b03168152600190910190602001808311610cda5750505050509050919050565b60008181526005602090815260409182902060070180548351818402810184019094528084526060939283018282801561079457602002820191906000526020600020908154815260200190600101908083116107805750505050509050919050565b600082815260208190526040902060010154610d8181610f52565b6107368383610feb565b60008281526004602090815260408083208484528252808320805482518185028101850190935280835260609492939192909184015b82821015610e1f576000848152602090819020604080516060810182526002860290920180546001600160a01b0381168452600160a01b9004600790810b84860152600191820154900b918301919091529083529092019101610dc1565b50505050905092915050565b60008181526005602090815260409182902060080180548351818402810184019094528084526060939283018282801561079457602002820191906000526020600020908154815260200190600101908083116107805750505050509050919050565b60007f00000000000000000000000000000000000000000000000000000000000000006001600160a01b03163303610ecd575060131936013560601c90565b503390565b905090565b3390565b6000610ed2610e8e565b8154600090815b81811015610f4757836001600160a01b0316858281548110610f1057610f106118dc565b6000918252602090912001546001600160a01b031603610f3557600192505050610617565b80610f3f81611584565b915050610eec565b506000949350505050565b610f6381610f5e610edb565b6110c5565b50565b610f708282610c6c565b6105e2576000828152602081815260408083206001600160a01b03851684529091529020805460ff19166001179055610fa7610edb565b6001600160a01b0316816001600160a01b0316837f2f8788117e7eff1d82e926ec794901d17c78024a50270940304540a733656f0d60405160405180910390a45050565b610ff58282610c6c565b156105e2576000828152602081815260408083206001600160a01b03851684529091529020805460ff1916905561102a610edb565b6001600160a01b0316816001600160a01b0316837ff6391f5c32d9c69d2a47ea670b442974b53935d1edc7fd64eb21e047a839171b60405160405180910390a45050565b600081848460405160200161108492919061191e565b6040516020818303038152906040528051906020012060001c6110a79190611944565b949350505050565b60008183106110bf575081610617565b50919050565b6110cf8282610c6c565b6105e2576110e7816001600160a01b03166014611129565b6110f2836020611129565b604051602001611103929190611966565b60408051601f198184030181529082905262461bcd60e51b825261081c916004016119db565b60606000611138836002611627565b611143906002611553565b67ffffffffffffffff81111561115b5761115b611611565b6040519080825280601f01601f191660200182016040528015611185576020820181803683370190505b509050600360fc1b816000815181106111a0576111a06118dc565b60200101906001600160f81b031916908160001a905350600f60fb1b816001815181106111cf576111cf6118dc565b60200101906001600160f81b031916908160001a90535060006111f3846002611627565b6111fe906001611553565b90505b6001811115611276576f181899199a1a9b1b9c1cb0b131b232b360811b85600f1660108110611232576112326118dc565b1a60f81b828281518110611248576112486118dc565b60200101906001600160f81b031916908160001a90535060049490941c9361126f81611a0e565b9050611201565b5083156112c55760405162461bcd60e51b815260206004820181905260248201527f537472696e67733a20686578206c656e67746820696e73756666696369656e74604482015260640161081c565b9392505050565b6000602082840312156112de57600080fd5b5035919050565b6000602082840312156112f757600080fd5b813567ffffffffffffffff81111561130e57600080fd5b820161014081850312156112c557600080fd5b60006020828403121561133357600080fd5b81356001600160e01b0319811681146112c557600080fd5b8035600781900b811461135d57600080fd5b919050565b60008060006060848603121561137757600080fd5b833592506113876020850161134b565b91506113956040850161134b565b90509250925092565b6001600160a01b0381168114610f6357600080fd5b600080604083850312156113c657600080fd5b8235915060208301356113d88161139e565b809150509250929050565b6020808252825182820181905260009190848201906040850190845b8181101561141b578351835292840192918401916001016113ff565b50909695505050505050565b60006020828403121561143957600080fd5b81356112c58161139e565b60008060006060848603121561145957600080fd5b505081359360208301359350604090920135919050565b6020808252825182820181905260009190848201906040850190845b8181101561141b5783516001600160a01b03168352928401929184019160010161148c565b600080604083850312156114c457600080fd5b50508035926020909101359150565b602080825282518282018190526000919060409081850190868401855b8281101561153057815180516001600160a01b0316855286810151600790810b8887015290860151900b85850152606090930192908501906001016114f0565b5091979650505050505050565b634e487b7160e01b600052601160045260246000fd5b600082198211156115665761156661153d565b500190565b60006020828403121561157d57600080fd5b5051919050565b6000600182016115965761159661153d565b5060010190565b600081356106178161139e565b6000813563ffffffff8116811461061757600080fd5b6000808335601e198436030181126115d757600080fd5b83018035915067ffffffffffffffff8211156115f257600080fd5b6020019150600581901b360382131561160a57600080fd5b9250929050565b634e487b7160e01b600052604160045260246000fd5b60008160001904831182151516156116415761164161153d565b500290565b81831015610736576000818152602081208481019084015b808210156116745782825560018201915061165e565b505050505050565b600160401b83111561169057611690611611565b80548382556116a0848284611646565b50818160005260208060002060005b868110156116ed5783356116c28161139e565b82546001600160a01b0319166001600160a01b039190911617825592820192600191820191016116af565b50505050505050565b600160401b83111561170a5761170a611611565b805483825580841015611741576000828152602081208581019083015b8082101561173d57828255600182019150611727565b5050505b5060008181526020812083915b8581101561167457823582556020909201916001918201910161174e565b600160401b83111561178057611780611611565b8054838255611790848284611646565b50818160005260208060002060005b868110156116ed5783358255928201926001918201910161179f565b813581556117f26117ce6020840161159d565b6001830180546001600160a01b0319166001600160a01b0392909216919091179055565b604082013560028201556060820135600382015560048101611830611819608085016115aa565b825463ffffffff191663ffffffff91909116178255565b61186161183f60a085016115aa565b825467ffffffff00000000191660209190911b67ffffffff0000000016178255565b5061186f60c08301836115c0565b61187d81836005860161167c565b505061188c60e08301836115c0565b61189a8183600686016116f6565b50506118aa6101008301836115c0565b6118b88183600786016116f6565b50506118c86101208301836115c0565b6118d681836008860161176c565b50505050565b634e487b7160e01b600052603260045260246000fd5b60005b8381101561190d5781810151838201526020016118f5565b838111156118d65750506000910152565b828152600082516119368160208501602087016118f2565b919091016020019392505050565b60008261196157634e487b7160e01b600052601260045260246000fd5b500690565b7f416363657373436f6e74726f6c3a206163636f756e742000000000000000000081526000835161199e8160178501602088016118f2565b7001034b99036b4b9b9b4b733903937b6329607d1b60179184019182015283516119cf8160288401602088016118f2565b01602801949350505050565b60208152600082518060208401526119fa8160408501602087016118f2565b601f01601f19169190910160400192915050565b600081611a1d57611a1d61153d565b50600019019056fea2646970667358221220c3e0e35248b2041e90a576e7c7eb55844491143ae6d8b43453dacc7d6fa5133364736f6c634300080e0033",
  "devdoc": {
    "kind": "dev",
    "methods": {
      "getRoleAdmin(bytes32)": {
        "details": "Returns the admin role that controls `role`. See {grantRole} and {revokeRole}. To change a role's admin, use {_setRoleAdmin}."
      },
      "grantRole(bytes32,address)": {
        "details": "Grants `role` to `account`. If `account` had not been already granted `role`, emits a {RoleGranted} event. Requirements: - the caller must have ``role``'s admin role."
      },
      "hasRole(bytes32,address)": {
        "details": "Returns `true` if `account` has been granted `role`."
      },
      "renounceRole(bytes32,address)": {
        "details": "Revokes `role` from the calling account. Roles are often managed via {grantRole} and {revokeRole}: this function's purpose is to provide a mechanism for accounts to lose their privileges if they are compromised (such as when a trusted device is misplaced). If the calling account had been revoked `role`, emits a {RoleRevoked} event. Requirements: - the caller must be `account`."
      },
      "revokeRole(bytes32,address)": {
        "details": "Revokes `role` from `account`. If `account` had been granted `role`, emits a {RoleRevoked} event. Requirements: - the caller must have ``role``'s admin role."
      },
      "supportsInterface(bytes4)": {
        "details": "See {IERC165-supportsInterface}."
      }
    },
    "version": 1
  },
  "userdoc": {
    "kind": "user",
    "methods": {},
    "version": 1
  },
  "storageLayout": {
    "storage": [
      {
        "astId": 24,
        "contract": "contracts/DelphsTable.sol:DelphsTable",
        "label": "_roles",
        "offset": 0,
        "slot": "0",
        "type": "t_mapping(t_bytes32,t_struct(RoleData)19_storage)"
      },
      {
        "astId": 4931,
        "contract": "contracts/DelphsTable.sol:DelphsTable",
        "label": "latestRoll",
        "offset": 0,
        "slot": "1",
        "type": "t_uint256"
      },
      {
        "astId": 4935,
        "contract": "contracts/DelphsTable.sol:DelphsTable",
        "label": "rolls",
        "offset": 0,
        "slot": "2",
        "type": "t_mapping(t_uint256,t_bytes32)"
      },
      {
        "astId": 4939,
        "contract": "contracts/DelphsTable.sol:DelphsTable",
        "label": "blockOfRoll",
        "offset": 0,
        "slot": "3",
        "type": "t_mapping(t_uint256,t_uint256)"
      },
      {
        "astId": 4947,
        "contract": "contracts/DelphsTable.sol:DelphsTable",
        "label": "destinations",
        "offset": 0,
        "slot": "4",
        "type": "t_mapping(t_bytes32,t_mapping(t_uint256,t_array(t_struct(Destination)4959_storage)dyn_storage))"
      },
      {
        "astId": 4952,
        "contract": "contracts/DelphsTable.sol:DelphsTable",
        "label": "tables",
        "offset": 0,
        "slot": "5",
        "type": "t_mapping(t_bytes32,t_struct(Table)4984_storage)"
      }
    ],
    "types": {
      "t_address": {
        "encoding": "inplace",
        "label": "address",
        "numberOfBytes": "20"
      },
      "t_array(t_address)dyn_storage": {
        "base": "t_address",
        "encoding": "dynamic_array",
        "label": "address[]",
        "numberOfBytes": "32"
      },
      "t_array(t_bytes32)dyn_storage": {
        "base": "t_bytes32",
        "encoding": "dynamic_array",
        "label": "bytes32[]",
        "numberOfBytes": "32"
      },
      "t_array(t_struct(Destination)4959_storage)dyn_storage": {
        "base": "t_struct(Destination)4959_storage",
        "encoding": "dynamic_array",
        "label": "struct DelphsTable.Destination[]",
        "numberOfBytes": "32"
      },
      "t_array(t_uint256)dyn_storage": {
        "base": "t_uint256",
        "encoding": "dynamic_array",
        "label": "uint256[]",
        "numberOfBytes": "32"
      },
      "t_bool": {
        "encoding": "inplace",
        "label": "bool",
        "numberOfBytes": "1"
      },
      "t_bytes32": {
        "encoding": "inplace",
        "label": "bytes32",
        "numberOfBytes": "32"
      },
      "t_int64": {
        "encoding": "inplace",
        "label": "int64",
        "numberOfBytes": "8"
      },
      "t_mapping(t_address,t_bool)": {
        "encoding": "mapping",
        "key": "t_address",
        "label": "mapping(address => bool)",
        "numberOfBytes": "32",
        "value": "t_bool"
      },
      "t_mapping(t_bytes32,t_mapping(t_uint256,t_array(t_struct(Destination)4959_storage)dyn_storage))": {
        "encoding": "mapping",
        "key": "t_bytes32",
        "label": "mapping(bytes32 => mapping(uint256 => struct DelphsTable.Destination[]))",
        "numberOfBytes": "32",
        "value": "t_mapping(t_uint256,t_array(t_struct(Destination)4959_storage)dyn_storage)"
      },
      "t_mapping(t_bytes32,t_struct(RoleData)19_storage)": {
        "encoding": "mapping",
        "key": "t_bytes32",
        "label": "mapping(bytes32 => struct AccessControl.RoleData)",
        "numberOfBytes": "32",
        "value": "t_struct(RoleData)19_storage"
      },
      "t_mapping(t_bytes32,t_struct(Table)4984_storage)": {
        "encoding": "mapping",
        "key": "t_bytes32",
        "label": "mapping(bytes32 => struct DelphsTable.Table)",
        "numberOfBytes": "32",
        "value": "t_struct(Table)4984_storage"
      },
      "t_mapping(t_uint256,t_array(t_struct(Destination)4959_storage)dyn_storage)": {
        "encoding": "mapping",
        "key": "t_uint256",
        "label": "mapping(uint256 => struct DelphsTable.Destination[])",
        "numberOfBytes": "32",
        "value": "t_array(t_struct(Destination)4959_storage)dyn_storage"
      },
      "t_mapping(t_uint256,t_bytes32)": {
        "encoding": "mapping",
        "key": "t_uint256",
        "label": "mapping(uint256 => bytes32)",
        "numberOfBytes": "32",
        "value": "t_bytes32"
      },
      "t_mapping(t_uint256,t_uint256)": {
        "encoding": "mapping",
        "key": "t_uint256",
        "label": "mapping(uint256 => uint256)",
        "numberOfBytes": "32",
        "value": "t_uint256"
      },
      "t_struct(Destination)4959_storage": {
        "encoding": "inplace",
        "label": "struct DelphsTable.Destination",
        "members": [
          {
            "astId": 4954,
            "contract": "contracts/DelphsTable.sol:DelphsTable",
            "label": "player",
            "offset": 0,
            "slot": "0",
            "type": "t_address"
          },
          {
            "astId": 4956,
            "contract": "contracts/DelphsTable.sol:DelphsTable",
            "label": "x",
            "offset": 20,
            "slot": "0",
            "type": "t_int64"
          },
          {
            "astId": 4958,
            "contract": "contracts/DelphsTable.sol:DelphsTable",
            "label": "y",
            "offset": 0,
            "slot": "1",
            "type": "t_int64"
          }
        ],
        "numberOfBytes": "64"
      },
      "t_struct(RoleData)19_storage": {
        "encoding": "inplace",
        "label": "struct AccessControl.RoleData",
        "members": [
          {
            "astId": 16,
            "contract": "contracts/DelphsTable.sol:DelphsTable",
            "label": "members",
            "offset": 0,
            "slot": "0",
            "type": "t_mapping(t_address,t_bool)"
          },
          {
            "astId": 18,
            "contract": "contracts/DelphsTable.sol:DelphsTable",
            "label": "adminRole",
            "offset": 0,
            "slot": "1",
            "type": "t_bytes32"
          }
        ],
        "numberOfBytes": "64"
      },
      "t_struct(Table)4984_storage": {
        "encoding": "inplace",
        "label": "struct DelphsTable.Table",
        "members": [
          {
            "astId": 4961,
            "contract": "contracts/DelphsTable.sol:DelphsTable",
            "label": "id",
            "offset": 0,
            "slot": "0",
            "type": "t_bytes32"
          },
          {
            "astId": 4963,
            "contract": "contracts/DelphsTable.sol:DelphsTable",
            "label": "owner",
            "offset": 0,
            "slot": "1",
            "type": "t_address"
          },
          {
            "astId": 4965,
            "contract": "contracts/DelphsTable.sol:DelphsTable",
            "label": "startedAt",
            "offset": 0,
            "slot": "2",
            "type": "t_uint256"
          },
          {
            "astId": 4967,
            "contract": "contracts/DelphsTable.sol:DelphsTable",
            "label": "gameLength",
            "offset": 0,
            "slot": "3",
            "type": "t_uint256"
          },
          {
            "astId": 4969,
            "contract": "contracts/DelphsTable.sol:DelphsTable",
            "label": "tableSize",
            "offset": 0,
            "slot": "4",
            "type": "t_uint32"
          },
          {
            "astId": 4971,
            "contract": "contracts/DelphsTable.sol:DelphsTable",
            "label": "wootgumpMultiplier",
            "offset": 4,
            "slot": "4",
            "type": "t_uint32"
          },
          {
            "astId": 4974,
            "contract": "contracts/DelphsTable.sol:DelphsTable",
            "label": "players",
            "offset": 0,
            "slot": "5",
            "type": "t_array(t_address)dyn_storage"
          },
          {
            "astId": 4977,
            "contract": "contracts/DelphsTable.sol:DelphsTable",
            "label": "seeds",
            "offset": 0,
            "slot": "6",
            "type": "t_array(t_bytes32)dyn_storage"
          },
          {
            "astId": 4980,
            "contract": "contracts/DelphsTable.sol:DelphsTable",
            "label": "attributes",
            "offset": 0,
            "slot": "7",
            "type": "t_array(t_bytes32)dyn_storage"
          },
          {
            "astId": 4983,
            "contract": "contracts/DelphsTable.sol:DelphsTable",
            "label": "initialGump",
            "offset": 0,
            "slot": "8",
            "type": "t_array(t_uint256)dyn_storage"
          }
        ],
        "numberOfBytes": "288"
      },
      "t_uint256": {
        "encoding": "inplace",
        "label": "uint256",
        "numberOfBytes": "32"
      },
      "t_uint32": {
        "encoding": "inplace",
        "label": "uint32",
        "numberOfBytes": "4"
      }
    }
  }
}