{
  "address": "0x2AdD7b7f25CE6f1F48E40cD1c419934bE469d325",
  "abi": [
    {
      "inputs": [],
      "name": "getRandom",
      "outputs": [
        {
          "internalType": "bytes32",
          "name": "rnd",
          "type": "bytes32"
        }
      ],
      "stateMutability": "view",
      "type": "function"
    }
  ],
  "transactionHash": "0x08a166392f39565986b9cf9c4f13bbd08487b7279f0cb6c6cd6c98c08dcb77f8",
  "args": [],
  "numDeployments": 1,
  "solcInputHash": "763bee387f8943cda7a8b5c7e32db23f",
  "bytecode": "0x6080604052348015600f57600080fd5b5060978061001e6000396000f3fe6080604052348015600f57600080fd5b506004361060285760003560e01c8063aacc5a1714602d575b600080fd5b60336045565b60405190815260200160405180910390f35b60405160009080602081848060185afa605a57fe5b505191905056fea26469706673582212208a7489cf39f281a11b11054dd23c88f7151d2a032261aabb04371a55297c9b9b64736f6c634300080e0033",
  "devdoc": {
    "kind": "dev",
    "methods": {},
    "version": 1
  },
  "userdoc": {
    "kind": "user",
    "methods": {},
    "version": 1
  },
  "storageLayout": {
    "storage": [],
    "types": null
  }
}