{
  "address": "0x9dc35b3562bdE5f57eDc21ca1d0d11E669147CAC",
  "abi": [
    {
      "inputs": [],
      "name": "getRandom",
      "outputs": [
        {
          "internalType": "bytes32",
          "name": "rnd",
          "type": "bytes32"
        }
      ],
      "stateMutability": "view",
      "type": "function"
    }
  ],
  "transactionHash": "0x2e513fd4aa34e3ca47b9acd4990c6573a0375ec7792550a6a440a7143fd64346",
  "args": [],
  "numDeployments": 1,
  "solcInputHash": "3046def2f3d283ce176ecdc0db5c708b",
  "bytecode": "0x6080604052348015600f57600080fd5b5060978061001e6000396000f3fe6080604052348015600f57600080fd5b506004361060285760003560e01c8063aacc5a1714602d575b600080fd5b60336045565b60405190815260200160405180910390f35b60405160009080602081848060185afa605a57fe5b505191905056fea26469706673582212208a7489cf39f281a11b11054dd23c88f7151d2a032261aabb04371a55297c9b9b64736f6c634300080e0033",
  "devdoc": {
    "kind": "dev",
    "methods": {},
    "version": 1
  },
  "userdoc": {
    "kind": "user",
    "methods": {},
    "version": 1
  },
  "storageLayout": {
    "storage": [],
    "types": null
  }
}