{
  "address": "0xBbdb7675aA0998b55244821eDF54EF83654AF4D7",
  "abi": [
    {
      "inputs": [
        {
          "internalType": "address",
          "name": "trustedForwarder",
          "type": "address"
        },
        {
          "internalType": "address",
          "name": "initialOwner",
          "type": "address"
        }
      ],
      "stateMutability": "nonpayable",
      "type": "constructor"
    },
    {
      "inputs": [],
      "name": "AlreadyUsed",
      "type": "error"
    },
    {
      "inputs": [],
      "name": "SizeExceeded",
      "type": "error"
    },
    {
      "inputs": [],
      "name": "Unauthorized",
      "type": "error"
    },
    {
      "anonymous": false,
      "inputs": [
        {
          "indexed": true,
          "internalType": "bytes32",
          "name": "list",
          "type": "bytes32"
        },
        {
          "indexed": true,
          "internalType": "bytes32",
          "name": "entry",
          "type": "bytes32"
        }
      ],
      "name": "EntryAdded",
      "type": "event"
    },
    {
      "anonymous": false,
      "inputs": [
        {
          "indexed": true,
          "internalType": "bytes32",
          "name": "role",
          "type": "bytes32"
        },
        {
          "indexed": true,
          "internalType": "bytes32",
          "name": "previousAdminRole",
          "type": "bytes32"
        },
        {
          "indexed": true,
          "internalType": "bytes32",
          "name": "newAdminRole",
          "type": "bytes32"
        }
      ],
      "name": "RoleAdminChanged",
      "type": "event"
    },
    {
      "anonymous": false,
      "inputs": [
        {
          "indexed": true,
          "internalType": "bytes32",
          "name": "role",
          "type": "bytes32"
        },
        {
          "indexed": true,
          "internalType": "address",
          "name": "account",
          "type": "address"
        },
        {
          "indexed": true,
          "internalType": "address",
          "name": "sender",
          "type": "address"
        }
      ],
      "name": "RoleGranted",
      "type": "event"
    },
    {
      "anonymous": false,
      "inputs": [
        {
          "indexed": true,
          "internalType": "bytes32",
          "name": "role",
          "type": "bytes32"
        },
        {
          "indexed": true,
          "internalType": "address",
          "name": "account",
          "type": "address"
        },
        {
          "indexed": true,
          "internalType": "address",
          "name": "sender",
          "type": "address"
        }
      ],
      "name": "RoleRevoked",
      "type": "event"
    },
    {
      "inputs": [],
      "name": "ADMIN_ROLE",
      "outputs": [
        {
          "internalType": "bytes32",
          "name": "",
          "type": "bytes32"
        }
      ],
      "stateMutability": "view",
      "type": "function"
    },
    {
      "inputs": [],
      "name": "DEFAULT_ADMIN_ROLE",
      "outputs": [
        {
          "internalType": "bytes32",
          "name": "",
          "type": "bytes32"
        }
      ],
      "stateMutability": "view",
      "type": "function"
    },
    {
      "inputs": [
        {
          "internalType": "bytes32",
          "name": "listName",
          "type": "bytes32"
        },
        {
          "internalType": "bytes32",
          "name": "entry",
          "type": "bytes32"
        }
      ],
      "name": "add",
      "outputs": [
        {
          "internalType": "bool",
          "name": "",
          "type": "bool"
        }
      ],
      "stateMutability": "nonpayable",
      "type": "function"
    },
    {
      "inputs": [
        {
          "internalType": "bytes32",
          "name": "list",
          "type": "bytes32"
        },
        {
          "internalType": "bytes32",
          "name": "entry",
          "type": "bytes32"
        }
      ],
      "name": "contains",
      "outputs": [
        {
          "internalType": "bool",
          "name": "",
          "type": "bool"
        }
      ],
      "stateMutability": "view",
      "type": "function"
    },
    {
      "inputs": [
        {
          "internalType": "bytes32",
          "name": "list",
          "type": "bytes32"
        }
      ],
      "name": "count",
      "outputs": [
        {
          "internalType": "uint256",
          "name": "",
          "type": "uint256"
        }
      ],
      "stateMutability": "view",
      "type": "function"
    },
    {
      "inputs": [
        {
          "internalType": "bytes32",
          "name": "role",
          "type": "bytes32"
        }
      ],
      "name": "getRoleAdmin",
      "outputs": [
        {
          "internalType": "bytes32",
          "name": "",
          "type": "bytes32"
        }
      ],
      "stateMutability": "view",
      "type": "function"
    },
    {
      "inputs": [
        {
          "internalType": "bytes32",
          "name": "role",
          "type": "bytes32"
        },
        {
          "internalType": "address",
          "name": "account",
          "type": "address"
        }
      ],
      "name": "grantRole",
      "outputs": [],
      "stateMutability": "nonpayable",
      "type": "function"
    },
    {
      "inputs": [
        {
          "internalType": "bytes32",
          "name": "role",
          "type": "bytes32"
        },
        {
          "internalType": "address",
          "name": "account",
          "type": "address"
        }
      ],
      "name": "hasRole",
      "outputs": [
        {
          "internalType": "bool",
          "name": "",
          "type": "bool"
        }
      ],
      "stateMutability": "view",
      "type": "function"
    },
    {
      "inputs": [
        {
          "internalType": "address",
          "name": "forwarder",
          "type": "address"
        }
      ],
      "name": "isTrustedForwarder",
      "outputs": [
        {
          "internalType": "bool",
          "name": "",
          "type": "bool"
        }
      ],
      "stateMutability": "view",
      "type": "function"
    },
    {
      "inputs": [
        {
          "internalType": "bytes32",
          "name": "",
          "type": "bytes32"
        }
      ],
      "name": "listSize",
      "outputs": [
        {
          "internalType": "uint256",
          "name": "",
          "type": "uint256"
        }
      ],
      "stateMutability": "view",
      "type": "function"
    },
    {
      "inputs": [
        {
          "internalType": "bytes32",
          "name": "list",
          "type": "bytes32"
        },
        {
          "internalType": "bytes32",
          "name": "tableId",
          "type": "bytes32"
        }
      ],
      "name": "remove",
      "outputs": [
        {
          "internalType": "bool",
          "name": "",
          "type": "bool"
        }
      ],
      "stateMutability": "nonpayable",
      "type": "function"
    },
    {
      "inputs": [
        {
          "internalType": "bytes32",
          "name": "role",
          "type": "bytes32"
        },
        {
          "internalType": "address",
          "name": "account",
          "type": "address"
        }
      ],
      "name": "renounceRole",
      "outputs": [],
      "stateMutability": "nonpayable",
      "type": "function"
    },
    {
      "inputs": [
        {
          "internalType": "bytes32",
          "name": "role",
          "type": "bytes32"
        },
        {
          "internalType": "address",
          "name": "account",
          "type": "address"
        }
      ],
      "name": "revokeRole",
      "outputs": [],
      "stateMutability": "nonpayable",
      "type": "function"
    },
    {
      "inputs": [
        {
          "internalType": "bytes32",
          "name": "list",
          "type": "bytes32"
        },
        {
          "internalType": "uint256",
          "name": "maxSize",
          "type": "uint256"
        }
      ],
      "name": "setMaxListSize",
      "outputs": [],
      "stateMutability": "nonpayable",
      "type": "function"
    },
    {
      "inputs": [
        {
          "internalType": "bytes4",
          "name": "interfaceId",
          "type": "bytes4"
        }
      ],
      "name": "supportsInterface",
      "outputs": [
        {
          "internalType": "bool",
          "name": "",
          "type": "bool"
        }
      ],
      "stateMutability": "view",
      "type": "function"
    }
  ],
  "transactionHash": "0xf7883368100d2755ba7fd5d2b78a7a3dcf99b08db5e1ac0a9054d42f0394f63c",
  "args": [
    "0xcF0C20986DBDCFd2BE32318F4aca6BcE970D9E35",
    "0x6DE3D3747D54d0Adc11e5Cf678D4045B0441D332"
  ],
  "numDeployments": 1,
  "solcInputHash": "9d0ef8ac6c37d544e1e411c13ac79b52",
  "bytecode": "0x60a06040523480156200001157600080fd5b5060405162000f1138038062000f118339810160408190526200003491620001a9565b6001600160a01b0382166080526200006d7fa49807205ce4d355092ef5a8a18f56e8913cf4a201fbe287825b095693c217758262000082565b6200007a60008262000082565b5050620001e1565b6200008e828262000092565b5050565b6000828152602081815260408083206001600160a01b038516845290915290205460ff166200008e576000828152602081815260408083206001600160a01b03851684529091529020805460ff19166001179055620000f062000134565b6001600160a01b0316816001600160a01b0316837f2f8788117e7eff1d82e926ec794901d17c78024a50270940304540a733656f0d60405160405180910390a45050565b60006200014b6200015060201b6200056b1760201c565b905090565b6080516000906001600160a01b0316330362000173575060131936013560601c90565b6200014b6200018860201b620005b41760201c565b3390565b80516001600160a01b0381168114620001a457600080fd5b919050565b60008060408385031215620001bd57600080fd5b620001c8836200018c565b9150620001d8602084016200018c565b90509250929050565b608051610d0d62000204600039600081816101ab015261056f0152610d0d6000f3fe608060405234801561001057600080fd5b50600436106100f55760003560e01c806375b238fc11610097578063b10e417211610066578063b10e417214610231578063d1de592a14610244578063d547741f14610257578063da53aeff1461026a57600080fd5b806375b238fc146101ee5780637937354c1461020357806391d1485414610216578063a217fddf1461022957600080fd5b806335101af9116100d357806335101af91461016857806336568abe14610188578063572b6c051461019b5780635bf2a4e9146101db57600080fd5b806301ffc9a7146100fa578063248a9ca3146101225780632f2ff15d14610153575b600080fd5b61010d610108366004610a5a565b61027d565b60405190151581526020015b60405180910390f35b610145610130366004610a84565b60009081526020819052604090206001015490565b604051908152602001610119565b610166610161366004610ab9565b6102b4565b005b610145610176366004610a84565b60026020526000908152604090205481565b610166610196366004610ab9565b6102de565b61010d6101a9366004610ae5565b7f00000000000000000000000000000000000000000000000000000000000000006001600160a01b0390811691161490565b61010d6101e9366004610b00565b610371565b610145600080516020610cb883398151915281565b610145610211366004610a84565b610390565b61010d610224366004610ab9565b6103a7565b610145600081565b61010d61023f366004610b00565b6103d0565b61010d610252366004610b00565b610428565b610166610265366004610ab9565b61051b565b610166610278366004610b00565b610540565b60006001600160e01b03198216637965db0b60e01b14806102ae57506301ffc9a760e01b6001600160e01b03198316145b92915050565b6000828152602081905260409020600101546102cf816105b8565b6102d983836105cc565b505050565b6102e6610651565b6001600160a01b0316816001600160a01b0316146103635760405162461bcd60e51b815260206004820152602f60248201527f416363657373436f6e74726f6c3a2063616e206f6e6c792072656e6f756e636560448201526e103937b632b9903337b91039b2b63360891b60648201526084015b60405180910390fd5b61036d828261065b565b5050565b600082815260016020526040812061038990836106de565b9392505050565b60008181526001602052604081206102ae906106f6565b6000918252602082815260408084206001600160a01b0393909316845291905290205460ff1690565b60006103ea600080516020610cb8833981519152336103a7565b610406576040516282b42960e81b815260040160405180910390fd5b600083815260016020526040902061041e9083610700565b5060019392505050565b6000610442600080516020610cb8833981519152336103a7565b61045e576040516282b42960e81b815260040160405180910390fd5b600083815260016020526040902061047681846106de565b15610494576040516307b8c82160e41b815260040160405180910390fd5b60008481526002602052604090205480158015906104ba5750806104b7836106f6565b10155b156104d857604051634ef3517360e01b815260040160405180910390fd5b6104e2828561070c565b50604051849086907fecaece1baa9832206284a232c40f9fd53f893568d34c7e9ac2de8b4c9490beae90600090a3506001949350505050565b600082815260208190526040902060010154610536816105b8565b6102d9838361065b565b600080516020610cb8833981519152610558816105b8565b5060009182526002602052604090912055565b60007f00000000000000000000000000000000000000000000000000000000000000006001600160a01b031633036105aa575060131936013560601c90565b503390565b905090565b3390565b6105c9816105c4610651565b610718565b50565b6105d682826103a7565b61036d576000828152602081815260408083206001600160a01b03851684529091529020805460ff1916600117905561060d610651565b6001600160a01b0316816001600160a01b0316837f2f8788117e7eff1d82e926ec794901d17c78024a50270940304540a733656f0d60405160405180910390a45050565b60006105af61056b565b61066582826103a7565b1561036d576000828152602081815260408083206001600160a01b03851684529091529020805460ff1916905561069a610651565b6001600160a01b0316816001600160a01b0316837ff6391f5c32d9c69d2a47ea670b442974b53935d1edc7fd64eb21e047a839171b60405160405180910390a45050565b60008181526001830160205260408120541515610389565b60006102ae825490565b6000610389838361077c565b6000610389838361086f565b61072282826103a7565b61036d5761073a816001600160a01b031660146108be565b6107458360206108be565b604051602001610756929190610b52565b60408051601f198184030181529082905262461bcd60e51b825261035a91600401610bc7565b600081815260018301602052604081205480156108655760006107a0600183610c10565b85549091506000906107b490600190610c10565b90508181146108195760008660000182815481106107d4576107d4610c27565b90600052602060002001549050808760000184815481106107f7576107f7610c27565b6000918252602080832090910192909255918252600188019052604090208390555b855486908061082a5761082a610c3d565b6001900381819060005260206000200160009055905585600101600086815260200190815260200160002060009055600193505050506102ae565b60009150506102ae565b60008181526001830160205260408120546108b6575081546001818101845560008481526020808220909301849055845484825282860190935260409020919091556102ae565b5060006102ae565b606060006108cd836002610c53565b6108d8906002610c72565b67ffffffffffffffff8111156108f0576108f0610c8a565b6040519080825280601f01601f19166020018201604052801561091a576020820181803683370190505b509050600360fc1b8160008151811061093557610935610c27565b60200101906001600160f81b031916908160001a905350600f60fb1b8160018151811061096457610964610c27565b60200101906001600160f81b031916908160001a9053506000610988846002610c53565b610993906001610c72565b90505b6001811115610a0b576f181899199a1a9b1b9c1cb0b131b232b360811b85600f16601081106109c7576109c7610c27565b1a60f81b8282815181106109dd576109dd610c27565b60200101906001600160f81b031916908160001a90535060049490941c93610a0481610ca0565b9050610996565b5083156103895760405162461bcd60e51b815260206004820181905260248201527f537472696e67733a20686578206c656e67746820696e73756666696369656e74604482015260640161035a565b600060208284031215610a6c57600080fd5b81356001600160e01b03198116811461038957600080fd5b600060208284031215610a9657600080fd5b5035919050565b80356001600160a01b0381168114610ab457600080fd5b919050565b60008060408385031215610acc57600080fd5b82359150610adc60208401610a9d565b90509250929050565b600060208284031215610af757600080fd5b61038982610a9d565b60008060408385031215610b1357600080fd5b50508035926020909101359150565b60005b83811015610b3d578181015183820152602001610b25565b83811115610b4c576000848401525b50505050565b7f416363657373436f6e74726f6c3a206163636f756e7420000000000000000000815260008351610b8a816017850160208801610b22565b7001034b99036b4b9b9b4b733903937b6329607d1b6017918401918201528351610bbb816028840160208801610b22565b01602801949350505050565b6020815260008251806020840152610be6816040850160208701610b22565b601f01601f19169190910160400192915050565b634e487b7160e01b600052601160045260246000fd5b600082821015610c2257610c22610bfa565b500390565b634e487b7160e01b600052603260045260246000fd5b634e487b7160e01b600052603160045260246000fd5b6000816000190483118215151615610c6d57610c6d610bfa565b500290565b60008219821115610c8557610c85610bfa565b500190565b634e487b7160e01b600052604160045260246000fd5b600081610caf57610caf610bfa565b50600019019056fea49807205ce4d355092ef5a8a18f56e8913cf4a201fbe287825b095693c21775a2646970667358221220bf3aa71dfb5d8095369411c45d44123327322f72b0ce1bbe19cb5d56d1f7fa9764736f6c634300080e0033",
  "devdoc": {
    "kind": "dev",
    "methods": {
      "getRoleAdmin(bytes32)": {
        "details": "Returns the admin role that controls `role`. See {grantRole} and {revokeRole}. To change a role's admin, use {_setRoleAdmin}."
      },
      "grantRole(bytes32,address)": {
        "details": "Grants `role` to `account`. If `account` had not been already granted `role`, emits a {RoleGranted} event. Requirements: - the caller must have ``role``'s admin role."
      },
      "hasRole(bytes32,address)": {
        "details": "Returns `true` if `account` has been granted `role`."
      },
      "renounceRole(bytes32,address)": {
        "details": "Revokes `role` from the calling account. Roles are often managed via {grantRole} and {revokeRole}: this function's purpose is to provide a mechanism for accounts to lose their privileges if they are compromised (such as when a trusted device is misplaced). If the calling account had been revoked `role`, emits a {RoleRevoked} event. Requirements: - the caller must be `account`."
      },
      "revokeRole(bytes32,address)": {
        "details": "Revokes `role` from `account`. If `account` had been granted `role`, emits a {RoleRevoked} event. Requirements: - the caller must have ``role``'s admin role."
      },
      "supportsInterface(bytes4)": {
        "details": "See {IERC165-supportsInterface}."
      }
    },
    "version": 1
  },
  "userdoc": {
    "kind": "user",
    "methods": {},
    "version": 1
  },
  "storageLayout": {
    "storage": [
      {
        "astId": 24,
        "contract": "contracts/ListKeeper.sol:ListKeeper",
        "label": "_roles",
        "offset": 0,
        "slot": "0",
        "type": "t_mapping(t_bytes32,t_struct(RoleData)19_storage)"
      },
      {
        "astId": 2790,
        "contract": "contracts/ListKeeper.sol:ListKeeper",
        "label": "_lists",
        "offset": 0,
        "slot": "1",
        "type": "t_mapping(t_bytes32,t_struct(Bytes32Set)1762_storage)"
      },
      {
        "astId": 2794,
        "contract": "contracts/ListKeeper.sol:ListKeeper",
        "label": "listSize",
        "offset": 0,
        "slot": "2",
        "type": "t_mapping(t_bytes32,t_uint256)"
      }
    ],
    "types": {
      "t_address": {
        "encoding": "inplace",
        "label": "address",
        "numberOfBytes": "20"
      },
      "t_array(t_bytes32)dyn_storage": {
        "base": "t_bytes32",
        "encoding": "dynamic_array",
        "label": "bytes32[]",
        "numberOfBytes": "32"
      },
      "t_bool": {
        "encoding": "inplace",
        "label": "bool",
        "numberOfBytes": "1"
      },
      "t_bytes32": {
        "encoding": "inplace",
        "label": "bytes32",
        "numberOfBytes": "32"
      },
      "t_mapping(t_address,t_bool)": {
        "encoding": "mapping",
        "key": "t_address",
        "label": "mapping(address => bool)",
        "numberOfBytes": "32",
        "value": "t_bool"
      },
      "t_mapping(t_bytes32,t_struct(Bytes32Set)1762_storage)": {
        "encoding": "mapping",
        "key": "t_bytes32",
        "label": "mapping(bytes32 => struct EnumerableSet.Bytes32Set)",
        "numberOfBytes": "32",
        "value": "t_struct(Bytes32Set)1762_storage"
      },
      "t_mapping(t_bytes32,t_struct(RoleData)19_storage)": {
        "encoding": "mapping",
        "key": "t_bytes32",
        "label": "mapping(bytes32 => struct AccessControl.RoleData)",
        "numberOfBytes": "32",
        "value": "t_struct(RoleData)19_storage"
      },
      "t_mapping(t_bytes32,t_uint256)": {
        "encoding": "mapping",
        "key": "t_bytes32",
        "label": "mapping(bytes32 => uint256)",
        "numberOfBytes": "32",
        "value": "t_uint256"
      },
      "t_struct(Bytes32Set)1762_storage": {
        "encoding": "inplace",
        "label": "struct EnumerableSet.Bytes32Set",
        "members": [
          {
            "astId": 1761,
            "contract": "contracts/ListKeeper.sol:ListKeeper",
            "label": "_inner",
            "offset": 0,
            "slot": "0",
            "type": "t_struct(Set)1568_storage"
          }
        ],
        "numberOfBytes": "64"
      },
      "t_struct(RoleData)19_storage": {
        "encoding": "inplace",
        "label": "struct AccessControl.RoleData",
        "members": [
          {
            "astId": 16,
            "contract": "contracts/ListKeeper.sol:ListKeeper",
            "label": "members",
            "offset": 0,
            "slot": "0",
            "type": "t_mapping(t_address,t_bool)"
          },
          {
            "astId": 18,
            "contract": "contracts/ListKeeper.sol:ListKeeper",
            "label": "adminRole",
            "offset": 0,
            "slot": "1",
            "type": "t_bytes32"
          }
        ],
        "numberOfBytes": "64"
      },
      "t_struct(Set)1568_storage": {
        "encoding": "inplace",
        "label": "struct EnumerableSet.Set",
        "members": [
          {
            "astId": 1563,
            "contract": "contracts/ListKeeper.sol:ListKeeper",
            "label": "_values",
            "offset": 0,
            "slot": "0",
            "type": "t_array(t_bytes32)dyn_storage"
          },
          {
            "astId": 1567,
            "contract": "contracts/ListKeeper.sol:ListKeeper",
            "label": "_indexes",
            "offset": 0,
            "slot": "1",
            "type": "t_mapping(t_bytes32,t_uint256)"
          }
        ],
        "numberOfBytes": "64"
      },
      "t_uint256": {
        "encoding": "inplace",
        "label": "uint256",
        "numberOfBytes": "32"
      }
    }
  }
}