{
  "address": "0x3122DC23CD3383712Efd5B966c6C4F7cEF272cFc",
  "abi": [
    {
      "inputs": [
        {
          "internalType": "address",
          "name": "trustedForwarder",
          "type": "address"
        },
        {
          "internalType": "address",
          "name": "initialOwner",
          "type": "address"
        }
      ],
      "stateMutability": "nonpayable",
      "type": "constructor"
    },
    {
      "anonymous": false,
      "inputs": [
        {
          "indexed": true,
          "internalType": "address",
          "name": "account",
          "type": "address"
        },
        {
          "indexed": true,
          "internalType": "address",
          "name": "operator",
          "type": "address"
        },
        {
          "indexed": false,
          "internalType": "bool",
          "name": "approved",
          "type": "bool"
        }
      ],
      "name": "ApprovalForAll",
      "type": "event"
    },
    {
      "anonymous": false,
      "inputs": [
        {
          "indexed": true,
          "internalType": "bytes32",
          "name": "role",
          "type": "bytes32"
        },
        {
          "indexed": true,
          "internalType": "bytes32",
          "name": "previousAdminRole",
          "type": "bytes32"
        },
        {
          "indexed": true,
          "internalType": "bytes32",
          "name": "newAdminRole",
          "type": "bytes32"
        }
      ],
      "name": "RoleAdminChanged",
      "type": "event"
    },
    {
      "anonymous": false,
      "inputs": [
        {
          "indexed": true,
          "internalType": "bytes32",
          "name": "role",
          "type": "bytes32"
        },
        {
          "indexed": true,
          "internalType": "address",
          "name": "account",
          "type": "address"
        },
        {
          "indexed": true,
          "internalType": "address",
          "name": "sender",
          "type": "address"
        }
      ],
      "name": "RoleGranted",
      "type": "event"
    },
    {
      "anonymous": false,
      "inputs": [
        {
          "indexed": true,
          "internalType": "bytes32",
          "name": "role",
          "type": "bytes32"
        },
        {
          "indexed": true,
          "internalType": "address",
          "name": "account",
          "type": "address"
        },
        {
          "indexed": true,
          "internalType": "address",
          "name": "sender",
          "type": "address"
        }
      ],
      "name": "RoleRevoked",
      "type": "event"
    },
    {
      "anonymous": false,
      "inputs": [
        {
          "indexed": true,
          "internalType": "address",
          "name": "operator",
          "type": "address"
        },
        {
          "indexed": true,
          "internalType": "address",
          "name": "from",
          "type": "address"
        },
        {
          "indexed": true,
          "internalType": "address",
          "name": "to",
          "type": "address"
        },
        {
          "indexed": false,
          "internalType": "uint256[]",
          "name": "ids",
          "type": "uint256[]"
        },
        {
          "indexed": false,
          "internalType": "uint256[]",
          "name": "values",
          "type": "uint256[]"
        }
      ],
      "name": "TransferBatch",
      "type": "event"
    },
    {
      "anonymous": false,
      "inputs": [
        {
          "indexed": true,
          "internalType": "address",
          "name": "operator",
          "type": "address"
        },
        {
          "indexed": true,
          "internalType": "address",
          "name": "from",
          "type": "address"
        },
        {
          "indexed": true,
          "internalType": "address",
          "name": "to",
          "type": "address"
        },
        {
          "indexed": false,
          "internalType": "uint256",
          "name": "id",
          "type": "uint256"
        },
        {
          "indexed": false,
          "internalType": "uint256",
          "name": "value",
          "type": "uint256"
        }
      ],
      "name": "TransferSingle",
      "type": "event"
    },
    {
      "anonymous": false,
      "inputs": [
        {
          "indexed": false,
          "internalType": "string",
          "name": "value",
          "type": "string"
        },
        {
          "indexed": true,
          "internalType": "uint256",
          "name": "id",
          "type": "uint256"
        }
      ],
      "name": "URI",
      "type": "event"
    },
    {
      "inputs": [],
      "name": "DEFAULT_ADMIN_ROLE",
      "outputs": [
        {
          "internalType": "bytes32",
          "name": "",
          "type": "bytes32"
        }
      ],
      "stateMutability": "view",
      "type": "function"
    },
    {
      "inputs": [],
      "name": "MINTER_ROLE",
      "outputs": [
        {
          "internalType": "bytes32",
          "name": "",
          "type": "bytes32"
        }
      ],
      "stateMutability": "view",
      "type": "function"
    },
    {
      "inputs": [],
      "name": "URI_SETTER_ROLE",
      "outputs": [
        {
          "internalType": "bytes32",
          "name": "",
          "type": "bytes32"
        }
      ],
      "stateMutability": "view",
      "type": "function"
    },
    {
      "inputs": [],
      "name": "VERSION",
      "outputs": [
        {
          "internalType": "uint64",
          "name": "",
          "type": "uint64"
        }
      ],
      "stateMutability": "view",
      "type": "function"
    },
    {
      "inputs": [
        {
          "internalType": "address",
          "name": "account",
          "type": "address"
        },
        {
          "internalType": "uint256",
          "name": "id",
          "type": "uint256"
        }
      ],
      "name": "balanceOf",
      "outputs": [
        {
          "internalType": "uint256",
          "name": "",
          "type": "uint256"
        }
      ],
      "stateMutability": "view",
      "type": "function"
    },
    {
      "inputs": [
        {
          "internalType": "address[]",
          "name": "accounts",
          "type": "address[]"
        },
        {
          "internalType": "uint256[]",
          "name": "ids",
          "type": "uint256[]"
        }
      ],
      "name": "balanceOfBatch",
      "outputs": [
        {
          "internalType": "uint256[]",
          "name": "",
          "type": "uint256[]"
        }
      ],
      "stateMutability": "view",
      "type": "function"
    },
    {
      "inputs": [],
      "name": "contractURI",
      "outputs": [
        {
          "internalType": "string",
          "name": "",
          "type": "string"
        }
      ],
      "stateMutability": "view",
      "type": "function"
    },
    {
      "inputs": [
        {
          "internalType": "uint256",
          "name": "id",
          "type": "uint256"
        }
      ],
      "name": "exists",
      "outputs": [
        {
          "internalType": "bool",
          "name": "",
          "type": "bool"
        }
      ],
      "stateMutability": "view",
      "type": "function"
    },
    {
      "inputs": [
        {
          "internalType": "bytes32",
          "name": "role",
          "type": "bytes32"
        }
      ],
      "name": "getRoleAdmin",
      "outputs": [
        {
          "internalType": "bytes32",
          "name": "",
          "type": "bytes32"
        }
      ],
      "stateMutability": "view",
      "type": "function"
    },
    {
      "inputs": [
        {
          "internalType": "bytes32",
          "name": "role",
          "type": "bytes32"
        },
        {
          "internalType": "address",
          "name": "account",
          "type": "address"
        }
      ],
      "name": "grantRole",
      "outputs": [],
      "stateMutability": "nonpayable",
      "type": "function"
    },
    {
      "inputs": [
        {
          "internalType": "bytes32",
          "name": "role",
          "type": "bytes32"
        },
        {
          "internalType": "address",
          "name": "account",
          "type": "address"
        }
      ],
      "name": "hasRole",
      "outputs": [
        {
          "internalType": "bool",
          "name": "",
          "type": "bool"
        }
      ],
      "stateMutability": "view",
      "type": "function"
    },
    {
      "inputs": [
        {
          "internalType": "address",
          "name": "account",
          "type": "address"
        },
        {
          "internalType": "address",
          "name": "operator",
          "type": "address"
        }
      ],
      "name": "isApprovedForAll",
      "outputs": [
        {
          "internalType": "bool",
          "name": "",
          "type": "bool"
        }
      ],
      "stateMutability": "view",
      "type": "function"
    },
    {
      "inputs": [
        {
          "internalType": "address",
          "name": "forwarder",
          "type": "address"
        }
      ],
      "name": "isTrustedForwarder",
      "outputs": [
        {
          "internalType": "bool",
          "name": "",
          "type": "bool"
        }
      ],
      "stateMutability": "view",
      "type": "function"
    },
    {
      "inputs": [
        {
          "internalType": "address",
          "name": "account",
          "type": "address"
        },
        {
          "internalType": "uint256",
          "name": "id",
          "type": "uint256"
        },
        {
          "internalType": "uint256",
          "name": "amount",
          "type": "uint256"
        },
        {
          "internalType": "bytes",
          "name": "data",
          "type": "bytes"
        }
      ],
      "name": "mint",
      "outputs": [],
      "stateMutability": "nonpayable",
      "type": "function"
    },
    {
      "inputs": [
        {
          "internalType": "address",
          "name": "to",
          "type": "address"
        },
        {
          "internalType": "uint256[]",
          "name": "ids",
          "type": "uint256[]"
        },
        {
          "internalType": "uint256[]",
          "name": "amounts",
          "type": "uint256[]"
        },
        {
          "internalType": "bytes",
          "name": "data",
          "type": "bytes"
        }
      ],
      "name": "mintBatch",
      "outputs": [],
      "stateMutability": "nonpayable",
      "type": "function"
    },
    {
      "inputs": [
        {
          "components": [
            {
              "internalType": "address",
              "name": "to",
              "type": "address"
            },
            {
              "internalType": "uint256",
              "name": "id",
              "type": "uint256"
            },
            {
              "internalType": "uint256",
              "name": "amount",
              "type": "uint256"
            }
          ],
          "internalType": "struct Accolades.BulkMint[]",
          "name": "mints",
          "type": "tuple[]"
        },
        {
          "internalType": "bytes",
          "name": "data",
          "type": "bytes"
        }
      ],
      "name": "multiUserBatchMint",
      "outputs": [
        {
          "internalType": "bool",
          "name": "",
          "type": "bool"
        }
      ],
      "stateMutability": "nonpayable",
      "type": "function"
    },
    {
      "inputs": [
        {
          "internalType": "bytes32",
          "name": "role",
          "type": "bytes32"
        },
        {
          "internalType": "address",
          "name": "account",
          "type": "address"
        }
      ],
      "name": "renounceRole",
      "outputs": [],
      "stateMutability": "nonpayable",
      "type": "function"
    },
    {
      "inputs": [
        {
          "internalType": "bytes32",
          "name": "role",
          "type": "bytes32"
        },
        {
          "internalType": "address",
          "name": "account",
          "type": "address"
        }
      ],
      "name": "revokeRole",
      "outputs": [],
      "stateMutability": "nonpayable",
      "type": "function"
    },
    {
      "inputs": [
        {
          "internalType": "address",
          "name": "from",
          "type": "address"
        },
        {
          "internalType": "address",
          "name": "to",
          "type": "address"
        },
        {
          "internalType": "uint256[]",
          "name": "ids",
          "type": "uint256[]"
        },
        {
          "internalType": "uint256[]",
          "name": "amounts",
          "type": "uint256[]"
        },
        {
          "internalType": "bytes",
          "name": "data",
          "type": "bytes"
        }
      ],
      "name": "safeBatchTransferFrom",
      "outputs": [],
      "stateMutability": "nonpayable",
      "type": "function"
    },
    {
      "inputs": [
        {
          "internalType": "address",
          "name": "from",
          "type": "address"
        },
        {
          "internalType": "address",
          "name": "to",
          "type": "address"
        },
        {
          "internalType": "uint256",
          "name": "id",
          "type": "uint256"
        },
        {
          "internalType": "uint256",
          "name": "amount",
          "type": "uint256"
        },
        {
          "internalType": "bytes",
          "name": "data",
          "type": "bytes"
        }
      ],
      "name": "safeTransferFrom",
      "outputs": [],
      "stateMutability": "nonpayable",
      "type": "function"
    },
    {
      "inputs": [
        {
          "internalType": "address",
          "name": "operator",
          "type": "address"
        },
        {
          "internalType": "bool",
          "name": "approved",
          "type": "bool"
        }
      ],
      "name": "setApprovalForAll",
      "outputs": [],
      "stateMutability": "nonpayable",
      "type": "function"
    },
    {
      "inputs": [
        {
          "internalType": "string",
          "name": "newuri",
          "type": "string"
        }
      ],
      "name": "setContractURI",
      "outputs": [],
      "stateMutability": "nonpayable",
      "type": "function"
    },
    {
      "inputs": [
        {
          "internalType": "string",
          "name": "newuri",
          "type": "string"
        }
      ],
      "name": "setURI",
      "outputs": [],
      "stateMutability": "nonpayable",
      "type": "function"
    },
    {
      "inputs": [
        {
          "internalType": "bytes4",
          "name": "interfaceId",
          "type": "bytes4"
        }
      ],
      "name": "supportsInterface",
      "outputs": [
        {
          "internalType": "bool",
          "name": "",
          "type": "bool"
        }
      ],
      "stateMutability": "view",
      "type": "function"
    },
    {
      "inputs": [
        {
          "internalType": "uint256",
          "name": "id",
          "type": "uint256"
        }
      ],
      "name": "totalSupply",
      "outputs": [
        {
          "internalType": "uint256",
          "name": "",
          "type": "uint256"
        }
      ],
      "stateMutability": "view",
      "type": "function"
    },
    {
      "inputs": [
        {
          "internalType": "uint256",
          "name": "",
          "type": "uint256"
        }
      ],
      "name": "uri",
      "outputs": [
        {
          "internalType": "string",
          "name": "",
          "type": "string"
        }
      ],
      "stateMutability": "view",
      "type": "function"
    }
  ],
  "transactionHash": "0xca2e7f6726de50f5ff88bc0a0ab3eb9dc85fd263260f2984795b8bbe50c60dbf",
  "args": [
    "0xe00e66A2713E924b9CC56319752021747dDDEaA3",
    "0x6DE3D3747D54d0Adc11e5Cf678D4045B0441D332"
  ],
  "numDeployments": 1,
  "solcInputHash": "320561b8a804b68e45648f257c3cecf8",
  "bytecode": "0x60a06040523480156200001157600080fd5b5060405162002944380380620029448339810160408190526200003491620002c9565b60408051808201909152601b81527f43727970746f20436f6c6f737365756d3a204163636f6c616465730000000000602082015282906200007581620000ef565b506001600160a01b03166080526200008f60008262000108565b620000bb7f7804d923f43a17d325d77e781528e0793b2edd9890ab45fc64efd7b4b427744c8262000108565b620000e77f9f2df0fed2c77648de5860a4cc508cd0818c85b8b8a1ab4ceeef8d981c8956a68262000108565b50506200033d565b80516200010490600290602084019062000206565b5050565b60008281526003602090815260408083206001600160a01b038516845290915290205460ff16620001045760008281526003602090815260408083206001600160a01b03851684529091529020805460ff191660011790556200016a620001ae565b6001600160a01b0316816001600160a01b0316837f2f8788117e7eff1d82e926ec794901d17c78024a50270940304540a733656f0d60405160405180910390a45050565b6000620001c5620001ca60201b62000b1a1760201c565b905090565b6080516000906001600160a01b03163303620001ed575060131936013560601c90565b620001c56200020260201b62000b661760201c565b3390565b828054620002149062000301565b90600052602060002090601f01602090048101928262000238576000855562000283565b82601f106200025357805160ff191683800117855562000283565b8280016001018555821562000283579182015b828111156200028357825182559160200191906001019062000266565b506200029192915062000295565b5090565b5b8082111562000291576000815560010162000296565b80516001600160a01b0381168114620002c457600080fd5b919050565b60008060408385031215620002dd57600080fd5b620002e883620002ac565b9150620002f860208401620002ac565b90509250929050565b600181811c908216806200031657607f821691505b6020821081036200033757634e487b7160e01b600052602260045260246000fd5b50919050565b6080516125e462000360600039600081816102d10152610b1e01526125e46000f3fe608060405234801561001057600080fd5b506004361061018d5760003560e01c80637f345710116100de578063d539139311610097578063e985e9c511610071578063e985e9c5146103cc578063f242432a14610408578063f3beccf41461041b578063ffa1ad741461042e57600080fd5b8063d53913931461039c578063d547741f146103b1578063e8a3d485146103c457600080fd5b80637f3457101461031457806391d148541461033b578063938e3d7b1461034e578063a217fddf14610361578063a22cb46514610369578063bd85b0391461037c57600080fd5b80632eb2c2d61161014b5780634e1273f4116101255780634e1273f41461027f5780634f558e791461029f578063572b6c05146102c1578063731133e91461030157600080fd5b80632eb2c2d6146102465780632f2ff15d1461025957806336568abe1461026c57600080fd5b8062fdd58e1461019257806301ffc9a7146101b857806302fe5305146101db5780630e89341c146101f05780631f7fdffa14610210578063248a9ca314610223575b600080fd5b6101a56101a03660046119f0565b61044e565b6040519081526020015b60405180910390f35b6101cb6101c6366004611a30565b6104e5565b60405190151581526020016101af565b6101ee6101e9366004611aec565b6104f6565b005b6102036101fe366004611b3c565b61052d565b6040516101af9190611bb1565b6101ee61021e366004611c78565b6105c1565b6101a5610231366004611b3c565b60009081526003602052604090206001015490565b6101ee610254366004611d10565b6105ec565b6101ee610267366004611db9565b61068e565b6101ee61027a366004611db9565b6106b8565b61029261028d366004611de5565b610742565b6040516101af9190611eea565b6101cb6102ad366004611b3c565b600090815260046020526040902054151590565b6101cb6102cf366004611efd565b7f00000000000000000000000000000000000000000000000000000000000000006001600160a01b0390811691161490565b6101ee61030f366004611f18565b61086b565b6101a57f7804d923f43a17d325d77e781528e0793b2edd9890ab45fc64efd7b4b427744c81565b6101cb610349366004611db9565b61088f565b6101ee61035c366004611aec565b6108ba565b6101a5600081565b6101ee610377366004611f6c565b6108f7565b6101a561038a366004611b3c565b60009081526004602052604090205490565b6101a560008051602061258f83398151915281565b6101ee6103bf366004611db9565b610909565b61020361092e565b6101cb6103da366004611fa8565b6001600160a01b03918216600090815260016020908152604080832093909416825291909152205460ff1690565b6101ee610416366004611fd2565b6109c0565b6101cb610429366004612036565b610a59565b610436600181565b6040516001600160401b0390911681526020016101af565b60006001600160a01b0383166104bf5760405162461bcd60e51b815260206004820152602b60248201527f455243313135353a2062616c616e636520717565727920666f7220746865207a60448201526a65726f206164647265737360a81b60648201526084015b60405180910390fd5b506000908152602081815260408083206001600160a01b03949094168352929052205490565b60006104f082610b6a565b92915050565b7f7804d923f43a17d325d77e781528e0793b2edd9890ab45fc64efd7b4b427744c61052081610b8f565b61052982610ba3565b5050565b60606002805461053c906120fa565b80601f0160208091040260200160405190810160405280929190818152602001828054610568906120fa565b80156105b55780601f1061058a576101008083540402835291602001916105b5565b820191906000526020600020905b81548152906001019060200180831161059857829003601f168201915b50505050509050919050565b60008051602061258f8339815191526105d981610b8f565b6105e585858585610bb6565b5050505050565b6105f4610d1b565b6001600160a01b0316856001600160a01b0316148061061a575061061a856103da610d1b565b6106815760405162461bcd60e51b815260206004820152603260248201527f455243313135353a207472616e736665722063616c6c6572206973206e6f74206044820152711bdddb995c881b9bdc88185c1c1c9bdd995960721b60648201526084016104b6565b6105e58585858585610d25565b6000828152600360205260409020600101546106a981610b8f565b6106b38383610eda565b505050565b6106c0610d1b565b6001600160a01b0316816001600160a01b0316146107385760405162461bcd60e51b815260206004820152602f60248201527f416363657373436f6e74726f6c3a2063616e206f6e6c792072656e6f756e636560448201526e103937b632b9903337b91039b2b63360891b60648201526084016104b6565b6105298282610f61565b606081518351146107a75760405162461bcd60e51b815260206004820152602960248201527f455243313135353a206163636f756e747320616e6420696473206c656e677468604482015268040dad2e6dac2e8c6d60bb1b60648201526084016104b6565b600083516001600160401b038111156107c2576107c2611a4d565b6040519080825280602002602001820160405280156107eb578160200160208202803683370190505b50905060005b84518110156108635761083685828151811061080f5761080f612134565b602002602001015185838151811061082957610829612134565b602002602001015161044e565b82828151811061084857610848612134565b602090810291909101015261085c81612160565b90506107f1565b509392505050565b60008051602061258f83398151915261088381610b8f565b6105e585858585610fe6565b60009182526003602090815260408084206001600160a01b0393909316845291905290205460ff1690565b7f7804d923f43a17d325d77e781528e0793b2edd9890ab45fc64efd7b4b427744c6108e481610b8f565b81516106b390600590602085019061193b565b610529610902610d1b565b83836110da565b60008281526003602052604090206001015461092481610b8f565b6106b38383610f61565b60606005805461093d906120fa565b80601f0160208091040260200160405190810160405280929190818152602001828054610969906120fa565b80156109b65780601f1061098b576101008083540402835291602001916109b6565b820191906000526020600020905b81548152906001019060200180831161099957829003601f168201915b5050505050905090565b6109c8610d1b565b6001600160a01b0316856001600160a01b031614806109ee57506109ee856103da610d1b565b610a4c5760405162461bcd60e51b815260206004820152602960248201527f455243313135353a2063616c6c6572206973206e6f74206f776e6572206e6f7260448201526808185c1c1c9bdd995960ba1b60648201526084016104b6565b6105e585858585856111ba565b600060008051602061258f833981519152610a7381610b8f565b8460005b81811015610b0c576000888883818110610a9357610a93612134565b905060600201803603810190610aa99190612179565b9050610af98160000151826020015183604001518a8a8080601f016020809104026020016040519081016040528093929190818152602001838380828437600092019190915250610fe692505050565b5080610b0481612160565b915050610a77565b506001979650505050505050565b60007f00000000000000000000000000000000000000000000000000000000000000006001600160a01b03163303610b59575060131936013560601c90565b503390565b905090565b90565b3390565b60006001600160e01b03198216637965db0b60e01b14806104f057506104f0826112fd565b610ba081610b9b610d1b565b61134d565b50565b805161052990600290602084019061193b565b6001600160a01b038416610bdc5760405162461bcd60e51b81526004016104b6906121d9565b8151835114610bfd5760405162461bcd60e51b81526004016104b69061221a565b6000610c07610d1b565b9050610c18816000878787876113b1565b60005b8451811015610cb357838181518110610c3657610c36612134565b6020026020010151600080878481518110610c5357610c53612134565b602002602001015181526020019081526020016000206000886001600160a01b03166001600160a01b031681526020019081526020016000206000828254610c9b9190612262565b90915550819050610cab81612160565b915050610c1b565b50846001600160a01b031660006001600160a01b0316826001600160a01b03167f4a39dc06d4c0dbc64b70af90fd698a233a518aa5d07e595d983b8c0526c8f7fb8787604051610d0492919061227a565b60405180910390a46105e5816000878787876113bf565b6000610b5e610b1a565b8151835114610d465760405162461bcd60e51b81526004016104b69061221a565b6001600160a01b038416610d6c5760405162461bcd60e51b81526004016104b6906122a8565b6000610d76610d1b565b9050610d868187878787876113b1565b60005b8451811015610e6c576000858281518110610da657610da6612134565b602002602001015190506000858381518110610dc457610dc4612134565b602090810291909101810151600084815280835260408082206001600160a01b038e168352909352919091205490915081811015610e145760405162461bcd60e51b81526004016104b6906122ed565b6000838152602081815260408083206001600160a01b038e8116855292528083208585039055908b16825281208054849290610e51908490612262565b9250508190555050505080610e6590612160565b9050610d89565b50846001600160a01b0316866001600160a01b0316826001600160a01b03167f4a39dc06d4c0dbc64b70af90fd698a233a518aa5d07e595d983b8c0526c8f7fb8787604051610ebc92919061227a565b60405180910390a4610ed28187878787876113bf565b505050505050565b610ee4828261088f565b6105295760008281526003602090815260408083206001600160a01b03851684529091529020805460ff19166001179055610f1d610d1b565b6001600160a01b0316816001600160a01b0316837f2f8788117e7eff1d82e926ec794901d17c78024a50270940304540a733656f0d60405160405180910390a45050565b610f6b828261088f565b156105295760008281526003602090815260408083206001600160a01b03851684529091529020805460ff19169055610fa2610d1b565b6001600160a01b0316816001600160a01b0316837ff6391f5c32d9c69d2a47ea670b442974b53935d1edc7fd64eb21e047a839171b60405160405180910390a45050565b6001600160a01b03841661100c5760405162461bcd60e51b81526004016104b6906121d9565b6000611016610d1b565b905060006110238561151a565b905060006110308561151a565b9050611041836000898585896113b1565b6000868152602081815260408083206001600160a01b038b16845290915281208054879290611071908490612262565b909155505060408051878152602081018790526001600160a01b03808a1692600092918716917fc3d58168c5ae7397731d063d5bbf3d657854427343f4c083240f7aacaa2d0f62910160405180910390a46110d183600089898989611565565b50505050505050565b816001600160a01b0316836001600160a01b03160361114d5760405162461bcd60e51b815260206004820152602960248201527f455243313135353a2073657474696e6720617070726f76616c20737461747573604482015268103337b91039b2b63360b91b60648201526084016104b6565b6001600160a01b03838116600081815260016020908152604080832094871680845294825291829020805460ff191686151590811790915591519182527f17307eab39ab6107e8899845ad3d59bd9653f200f220920489ca2b5937696c31910160405180910390a3505050565b6001600160a01b0384166111e05760405162461bcd60e51b81526004016104b6906122a8565b60006111ea610d1b565b905060006111f78561151a565b905060006112048561151a565b90506112148389898585896113b1565b6000868152602081815260408083206001600160a01b038c168452909152902054858110156112555760405162461bcd60e51b81526004016104b6906122ed565b6000878152602081815260408083206001600160a01b038d8116855292528083208985039055908a16825281208054889290611292908490612262565b909155505060408051888152602081018890526001600160a01b03808b16928c821692918816917fc3d58168c5ae7397731d063d5bbf3d657854427343f4c083240f7aacaa2d0f62910160405180910390a46112f2848a8a8a8a8a611565565b505050505050505050565b60006001600160e01b03198216636cdb3d1360e11b148061132e57506001600160e01b031982166303a24d0760e21b145b806104f057506301ffc9a760e01b6001600160e01b03198316146104f0565b611357828261088f565b6105295761136f816001600160a01b03166014611620565b61137a836020611620565b60405160200161138b929190612337565b60408051601f198184030181529082905262461bcd60e51b82526104b691600401611bb1565b610ed28686868686866117c2565b6001600160a01b0384163b15610ed25760405163bc197c8160e01b81526001600160a01b0385169063bc197c819061140390899089908890889088906004016123ac565b6020604051808303816000875af192505050801561143e575060408051601f3d908101601f1916820190925261143b9181019061240a565b60015b6114ea5761144a612427565b806308c379a003611483575061145e612442565b806114695750611485565b8060405162461bcd60e51b81526004016104b69190611bb1565b505b60405162461bcd60e51b815260206004820152603460248201527f455243313135353a207472616e7366657220746f206e6f6e20455243313135356044820152732932b1b2b4bb32b91034b6b83632b6b2b73a32b960611b60648201526084016104b6565b6001600160e01b0319811663bc197c8160e01b146110d15760405162461bcd60e51b81526004016104b6906124cb565b6040805160018082528183019092526060916000919060208083019080368337019050509050828160008151811061155457611554612134565b602090810291909101015292915050565b6001600160a01b0384163b15610ed25760405163f23a6e6160e01b81526001600160a01b0385169063f23a6e61906115a99089908990889088908890600401612513565b6020604051808303816000875af19250505080156115e4575060408051601f3d908101601f191682019092526115e19181019061240a565b60015b6115f05761144a612427565b6001600160e01b0319811663f23a6e6160e01b146110d15760405162461bcd60e51b81526004016104b6906124cb565b6060600061162f836002612558565b61163a906002612262565b6001600160401b0381111561165157611651611a4d565b6040519080825280601f01601f19166020018201604052801561167b576020820181803683370190505b509050600360fc1b8160008151811061169657611696612134565b60200101906001600160f81b031916908160001a905350600f60fb1b816001815181106116c5576116c5612134565b60200101906001600160f81b031916908160001a90535060006116e9846002612558565b6116f4906001612262565b90505b600181111561176c576f181899199a1a9b1b9c1cb0b131b232b360811b85600f166010811061172857611728612134565b1a60f81b82828151811061173e5761173e612134565b60200101906001600160f81b031916908160001a90535060049490941c9361176581612577565b90506116f7565b5083156117bb5760405162461bcd60e51b815260206004820181905260248201527f537472696e67733a20686578206c656e67746820696e73756666696369656e7460448201526064016104b6565b9392505050565b6001600160a01b0385166118495760005b8351811015611847578281815181106117ee576117ee612134565b60200260200101516004600086848151811061180c5761180c612134565b6020026020010151815260200190815260200160002060008282546118319190612262565b90915550611840905081612160565b90506117d3565b505b6001600160a01b038416610ed25760005b83518110156110d157600084828151811061187757611877612134565b60200260200101519050600084838151811061189557611895612134565b60200260200101519050600060046000848152602001908152602001600020549050818110156119185760405162461bcd60e51b815260206004820152602860248201527f455243313135353a206275726e20616d6f756e74206578636565647320746f74604482015267616c537570706c7960c01b60648201526084016104b6565b6000928352600460205260409092209103905561193481612160565b905061185a565b828054611947906120fa565b90600052602060002090601f01602090048101928261196957600085556119af565b82601f1061198257805160ff19168380011785556119af565b828001600101855582156119af579182015b828111156119af578251825591602001919060010190611994565b506119bb9291506119bf565b5090565b5b808211156119bb57600081556001016119c0565b80356001600160a01b03811681146119eb57600080fd5b919050565b60008060408385031215611a0357600080fd5b611a0c836119d4565b946020939093013593505050565b6001600160e01b031981168114610ba057600080fd5b600060208284031215611a4257600080fd5b81356117bb81611a1a565b634e487b7160e01b600052604160045260246000fd5b601f8201601f191681016001600160401b0381118282101715611a8857611a88611a4d565b6040525050565b60006001600160401b03831115611aa857611aa8611a4d565b604051611abf601f8501601f191660200182611a63565b809150838152848484011115611ad457600080fd5b83836020830137600060208583010152509392505050565b600060208284031215611afe57600080fd5b81356001600160401b03811115611b1457600080fd5b8201601f81018413611b2557600080fd5b611b3484823560208401611a8f565b949350505050565b600060208284031215611b4e57600080fd5b5035919050565b60005b83811015611b70578181015183820152602001611b58565b83811115611b7f576000848401525b50505050565b60008151808452611b9d816020860160208601611b55565b601f01601f19169290920160200192915050565b6020815260006117bb6020830184611b85565b60006001600160401b03821115611bdd57611bdd611a4d565b5060051b60200190565b600082601f830112611bf857600080fd5b81356020611c0582611bc4565b604051611c128282611a63565b83815260059390931b8501820192828101915086841115611c3257600080fd5b8286015b84811015611c4d5780358352918301918301611c36565b509695505050505050565b600082601f830112611c6957600080fd5b6117bb83833560208501611a8f565b60008060008060808587031215611c8e57600080fd5b611c97856119d4565b935060208501356001600160401b0380821115611cb357600080fd5b611cbf88838901611be7565b94506040870135915080821115611cd557600080fd5b611ce188838901611be7565b93506060870135915080821115611cf757600080fd5b50611d0487828801611c58565b91505092959194509250565b600080600080600060a08688031215611d2857600080fd5b611d31866119d4565b9450611d3f602087016119d4565b935060408601356001600160401b0380821115611d5b57600080fd5b611d6789838a01611be7565b94506060880135915080821115611d7d57600080fd5b611d8989838a01611be7565b93506080880135915080821115611d9f57600080fd5b50611dac88828901611c58565b9150509295509295909350565b60008060408385031215611dcc57600080fd5b82359150611ddc602084016119d4565b90509250929050565b60008060408385031215611df857600080fd5b82356001600160401b0380821115611e0f57600080fd5b818501915085601f830112611e2357600080fd5b81356020611e3082611bc4565b604051611e3d8282611a63565b83815260059390931b8501820192828101915089841115611e5d57600080fd5b948201945b83861015611e8257611e73866119d4565b82529482019490820190611e62565b96505086013592505080821115611e9857600080fd5b50611ea585828601611be7565b9150509250929050565b600081518084526020808501945080840160005b83811015611edf57815187529582019590820190600101611ec3565b509495945050505050565b6020815260006117bb6020830184611eaf565b600060208284031215611f0f57600080fd5b6117bb826119d4565b60008060008060808587031215611f2e57600080fd5b611f37856119d4565b9350602085013592506040850135915060608501356001600160401b03811115611f6057600080fd5b611d0487828801611c58565b60008060408385031215611f7f57600080fd5b611f88836119d4565b915060208301358015158114611f9d57600080fd5b809150509250929050565b60008060408385031215611fbb57600080fd5b611fc4836119d4565b9150611ddc602084016119d4565b600080600080600060a08688031215611fea57600080fd5b611ff3866119d4565b9450612001602087016119d4565b9350604086013592506060860135915060808601356001600160401b0381111561202a57600080fd5b611dac88828901611c58565b6000806000806040858703121561204c57600080fd5b84356001600160401b038082111561206357600080fd5b818701915087601f83011261207757600080fd5b81358181111561208657600080fd5b88602060608302850101111561209b57600080fd5b6020928301965094509086013590808211156120b657600080fd5b818701915087601f8301126120ca57600080fd5b8135818111156120d957600080fd5b8860208285010111156120eb57600080fd5b95989497505060200194505050565b600181811c9082168061210e57607f821691505b60208210810361212e57634e487b7160e01b600052602260045260246000fd5b50919050565b634e487b7160e01b600052603260045260246000fd5b634e487b7160e01b600052601160045260246000fd5b6000600182016121725761217261214a565b5060010190565b60006060828403121561218b57600080fd5b604051606081018181106001600160401b03821117156121ad576121ad611a4d565b6040526121b9836119d4565b815260208301356020820152604083013560408201528091505092915050565b60208082526021908201527f455243313135353a206d696e7420746f20746865207a65726f206164647265736040820152607360f81b606082015260800190565b60208082526028908201527f455243313135353a2069647320616e6420616d6f756e7473206c656e677468206040820152670dad2e6dac2e8c6d60c31b606082015260800190565b600082198211156122755761227561214a565b500190565b60408152600061228d6040830185611eaf565b828103602084015261229f8185611eaf565b95945050505050565b60208082526025908201527f455243313135353a207472616e7366657220746f20746865207a65726f206164604082015264647265737360d81b606082015260800190565b6020808252602a908201527f455243313135353a20696e73756666696369656e742062616c616e636520666f60408201526939103a3930b739b332b960b11b606082015260800190565b7f416363657373436f6e74726f6c3a206163636f756e742000000000000000000081526000835161236f816017850160208801611b55565b7001034b99036b4b9b9b4b733903937b6329607d1b60179184019182015283516123a0816028840160208801611b55565b01602801949350505050565b6001600160a01b0386811682528516602082015260a0604082018190526000906123d890830186611eaf565b82810360608401526123ea8186611eaf565b905082810360808401526123fe8185611b85565b98975050505050505050565b60006020828403121561241c57600080fd5b81516117bb81611a1a565b600060033d1115610b635760046000803e5060005160e01c90565b600060443d10156124505790565b6040516003193d81016004833e81513d6001600160401b03816024840111818411171561247f57505050505090565b82850191508151818111156124975750505050505090565b843d87010160208285010111156124b15750505050505090565b6124c060208286010187611a63565b509095945050505050565b60208082526028908201527f455243313135353a204552433131353552656365697665722072656a656374656040820152676420746f6b656e7360c01b606082015260800190565b6001600160a01b03868116825285166020820152604081018490526060810183905260a06080820181905260009061254d90830184611b85565b979650505050505050565b60008160001904831182151516156125725761257261214a565b500290565b6000816125865761258661214a565b50600019019056fe9f2df0fed2c77648de5860a4cc508cd0818c85b8b8a1ab4ceeef8d981c8956a6a26469706673582212202a6ed281fff175f08e48e2bd567563fba58139a406f7555c6628f49fd3fda20a64736f6c634300080e0033",
  "devdoc": {
    "kind": "dev",
    "methods": {
      "balanceOf(address,uint256)": {
        "details": "See {IERC1155-balanceOf}. Requirements: - `account` cannot be the zero address."
      },
      "balanceOfBatch(address[],uint256[])": {
        "details": "See {IERC1155-balanceOfBatch}. Requirements: - `accounts` and `ids` must have the same length."
      },
      "exists(uint256)": {
        "details": "Indicates whether any token exist with a given id, or not."
      },
      "getRoleAdmin(bytes32)": {
        "details": "Returns the admin role that controls `role`. See {grantRole} and {revokeRole}. To change a role's admin, use {_setRoleAdmin}."
      },
      "grantRole(bytes32,address)": {
        "details": "Grants `role` to `account`. If `account` had not been already granted `role`, emits a {RoleGranted} event. Requirements: - the caller must have ``role``'s admin role."
      },
      "hasRole(bytes32,address)": {
        "details": "Returns `true` if `account` has been granted `role`."
      },
      "isApprovedForAll(address,address)": {
        "details": "See {IERC1155-isApprovedForAll}."
      },
      "renounceRole(bytes32,address)": {
        "details": "Revokes `role` from the calling account. Roles are often managed via {grantRole} and {revokeRole}: this function's purpose is to provide a mechanism for accounts to lose their privileges if they are compromised (such as when a trusted device is misplaced). If the calling account had been revoked `role`, emits a {RoleRevoked} event. Requirements: - the caller must be `account`."
      },
      "revokeRole(bytes32,address)": {
        "details": "Revokes `role` from `account`. If `account` had been granted `role`, emits a {RoleRevoked} event. Requirements: - the caller must have ``role``'s admin role."
      },
      "safeBatchTransferFrom(address,address,uint256[],uint256[],bytes)": {
        "details": "See {IERC1155-safeBatchTransferFrom}."
      },
      "safeTransferFrom(address,address,uint256,uint256,bytes)": {
        "details": "See {IERC1155-safeTransferFrom}."
      },
      "setApprovalForAll(address,bool)": {
        "details": "See {IERC1155-setApprovalForAll}."
      },
      "totalSupply(uint256)": {
        "details": "Total amount of tokens in with a given id."
      },
      "uri(uint256)": {
        "details": "See {IERC1155MetadataURI-uri}. This implementation returns the same URI for *all* token types. It relies on the token type ID substitution mechanism https://eips.ethereum.org/EIPS/eip-1155#metadata[defined in the EIP]. Clients calling this function must replace the `\\{id\\}` substring with the actual token type ID."
      }
    },
    "version": 1
  },
  "userdoc": {
    "kind": "user",
    "methods": {},
    "version": 1
  },
  "storageLayout": {
    "storage": [
      {
        "astId": 589,
        "contract": "contracts/Accolades.sol:Accolades",
        "label": "_balances",
        "offset": 0,
        "slot": "0",
        "type": "t_mapping(t_uint256,t_mapping(t_address,t_uint256))"
      },
      {
        "astId": 595,
        "contract": "contracts/Accolades.sol:Accolades",
        "label": "_operatorApprovals",
        "offset": 0,
        "slot": "1",
        "type": "t_mapping(t_address,t_mapping(t_address,t_bool))"
      },
      {
        "astId": 597,
        "contract": "contracts/Accolades.sol:Accolades",
        "label": "_uri",
        "offset": 0,
        "slot": "2",
        "type": "t_string_storage"
      },
      {
        "astId": 24,
        "contract": "contracts/Accolades.sol:Accolades",
        "label": "_roles",
        "offset": 0,
        "slot": "3",
        "type": "t_mapping(t_bytes32,t_struct(RoleData)19_storage)"
      },
      {
        "astId": 1959,
        "contract": "contracts/Accolades.sol:Accolades",
        "label": "_totalSupply",
        "offset": 0,
        "slot": "4",
        "type": "t_mapping(t_uint256,t_uint256)"
      },
      {
        "astId": 4038,
        "contract": "contracts/Accolades.sol:Accolades",
        "label": "_contractURI",
        "offset": 0,
        "slot": "5",
        "type": "t_string_storage"
      }
    ],
    "types": {
      "t_address": {
        "encoding": "inplace",
        "label": "address",
        "numberOfBytes": "20"
      },
      "t_bool": {
        "encoding": "inplace",
        "label": "bool",
        "numberOfBytes": "1"
      },
      "t_bytes32": {
        "encoding": "inplace",
        "label": "bytes32",
        "numberOfBytes": "32"
      },
      "t_mapping(t_address,t_bool)": {
        "encoding": "mapping",
        "key": "t_address",
        "label": "mapping(address => bool)",
        "numberOfBytes": "32",
        "value": "t_bool"
      },
      "t_mapping(t_address,t_mapping(t_address,t_bool))": {
        "encoding": "mapping",
        "key": "t_address",
        "label": "mapping(address => mapping(address => bool))",
        "numberOfBytes": "32",
        "value": "t_mapping(t_address,t_bool)"
      },
      "t_mapping(t_address,t_uint256)": {
        "encoding": "mapping",
        "key": "t_address",
        "label": "mapping(address => uint256)",
        "numberOfBytes": "32",
        "value": "t_uint256"
      },
      "t_mapping(t_bytes32,t_struct(RoleData)19_storage)": {
        "encoding": "mapping",
        "key": "t_bytes32",
        "label": "mapping(bytes32 => struct AccessControl.RoleData)",
        "numberOfBytes": "32",
        "value": "t_struct(RoleData)19_storage"
      },
      "t_mapping(t_uint256,t_mapping(t_address,t_uint256))": {
        "encoding": "mapping",
        "key": "t_uint256",
        "label": "mapping(uint256 => mapping(address => uint256))",
        "numberOfBytes": "32",
        "value": "t_mapping(t_address,t_uint256)"
      },
      "t_mapping(t_uint256,t_uint256)": {
        "encoding": "mapping",
        "key": "t_uint256",
        "label": "mapping(uint256 => uint256)",
        "numberOfBytes": "32",
        "value": "t_uint256"
      },
      "t_string_storage": {
        "encoding": "bytes",
        "label": "string",
        "numberOfBytes": "32"
      },
      "t_struct(RoleData)19_storage": {
        "encoding": "inplace",
        "label": "struct AccessControl.RoleData",
        "members": [
          {
            "astId": 16,
            "contract": "contracts/Accolades.sol:Accolades",
            "label": "members",
            "offset": 0,
            "slot": "0",
            "type": "t_mapping(t_address,t_bool)"
          },
          {
            "astId": 18,
            "contract": "contracts/Accolades.sol:Accolades",
            "label": "adminRole",
            "offset": 0,
            "slot": "1",
            "type": "t_bytes32"
          }
        ],
        "numberOfBytes": "64"
      },
      "t_uint256": {
        "encoding": "inplace",
        "label": "uint256",
        "numberOfBytes": "32"
      }
    }
  }
}