{
  "address": "0x54c4e16Ae33Ea94066D78f268D3F16f08152562B",
  "abi": [
    {
      "inputs": [
        {
          "internalType": "address",
          "name": "trustedForwarder",
          "type": "address"
        },
        {
          "internalType": "address",
          "name": "initialOwner",
          "type": "address"
        }
      ],
      "stateMutability": "nonpayable",
      "type": "constructor"
    },
    {
      "anonymous": false,
      "inputs": [
        {
          "indexed": true,
          "internalType": "address",
          "name": "account",
          "type": "address"
        },
        {
          "indexed": true,
          "internalType": "address",
          "name": "operator",
          "type": "address"
        },
        {
          "indexed": false,
          "internalType": "bool",
          "name": "approved",
          "type": "bool"
        }
      ],
      "name": "ApprovalForAll",
      "type": "event"
    },
    {
      "anonymous": false,
      "inputs": [
        {
          "indexed": true,
          "internalType": "bytes32",
          "name": "role",
          "type": "bytes32"
        },
        {
          "indexed": true,
          "internalType": "bytes32",
          "name": "previousAdminRole",
          "type": "bytes32"
        },
        {
          "indexed": true,
          "internalType": "bytes32",
          "name": "newAdminRole",
          "type": "bytes32"
        }
      ],
      "name": "RoleAdminChanged",
      "type": "event"
    },
    {
      "anonymous": false,
      "inputs": [
        {
          "indexed": true,
          "internalType": "bytes32",
          "name": "role",
          "type": "bytes32"
        },
        {
          "indexed": true,
          "internalType": "address",
          "name": "account",
          "type": "address"
        },
        {
          "indexed": true,
          "internalType": "address",
          "name": "sender",
          "type": "address"
        }
      ],
      "name": "RoleGranted",
      "type": "event"
    },
    {
      "anonymous": false,
      "inputs": [
        {
          "indexed": true,
          "internalType": "bytes32",
          "name": "role",
          "type": "bytes32"
        },
        {
          "indexed": true,
          "internalType": "address",
          "name": "account",
          "type": "address"
        },
        {
          "indexed": true,
          "internalType": "address",
          "name": "sender",
          "type": "address"
        }
      ],
      "name": "RoleRevoked",
      "type": "event"
    },
    {
      "anonymous": false,
      "inputs": [
        {
          "indexed": true,
          "internalType": "address",
          "name": "operator",
          "type": "address"
        },
        {
          "indexed": true,
          "internalType": "address",
          "name": "from",
          "type": "address"
        },
        {
          "indexed": true,
          "internalType": "address",
          "name": "to",
          "type": "address"
        },
        {
          "indexed": false,
          "internalType": "uint256[]",
          "name": "ids",
          "type": "uint256[]"
        },
        {
          "indexed": false,
          "internalType": "uint256[]",
          "name": "values",
          "type": "uint256[]"
        }
      ],
      "name": "TransferBatch",
      "type": "event"
    },
    {
      "anonymous": false,
      "inputs": [
        {
          "indexed": true,
          "internalType": "address",
          "name": "operator",
          "type": "address"
        },
        {
          "indexed": true,
          "internalType": "address",
          "name": "from",
          "type": "address"
        },
        {
          "indexed": true,
          "internalType": "address",
          "name": "to",
          "type": "address"
        },
        {
          "indexed": false,
          "internalType": "uint256",
          "name": "id",
          "type": "uint256"
        },
        {
          "indexed": false,
          "internalType": "uint256",
          "name": "value",
          "type": "uint256"
        }
      ],
      "name": "TransferSingle",
      "type": "event"
    },
    {
      "anonymous": false,
      "inputs": [
        {
          "indexed": false,
          "internalType": "string",
          "name": "value",
          "type": "string"
        },
        {
          "indexed": true,
          "internalType": "uint256",
          "name": "id",
          "type": "uint256"
        }
      ],
      "name": "URI",
      "type": "event"
    },
    {
      "inputs": [],
      "name": "DEFAULT_ADMIN_ROLE",
      "outputs": [
        {
          "internalType": "bytes32",
          "name": "",
          "type": "bytes32"
        }
      ],
      "stateMutability": "view",
      "type": "function"
    },
    {
      "inputs": [],
      "name": "MINTER_ROLE",
      "outputs": [
        {
          "internalType": "bytes32",
          "name": "",
          "type": "bytes32"
        }
      ],
      "stateMutability": "view",
      "type": "function"
    },
    {
      "inputs": [],
      "name": "URI_SETTER_ROLE",
      "outputs": [
        {
          "internalType": "bytes32",
          "name": "",
          "type": "bytes32"
        }
      ],
      "stateMutability": "view",
      "type": "function"
    },
    {
      "inputs": [],
      "name": "VERSION",
      "outputs": [
        {
          "internalType": "uint64",
          "name": "",
          "type": "uint64"
        }
      ],
      "stateMutability": "view",
      "type": "function"
    },
    {
      "inputs": [
        {
          "internalType": "address",
          "name": "account",
          "type": "address"
        },
        {
          "internalType": "uint256",
          "name": "id",
          "type": "uint256"
        }
      ],
      "name": "balanceOf",
      "outputs": [
        {
          "internalType": "uint256",
          "name": "",
          "type": "uint256"
        }
      ],
      "stateMutability": "view",
      "type": "function"
    },
    {
      "inputs": [
        {
          "internalType": "address[]",
          "name": "accounts",
          "type": "address[]"
        },
        {
          "internalType": "uint256[]",
          "name": "ids",
          "type": "uint256[]"
        }
      ],
      "name": "balanceOfBatch",
      "outputs": [
        {
          "internalType": "uint256[]",
          "name": "",
          "type": "uint256[]"
        }
      ],
      "stateMutability": "view",
      "type": "function"
    },
    {
      "inputs": [],
      "name": "contractURI",
      "outputs": [
        {
          "internalType": "string",
          "name": "",
          "type": "string"
        }
      ],
      "stateMutability": "view",
      "type": "function"
    },
    {
      "inputs": [
        {
          "internalType": "uint256",
          "name": "id",
          "type": "uint256"
        }
      ],
      "name": "exists",
      "outputs": [
        {
          "internalType": "bool",
          "name": "",
          "type": "bool"
        }
      ],
      "stateMutability": "view",
      "type": "function"
    },
    {
      "inputs": [
        {
          "internalType": "bytes32",
          "name": "role",
          "type": "bytes32"
        }
      ],
      "name": "getRoleAdmin",
      "outputs": [
        {
          "internalType": "bytes32",
          "name": "",
          "type": "bytes32"
        }
      ],
      "stateMutability": "view",
      "type": "function"
    },
    {
      "inputs": [
        {
          "internalType": "bytes32",
          "name": "role",
          "type": "bytes32"
        },
        {
          "internalType": "address",
          "name": "account",
          "type": "address"
        }
      ],
      "name": "grantRole",
      "outputs": [],
      "stateMutability": "nonpayable",
      "type": "function"
    },
    {
      "inputs": [
        {
          "internalType": "bytes32",
          "name": "role",
          "type": "bytes32"
        },
        {
          "internalType": "address",
          "name": "account",
          "type": "address"
        }
      ],
      "name": "hasRole",
      "outputs": [
        {
          "internalType": "bool",
          "name": "",
          "type": "bool"
        }
      ],
      "stateMutability": "view",
      "type": "function"
    },
    {
      "inputs": [
        {
          "internalType": "address",
          "name": "account",
          "type": "address"
        },
        {
          "internalType": "address",
          "name": "operator",
          "type": "address"
        }
      ],
      "name": "isApprovedForAll",
      "outputs": [
        {
          "internalType": "bool",
          "name": "",
          "type": "bool"
        }
      ],
      "stateMutability": "view",
      "type": "function"
    },
    {
      "inputs": [
        {
          "internalType": "address",
          "name": "forwarder",
          "type": "address"
        }
      ],
      "name": "isTrustedForwarder",
      "outputs": [
        {
          "internalType": "bool",
          "name": "",
          "type": "bool"
        }
      ],
      "stateMutability": "view",
      "type": "function"
    },
    {
      "inputs": [
        {
          "internalType": "address",
          "name": "account",
          "type": "address"
        },
        {
          "internalType": "uint256",
          "name": "id",
          "type": "uint256"
        },
        {
          "internalType": "uint256",
          "name": "amount",
          "type": "uint256"
        },
        {
          "internalType": "bytes",
          "name": "data",
          "type": "bytes"
        }
      ],
      "name": "mint",
      "outputs": [],
      "stateMutability": "nonpayable",
      "type": "function"
    },
    {
      "inputs": [
        {
          "internalType": "address",
          "name": "to",
          "type": "address"
        },
        {
          "internalType": "uint256[]",
          "name": "ids",
          "type": "uint256[]"
        },
        {
          "internalType": "uint256[]",
          "name": "amounts",
          "type": "uint256[]"
        },
        {
          "internalType": "bytes",
          "name": "data",
          "type": "bytes"
        }
      ],
      "name": "mintBatch",
      "outputs": [],
      "stateMutability": "nonpayable",
      "type": "function"
    },
    {
      "inputs": [
        {
          "components": [
            {
              "internalType": "address",
              "name": "to",
              "type": "address"
            },
            {
              "internalType": "uint256",
              "name": "id",
              "type": "uint256"
            },
            {
              "internalType": "uint256",
              "name": "amount",
              "type": "uint256"
            }
          ],
          "internalType": "struct Accolades.BulkMint[]",
          "name": "mints",
          "type": "tuple[]"
        },
        {
          "internalType": "bytes",
          "name": "data",
          "type": "bytes"
        }
      ],
      "name": "multiUserBatchMint",
      "outputs": [
        {
          "internalType": "bool",
          "name": "",
          "type": "bool"
        }
      ],
      "stateMutability": "nonpayable",
      "type": "function"
    },
    {
      "inputs": [
        {
          "internalType": "bytes32",
          "name": "role",
          "type": "bytes32"
        },
        {
          "internalType": "address",
          "name": "account",
          "type": "address"
        }
      ],
      "name": "renounceRole",
      "outputs": [],
      "stateMutability": "nonpayable",
      "type": "function"
    },
    {
      "inputs": [
        {
          "internalType": "bytes32",
          "name": "role",
          "type": "bytes32"
        },
        {
          "internalType": "address",
          "name": "account",
          "type": "address"
        }
      ],
      "name": "revokeRole",
      "outputs": [],
      "stateMutability": "nonpayable",
      "type": "function"
    },
    {
      "inputs": [
        {
          "internalType": "address",
          "name": "from",
          "type": "address"
        },
        {
          "internalType": "address",
          "name": "to",
          "type": "address"
        },
        {
          "internalType": "uint256[]",
          "name": "ids",
          "type": "uint256[]"
        },
        {
          "internalType": "uint256[]",
          "name": "amounts",
          "type": "uint256[]"
        },
        {
          "internalType": "bytes",
          "name": "data",
          "type": "bytes"
        }
      ],
      "name": "safeBatchTransferFrom",
      "outputs": [],
      "stateMutability": "nonpayable",
      "type": "function"
    },
    {
      "inputs": [
        {
          "internalType": "address",
          "name": "from",
          "type": "address"
        },
        {
          "internalType": "address",
          "name": "to",
          "type": "address"
        },
        {
          "internalType": "uint256",
          "name": "id",
          "type": "uint256"
        },
        {
          "internalType": "uint256",
          "name": "amount",
          "type": "uint256"
        },
        {
          "internalType": "bytes",
          "name": "data",
          "type": "bytes"
        }
      ],
      "name": "safeTransferFrom",
      "outputs": [],
      "stateMutability": "nonpayable",
      "type": "function"
    },
    {
      "inputs": [
        {
          "internalType": "address",
          "name": "operator",
          "type": "address"
        },
        {
          "internalType": "bool",
          "name": "approved",
          "type": "bool"
        }
      ],
      "name": "setApprovalForAll",
      "outputs": [],
      "stateMutability": "nonpayable",
      "type": "function"
    },
    {
      "inputs": [
        {
          "internalType": "string",
          "name": "newuri",
          "type": "string"
        }
      ],
      "name": "setContractURI",
      "outputs": [],
      "stateMutability": "nonpayable",
      "type": "function"
    },
    {
      "inputs": [
        {
          "internalType": "string",
          "name": "newuri",
          "type": "string"
        }
      ],
      "name": "setURI",
      "outputs": [],
      "stateMutability": "nonpayable",
      "type": "function"
    },
    {
      "inputs": [
        {
          "internalType": "bytes4",
          "name": "interfaceId",
          "type": "bytes4"
        }
      ],
      "name": "supportsInterface",
      "outputs": [
        {
          "internalType": "bool",
          "name": "",
          "type": "bool"
        }
      ],
      "stateMutability": "view",
      "type": "function"
    },
    {
      "inputs": [
        {
          "internalType": "uint256",
          "name": "id",
          "type": "uint256"
        }
      ],
      "name": "totalSupply",
      "outputs": [
        {
          "internalType": "uint256",
          "name": "",
          "type": "uint256"
        }
      ],
      "stateMutability": "view",
      "type": "function"
    },
    {
      "inputs": [
        {
          "internalType": "uint256",
          "name": "",
          "type": "uint256"
        }
      ],
      "name": "uri",
      "outputs": [
        {
          "internalType": "string",
          "name": "",
          "type": "string"
        }
      ],
      "stateMutability": "view",
      "type": "function"
    },
    {
      "inputs": [
        {
          "internalType": "address",
          "name": "userId",
          "type": "address"
        }
      ],
      "name": "userTokens",
      "outputs": [
        {
          "internalType": "uint256[]",
          "name": "",
          "type": "uint256[]"
        }
      ],
      "stateMutability": "view",
      "type": "function"
    }
  ],
  "transactionHash": "0xb437542bd9e8403c2e9d6c19bacc1fed80ffc5c1fd4fceba45d83ae6debb966b",
  "args": [
    "0xe00e66A2713E924b9CC56319752021747dDDEaA3",
    "0x6DE3D3747D54d0Adc11e5Cf678D4045B0441D332"
  ],
  "numDeployments": 2,
  "solcInputHash": "19eff4bd4eef2e5d4c2438c76312a45c",
  "bytecode": "0x60a06040523480156200001157600080fd5b5060405162002c8938038062002c898339810160408190526200003491620002c9565b60408051808201909152601b81527f43727970746f20436f6c6f737365756d3a204163636f6c616465730000000000602082015282906200007581620000ef565b506001600160a01b03166080526200008f60008262000108565b620000bb7f7804d923f43a17d325d77e781528e0793b2edd9890ab45fc64efd7b4b427744c8262000108565b620000e77f9f2df0fed2c77648de5860a4cc508cd0818c85b8b8a1ab4ceeef8d981c8956a68262000108565b50506200033d565b80516200010490600290602084019062000206565b5050565b60008281526003602090815260408083206001600160a01b038516845290915290205460ff16620001045760008281526003602090815260408083206001600160a01b03851684529091529020805460ff191660011790556200016a620001ae565b6001600160a01b0316816001600160a01b0316837f2f8788117e7eff1d82e926ec794901d17c78024a50270940304540a733656f0d60405160405180910390a45050565b6000620001c5620001ca60201b62000b691760201c565b905090565b6080516000906001600160a01b03163303620001ed575060131936013560601c90565b620001c56200020260201b62000bb51760201c565b3390565b828054620002149062000301565b90600052602060002090601f01602090048101928262000238576000855562000283565b82601f106200025357805160ff191683800117855562000283565b8280016001018555821562000283579182015b828111156200028357825182559160200191906001019062000266565b506200029192915062000295565b5090565b5b8082111562000291576000815560010162000296565b80516001600160a01b0381168114620002c457600080fd5b919050565b60008060408385031215620002dd57600080fd5b620002e883620002ac565b9150620002f860208401620002ac565b90509250929050565b600181811c908216806200031657607f821691505b6020821081036200033757634e487b7160e01b600052602260045260246000fd5b50919050565b60805161292962000360600039600081816102ec0152610b6d01526129296000f3fe608060405234801561001057600080fd5b50600436106101a85760003560e01c80637f345710116100f9578063d547741f11610097578063ed498fa811610071578063ed498fa814610423578063f242432a14610436578063f3beccf414610449578063ffa1ad741461045c57600080fd5b8063d547741f146103cc578063e8a3d485146103df578063e985e9c5146103e757600080fd5b8063a217fddf116100d3578063a217fddf1461037c578063a22cb46514610384578063bd85b03914610397578063d5391393146103b757600080fd5b80637f3457101461032f57806391d1485414610356578063938e3d7b1461036957600080fd5b80632eb2c2d6116101665780634e1273f4116101405780634e1273f41461029a5780634f558e79146102ba578063572b6c05146102dc578063731133e91461031c57600080fd5b80632eb2c2d6146102615780632f2ff15d1461027457806336568abe1461028757600080fd5b8062fdd58e146101ad57806301ffc9a7146101d357806302fe5305146101f65780630e89341c1461020b5780631f7fdffa1461022b578063248a9ca31461023e575b600080fd5b6101c06101bb366004611d08565b61047c565b6040519081526020015b60405180910390f35b6101e66101e1366004611d48565b610516565b60405190151581526020016101ca565b610209610204366004611e04565b610521565b005b61021e610219366004611e54565b610558565b6040516101ca9190611ec9565b610209610239366004611f90565b6105ec565b6101c061024c366004611e54565b60009081526003602052604090206001015490565b61020961026f366004612028565b610617565b6102096102823660046120d1565b6106b9565b6102096102953660046120d1565b6106e3565b6102ad6102a83660046120fd565b61076d565b6040516101ca9190612202565b6101e66102c8366004611e54565b600090815260046020526040902054151590565b6101e66102ea366004612215565b7f00000000000000000000000000000000000000000000000000000000000000006001600160a01b0390811691161490565b61020961032a366004612230565b610896565b6101c07f7804d923f43a17d325d77e781528e0793b2edd9890ab45fc64efd7b4b427744c81565b6101e66103643660046120d1565b6108ba565b610209610377366004611e04565b6108e5565b6101c0600081565b610209610392366004612284565b610922565b6101c06103a5366004611e54565b60009081526004602052604090205490565b6101c06000805160206128d483398151915281565b6102096103da3660046120d1565b610934565b61021e610959565b6101e66103f53660046122c0565b6001600160a01b03918216600090815260016020908152604080832093909416825291909152205460ff1690565b6102ad610431366004612215565b6109eb565b6102096104443660046122ea565b610a0f565b6101e661045736600461234e565b610aa8565b610464600181565b6040516001600160401b0390911681526020016101ca565b60006001600160a01b0383166104ed5760405162461bcd60e51b815260206004820152602b60248201527f455243313135353a2062616c616e636520717565727920666f7220746865207a60448201526a65726f206164647265737360a81b60648201526084015b60405180910390fd5b506000818152602081815260408083206001600160a01b03861684529091529020545b92915050565b600061051082610bb9565b7f7804d923f43a17d325d77e781528e0793b2edd9890ab45fc64efd7b4b427744c61054b81610bde565b61055482610bf2565b5050565b60606002805461056790612412565b80601f016020809104026020016040519081016040528092919081815260200182805461059390612412565b80156105e05780601f106105b5576101008083540402835291602001916105e0565b820191906000526020600020905b8154815290600101906020018083116105c357829003601f168201915b50505050509050919050565b6000805160206128d483398151915261060481610bde565b61061085858585610c05565b5050505050565b61061f610d6a565b6001600160a01b0316856001600160a01b031614806106455750610645856103f5610d6a565b6106ac5760405162461bcd60e51b815260206004820152603260248201527f455243313135353a207472616e736665722063616c6c6572206973206e6f74206044820152711bdddb995c881b9bdc88185c1c1c9bdd995960721b60648201526084016104e4565b6106108585858585610d74565b6000828152600360205260409020600101546106d481610bde565b6106de8383610f29565b505050565b6106eb610d6a565b6001600160a01b0316816001600160a01b0316146107635760405162461bcd60e51b815260206004820152602f60248201527f416363657373436f6e74726f6c3a2063616e206f6e6c792072656e6f756e636560448201526e103937b632b9903337b91039b2b63360891b60648201526084016104e4565b6105548282610fb0565b606081518351146107d25760405162461bcd60e51b815260206004820152602960248201527f455243313135353a206163636f756e747320616e6420696473206c656e677468604482015268040dad2e6dac2e8c6d60bb1b60648201526084016104e4565b600083516001600160401b038111156107ed576107ed611d65565b604051908082528060200260200182016040528015610816578160200160208202803683370190505b50905060005b845181101561088e5761086185828151811061083a5761083a61244c565b60200260200101518583815181106108545761085461244c565b602002602001015161047c565b8282815181106108735761087361244c565b602090810291909101015261088781612478565b905061081c565b509392505050565b6000805160206128d48339815191526108ae81610bde565b61061085858585611035565b60009182526003602090815260408084206001600160a01b0393909316845291905290205460ff1690565b7f7804d923f43a17d325d77e781528e0793b2edd9890ab45fc64efd7b4b427744c61090f81610bde565b81516106de906005906020850190611c53565b61055461092d610d6a565b8383611129565b60008281526003602052604090206001015461094f81610bde565b6106de8383610fb0565b60606005805461096890612412565b80601f016020809104026020016040519081016040528092919081815260200182805461099490612412565b80156109e15780601f106109b6576101008083540402835291602001916109e1565b820191906000526020600020905b8154815290600101906020018083116109c457829003601f168201915b5050505050905090565b6001600160a01b038116600090815260066020526040902060609061051090611209565b610a17610d6a565b6001600160a01b0316856001600160a01b03161480610a3d5750610a3d856103f5610d6a565b610a9b5760405162461bcd60e51b815260206004820152602960248201527f455243313135353a2063616c6c6572206973206e6f74206f776e6572206e6f7260448201526808185c1c1c9bdd995960ba1b60648201526084016104e4565b610610858585858561121d565b60006000805160206128d4833981519152610ac281610bde565b8460005b81811015610b5b576000888883818110610ae257610ae261244c565b905060600201803603810190610af89190612491565b9050610b488160000151826020015183604001518a8a8080601f01602080910402602001604051908101604052809392919081815260200183838082843760009201919091525061103592505050565b5080610b5381612478565b915050610ac6565b506001979650505050505050565b60007f00000000000000000000000000000000000000000000000000000000000000006001600160a01b03163303610ba8575060131936013560601c90565b503390565b905090565b90565b3390565b60006001600160e01b03198216637965db0b60e01b1480610510575061051082611360565b610bef81610bea610d6a565b6113b0565b50565b8051610554906002906020840190611c53565b6001600160a01b038416610c2b5760405162461bcd60e51b81526004016104e4906124f1565b8151835114610c4c5760405162461bcd60e51b81526004016104e490612532565b6000610c56610d6a565b9050610c6781600087878787611414565b60005b8451811015610d0257838181518110610c8557610c8561244c565b6020026020010151600080878481518110610ca257610ca261244c565b602002602001015181526020019081526020016000206000886001600160a01b03166001600160a01b031681526020019081526020016000206000828254610cea919061257a565b90915550819050610cfa81612478565b915050610c6a565b50846001600160a01b031660006001600160a01b0316826001600160a01b03167f4a39dc06d4c0dbc64b70af90fd698a233a518aa5d07e595d983b8c0526c8f7fb8787604051610d53929190612592565b60405180910390a461061081600087878787611529565b6000610bad610b69565b8151835114610d955760405162461bcd60e51b81526004016104e490612532565b6001600160a01b038416610dbb5760405162461bcd60e51b81526004016104e4906125c0565b6000610dc5610d6a565b9050610dd5818787878787611414565b60005b8451811015610ebb576000858281518110610df557610df561244c565b602002602001015190506000858381518110610e1357610e1361244c565b602090810291909101810151600084815280835260408082206001600160a01b038e168352909352919091205490915081811015610e635760405162461bcd60e51b81526004016104e490612605565b6000838152602081815260408083206001600160a01b038e8116855292528083208585039055908b16825281208054849290610ea090849061257a565b9250508190555050505080610eb490612478565b9050610dd8565b50846001600160a01b0316866001600160a01b0316826001600160a01b03167f4a39dc06d4c0dbc64b70af90fd698a233a518aa5d07e595d983b8c0526c8f7fb8787604051610f0b929190612592565b60405180910390a4610f21818787878787611529565b505050505050565b610f3382826108ba565b6105545760008281526003602090815260408083206001600160a01b03851684529091529020805460ff19166001179055610f6c610d6a565b6001600160a01b0316816001600160a01b0316837f2f8788117e7eff1d82e926ec794901d17c78024a50270940304540a733656f0d60405160405180910390a45050565b610fba82826108ba565b156105545760008281526003602090815260408083206001600160a01b03851684529091529020805460ff19169055610ff1610d6a565b6001600160a01b0316816001600160a01b0316837ff6391f5c32d9c69d2a47ea670b442974b53935d1edc7fd64eb21e047a839171b60405160405180910390a45050565b6001600160a01b03841661105b5760405162461bcd60e51b81526004016104e4906124f1565b6000611065610d6a565b9050600061107285611684565b9050600061107f85611684565b905061109083600089858589611414565b6000868152602081815260408083206001600160a01b038b168452909152812080548792906110c090849061257a565b909155505060408051878152602081018790526001600160a01b03808a1692600092918716917fc3d58168c5ae7397731d063d5bbf3d657854427343f4c083240f7aacaa2d0f62910160405180910390a4611120836000898989896116cf565b50505050505050565b816001600160a01b0316836001600160a01b03160361119c5760405162461bcd60e51b815260206004820152602960248201527f455243313135353a2073657474696e6720617070726f76616c20737461747573604482015268103337b91039b2b63360b91b60648201526084016104e4565b6001600160a01b03838116600081815260016020908152604080832094871680845294825291829020805460ff191686151590811790915591519182527f17307eab39ab6107e8899845ad3d59bd9653f200f220920489ca2b5937696c31910160405180910390a3505050565b606060006112168361178a565b9392505050565b6001600160a01b0384166112435760405162461bcd60e51b81526004016104e4906125c0565b600061124d610d6a565b9050600061125a85611684565b9050600061126785611684565b9050611277838989858589611414565b6000868152602081815260408083206001600160a01b038c168452909152902054858110156112b85760405162461bcd60e51b81526004016104e490612605565b6000878152602081815260408083206001600160a01b038d8116855292528083208985039055908a168252812080548892906112f590849061257a565b909155505060408051888152602081018890526001600160a01b03808b16928c821692918816917fc3d58168c5ae7397731d063d5bbf3d657854427343f4c083240f7aacaa2d0f62910160405180910390a4611355848a8a8a8a8a6116cf565b505050505050505050565b60006001600160e01b03198216636cdb3d1360e11b148061139157506001600160e01b031982166303a24d0760e21b145b8061051057506301ffc9a760e01b6001600160e01b0319831614610510565b6113ba82826108ba565b610554576113d2816001600160a01b031660146117e5565b6113dd8360206117e5565b6040516020016113ee92919061264f565b60408051601f198184030181529082905262461bcd60e51b82526104e491600401611ec9565b611422868686868686611980565b825160005b8181101561151f5760008582815181106114435761144361244c565b6020026020010151905060008583815181106114615761146161244c565b6020026020010151905060006001600160a01b0316886001600160a01b03161415801561148e5750600081115b156114b7576001600160a01b03881660009081526006602052604090206114b59083611af9565b505b6001600160a01b038916158015906114e15750806114d58a8461047c565b6114df91906126c4565b155b1561150a576001600160a01b03891660009081526006602052604090206115089083611b05565b505b5050808061151790612478565b915050611427565b5050505050505050565b6001600160a01b0384163b15610f215760405163bc197c8160e01b81526001600160a01b0385169063bc197c819061156d90899089908890889088906004016126db565b6020604051808303816000875af19250505080156115a8575060408051601f3d908101601f191682019092526115a591810190612739565b60015b611654576115b4612756565b806308c379a0036115ed57506115c8612771565b806115d357506115ef565b8060405162461bcd60e51b81526004016104e49190611ec9565b505b60405162461bcd60e51b815260206004820152603460248201527f455243313135353a207472616e7366657220746f206e6f6e20455243313135356044820152732932b1b2b4bb32b91034b6b83632b6b2b73a32b960611b60648201526084016104e4565b6001600160e01b0319811663bc197c8160e01b146111205760405162461bcd60e51b81526004016104e4906127fa565b604080516001808252818301909252606091600091906020808301908036833701905050905082816000815181106116be576116be61244c565b602090810291909101015292915050565b6001600160a01b0384163b15610f215760405163f23a6e6160e01b81526001600160a01b0385169063f23a6e61906117139089908990889088908890600401612842565b6020604051808303816000875af192505050801561174e575060408051601f3d908101601f1916820190925261174b91810190612739565b60015b61175a576115b4612756565b6001600160e01b0319811663f23a6e6160e01b146111205760405162461bcd60e51b81526004016104e4906127fa565b6060816000018054806020026020016040519081016040528092919081815260200182805480156105e057602002820191906000526020600020905b8154815260200190600101908083116117c65750505050509050919050565b606060006117f4836002612887565b6117ff90600261257a565b6001600160401b0381111561181657611816611d65565b6040519080825280601f01601f191660200182016040528015611840576020820181803683370190505b509050600360fc1b8160008151811061185b5761185b61244c565b60200101906001600160f81b031916908160001a905350600f60fb1b8160018151811061188a5761188a61244c565b60200101906001600160f81b031916908160001a90535060006118ae846002612887565b6118b990600161257a565b90505b6001811115611931576f181899199a1a9b1b9c1cb0b131b232b360811b85600f16601081106118ed576118ed61244c565b1a60f81b8282815181106119035761190361244c565b60200101906001600160f81b031916908160001a90535060049490941c9361192a816128a6565b90506118bc565b5083156112165760405162461bcd60e51b815260206004820181905260248201527f537472696e67733a20686578206c656e67746820696e73756666696369656e7460448201526064016104e4565b6001600160a01b038516611a075760005b8351811015611a05578281815181106119ac576119ac61244c565b6020026020010151600460008684815181106119ca576119ca61244c565b6020026020010151815260200190815260200160002060008282546119ef919061257a565b909155506119fe905081612478565b9050611991565b505b6001600160a01b038416610f215760005b8351811015611120576000848281518110611a3557611a3561244c565b602002602001015190506000848381518110611a5357611a5361244c565b6020026020010151905060006004600084815260200190815260200160002054905081811015611ad65760405162461bcd60e51b815260206004820152602860248201527f455243313135353a206275726e20616d6f756e74206578636565647320746f74604482015267616c537570706c7960c01b60648201526084016104e4565b60009283526004602052604090922091039055611af281612478565b9050611a18565b60006112168383611b11565b60006112168383611b60565b6000818152600183016020526040812054611b5857508154600181810184556000848152602080822090930184905584548482528286019093526040902091909155610510565b506000610510565b60008181526001830160205260408120548015611c49576000611b846001836126c4565b8554909150600090611b98906001906126c4565b9050818114611bfd576000866000018281548110611bb857611bb861244c565b9060005260206000200154905080876000018481548110611bdb57611bdb61244c565b6000918252602080832090910192909255918252600188019052604090208390555b8554869080611c0e57611c0e6128bd565b600190038181906000526020600020016000905590558560010160008681526020019081526020016000206000905560019350505050610510565b6000915050610510565b828054611c5f90612412565b90600052602060002090601f016020900481019282611c815760008555611cc7565b82601f10611c9a57805160ff1916838001178555611cc7565b82800160010185558215611cc7579182015b82811115611cc7578251825591602001919060010190611cac565b50611cd3929150611cd7565b5090565b5b80821115611cd35760008155600101611cd8565b80356001600160a01b0381168114611d0357600080fd5b919050565b60008060408385031215611d1b57600080fd5b611d2483611cec565b946020939093013593505050565b6001600160e01b031981168114610bef57600080fd5b600060208284031215611d5a57600080fd5b813561121681611d32565b634e487b7160e01b600052604160045260246000fd5b601f8201601f191681016001600160401b0381118282101715611da057611da0611d65565b6040525050565b60006001600160401b03831115611dc057611dc0611d65565b604051611dd7601f8501601f191660200182611d7b565b809150838152848484011115611dec57600080fd5b83836020830137600060208583010152509392505050565b600060208284031215611e1657600080fd5b81356001600160401b03811115611e2c57600080fd5b8201601f81018413611e3d57600080fd5b611e4c84823560208401611da7565b949350505050565b600060208284031215611e6657600080fd5b5035919050565b60005b83811015611e88578181015183820152602001611e70565b83811115611e97576000848401525b50505050565b60008151808452611eb5816020860160208601611e6d565b601f01601f19169290920160200192915050565b6020815260006112166020830184611e9d565b60006001600160401b03821115611ef557611ef5611d65565b5060051b60200190565b600082601f830112611f1057600080fd5b81356020611f1d82611edc565b604051611f2a8282611d7b565b83815260059390931b8501820192828101915086841115611f4a57600080fd5b8286015b84811015611f655780358352918301918301611f4e565b509695505050505050565b600082601f830112611f8157600080fd5b61121683833560208501611da7565b60008060008060808587031215611fa657600080fd5b611faf85611cec565b935060208501356001600160401b0380821115611fcb57600080fd5b611fd788838901611eff565b94506040870135915080821115611fed57600080fd5b611ff988838901611eff565b9350606087013591508082111561200f57600080fd5b5061201c87828801611f70565b91505092959194509250565b600080600080600060a0868803121561204057600080fd5b61204986611cec565b945061205760208701611cec565b935060408601356001600160401b038082111561207357600080fd5b61207f89838a01611eff565b9450606088013591508082111561209557600080fd5b6120a189838a01611eff565b935060808801359150808211156120b757600080fd5b506120c488828901611f70565b9150509295509295909350565b600080604083850312156120e457600080fd5b823591506120f460208401611cec565b90509250929050565b6000806040838503121561211057600080fd5b82356001600160401b038082111561212757600080fd5b818501915085601f83011261213b57600080fd5b8135602061214882611edc565b6040516121558282611d7b565b83815260059390931b850182019282810191508984111561217557600080fd5b948201945b8386101561219a5761218b86611cec565b8252948201949082019061217a565b965050860135925050808211156121b057600080fd5b506121bd85828601611eff565b9150509250929050565b600081518084526020808501945080840160005b838110156121f7578151875295820195908201906001016121db565b509495945050505050565b60208152600061121660208301846121c7565b60006020828403121561222757600080fd5b61121682611cec565b6000806000806080858703121561224657600080fd5b61224f85611cec565b9350602085013592506040850135915060608501356001600160401b0381111561227857600080fd5b61201c87828801611f70565b6000806040838503121561229757600080fd5b6122a083611cec565b9150602083013580151581146122b557600080fd5b809150509250929050565b600080604083850312156122d357600080fd5b6122dc83611cec565b91506120f460208401611cec565b600080600080600060a0868803121561230257600080fd5b61230b86611cec565b945061231960208701611cec565b9350604086013592506060860135915060808601356001600160401b0381111561234257600080fd5b6120c488828901611f70565b6000806000806040858703121561236457600080fd5b84356001600160401b038082111561237b57600080fd5b818701915087601f83011261238f57600080fd5b81358181111561239e57600080fd5b8860206060830285010111156123b357600080fd5b6020928301965094509086013590808211156123ce57600080fd5b818701915087601f8301126123e257600080fd5b8135818111156123f157600080fd5b88602082850101111561240357600080fd5b95989497505060200194505050565b600181811c9082168061242657607f821691505b60208210810361244657634e487b7160e01b600052602260045260246000fd5b50919050565b634e487b7160e01b600052603260045260246000fd5b634e487b7160e01b600052601160045260246000fd5b60006001820161248a5761248a612462565b5060010190565b6000606082840312156124a357600080fd5b604051606081018181106001600160401b03821117156124c5576124c5611d65565b6040526124d183611cec565b815260208301356020820152604083013560408201528091505092915050565b60208082526021908201527f455243313135353a206d696e7420746f20746865207a65726f206164647265736040820152607360f81b606082015260800190565b60208082526028908201527f455243313135353a2069647320616e6420616d6f756e7473206c656e677468206040820152670dad2e6dac2e8c6d60c31b606082015260800190565b6000821982111561258d5761258d612462565b500190565b6040815260006125a560408301856121c7565b82810360208401526125b781856121c7565b95945050505050565b60208082526025908201527f455243313135353a207472616e7366657220746f20746865207a65726f206164604082015264647265737360d81b606082015260800190565b6020808252602a908201527f455243313135353a20696e73756666696369656e742062616c616e636520666f60408201526939103a3930b739b332b960b11b606082015260800190565b7f416363657373436f6e74726f6c3a206163636f756e7420000000000000000000815260008351612687816017850160208801611e6d565b7001034b99036b4b9b9b4b733903937b6329607d1b60179184019182015283516126b8816028840160208801611e6d565b01602801949350505050565b6000828210156126d6576126d6612462565b500390565b6001600160a01b0386811682528516602082015260a060408201819052600090612707908301866121c7565b828103606084015261271981866121c7565b9050828103608084015261272d8185611e9d565b98975050505050505050565b60006020828403121561274b57600080fd5b815161121681611d32565b600060033d1115610bb25760046000803e5060005160e01c90565b600060443d101561277f5790565b6040516003193d81016004833e81513d6001600160401b0381602484011181841117156127ae57505050505090565b82850191508151818111156127c65750505050505090565b843d87010160208285010111156127e05750505050505090565b6127ef60208286010187611d7b565b509095945050505050565b60208082526028908201527f455243313135353a204552433131353552656365697665722072656a656374656040820152676420746f6b656e7360c01b606082015260800190565b6001600160a01b03868116825285166020820152604081018490526060810183905260a06080820181905260009061287c90830184611e9d565b979650505050505050565b60008160001904831182151516156128a1576128a1612462565b500290565b6000816128b5576128b5612462565b506000190190565b634e487b7160e01b600052603160045260246000fdfe9f2df0fed2c77648de5860a4cc508cd0818c85b8b8a1ab4ceeef8d981c8956a6a2646970667358221220067399665d12111e05163ecaf28f575b5f842224865d24324dd8762378fdc9ea64736f6c634300080e0033",
  "devdoc": {
    "kind": "dev",
    "methods": {
      "balanceOf(address,uint256)": {
        "details": "See {IERC1155-balanceOf}. Requirements: - `account` cannot be the zero address."
      },
      "balanceOfBatch(address[],uint256[])": {
        "details": "See {IERC1155-balanceOfBatch}. Requirements: - `accounts` and `ids` must have the same length."
      },
      "exists(uint256)": {
        "details": "Indicates whether any token exist with a given id, or not."
      },
      "getRoleAdmin(bytes32)": {
        "details": "Returns the admin role that controls `role`. See {grantRole} and {revokeRole}. To change a role's admin, use {_setRoleAdmin}."
      },
      "grantRole(bytes32,address)": {
        "details": "Grants `role` to `account`. If `account` had not been already granted `role`, emits a {RoleGranted} event. Requirements: - the caller must have ``role``'s admin role."
      },
      "hasRole(bytes32,address)": {
        "details": "Returns `true` if `account` has been granted `role`."
      },
      "isApprovedForAll(address,address)": {
        "details": "See {IERC1155-isApprovedForAll}."
      },
      "renounceRole(bytes32,address)": {
        "details": "Revokes `role` from the calling account. Roles are often managed via {grantRole} and {revokeRole}: this function's purpose is to provide a mechanism for accounts to lose their privileges if they are compromised (such as when a trusted device is misplaced). If the calling account had been revoked `role`, emits a {RoleRevoked} event. Requirements: - the caller must be `account`."
      },
      "revokeRole(bytes32,address)": {
        "details": "Revokes `role` from `account`. If `account` had been granted `role`, emits a {RoleRevoked} event. Requirements: - the caller must have ``role``'s admin role."
      },
      "safeBatchTransferFrom(address,address,uint256[],uint256[],bytes)": {
        "details": "See {IERC1155-safeBatchTransferFrom}."
      },
      "safeTransferFrom(address,address,uint256,uint256,bytes)": {
        "details": "See {IERC1155-safeTransferFrom}."
      },
      "setApprovalForAll(address,bool)": {
        "details": "See {IERC1155-setApprovalForAll}."
      },
      "totalSupply(uint256)": {
        "details": "Total amount of tokens in with a given id."
      },
      "uri(uint256)": {
        "details": "See {IERC1155MetadataURI-uri}. This implementation returns the same URI for *all* token types. It relies on the token type ID substitution mechanism https://eips.ethereum.org/EIPS/eip-1155#metadata[defined in the EIP]. Clients calling this function must replace the `\\{id\\}` substring with the actual token type ID."
      }
    },
    "version": 1
  },
  "userdoc": {
    "kind": "user",
    "methods": {},
    "version": 1
  },
  "storageLayout": {
    "storage": [
      {
        "astId": 589,
        "contract": "contracts/Accolades.sol:Accolades",
        "label": "_balances",
        "offset": 0,
        "slot": "0",
        "type": "t_mapping(t_uint256,t_mapping(t_address,t_uint256))"
      },
      {
        "astId": 595,
        "contract": "contracts/Accolades.sol:Accolades",
        "label": "_operatorApprovals",
        "offset": 0,
        "slot": "1",
        "type": "t_mapping(t_address,t_mapping(t_address,t_bool))"
      },
      {
        "astId": 597,
        "contract": "contracts/Accolades.sol:Accolades",
        "label": "_uri",
        "offset": 0,
        "slot": "2",
        "type": "t_string_storage"
      },
      {
        "astId": 24,
        "contract": "contracts/Accolades.sol:Accolades",
        "label": "_roles",
        "offset": 0,
        "slot": "3",
        "type": "t_mapping(t_bytes32,t_struct(RoleData)19_storage)"
      },
      {
        "astId": 1959,
        "contract": "contracts/Accolades.sol:Accolades",
        "label": "_totalSupply",
        "offset": 0,
        "slot": "4",
        "type": "t_mapping(t_uint256,t_uint256)"
      },
      {
        "astId": 4043,
        "contract": "contracts/Accolades.sol:Accolades",
        "label": "_contractURI",
        "offset": 0,
        "slot": "5",
        "type": "t_string_storage"
      },
      {
        "astId": 4048,
        "contract": "contracts/Accolades.sol:Accolades",
        "label": "_userTokens",
        "offset": 0,
        "slot": "6",
        "type": "t_mapping(t_address,t_struct(UintSet)3879_storage)"
      }
    ],
    "types": {
      "t_address": {
        "encoding": "inplace",
        "label": "address",
        "numberOfBytes": "20"
      },
      "t_array(t_bytes32)dyn_storage": {
        "base": "t_bytes32",
        "encoding": "dynamic_array",
        "label": "bytes32[]",
        "numberOfBytes": "32"
      },
      "t_bool": {
        "encoding": "inplace",
        "label": "bool",
        "numberOfBytes": "1"
      },
      "t_bytes32": {
        "encoding": "inplace",
        "label": "bytes32",
        "numberOfBytes": "32"
      },
      "t_mapping(t_address,t_bool)": {
        "encoding": "mapping",
        "key": "t_address",
        "label": "mapping(address => bool)",
        "numberOfBytes": "32",
        "value": "t_bool"
      },
      "t_mapping(t_address,t_mapping(t_address,t_bool))": {
        "encoding": "mapping",
        "key": "t_address",
        "label": "mapping(address => mapping(address => bool))",
        "numberOfBytes": "32",
        "value": "t_mapping(t_address,t_bool)"
      },
      "t_mapping(t_address,t_struct(UintSet)3879_storage)": {
        "encoding": "mapping",
        "key": "t_address",
        "label": "mapping(address => struct EnumerableSet.UintSet)",
        "numberOfBytes": "32",
        "value": "t_struct(UintSet)3879_storage"
      },
      "t_mapping(t_address,t_uint256)": {
        "encoding": "mapping",
        "key": "t_address",
        "label": "mapping(address => uint256)",
        "numberOfBytes": "32",
        "value": "t_uint256"
      },
      "t_mapping(t_bytes32,t_struct(RoleData)19_storage)": {
        "encoding": "mapping",
        "key": "t_bytes32",
        "label": "mapping(bytes32 => struct AccessControl.RoleData)",
        "numberOfBytes": "32",
        "value": "t_struct(RoleData)19_storage"
      },
      "t_mapping(t_bytes32,t_uint256)": {
        "encoding": "mapping",
        "key": "t_bytes32",
        "label": "mapping(bytes32 => uint256)",
        "numberOfBytes": "32",
        "value": "t_uint256"
      },
      "t_mapping(t_uint256,t_mapping(t_address,t_uint256))": {
        "encoding": "mapping",
        "key": "t_uint256",
        "label": "mapping(uint256 => mapping(address => uint256))",
        "numberOfBytes": "32",
        "value": "t_mapping(t_address,t_uint256)"
      },
      "t_mapping(t_uint256,t_uint256)": {
        "encoding": "mapping",
        "key": "t_uint256",
        "label": "mapping(uint256 => uint256)",
        "numberOfBytes": "32",
        "value": "t_uint256"
      },
      "t_string_storage": {
        "encoding": "bytes",
        "label": "string",
        "numberOfBytes": "32"
      },
      "t_struct(RoleData)19_storage": {
        "encoding": "inplace",
        "label": "struct AccessControl.RoleData",
        "members": [
          {
            "astId": 16,
            "contract": "contracts/Accolades.sol:Accolades",
            "label": "members",
            "offset": 0,
            "slot": "0",
            "type": "t_mapping(t_address,t_bool)"
          },
          {
            "astId": 18,
            "contract": "contracts/Accolades.sol:Accolades",
            "label": "adminRole",
            "offset": 0,
            "slot": "1",
            "type": "t_bytes32"
          }
        ],
        "numberOfBytes": "64"
      },
      "t_struct(Set)3421_storage": {
        "encoding": "inplace",
        "label": "struct EnumerableSet.Set",
        "members": [
          {
            "astId": 3416,
            "contract": "contracts/Accolades.sol:Accolades",
            "label": "_values",
            "offset": 0,
            "slot": "0",
            "type": "t_array(t_bytes32)dyn_storage"
          },
          {
            "astId": 3420,
            "contract": "contracts/Accolades.sol:Accolades",
            "label": "_indexes",
            "offset": 0,
            "slot": "1",
            "type": "t_mapping(t_bytes32,t_uint256)"
          }
        ],
        "numberOfBytes": "64"
      },
      "t_struct(UintSet)3879_storage": {
        "encoding": "inplace",
        "label": "struct EnumerableSet.UintSet",
        "members": [
          {
            "astId": 3878,
            "contract": "contracts/Accolades.sol:Accolades",
            "label": "_inner",
            "offset": 0,
            "slot": "0",
            "type": "t_struct(Set)3421_storage"
          }
        ],
        "numberOfBytes": "64"
      },
      "t_uint256": {
        "encoding": "inplace",
        "label": "uint256",
        "numberOfBytes": "32"
      }
    }
  }
}