{
  "address": "0x6dFcFDd6d337138052c1D14ea92712B1ae6AA474",
  "abi": [
    {
      "inputs": [
        {
          "internalType": "address",
          "name": "trustedForwarder",
          "type": "address"
        },
        {
          "internalType": "address",
          "name": "diceRollerAddress",
          "type": "address"
        },
        {
          "internalType": "address",
          "name": "initialOwner",
          "type": "address"
        }
      ],
      "stateMutability": "nonpayable",
      "type": "constructor"
    },
    {
      "inputs": [],
      "name": "AlreadyExists",
      "type": "error"
    },
    {
      "inputs": [],
      "name": "AlreadyStarted",
      "type": "error"
    },
    {
      "inputs": [],
      "name": "CantCreateAlreadyStarted",
      "type": "error"
    },
    {
      "inputs": [],
      "name": "NoTwoRollsPerBlock",
      "type": "error"
    },
    {
      "inputs": [],
      "name": "Unauthorized",
      "type": "error"
    },
    {
      "anonymous": false,
      "inputs": [
        {
          "indexed": true,
          "internalType": "uint256",
          "name": "index",
          "type": "uint256"
        },
        {
          "indexed": true,
          "internalType": "uint256",
          "name": "blockNumber",
          "type": "uint256"
        },
        {
          "indexed": false,
          "internalType": "bytes32",
          "name": "random",
          "type": "bytes32"
        }
      ],
      "name": "DiceRolled",
      "type": "event"
    },
    {
      "anonymous": false,
      "inputs": [
        {
          "indexed": true,
          "internalType": "bytes32",
          "name": "role",
          "type": "bytes32"
        },
        {
          "indexed": true,
          "internalType": "bytes32",
          "name": "previousAdminRole",
          "type": "bytes32"
        },
        {
          "indexed": true,
          "internalType": "bytes32",
          "name": "newAdminRole",
          "type": "bytes32"
        }
      ],
      "name": "RoleAdminChanged",
      "type": "event"
    },
    {
      "anonymous": false,
      "inputs": [
        {
          "indexed": true,
          "internalType": "bytes32",
          "name": "role",
          "type": "bytes32"
        },
        {
          "indexed": true,
          "internalType": "address",
          "name": "account",
          "type": "address"
        },
        {
          "indexed": true,
          "internalType": "address",
          "name": "sender",
          "type": "address"
        }
      ],
      "name": "RoleGranted",
      "type": "event"
    },
    {
      "anonymous": false,
      "inputs": [
        {
          "indexed": true,
          "internalType": "bytes32",
          "name": "role",
          "type": "bytes32"
        },
        {
          "indexed": true,
          "internalType": "address",
          "name": "account",
          "type": "address"
        },
        {
          "indexed": true,
          "internalType": "address",
          "name": "sender",
          "type": "address"
        }
      ],
      "name": "RoleRevoked",
      "type": "event"
    },
    {
      "anonymous": false,
      "inputs": [
        {
          "indexed": true,
          "internalType": "bytes32",
          "name": "id",
          "type": "bytes32"
        },
        {
          "indexed": true,
          "internalType": "uint256",
          "name": "roll",
          "type": "uint256"
        }
      ],
      "name": "Started",
      "type": "event"
    },
    {
      "anonymous": false,
      "inputs": [
        {
          "indexed": true,
          "internalType": "bytes32",
          "name": "id",
          "type": "bytes32"
        }
      ],
      "name": "TableCreated",
      "type": "event"
    },
    {
      "inputs": [],
      "name": "ADMIN_ROLE",
      "outputs": [
        {
          "internalType": "bytes32",
          "name": "",
          "type": "bytes32"
        }
      ],
      "stateMutability": "view",
      "type": "function"
    },
    {
      "inputs": [],
      "name": "DEFAULT_ADMIN_ROLE",
      "outputs": [
        {
          "internalType": "bytes32",
          "name": "",
          "type": "bytes32"
        }
      ],
      "stateMutability": "view",
      "type": "function"
    },
    {
      "inputs": [
        {
          "internalType": "bytes32",
          "name": "id",
          "type": "bytes32"
        }
      ],
      "name": "attributes",
      "outputs": [
        {
          "internalType": "bytes32[]",
          "name": "",
          "type": "bytes32[]"
        }
      ],
      "stateMutability": "view",
      "type": "function"
    },
    {
      "inputs": [
        {
          "internalType": "bytes32",
          "name": "id",
          "type": "bytes32"
        }
      ],
      "name": "autoPlay",
      "outputs": [
        {
          "internalType": "bool[]",
          "name": "",
          "type": "bool[]"
        }
      ],
      "stateMutability": "view",
      "type": "function"
    },
    {
      "inputs": [
        {
          "internalType": "uint256",
          "name": "",
          "type": "uint256"
        }
      ],
      "name": "blockOfRoll",
      "outputs": [
        {
          "internalType": "uint256",
          "name": "",
          "type": "uint256"
        }
      ],
      "stateMutability": "view",
      "type": "function"
    },
    {
      "inputs": [
        {
          "components": [
            {
              "internalType": "bytes32",
              "name": "id",
              "type": "bytes32"
            },
            {
              "internalType": "address",
              "name": "owner",
              "type": "address"
            },
            {
              "internalType": "uint256",
              "name": "startedAt",
              "type": "uint256"
            },
            {
              "internalType": "uint256",
              "name": "gameLength",
              "type": "uint256"
            },
            {
              "internalType": "uint32",
              "name": "tableSize",
              "type": "uint32"
            },
            {
              "internalType": "uint32",
              "name": "wootgumpMultiplier",
              "type": "uint32"
            },
            {
              "internalType": "address[]",
              "name": "players",
              "type": "address[]"
            },
            {
              "internalType": "bytes32[]",
              "name": "seeds",
              "type": "bytes32[]"
            },
            {
              "internalType": "bytes32[]",
              "name": "attributes",
              "type": "bytes32[]"
            },
            {
              "internalType": "uint256[]",
              "name": "initialGump",
              "type": "uint256[]"
            },
            {
              "internalType": "bool[]",
              "name": "autoPlay",
              "type": "bool[]"
            }
          ],
          "internalType": "struct DelphsTable.Table",
          "name": "newTable",
          "type": "tuple"
        }
      ],
      "name": "createAndStart",
      "outputs": [],
      "stateMutability": "nonpayable",
      "type": "function"
    },
    {
      "inputs": [
        {
          "components": [
            {
              "internalType": "bytes32",
              "name": "id",
              "type": "bytes32"
            },
            {
              "internalType": "address",
              "name": "owner",
              "type": "address"
            },
            {
              "internalType": "uint256",
              "name": "startedAt",
              "type": "uint256"
            },
            {
              "internalType": "uint256",
              "name": "gameLength",
              "type": "uint256"
            },
            {
              "internalType": "uint32",
              "name": "tableSize",
              "type": "uint32"
            },
            {
              "internalType": "uint32",
              "name": "wootgumpMultiplier",
              "type": "uint32"
            },
            {
              "internalType": "address[]",
              "name": "players",
              "type": "address[]"
            },
            {
              "internalType": "bytes32[]",
              "name": "seeds",
              "type": "bytes32[]"
            },
            {
              "internalType": "bytes32[]",
              "name": "attributes",
              "type": "bytes32[]"
            },
            {
              "internalType": "uint256[]",
              "name": "initialGump",
              "type": "uint256[]"
            },
            {
              "internalType": "bool[]",
              "name": "autoPlay",
              "type": "bool[]"
            }
          ],
          "internalType": "struct DelphsTable.Table",
          "name": "newTable",
          "type": "tuple"
        }
      ],
      "name": "createTable",
      "outputs": [],
      "stateMutability": "nonpayable",
      "type": "function"
    },
    {
      "inputs": [
        {
          "internalType": "bytes32",
          "name": "",
          "type": "bytes32"
        },
        {
          "internalType": "uint256",
          "name": "",
          "type": "uint256"
        },
        {
          "internalType": "uint256",
          "name": "",
          "type": "uint256"
        }
      ],
      "name": "destinations",
      "outputs": [
        {
          "internalType": "address",
          "name": "player",
          "type": "address"
        },
        {
          "internalType": "int64",
          "name": "x",
          "type": "int64"
        },
        {
          "internalType": "int64",
          "name": "y",
          "type": "int64"
        }
      ],
      "stateMutability": "view",
      "type": "function"
    },
    {
      "inputs": [
        {
          "internalType": "bytes32",
          "name": "id",
          "type": "bytes32"
        },
        {
          "internalType": "uint256",
          "name": "roll",
          "type": "uint256"
        }
      ],
      "name": "destinationsForRoll",
      "outputs": [
        {
          "components": [
            {
              "internalType": "address",
              "name": "player",
              "type": "address"
            },
            {
              "internalType": "int64",
              "name": "x",
              "type": "int64"
            },
            {
              "internalType": "int64",
              "name": "y",
              "type": "int64"
            }
          ],
          "internalType": "struct DelphsTable.Destination[]",
          "name": "",
          "type": "tuple[]"
        }
      ],
      "stateMutability": "view",
      "type": "function"
    },
    {
      "inputs": [
        {
          "internalType": "bytes32",
          "name": "role",
          "type": "bytes32"
        }
      ],
      "name": "getRoleAdmin",
      "outputs": [
        {
          "internalType": "bytes32",
          "name": "",
          "type": "bytes32"
        }
      ],
      "stateMutability": "view",
      "type": "function"
    },
    {
      "inputs": [
        {
          "internalType": "bytes32",
          "name": "role",
          "type": "bytes32"
        },
        {
          "internalType": "address",
          "name": "account",
          "type": "address"
        }
      ],
      "name": "grantRole",
      "outputs": [],
      "stateMutability": "nonpayable",
      "type": "function"
    },
    {
      "inputs": [
        {
          "internalType": "bytes32",
          "name": "role",
          "type": "bytes32"
        },
        {
          "internalType": "address",
          "name": "account",
          "type": "address"
        }
      ],
      "name": "hasRole",
      "outputs": [
        {
          "internalType": "bool",
          "name": "",
          "type": "bool"
        }
      ],
      "stateMutability": "view",
      "type": "function"
    },
    {
      "inputs": [
        {
          "internalType": "bytes32",
          "name": "id",
          "type": "bytes32"
        }
      ],
      "name": "initialGump",
      "outputs": [
        {
          "internalType": "uint256[]",
          "name": "",
          "type": "uint256[]"
        }
      ],
      "stateMutability": "view",
      "type": "function"
    },
    {
      "inputs": [
        {
          "internalType": "address",
          "name": "forwarder",
          "type": "address"
        }
      ],
      "name": "isTrustedForwarder",
      "outputs": [
        {
          "internalType": "bool",
          "name": "",
          "type": "bool"
        }
      ],
      "stateMutability": "view",
      "type": "function"
    },
    {
      "inputs": [
        {
          "internalType": "bytes32",
          "name": "",
          "type": "bytes32"
        },
        {
          "internalType": "uint256",
          "name": "",
          "type": "uint256"
        },
        {
          "internalType": "uint256",
          "name": "",
          "type": "uint256"
        }
      ],
      "name": "itemPlays",
      "outputs": [
        {
          "internalType": "address",
          "name": "player",
          "type": "address"
        },
        {
          "internalType": "address",
          "name": "itemContract",
          "type": "address"
        },
        {
          "internalType": "uint256",
          "name": "id",
          "type": "uint256"
        }
      ],
      "stateMutability": "view",
      "type": "function"
    },
    {
      "inputs": [
        {
          "internalType": "bytes32",
          "name": "id",
          "type": "bytes32"
        },
        {
          "internalType": "uint256",
          "name": "roll",
          "type": "uint256"
        }
      ],
      "name": "itemPlaysForRoll",
      "outputs": [
        {
          "components": [
            {
              "internalType": "address",
              "name": "player",
              "type": "address"
            },
            {
              "internalType": "address",
              "name": "itemContract",
              "type": "address"
            },
            {
              "internalType": "uint256",
              "name": "id",
              "type": "uint256"
            }
          ],
          "internalType": "struct DelphsTable.ItemPlay[]",
          "name": "",
          "type": "tuple[]"
        }
      ],
      "stateMutability": "view",
      "type": "function"
    },
    {
      "inputs": [],
      "name": "latestRoll",
      "outputs": [
        {
          "internalType": "uint256",
          "name": "",
          "type": "uint256"
        }
      ],
      "stateMutability": "view",
      "type": "function"
    },
    {
      "inputs": [
        {
          "internalType": "bytes32",
          "name": "tableId",
          "type": "bytes32"
        },
        {
          "internalType": "address",
          "name": "itemContract",
          "type": "address"
        },
        {
          "internalType": "uint256",
          "name": "itemId",
          "type": "uint256"
        }
      ],
      "name": "playItem",
      "outputs": [
        {
          "internalType": "bool",
          "name": "",
          "type": "bool"
        }
      ],
      "stateMutability": "nonpayable",
      "type": "function"
    },
    {
      "inputs": [
        {
          "internalType": "bytes32",
          "name": "id",
          "type": "bytes32"
        }
      ],
      "name": "players",
      "outputs": [
        {
          "internalType": "address[]",
          "name": "",
          "type": "address[]"
        }
      ],
      "stateMutability": "view",
      "type": "function"
    },
    {
      "inputs": [
        {
          "internalType": "bytes32",
          "name": "role",
          "type": "bytes32"
        },
        {
          "internalType": "address",
          "name": "account",
          "type": "address"
        }
      ],
      "name": "renounceRole",
      "outputs": [],
      "stateMutability": "nonpayable",
      "type": "function"
    },
    {
      "inputs": [
        {
          "internalType": "bytes32",
          "name": "role",
          "type": "bytes32"
        },
        {
          "internalType": "address",
          "name": "account",
          "type": "address"
        }
      ],
      "name": "revokeRole",
      "outputs": [],
      "stateMutability": "nonpayable",
      "type": "function"
    },
    {
      "inputs": [],
      "name": "rollTheDice",
      "outputs": [
        {
          "internalType": "uint256",
          "name": "",
          "type": "uint256"
        }
      ],
      "stateMutability": "nonpayable",
      "type": "function"
    },
    {
      "inputs": [],
      "name": "roller",
      "outputs": [
        {
          "internalType": "contract IDiceRoller",
          "name": "",
          "type": "address"
        }
      ],
      "stateMutability": "view",
      "type": "function"
    },
    {
      "inputs": [
        {
          "internalType": "uint256",
          "name": "",
          "type": "uint256"
        }
      ],
      "name": "rolls",
      "outputs": [
        {
          "internalType": "bytes32",
          "name": "",
          "type": "bytes32"
        }
      ],
      "stateMutability": "view",
      "type": "function"
    },
    {
      "inputs": [
        {
          "internalType": "bytes32",
          "name": "id",
          "type": "bytes32"
        }
      ],
      "name": "seeds",
      "outputs": [
        {
          "internalType": "bytes32[]",
          "name": "",
          "type": "bytes32[]"
        }
      ],
      "stateMutability": "view",
      "type": "function"
    },
    {
      "inputs": [
        {
          "internalType": "bytes32",
          "name": "id",
          "type": "bytes32"
        },
        {
          "internalType": "int64",
          "name": "x",
          "type": "int64"
        },
        {
          "internalType": "int64",
          "name": "y",
          "type": "int64"
        }
      ],
      "name": "setDestination",
      "outputs": [
        {
          "internalType": "bool",
          "name": "",
          "type": "bool"
        }
      ],
      "stateMutability": "nonpayable",
      "type": "function"
    },
    {
      "inputs": [
        {
          "internalType": "bytes32",
          "name": "id",
          "type": "bytes32"
        }
      ],
      "name": "start",
      "outputs": [
        {
          "internalType": "uint256",
          "name": "",
          "type": "uint256"
        }
      ],
      "stateMutability": "nonpayable",
      "type": "function"
    },
    {
      "inputs": [
        {
          "internalType": "bytes32",
          "name": "id",
          "type": "bytes32"
        },
        {
          "internalType": "address",
          "name": "playerAddress",
          "type": "address"
        }
      ],
      "name": "statsForPlayer",
      "outputs": [
        {
          "components": [
            {
              "internalType": "uint256",
              "name": "attack",
              "type": "uint256"
            },
            {
              "internalType": "uint256",
              "name": "defense",
              "type": "uint256"
            },
            {
              "internalType": "uint256",
              "name": "health",
              "type": "uint256"
            }
          ],
          "internalType": "struct DelphsTable.Stats",
          "name": "",
          "type": "tuple"
        }
      ],
      "stateMutability": "view",
      "type": "function"
    },
    {
      "inputs": [
        {
          "internalType": "bytes4",
          "name": "interfaceId",
          "type": "bytes4"
        }
      ],
      "name": "supportsInterface",
      "outputs": [
        {
          "internalType": "bool",
          "name": "",
          "type": "bool"
        }
      ],
      "stateMutability": "view",
      "type": "function"
    },
    {
      "inputs": [
        {
          "internalType": "bytes32",
          "name": "",
          "type": "bytes32"
        }
      ],
      "name": "tables",
      "outputs": [
        {
          "internalType": "bytes32",
          "name": "id",
          "type": "bytes32"
        },
        {
          "internalType": "address",
          "name": "owner",
          "type": "address"
        },
        {
          "internalType": "uint256",
          "name": "startedAt",
          "type": "uint256"
        },
        {
          "internalType": "uint256",
          "name": "gameLength",
          "type": "uint256"
        },
        {
          "internalType": "uint32",
          "name": "tableSize",
          "type": "uint32"
        },
        {
          "internalType": "uint32",
          "name": "wootgumpMultiplier",
          "type": "uint32"
        }
      ],
      "stateMutability": "view",
      "type": "function"
    }
  ],
  "transactionHash": "0xe9b6c54c7f243c97df82497ac6134241b791171ba045cb1143712b81be576b35",
  "args": [
    "0xe00e66A2713E924b9CC56319752021747dDDEaA3",
    "0xdB438BA5B134E4Fe98d7FC638722a0CaCc2602Dd",
    "0x6DE3D3747D54d0Adc11e5Cf678D4045B0441D332"
  ],
  "numDeployments": 3,
  "solcInputHash": "16cb579d121865531ac3da50c6870aa8",
  "bytecode": "0x60c06040523480156200001157600080fd5b506040516200215e3803806200215e8339810160408190526200003491620001b0565b6001600160a01b03808416608052821660a052620000737fa49807205ce4d355092ef5a8a18f56e8913cf4a201fbe287825b095693c217758262000089565b6200008060008262000089565b505050620001fa565b62000095828262000099565b5050565b6000828152602081815260408083206001600160a01b038516845290915290205460ff1662000095576000828152602081815260408083206001600160a01b03851684529091529020805460ff19166001179055620000f76200013b565b6001600160a01b0316816001600160a01b0316837f2f8788117e7eff1d82e926ec794901d17c78024a50270940304540a733656f0d60405160405180910390a45050565b6000620001526200015760201b620011a91760201c565b905090565b6080516000906001600160a01b031633036200017a575060131936013560601c90565b620001526200018f60201b620011f21760201c565b3390565b80516001600160a01b0381168114620001ab57600080fd5b919050565b600080600060608486031215620001c657600080fd5b620001d18462000193565b9250620001e16020850162000193565b9150620001f16040850162000193565b90509250925092565b60805160a051611f306200022e600039600081816102960152610aed01526000818161034801526111ad0152611f306000f3fe608060405234801561001057600080fd5b50600436106101da5760003560e01c806375b238fc11610104578063b115ce0d116100a2578063d547741f11610071578063d547741f1461056c578063e0e543d01461057f578063f9bc31e11461059f578063fec9adcf146105b257600080fd5b8063b115ce0d1461048f578063b53e33af146104a2578063b63fddc2146104c2578063d3098b9a146104d557600080fd5b806391d14854116100de57806391d148541461044b5780639424732e1461045e578063a217fddf1461047e578063ae383a4d1461048657600080fd5b806375b238fc146103e75780637d789dee1461040e578063907efe001461041657600080fd5b80632f2ff15d1161017c578063572b6c051161014b578063572b6c05146103385780635c72a246146103785780635d69f16c1461038b5780637213b814146103ab57600080fd5b80632f2ff15d146102d057806336150852146102e557806336568abe146103055780633bdf331b1461031857600080fd5b806313870132116101b8578063138701321461023b578063248a9ca31461024e5780632d1dc122146102715780632f09177d1461029157600080fd5b8063015a18ed146101df57806301ffc9a7146102055780630352393814610228575b600080fd5b6101f26101ed3660046115d1565b6105eb565b6040519081526020015b60405180910390f35b6102186102133660046115ea565b6106a7565b60405190151581526020016101fc565b610218610236366004611629565b6106de565b610218610249366004611678565b6107ac565b6101f261025c3660046115d1565b60009081526020819052604090206001015490565b6101f261027f3660046115d1565b60036020526000908152604090205481565b6102b87f000000000000000000000000000000000000000000000000000000000000000081565b6040516001600160a01b0390911681526020016101fc565b6102e36102de3660046116b4565b61089e565b005b6102f86102f33660046115d1565b6108c8565b6040516101fc91906116e4565b6102e36103133660046116b4565b61092d565b61032b6103263660046115d1565b6109c0565b6040516101fc9190611728565b610218610346366004611762565b7f00000000000000000000000000000000000000000000000000000000000000006001600160a01b0390811691161490565b6102e361038636600461177f565b610a43565b6101f26103993660046115d1565b60026020526000908152604090205481565b6103be6103b93660046117bb565b610a56565b604080516001600160a01b039094168452600792830b6020850152910b908201526060016101fc565b6101f27fa49807205ce4d355092ef5a8a18f56e8913cf4a201fbe287825b095693c2177581565b6101f2610ab7565b6104296104243660046116b4565b610c18565b60408051825181526020808401519082015291810151908201526060016101fc565b6102186104593660046116b4565b610db2565b61047161046c3660046115d1565b610ddb565b6040516101fc91906117e7565b6101f2600081565b6101f260015481565b6102f861049d3660046115d1565b610e49565b6104b56104b0366004611828565b610eac565b6040516101fc919061184a565b6102e36104d036600461177f565b610f48565b61052e6104e33660046115d1565b6006602052600090815260409020805460018201546002830154600384015460049094015492936001600160a01b039092169290919063ffffffff8082169164010000000090041686565b604080519687526001600160a01b03909516602087015293850192909252606084015263ffffffff90811660808401521660a082015260c0016101fc565b6102e361057a3660046116b4565b611032565b61059261058d366004611828565b611057565b6040516101fc91906118af565b6102f86105ad3660046115d1565b6110eb565b6105c56105c03660046117bb565b61114e565b604080516001600160a01b039485168152939092166020840152908201526060016101fc565b600081815260066020526040812060018101546001600160a01b031661060f6111f6565b6001600160a01b031614610635576040516282b42960e81b815260040160405180910390fd5b60028101541561065857604051631fbde44560e01b815260040160405180910390fd5b600060015460016106699190611922565b60028301819055604051909150819085907f3a5803cb6dcb9c83b0584d712b7825e7e9fa6243be3cde9e798681f5c091e65c90600090a39392505050565b60006001600160e01b03198216637965db0b60e01b14806106d857506301ffc9a760e01b6001600160e01b03198316145b92915050565b6000806106e96111f6565b60008681526006602052604090209091506107076005820183611200565b610723576040516282b42960e81b815260040160405180910390fd5b50600094855260056020908152604080872060018054895290835281882082516060810184526001600160a01b03958616815297851688850190815292880196875280548083018255908952929097209551600390920290950180549183166001600160a01b031992831617815594518587018054919093169116179055505160029091015590565b6000806107b76111f6565b60008681526006602052604090209091506107d56005820183611200565b6107f1576040516282b42960e81b815260040160405180910390fd5b50600094855260046020908152604080872060018054895290835281882082516060810184526001600160a01b039586168152600798890b8186019081529790980b92880192835280548083018255908952929097209551600290920290950180549451919092166001600160e01b031990941693909317600160a01b67ffffffffffffffff948516021781559251928401805467ffffffffffffffff1916939092169290921790555090565b6000828152602081905260409020600101546108b98161126d565b6108c38383611281565b505050565b60008181526006602081815260409283902090910180548351818402810184019094528084526060939283018282801561092157602002820191906000526020600020905b81548152602001906001019080831161090d575b50505050509050919050565b6109356111f6565b6001600160a01b0316816001600160a01b0316146109b25760405162461bcd60e51b815260206004820152602f60248201527f416363657373436f6e74726f6c3a2063616e206f6e6c792072656e6f756e636560448201526e103937b632b9903337b91039b2b63360891b60648201526084015b60405180910390fd5b6109bc8282611306565b5050565b60008181526006602090815260409182902060090180548351818402810184019094528084526060939283018282801561092157602002820191906000526020600020906000905b825461010083900a900460ff161515815260206001928301818104948501949093039092029101808411610a08575094979650505050505050565b610a4c81610f48565b6109bc81356105eb565b60046020528260005260406000206020528160005260406000208181548110610a7e57600080fd5b6000918252602090912060029091020180546001909101546001600160a01b0382169450600160a01b909104600790810b93500b905083565b600154600090815260036020526040812054439003610ae9576040516374f70e7960e11b815260040160405180910390fd5b60007f00000000000000000000000000000000000000000000000000000000000000006001600160a01b031663aacc5a176040518163ffffffff1660e01b8152600401602060405180830381865afa158015610b49573d6000803e3d6000fd5b505050506040513d601f19601f82011682018060405250810190610b6d919061193a565b905080600260006001546001610b839190611922565b81526020019081526020016000208190555043600360006001546001610ba99190611922565b81526020019081526020016000208190555060016000815480929190610bce90611953565b9190505550436001547f61a648c0140ef625babe35b3bc5ba2a28852bd10a17c53f6d9f3831b21096cd783604051610c0891815260200190565b60405180910390a3505060015490565b610c3c60405180606001604052806000815260200160008152602001600081525090565b600083815260066020908152604080832060028082015485529092529091205480610c985760405162461bcd60e51b815260206004820152600c60248201526b1b9bc81cdd185d1cc81e595d60a21b60448201526064016109a9565b604080516060810190915280610ce983610cd2886080850160609190911b6001600160601b0319168152606160f81b601482015260150190565b6040516020818303038152906040526103e8611389565b610cf5906101f4611922565b8152602001610d438387604051602001610d2c919060609190911b6001600160601b0319168152601960fa1b601482015260150190565b604051602081830303815290604052610320611389565b610d4e9060c8611922565b8152602001610d9c8387604051602001610d85919060609190911b6001600160601b0319168152600d60fb1b601482015260150190565b604051602081830303815290604052610258611389565b610da79060c8611922565b905295945050505050565b6000918252602082815260408084206001600160a01b0393909316845291905290205460ff1690565b60008181526006602090815260409182902060050180548351818402810184019094528084526060939283018282801561092157602002820191906000526020600020905b81546001600160a01b03168152600190910190602001808311610e205750505050509050919050565b600081815260066020908152604091829020600701805483518184028101840190945280845260609392830182828015610921576020028201919060005260206000209081548152602001906001019080831161090d5750505050509050919050565b60008281526005602090815260408083208484528252808320805482518185028101850190935280835260609492939192909184015b82821015610f3c576000848152602090819020604080516060810182526003860290920180546001600160a01b03908116845260018083015490911684860152600290910154918301919091529083529092019101610ee2565b50505050905092915050565b604081013515610f6b57604051630f0b92ed60e21b815260040160405180910390fd5b610f977fa49807205ce4d355092ef5a8a18f56e8913cf4a201fbe287825b095693c217756104596111f6565b610fb3576040516282b42960e81b815260040160405180910390fd5b803560009081526006602052604090206005015415610fe55760405163119b4fd360e11b815260040160405180910390fd5b8035600090815260066020526040902081906110018282611c78565b50506040518135907fff39e0eaf58742100b3d96f355f818806f2c4c75c3fb9c8ff1101305924884fa90600090a250565b60008281526020819052604090206001015461104d8161126d565b6108c38383611306565b60008281526004602090815260408083208484528252808320805482518185028101850190935280835260609492939192909184015b82821015610f3c576000848152602090819020604080516060810182526002860290920180546001600160a01b0381168452600160a01b9004600790810b84860152600191820154900b91830191909152908352909201910161108d565b600081815260066020908152604091829020600801805483518184028101840190945280845260609392830182828015610921576020028201919060005260206000209081548152602001906001019080831161090d5750505050509050919050565b6005602052826000526040600020602052816000526040600020818154811061117657600080fd5b60009182526020909120600390910201805460018201546002909201546001600160a01b03918216955091169250905083565b60007f00000000000000000000000000000000000000000000000000000000000000006001600160a01b031633036111e8575060131936013560601c90565b503390565b905090565b3390565b60006111ed6111a9565b8154600090815b8181101561126257836001600160a01b031685828154811061122b5761122b611db1565b6000918252602090912001546001600160a01b031603611250576001925050506106d8565b8061125a81611953565b915050611207565b506000949350505050565b61127e816112796111f6565b6113ca565b50565b61128b8282610db2565b6109bc576000828152602081815260408083206001600160a01b03851684529091529020805460ff191660011790556112c26111f6565b6001600160a01b0316816001600160a01b0316837f2f8788117e7eff1d82e926ec794901d17c78024a50270940304540a733656f0d60405160405180910390a45050565b6113108282610db2565b156109bc576000828152602081815260408083206001600160a01b03851684529091529020805460ff191690556113456111f6565b6001600160a01b0316816001600160a01b0316837ff6391f5c32d9c69d2a47ea670b442974b53935d1edc7fd64eb21e047a839171b60405160405180910390a45050565b600081848460405160200161139f929190611df3565b6040516020818303038152906040528051906020012060001c6113c29190611e19565b949350505050565b6113d48282610db2565b6109bc576113ec816001600160a01b0316601461142e565b6113f783602061142e565b604051602001611408929190611e3b565b60408051601f198184030181529082905262461bcd60e51b82526109a991600401611eb0565b6060600061143d8360026119f6565b611448906002611922565b67ffffffffffffffff811115611460576114606119e0565b6040519080825280601f01601f19166020018201604052801561148a576020820181803683370190505b509050600360fc1b816000815181106114a5576114a5611db1565b60200101906001600160f81b031916908160001a905350600f60fb1b816001815181106114d4576114d4611db1565b60200101906001600160f81b031916908160001a90535060006114f88460026119f6565b611503906001611922565b90505b600181111561157b576f181899199a1a9b1b9c1cb0b131b232b360811b85600f166010811061153757611537611db1565b1a60f81b82828151811061154d5761154d611db1565b60200101906001600160f81b031916908160001a90535060049490941c9361157481611ee3565b9050611506565b5083156115ca5760405162461bcd60e51b815260206004820181905260248201527f537472696e67733a20686578206c656e67746820696e73756666696369656e7460448201526064016109a9565b9392505050565b6000602082840312156115e357600080fd5b5035919050565b6000602082840312156115fc57600080fd5b81356001600160e01b0319811681146115ca57600080fd5b6001600160a01b038116811461127e57600080fd5b60008060006060848603121561163e57600080fd5b83359250602084013561165081611614565b929592945050506040919091013590565b8035600781900b811461167357600080fd5b919050565b60008060006060848603121561168d57600080fd5b8335925061169d60208501611661565b91506116ab60408501611661565b90509250925092565b600080604083850312156116c757600080fd5b8235915060208301356116d981611614565b809150509250929050565b6020808252825182820181905260009190848201906040850190845b8181101561171c57835183529284019291840191600101611700565b50909695505050505050565b6020808252825182820181905260009190848201906040850190845b8181101561171c578351151583529284019291840191600101611744565b60006020828403121561177457600080fd5b81356115ca81611614565b60006020828403121561179157600080fd5b813567ffffffffffffffff8111156117a857600080fd5b820161016081850312156115ca57600080fd5b6000806000606084860312156117d057600080fd5b505081359360208301359350604090920135919050565b6020808252825182820181905260009190848201906040850190845b8181101561171c5783516001600160a01b031683529284019291840191600101611803565b6000806040838503121561183b57600080fd5b50508035926020909101359150565b602080825282518282018190526000919060409081850190868401855b828110156118a257815180516001600160a01b0390811686528782015116878601528501518585015260609093019290850190600101611867565b5091979650505050505050565b602080825282518282018190526000919060409081850190868401855b828110156118a257815180516001600160a01b0316855286810151600790810b8887015290860151900b85850152606090930192908501906001016118cc565b634e487b7160e01b600052601160045260246000fd5b600082198211156119355761193561190c565b500190565b60006020828403121561194c57600080fd5b5051919050565b6000600182016119655761196561190c565b5060010190565b600081356106d881611614565b6000813563ffffffff811681146106d857600080fd5b6000808335601e198436030181126119a657600080fd5b83018035915067ffffffffffffffff8211156119c157600080fd5b6020019150600581901b36038213156119d957600080fd5b9250929050565b634e487b7160e01b600052604160045260246000fd5b6000816000190483118215151615611a1057611a1061190c565b500290565b5b818110156109bc5760008155600101611a16565b818310156108c357806000526020600020611a49838201858301611a15565b50505050565b600160401b831115611a6357611a636119e0565b8054838255611a73848284611a2a565b50818160005260208060002060005b86811015611ac0578335611a9581611614565b82546001600160a01b0319166001600160a01b03919091161782559282019260019182019101611a82565b50505050505050565b600160401b831115611add57611add6119e0565b805483825580841015611b14576000828152602081208581019083015b80821015611b1057828255600182019150611afa565b5050505b5060008181526020812083915b85811015611b3f578235825560209092019160019182019101611b21565b505050505050565b600160401b831115611b5b57611b5b6119e0565b8054838255611b6b848284611a2a565b50818160005260208060002060005b86811015611ac057833582559282019260019182019101611b7a565b6000813580151581146106d857600080fd5b600160401b831115611bbc57611bbc6119e0565b805483825580841015611c1257816000526020600020601f850160051c8101601f86168015611bfc576000198083018054828460200360031b1c16815550505b50611c0f601f840160051c830182611a15565b50505b506000818152602081208391805b86811015611ac057611c50611c3485611b96565b845460ff600386901b90811b8019909216921515901b16178455565b60208401935060018083019250601f831115611c6f5792830192600092505b50600101611c20565b81358155611caf611c8b6020840161196c565b6001830180546001600160a01b0319166001600160a01b0392909216919091179055565b604082013560028201556060820135600382015560048101611ced611cd660808501611979565b825463ffffffff191663ffffffff91909116178255565b611d1e611cfc60a08501611979565b825467ffffffff00000000191660209190911b67ffffffff0000000016178255565b50611d2c60c083018361198f565b611d3a818360058601611a4f565b5050611d4960e083018361198f565b611d57818360068601611ac9565b5050611d6761010083018361198f565b611d75818360078601611ac9565b5050611d8561012083018361198f565b611d93818360088601611b47565b5050611da361014083018361198f565b611a49818360098601611ba8565b634e487b7160e01b600052603260045260246000fd5b60005b83811015611de2578181015183820152602001611dca565b83811115611a495750506000910152565b82815260008251611e0b816020850160208701611dc7565b919091016020019392505050565b600082611e3657634e487b7160e01b600052601260045260246000fd5b500690565b7f416363657373436f6e74726f6c3a206163636f756e7420000000000000000000815260008351611e73816017850160208801611dc7565b7001034b99036b4b9b9b4b733903937b6329607d1b6017918401918201528351611ea4816028840160208801611dc7565b01602801949350505050565b6020815260008251806020840152611ecf816040850160208701611dc7565b601f01601f19169190910160400192915050565b600081611ef257611ef261190c565b50600019019056fea2646970667358221220413f6188f010a0efdb6f056a34552ed1f79dac2fee88dc5f0efbeb234b08c0e164736f6c634300080e0033",
  "devdoc": {
    "kind": "dev",
    "methods": {
      "getRoleAdmin(bytes32)": {
        "details": "Returns the admin role that controls `role`. See {grantRole} and {revokeRole}. To change a role's admin, use {_setRoleAdmin}."
      },
      "grantRole(bytes32,address)": {
        "details": "Grants `role` to `account`. If `account` had not been already granted `role`, emits a {RoleGranted} event. Requirements: - the caller must have ``role``'s admin role."
      },
      "hasRole(bytes32,address)": {
        "details": "Returns `true` if `account` has been granted `role`."
      },
      "renounceRole(bytes32,address)": {
        "details": "Revokes `role` from the calling account. Roles are often managed via {grantRole} and {revokeRole}: this function's purpose is to provide a mechanism for accounts to lose their privileges if they are compromised (such as when a trusted device is misplaced). If the calling account had been revoked `role`, emits a {RoleRevoked} event. Requirements: - the caller must be `account`."
      },
      "revokeRole(bytes32,address)": {
        "details": "Revokes `role` from `account`. If `account` had been granted `role`, emits a {RoleRevoked} event. Requirements: - the caller must have ``role``'s admin role."
      },
      "supportsInterface(bytes4)": {
        "details": "See {IERC165-supportsInterface}."
      }
    },
    "version": 1
  },
  "userdoc": {
    "kind": "user",
    "methods": {},
    "version": 1
  },
  "storageLayout": {
    "storage": [
      {
        "astId": 24,
        "contract": "contracts/DelphsTable.sol:DelphsTable",
        "label": "_roles",
        "offset": 0,
        "slot": "0",
        "type": "t_mapping(t_bytes32,t_struct(RoleData)19_storage)"
      },
      {
        "astId": 5006,
        "contract": "contracts/DelphsTable.sol:DelphsTable",
        "label": "latestRoll",
        "offset": 0,
        "slot": "1",
        "type": "t_uint256"
      },
      {
        "astId": 5010,
        "contract": "contracts/DelphsTable.sol:DelphsTable",
        "label": "rolls",
        "offset": 0,
        "slot": "2",
        "type": "t_mapping(t_uint256,t_bytes32)"
      },
      {
        "astId": 5014,
        "contract": "contracts/DelphsTable.sol:DelphsTable",
        "label": "blockOfRoll",
        "offset": 0,
        "slot": "3",
        "type": "t_mapping(t_uint256,t_uint256)"
      },
      {
        "astId": 5022,
        "contract": "contracts/DelphsTable.sol:DelphsTable",
        "label": "destinations",
        "offset": 0,
        "slot": "4",
        "type": "t_mapping(t_bytes32,t_mapping(t_uint256,t_array(t_struct(Destination)5042_storage)dyn_storage))"
      },
      {
        "astId": 5030,
        "contract": "contracts/DelphsTable.sol:DelphsTable",
        "label": "itemPlays",
        "offset": 0,
        "slot": "5",
        "type": "t_mapping(t_bytes32,t_mapping(t_uint256,t_array(t_struct(ItemPlay)5049_storage)dyn_storage))"
      },
      {
        "astId": 5035,
        "contract": "contracts/DelphsTable.sol:DelphsTable",
        "label": "tables",
        "offset": 0,
        "slot": "6",
        "type": "t_mapping(t_bytes32,t_struct(Table)5077_storage)"
      }
    ],
    "types": {
      "t_address": {
        "encoding": "inplace",
        "label": "address",
        "numberOfBytes": "20"
      },
      "t_array(t_address)dyn_storage": {
        "base": "t_address",
        "encoding": "dynamic_array",
        "label": "address[]",
        "numberOfBytes": "32"
      },
      "t_array(t_bool)dyn_storage": {
        "base": "t_bool",
        "encoding": "dynamic_array",
        "label": "bool[]",
        "numberOfBytes": "32"
      },
      "t_array(t_bytes32)dyn_storage": {
        "base": "t_bytes32",
        "encoding": "dynamic_array",
        "label": "bytes32[]",
        "numberOfBytes": "32"
      },
      "t_array(t_struct(Destination)5042_storage)dyn_storage": {
        "base": "t_struct(Destination)5042_storage",
        "encoding": "dynamic_array",
        "label": "struct DelphsTable.Destination[]",
        "numberOfBytes": "32"
      },
      "t_array(t_struct(ItemPlay)5049_storage)dyn_storage": {
        "base": "t_struct(ItemPlay)5049_storage",
        "encoding": "dynamic_array",
        "label": "struct DelphsTable.ItemPlay[]",
        "numberOfBytes": "32"
      },
      "t_array(t_uint256)dyn_storage": {
        "base": "t_uint256",
        "encoding": "dynamic_array",
        "label": "uint256[]",
        "numberOfBytes": "32"
      },
      "t_bool": {
        "encoding": "inplace",
        "label": "bool",
        "numberOfBytes": "1"
      },
      "t_bytes32": {
        "encoding": "inplace",
        "label": "bytes32",
        "numberOfBytes": "32"
      },
      "t_int64": {
        "encoding": "inplace",
        "label": "int64",
        "numberOfBytes": "8"
      },
      "t_mapping(t_address,t_bool)": {
        "encoding": "mapping",
        "key": "t_address",
        "label": "mapping(address => bool)",
        "numberOfBytes": "32",
        "value": "t_bool"
      },
      "t_mapping(t_bytes32,t_mapping(t_uint256,t_array(t_struct(Destination)5042_storage)dyn_storage))": {
        "encoding": "mapping",
        "key": "t_bytes32",
        "label": "mapping(bytes32 => mapping(uint256 => struct DelphsTable.Destination[]))",
        "numberOfBytes": "32",
        "value": "t_mapping(t_uint256,t_array(t_struct(Destination)5042_storage)dyn_storage)"
      },
      "t_mapping(t_bytes32,t_mapping(t_uint256,t_array(t_struct(ItemPlay)5049_storage)dyn_storage))": {
        "encoding": "mapping",
        "key": "t_bytes32",
        "label": "mapping(bytes32 => mapping(uint256 => struct DelphsTable.ItemPlay[]))",
        "numberOfBytes": "32",
        "value": "t_mapping(t_uint256,t_array(t_struct(ItemPlay)5049_storage)dyn_storage)"
      },
      "t_mapping(t_bytes32,t_struct(RoleData)19_storage)": {
        "encoding": "mapping",
        "key": "t_bytes32",
        "label": "mapping(bytes32 => struct AccessControl.RoleData)",
        "numberOfBytes": "32",
        "value": "t_struct(RoleData)19_storage"
      },
      "t_mapping(t_bytes32,t_struct(Table)5077_storage)": {
        "encoding": "mapping",
        "key": "t_bytes32",
        "label": "mapping(bytes32 => struct DelphsTable.Table)",
        "numberOfBytes": "32",
        "value": "t_struct(Table)5077_storage"
      },
      "t_mapping(t_uint256,t_array(t_struct(Destination)5042_storage)dyn_storage)": {
        "encoding": "mapping",
        "key": "t_uint256",
        "label": "mapping(uint256 => struct DelphsTable.Destination[])",
        "numberOfBytes": "32",
        "value": "t_array(t_struct(Destination)5042_storage)dyn_storage"
      },
      "t_mapping(t_uint256,t_array(t_struct(ItemPlay)5049_storage)dyn_storage)": {
        "encoding": "mapping",
        "key": "t_uint256",
        "label": "mapping(uint256 => struct DelphsTable.ItemPlay[])",
        "numberOfBytes": "32",
        "value": "t_array(t_struct(ItemPlay)5049_storage)dyn_storage"
      },
      "t_mapping(t_uint256,t_bytes32)": {
        "encoding": "mapping",
        "key": "t_uint256",
        "label": "mapping(uint256 => bytes32)",
        "numberOfBytes": "32",
        "value": "t_bytes32"
      },
      "t_mapping(t_uint256,t_uint256)": {
        "encoding": "mapping",
        "key": "t_uint256",
        "label": "mapping(uint256 => uint256)",
        "numberOfBytes": "32",
        "value": "t_uint256"
      },
      "t_struct(Destination)5042_storage": {
        "encoding": "inplace",
        "label": "struct DelphsTable.Destination",
        "members": [
          {
            "astId": 5037,
            "contract": "contracts/DelphsTable.sol:DelphsTable",
            "label": "player",
            "offset": 0,
            "slot": "0",
            "type": "t_address"
          },
          {
            "astId": 5039,
            "contract": "contracts/DelphsTable.sol:DelphsTable",
            "label": "x",
            "offset": 20,
            "slot": "0",
            "type": "t_int64"
          },
          {
            "astId": 5041,
            "contract": "contracts/DelphsTable.sol:DelphsTable",
            "label": "y",
            "offset": 0,
            "slot": "1",
            "type": "t_int64"
          }
        ],
        "numberOfBytes": "64"
      },
      "t_struct(ItemPlay)5049_storage": {
        "encoding": "inplace",
        "label": "struct DelphsTable.ItemPlay",
        "members": [
          {
            "astId": 5044,
            "contract": "contracts/DelphsTable.sol:DelphsTable",
            "label": "player",
            "offset": 0,
            "slot": "0",
            "type": "t_address"
          },
          {
            "astId": 5046,
            "contract": "contracts/DelphsTable.sol:DelphsTable",
            "label": "itemContract",
            "offset": 0,
            "slot": "1",
            "type": "t_address"
          },
          {
            "astId": 5048,
            "contract": "contracts/DelphsTable.sol:DelphsTable",
            "label": "id",
            "offset": 0,
            "slot": "2",
            "type": "t_uint256"
          }
        ],
        "numberOfBytes": "96"
      },
      "t_struct(RoleData)19_storage": {
        "encoding": "inplace",
        "label": "struct AccessControl.RoleData",
        "members": [
          {
            "astId": 16,
            "contract": "contracts/DelphsTable.sol:DelphsTable",
            "label": "members",
            "offset": 0,
            "slot": "0",
            "type": "t_mapping(t_address,t_bool)"
          },
          {
            "astId": 18,
            "contract": "contracts/DelphsTable.sol:DelphsTable",
            "label": "adminRole",
            "offset": 0,
            "slot": "1",
            "type": "t_bytes32"
          }
        ],
        "numberOfBytes": "64"
      },
      "t_struct(Table)5077_storage": {
        "encoding": "inplace",
        "label": "struct DelphsTable.Table",
        "members": [
          {
            "astId": 5051,
            "contract": "contracts/DelphsTable.sol:DelphsTable",
            "label": "id",
            "offset": 0,
            "slot": "0",
            "type": "t_bytes32"
          },
          {
            "astId": 5053,
            "contract": "contracts/DelphsTable.sol:DelphsTable",
            "label": "owner",
            "offset": 0,
            "slot": "1",
            "type": "t_address"
          },
          {
            "astId": 5055,
            "contract": "contracts/DelphsTable.sol:DelphsTable",
            "label": "startedAt",
            "offset": 0,
            "slot": "2",
            "type": "t_uint256"
          },
          {
            "astId": 5057,
            "contract": "contracts/DelphsTable.sol:DelphsTable",
            "label": "gameLength",
            "offset": 0,
            "slot": "3",
            "type": "t_uint256"
          },
          {
            "astId": 5059,
            "contract": "contracts/DelphsTable.sol:DelphsTable",
            "label": "tableSize",
            "offset": 0,
            "slot": "4",
            "type": "t_uint32"
          },
          {
            "astId": 5061,
            "contract": "contracts/DelphsTable.sol:DelphsTable",
            "label": "wootgumpMultiplier",
            "offset": 4,
            "slot": "4",
            "type": "t_uint32"
          },
          {
            "astId": 5064,
            "contract": "contracts/DelphsTable.sol:DelphsTable",
            "label": "players",
            "offset": 0,
            "slot": "5",
            "type": "t_array(t_address)dyn_storage"
          },
          {
            "astId": 5067,
            "contract": "contracts/DelphsTable.sol:DelphsTable",
            "label": "seeds",
            "offset": 0,
            "slot": "6",
            "type": "t_array(t_bytes32)dyn_storage"
          },
          {
            "astId": 5070,
            "contract": "contracts/DelphsTable.sol:DelphsTable",
            "label": "attributes",
            "offset": 0,
            "slot": "7",
            "type": "t_array(t_bytes32)dyn_storage"
          },
          {
            "astId": 5073,
            "contract": "contracts/DelphsTable.sol:DelphsTable",
            "label": "initialGump",
            "offset": 0,
            "slot": "8",
            "type": "t_array(t_uint256)dyn_storage"
          },
          {
            "astId": 5076,
            "contract": "contracts/DelphsTable.sol:DelphsTable",
            "label": "autoPlay",
            "offset": 0,
            "slot": "9",
            "type": "t_array(t_bool)dyn_storage"
          }
        ],
        "numberOfBytes": "320"
      },
      "t_uint256": {
        "encoding": "inplace",
        "label": "uint256",
        "numberOfBytes": "32"
      },
      "t_uint32": {
        "encoding": "inplace",
        "label": "uint32",
        "numberOfBytes": "4"
      }
    }
  }
}