{
  "address": "0x932FF5D7b4e3ACC8d91340Daa145E5AE89C10899",
  "abi": [
    {
      "inputs": [
        {
          "internalType": "address",
          "name": "trustedForwarder",
          "type": "address"
        },
        {
          "internalType": "address",
          "name": "initialOwner",
          "type": "address"
        }
      ],
      "stateMutability": "nonpayable",
      "type": "constructor"
    },
    {
      "anonymous": false,
      "inputs": [
        {
          "indexed": true,
          "internalType": "bytes32",
          "name": "matchId",
          "type": "bytes32"
        },
        {
          "indexed": true,
          "internalType": "string",
          "name": "winner",
          "type": "string"
        }
      ],
      "name": "MatchComplete",
      "type": "event"
    },
    {
      "anonymous": false,
      "inputs": [
        {
          "indexed": true,
          "internalType": "bytes32",
          "name": "role",
          "type": "bytes32"
        },
        {
          "indexed": true,
          "internalType": "bytes32",
          "name": "previousAdminRole",
          "type": "bytes32"
        },
        {
          "indexed": true,
          "internalType": "bytes32",
          "name": "newAdminRole",
          "type": "bytes32"
        }
      ],
      "name": "RoleAdminChanged",
      "type": "event"
    },
    {
      "anonymous": false,
      "inputs": [
        {
          "indexed": true,
          "internalType": "bytes32",
          "name": "role",
          "type": "bytes32"
        },
        {
          "indexed": true,
          "internalType": "address",
          "name": "account",
          "type": "address"
        },
        {
          "indexed": true,
          "internalType": "address",
          "name": "sender",
          "type": "address"
        }
      ],
      "name": "RoleGranted",
      "type": "event"
    },
    {
      "anonymous": false,
      "inputs": [
        {
          "indexed": true,
          "internalType": "bytes32",
          "name": "role",
          "type": "bytes32"
        },
        {
          "indexed": true,
          "internalType": "address",
          "name": "account",
          "type": "address"
        },
        {
          "indexed": true,
          "internalType": "address",
          "name": "sender",
          "type": "address"
        }
      ],
      "name": "RoleRevoked",
      "type": "event"
    },
    {
      "inputs": [],
      "name": "DEFAULT_ADMIN_ROLE",
      "outputs": [
        {
          "internalType": "bytes32",
          "name": "",
          "type": "bytes32"
        }
      ],
      "stateMutability": "view",
      "type": "function"
    },
    {
      "inputs": [],
      "name": "SENDER_ROLE",
      "outputs": [
        {
          "internalType": "bytes32",
          "name": "",
          "type": "bytes32"
        }
      ],
      "stateMutability": "view",
      "type": "function"
    },
    {
      "inputs": [
        {
          "internalType": "bytes32",
          "name": "role",
          "type": "bytes32"
        }
      ],
      "name": "getRoleAdmin",
      "outputs": [
        {
          "internalType": "bytes32",
          "name": "",
          "type": "bytes32"
        }
      ],
      "stateMutability": "view",
      "type": "function"
    },
    {
      "inputs": [
        {
          "internalType": "bytes32",
          "name": "role",
          "type": "bytes32"
        },
        {
          "internalType": "address",
          "name": "account",
          "type": "address"
        }
      ],
      "name": "grantRole",
      "outputs": [],
      "stateMutability": "nonpayable",
      "type": "function"
    },
    {
      "inputs": [
        {
          "internalType": "bytes32",
          "name": "role",
          "type": "bytes32"
        },
        {
          "internalType": "address",
          "name": "account",
          "type": "address"
        }
      ],
      "name": "hasRole",
      "outputs": [
        {
          "internalType": "bool",
          "name": "",
          "type": "bool"
        }
      ],
      "stateMutability": "view",
      "type": "function"
    },
    {
      "inputs": [
        {
          "internalType": "address",
          "name": "forwarder",
          "type": "address"
        }
      ],
      "name": "isTrustedForwarder",
      "outputs": [
        {
          "internalType": "bool",
          "name": "",
          "type": "bool"
        }
      ],
      "stateMutability": "view",
      "type": "function"
    },
    {
      "inputs": [
        {
          "internalType": "bytes32",
          "name": "matchId",
          "type": "bytes32"
        },
        {
          "internalType": "string",
          "name": "winner",
          "type": "string"
        }
      ],
      "name": "registerResults",
      "outputs": [],
      "stateMutability": "nonpayable",
      "type": "function"
    },
    {
      "inputs": [
        {
          "internalType": "bytes32",
          "name": "role",
          "type": "bytes32"
        },
        {
          "internalType": "address",
          "name": "account",
          "type": "address"
        }
      ],
      "name": "renounceRole",
      "outputs": [],
      "stateMutability": "nonpayable",
      "type": "function"
    },
    {
      "inputs": [
        {
          "internalType": "bytes32",
          "name": "role",
          "type": "bytes32"
        },
        {
          "internalType": "address",
          "name": "account",
          "type": "address"
        }
      ],
      "name": "revokeRole",
      "outputs": [],
      "stateMutability": "nonpayable",
      "type": "function"
    },
    {
      "inputs": [
        {
          "internalType": "bytes4",
          "name": "interfaceId",
          "type": "bytes4"
        }
      ],
      "name": "supportsInterface",
      "outputs": [
        {
          "internalType": "bool",
          "name": "",
          "type": "bool"
        }
      ],
      "stateMutability": "view",
      "type": "function"
    },
    {
      "inputs": [
        {
          "internalType": "bytes32",
          "name": "",
          "type": "bytes32"
        }
      ],
      "name": "winners",
      "outputs": [
        {
          "internalType": "string",
          "name": "",
          "type": "string"
        }
      ],
      "stateMutability": "view",
      "type": "function"
    }
  ],
  "transactionHash": "0x5be6d27103502e7b67d38a5619f912af7dc0a44c03605baaa1c3dff4c359d470",
  "args": [
    "0xe00e66A2713E924b9CC56319752021747dDDEaA3",
    "0x6DE3D3747D54d0Adc11e5Cf678D4045B0441D332"
  ],
  "numDeployments": 2,
  "solcInputHash": "a7dca11e9c03f9f53532735cd599c33c",
  "bytecode": "0x60a06040523480156200001157600080fd5b5060405162000dd938038062000dd983398101604081905262000034916200019a565b6001600160a01b0382166080526200004e60008262000082565b6200007a7f76d12de99ad2ca162840505be9b657c2e7a650cc3ee0284048f3f9def3c1adf28262000082565b5050620001d2565b6000828152602081815260408083206001600160a01b038516845290915290205460ff1662000121576000828152602081815260408083206001600160a01b03851684529091529020805460ff19166001179055620000e062000125565b6001600160a01b0316816001600160a01b0316837f2f8788117e7eff1d82e926ec794901d17c78024a50270940304540a733656f0d60405160405180910390a45b5050565b60006200013c6200014160201b620004c71760201c565b905090565b6080516000906001600160a01b0316330362000164575060131936013560601c90565b6200013c6200017960201b620005101760201c565b3390565b80516001600160a01b03811681146200019557600080fd5b919050565b60008060408385031215620001ae57600080fd5b620001b9836200017d565b9150620001c9602084016200017d565b90509250929050565b608051610be4620001f56000396000818161015f01526104cb0152610be46000f3fe608060405234801561001057600080fd5b50600436106100a95760003560e01c8063572b6c0511610071578063572b6c051461014f57806391d148541461018f578063a217fddf146101a2578063c42ef38c146101aa578063d547741f146101d1578063ef06f64c146101e457600080fd5b806301ffc9a7146100ae578063248a9ca3146100d65780632f2ff15d1461010757806336568abe1461011c5780634277f4fd1461012f575b600080fd5b6100c16100bc3660046108da565b6101f7565b60405190151581526020015b60405180910390f35b6100f96100e4366004610904565b60009081526020819052604090206001015490565b6040519081526020016100cd565b61011a610115366004610939565b61022e565b005b61011a61012a366004610939565b610258565b61014261013d366004610904565b6102eb565b6040516100cd9190610995565b6100c161015d3660046109c8565b7f00000000000000000000000000000000000000000000000000000000000000006001600160a01b0390811691161490565b6100c161019d366004610939565b610385565b6100f9600081565b6100f97f76d12de99ad2ca162840505be9b657c2e7a650cc3ee0284048f3f9def3c1adf281565b61011a6101df366004610939565b6103ae565b61011a6101f23660046109e3565b6103d3565b60006001600160e01b03198216637965db0b60e01b148061022857506301ffc9a760e01b6001600160e01b03198316145b92915050565b60008281526020819052604090206001015461024981610514565b6102538383610528565b505050565b6102606105ad565b6001600160a01b0316816001600160a01b0316146102dd5760405162461bcd60e51b815260206004820152602f60248201527f416363657373436f6e74726f6c3a2063616e206f6e6c792072656e6f756e636560448201526e103937b632b9903337b91039b2b63360891b60648201526084015b60405180910390fd5b6102e782826105b7565b5050565b6001602052600090815260409020805461030490610a5f565b80601f016020809104026020016040519081016040528092919081815260200182805461033090610a5f565b801561037d5780601f106103525761010080835404028352916020019161037d565b820191906000526020600020905b81548152906001019060200180831161036057829003601f168201915b505050505081565b6000918252602082815260408084206001600160a01b0393909316845291905290205460ff1690565b6000828152602081905260409020600101546103c981610514565b61025383836105b7565b7f76d12de99ad2ca162840505be9b657c2e7a650cc3ee0284048f3f9def3c1adf26103fd81610514565b6000848152600160205260409020805461041690610a5f565b1590506104655760405162461bcd60e51b815260206004820152601860248201527f6d61746368496420616c72656164792061737369676e6564000000000000000060448201526064016102d4565b600084815260016020526040902061047e908484610841565b50828260405161048f929190610a99565b6040519081900381209085907fb6c68a3daeb9f1c754239ddc8b59e8432cac177470d0f176fd2e200fea0decf890600090a350505050565b60007f00000000000000000000000000000000000000000000000000000000000000006001600160a01b03163303610506575060131936013560601c90565b503390565b905090565b3390565b610525816105206105ad565b61063a565b50565b6105328282610385565b6102e7576000828152602081815260408083206001600160a01b03851684529091529020805460ff191660011790556105696105ad565b6001600160a01b0316816001600160a01b0316837f2f8788117e7eff1d82e926ec794901d17c78024a50270940304540a733656f0d60405160405180910390a45050565b600061050b6104c7565b6105c18282610385565b156102e7576000828152602081815260408083206001600160a01b03851684529091529020805460ff191690556105f66105ad565b6001600160a01b0316816001600160a01b0316837ff6391f5c32d9c69d2a47ea670b442974b53935d1edc7fd64eb21e047a839171b60405160405180910390a45050565b6106448282610385565b6102e75761065c816001600160a01b0316601461069e565b61066783602061069e565b604051602001610678929190610aa9565b60408051601f198184030181529082905262461bcd60e51b82526102d491600401610995565b606060006106ad836002610b34565b6106b8906002610b53565b67ffffffffffffffff8111156106d0576106d0610b6b565b6040519080825280601f01601f1916602001820160405280156106fa576020820181803683370190505b509050600360fc1b8160008151811061071557610715610b81565b60200101906001600160f81b031916908160001a905350600f60fb1b8160018151811061074457610744610b81565b60200101906001600160f81b031916908160001a9053506000610768846002610b34565b610773906001610b53565b90505b60018111156107eb576f181899199a1a9b1b9c1cb0b131b232b360811b85600f16601081106107a7576107a7610b81565b1a60f81b8282815181106107bd576107bd610b81565b60200101906001600160f81b031916908160001a90535060049490941c936107e481610b97565b9050610776565b50831561083a5760405162461bcd60e51b815260206004820181905260248201527f537472696e67733a20686578206c656e67746820696e73756666696369656e7460448201526064016102d4565b9392505050565b82805461084d90610a5f565b90600052602060002090601f01602090048101928261086f57600085556108b5565b82601f106108885782800160ff198235161785556108b5565b828001600101855582156108b5579182015b828111156108b557823582559160200191906001019061089a565b506108c19291506108c5565b5090565b5b808211156108c157600081556001016108c6565b6000602082840312156108ec57600080fd5b81356001600160e01b03198116811461083a57600080fd5b60006020828403121561091657600080fd5b5035919050565b80356001600160a01b038116811461093457600080fd5b919050565b6000806040838503121561094c57600080fd5b8235915061095c6020840161091d565b90509250929050565b60005b83811015610980578181015183820152602001610968565b8381111561098f576000848401525b50505050565b60208152600082518060208401526109b4816040850160208701610965565b601f01601f19169190910160400192915050565b6000602082840312156109da57600080fd5b61083a8261091d565b6000806000604084860312156109f857600080fd5b83359250602084013567ffffffffffffffff80821115610a1757600080fd5b818601915086601f830112610a2b57600080fd5b813581811115610a3a57600080fd5b876020828501011115610a4c57600080fd5b6020830194508093505050509250925092565b600181811c90821680610a7357607f821691505b602082108103610a9357634e487b7160e01b600052602260045260246000fd5b50919050565b8183823760009101908152919050565b7f416363657373436f6e74726f6c3a206163636f756e7420000000000000000000815260008351610ae1816017850160208801610965565b7001034b99036b4b9b9b4b733903937b6329607d1b6017918401918201528351610b12816028840160208801610965565b01602801949350505050565b634e487b7160e01b600052601160045260246000fd5b6000816000190483118215151615610b4e57610b4e610b1e565b500290565b60008219821115610b6657610b66610b1e565b500190565b634e487b7160e01b600052604160045260246000fd5b634e487b7160e01b600052603260045260246000fd5b600081610ba657610ba6610b1e565b50600019019056fea2646970667358221220512f531fb430b7d26f7b47cb4602734a62bfe201b538e82e81ed19abf8b4c32564736f6c634300080e0033",
  "devdoc": {
    "kind": "dev",
    "methods": {
      "getRoleAdmin(bytes32)": {
        "details": "Returns the admin role that controls `role`. See {grantRole} and {revokeRole}. To change a role's admin, use {_setRoleAdmin}."
      },
      "grantRole(bytes32,address)": {
        "details": "Grants `role` to `account`. If `account` had not been already granted `role`, emits a {RoleGranted} event. Requirements: - the caller must have ``role``'s admin role."
      },
      "hasRole(bytes32,address)": {
        "details": "Returns `true` if `account` has been granted `role`."
      },
      "renounceRole(bytes32,address)": {
        "details": "Revokes `role` from the calling account. Roles are often managed via {grantRole} and {revokeRole}: this function's purpose is to provide a mechanism for accounts to lose their privileges if they are compromised (such as when a trusted device is misplaced). If the calling account had been revoked `role`, emits a {RoleRevoked} event. Requirements: - the caller must be `account`."
      },
      "revokeRole(bytes32,address)": {
        "details": "Revokes `role` from `account`. If `account` had been granted `role`, emits a {RoleRevoked} event. Requirements: - the caller must have ``role``'s admin role."
      },
      "supportsInterface(bytes4)": {
        "details": "See {IERC165-supportsInterface}."
      }
    },
    "version": 1
  },
  "userdoc": {
    "kind": "user",
    "methods": {},
    "version": 1
  },
  "storageLayout": {
    "storage": [
      {
        "astId": 24,
        "contract": "contracts/MatchResults.sol:MatchResults",
        "label": "_roles",
        "offset": 0,
        "slot": "0",
        "type": "t_mapping(t_bytes32,t_struct(RoleData)19_storage)"
      },
      {
        "astId": 6127,
        "contract": "contracts/MatchResults.sol:MatchResults",
        "label": "winners",
        "offset": 0,
        "slot": "1",
        "type": "t_mapping(t_bytes32,t_string_storage)"
      }
    ],
    "types": {
      "t_address": {
        "encoding": "inplace",
        "label": "address",
        "numberOfBytes": "20"
      },
      "t_bool": {
        "encoding": "inplace",
        "label": "bool",
        "numberOfBytes": "1"
      },
      "t_bytes32": {
        "encoding": "inplace",
        "label": "bytes32",
        "numberOfBytes": "32"
      },
      "t_mapping(t_address,t_bool)": {
        "encoding": "mapping",
        "key": "t_address",
        "label": "mapping(address => bool)",
        "numberOfBytes": "32",
        "value": "t_bool"
      },
      "t_mapping(t_bytes32,t_string_storage)": {
        "encoding": "mapping",
        "key": "t_bytes32",
        "label": "mapping(bytes32 => string)",
        "numberOfBytes": "32",
        "value": "t_string_storage"
      },
      "t_mapping(t_bytes32,t_struct(RoleData)19_storage)": {
        "encoding": "mapping",
        "key": "t_bytes32",
        "label": "mapping(bytes32 => struct AccessControl.RoleData)",
        "numberOfBytes": "32",
        "value": "t_struct(RoleData)19_storage"
      },
      "t_string_storage": {
        "encoding": "bytes",
        "label": "string",
        "numberOfBytes": "32"
      },
      "t_struct(RoleData)19_storage": {
        "encoding": "inplace",
        "label": "struct AccessControl.RoleData",
        "members": [
          {
            "astId": 16,
            "contract": "contracts/MatchResults.sol:MatchResults",
            "label": "members",
            "offset": 0,
            "slot": "0",
            "type": "t_mapping(t_address,t_bool)"
          },
          {
            "astId": 18,
            "contract": "contracts/MatchResults.sol:MatchResults",
            "label": "adminRole",
            "offset": 0,
            "slot": "1",
            "type": "t_bytes32"
          }
        ],
        "numberOfBytes": "64"
      }
    }
  }
}