{
  "address": "0x381A31E41fd0209b1aECBf7abCC404Dbf87dD9dd",
  "abi": [
    {
      "inputs": [
        {
          "internalType": "address",
          "name": "trustedForwarder",
          "type": "address"
        },
        {
          "internalType": "address",
          "name": "initialOwner",
          "type": "address"
        }
      ],
      "stateMutability": "nonpayable",
      "type": "constructor"
    },
    {
      "anonymous": false,
      "inputs": [
        {
          "indexed": true,
          "internalType": "address",
          "name": "owner",
          "type": "address"
        },
        {
          "indexed": true,
          "internalType": "address",
          "name": "spender",
          "type": "address"
        },
        {
          "indexed": false,
          "internalType": "uint256",
          "name": "value",
          "type": "uint256"
        }
      ],
      "name": "Approval",
      "type": "event"
    },
    {
      "anonymous": false,
      "inputs": [
        {
          "indexed": true,
          "internalType": "address",
          "name": "delegator",
          "type": "address"
        },
        {
          "indexed": true,
          "internalType": "address",
          "name": "fromDelegate",
          "type": "address"
        },
        {
          "indexed": true,
          "internalType": "address",
          "name": "toDelegate",
          "type": "address"
        }
      ],
      "name": "DelegateChanged",
      "type": "event"
    },
    {
      "anonymous": false,
      "inputs": [
        {
          "indexed": true,
          "internalType": "address",
          "name": "delegate",
          "type": "address"
        },
        {
          "indexed": false,
          "internalType": "uint256",
          "name": "previousBalance",
          "type": "uint256"
        },
        {
          "indexed": false,
          "internalType": "uint256",
          "name": "newBalance",
          "type": "uint256"
        }
      ],
      "name": "DelegateVotesChanged",
      "type": "event"
    },
    {
      "anonymous": false,
      "inputs": [
        {
          "indexed": false,
          "internalType": "address",
          "name": "account",
          "type": "address"
        }
      ],
      "name": "Paused",
      "type": "event"
    },
    {
      "anonymous": false,
      "inputs": [
        {
          "indexed": true,
          "internalType": "bytes32",
          "name": "role",
          "type": "bytes32"
        },
        {
          "indexed": true,
          "internalType": "bytes32",
          "name": "previousAdminRole",
          "type": "bytes32"
        },
        {
          "indexed": true,
          "internalType": "bytes32",
          "name": "newAdminRole",
          "type": "bytes32"
        }
      ],
      "name": "RoleAdminChanged",
      "type": "event"
    },
    {
      "anonymous": false,
      "inputs": [
        {
          "indexed": true,
          "internalType": "bytes32",
          "name": "role",
          "type": "bytes32"
        },
        {
          "indexed": true,
          "internalType": "address",
          "name": "account",
          "type": "address"
        },
        {
          "indexed": true,
          "internalType": "address",
          "name": "sender",
          "type": "address"
        }
      ],
      "name": "RoleGranted",
      "type": "event"
    },
    {
      "anonymous": false,
      "inputs": [
        {
          "indexed": true,
          "internalType": "bytes32",
          "name": "role",
          "type": "bytes32"
        },
        {
          "indexed": true,
          "internalType": "address",
          "name": "account",
          "type": "address"
        },
        {
          "indexed": true,
          "internalType": "address",
          "name": "sender",
          "type": "address"
        }
      ],
      "name": "RoleRevoked",
      "type": "event"
    },
    {
      "anonymous": false,
      "inputs": [
        {
          "indexed": true,
          "internalType": "address",
          "name": "from",
          "type": "address"
        },
        {
          "indexed": true,
          "internalType": "address",
          "name": "to",
          "type": "address"
        },
        {
          "indexed": false,
          "internalType": "uint256",
          "name": "value",
          "type": "uint256"
        }
      ],
      "name": "Transfer",
      "type": "event"
    },
    {
      "anonymous": false,
      "inputs": [
        {
          "indexed": false,
          "internalType": "address",
          "name": "account",
          "type": "address"
        }
      ],
      "name": "Unpaused",
      "type": "event"
    },
    {
      "inputs": [],
      "name": "DEFAULT_ADMIN_ROLE",
      "outputs": [
        {
          "internalType": "bytes32",
          "name": "",
          "type": "bytes32"
        }
      ],
      "stateMutability": "view",
      "type": "function"
    },
    {
      "inputs": [],
      "name": "DOMAIN_SEPARATOR",
      "outputs": [
        {
          "internalType": "bytes32",
          "name": "",
          "type": "bytes32"
        }
      ],
      "stateMutability": "view",
      "type": "function"
    },
    {
      "inputs": [],
      "name": "MINTER_ROLE",
      "outputs": [
        {
          "internalType": "bytes32",
          "name": "",
          "type": "bytes32"
        }
      ],
      "stateMutability": "view",
      "type": "function"
    },
    {
      "inputs": [],
      "name": "PAUSER_ROLE",
      "outputs": [
        {
          "internalType": "bytes32",
          "name": "",
          "type": "bytes32"
        }
      ],
      "stateMutability": "view",
      "type": "function"
    },
    {
      "inputs": [
        {
          "internalType": "address",
          "name": "owner",
          "type": "address"
        },
        {
          "internalType": "address",
          "name": "spender",
          "type": "address"
        }
      ],
      "name": "allowance",
      "outputs": [
        {
          "internalType": "uint256",
          "name": "",
          "type": "uint256"
        }
      ],
      "stateMutability": "view",
      "type": "function"
    },
    {
      "inputs": [
        {
          "internalType": "address",
          "name": "spender",
          "type": "address"
        },
        {
          "internalType": "uint256",
          "name": "amount",
          "type": "uint256"
        }
      ],
      "name": "approve",
      "outputs": [
        {
          "internalType": "bool",
          "name": "",
          "type": "bool"
        }
      ],
      "stateMutability": "nonpayable",
      "type": "function"
    },
    {
      "inputs": [
        {
          "internalType": "address",
          "name": "account",
          "type": "address"
        }
      ],
      "name": "balanceOf",
      "outputs": [
        {
          "internalType": "uint256",
          "name": "",
          "type": "uint256"
        }
      ],
      "stateMutability": "view",
      "type": "function"
    },
    {
      "inputs": [
        {
          "components": [
            {
              "internalType": "address",
              "name": "to",
              "type": "address"
            },
            {
              "internalType": "uint256",
              "name": "amount",
              "type": "uint256"
            }
          ],
          "internalType": "struct Wootgump.BulkMint[]",
          "name": "mintInfo",
          "type": "tuple[]"
        }
      ],
      "name": "bulkMint",
      "outputs": [
        {
          "internalType": "bool",
          "name": "",
          "type": "bool"
        }
      ],
      "stateMutability": "nonpayable",
      "type": "function"
    },
    {
      "inputs": [
        {
          "internalType": "uint256",
          "name": "amount",
          "type": "uint256"
        }
      ],
      "name": "burn",
      "outputs": [],
      "stateMutability": "nonpayable",
      "type": "function"
    },
    {
      "inputs": [
        {
          "internalType": "address",
          "name": "account",
          "type": "address"
        },
        {
          "internalType": "uint256",
          "name": "amount",
          "type": "uint256"
        }
      ],
      "name": "burnFrom",
      "outputs": [],
      "stateMutability": "nonpayable",
      "type": "function"
    },
    {
      "inputs": [
        {
          "internalType": "address",
          "name": "account",
          "type": "address"
        },
        {
          "internalType": "uint32",
          "name": "pos",
          "type": "uint32"
        }
      ],
      "name": "checkpoints",
      "outputs": [
        {
          "components": [
            {
              "internalType": "uint32",
              "name": "fromBlock",
              "type": "uint32"
            },
            {
              "internalType": "uint224",
              "name": "votes",
              "type": "uint224"
            }
          ],
          "internalType": "struct ERC20Votes.Checkpoint",
          "name": "",
          "type": "tuple"
        }
      ],
      "stateMutability": "view",
      "type": "function"
    },
    {
      "inputs": [],
      "name": "decimals",
      "outputs": [
        {
          "internalType": "uint8",
          "name": "",
          "type": "uint8"
        }
      ],
      "stateMutability": "view",
      "type": "function"
    },
    {
      "inputs": [
        {
          "internalType": "address",
          "name": "spender",
          "type": "address"
        },
        {
          "internalType": "uint256",
          "name": "subtractedValue",
          "type": "uint256"
        }
      ],
      "name": "decreaseAllowance",
      "outputs": [
        {
          "internalType": "bool",
          "name": "",
          "type": "bool"
        }
      ],
      "stateMutability": "nonpayable",
      "type": "function"
    },
    {
      "inputs": [
        {
          "internalType": "address",
          "name": "delegatee",
          "type": "address"
        }
      ],
      "name": "delegate",
      "outputs": [],
      "stateMutability": "nonpayable",
      "type": "function"
    },
    {
      "inputs": [
        {
          "internalType": "address",
          "name": "delegatee",
          "type": "address"
        },
        {
          "internalType": "uint256",
          "name": "nonce",
          "type": "uint256"
        },
        {
          "internalType": "uint256",
          "name": "expiry",
          "type": "uint256"
        },
        {
          "internalType": "uint8",
          "name": "v",
          "type": "uint8"
        },
        {
          "internalType": "bytes32",
          "name": "r",
          "type": "bytes32"
        },
        {
          "internalType": "bytes32",
          "name": "s",
          "type": "bytes32"
        }
      ],
      "name": "delegateBySig",
      "outputs": [],
      "stateMutability": "nonpayable",
      "type": "function"
    },
    {
      "inputs": [
        {
          "internalType": "address",
          "name": "account",
          "type": "address"
        }
      ],
      "name": "delegates",
      "outputs": [
        {
          "internalType": "address",
          "name": "",
          "type": "address"
        }
      ],
      "stateMutability": "view",
      "type": "function"
    },
    {
      "inputs": [
        {
          "internalType": "uint256",
          "name": "blockNumber",
          "type": "uint256"
        }
      ],
      "name": "getPastTotalSupply",
      "outputs": [
        {
          "internalType": "uint256",
          "name": "",
          "type": "uint256"
        }
      ],
      "stateMutability": "view",
      "type": "function"
    },
    {
      "inputs": [
        {
          "internalType": "address",
          "name": "account",
          "type": "address"
        },
        {
          "internalType": "uint256",
          "name": "blockNumber",
          "type": "uint256"
        }
      ],
      "name": "getPastVotes",
      "outputs": [
        {
          "internalType": "uint256",
          "name": "",
          "type": "uint256"
        }
      ],
      "stateMutability": "view",
      "type": "function"
    },
    {
      "inputs": [
        {
          "internalType": "bytes32",
          "name": "role",
          "type": "bytes32"
        }
      ],
      "name": "getRoleAdmin",
      "outputs": [
        {
          "internalType": "bytes32",
          "name": "",
          "type": "bytes32"
        }
      ],
      "stateMutability": "view",
      "type": "function"
    },
    {
      "inputs": [
        {
          "internalType": "address",
          "name": "account",
          "type": "address"
        }
      ],
      "name": "getVotes",
      "outputs": [
        {
          "internalType": "uint256",
          "name": "",
          "type": "uint256"
        }
      ],
      "stateMutability": "view",
      "type": "function"
    },
    {
      "inputs": [
        {
          "internalType": "bytes32",
          "name": "role",
          "type": "bytes32"
        },
        {
          "internalType": "address",
          "name": "account",
          "type": "address"
        }
      ],
      "name": "grantRole",
      "outputs": [],
      "stateMutability": "nonpayable",
      "type": "function"
    },
    {
      "inputs": [
        {
          "internalType": "bytes32",
          "name": "role",
          "type": "bytes32"
        },
        {
          "internalType": "address",
          "name": "account",
          "type": "address"
        }
      ],
      "name": "hasRole",
      "outputs": [
        {
          "internalType": "bool",
          "name": "",
          "type": "bool"
        }
      ],
      "stateMutability": "view",
      "type": "function"
    },
    {
      "inputs": [
        {
          "internalType": "address",
          "name": "spender",
          "type": "address"
        },
        {
          "internalType": "uint256",
          "name": "addedValue",
          "type": "uint256"
        }
      ],
      "name": "increaseAllowance",
      "outputs": [
        {
          "internalType": "bool",
          "name": "",
          "type": "bool"
        }
      ],
      "stateMutability": "nonpayable",
      "type": "function"
    },
    {
      "inputs": [
        {
          "internalType": "address",
          "name": "forwarder",
          "type": "address"
        }
      ],
      "name": "isTrustedForwarder",
      "outputs": [
        {
          "internalType": "bool",
          "name": "",
          "type": "bool"
        }
      ],
      "stateMutability": "view",
      "type": "function"
    },
    {
      "inputs": [
        {
          "internalType": "address",
          "name": "to",
          "type": "address"
        },
        {
          "internalType": "uint256",
          "name": "amount",
          "type": "uint256"
        }
      ],
      "name": "mint",
      "outputs": [],
      "stateMutability": "nonpayable",
      "type": "function"
    },
    {
      "inputs": [],
      "name": "name",
      "outputs": [
        {
          "internalType": "string",
          "name": "",
          "type": "string"
        }
      ],
      "stateMutability": "view",
      "type": "function"
    },
    {
      "inputs": [
        {
          "internalType": "address",
          "name": "owner",
          "type": "address"
        }
      ],
      "name": "nonces",
      "outputs": [
        {
          "internalType": "uint256",
          "name": "",
          "type": "uint256"
        }
      ],
      "stateMutability": "view",
      "type": "function"
    },
    {
      "inputs": [
        {
          "internalType": "address",
          "name": "account",
          "type": "address"
        }
      ],
      "name": "numCheckpoints",
      "outputs": [
        {
          "internalType": "uint32",
          "name": "",
          "type": "uint32"
        }
      ],
      "stateMutability": "view",
      "type": "function"
    },
    {
      "inputs": [],
      "name": "pause",
      "outputs": [],
      "stateMutability": "nonpayable",
      "type": "function"
    },
    {
      "inputs": [],
      "name": "paused",
      "outputs": [
        {
          "internalType": "bool",
          "name": "",
          "type": "bool"
        }
      ],
      "stateMutability": "view",
      "type": "function"
    },
    {
      "inputs": [
        {
          "internalType": "address",
          "name": "owner",
          "type": "address"
        },
        {
          "internalType": "address",
          "name": "spender",
          "type": "address"
        },
        {
          "internalType": "uint256",
          "name": "value",
          "type": "uint256"
        },
        {
          "internalType": "uint256",
          "name": "deadline",
          "type": "uint256"
        },
        {
          "internalType": "uint8",
          "name": "v",
          "type": "uint8"
        },
        {
          "internalType": "bytes32",
          "name": "r",
          "type": "bytes32"
        },
        {
          "internalType": "bytes32",
          "name": "s",
          "type": "bytes32"
        }
      ],
      "name": "permit",
      "outputs": [],
      "stateMutability": "nonpayable",
      "type": "function"
    },
    {
      "inputs": [
        {
          "internalType": "bytes32",
          "name": "role",
          "type": "bytes32"
        },
        {
          "internalType": "address",
          "name": "account",
          "type": "address"
        }
      ],
      "name": "renounceRole",
      "outputs": [],
      "stateMutability": "nonpayable",
      "type": "function"
    },
    {
      "inputs": [
        {
          "internalType": "bytes32",
          "name": "role",
          "type": "bytes32"
        },
        {
          "internalType": "address",
          "name": "account",
          "type": "address"
        }
      ],
      "name": "revokeRole",
      "outputs": [],
      "stateMutability": "nonpayable",
      "type": "function"
    },
    {
      "inputs": [
        {
          "internalType": "bytes4",
          "name": "interfaceId",
          "type": "bytes4"
        }
      ],
      "name": "supportsInterface",
      "outputs": [
        {
          "internalType": "bool",
          "name": "",
          "type": "bool"
        }
      ],
      "stateMutability": "view",
      "type": "function"
    },
    {
      "inputs": [],
      "name": "symbol",
      "outputs": [
        {
          "internalType": "string",
          "name": "",
          "type": "string"
        }
      ],
      "stateMutability": "view",
      "type": "function"
    },
    {
      "inputs": [],
      "name": "totalSupply",
      "outputs": [
        {
          "internalType": "uint256",
          "name": "",
          "type": "uint256"
        }
      ],
      "stateMutability": "view",
      "type": "function"
    },
    {
      "inputs": [
        {
          "internalType": "address",
          "name": "to",
          "type": "address"
        },
        {
          "internalType": "uint256",
          "name": "amount",
          "type": "uint256"
        }
      ],
      "name": "transfer",
      "outputs": [
        {
          "internalType": "bool",
          "name": "",
          "type": "bool"
        }
      ],
      "stateMutability": "nonpayable",
      "type": "function"
    },
    {
      "inputs": [
        {
          "internalType": "address",
          "name": "from",
          "type": "address"
        },
        {
          "internalType": "address",
          "name": "to",
          "type": "address"
        },
        {
          "internalType": "uint256",
          "name": "amount",
          "type": "uint256"
        }
      ],
      "name": "transferFrom",
      "outputs": [
        {
          "internalType": "bool",
          "name": "",
          "type": "bool"
        }
      ],
      "stateMutability": "nonpayable",
      "type": "function"
    },
    {
      "inputs": [],
      "name": "unpause",
      "outputs": [],
      "stateMutability": "nonpayable",
      "type": "function"
    }
  ],
  "transactionHash": "0xbd4b5525bf023bfa51227cd6609bba2d3adbad0180db7f6657ecb646cd506159",
  "args": [
    "0x74A031acC7DaF48a2Dc84c37Af5fdD7f94541469",
    "0xBFef9277d497B67d3D730E59F85020d8B064Af88"
  ],
  "numDeployments": 2,
  "solcInputHash": "e00a63506a73c2def3373ec447b50ff2",
  "bytecode": "0x6101606040523480156200001257600080fd5b5060405162002dbf38038062002dbf8339810160408190526200003591620003b8565b81604051806040016040528060088152602001670576f6f7467756d760c41b81525080604051806040016040528060018152602001603160f81b815250604051806040016040528060088152602001670576f6f7467756d760c41b81525060405180604001604052806004815260200163047554d560e41b8152508160039080519060200190620000c8929190620002f5565b508051620000de906004906020840190620002f5565b50506005805460ff1916905550815160209283012081519183019190912060e08290526101008190524660a0818152604080517f8b73c3c69bb8fe3d512ecc4cf759cc79239f7b179b0ffacaa9a75d522b39400f818801819052818301969096526060810194909452608080850193909352308483018190528151808603909301835260c09485019091528151919095012090529190915261012052506001600160a01b03166101405262000195600082620001f5565b620001c17f65d7a28e3265b37a6474929f336521b332c1681b933f6cb9f3376673440d862a82620001f5565b620001ed7f9f2df0fed2c77648de5860a4cc508cd0818c85b8b8a1ab4ceeef8d981c8956a682620001f5565b50506200042c565b60008281526006602090815260408083206001600160a01b038516845290915290205460ff16620002985760008281526006602090815260408083206001600160a01b03851684529091529020805460ff19166001179055620002576200029c565b6001600160a01b0316816001600160a01b0316837f2f8788117e7eff1d82e926ec794901d17c78024a50270940304540a733656f0d60405160405180910390a45b5050565b6000620002b3620002b860201b62000f561760201c565b905090565b610140516000906001600160a01b03163303620002dc575060131936013560601c90565b620002b3620002f160201b62000f9a1760201c565b3390565b8280546200030390620003f0565b90600052602060002090601f01602090048101928262000327576000855562000372565b82601f106200034257805160ff191683800117855562000372565b8280016001018555821562000372579182015b828111156200037257825182559160200191906001019062000355565b506200038092915062000384565b5090565b5b8082111562000380576000815560010162000385565b80516001600160a01b0381168114620003b357600080fd5b919050565b60008060408385031215620003cc57600080fd5b620003d7836200039b565b9150620003e7602084016200039b565b90509250929050565b600181811c908216806200040557607f821691505b6020821081036200042657634e487b7160e01b600052602260045260246000fd5b50919050565b60805160a05160c05160e0516101005161012051610140516129316200048e600039600081816103900152610f5a01526000611451015260006114a00152600061147b015260006113d4015260006113fe0152600061142801526129316000f3fe608060405234801561001057600080fd5b506004361061023d5760003560e01c80635c975abb1161013b578063a217fddf116100b8578063d53913931161007c578063d539139314610536578063d547741f1461055d578063dd62ed3e14610570578063e63ab1e914610583578063f1127ed8146105aa57600080fd5b8063a217fddf146104e2578063a457c2d7146104ea578063a9059cbb146104fd578063c3cda52014610510578063d505accf1461052357600080fd5b80638456cb59116100ff5780638456cb59146104995780638e539e8c146104a157806391d14854146104b457806395d89b41146104c75780639ab24eb0146104cf57600080fd5b80635c975abb146104175780636fcfff451461042257806370a082311461044a57806379cc6790146104735780637ecebe001461048657600080fd5b80633644e515116101c957806340c10f191161018d57806340c10f191461035a57806342966c681461036d578063572b6c0514610380578063587cde1e146103c05780635c19a95c1461040457600080fd5b80633644e5151461031157806336568abe14610319578063395093511461032c5780633a46b1a81461033f5780633f4ba83a1461035257600080fd5b806323b872dd1161021057806323b872dd146102a4578063248a9ca3146102b75780632f2ff15d146102da578063313ce567146102ef57806333d98fd9146102fe57600080fd5b806301ffc9a71461024257806306fdde031461026a578063095ea7b31461027f57806318160ddd14610292575b600080fd5b61025561025036600461243d565b6105e7565b60405190151581526020015b60405180910390f35b61027261061e565b6040516102619190612493565b61025561028d3660046124e2565b6106b0565b6002545b604051908152602001610261565b6102556102b236600461250c565b6106d2565b6102966102c5366004612548565b60009081526006602052604090206001015490565b6102ed6102e8366004612561565b610700565b005b60405160128152602001610261565b61025561030c36600461258d565b61072a565b6102966107cc565b6102ed610327366004612561565b6107db565b61025561033a3660046124e2565b61086e565b61029661034d3660046124e2565b61089a565b6102ed610914565b6102ed6103683660046124e2565b610949565b6102ed61037b366004612548565b61097d565b61025561038e366004612602565b7f00000000000000000000000000000000000000000000000000000000000000006001600160a01b0390811691161490565b6103ec6103ce366004612602565b6001600160a01b039081166000908152600960205260409020541690565b6040516001600160a01b039091168152602001610261565b6102ed610412366004612602565b61098e565b60055460ff16610255565b610435610430366004612602565b61099f565b60405163ffffffff9091168152602001610261565b610296610458366004612602565b6001600160a01b031660009081526020819052604090205490565b6102ed6104813660046124e2565b6109c1565b610296610494366004612602565b6109dd565b6102ed6109fb565b6102966104af366004612548565b610a2d565b6102556104c2366004612561565b610a89565b610272610ab4565b6102966104dd366004612602565b610ac3565b610296600081565b6102556104f83660046124e2565b610b4a565b61025561050b3660046124e2565b610bd0565b6102ed61051e36600461262e565b610be8565b6102ed610531366004612686565b610d1e565b6102967f9f2df0fed2c77648de5860a4cc508cd0818c85b8b8a1ab4ceeef8d981c8956a681565b6102ed61056b366004612561565b610e82565b61029661057e3660046126f0565b610ea7565b6102967f65d7a28e3265b37a6474929f336521b332c1681b933f6cb9f3376673440d862a81565b6105bd6105b836600461271a565b610ed2565b60408051825163ffffffff1681526020928301516001600160e01b03169281019290925201610261565b60006001600160e01b03198216637965db0b60e01b148061061857506301ffc9a760e01b6001600160e01b03198316145b92915050565b60606003805461062d9061275a565b80601f01602080910402602001604051908101604052809291908181526020018280546106599061275a565b80156106a65780601f1061067b576101008083540402835291602001916106a6565b820191906000526020600020905b81548152906001019060200180831161068957829003601f168201915b5050505050905090565b6000806106bb610f9e565b90506106c8818585610fa8565b5060019392505050565b6000806106dd610f9e565b90506106ea8582856110cc565b6106f5858585611146565b506001949350505050565b60008281526006602052604090206001015461071b81611325565b6107258383611336565b505050565b60007f9f2df0fed2c77648de5860a4cc508cd0818c85b8b8a1ab4ceeef8d981c8956a661075681611325565b8260005b818110156107c0576107ae8686838181106107775761077761278e565b61078d9260206040909202019081019150612602565b87878481811061079f5761079f61278e565b905060400201602001356113bd565b806107b8816127ba565b91505061075a565b50600195945050505050565b60006107d66113c7565b905090565b6107e3610f9e565b6001600160a01b0316816001600160a01b0316146108605760405162461bcd60e51b815260206004820152602f60248201527f416363657373436f6e74726f6c3a2063616e206f6e6c792072656e6f756e636560448201526e103937b632b9903337b91039b2b63360891b60648201526084015b60405180910390fd5b61086a82826114ee565b5050565b600080610879610f9e565b90506106c881858561088b8589610ea7565b61089591906127d3565b610fa8565b60004382106108eb5760405162461bcd60e51b815260206004820152601f60248201527f4552433230566f7465733a20626c6f636b206e6f7420796574206d696e6564006044820152606401610857565b6001600160a01b0383166000908152600a6020526040902061090d9083611573565b9392505050565b7f65d7a28e3265b37a6474929f336521b332c1681b933f6cb9f3376673440d862a61093e81611325565b610946611630565b50565b7f9f2df0fed2c77648de5860a4cc508cd0818c85b8b8a1ab4ceeef8d981c8956a661097381611325565b61072583836113bd565b610946610988610f9e565b826116c9565b610946610999610f9e565b826116d3565b6001600160a01b0381166000908152600a60205260408120546106189061174c565b6109d3826109cd610f9e565b836110cc565b61086a82826116c9565b6001600160a01b038116600090815260076020526040812054610618565b7f65d7a28e3265b37a6474929f336521b332c1681b933f6cb9f3376673440d862a610a2581611325565b6109466117b5565b6000438210610a7e5760405162461bcd60e51b815260206004820152601f60248201527f4552433230566f7465733a20626c6f636b206e6f7420796574206d696e6564006044820152606401610857565b610618600b83611573565b60009182526006602090815260408084206001600160a01b0393909316845291905290205460ff1690565b60606004805461062d9061275a565b6001600160a01b0381166000908152600a60205260408120548015610b37576001600160a01b0383166000908152600a60205260409020610b056001836127eb565b81548110610b1557610b1561278e565b60009182526020909120015464010000000090046001600160e01b0316610b3a565b60005b6001600160e01b03169392505050565b600080610b55610f9e565b90506000610b638286610ea7565b905083811015610bc35760405162461bcd60e51b815260206004820152602560248201527f45524332303a2064656372656173656420616c6c6f77616e63652062656c6f77604482015264207a65726f60d81b6064820152608401610857565b6106f58286868403610fa8565b600080610bdb610f9e565b90506106c8818585611146565b83421115610c385760405162461bcd60e51b815260206004820152601d60248201527f4552433230566f7465733a207369676e617475726520657870697265640000006044820152606401610857565b604080517fe48329057bfd03d55e49b547132e39cffd9c1820ad7b9d4c5307691425d15adf60208201526001600160a01b038816918101919091526060810186905260808101859052600090610cb290610caa9060a00160405160208183030381529060405280519060200120611831565b85858561187f565b9050610cbd816118a7565b8614610d0b5760405162461bcd60e51b815260206004820152601960248201527f4552433230566f7465733a20696e76616c6964206e6f6e6365000000000000006044820152606401610857565b610d1581886116d3565b50505050505050565b83421115610d6e5760405162461bcd60e51b815260206004820152601d60248201527f45524332305065726d69743a206578706972656420646561646c696e650000006044820152606401610857565b60007f6e71edae12b1b97f4d1f60370fef10105fa2faae0126114a169c64845d6126c9888888610d9d8c6118a7565b6040805160208101969096526001600160a01b0394851690860152929091166060840152608083015260a082015260c0810186905260e0016040516020818303038152906040528051906020012090506000610df882611831565b90506000610e088287878761187f565b9050896001600160a01b0316816001600160a01b031614610e6b5760405162461bcd60e51b815260206004820152601e60248201527f45524332305065726d69743a20696e76616c6964207369676e617475726500006044820152606401610857565b610e768a8a8a610fa8565b50505050505050505050565b600082815260066020526040902060010154610e9d81611325565b61072583836114ee565b6001600160a01b03918216600090815260016020908152604080832093909416825291909152205490565b60408051808201909152600080825260208201526001600160a01b0383166000908152600a60205260409020805463ffffffff8416908110610f1657610f1661278e565b60009182526020918290206040805180820190915291015463ffffffff8116825264010000000090046001600160e01b0316918101919091529392505050565b60007f00000000000000000000000000000000000000000000000000000000000000006001600160a01b03163303610f95575060131936013560601c90565b503390565b3390565b60006107d6610f56565b6001600160a01b03831661100a5760405162461bcd60e51b8152602060048201526024808201527f45524332303a20617070726f76652066726f6d20746865207a65726f206164646044820152637265737360e01b6064820152608401610857565b6001600160a01b03821661106b5760405162461bcd60e51b815260206004820152602260248201527f45524332303a20617070726f766520746f20746865207a65726f206164647265604482015261737360f01b6064820152608401610857565b6001600160a01b0383811660008181526001602090815260408083209487168084529482529182902085905590518481527f8c5be1e5ebec7d5bd14f71427d1e84f3dd0314c0f7b2291e5b200ac8c7c3b925910160405180910390a3505050565b60006110d88484610ea7565b9050600019811461114057818110156111335760405162461bcd60e51b815260206004820152601d60248201527f45524332303a20696e73756666696369656e7420616c6c6f77616e63650000006044820152606401610857565b6111408484848403610fa8565b50505050565b6001600160a01b0383166111aa5760405162461bcd60e51b815260206004820152602560248201527f45524332303a207472616e736665722066726f6d20746865207a65726f206164604482015264647265737360d81b6064820152608401610857565b6001600160a01b03821661120c5760405162461bcd60e51b815260206004820152602360248201527f45524332303a207472616e7366657220746f20746865207a65726f206164647260448201526265737360e81b6064820152608401610857565b6112178383836118cf565b6001600160a01b0383166000908152602081905260409020548181101561128f5760405162461bcd60e51b815260206004820152602660248201527f45524332303a207472616e7366657220616d6f756e7420657863656564732062604482015265616c616e636560d01b6064820152608401610857565b6001600160a01b038085166000908152602081905260408082208585039055918516815290812080548492906112c69084906127d3565b92505081905550826001600160a01b0316846001600160a01b03167fddf252ad1be2c89b69c2b068fc378daa952ba7f163c4a11628f55a4df523b3ef8460405161131291815260200190565b60405180910390a3611140848484611915565b61094681611331610f9e565b611920565b6113408282610a89565b61086a5760008281526006602090815260408083206001600160a01b03851684529091529020805460ff19166001179055611379610f9e565b6001600160a01b0316816001600160a01b0316837f2f8788117e7eff1d82e926ec794901d17c78024a50270940304540a733656f0d60405160405180910390a45050565b61086a8282611984565b6000306001600160a01b037f00000000000000000000000000000000000000000000000000000000000000001614801561142057507f000000000000000000000000000000000000000000000000000000000000000046145b1561144a57507f000000000000000000000000000000000000000000000000000000000000000090565b50604080517f00000000000000000000000000000000000000000000000000000000000000006020808301919091527f0000000000000000000000000000000000000000000000000000000000000000828401527f000000000000000000000000000000000000000000000000000000000000000060608301524660808301523060a0808401919091528351808403909101815260c0909201909252805191012090565b6114f88282610a89565b1561086a5760008281526006602090815260408083206001600160a01b03851684529091529020805460ff1916905561152f610f9e565b6001600160a01b0316816001600160a01b0316837ff6391f5c32d9c69d2a47ea670b442974b53935d1edc7fd64eb21e047a839171b60405160405180910390a45050565b8154600090815b818110156115d757600061158e8284611a0e565b9050848682815481106115a3576115a361278e565b60009182526020909120015463ffffffff1611156115c3578092506115d1565b6115ce8160016127d3565b91505b5061157a565b811561161b57846115e96001846127eb565b815481106115f9576115f961278e565b60009182526020909120015464010000000090046001600160e01b031661161e565b60005b6001600160e01b031695945050505050565b60055460ff166116795760405162461bcd60e51b815260206004820152601460248201527314185d5cd8589b194e881b9bdd081c185d5cd95960621b6044820152606401610857565b6005805460ff191690557f5db9ee0a495bf2e6ff9c91a7834c1ba4fdd244a5e8aa4e537bd38aeae4b073aa6116ac610f9e565b6040516001600160a01b03909116815260200160405180910390a1565b61086a8282611a29565b6001600160a01b038281166000818152600960208181526040808420805485845282862054949093528787166001600160a01b03198416811790915590519190951694919391928592917f3134e8a2e6d97e929a7e54011ea5485d7d196dd5f0ba4d4ef95803e8e3fc257f9190a4611140828483611a41565b600063ffffffff8211156117b15760405162461bcd60e51b815260206004820152602660248201527f53616665436173743a2076616c756520646f65736e27742066697420696e203360448201526532206269747360d01b6064820152608401610857565b5090565b60055460ff16156117fb5760405162461bcd60e51b815260206004820152601060248201526f14185d5cd8589b194e881c185d5cd95960821b6044820152606401610857565b6005805460ff191660011790557f62e78cea01bee320cd4e420270b5ea74000d11b0c9f74754ebdbfc544b05a2586116ac610f9e565b600061061861183e6113c7565b8360405161190160f01b6020820152602281018390526042810182905260009060620160405160208183030381529060405280519060200120905092915050565b600080600061189087878787611b7e565b9150915061189d81611c6b565b5095945050505050565b6001600160a01b03811660009081526007602052604090208054600181018255905b50919050565b60055460ff16156107255760405162461bcd60e51b815260206004820152601060248201526f14185d5cd8589b194e881c185d5cd95960821b6044820152606401610857565b610725838383611e21565b61192a8282610a89565b61086a57611942816001600160a01b03166014611e53565b61194d836020611e53565b60405160200161195e929190612802565b60408051601f198184030181529082905262461bcd60e51b825261085791600401612493565b61198e8282611fef565b6002546001600160e01b031015611a005760405162461bcd60e51b815260206004820152603060248201527f4552433230566f7465733a20746f74616c20737570706c79207269736b73206f60448201526f766572666c6f77696e6720766f74657360801b6064820152608401610857565b611140600b6120e2836120ee565b6000611a1d6002848418612877565b61090d908484166127d3565b611a338282612267565b611140600b6123c8836120ee565b816001600160a01b0316836001600160a01b031614158015611a635750600081115b15610725576001600160a01b03831615611af1576001600160a01b0383166000908152600a602052604081208190611a9e906123c8856120ee565b91509150846001600160a01b03167fdec2bacdd2f05b59de34da9b523dff8be42e5e38e818c82fdb0bae774387a7248383604051611ae6929190918252602082015260400190565b60405180910390a250505b6001600160a01b03821615610725576001600160a01b0382166000908152600a602052604081208190611b27906120e2856120ee565b91509150836001600160a01b03167fdec2bacdd2f05b59de34da9b523dff8be42e5e38e818c82fdb0bae774387a7248383604051611b6f929190918252602082015260400190565b60405180910390a25050505050565b6000807f7fffffffffffffffffffffffffffffff5d576e7357a4501ddfe92f46681b20a0831115611bb55750600090506003611c62565b8460ff16601b14158015611bcd57508460ff16601c14155b15611bde5750600090506004611c62565b6040805160008082526020820180845289905260ff881692820192909252606081018690526080810185905260019060a0016020604051602081039080840390855afa158015611c32573d6000803e3d6000fd5b5050604051601f1901519150506001600160a01b038116611c5b57600060019250925050611c62565b9150600090505b94509492505050565b6000816004811115611c7f57611c7f612899565b03611c875750565b6001816004811115611c9b57611c9b612899565b03611ce85760405162461bcd60e51b815260206004820152601860248201527f45434453413a20696e76616c6964207369676e617475726500000000000000006044820152606401610857565b6002816004811115611cfc57611cfc612899565b03611d495760405162461bcd60e51b815260206004820152601f60248201527f45434453413a20696e76616c6964207369676e6174757265206c656e677468006044820152606401610857565b6003816004811115611d5d57611d5d612899565b03611db55760405162461bcd60e51b815260206004820152602260248201527f45434453413a20696e76616c6964207369676e6174757265202773272076616c604482015261756560f01b6064820152608401610857565b6004816004811115611dc957611dc9612899565b036109465760405162461bcd60e51b815260206004820152602260248201527f45434453413a20696e76616c6964207369676e6174757265202776272076616c604482015261756560f01b6064820152608401610857565b6001600160a01b0383811660009081526009602052604080822054858416835291205461072592918216911683611a41565b60606000611e628360026128af565b611e6d9060026127d3565b67ffffffffffffffff811115611e8557611e856128ce565b6040519080825280601f01601f191660200182016040528015611eaf576020820181803683370190505b509050600360fc1b81600081518110611eca57611eca61278e565b60200101906001600160f81b031916908160001a905350600f60fb1b81600181518110611ef957611ef961278e565b60200101906001600160f81b031916908160001a9053506000611f1d8460026128af565b611f289060016127d3565b90505b6001811115611fa0576f181899199a1a9b1b9c1cb0b131b232b360811b85600f1660108110611f5c57611f5c61278e565b1a60f81b828281518110611f7257611f7261278e565b60200101906001600160f81b031916908160001a90535060049490941c93611f99816128e4565b9050611f2b565b50831561090d5760405162461bcd60e51b815260206004820181905260248201527f537472696e67733a20686578206c656e67746820696e73756666696369656e746044820152606401610857565b6001600160a01b0382166120455760405162461bcd60e51b815260206004820152601f60248201527f45524332303a206d696e7420746f20746865207a65726f2061646472657373006044820152606401610857565b612051600083836118cf565b806002600082825461206391906127d3565b90915550506001600160a01b038216600090815260208190526040812080548392906120909084906127d3565b90915550506040518181526001600160a01b038316906000907fddf252ad1be2c89b69c2b068fc378daa952ba7f163c4a11628f55a4df523b3ef9060200160405180910390a361086a60008383611915565b600061090d82846127d3565b82546000908190801561213957856121076001836127eb565b815481106121175761211761278e565b60009182526020909120015464010000000090046001600160e01b031661213c565b60005b6001600160e01b0316925061215583858763ffffffff16565b91506000811180156121935750438661216f6001846127eb565b8154811061217f5761217f61278e565b60009182526020909120015463ffffffff16145b156121f3576121a1826123d4565b866121ad6001846127eb565b815481106121bd576121bd61278e565b9060005260206000200160000160046101000a8154816001600160e01b0302191690836001600160e01b0316021790555061225e565b8560405180604001604052806122084361174c565b63ffffffff16815260200161221c856123d4565b6001600160e01b0390811690915282546001810184556000938452602093849020835194909301519091166401000000000263ffffffff909316929092179101555b50935093915050565b6001600160a01b0382166122c75760405162461bcd60e51b815260206004820152602160248201527f45524332303a206275726e2066726f6d20746865207a65726f206164647265736044820152607360f81b6064820152608401610857565b6122d3826000836118cf565b6001600160a01b038216600090815260208190526040902054818110156123475760405162461bcd60e51b815260206004820152602260248201527f45524332303a206275726e20616d6f756e7420657863656564732062616c616e604482015261636560f01b6064820152608401610857565b6001600160a01b03831660009081526020819052604081208383039055600280548492906123769084906127eb565b90915550506040518281526000906001600160a01b038516907fddf252ad1be2c89b69c2b068fc378daa952ba7f163c4a11628f55a4df523b3ef9060200160405180910390a361072583600084611915565b600061090d82846127eb565b60006001600160e01b038211156117b15760405162461bcd60e51b815260206004820152602760248201527f53616665436173743a2076616c756520646f65736e27742066697420696e20326044820152663234206269747360c81b6064820152608401610857565b60006020828403121561244f57600080fd5b81356001600160e01b03198116811461090d57600080fd5b60005b8381101561248257818101518382015260200161246a565b838111156111405750506000910152565b60208152600082518060208401526124b2816040850160208701612467565b601f01601f19169190910160400192915050565b80356001600160a01b03811681146124dd57600080fd5b919050565b600080604083850312156124f557600080fd5b6124fe836124c6565b946020939093013593505050565b60008060006060848603121561252157600080fd5b61252a846124c6565b9250612538602085016124c6565b9150604084013590509250925092565b60006020828403121561255a57600080fd5b5035919050565b6000806040838503121561257457600080fd5b82359150612584602084016124c6565b90509250929050565b600080602083850312156125a057600080fd5b823567ffffffffffffffff808211156125b857600080fd5b818501915085601f8301126125cc57600080fd5b8135818111156125db57600080fd5b8660208260061b85010111156125f057600080fd5b60209290920196919550909350505050565b60006020828403121561261457600080fd5b61090d826124c6565b803560ff811681146124dd57600080fd5b60008060008060008060c0878903121561264757600080fd5b612650876124c6565b9550602087013594506040870135935061266c6060880161261d565b92506080870135915060a087013590509295509295509295565b600080600080600080600060e0888a0312156126a157600080fd5b6126aa886124c6565b96506126b8602089016124c6565b955060408801359450606088013593506126d46080890161261d565b925060a0880135915060c0880135905092959891949750929550565b6000806040838503121561270357600080fd5b61270c836124c6565b9150612584602084016124c6565b6000806040838503121561272d57600080fd5b612736836124c6565b9150602083013563ffffffff8116811461274f57600080fd5b809150509250929050565b600181811c9082168061276e57607f821691505b6020821081036118c957634e487b7160e01b600052602260045260246000fd5b634e487b7160e01b600052603260045260246000fd5b634e487b7160e01b600052601160045260246000fd5b6000600182016127cc576127cc6127a4565b5060010190565b600082198211156127e6576127e66127a4565b500190565b6000828210156127fd576127fd6127a4565b500390565b7f416363657373436f6e74726f6c3a206163636f756e742000000000000000000081526000835161283a816017850160208801612467565b7001034b99036b4b9b9b4b733903937b6329607d1b601791840191820152835161286b816028840160208801612467565b01602801949350505050565b60008261289457634e487b7160e01b600052601260045260246000fd5b500490565b634e487b7160e01b600052602160045260246000fd5b60008160001904831182151516156128c9576128c96127a4565b500290565b634e487b7160e01b600052604160045260246000fd5b6000816128f3576128f36127a4565b50600019019056fea26469706673582212205b170945c484ab72a5c344d718e848323fd3f50e23c629d0852583f571b3fa1264736f6c634300080e0033",
  "devdoc": {
    "kind": "dev",
    "methods": {
      "DOMAIN_SEPARATOR()": {
        "details": "See {IERC20Permit-DOMAIN_SEPARATOR}."
      },
      "allowance(address,address)": {
        "details": "See {IERC20-allowance}."
      },
      "approve(address,uint256)": {
        "details": "See {IERC20-approve}. NOTE: If `amount` is the maximum `uint256`, the allowance is not updated on `transferFrom`. This is semantically equivalent to an infinite approval. Requirements: - `spender` cannot be the zero address."
      },
      "balanceOf(address)": {
        "details": "See {IERC20-balanceOf}."
      },
      "burn(uint256)": {
        "details": "Destroys `amount` tokens from the caller. See {ERC20-_burn}."
      },
      "burnFrom(address,uint256)": {
        "details": "Destroys `amount` tokens from `account`, deducting from the caller's allowance. See {ERC20-_burn} and {ERC20-allowance}. Requirements: - the caller must have allowance for ``accounts``'s tokens of at least `amount`."
      },
      "checkpoints(address,uint32)": {
        "details": "Get the `pos`-th checkpoint for `account`."
      },
      "decimals()": {
        "details": "Returns the number of decimals used to get its user representation. For example, if `decimals` equals `2`, a balance of `505` tokens should be displayed to a user as `5.05` (`505 / 10 ** 2`). Tokens usually opt for a value of 18, imitating the relationship between Ether and Wei. This is the value {ERC20} uses, unless this function is overridden; NOTE: This information is only used for _display_ purposes: it in no way affects any of the arithmetic of the contract, including {IERC20-balanceOf} and {IERC20-transfer}."
      },
      "decreaseAllowance(address,uint256)": {
        "details": "Atomically decreases the allowance granted to `spender` by the caller. This is an alternative to {approve} that can be used as a mitigation for problems described in {IERC20-approve}. Emits an {Approval} event indicating the updated allowance. Requirements: - `spender` cannot be the zero address. - `spender` must have allowance for the caller of at least `subtractedValue`."
      },
      "delegate(address)": {
        "details": "Delegate votes from the sender to `delegatee`."
      },
      "delegateBySig(address,uint256,uint256,uint8,bytes32,bytes32)": {
        "details": "Delegates votes from signer to `delegatee`"
      },
      "delegates(address)": {
        "details": "Get the address `account` is currently delegating to."
      },
      "getPastTotalSupply(uint256)": {
        "details": "Retrieve the `totalSupply` at the end of `blockNumber`. Note, this value is the sum of all balances. It is but NOT the sum of all the delegated votes! Requirements: - `blockNumber` must have been already mined"
      },
      "getPastVotes(address,uint256)": {
        "details": "Retrieve the number of votes for `account` at the end of `blockNumber`. Requirements: - `blockNumber` must have been already mined"
      },
      "getRoleAdmin(bytes32)": {
        "details": "Returns the admin role that controls `role`. See {grantRole} and {revokeRole}. To change a role's admin, use {_setRoleAdmin}."
      },
      "getVotes(address)": {
        "details": "Gets the current votes balance for `account`"
      },
      "grantRole(bytes32,address)": {
        "details": "Grants `role` to `account`. If `account` had not been already granted `role`, emits a {RoleGranted} event. Requirements: - the caller must have ``role``'s admin role."
      },
      "hasRole(bytes32,address)": {
        "details": "Returns `true` if `account` has been granted `role`."
      },
      "increaseAllowance(address,uint256)": {
        "details": "Atomically increases the allowance granted to `spender` by the caller. This is an alternative to {approve} that can be used as a mitigation for problems described in {IERC20-approve}. Emits an {Approval} event indicating the updated allowance. Requirements: - `spender` cannot be the zero address."
      },
      "name()": {
        "details": "Returns the name of the token."
      },
      "nonces(address)": {
        "details": "See {IERC20Permit-nonces}."
      },
      "numCheckpoints(address)": {
        "details": "Get number of checkpoints for `account`."
      },
      "paused()": {
        "details": "Returns true if the contract is paused, and false otherwise."
      },
      "permit(address,address,uint256,uint256,uint8,bytes32,bytes32)": {
        "details": "See {IERC20Permit-permit}."
      },
      "renounceRole(bytes32,address)": {
        "details": "Revokes `role` from the calling account. Roles are often managed via {grantRole} and {revokeRole}: this function's purpose is to provide a mechanism for accounts to lose their privileges if they are compromised (such as when a trusted device is misplaced). If the calling account had been revoked `role`, emits a {RoleRevoked} event. Requirements: - the caller must be `account`."
      },
      "revokeRole(bytes32,address)": {
        "details": "Revokes `role` from `account`. If `account` had been granted `role`, emits a {RoleRevoked} event. Requirements: - the caller must have ``role``'s admin role."
      },
      "supportsInterface(bytes4)": {
        "details": "See {IERC165-supportsInterface}."
      },
      "symbol()": {
        "details": "Returns the symbol of the token, usually a shorter version of the name."
      },
      "totalSupply()": {
        "details": "See {IERC20-totalSupply}."
      },
      "transfer(address,uint256)": {
        "details": "See {IERC20-transfer}. Requirements: - `to` cannot be the zero address. - the caller must have a balance of at least `amount`."
      },
      "transferFrom(address,address,uint256)": {
        "details": "See {IERC20-transferFrom}. Emits an {Approval} event indicating the updated allowance. This is not required by the EIP. See the note at the beginning of {ERC20}. NOTE: Does not update the allowance if the current allowance is the maximum `uint256`. Requirements: - `from` and `to` cannot be the zero address. - `from` must have a balance of at least `amount`. - the caller must have allowance for ``from``'s tokens of at least `amount`."
      }
    },
    "version": 1
  },
  "userdoc": {
    "kind": "user",
    "methods": {},
    "version": 1
  },
  "storageLayout": {
    "storage": [
      {
        "astId": 657,
        "contract": "contracts/Wootgump.sol:Wootgump",
        "label": "_balances",
        "offset": 0,
        "slot": "0",
        "type": "t_mapping(t_address,t_uint256)"
      },
      {
        "astId": 663,
        "contract": "contracts/Wootgump.sol:Wootgump",
        "label": "_allowances",
        "offset": 0,
        "slot": "1",
        "type": "t_mapping(t_address,t_mapping(t_address,t_uint256))"
      },
      {
        "astId": 665,
        "contract": "contracts/Wootgump.sol:Wootgump",
        "label": "_totalSupply",
        "offset": 0,
        "slot": "2",
        "type": "t_uint256"
      },
      {
        "astId": 667,
        "contract": "contracts/Wootgump.sol:Wootgump",
        "label": "_name",
        "offset": 0,
        "slot": "3",
        "type": "t_string_storage"
      },
      {
        "astId": 669,
        "contract": "contracts/Wootgump.sol:Wootgump",
        "label": "_symbol",
        "offset": 0,
        "slot": "4",
        "type": "t_string_storage"
      },
      {
        "astId": 567,
        "contract": "contracts/Wootgump.sol:Wootgump",
        "label": "_paused",
        "offset": 0,
        "slot": "5",
        "type": "t_bool"
      },
      {
        "astId": 24,
        "contract": "contracts/Wootgump.sol:Wootgump",
        "label": "_roles",
        "offset": 0,
        "slot": "6",
        "type": "t_mapping(t_bytes32,t_struct(RoleData)19_storage)"
      },
      {
        "astId": 2034,
        "contract": "contracts/Wootgump.sol:Wootgump",
        "label": "_nonces",
        "offset": 0,
        "slot": "7",
        "type": "t_mapping(t_address,t_struct(Counter)2247_storage)"
      },
      {
        "astId": 2042,
        "contract": "contracts/Wootgump.sol:Wootgump",
        "label": "_PERMIT_TYPEHASH_DEPRECATED_SLOT",
        "offset": 0,
        "slot": "8",
        "type": "t_bytes32"
      },
      {
        "astId": 1375,
        "contract": "contracts/Wootgump.sol:Wootgump",
        "label": "_delegates",
        "offset": 0,
        "slot": "9",
        "type": "t_mapping(t_address,t_address)"
      },
      {
        "astId": 1381,
        "contract": "contracts/Wootgump.sol:Wootgump",
        "label": "_checkpoints",
        "offset": 0,
        "slot": "10",
        "type": "t_mapping(t_address,t_array(t_struct(Checkpoint)1366_storage)dyn_storage)"
      },
      {
        "astId": 1385,
        "contract": "contracts/Wootgump.sol:Wootgump",
        "label": "_totalSupplyCheckpoints",
        "offset": 0,
        "slot": "11",
        "type": "t_array(t_struct(Checkpoint)1366_storage)dyn_storage"
      }
    ],
    "types": {
      "t_address": {
        "encoding": "inplace",
        "label": "address",
        "numberOfBytes": "20"
      },
      "t_array(t_struct(Checkpoint)1366_storage)dyn_storage": {
        "base": "t_struct(Checkpoint)1366_storage",
        "encoding": "dynamic_array",
        "label": "struct ERC20Votes.Checkpoint[]",
        "numberOfBytes": "32"
      },
      "t_bool": {
        "encoding": "inplace",
        "label": "bool",
        "numberOfBytes": "1"
      },
      "t_bytes32": {
        "encoding": "inplace",
        "label": "bytes32",
        "numberOfBytes": "32"
      },
      "t_mapping(t_address,t_address)": {
        "encoding": "mapping",
        "key": "t_address",
        "label": "mapping(address => address)",
        "numberOfBytes": "32",
        "value": "t_address"
      },
      "t_mapping(t_address,t_array(t_struct(Checkpoint)1366_storage)dyn_storage)": {
        "encoding": "mapping",
        "key": "t_address",
        "label": "mapping(address => struct ERC20Votes.Checkpoint[])",
        "numberOfBytes": "32",
        "value": "t_array(t_struct(Checkpoint)1366_storage)dyn_storage"
      },
      "t_mapping(t_address,t_bool)": {
        "encoding": "mapping",
        "key": "t_address",
        "label": "mapping(address => bool)",
        "numberOfBytes": "32",
        "value": "t_bool"
      },
      "t_mapping(t_address,t_mapping(t_address,t_uint256))": {
        "encoding": "mapping",
        "key": "t_address",
        "label": "mapping(address => mapping(address => uint256))",
        "numberOfBytes": "32",
        "value": "t_mapping(t_address,t_uint256)"
      },
      "t_mapping(t_address,t_struct(Counter)2247_storage)": {
        "encoding": "mapping",
        "key": "t_address",
        "label": "mapping(address => struct Counters.Counter)",
        "numberOfBytes": "32",
        "value": "t_struct(Counter)2247_storage"
      },
      "t_mapping(t_address,t_uint256)": {
        "encoding": "mapping",
        "key": "t_address",
        "label": "mapping(address => uint256)",
        "numberOfBytes": "32",
        "value": "t_uint256"
      },
      "t_mapping(t_bytes32,t_struct(RoleData)19_storage)": {
        "encoding": "mapping",
        "key": "t_bytes32",
        "label": "mapping(bytes32 => struct AccessControl.RoleData)",
        "numberOfBytes": "32",
        "value": "t_struct(RoleData)19_storage"
      },
      "t_string_storage": {
        "encoding": "bytes",
        "label": "string",
        "numberOfBytes": "32"
      },
      "t_struct(Checkpoint)1366_storage": {
        "encoding": "inplace",
        "label": "struct ERC20Votes.Checkpoint",
        "members": [
          {
            "astId": 1363,
            "contract": "contracts/Wootgump.sol:Wootgump",
            "label": "fromBlock",
            "offset": 0,
            "slot": "0",
            "type": "t_uint32"
          },
          {
            "astId": 1365,
            "contract": "contracts/Wootgump.sol:Wootgump",
            "label": "votes",
            "offset": 4,
            "slot": "0",
            "type": "t_uint224"
          }
        ],
        "numberOfBytes": "32"
      },
      "t_struct(Counter)2247_storage": {
        "encoding": "inplace",
        "label": "struct Counters.Counter",
        "members": [
          {
            "astId": 2246,
            "contract": "contracts/Wootgump.sol:Wootgump",
            "label": "_value",
            "offset": 0,
            "slot": "0",
            "type": "t_uint256"
          }
        ],
        "numberOfBytes": "32"
      },
      "t_struct(RoleData)19_storage": {
        "encoding": "inplace",
        "label": "struct AccessControl.RoleData",
        "members": [
          {
            "astId": 16,
            "contract": "contracts/Wootgump.sol:Wootgump",
            "label": "members",
            "offset": 0,
            "slot": "0",
            "type": "t_mapping(t_address,t_bool)"
          },
          {
            "astId": 18,
            "contract": "contracts/Wootgump.sol:Wootgump",
            "label": "adminRole",
            "offset": 0,
            "slot": "1",
            "type": "t_bytes32"
          }
        ],
        "numberOfBytes": "64"
      },
      "t_uint224": {
        "encoding": "inplace",
        "label": "uint224",
        "numberOfBytes": "28"
      },
      "t_uint256": {
        "encoding": "inplace",
        "label": "uint256",
        "numberOfBytes": "32"
      },
      "t_uint32": {
        "encoding": "inplace",
        "label": "uint32",
        "numberOfBytes": "4"
      }
    }
  }
}