{
  "address": "0x5FbDB2315678afecb367f032d93F642f64180aa3",
  "abi": [
    {
      "inputs": [],
      "name": "getRandom",
      "outputs": [
        {
          "internalType": "bytes32",
          "name": "rnd",
          "type": "bytes32"
        }
      ],
      "stateMutability": "view",
      "type": "function"
    }
  ],
  "transactionHash": "0xbaa2d9dbc63de7171e03f0f54154acd052ef1cd20c3bd23e931143445a4c8f72",
  "args": [],
  "numDeployments": 1,
  "solcInputHash": "e00a63506a73c2def3373ec447b50ff2",
  "bytecode": "0x6080604052348015600f57600080fd5b5060978061001e6000396000f3fe6080604052348015600f57600080fd5b506004361060285760003560e01c8063aacc5a1714602d575b600080fd5b60336045565b60405190815260200160405180910390f35b60405160009080602081848060185afa605a57fe5b505191905056fea26469706673582212208a7489cf39f281a11b11054dd23c88f7151d2a032261aabb04371a55297c9b9b64736f6c634300080e0033",
  "devdoc": {
    "kind": "dev",
    "methods": {},
    "version": 1
  },
  "userdoc": {
    "kind": "user",
    "methods": {},
    "version": 1
  },
  "storageLayout": {
    "storage": [],
    "types": null
  }
}