{
  "address": "0xDc64a140Aa3E981100a9becA4E685f962f0cF6C9",
  "abi": [
    {
      "inputs": [
        {
          "internalType": "address",
          "name": "trustedForwarder",
          "type": "address"
        },
        {
          "internalType": "address",
          "name": "initialOwner",
          "type": "address"
        }
      ],
      "stateMutability": "nonpayable",
      "type": "constructor"
    },
    {
      "inputs": [],
      "name": "Unauthorized",
      "type": "error"
    },
    {
      "anonymous": false,
      "inputs": [
        {
          "indexed": true,
          "internalType": "address",
          "name": "player",
          "type": "address"
        },
        {
          "indexed": true,
          "internalType": "bytes32",
          "name": "notes",
          "type": "bytes32"
        }
      ],
      "name": "GameStarted",
      "type": "event"
    },
    {
      "anonymous": false,
      "inputs": [
        {
          "indexed": true,
          "internalType": "address",
          "name": "player",
          "type": "address"
        }
      ],
      "name": "RegisteredInterest",
      "type": "event"
    },
    {
      "anonymous": false,
      "inputs": [
        {
          "indexed": true,
          "internalType": "bytes32",
          "name": "role",
          "type": "bytes32"
        },
        {
          "indexed": true,
          "internalType": "bytes32",
          "name": "previousAdminRole",
          "type": "bytes32"
        },
        {
          "indexed": true,
          "internalType": "bytes32",
          "name": "newAdminRole",
          "type": "bytes32"
        }
      ],
      "name": "RoleAdminChanged",
      "type": "event"
    },
    {
      "anonymous": false,
      "inputs": [
        {
          "indexed": true,
          "internalType": "bytes32",
          "name": "role",
          "type": "bytes32"
        },
        {
          "indexed": true,
          "internalType": "address",
          "name": "account",
          "type": "address"
        },
        {
          "indexed": true,
          "internalType": "address",
          "name": "sender",
          "type": "address"
        }
      ],
      "name": "RoleGranted",
      "type": "event"
    },
    {
      "anonymous": false,
      "inputs": [
        {
          "indexed": true,
          "internalType": "bytes32",
          "name": "role",
          "type": "bytes32"
        },
        {
          "indexed": true,
          "internalType": "address",
          "name": "account",
          "type": "address"
        },
        {
          "indexed": true,
          "internalType": "address",
          "name": "sender",
          "type": "address"
        }
      ],
      "name": "RoleRevoked",
      "type": "event"
    },
    {
      "inputs": [],
      "name": "ADMIN_ROLE",
      "outputs": [
        {
          "internalType": "bytes32",
          "name": "",
          "type": "bytes32"
        }
      ],
      "stateMutability": "view",
      "type": "function"
    },
    {
      "inputs": [],
      "name": "DEFAULT_ADMIN_ROLE",
      "outputs": [
        {
          "internalType": "bytes32",
          "name": "",
          "type": "bytes32"
        }
      ],
      "stateMutability": "view",
      "type": "function"
    },
    {
      "inputs": [
        {
          "internalType": "address[]",
          "name": "addresses",
          "type": "address[]"
        }
      ],
      "name": "cleanAddresses",
      "outputs": [],
      "stateMutability": "nonpayable",
      "type": "function"
    },
    {
      "inputs": [
        {
          "internalType": "bytes32",
          "name": "role",
          "type": "bytes32"
        }
      ],
      "name": "getRoleAdmin",
      "outputs": [
        {
          "internalType": "bytes32",
          "name": "",
          "type": "bytes32"
        }
      ],
      "stateMutability": "view",
      "type": "function"
    },
    {
      "inputs": [
        {
          "internalType": "bytes32",
          "name": "role",
          "type": "bytes32"
        },
        {
          "internalType": "address",
          "name": "account",
          "type": "address"
        }
      ],
      "name": "grantRole",
      "outputs": [],
      "stateMutability": "nonpayable",
      "type": "function"
    },
    {
      "inputs": [
        {
          "internalType": "bytes32",
          "name": "role",
          "type": "bytes32"
        },
        {
          "internalType": "address",
          "name": "account",
          "type": "address"
        }
      ],
      "name": "hasRole",
      "outputs": [
        {
          "internalType": "bool",
          "name": "",
          "type": "bool"
        }
      ],
      "stateMutability": "view",
      "type": "function"
    },
    {
      "inputs": [
        {
          "internalType": "address",
          "name": "forwarder",
          "type": "address"
        }
      ],
      "name": "isTrustedForwarder",
      "outputs": [
        {
          "internalType": "bool",
          "name": "",
          "type": "bool"
        }
      ],
      "stateMutability": "view",
      "type": "function"
    },
    {
      "inputs": [],
      "name": "registerInterest",
      "outputs": [],
      "stateMutability": "nonpayable",
      "type": "function"
    },
    {
      "inputs": [
        {
          "internalType": "bytes32",
          "name": "role",
          "type": "bytes32"
        },
        {
          "internalType": "address",
          "name": "account",
          "type": "address"
        }
      ],
      "name": "renounceRole",
      "outputs": [],
      "stateMutability": "nonpayable",
      "type": "function"
    },
    {
      "inputs": [
        {
          "internalType": "bytes32",
          "name": "role",
          "type": "bytes32"
        },
        {
          "internalType": "address",
          "name": "account",
          "type": "address"
        }
      ],
      "name": "revokeRole",
      "outputs": [],
      "stateMutability": "nonpayable",
      "type": "function"
    },
    {
      "inputs": [
        {
          "internalType": "bytes4",
          "name": "interfaceId",
          "type": "bytes4"
        }
      ],
      "name": "supportsInterface",
      "outputs": [
        {
          "internalType": "bool",
          "name": "",
          "type": "bool"
        }
      ],
      "stateMutability": "view",
      "type": "function"
    },
    {
      "inputs": [
        {
          "internalType": "address[]",
          "name": "addresses",
          "type": "address[]"
        },
        {
          "internalType": "bytes32",
          "name": "notes",
          "type": "bytes32"
        }
      ],
      "name": "takeAddresses",
      "outputs": [],
      "stateMutability": "nonpayable",
      "type": "function"
    },
    {
      "inputs": [],
      "name": "waitingAddresses",
      "outputs": [
        {
          "internalType": "address[]",
          "name": "",
          "type": "address[]"
        }
      ],
      "stateMutability": "view",
      "type": "function"
    }
  ],
  "transactionHash": "0xfae6624017a9ee231505c987be903c4fcbd0d0fb22ebf3420898c106dcc1d90c",
  "args": [
    "0x9fE46736679d2D9a65F0992F2272dE9f3c7fa6e0",
    "0xf39Fd6e51aad88F6F4ce6aB8827279cffFb92266"
  ],
  "numDeployments": 1,
  "solcInputHash": "e00a63506a73c2def3373ec447b50ff2",
  "bytecode": "0x60a06040523480156200001157600080fd5b50604051620010373803806200103783398101604081905262000034916200019c565b6001600160a01b0382166080526200006d7fa49807205ce4d355092ef5a8a18f56e8913cf4a201fbe287825b095693c217758262000075565b5050620001d4565b62000081828262000085565b5050565b6000828152602081815260408083206001600160a01b038516845290915290205460ff1662000081576000828152602081815260408083206001600160a01b03851684529091529020805460ff19166001179055620000e362000127565b6001600160a01b0316816001600160a01b0316837f2f8788117e7eff1d82e926ec794901d17c78024a50270940304540a733656f0d60405160405180910390a45050565b60006200013e6200014360201b620005491760201c565b905090565b6080516000906001600160a01b0316330362000166575060131936013560601c90565b6200013e6200017b60201b6200058d1760201c565b3390565b80516001600160a01b03811681146200019757600080fd5b919050565b60008060408385031215620001b057600080fd5b620001bb836200017f565b9150620001cb602084016200017f565b90509250929050565b608051610e40620001f760003960008181610165015261054d0152610e406000f3fe608060405234801561001057600080fd5b50600436106100cf5760003560e01c8063750c5c8b1161008c57806391d148541161006657806391d14854146101ec578063a217fddf146101ff578063bb04d66c14610207578063d547741f1461021a57600080fd5b8063750c5c8b1461019d57806375b238fc146101b0578063807415a0146101d757600080fd5b806301ffc9a7146100d4578063248a9ca3146100fc5780632f2ff15d1461012d57806336568abe14610142578063572b6c05146101555780635f5fff4d14610195575b600080fd5b6100e76100e2366004610a93565b61022d565b60405190151581526020015b60405180910390f35b61011f61010a366004610abd565b60009081526020819052604090206001015490565b6040519081526020016100f3565b61014061013b366004610af2565b610264565b005b610140610150366004610af2565b61028e565b6100e7610163366004610b1e565b7f00000000000000000000000000000000000000000000000000000000000000006001600160a01b0390811691161490565b610140610321565b6101406101ab366004610b85565b610370565b61011f7fa49807205ce4d355092ef5a8a18f56e8913cf4a201fbe287825b095693c2177581565b6101df61040f565b6040516100f39190610bc7565b6100e76101fa366004610af2565b610420565b61011f600081565b610140610215366004610c14565b610449565b610140610228366004610af2565b610524565b60006001600160e01b03198216637965db0b60e01b148061025e57506301ffc9a760e01b6001600160e01b03198316145b92915050565b60008281526020819052604090206001015461027f81610591565b61028983836105a5565b505050565b61029661062a565b6001600160a01b0316816001600160a01b0316146103135760405162461bcd60e51b815260206004820152602f60248201527f416363657373436f6e74726f6c3a2063616e206f6e6c792072656e6f756e636560448201526e103937b632b9903337b91039b2b63360891b60648201526084015b60405180910390fd5b61031d8282610634565b5050565b600061032b61062a565b90506103386001826106b7565b506040516001600160a01b038216907f753209b3d0018783cbd590e4b0b4e2249577be74ba38db5b391f1d6565dce0cd90600090a250565b61039c7fa49807205ce4d355092ef5a8a18f56e8913cf4a201fbe287825b095693c217756101fa61062a565b6103b8576040516282b42960e81b815260040160405180910390fd5b8060005b81811015610409576103f68484838181106103d9576103d9610c60565b90506020020160208101906103ee9190610b1e565b6001906106d3565b508061040181610c8c565b9150506103bc565b50505050565b606061041b60016106e8565b905090565b6000918252602082815260408084206001600160a01b0393909316845291905290205460ff1690565b6104757fa49807205ce4d355092ef5a8a18f56e8913cf4a201fbe287825b095693c217756101fa61062a565b610491576040516282b42960e81b815260040160405180910390fd5b8160005b8181101561051d5760008585838181106104b1576104b1610c60565b90506020020160208101906104c69190610b1e565b90506104d36001826106d3565b5060405184906001600160a01b038316907fc967dddd8efedd51b87b70f83abc0d766e8bf00a9396fb93c08fd792745ce06190600090a3508061051581610c8c565b915050610495565b5050505050565b60008281526020819052604090206001015461053f81610591565b6102898383610634565b60007f00000000000000000000000000000000000000000000000000000000000000006001600160a01b03163303610588575060131936013560601c90565b503390565b3390565b6105a28161059d61062a565b6106f5565b50565b6105af8282610420565b61031d576000828152602081815260408083206001600160a01b03851684529091529020805460ff191660011790556105e661062a565b6001600160a01b0316816001600160a01b0316837f2f8788117e7eff1d82e926ec794901d17c78024a50270940304540a733656f0d60405160405180910390a45050565b600061041b610549565b61063e8282610420565b1561031d576000828152602081815260408083206001600160a01b03851684529091529020805460ff1916905561067361062a565b6001600160a01b0316816001600160a01b0316837ff6391f5c32d9c69d2a47ea670b442974b53935d1edc7fd64eb21e047a839171b60405160405180910390a45050565b60006106cc836001600160a01b038416610759565b9392505050565b60006106cc836001600160a01b0384166107a8565b606060006106cc8361089b565b6106ff8282610420565b61031d57610717816001600160a01b031660146108f7565b6107228360206108f7565b604051602001610733929190610cd1565b60408051601f198184030181529082905262461bcd60e51b825261030a91600401610d46565b60008181526001830160205260408120546107a05750815460018181018455600084815260208082209093018490558454848252828601909352604090209190915561025e565b50600061025e565b600081815260018301602052604081205480156108915760006107cc600183610d79565b85549091506000906107e090600190610d79565b905081811461084557600086600001828154811061080057610800610c60565b906000526020600020015490508087600001848154811061082357610823610c60565b6000918252602080832090910192909255918252600188019052604090208390555b855486908061085657610856610d90565b60019003818190600052602060002001600090559055856001016000868152602001908152602001600020600090556001935050505061025e565b600091505061025e565b6060816000018054806020026020016040519081016040528092919081815260200182805480156108eb57602002820191906000526020600020905b8154815260200190600101908083116108d7575b50505050509050919050565b60606000610906836002610da6565b610911906002610dc5565b67ffffffffffffffff81111561092957610929610ddd565b6040519080825280601f01601f191660200182016040528015610953576020820181803683370190505b509050600360fc1b8160008151811061096e5761096e610c60565b60200101906001600160f81b031916908160001a905350600f60fb1b8160018151811061099d5761099d610c60565b60200101906001600160f81b031916908160001a90535060006109c1846002610da6565b6109cc906001610dc5565b90505b6001811115610a44576f181899199a1a9b1b9c1cb0b131b232b360811b85600f1660108110610a0057610a00610c60565b1a60f81b828281518110610a1657610a16610c60565b60200101906001600160f81b031916908160001a90535060049490941c93610a3d81610df3565b90506109cf565b5083156106cc5760405162461bcd60e51b815260206004820181905260248201527f537472696e67733a20686578206c656e67746820696e73756666696369656e74604482015260640161030a565b600060208284031215610aa557600080fd5b81356001600160e01b0319811681146106cc57600080fd5b600060208284031215610acf57600080fd5b5035919050565b80356001600160a01b0381168114610aed57600080fd5b919050565b60008060408385031215610b0557600080fd5b82359150610b1560208401610ad6565b90509250929050565b600060208284031215610b3057600080fd5b6106cc82610ad6565b60008083601f840112610b4b57600080fd5b50813567ffffffffffffffff811115610b6357600080fd5b6020830191508360208260051b8501011115610b7e57600080fd5b9250929050565b60008060208385031215610b9857600080fd5b823567ffffffffffffffff811115610baf57600080fd5b610bbb85828601610b39565b90969095509350505050565b6020808252825182820181905260009190848201906040850190845b81811015610c085783516001600160a01b031683529284019291840191600101610be3565b50909695505050505050565b600080600060408486031215610c2957600080fd5b833567ffffffffffffffff811115610c4057600080fd5b610c4c86828701610b39565b909790965060209590950135949350505050565b634e487b7160e01b600052603260045260246000fd5b634e487b7160e01b600052601160045260246000fd5b600060018201610c9e57610c9e610c76565b5060010190565b60005b83811015610cc0578181015183820152602001610ca8565b838111156104095750506000910152565b7f416363657373436f6e74726f6c3a206163636f756e7420000000000000000000815260008351610d09816017850160208801610ca5565b7001034b99036b4b9b9b4b733903937b6329607d1b6017918401918201528351610d3a816028840160208801610ca5565b01602801949350505050565b6020815260008251806020840152610d65816040850160208701610ca5565b601f01601f19169190910160400192915050565b600082821015610d8b57610d8b610c76565b500390565b634e487b7160e01b600052603160045260246000fd5b6000816000190483118215151615610dc057610dc0610c76565b500290565b60008219821115610dd857610dd8610c76565b500190565b634e487b7160e01b600052604160045260246000fd5b600081610e0257610e02610c76565b50600019019056fea2646970667358221220d042082ff9058d809c91e6eeb831ca9b6508e832ca0f6b9822a84fc5989ee31464736f6c634300080e0033",
  "devdoc": {
    "kind": "dev",
    "methods": {
      "getRoleAdmin(bytes32)": {
        "details": "Returns the admin role that controls `role`. See {grantRole} and {revokeRole}. To change a role's admin, use {_setRoleAdmin}."
      },
      "grantRole(bytes32,address)": {
        "details": "Grants `role` to `account`. If `account` had not been already granted `role`, emits a {RoleGranted} event. Requirements: - the caller must have ``role``'s admin role."
      },
      "hasRole(bytes32,address)": {
        "details": "Returns `true` if `account` has been granted `role`."
      },
      "renounceRole(bytes32,address)": {
        "details": "Revokes `role` from the calling account. Roles are often managed via {grantRole} and {revokeRole}: this function's purpose is to provide a mechanism for accounts to lose their privileges if they are compromised (such as when a trusted device is misplaced). If the calling account had been revoked `role`, emits a {RoleRevoked} event. Requirements: - the caller must be `account`."
      },
      "revokeRole(bytes32,address)": {
        "details": "Revokes `role` from `account`. If `account` had been granted `role`, emits a {RoleRevoked} event. Requirements: - the caller must have ``role``'s admin role."
      },
      "supportsInterface(bytes4)": {
        "details": "See {IERC165-supportsInterface}."
      }
    },
    "version": 1
  },
  "userdoc": {
    "kind": "user",
    "methods": {},
    "version": 1
  },
  "storageLayout": {
    "storage": [
      {
        "astId": 24,
        "contract": "contracts/Lobby.sol:Lobby",
        "label": "_roles",
        "offset": 0,
        "slot": "0",
        "type": "t_mapping(t_bytes32,t_struct(RoleData)19_storage)"
      },
      {
        "astId": 4842,
        "contract": "contracts/Lobby.sol:Lobby",
        "label": "waiting",
        "offset": 0,
        "slot": "1",
        "type": "t_struct(AddressSet)3908_storage"
      }
    ],
    "types": {
      "t_address": {
        "encoding": "inplace",
        "label": "address",
        "numberOfBytes": "20"
      },
      "t_array(t_bytes32)dyn_storage": {
        "base": "t_bytes32",
        "encoding": "dynamic_array",
        "label": "bytes32[]",
        "numberOfBytes": "32"
      },
      "t_bool": {
        "encoding": "inplace",
        "label": "bool",
        "numberOfBytes": "1"
      },
      "t_bytes32": {
        "encoding": "inplace",
        "label": "bytes32",
        "numberOfBytes": "32"
      },
      "t_mapping(t_address,t_bool)": {
        "encoding": "mapping",
        "key": "t_address",
        "label": "mapping(address => bool)",
        "numberOfBytes": "32",
        "value": "t_bool"
      },
      "t_mapping(t_bytes32,t_struct(RoleData)19_storage)": {
        "encoding": "mapping",
        "key": "t_bytes32",
        "label": "mapping(bytes32 => struct AccessControl.RoleData)",
        "numberOfBytes": "32",
        "value": "t_struct(RoleData)19_storage"
      },
      "t_mapping(t_bytes32,t_uint256)": {
        "encoding": "mapping",
        "key": "t_bytes32",
        "label": "mapping(bytes32 => uint256)",
        "numberOfBytes": "32",
        "value": "t_uint256"
      },
      "t_struct(AddressSet)3908_storage": {
        "encoding": "inplace",
        "label": "struct EnumerableSet.AddressSet",
        "members": [
          {
            "astId": 3907,
            "contract": "contracts/Lobby.sol:Lobby",
            "label": "_inner",
            "offset": 0,
            "slot": "0",
            "type": "t_struct(Set)3607_storage"
          }
        ],
        "numberOfBytes": "64"
      },
      "t_struct(RoleData)19_storage": {
        "encoding": "inplace",
        "label": "struct AccessControl.RoleData",
        "members": [
          {
            "astId": 16,
            "contract": "contracts/Lobby.sol:Lobby",
            "label": "members",
            "offset": 0,
            "slot": "0",
            "type": "t_mapping(t_address,t_bool)"
          },
          {
            "astId": 18,
            "contract": "contracts/Lobby.sol:Lobby",
            "label": "adminRole",
            "offset": 0,
            "slot": "1",
            "type": "t_bytes32"
          }
        ],
        "numberOfBytes": "64"
      },
      "t_struct(Set)3607_storage": {
        "encoding": "inplace",
        "label": "struct EnumerableSet.Set",
        "members": [
          {
            "astId": 3602,
            "contract": "contracts/Lobby.sol:Lobby",
            "label": "_values",
            "offset": 0,
            "slot": "0",
            "type": "t_array(t_bytes32)dyn_storage"
          },
          {
            "astId": 3606,
            "contract": "contracts/Lobby.sol:Lobby",
            "label": "_indexes",
            "offset": 0,
            "slot": "1",
            "type": "t_mapping(t_bytes32,t_uint256)"
          }
        ],
        "numberOfBytes": "64"
      },
      "t_uint256": {
        "encoding": "inplace",
        "label": "uint256",
        "numberOfBytes": "32"
      }
    }
  }
}