{
  "address": "0x0165878A594ca255338adfa4d48449f69242Eb8F",
  "abi": [
    {
      "inputs": [
        {
          "internalType": "address",
          "name": "trustedForwarder",
          "type": "address"
        }
      ],
      "stateMutability": "nonpayable",
      "type": "constructor"
    },
    {
      "inputs": [],
      "name": "UsernameAlreadyClaimed",
      "type": "error"
    },
    {
      "anonymous": false,
      "inputs": [
        {
          "indexed": true,
          "internalType": "address",
          "name": "player",
          "type": "address"
        },
        {
          "indexed": false,
          "internalType": "string",
          "name": "username",
          "type": "string"
        }
      ],
      "name": "UserNameSet",
      "type": "event"
    },
    {
      "inputs": [
        {
          "internalType": "address",
          "name": "forwarder",
          "type": "address"
        }
      ],
      "name": "isTrustedForwarder",
      "outputs": [
        {
          "internalType": "bool",
          "name": "",
          "type": "bool"
        }
      ],
      "stateMutability": "view",
      "type": "function"
    },
    {
      "inputs": [
        {
          "internalType": "address",
          "name": "",
          "type": "address"
        }
      ],
      "name": "name",
      "outputs": [
        {
          "internalType": "string",
          "name": "",
          "type": "string"
        }
      ],
      "stateMutability": "view",
      "type": "function"
    },
    {
      "inputs": [
        {
          "internalType": "string",
          "name": "_name",
          "type": "string"
        }
      ],
      "name": "setUsername",
      "outputs": [
        {
          "internalType": "bool",
          "name": "",
          "type": "bool"
        }
      ],
      "stateMutability": "nonpayable",
      "type": "function"
    },
    {
      "inputs": [
        {
          "internalType": "string",
          "name": "",
          "type": "string"
        }
      ],
      "name": "usernameToAddress",
      "outputs": [
        {
          "internalType": "address",
          "name": "",
          "type": "address"
        }
      ],
      "stateMutability": "view",
      "type": "function"
    }
  ],
  "transactionHash": "0x8b41ebe58dff6c4715b686adcb833f3148fe6521ac8f877041590c56a83197a0",
  "args": [
    "0x9fE46736679d2D9a65F0992F2272dE9f3c7fa6e0"
  ],
  "numDeployments": 1,
  "solcInputHash": "e00a63506a73c2def3373ec447b50ff2",
  "bytecode": "0x60a060405234801561001057600080fd5b5060405161079638038061079683398101604081905261002f91610040565b6001600160a01b0316608052610070565b60006020828403121561005257600080fd5b81516001600160a01b038116811461006957600080fd5b9392505050565b60805161070561009160003960008181608a015261032401526107056000f3fe608060405234801561001057600080fd5b506004361061004c5760003560e01c80630198489214610051578063572b6c051461007a578063ed59313a146100ca578063f825f143146100dd575b600080fd5b61006461005f3660046103fd565b610129565b604051610071919061042d565b60405180910390f35b6100ba6100883660046103fd565b7f00000000000000000000000000000000000000000000000000000000000000006001600160a01b0390811691161490565b6040519015158152602001610071565b6100ba6100d8366004610482565b6101c3565b6101116100eb36600461050a565b80516020818301810180516001825292820191909301209152546001600160a01b031681565b6040516001600160a01b039091168152602001610071565b60006020819052908152604090208054610142906105bb565b80601f016020809104026020016040519081016040528092919081815260200182805461016e906105bb565b80156101bb5780601f10610190576101008083540402835291602001916101bb565b820191906000526020600020905b81548152906001019060200180831161019e57829003601f168201915b505050505081565b6000806101ce610320565b90506000600185856040516101e49291906105f5565b908152604051908190036020019020546001600160a01b039081169150821681148061021757506001600160a01b038116155b61023457604051634804ba5b60e01b815260040160405180910390fd5b6001600160a01b03821660009081526020819052604090819020905160019161025c91610605565b908152604080516020928190038301902080546001600160a01b03191690556001600160a01b038416600090815291829052902061029b908686610364565b5081600186866040516102af9291906105f5565b90815260405190819003602001812080546001600160a01b039384166001600160a01b0319909116179055908316907f55633e294f3ce7de0841784584a845596fec2f4a663a2e0415d1aaf6455a47879061030d90889088906106a0565b60405180910390a2506001949350505050565b60007f00000000000000000000000000000000000000000000000000000000000000006001600160a01b0316330361035f575060131936013560601c90565b503390565b828054610370906105bb565b90600052602060002090601f01602090048101928261039257600085556103d8565b82601f106103ab5782800160ff198235161785556103d8565b828001600101855582156103d8579182015b828111156103d85782358255916020019190600101906103bd565b506103e49291506103e8565b5090565b5b808211156103e457600081556001016103e9565b60006020828403121561040f57600080fd5b81356001600160a01b038116811461042657600080fd5b9392505050565b600060208083528351808285015260005b8181101561045a5785810183015185820160400152820161043e565b8181111561046c576000604083870101525b50601f01601f1916929092016040019392505050565b6000806020838503121561049557600080fd5b823567ffffffffffffffff808211156104ad57600080fd5b818501915085601f8301126104c157600080fd5b8135818111156104d057600080fd5b8660208285010111156104e257600080fd5b60209290920196919550909350505050565b634e487b7160e01b600052604160045260246000fd5b60006020828403121561051c57600080fd5b813567ffffffffffffffff8082111561053457600080fd5b818401915084601f83011261054857600080fd5b81358181111561055a5761055a6104f4565b604051601f8201601f19908116603f01168101908382118183101715610582576105826104f4565b8160405282815287602084870101111561059b57600080fd5b826020860160208301376000928101602001929092525095945050505050565b600181811c908216806105cf57607f821691505b6020821081036105ef57634e487b7160e01b600052602260045260246000fd5b50919050565b8183823760009101908152919050565b600080835481600182811c91508083168061062157607f831692505b6020808410820361064057634e487b7160e01b86526022600452602486fd5b818015610654576001811461066557610692565b60ff19861689528489019650610692565b60008a81526020902060005b8681101561068a5781548b820152908501908301610671565b505084890196505b509498975050505050505050565b60208152816020820152818360408301376000818301604090810191909152601f909201601f1916010191905056fea2646970667358221220b9ccd91f93418ce410427905d7bdb14cbd90d58d8f6bcf92d52026557d7d627364736f6c634300080e0033",
  "devdoc": {
    "kind": "dev",
    "methods": {},
    "version": 1
  },
  "userdoc": {
    "kind": "user",
    "methods": {},
    "version": 1
  },
  "storageLayout": {
    "storage": [
      {
        "astId": 5217,
        "contract": "contracts/Player.sol:Player",
        "label": "name",
        "offset": 0,
        "slot": "0",
        "type": "t_mapping(t_address,t_string_storage)"
      },
      {
        "astId": 5221,
        "contract": "contracts/Player.sol:Player",
        "label": "usernameToAddress",
        "offset": 0,
        "slot": "1",
        "type": "t_mapping(t_string_memory_ptr,t_address)"
      }
    ],
    "types": {
      "t_address": {
        "encoding": "inplace",
        "label": "address",
        "numberOfBytes": "20"
      },
      "t_mapping(t_address,t_string_storage)": {
        "encoding": "mapping",
        "key": "t_address",
        "label": "mapping(address => string)",
        "numberOfBytes": "32",
        "value": "t_string_storage"
      },
      "t_mapping(t_string_memory_ptr,t_address)": {
        "encoding": "mapping",
        "key": "t_string_memory_ptr",
        "label": "mapping(string => address)",
        "numberOfBytes": "32",
        "value": "t_address"
      },
      "t_string_memory_ptr": {
        "encoding": "bytes",
        "label": "string",
        "numberOfBytes": "32"
      },
      "t_string_storage": {
        "encoding": "bytes",
        "label": "string",
        "numberOfBytes": "32"
      }
    }
  }
}