{
  "address": "0xF7C4f6F2999597B9FE6aee6e86A2836fc694F160",
  "abi": [
    {
      "inputs": [
        {
          "internalType": "address",
          "name": "trustedForwarder",
          "type": "address"
        },
        {
          "internalType": "address",
          "name": "wootGumpAddress",
          "type": "address"
        },
        {
          "internalType": "address",
          "name": "initialOwner",
          "type": "address"
        }
      ],
      "stateMutability": "nonpayable",
      "type": "constructor"
    },
    {
      "anonymous": false,
      "inputs": [
        {
          "indexed": true,
          "internalType": "address",
          "name": "account",
          "type": "address"
        }
      ],
      "name": "Purchase",
      "type": "event"
    },
    {
      "anonymous": false,
      "inputs": [
        {
          "indexed": true,
          "internalType": "bytes32",
          "name": "role",
          "type": "bytes32"
        },
        {
          "indexed": true,
          "internalType": "bytes32",
          "name": "previousAdminRole",
          "type": "bytes32"
        },
        {
          "indexed": true,
          "internalType": "bytes32",
          "name": "newAdminRole",
          "type": "bytes32"
        }
      ],
      "name": "RoleAdminChanged",
      "type": "event"
    },
    {
      "anonymous": false,
      "inputs": [
        {
          "indexed": true,
          "internalType": "bytes32",
          "name": "role",
          "type": "bytes32"
        },
        {
          "indexed": true,
          "internalType": "address",
          "name": "account",
          "type": "address"
        },
        {
          "indexed": true,
          "internalType": "address",
          "name": "sender",
          "type": "address"
        }
      ],
      "name": "RoleGranted",
      "type": "event"
    },
    {
      "anonymous": false,
      "inputs": [
        {
          "indexed": true,
          "internalType": "bytes32",
          "name": "role",
          "type": "bytes32"
        },
        {
          "indexed": true,
          "internalType": "address",
          "name": "account",
          "type": "address"
        },
        {
          "indexed": true,
          "internalType": "address",
          "name": "sender",
          "type": "address"
        }
      ],
      "name": "RoleRevoked",
      "type": "event"
    },
    {
      "anonymous": false,
      "inputs": [
        {
          "indexed": false,
          "internalType": "uint256",
          "name": "amount",
          "type": "uint256"
        }
      ],
      "name": "SupplyAdded",
      "type": "event"
    },
    {
      "inputs": [],
      "name": "ADMIN_ROLE",
      "outputs": [
        {
          "internalType": "bytes32",
          "name": "",
          "type": "bytes32"
        }
      ],
      "stateMutability": "view",
      "type": "function"
    },
    {
      "inputs": [],
      "name": "DEFAULT_ADMIN_ROLE",
      "outputs": [
        {
          "internalType": "bytes32",
          "name": "",
          "type": "bytes32"
        }
      ],
      "stateMutability": "view",
      "type": "function"
    },
    {
      "inputs": [
        {
          "internalType": "uint256",
          "name": "amount",
          "type": "uint256"
        }
      ],
      "name": "addSupply",
      "outputs": [],
      "stateMutability": "nonpayable",
      "type": "function"
    },
    {
      "inputs": [],
      "name": "all",
      "outputs": [
        {
          "components": [
            {
              "internalType": "address",
              "name": "account",
              "type": "address"
            },
            {
              "internalType": "uint256",
              "name": "balance",
              "type": "uint256"
            }
          ],
          "internalType": "struct AllowListSetter.Balance[]",
          "name": "balances",
          "type": "tuple[]"
        }
      ],
      "stateMutability": "view",
      "type": "function"
    },
    {
      "inputs": [
        {
          "internalType": "address",
          "name": "account",
          "type": "address"
        }
      ],
      "name": "balanceOf",
      "outputs": [
        {
          "internalType": "uint256",
          "name": "",
          "type": "uint256"
        }
      ],
      "stateMutability": "view",
      "type": "function"
    },
    {
      "inputs": [
        {
          "internalType": "address[]",
          "name": "accounts",
          "type": "address[]"
        }
      ],
      "name": "bulkConsume",
      "outputs": [],
      "stateMutability": "nonpayable",
      "type": "function"
    },
    {
      "inputs": [
        {
          "internalType": "address",
          "name": "account",
          "type": "address"
        }
      ],
      "name": "buy",
      "outputs": [],
      "stateMutability": "nonpayable",
      "type": "function"
    },
    {
      "inputs": [
        {
          "internalType": "address",
          "name": "account",
          "type": "address"
        }
      ],
      "name": "consume",
      "outputs": [],
      "stateMutability": "nonpayable",
      "type": "function"
    },
    {
      "inputs": [
        {
          "internalType": "address",
          "name": "to",
          "type": "address"
        }
      ],
      "name": "drain",
      "outputs": [],
      "stateMutability": "nonpayable",
      "type": "function"
    },
    {
      "inputs": [
        {
          "internalType": "bytes32",
          "name": "role",
          "type": "bytes32"
        }
      ],
      "name": "getRoleAdmin",
      "outputs": [
        {
          "internalType": "bytes32",
          "name": "",
          "type": "bytes32"
        }
      ],
      "stateMutability": "view",
      "type": "function"
    },
    {
      "inputs": [
        {
          "internalType": "bytes32",
          "name": "role",
          "type": "bytes32"
        },
        {
          "internalType": "address",
          "name": "account",
          "type": "address"
        }
      ],
      "name": "grantRole",
      "outputs": [],
      "stateMutability": "nonpayable",
      "type": "function"
    },
    {
      "inputs": [
        {
          "internalType": "bytes32",
          "name": "role",
          "type": "bytes32"
        },
        {
          "internalType": "address",
          "name": "account",
          "type": "address"
        }
      ],
      "name": "hasRole",
      "outputs": [
        {
          "internalType": "bool",
          "name": "",
          "type": "bool"
        }
      ],
      "stateMutability": "view",
      "type": "function"
    },
    {
      "inputs": [
        {
          "internalType": "address",
          "name": "forwarder",
          "type": "address"
        }
      ],
      "name": "isTrustedForwarder",
      "outputs": [
        {
          "internalType": "bool",
          "name": "",
          "type": "bool"
        }
      ],
      "stateMutability": "view",
      "type": "function"
    },
    {
      "inputs": [
        {
          "internalType": "bytes32",
          "name": "role",
          "type": "bytes32"
        },
        {
          "internalType": "address",
          "name": "account",
          "type": "address"
        }
      ],
      "name": "renounceRole",
      "outputs": [],
      "stateMutability": "nonpayable",
      "type": "function"
    },
    {
      "inputs": [
        {
          "internalType": "bytes32",
          "name": "role",
          "type": "bytes32"
        },
        {
          "internalType": "address",
          "name": "account",
          "type": "address"
        }
      ],
      "name": "revokeRole",
      "outputs": [],
      "stateMutability": "nonpayable",
      "type": "function"
    },
    {
      "inputs": [
        {
          "internalType": "uint256",
          "name": "price",
          "type": "uint256"
        }
      ],
      "name": "setCurrentPrice",
      "outputs": [],
      "stateMutability": "nonpayable",
      "type": "function"
    },
    {
      "inputs": [
        {
          "internalType": "bool",
          "name": "isPaused",
          "type": "bool"
        }
      ],
      "name": "setPaused",
      "outputs": [],
      "stateMutability": "nonpayable",
      "type": "function"
    },
    {
      "inputs": [
        {
          "internalType": "bytes4",
          "name": "interfaceId",
          "type": "bytes4"
        }
      ],
      "name": "supportsInterface",
      "outputs": [
        {
          "internalType": "bool",
          "name": "",
          "type": "bool"
        }
      ],
      "stateMutability": "view",
      "type": "function"
    }
  ],
  "transactionHash": "0xccbba9a5d3f9cff96aeee778321e9b4c2ef686b43f5a100dc449a8f704ba62f6",
  "args": [
    "0xe00e66A2713E924b9CC56319752021747dDDEaA3",
    "0x3aE57359041f6b59E42C87F021Cf99758ABca528",
    "0xC88856AaA172152B7f10AD28443C372033165246"
  ],
  "numDeployments": 2,
  "solcInputHash": "9e5974ef27857c29618620a54157f989",
  "bytecode": "0x60a06040523480156200001157600080fd5b5060405162001766380380620017668339810160408190526200003491620001ba565b6001600160a01b0383166080526200006d7fa49807205ce4d355092ef5a8a18f56e8913cf4a201fbe287825b095693c2177582620000a2565b6200007a600082620000a2565b50600480546001600160a01b0319166001600160a01b03929092169190911790555062000204565b6000828152602081815260408083206001600160a01b038516845290915290205460ff1662000141576000828152602081815260408083206001600160a01b03851684529091529020805460ff191660011790556200010062000145565b6001600160a01b0316816001600160a01b0316837f2f8788117e7eff1d82e926ec794901d17c78024a50270940304540a733656f0d60405160405180910390a45b5050565b60006200015c6200016160201b620009cc1760201c565b905090565b6080516000906001600160a01b0316330362000184575060131936013560601c90565b6200015c6200019960201b62000a151760201c565b3390565b80516001600160a01b0381168114620001b557600080fd5b919050565b600080600060608486031215620001d057600080fd5b620001db846200019d565b9250620001eb602085016200019d565b9150620001fb604085016200019d565b90509250925092565b60805161153f620002276000396000818161020d01526109d0015261153f6000f3fe608060405234801561001057600080fd5b50600436106101165760003560e01c8063572b6c05116100a2578063a217fddf11610071578063a217fddf14610278578063cde4e8f714610280578063d547741f14610293578063ece53132146102a6578063f088d547146102b957600080fd5b8063572b6c05146101fd57806370a082311461023d57806375b238fc1461025057806391d148541461026557600080fd5b806318b20071116100e957806318b2007114610180578063248a9ca3146101935780632f2ff15d146101c457806336568abe146101d757806340753a76146101ea57600080fd5b806301ffc9a71461011b57806307e75a6f1461014357806310c4e8b01461015857806316c38b3c1461016d575b600080fd5b61012e610129366004611191565b6102cc565b60405190151581526020015b60405180910390f35b6101566101513660046111d7565b610303565b005b610160610381565b60405161013a91906111f2565b61015661017b366004611258565b610464565b61015661018e366004611275565b6104db565b6101b66101a1366004611275565b60009081526020819052604090206001015490565b60405190815260200161013a565b6101566101d236600461128e565b610544565b6101566101e536600461128e565b61056e565b6101566101f8366004611275565b6105f8565b61012e61020b3660046111d7565b7f00000000000000000000000000000000000000000000000000000000000000006001600160a01b0390811691161490565b6101b661024b3660046111d7565b610676565b6101b66000805160206114ea83398151915281565b61012e61027336600461128e565b61068c565b6101b6600081565b61015661028e3660046112ba565b6106b5565b6101566102a136600461128e565b610772565b6101566102b43660046111d7565b610797565b6101566102c73660046111d7565b6108e8565b60006001600160e01b03198216637965db0b60e01b14806102fd57506301ffc9a760e01b6001600160e01b03198316145b92915050565b61031d6000805160206114ea833981519152610273610a19565b604051806040016040528060128152602001716d697373696e672061646d696e20726f6c6560701b8152509061036f5760405162461bcd60e51b81526004016103669190611353565b60405180910390fd5b5061037d6001826000610a23565b5050565b6060600061038f6001610a43565b90508067ffffffffffffffff8111156103aa576103aa611386565b6040519080825280602002602001820160405280156103ef57816020015b60408051808201909152600080825260208201528152602001906001900390816103c85790505b50915060005b8181101561045f5760008061040b600184610a4e565b915091506040518060400160405280836001600160a01b031681526020018281525085848151811061043f5761043f61139c565b602002602001018190525050508080610457906113c8565b9150506103f5565b505090565b61047e6000805160206114ea833981519152610273610a19565b604051806040016040528060128152602001716d697373696e672061646d696e20726f6c6560701b815250906104c75760405162461bcd60e51b81526004016103669190611353565b506007805460ff1916911515919091179055565b6104f56000805160206114ea833981519152610273610a19565b604051806040016040528060128152602001716d697373696e672061646d696e20726f6c6560701b8152509061053e5760405162461bcd60e51b81526004016103669190611353565b50600555565b60008281526020819052604090206001015461055f81610a6c565b6105698383610a80565b505050565b610576610a19565b6001600160a01b0316816001600160a01b0316146105ee5760405162461bcd60e51b815260206004820152602f60248201527f416363657373436f6e74726f6c3a2063616e206f6e6c792072656e6f756e636560448201526e103937b632b9903337b91039b2b63360891b6064820152608401610366565b61037d8282610b05565b6106126000805160206114ea833981519152610273610a19565b604051806040016040528060128152602001716d697373696e672061646d696e20726f6c6560701b8152509061065b5760405162461bcd60e51b81526004016103669190611353565b50806006600082825461066e91906113e1565b909155505050565b600080610684600184610b88565b949350505050565b6000918252602082815260408084206001600160a01b0393909316845291905290205460ff1690565b6106cf6000805160206114ea833981519152610273610a19565b604051806040016040528060128152602001716d697373696e672061646d696e20726f6c6560701b815250906107185760405162461bcd60e51b81526004016103669190611353565b508060005b8181101561076c5761075984848381811061073a5761073a61139c565b905060200201602081019061074f91906111d7565b6001906000610a23565b5080610764816113c8565b91505061071d565b50505050565b60008281526020819052604090206001015461078d81610a6c565b6105698383610b05565b6107b16000805160206114ea833981519152610273610a19565b604051806040016040528060128152602001716d697373696e672061646d696e20726f6c6560701b815250906107fa5760405162461bcd60e51b81526004016103669190611353565b50600480546040516370a0823160e01b815230928101929092526000916001600160a01b03909116906370a0823190602401602060405180830381865afa158015610849573d6000803e3d6000fd5b505050506040513d601f19601f8201168201806040525081019061086d91906113f4565b6004805460405163a9059cbb60e01b81526001600160a01b038681169382019390935260248101849052929350169063a9059cbb906044016020604051808303816000875af11580156108c4573d6000803e3d6000fd5b505050506040513d601f19601f82011682018060405250810190610569919061140d565b60075460ff161561092c5760405162461bcd60e51b815260206004820152600e60248201526d189d5e5a5b99c81cdd1bdc1c195960921b6044820152606401610366565b61094f610937610a19565b6005546004546001600160a01b031691903090610ba0565b6006805490600061095f8361142a565b9091555061096a9050565b6000610977600183610b88565b915061099390508261098a8360016113e1565b60019190610a23565b506040516001600160a01b038316907f233e08777131763a85257b15eafc9f96ef08f259653d9944301ff924b3917cf590600090a25050565b60007f00000000000000000000000000000000000000000000000000000000000000006001600160a01b03163303610a0b575060131936013560601c90565b503390565b905090565b3390565b6000610a106109cc565b6000610a39846001600160a01b03851684610bfa565b90505b9392505050565b60006102fd82610c17565b6000808080610a5d8686610c22565b909450925050505b9250929050565b610a7d81610a78610a19565b610c4d565b50565b610a8a828261068c565b61037d576000828152602081815260408083206001600160a01b03851684529091529020805460ff19166001179055610ac1610a19565b6001600160a01b0316816001600160a01b0316837f2f8788117e7eff1d82e926ec794901d17c78024a50270940304540a733656f0d60405160405180910390a45050565b610b0f828261068c565b1561037d576000828152602081815260408083206001600160a01b03851684529091529020805460ff19169055610b44610a19565b6001600160a01b0316816001600160a01b0316837ff6391f5c32d9c69d2a47ea670b442974b53935d1edc7fd64eb21e047a839171b60405160405180910390a45050565b6000808080610a5d866001600160a01b038716610cb1565b604080516001600160a01b0385811660248301528416604482015260648082018490528251808303909101815260849091019091526020810180516001600160e01b03166323b872dd60e01b17905261076c908590610ceb565b60008281526002840160205260408120829055610a398484610dbd565b60006102fd82610dc9565b60008080610c308585610dd3565b600081815260029690960160205260409095205494959350505050565b610c57828261068c565b61037d57610c6f816001600160a01b03166014610ddf565b610c7a836020610ddf565b604051602001610c8b929190611441565b60408051601f198184030181529082905262461bcd60e51b825261036691600401611353565b6000818152600283016020526040812054819080610ce057610cd38585610f7b565b925060009150610a659050565b600192509050610a65565b6000610d40826040518060400160405280602081526020017f5361666545524332303a206c6f772d6c6576656c2063616c6c206661696c6564815250856001600160a01b0316610f879092919063ffffffff16565b8051909150156105695780806020019051810190610d5e919061140d565b6105695760405162461bcd60e51b815260206004820152602a60248201527f5361666545524332303a204552433230206f7065726174696f6e20646964206e6044820152691bdd081cdd58d8d9595960b21b6064820152608401610366565b6000610a3c8383610f96565b60006102fd825490565b6000610a3c8383610fe5565b60606000610dee8360026114b6565b610df99060026113e1565b67ffffffffffffffff811115610e1157610e11611386565b6040519080825280601f01601f191660200182016040528015610e3b576020820181803683370190505b509050600360fc1b81600081518110610e5657610e5661139c565b60200101906001600160f81b031916908160001a905350600f60fb1b81600181518110610e8557610e8561139c565b60200101906001600160f81b031916908160001a9053506000610ea98460026114b6565b610eb49060016113e1565b90505b6001811115610f2c576f181899199a1a9b1b9c1cb0b131b232b360811b85600f1660108110610ee857610ee861139c565b1a60f81b828281518110610efe57610efe61139c565b60200101906001600160f81b031916908160001a90535060049490941c93610f258161142a565b9050610eb7565b508315610a3c5760405162461bcd60e51b815260206004820181905260248201527f537472696e67733a20686578206c656e67746820696e73756666696369656e746044820152606401610366565b6000610a3c838361100f565b6060610a398484600085611027565b6000818152600183016020526040812054610fdd575081546001818101845560008481526020808220909301849055845484825282860190935260409020919091556102fd565b5060006102fd565b6000826000018281548110610ffc57610ffc61139c565b9060005260206000200154905092915050565b60008181526001830160205260408120541515610a3c565b6060824710156110885760405162461bcd60e51b815260206004820152602660248201527f416464726573733a20696e73756666696369656e742062616c616e636520666f6044820152651c8818d85b1b60d21b6064820152608401610366565b6001600160a01b0385163b6110df5760405162461bcd60e51b815260206004820152601d60248201527f416464726573733a2063616c6c20746f206e6f6e2d636f6e74726163740000006044820152606401610366565b600080866001600160a01b031685876040516110fb91906114cd565b60006040518083038185875af1925050503d8060008114611138576040519150601f19603f3d011682016040523d82523d6000602084013e61113d565b606091505b509150915061114d828286611158565b979650505050505050565b60608315611167575081610a3c565b8251156111775782518084602001fd5b8160405162461bcd60e51b81526004016103669190611353565b6000602082840312156111a357600080fd5b81356001600160e01b031981168114610a3c57600080fd5b80356001600160a01b03811681146111d257600080fd5b919050565b6000602082840312156111e957600080fd5b610a3c826111bb565b602080825282518282018190526000919060409081850190868401855b8281101561123d57815180516001600160a01b0316855286015186850152928401929085019060010161120f565b5091979650505050505050565b8015158114610a7d57600080fd5b60006020828403121561126a57600080fd5b8135610a3c8161124a565b60006020828403121561128757600080fd5b5035919050565b600080604083850312156112a157600080fd5b823591506112b1602084016111bb565b90509250929050565b600080602083850312156112cd57600080fd5b823567ffffffffffffffff808211156112e557600080fd5b818501915085601f8301126112f957600080fd5b81358181111561130857600080fd5b8660208260051b850101111561131d57600080fd5b60209290920196919550909350505050565b60005b8381101561134a578181015183820152602001611332565b50506000910152565b602081526000825180602084015261137281604085016020870161132f565b601f01601f19169190910160400192915050565b634e487b7160e01b600052604160045260246000fd5b634e487b7160e01b600052603260045260246000fd5b634e487b7160e01b600052601160045260246000fd5b6000600182016113da576113da6113b2565b5060010190565b808201808211156102fd576102fd6113b2565b60006020828403121561140657600080fd5b5051919050565b60006020828403121561141f57600080fd5b8151610a3c8161124a565b600081611439576114396113b2565b506000190190565b7f416363657373436f6e74726f6c3a206163636f756e742000000000000000000081526000835161147981601785016020880161132f565b7001034b99036b4b9b9b4b733903937b6329607d1b60179184019182015283516114aa81602884016020880161132f565b01602801949350505050565b80820281158282048414176102fd576102fd6113b2565b600082516114df81846020870161132f565b919091019291505056fea49807205ce4d355092ef5a8a18f56e8913cf4a201fbe287825b095693c21775a2646970667358221220b628477ebede8917ee367e84f1361406ebc972dc717b95a6046b2a221cfe1d2864736f6c63430008110033",
  "devdoc": {
    "kind": "dev",
    "methods": {
      "getRoleAdmin(bytes32)": {
        "details": "Returns the admin role that controls `role`. See {grantRole} and {revokeRole}. To change a role's admin, use {_setRoleAdmin}."
      },
      "grantRole(bytes32,address)": {
        "details": "Grants `role` to `account`. If `account` had not been already granted `role`, emits a {RoleGranted} event. Requirements: - the caller must have ``role``'s admin role. May emit a {RoleGranted} event."
      },
      "hasRole(bytes32,address)": {
        "details": "Returns `true` if `account` has been granted `role`."
      },
      "renounceRole(bytes32,address)": {
        "details": "Revokes `role` from the calling account. Roles are often managed via {grantRole} and {revokeRole}: this function's purpose is to provide a mechanism for accounts to lose their privileges if they are compromised (such as when a trusted device is misplaced). If the calling account had been revoked `role`, emits a {RoleRevoked} event. Requirements: - the caller must be `account`. May emit a {RoleRevoked} event."
      },
      "revokeRole(bytes32,address)": {
        "details": "Revokes `role` from `account`. If `account` had been granted `role`, emits a {RoleRevoked} event. Requirements: - the caller must have ``role``'s admin role. May emit a {RoleRevoked} event."
      },
      "supportsInterface(bytes4)": {
        "details": "See {IERC165-supportsInterface}."
      }
    },
    "version": 1
  },
  "userdoc": {
    "kind": "user",
    "methods": {},
    "version": 1
  },
  "storageLayout": {
    "storage": [
      {
        "astId": 24,
        "contract": "contracts/AllowListSetter.sol:AllowListSetter",
        "label": "_roles",
        "offset": 0,
        "slot": "0",
        "type": "t_mapping(t_bytes32,t_struct(RoleData)19_storage)"
      },
      {
        "astId": 3206,
        "contract": "contracts/AllowListSetter.sol:AllowListSetter",
        "label": "_allowListSpots",
        "offset": 0,
        "slot": "1",
        "type": "t_struct(AddressToUintMap)2135_storage"
      },
      {
        "astId": 3209,
        "contract": "contracts/AllowListSetter.sol:AllowListSetter",
        "label": "_wootGump",
        "offset": 0,
        "slot": "4",
        "type": "t_contract(IERC20)549"
      },
      {
        "astId": 3211,
        "contract": "contracts/AllowListSetter.sol:AllowListSetter",
        "label": "currentPrice",
        "offset": 0,
        "slot": "5",
        "type": "t_uint256"
      },
      {
        "astId": 3213,
        "contract": "contracts/AllowListSetter.sol:AllowListSetter",
        "label": "supply",
        "offset": 0,
        "slot": "6",
        "type": "t_uint256"
      },
      {
        "astId": 3215,
        "contract": "contracts/AllowListSetter.sol:AllowListSetter",
        "label": "paused",
        "offset": 0,
        "slot": "7",
        "type": "t_bool"
      }
    ],
    "types": {
      "t_address": {
        "encoding": "inplace",
        "label": "address",
        "numberOfBytes": "20"
      },
      "t_array(t_bytes32)dyn_storage": {
        "base": "t_bytes32",
        "encoding": "dynamic_array",
        "label": "bytes32[]",
        "numberOfBytes": "32"
      },
      "t_bool": {
        "encoding": "inplace",
        "label": "bool",
        "numberOfBytes": "1"
      },
      "t_bytes32": {
        "encoding": "inplace",
        "label": "bytes32",
        "numberOfBytes": "32"
      },
      "t_contract(IERC20)549": {
        "encoding": "inplace",
        "label": "contract IERC20",
        "numberOfBytes": "20"
      },
      "t_mapping(t_address,t_bool)": {
        "encoding": "mapping",
        "key": "t_address",
        "label": "mapping(address => bool)",
        "numberOfBytes": "32",
        "value": "t_bool"
      },
      "t_mapping(t_bytes32,t_bytes32)": {
        "encoding": "mapping",
        "key": "t_bytes32",
        "label": "mapping(bytes32 => bytes32)",
        "numberOfBytes": "32",
        "value": "t_bytes32"
      },
      "t_mapping(t_bytes32,t_struct(RoleData)19_storage)": {
        "encoding": "mapping",
        "key": "t_bytes32",
        "label": "mapping(bytes32 => struct AccessControl.RoleData)",
        "numberOfBytes": "32",
        "value": "t_struct(RoleData)19_storage"
      },
      "t_mapping(t_bytes32,t_uint256)": {
        "encoding": "mapping",
        "key": "t_bytes32",
        "label": "mapping(bytes32 => uint256)",
        "numberOfBytes": "32",
        "value": "t_uint256"
      },
      "t_struct(AddressToUintMap)2135_storage": {
        "encoding": "inplace",
        "label": "struct EnumerableMap.AddressToUintMap",
        "members": [
          {
            "astId": 2134,
            "contract": "contracts/AllowListSetter.sol:AllowListSetter",
            "label": "_inner",
            "offset": 0,
            "slot": "0",
            "type": "t_struct(Bytes32ToBytes32Map)1461_storage"
          }
        ],
        "numberOfBytes": "96"
      },
      "t_struct(Bytes32Set)2772_storage": {
        "encoding": "inplace",
        "label": "struct EnumerableSet.Bytes32Set",
        "members": [
          {
            "astId": 2771,
            "contract": "contracts/AllowListSetter.sol:AllowListSetter",
            "label": "_inner",
            "offset": 0,
            "slot": "0",
            "type": "t_struct(Set)2578_storage"
          }
        ],
        "numberOfBytes": "64"
      },
      "t_struct(Bytes32ToBytes32Map)1461_storage": {
        "encoding": "inplace",
        "label": "struct EnumerableMap.Bytes32ToBytes32Map",
        "members": [
          {
            "astId": 1456,
            "contract": "contracts/AllowListSetter.sol:AllowListSetter",
            "label": "_keys",
            "offset": 0,
            "slot": "0",
            "type": "t_struct(Bytes32Set)2772_storage"
          },
          {
            "astId": 1460,
            "contract": "contracts/AllowListSetter.sol:AllowListSetter",
            "label": "_values",
            "offset": 0,
            "slot": "2",
            "type": "t_mapping(t_bytes32,t_bytes32)"
          }
        ],
        "numberOfBytes": "96"
      },
      "t_struct(RoleData)19_storage": {
        "encoding": "inplace",
        "label": "struct AccessControl.RoleData",
        "members": [
          {
            "astId": 16,
            "contract": "contracts/AllowListSetter.sol:AllowListSetter",
            "label": "members",
            "offset": 0,
            "slot": "0",
            "type": "t_mapping(t_address,t_bool)"
          },
          {
            "astId": 18,
            "contract": "contracts/AllowListSetter.sol:AllowListSetter",
            "label": "adminRole",
            "offset": 0,
            "slot": "1",
            "type": "t_bytes32"
          }
        ],
        "numberOfBytes": "64"
      },
      "t_struct(Set)2578_storage": {
        "encoding": "inplace",
        "label": "struct EnumerableSet.Set",
        "members": [
          {
            "astId": 2573,
            "contract": "contracts/AllowListSetter.sol:AllowListSetter",
            "label": "_values",
            "offset": 0,
            "slot": "0",
            "type": "t_array(t_bytes32)dyn_storage"
          },
          {
            "astId": 2577,
            "contract": "contracts/AllowListSetter.sol:AllowListSetter",
            "label": "_indexes",
            "offset": 0,
            "slot": "1",
            "type": "t_mapping(t_bytes32,t_uint256)"
          }
        ],
        "numberOfBytes": "64"
      },
      "t_uint256": {
        "encoding": "inplace",
        "label": "uint256",
        "numberOfBytes": "32"
      }
    }
  }
}