{
  "address": "0xdF77e978BBEEd565938dA78E639111339Dc5E94F",
  "abi": [
    {
      "inputs": [
        {
          "internalType": "address",
          "name": "trustedForwarder",
          "type": "address"
        },
        {
          "internalType": "address",
          "name": "wootGumpAddress",
          "type": "address"
        },
        {
          "internalType": "address",
          "name": "initialOwner",
          "type": "address"
        }
      ],
      "stateMutability": "nonpayable",
      "type": "constructor"
    },
    {
      "anonymous": false,
      "inputs": [
        {
          "indexed": true,
          "internalType": "address",
          "name": "account",
          "type": "address"
        }
      ],
      "name": "Purchase",
      "type": "event"
    },
    {
      "anonymous": false,
      "inputs": [
        {
          "indexed": true,
          "internalType": "bytes32",
          "name": "role",
          "type": "bytes32"
        },
        {
          "indexed": true,
          "internalType": "bytes32",
          "name": "previousAdminRole",
          "type": "bytes32"
        },
        {
          "indexed": true,
          "internalType": "bytes32",
          "name": "newAdminRole",
          "type": "bytes32"
        }
      ],
      "name": "RoleAdminChanged",
      "type": "event"
    },
    {
      "anonymous": false,
      "inputs": [
        {
          "indexed": true,
          "internalType": "bytes32",
          "name": "role",
          "type": "bytes32"
        },
        {
          "indexed": true,
          "internalType": "address",
          "name": "account",
          "type": "address"
        },
        {
          "indexed": true,
          "internalType": "address",
          "name": "sender",
          "type": "address"
        }
      ],
      "name": "RoleGranted",
      "type": "event"
    },
    {
      "anonymous": false,
      "inputs": [
        {
          "indexed": true,
          "internalType": "bytes32",
          "name": "role",
          "type": "bytes32"
        },
        {
          "indexed": true,
          "internalType": "address",
          "name": "account",
          "type": "address"
        },
        {
          "indexed": true,
          "internalType": "address",
          "name": "sender",
          "type": "address"
        }
      ],
      "name": "RoleRevoked",
      "type": "event"
    },
    {
      "anonymous": false,
      "inputs": [
        {
          "indexed": false,
          "internalType": "uint256",
          "name": "amount",
          "type": "uint256"
        }
      ],
      "name": "SupplyAdded",
      "type": "event"
    },
    {
      "inputs": [],
      "name": "ADMIN_ROLE",
      "outputs": [
        {
          "internalType": "bytes32",
          "name": "",
          "type": "bytes32"
        }
      ],
      "stateMutability": "view",
      "type": "function"
    },
    {
      "inputs": [],
      "name": "DEFAULT_ADMIN_ROLE",
      "outputs": [
        {
          "internalType": "bytes32",
          "name": "",
          "type": "bytes32"
        }
      ],
      "stateMutability": "view",
      "type": "function"
    },
    {
      "inputs": [
        {
          "internalType": "uint256",
          "name": "amount",
          "type": "uint256"
        }
      ],
      "name": "addSupply",
      "outputs": [],
      "stateMutability": "nonpayable",
      "type": "function"
    },
    {
      "inputs": [],
      "name": "all",
      "outputs": [
        {
          "components": [
            {
              "internalType": "address",
              "name": "account",
              "type": "address"
            },
            {
              "internalType": "uint256",
              "name": "balance",
              "type": "uint256"
            }
          ],
          "internalType": "struct AllowListSetter.Balance[]",
          "name": "balances",
          "type": "tuple[]"
        }
      ],
      "stateMutability": "view",
      "type": "function"
    },
    {
      "inputs": [
        {
          "internalType": "address",
          "name": "account",
          "type": "address"
        }
      ],
      "name": "balanceOf",
      "outputs": [
        {
          "internalType": "uint256",
          "name": "",
          "type": "uint256"
        }
      ],
      "stateMutability": "view",
      "type": "function"
    },
    {
      "inputs": [
        {
          "internalType": "address[]",
          "name": "accounts",
          "type": "address[]"
        }
      ],
      "name": "bulkConsume",
      "outputs": [],
      "stateMutability": "nonpayable",
      "type": "function"
    },
    {
      "inputs": [
        {
          "internalType": "address",
          "name": "account",
          "type": "address"
        }
      ],
      "name": "buy",
      "outputs": [],
      "stateMutability": "nonpayable",
      "type": "function"
    },
    {
      "inputs": [
        {
          "internalType": "address",
          "name": "account",
          "type": "address"
        }
      ],
      "name": "consume",
      "outputs": [],
      "stateMutability": "nonpayable",
      "type": "function"
    },
    {
      "inputs": [],
      "name": "currentPrice",
      "outputs": [
        {
          "internalType": "uint256",
          "name": "",
          "type": "uint256"
        }
      ],
      "stateMutability": "view",
      "type": "function"
    },
    {
      "inputs": [
        {
          "internalType": "address",
          "name": "to",
          "type": "address"
        }
      ],
      "name": "drain",
      "outputs": [],
      "stateMutability": "nonpayable",
      "type": "function"
    },
    {
      "inputs": [
        {
          "internalType": "bytes32",
          "name": "role",
          "type": "bytes32"
        }
      ],
      "name": "getRoleAdmin",
      "outputs": [
        {
          "internalType": "bytes32",
          "name": "",
          "type": "bytes32"
        }
      ],
      "stateMutability": "view",
      "type": "function"
    },
    {
      "inputs": [
        {
          "internalType": "bytes32",
          "name": "role",
          "type": "bytes32"
        },
        {
          "internalType": "address",
          "name": "account",
          "type": "address"
        }
      ],
      "name": "grantRole",
      "outputs": [],
      "stateMutability": "nonpayable",
      "type": "function"
    },
    {
      "inputs": [
        {
          "internalType": "bytes32",
          "name": "role",
          "type": "bytes32"
        },
        {
          "internalType": "address",
          "name": "account",
          "type": "address"
        }
      ],
      "name": "hasRole",
      "outputs": [
        {
          "internalType": "bool",
          "name": "",
          "type": "bool"
        }
      ],
      "stateMutability": "view",
      "type": "function"
    },
    {
      "inputs": [
        {
          "internalType": "address",
          "name": "forwarder",
          "type": "address"
        }
      ],
      "name": "isTrustedForwarder",
      "outputs": [
        {
          "internalType": "bool",
          "name": "",
          "type": "bool"
        }
      ],
      "stateMutability": "view",
      "type": "function"
    },
    {
      "inputs": [],
      "name": "paused",
      "outputs": [
        {
          "internalType": "bool",
          "name": "",
          "type": "bool"
        }
      ],
      "stateMutability": "view",
      "type": "function"
    },
    {
      "inputs": [
        {
          "internalType": "uint256",
          "name": "amount",
          "type": "uint256"
        }
      ],
      "name": "removeSupply",
      "outputs": [],
      "stateMutability": "nonpayable",
      "type": "function"
    },
    {
      "inputs": [
        {
          "internalType": "bytes32",
          "name": "role",
          "type": "bytes32"
        },
        {
          "internalType": "address",
          "name": "account",
          "type": "address"
        }
      ],
      "name": "renounceRole",
      "outputs": [],
      "stateMutability": "nonpayable",
      "type": "function"
    },
    {
      "inputs": [
        {
          "internalType": "bytes32",
          "name": "role",
          "type": "bytes32"
        },
        {
          "internalType": "address",
          "name": "account",
          "type": "address"
        }
      ],
      "name": "revokeRole",
      "outputs": [],
      "stateMutability": "nonpayable",
      "type": "function"
    },
    {
      "inputs": [
        {
          "internalType": "uint256",
          "name": "price",
          "type": "uint256"
        }
      ],
      "name": "setCurrentPrice",
      "outputs": [],
      "stateMutability": "nonpayable",
      "type": "function"
    },
    {
      "inputs": [
        {
          "internalType": "bool",
          "name": "isPaused",
          "type": "bool"
        }
      ],
      "name": "setPaused",
      "outputs": [],
      "stateMutability": "nonpayable",
      "type": "function"
    },
    {
      "inputs": [],
      "name": "supply",
      "outputs": [
        {
          "internalType": "uint256",
          "name": "",
          "type": "uint256"
        }
      ],
      "stateMutability": "view",
      "type": "function"
    },
    {
      "inputs": [
        {
          "internalType": "bytes4",
          "name": "interfaceId",
          "type": "bytes4"
        }
      ],
      "name": "supportsInterface",
      "outputs": [
        {
          "internalType": "bool",
          "name": "",
          "type": "bool"
        }
      ],
      "stateMutability": "view",
      "type": "function"
    }
  ],
  "transactionHash": "0xc587d32f19e7482278e516845aa927109c32051e00f27bd1bc48e92e97c7a03b",
  "args": [
    "0xe00e66A2713E924b9CC56319752021747dDDEaA3",
    "0x3aE57359041f6b59E42C87F021Cf99758ABca528",
    "0xB4755f10D32B623ccd9C60E9ea2d9ca0fDD5e0Da"
  ],
  "numDeployments": 1,
  "solcInputHash": "2a1bd3922af1fe0dca0ad12885e66b6d",
  "bytecode": "0x60a06040523480156200001157600080fd5b506040516200189b3803806200189b8339810160408190526200003491620001ba565b6001600160a01b0383166080526200006d7fa49807205ce4d355092ef5a8a18f56e8913cf4a201fbe287825b095693c2177582620000a2565b6200007a600082620000a2565b50600480546001600160a01b0319166001600160a01b03929092169190911790555062000204565b6000828152602081815260408083206001600160a01b038516845290915290205460ff1662000141576000828152602081815260408083206001600160a01b03851684529091529020805460ff191660011790556200010062000145565b6001600160a01b0316816001600160a01b0316837f2f8788117e7eff1d82e926ec794901d17c78024a50270940304540a733656f0d60405160405180910390a45b5050565b60006200015c6200016160201b62000aee1760201c565b905090565b6080516000906001600160a01b0316330362000184575060131936013560601c90565b6200015c6200019960201b62000b371760201c565b3390565b80516001600160a01b0381168114620001b557600080fd5b919050565b600080600060608486031215620001d057600080fd5b620001db846200019d565b9250620001eb602085016200019d565b9150620001fb604085016200019d565b90509250925092565b60805161167462000227600039600081816102420152610af201526116746000f3fe608060405234801561001057600080fd5b50600436106101425760003560e01c80635c975abb116100b8578063a217fddf1161007c578063a217fddf146102c3578063cde4e8f7146102cb578063d547741f146102de578063e7a35718146102f1578063ece5313214610304578063f088d5471461031757600080fd5b80635c975abb1461027257806370a082311461027f57806375b238fc1461029257806391d14854146102a75780639d1b464a146102ba57600080fd5b806318b200711161010a57806318b20071146101c3578063248a9ca3146101d65780632f2ff15d146101f957806336568abe1461020c57806340753a761461021f578063572b6c051461023257600080fd5b806301ffc9a714610147578063047fc9aa1461016f57806307e75a6f1461018657806310c4e8b01461019b57806316c38b3c146101b0575b600080fd5b61015a6101553660046112b3565b61032a565b60405190151581526020015b60405180910390f35b61017860065481565b604051908152602001610166565b6101996101943660046112f9565b610361565b005b6101a36103df565b6040516101669190611314565b6101996101be36600461137a565b6104c2565b6101996101d1366004611397565b610539565b6101786101e4366004611397565b60009081526020819052604090206001015490565b6101996102073660046113b0565b6105a2565b61019961021a3660046113b0565b6105cc565b61019961022d366004611397565b610656565b61015a6102403660046112f9565b7f00000000000000000000000000000000000000000000000000000000000000006001600160a01b0390811691161490565b60075461015a9060ff1681565b61017861028d3660046112f9565b6106d4565b61017860008051602061161f83398151915281565b61015a6102b53660046113b0565b6106ea565b61017860055481565b610178600081565b6101996102d93660046113dc565b610713565b6101996102ec3660046113b0565b6107d0565b6101996102ff366004611397565b6107f5565b6101996103123660046112f9565b61087c565b6101996103253660046112f9565b6109cd565b60006001600160e01b03198216637965db0b60e01b148061035b57506301ffc9a760e01b6001600160e01b03198316145b92915050565b61037b60008051602061161f8339815191526102b5610b3b565b604051806040016040528060128152602001716d697373696e672061646d696e20726f6c6560701b815250906103cd5760405162461bcd60e51b81526004016103c49190611475565b60405180910390fd5b506103db6001826000610b45565b5050565b606060006103ed6001610b65565b90508067ffffffffffffffff811115610408576104086114a8565b60405190808252806020026020018201604052801561044d57816020015b60408051808201909152600080825260208201528152602001906001900390816104265790505b50915060005b818110156104bd57600080610469600184610b70565b915091506040518060400160405280836001600160a01b031681526020018281525085848151811061049d5761049d6114be565b6020026020010181905250505080806104b5906114ea565b915050610453565b505090565b6104dc60008051602061161f8339815191526102b5610b3b565b604051806040016040528060128152602001716d697373696e672061646d696e20726f6c6560701b815250906105255760405162461bcd60e51b81526004016103c49190611475565b506007805460ff1916911515919091179055565b61055360008051602061161f8339815191526102b5610b3b565b604051806040016040528060128152602001716d697373696e672061646d696e20726f6c6560701b8152509061059c5760405162461bcd60e51b81526004016103c49190611475565b50600555565b6000828152602081905260409020600101546105bd81610b8e565b6105c78383610ba2565b505050565b6105d4610b3b565b6001600160a01b0316816001600160a01b03161461064c5760405162461bcd60e51b815260206004820152602f60248201527f416363657373436f6e74726f6c3a2063616e206f6e6c792072656e6f756e636560448201526e103937b632b9903337b91039b2b63360891b60648201526084016103c4565b6103db8282610c27565b61067060008051602061161f8339815191526102b5610b3b565b604051806040016040528060128152602001716d697373696e672061646d696e20726f6c6560701b815250906106b95760405162461bcd60e51b81526004016103c49190611475565b5080600660008282546106cc9190611503565b909155505050565b6000806106e2600184610caa565b949350505050565b6000918252602082815260408084206001600160a01b0393909316845291905290205460ff1690565b61072d60008051602061161f8339815191526102b5610b3b565b604051806040016040528060128152602001716d697373696e672061646d696e20726f6c6560701b815250906107765760405162461bcd60e51b81526004016103c49190611475565b508060005b818110156107ca576107b7848483818110610798576107986114be565b90506020020160208101906107ad91906112f9565b6001906000610b45565b50806107c2816114ea565b91505061077b565b50505050565b6000828152602081905260409020600101546107eb81610b8e565b6105c78383610c27565b61080f60008051602061161f8339815191526102b5610b3b565b604051806040016040528060128152602001716d697373696e672061646d696e20726f6c6560701b815250906108585760405162461bcd60e51b81526004016103c49190611475565b50600654811061086a57506000600655565b80600660008282546106cc9190611516565b61089660008051602061161f8339815191526102b5610b3b565b604051806040016040528060128152602001716d697373696e672061646d696e20726f6c6560701b815250906108df5760405162461bcd60e51b81526004016103c49190611475565b50600480546040516370a0823160e01b815230928101929092526000916001600160a01b03909116906370a0823190602401602060405180830381865afa15801561092e573d6000803e3d6000fd5b505050506040513d601f19601f820116820180604052508101906109529190611529565b6004805460405163a9059cbb60e01b81526001600160a01b038681169382019390935260248101849052929350169063a9059cbb906044016020604051808303816000875af11580156109a9573d6000803e3d6000fd5b505050506040513d601f19601f820116820180604052508101906105c79190611542565b60075460ff1615610a115760405162461bcd60e51b815260206004820152600e60248201526d189d5e5a5b99c81cdd1bdc1c195960921b60448201526064016103c4565b600060065411610a545760405162461bcd60e51b815260206004820152600e60248201526d6e6f206d6f726520737570706c7960901b60448201526064016103c4565b60068054906000610a648361155f565b9190505550610a8c610a74610b3b565b6005546004546001600160a01b031691903090610cc2565b6000610a99600183610caa565b9150610ab5905082610aac836001611503565b60019190610b45565b506040516001600160a01b038316907f233e08777131763a85257b15eafc9f96ef08f259653d9944301ff924b3917cf590600090a25050565b60007f00000000000000000000000000000000000000000000000000000000000000006001600160a01b03163303610b2d575060131936013560601c90565b503390565b905090565b3390565b6000610b32610aee565b6000610b5b846001600160a01b03851684610d1c565b90505b9392505050565b600061035b82610d39565b6000808080610b7f8686610d44565b909450925050505b9250929050565b610b9f81610b9a610b3b565b610d6f565b50565b610bac82826106ea565b6103db576000828152602081815260408083206001600160a01b03851684529091529020805460ff19166001179055610be3610b3b565b6001600160a01b0316816001600160a01b0316837f2f8788117e7eff1d82e926ec794901d17c78024a50270940304540a733656f0d60405160405180910390a45050565b610c3182826106ea565b156103db576000828152602081815260408083206001600160a01b03851684529091529020805460ff19169055610c66610b3b565b6001600160a01b0316816001600160a01b0316837ff6391f5c32d9c69d2a47ea670b442974b53935d1edc7fd64eb21e047a839171b60405160405180910390a45050565b6000808080610b7f866001600160a01b038716610dd3565b604080516001600160a01b0385811660248301528416604482015260648082018490528251808303909101815260849091019091526020810180516001600160e01b03166323b872dd60e01b1790526107ca908590610e0d565b60008281526002840160205260408120829055610b5b8484610edf565b600061035b82610eeb565b60008080610d528585610ef5565b600081815260029690960160205260409095205494959350505050565b610d7982826106ea565b6103db57610d91816001600160a01b03166014610f01565b610d9c836020610f01565b604051602001610dad929190611576565b60408051601f198184030181529082905262461bcd60e51b82526103c491600401611475565b6000818152600283016020526040812054819080610e0257610df5858561109d565b925060009150610b879050565b600192509050610b87565b6000610e62826040518060400160405280602081526020017f5361666545524332303a206c6f772d6c6576656c2063616c6c206661696c6564815250856001600160a01b03166110a99092919063ffffffff16565b8051909150156105c75780806020019051810190610e809190611542565b6105c75760405162461bcd60e51b815260206004820152602a60248201527f5361666545524332303a204552433230206f7065726174696f6e20646964206e6044820152691bdd081cdd58d8d9595960b21b60648201526084016103c4565b6000610b5e83836110b8565b600061035b825490565b6000610b5e8383611107565b60606000610f108360026115eb565b610f1b906002611503565b67ffffffffffffffff811115610f3357610f336114a8565b6040519080825280601f01601f191660200182016040528015610f5d576020820181803683370190505b509050600360fc1b81600081518110610f7857610f786114be565b60200101906001600160f81b031916908160001a905350600f60fb1b81600181518110610fa757610fa76114be565b60200101906001600160f81b031916908160001a9053506000610fcb8460026115eb565b610fd6906001611503565b90505b600181111561104e576f181899199a1a9b1b9c1cb0b131b232b360811b85600f166010811061100a5761100a6114be565b1a60f81b828281518110611020576110206114be565b60200101906001600160f81b031916908160001a90535060049490941c936110478161155f565b9050610fd9565b508315610b5e5760405162461bcd60e51b815260206004820181905260248201527f537472696e67733a20686578206c656e67746820696e73756666696369656e7460448201526064016103c4565b6000610b5e8383611131565b6060610b5b8484600085611149565b60008181526001830160205260408120546110ff5750815460018181018455600084815260208082209093018490558454848252828601909352604090209190915561035b565b50600061035b565b600082600001828154811061111e5761111e6114be565b9060005260206000200154905092915050565b60008181526001830160205260408120541515610b5e565b6060824710156111aa5760405162461bcd60e51b815260206004820152602660248201527f416464726573733a20696e73756666696369656e742062616c616e636520666f6044820152651c8818d85b1b60d21b60648201526084016103c4565b6001600160a01b0385163b6112015760405162461bcd60e51b815260206004820152601d60248201527f416464726573733a2063616c6c20746f206e6f6e2d636f6e747261637400000060448201526064016103c4565b600080866001600160a01b0316858760405161121d9190611602565b60006040518083038185875af1925050503d806000811461125a576040519150601f19603f3d011682016040523d82523d6000602084013e61125f565b606091505b509150915061126f82828661127a565b979650505050505050565b60608315611289575081610b5e565b8251156112995782518084602001fd5b8160405162461bcd60e51b81526004016103c49190611475565b6000602082840312156112c557600080fd5b81356001600160e01b031981168114610b5e57600080fd5b80356001600160a01b03811681146112f457600080fd5b919050565b60006020828403121561130b57600080fd5b610b5e826112dd565b602080825282518282018190526000919060409081850190868401855b8281101561135f57815180516001600160a01b03168552860151868501529284019290850190600101611331565b5091979650505050505050565b8015158114610b9f57600080fd5b60006020828403121561138c57600080fd5b8135610b5e8161136c565b6000602082840312156113a957600080fd5b5035919050565b600080604083850312156113c357600080fd5b823591506113d3602084016112dd565b90509250929050565b600080602083850312156113ef57600080fd5b823567ffffffffffffffff8082111561140757600080fd5b818501915085601f83011261141b57600080fd5b81358181111561142a57600080fd5b8660208260051b850101111561143f57600080fd5b60209290920196919550909350505050565b60005b8381101561146c578181015183820152602001611454565b50506000910152565b6020815260008251806020840152611494816040850160208701611451565b601f01601f19169190910160400192915050565b634e487b7160e01b600052604160045260246000fd5b634e487b7160e01b600052603260045260246000fd5b634e487b7160e01b600052601160045260246000fd5b6000600182016114fc576114fc6114d4565b5060010190565b8082018082111561035b5761035b6114d4565b8181038181111561035b5761035b6114d4565b60006020828403121561153b57600080fd5b5051919050565b60006020828403121561155457600080fd5b8151610b5e8161136c565b60008161156e5761156e6114d4565b506000190190565b7f416363657373436f6e74726f6c3a206163636f756e74200000000000000000008152600083516115ae816017850160208801611451565b7001034b99036b4b9b9b4b733903937b6329607d1b60179184019182015283516115df816028840160208801611451565b01602801949350505050565b808202811582820484141761035b5761035b6114d4565b60008251611614818460208701611451565b919091019291505056fea49807205ce4d355092ef5a8a18f56e8913cf4a201fbe287825b095693c21775a26469706673582212209adeb03ce4f4c307a88841c890b7f8daaa0c441833720a4084df4fae0670746664736f6c63430008110033",
  "devdoc": {
    "kind": "dev",
    "methods": {
      "getRoleAdmin(bytes32)": {
        "details": "Returns the admin role that controls `role`. See {grantRole} and {revokeRole}. To change a role's admin, use {_setRoleAdmin}."
      },
      "grantRole(bytes32,address)": {
        "details": "Grants `role` to `account`. If `account` had not been already granted `role`, emits a {RoleGranted} event. Requirements: - the caller must have ``role``'s admin role. May emit a {RoleGranted} event."
      },
      "hasRole(bytes32,address)": {
        "details": "Returns `true` if `account` has been granted `role`."
      },
      "renounceRole(bytes32,address)": {
        "details": "Revokes `role` from the calling account. Roles are often managed via {grantRole} and {revokeRole}: this function's purpose is to provide a mechanism for accounts to lose their privileges if they are compromised (such as when a trusted device is misplaced). If the calling account had been revoked `role`, emits a {RoleRevoked} event. Requirements: - the caller must be `account`. May emit a {RoleRevoked} event."
      },
      "revokeRole(bytes32,address)": {
        "details": "Revokes `role` from `account`. If `account` had been granted `role`, emits a {RoleRevoked} event. Requirements: - the caller must have ``role``'s admin role. May emit a {RoleRevoked} event."
      },
      "supportsInterface(bytes4)": {
        "details": "See {IERC165-supportsInterface}."
      }
    },
    "version": 1
  },
  "userdoc": {
    "kind": "user",
    "methods": {},
    "version": 1
  },
  "storageLayout": {
    "storage": [
      {
        "astId": 24,
        "contract": "contracts/AllowListSetter.sol:AllowListSetter",
        "label": "_roles",
        "offset": 0,
        "slot": "0",
        "type": "t_mapping(t_bytes32,t_struct(RoleData)19_storage)"
      },
      {
        "astId": 3206,
        "contract": "contracts/AllowListSetter.sol:AllowListSetter",
        "label": "_allowListSpots",
        "offset": 0,
        "slot": "1",
        "type": "t_struct(AddressToUintMap)2135_storage"
      },
      {
        "astId": 3209,
        "contract": "contracts/AllowListSetter.sol:AllowListSetter",
        "label": "_wootGump",
        "offset": 0,
        "slot": "4",
        "type": "t_contract(IERC20)549"
      },
      {
        "astId": 3211,
        "contract": "contracts/AllowListSetter.sol:AllowListSetter",
        "label": "currentPrice",
        "offset": 0,
        "slot": "5",
        "type": "t_uint256"
      },
      {
        "astId": 3213,
        "contract": "contracts/AllowListSetter.sol:AllowListSetter",
        "label": "supply",
        "offset": 0,
        "slot": "6",
        "type": "t_uint256"
      },
      {
        "astId": 3215,
        "contract": "contracts/AllowListSetter.sol:AllowListSetter",
        "label": "paused",
        "offset": 0,
        "slot": "7",
        "type": "t_bool"
      }
    ],
    "types": {
      "t_address": {
        "encoding": "inplace",
        "label": "address",
        "numberOfBytes": "20"
      },
      "t_array(t_bytes32)dyn_storage": {
        "base": "t_bytes32",
        "encoding": "dynamic_array",
        "label": "bytes32[]",
        "numberOfBytes": "32"
      },
      "t_bool": {
        "encoding": "inplace",
        "label": "bool",
        "numberOfBytes": "1"
      },
      "t_bytes32": {
        "encoding": "inplace",
        "label": "bytes32",
        "numberOfBytes": "32"
      },
      "t_contract(IERC20)549": {
        "encoding": "inplace",
        "label": "contract IERC20",
        "numberOfBytes": "20"
      },
      "t_mapping(t_address,t_bool)": {
        "encoding": "mapping",
        "key": "t_address",
        "label": "mapping(address => bool)",
        "numberOfBytes": "32",
        "value": "t_bool"
      },
      "t_mapping(t_bytes32,t_bytes32)": {
        "encoding": "mapping",
        "key": "t_bytes32",
        "label": "mapping(bytes32 => bytes32)",
        "numberOfBytes": "32",
        "value": "t_bytes32"
      },
      "t_mapping(t_bytes32,t_struct(RoleData)19_storage)": {
        "encoding": "mapping",
        "key": "t_bytes32",
        "label": "mapping(bytes32 => struct AccessControl.RoleData)",
        "numberOfBytes": "32",
        "value": "t_struct(RoleData)19_storage"
      },
      "t_mapping(t_bytes32,t_uint256)": {
        "encoding": "mapping",
        "key": "t_bytes32",
        "label": "mapping(bytes32 => uint256)",
        "numberOfBytes": "32",
        "value": "t_uint256"
      },
      "t_struct(AddressToUintMap)2135_storage": {
        "encoding": "inplace",
        "label": "struct EnumerableMap.AddressToUintMap",
        "members": [
          {
            "astId": 2134,
            "contract": "contracts/AllowListSetter.sol:AllowListSetter",
            "label": "_inner",
            "offset": 0,
            "slot": "0",
            "type": "t_struct(Bytes32ToBytes32Map)1461_storage"
          }
        ],
        "numberOfBytes": "96"
      },
      "t_struct(Bytes32Set)2772_storage": {
        "encoding": "inplace",
        "label": "struct EnumerableSet.Bytes32Set",
        "members": [
          {
            "astId": 2771,
            "contract": "contracts/AllowListSetter.sol:AllowListSetter",
            "label": "_inner",
            "offset": 0,
            "slot": "0",
            "type": "t_struct(Set)2578_storage"
          }
        ],
        "numberOfBytes": "64"
      },
      "t_struct(Bytes32ToBytes32Map)1461_storage": {
        "encoding": "inplace",
        "label": "struct EnumerableMap.Bytes32ToBytes32Map",
        "members": [
          {
            "astId": 1456,
            "contract": "contracts/AllowListSetter.sol:AllowListSetter",
            "label": "_keys",
            "offset": 0,
            "slot": "0",
            "type": "t_struct(Bytes32Set)2772_storage"
          },
          {
            "astId": 1460,
            "contract": "contracts/AllowListSetter.sol:AllowListSetter",
            "label": "_values",
            "offset": 0,
            "slot": "2",
            "type": "t_mapping(t_bytes32,t_bytes32)"
          }
        ],
        "numberOfBytes": "96"
      },
      "t_struct(RoleData)19_storage": {
        "encoding": "inplace",
        "label": "struct AccessControl.RoleData",
        "members": [
          {
            "astId": 16,
            "contract": "contracts/AllowListSetter.sol:AllowListSetter",
            "label": "members",
            "offset": 0,
            "slot": "0",
            "type": "t_mapping(t_address,t_bool)"
          },
          {
            "astId": 18,
            "contract": "contracts/AllowListSetter.sol:AllowListSetter",
            "label": "adminRole",
            "offset": 0,
            "slot": "1",
            "type": "t_bytes32"
          }
        ],
        "numberOfBytes": "64"
      },
      "t_struct(Set)2578_storage": {
        "encoding": "inplace",
        "label": "struct EnumerableSet.Set",
        "members": [
          {
            "astId": 2573,
            "contract": "contracts/AllowListSetter.sol:AllowListSetter",
            "label": "_values",
            "offset": 0,
            "slot": "0",
            "type": "t_array(t_bytes32)dyn_storage"
          },
          {
            "astId": 2577,
            "contract": "contracts/AllowListSetter.sol:AllowListSetter",
            "label": "_indexes",
            "offset": 0,
            "slot": "1",
            "type": "t_mapping(t_bytes32,t_uint256)"
          }
        ],
        "numberOfBytes": "64"
      },
      "t_uint256": {
        "encoding": "inplace",
        "label": "uint256",
        "numberOfBytes": "32"
      }
    }
  }
}