{
  "address": "0xc5C5EbfAc4901cB62c497802b00864204AB0deFa",
  "abi": [
    {
      "inputs": [
        {
          "internalType": "string",
          "name": "name",
          "type": "string"
        },
        {
          "internalType": "string",
          "name": "symbol",
          "type": "string"
        }
      ],
      "stateMutability": "nonpayable",
      "type": "constructor"
    },
    {
      "anonymous": false,
      "inputs": [
        {
          "indexed": true,
          "internalType": "address",
          "name": "owner",
          "type": "address"
        },
        {
          "indexed": true,
          "internalType": "address",
          "name": "approved",
          "type": "address"
        },
        {
          "indexed": true,
          "internalType": "uint256",
          "name": "tokenId",
          "type": "uint256"
        }
      ],
      "name": "Approval",
      "type": "event"
    },
    {
      "anonymous": false,
      "inputs": [
        {
          "indexed": true,
          "internalType": "address",
          "name": "owner",
          "type": "address"
        },
        {
          "indexed": true,
          "internalType": "address",
          "name": "operator",
          "type": "address"
        },
        {
          "indexed": false,
          "internalType": "bool",
          "name": "approved",
          "type": "bool"
        }
      ],
      "name": "ApprovalForAll",
      "type": "event"
    },
    {
      "anonymous": false,
      "inputs": [
        {
          "indexed": true,
          "internalType": "uint256",
          "name": "index",
          "type": "uint256"
        },
        {
          "indexed": false,
          "internalType": "string",
          "name": "uri",
          "type": "string"
        }
      ],
      "name": "MetadataUriAdded",
      "type": "event"
    },
    {
      "anonymous": false,
      "inputs": [
        {
          "indexed": false,
          "internalType": "address",
          "name": "account",
          "type": "address"
        }
      ],
      "name": "Paused",
      "type": "event"
    },
    {
      "anonymous": false,
      "inputs": [
        {
          "indexed": true,
          "internalType": "bytes32",
          "name": "role",
          "type": "bytes32"
        },
        {
          "indexed": true,
          "internalType": "bytes32",
          "name": "previousAdminRole",
          "type": "bytes32"
        },
        {
          "indexed": true,
          "internalType": "bytes32",
          "name": "newAdminRole",
          "type": "bytes32"
        }
      ],
      "name": "RoleAdminChanged",
      "type": "event"
    },
    {
      "anonymous": false,
      "inputs": [
        {
          "indexed": true,
          "internalType": "bytes32",
          "name": "role",
          "type": "bytes32"
        },
        {
          "indexed": true,
          "internalType": "address",
          "name": "account",
          "type": "address"
        },
        {
          "indexed": true,
          "internalType": "address",
          "name": "sender",
          "type": "address"
        }
      ],
      "name": "RoleGranted",
      "type": "event"
    },
    {
      "anonymous": false,
      "inputs": [
        {
          "indexed": true,
          "internalType": "bytes32",
          "name": "role",
          "type": "bytes32"
        },
        {
          "indexed": true,
          "internalType": "address",
          "name": "account",
          "type": "address"
        },
        {
          "indexed": true,
          "internalType": "address",
          "name": "sender",
          "type": "address"
        }
      ],
      "name": "RoleRevoked",
      "type": "event"
    },
    {
      "anonymous": false,
      "inputs": [
        {
          "indexed": true,
          "internalType": "address",
          "name": "from",
          "type": "address"
        },
        {
          "indexed": true,
          "internalType": "address",
          "name": "to",
          "type": "address"
        },
        {
          "indexed": true,
          "internalType": "uint256",
          "name": "tokenId",
          "type": "uint256"
        }
      ],
      "name": "Transfer",
      "type": "event"
    },
    {
      "anonymous": false,
      "inputs": [
        {
          "indexed": false,
          "internalType": "address",
          "name": "account",
          "type": "address"
        }
      ],
      "name": "Unpaused",
      "type": "event"
    },
    {
      "inputs": [],
      "name": "ALLOW_LIST_ROLE",
      "outputs": [
        {
          "internalType": "bytes32",
          "name": "",
          "type": "bytes32"
        }
      ],
      "stateMutability": "view",
      "type": "function"
    },
    {
      "inputs": [],
      "name": "DEFAULT_ADMIN_ROLE",
      "outputs": [
        {
          "internalType": "bytes32",
          "name": "",
          "type": "bytes32"
        }
      ],
      "stateMutability": "view",
      "type": "function"
    },
    {
      "inputs": [],
      "name": "METADATA_SETTER_ROLE",
      "outputs": [
        {
          "internalType": "bytes32",
          "name": "",
          "type": "bytes32"
        }
      ],
      "stateMutability": "view",
      "type": "function"
    },
    {
      "inputs": [],
      "name": "MINTER_ROLE",
      "outputs": [
        {
          "internalType": "bytes32",
          "name": "",
          "type": "bytes32"
        }
      ],
      "stateMutability": "view",
      "type": "function"
    },
    {
      "inputs": [],
      "name": "PAUSER_ROLE",
      "outputs": [
        {
          "internalType": "bytes32",
          "name": "",
          "type": "bytes32"
        }
      ],
      "stateMutability": "view",
      "type": "function"
    },
    {
      "inputs": [
        {
          "internalType": "string",
          "name": "uri",
          "type": "string"
        }
      ],
      "name": "addMetadataUri",
      "outputs": [
        {
          "internalType": "uint256",
          "name": "index",
          "type": "uint256"
        }
      ],
      "stateMutability": "nonpayable",
      "type": "function"
    },
    {
      "inputs": [
        {
          "internalType": "address",
          "name": "to",
          "type": "address"
        },
        {
          "internalType": "uint256",
          "name": "amount",
          "type": "uint256"
        }
      ],
      "name": "addToAllowList",
      "outputs": [],
      "stateMutability": "nonpayable",
      "type": "function"
    },
    {
      "inputs": [
        {
          "internalType": "address",
          "name": "",
          "type": "address"
        }
      ],
      "name": "allowList",
      "outputs": [
        {
          "internalType": "uint256",
          "name": "",
          "type": "uint256"
        }
      ],
      "stateMutability": "view",
      "type": "function"
    },
    {
      "inputs": [
        {
          "internalType": "address",
          "name": "to",
          "type": "address"
        },
        {
          "internalType": "uint256",
          "name": "tokenId",
          "type": "uint256"
        }
      ],
      "name": "approve",
      "outputs": [],
      "stateMutability": "nonpayable",
      "type": "function"
    },
    {
      "inputs": [
        {
          "internalType": "address",
          "name": "owner",
          "type": "address"
        }
      ],
      "name": "balanceOf",
      "outputs": [
        {
          "internalType": "uint256",
          "name": "",
          "type": "uint256"
        }
      ],
      "stateMutability": "view",
      "type": "function"
    },
    {
      "inputs": [
        {
          "internalType": "uint256",
          "name": "start",
          "type": "uint256"
        },
        {
          "internalType": "uint256",
          "name": "length",
          "type": "uint256"
        },
        {
          "internalType": "uint256",
          "name": "metadataIndex",
          "type": "uint256"
        }
      ],
      "name": "bulkUpdateMetadata",
      "outputs": [],
      "stateMutability": "nonpayable",
      "type": "function"
    },
    {
      "inputs": [
        {
          "internalType": "uint256",
          "name": "tokenId",
          "type": "uint256"
        }
      ],
      "name": "burn",
      "outputs": [],
      "stateMutability": "nonpayable",
      "type": "function"
    },
    {
      "inputs": [],
      "name": "contractURI",
      "outputs": [
        {
          "internalType": "string",
          "name": "",
          "type": "string"
        }
      ],
      "stateMutability": "view",
      "type": "function"
    },
    {
      "inputs": [],
      "name": "currentlyMinting",
      "outputs": [
        {
          "internalType": "uint256",
          "name": "",
          "type": "uint256"
        }
      ],
      "stateMutability": "view",
      "type": "function"
    },
    {
      "inputs": [
        {
          "internalType": "uint256",
          "name": "tokenId",
          "type": "uint256"
        }
      ],
      "name": "getApproved",
      "outputs": [
        {
          "internalType": "address",
          "name": "",
          "type": "address"
        }
      ],
      "stateMutability": "view",
      "type": "function"
    },
    {
      "inputs": [
        {
          "internalType": "bytes32",
          "name": "role",
          "type": "bytes32"
        }
      ],
      "name": "getRoleAdmin",
      "outputs": [
        {
          "internalType": "bytes32",
          "name": "",
          "type": "bytes32"
        }
      ],
      "stateMutability": "view",
      "type": "function"
    },
    {
      "inputs": [
        {
          "internalType": "bytes32",
          "name": "role",
          "type": "bytes32"
        },
        {
          "internalType": "uint256",
          "name": "index",
          "type": "uint256"
        }
      ],
      "name": "getRoleMember",
      "outputs": [
        {
          "internalType": "address",
          "name": "",
          "type": "address"
        }
      ],
      "stateMutability": "view",
      "type": "function"
    },
    {
      "inputs": [
        {
          "internalType": "bytes32",
          "name": "role",
          "type": "bytes32"
        }
      ],
      "name": "getRoleMemberCount",
      "outputs": [
        {
          "internalType": "uint256",
          "name": "",
          "type": "uint256"
        }
      ],
      "stateMutability": "view",
      "type": "function"
    },
    {
      "inputs": [
        {
          "internalType": "bytes32",
          "name": "role",
          "type": "bytes32"
        },
        {
          "internalType": "address",
          "name": "account",
          "type": "address"
        }
      ],
      "name": "grantRole",
      "outputs": [],
      "stateMutability": "nonpayable",
      "type": "function"
    },
    {
      "inputs": [
        {
          "internalType": "bytes32",
          "name": "role",
          "type": "bytes32"
        },
        {
          "internalType": "address",
          "name": "account",
          "type": "address"
        }
      ],
      "name": "hasRole",
      "outputs": [
        {
          "internalType": "bool",
          "name": "",
          "type": "bool"
        }
      ],
      "stateMutability": "view",
      "type": "function"
    },
    {
      "inputs": [
        {
          "internalType": "address",
          "name": "owner",
          "type": "address"
        },
        {
          "internalType": "address",
          "name": "operator",
          "type": "address"
        }
      ],
      "name": "isApprovedForAll",
      "outputs": [
        {
          "internalType": "bool",
          "name": "",
          "type": "bool"
        }
      ],
      "stateMutability": "view",
      "type": "function"
    },
    {
      "inputs": [],
      "name": "maxSupply",
      "outputs": [
        {
          "internalType": "uint256",
          "name": "",
          "type": "uint256"
        }
      ],
      "stateMutability": "view",
      "type": "function"
    },
    {
      "inputs": [
        {
          "internalType": "uint256",
          "name": "",
          "type": "uint256"
        }
      ],
      "name": "metadataUris",
      "outputs": [
        {
          "internalType": "string",
          "name": "",
          "type": "string"
        }
      ],
      "stateMutability": "view",
      "type": "function"
    },
    {
      "inputs": [
        {
          "internalType": "address",
          "name": "to",
          "type": "address"
        }
      ],
      "name": "mint",
      "outputs": [],
      "stateMutability": "nonpayable",
      "type": "function"
    },
    {
      "inputs": [
        {
          "internalType": "address",
          "name": "to",
          "type": "address"
        }
      ],
      "name": "mintFromAllowList",
      "outputs": [],
      "stateMutability": "nonpayable",
      "type": "function"
    },
    {
      "inputs": [],
      "name": "name",
      "outputs": [
        {
          "internalType": "string",
          "name": "",
          "type": "string"
        }
      ],
      "stateMutability": "view",
      "type": "function"
    },
    {
      "inputs": [
        {
          "internalType": "uint256",
          "name": "tokenId",
          "type": "uint256"
        }
      ],
      "name": "ownerOf",
      "outputs": [
        {
          "internalType": "address",
          "name": "",
          "type": "address"
        }
      ],
      "stateMutability": "view",
      "type": "function"
    },
    {
      "inputs": [],
      "name": "pause",
      "outputs": [],
      "stateMutability": "nonpayable",
      "type": "function"
    },
    {
      "inputs": [],
      "name": "paused",
      "outputs": [
        {
          "internalType": "bool",
          "name": "",
          "type": "bool"
        }
      ],
      "stateMutability": "view",
      "type": "function"
    },
    {
      "inputs": [
        {
          "internalType": "bytes32",
          "name": "role",
          "type": "bytes32"
        },
        {
          "internalType": "address",
          "name": "account",
          "type": "address"
        }
      ],
      "name": "renounceRole",
      "outputs": [],
      "stateMutability": "nonpayable",
      "type": "function"
    },
    {
      "inputs": [
        {
          "internalType": "bytes32",
          "name": "role",
          "type": "bytes32"
        },
        {
          "internalType": "address",
          "name": "account",
          "type": "address"
        }
      ],
      "name": "revokeRole",
      "outputs": [],
      "stateMutability": "nonpayable",
      "type": "function"
    },
    {
      "inputs": [
        {
          "internalType": "address",
          "name": "from",
          "type": "address"
        },
        {
          "internalType": "address",
          "name": "to",
          "type": "address"
        },
        {
          "internalType": "uint256",
          "name": "tokenId",
          "type": "uint256"
        }
      ],
      "name": "safeTransferFrom",
      "outputs": [],
      "stateMutability": "nonpayable",
      "type": "function"
    },
    {
      "inputs": [
        {
          "internalType": "address",
          "name": "from",
          "type": "address"
        },
        {
          "internalType": "address",
          "name": "to",
          "type": "address"
        },
        {
          "internalType": "uint256",
          "name": "tokenId",
          "type": "uint256"
        },
        {
          "internalType": "bytes",
          "name": "data",
          "type": "bytes"
        }
      ],
      "name": "safeTransferFrom",
      "outputs": [],
      "stateMutability": "nonpayable",
      "type": "function"
    },
    {
      "inputs": [
        {
          "internalType": "address",
          "name": "operator",
          "type": "address"
        },
        {
          "internalType": "bool",
          "name": "approved",
          "type": "bool"
        }
      ],
      "name": "setApprovalForAll",
      "outputs": [],
      "stateMutability": "nonpayable",
      "type": "function"
    },
    {
      "inputs": [
        {
          "internalType": "string",
          "name": "newUri",
          "type": "string"
        }
      ],
      "name": "setContractURI",
      "outputs": [
        {
          "internalType": "bool",
          "name": "",
          "type": "bool"
        }
      ],
      "stateMutability": "nonpayable",
      "type": "function"
    },
    {
      "inputs": [
        {
          "internalType": "uint256",
          "name": "metadataIndex",
          "type": "uint256"
        }
      ],
      "name": "setCurrentlyMinting",
      "outputs": [],
      "stateMutability": "nonpayable",
      "type": "function"
    },
    {
      "inputs": [
        {
          "internalType": "uint256",
          "name": "newSupply",
          "type": "uint256"
        }
      ],
      "name": "setMaxSupply",
      "outputs": [],
      "stateMutability": "nonpayable",
      "type": "function"
    },
    {
      "inputs": [
        {
          "internalType": "bytes4",
          "name": "interfaceId",
          "type": "bytes4"
        }
      ],
      "name": "supportsInterface",
      "outputs": [
        {
          "internalType": "bool",
          "name": "",
          "type": "bool"
        }
      ],
      "stateMutability": "view",
      "type": "function"
    },
    {
      "inputs": [],
      "name": "symbol",
      "outputs": [
        {
          "internalType": "string",
          "name": "",
          "type": "string"
        }
      ],
      "stateMutability": "view",
      "type": "function"
    },
    {
      "inputs": [
        {
          "internalType": "uint256",
          "name": "index",
          "type": "uint256"
        }
      ],
      "name": "tokenByIndex",
      "outputs": [
        {
          "internalType": "uint256",
          "name": "",
          "type": "uint256"
        }
      ],
      "stateMutability": "view",
      "type": "function"
    },
    {
      "inputs": [
        {
          "internalType": "uint256",
          "name": "",
          "type": "uint256"
        }
      ],
      "name": "tokenIdToMetadataUri",
      "outputs": [
        {
          "internalType": "uint256",
          "name": "",
          "type": "uint256"
        }
      ],
      "stateMutability": "view",
      "type": "function"
    },
    {
      "inputs": [
        {
          "internalType": "address",
          "name": "owner",
          "type": "address"
        },
        {
          "internalType": "uint256",
          "name": "index",
          "type": "uint256"
        }
      ],
      "name": "tokenOfOwnerByIndex",
      "outputs": [
        {
          "internalType": "uint256",
          "name": "",
          "type": "uint256"
        }
      ],
      "stateMutability": "view",
      "type": "function"
    },
    {
      "inputs": [
        {
          "internalType": "uint256",
          "name": "tokenId",
          "type": "uint256"
        }
      ],
      "name": "tokenURI",
      "outputs": [
        {
          "internalType": "string",
          "name": "",
          "type": "string"
        }
      ],
      "stateMutability": "view",
      "type": "function"
    },
    {
      "inputs": [],
      "name": "totalSupply",
      "outputs": [
        {
          "internalType": "uint256",
          "name": "",
          "type": "uint256"
        }
      ],
      "stateMutability": "view",
      "type": "function"
    },
    {
      "inputs": [
        {
          "internalType": "address",
          "name": "from",
          "type": "address"
        },
        {
          "internalType": "address",
          "name": "to",
          "type": "address"
        },
        {
          "internalType": "uint256",
          "name": "tokenId",
          "type": "uint256"
        }
      ],
      "name": "transferFrom",
      "outputs": [],
      "stateMutability": "nonpayable",
      "type": "function"
    },
    {
      "inputs": [],
      "name": "unpause",
      "outputs": [],
      "stateMutability": "nonpayable",
      "type": "function"
    }
  ],
  "transactionHash": "0xcc1317e94943807921aba3977d348f8d6d491691b5eaa7214b60d3981a58aaff",
  "args": [
    "Crypto Colosseum: Masks of the Ancients",
    "ccMasks"
  ],
  "numDeployments": 1,
  "solcInputHash": "b8b21addb2ced51916fa73e1c762c2c2",
  "bytecode": "0x60806040523480156200001157600080fd5b50604051620031ef380380620031ef833981016040819052620000349162000323565b818160026200004483826200041b565b5060036200005382826200041b565b5050600c805460ff19169055506200006d600033620000f9565b620000997f9f2df0fed2c77648de5860a4cc508cd0818c85b8b8a1ab4ceeef8d981c8956a633620000f9565b620000c57f65d7a28e3265b37a6474929f336521b332c1681b933f6cb9f3376673440d862a33620000f9565b620000f17fe5841138da2b679c816d2dc3ad8fea7892073d6542f742853759f8b99fa7f70033620000f9565b5050620004e7565b62000105828262000109565b5050565b6200012082826200014c60201b620012ce1760201c565b60008281526001602090815260409091206200014791839062001352620001ec821b17901c565b505050565b6000828152602081815260408083206001600160a01b038516845290915290205460ff1662000105576000828152602081815260408083206001600160a01b03851684529091529020805460ff19166001179055620001a83390565b6001600160a01b0316816001600160a01b0316837f2f8788117e7eff1d82e926ec794901d17c78024a50270940304540a733656f0d60405160405180910390a45050565b600062000203836001600160a01b0384166200020c565b90505b92915050565b6000818152600183016020526040812054620002555750815460018181018455600084815260208082209093018490558454848252828601909352604090209190915562000206565b50600062000206565b634e487b7160e01b600052604160045260246000fd5b600082601f8301126200028657600080fd5b81516001600160401b0380821115620002a357620002a36200025e565b604051601f8301601f19908116603f01168101908282118183101715620002ce57620002ce6200025e565b81604052838152602092508683858801011115620002eb57600080fd5b600091505b838210156200030f5785820183015181830184015290820190620002f0565b600093810190920192909252949350505050565b600080604083850312156200033757600080fd5b82516001600160401b03808211156200034f57600080fd5b6200035d8683870162000274565b935060208501519150808211156200037457600080fd5b50620003838582860162000274565b9150509250929050565b600181811c90821680620003a257607f821691505b602082108103620003c357634e487b7160e01b600052602260045260246000fd5b50919050565b601f8211156200014757600081815260208120601f850160051c81016020861015620003f25750805b601f850160051c820191505b818110156200041357828155600101620003fe565b505050505050565b81516001600160401b038111156200043757620004376200025e565b6200044f816200044884546200038d565b84620003c9565b602080601f8311600181146200048757600084156200046e5750858301515b600019600386901b1c1916600185901b17855562000413565b600085815260208120601f198616915b82811015620004b85788860151825594840194600190910190840162000497565b5085821015620004d75787850151600019600388901b60f8161c191681555b5050505050600190811b01905550565b612cf880620004f76000396000f3fe608060405234801561001057600080fd5b506004361061028a5760003560e01c806370a082311161015c578063c87b56dd116100ce578063dd9f558611610087578063dd9f5586146105b6578063e63ab1e9146105c9578063e8a3d485146105f0578063e985e9c5146105f8578063e9997c5214610634578063f328bbd01461065457600080fd5b8063c87b56dd14610526578063ca15c87314610539578063ca42eddc1461054c578063d539139314610573578063d547741f1461059a578063d5abeb01146105ad57600080fd5b8063952d572211610120578063952d5722146104ca57806395d89b41146104dd578063a217fddf146104e5578063a22cb465146104ed578063a65b992614610500578063b88d4fde1461051357600080fd5b806370a08231146104765780638456cb59146104895780639010d07c1461049157806391d14854146104a4578063938e3d7b146104b757600080fd5b8063302ad53a116102005780634f6ccce7116101b95780634f6ccce71461040c57806356fd4b211461041f5780635c975abb146104325780636352211e1461043d5780636a627842146104505780636f8b44b01461046357600080fd5b8063302ad53a146103ad57806336568abe146103c25780633f4ba83a146103d557806342842e0e146103dd57806342966c68146103f057806347230c591461040357600080fd5b806318160ddd1161025257806318160ddd1461031f57806323b872dd14610331578063248a9ca3146103445780632848aeaf146103675780632f2ff15d146103875780632f745c591461039a57600080fd5b806301ffc9a71461028f57806302923817146102b757806306fdde03146102cc578063081812fc146102e1578063095ea7b31461030c575b600080fd5b6102a261029d3660046124e0565b610667565b60405190151581526020015b60405180910390f35b6102ca6102c5366004612519565b610678565b005b6102d4610724565b6040516102ae9190612593565b6102f46102ef3660046125a6565b6107b6565b6040516001600160a01b0390911681526020016102ae565b6102ca61031a366004612519565b6107dd565b600a545b6040519081526020016102ae565b6102ca61033f3660046125bf565b6108f2565b6103236103523660046125a6565b60009081526020819052604090206001015490565b6103236103753660046125fb565b60116020526000908152604090205481565b6102ca610395366004612616565b610924565b6103236103a8366004612519565b610949565b610323600080516020612ca383398151915281565b6102ca6103d0366004612616565b6109df565b6102ca610a5d565b6102ca6103eb3660046125bf565b610ae9565b6102ca6103fe3660046125a6565b610b04565b61032360125481565b61032361041a3660046125a6565b610b35565b6102ca61042d3660046125a6565b610bc8565b600c5460ff166102a2565b6102f461044b3660046125a6565b610c01565b6102ca61045e3660046125fb565b610c61565b6102ca6104713660046125a6565b610cea565b6103236104843660046125fb565b610d23565b6102ca610da9565b6102f461049f366004612642565b610e32565b6102a26104b2366004612616565b610e51565b6102a26104c5366004612664565b610e7a565b6102ca6104d83660046126d6565b610ec7565b6102d4610f37565b610323600081565b6102ca6104fb366004612702565b610f46565b6102d461050e3660046125a6565b610f51565b6102ca610521366004612754565b610ffd565b6102d46105343660046125a6565b61102f565b6103236105473660046125a6565b611142565b6103237fe27a7ac86bc026ab9d6b20c2343f709afa69a18a49907d97c7871b513444598781565b6103237f9f2df0fed2c77648de5860a4cc508cd0818c85b8b8a1ab4ceeef8d981c8956a681565b6102ca6105a8366004612616565b611159565b61032360135481565b6103236105c4366004612664565b61117e565b6103237f65d7a28e3265b37a6474929f336521b332c1681b933f6cb9f3376673440d862a81565b6102d4611238565b6102a2610606366004612830565b6001600160a01b03918216600090815260076020908152604080832093909416825291909152205460ff1690565b6103236106423660046125a6565b60106020526000908152604090205481565b6102ca6106623660046125fb565b611245565b600061067282611367565b92915050565b6106a27f9f2df0fed2c77648de5860a4cc508cd0818c85b8b8a1ab4ceeef8d981c8956a633610e51565b6106f35760405162461bcd60e51b815260206004820152601760248201527f4c4d3a206d697373696e67206d696e74657220726f6c6500000000000000000060448201526064015b60405180910390fd5b6001600160a01b0382166000908152601160205260408120805483929061071b908490612870565b90915550505050565b60606002805461073390612883565b80601f016020809104026020016040519081016040528092919081815260200182805461075f90612883565b80156107ac5780601f10610781576101008083540402835291602001916107ac565b820191906000526020600020905b81548152906001019060200180831161078f57829003601f168201915b5050505050905090565b60006107c18261138c565b506000908152600660205260409020546001600160a01b031690565b60006107e882610c01565b9050806001600160a01b0316836001600160a01b0316036108555760405162461bcd60e51b815260206004820152602160248201527f4552433732313a20617070726f76616c20746f2063757272656e74206f776e656044820152603960f91b60648201526084016106ea565b336001600160a01b038216148061087157506108718133610606565b6108e35760405162461bcd60e51b815260206004820152603e60248201527f4552433732313a20617070726f76652063616c6c6572206973206e6f7420746f60448201527f6b656e206f776e6572206e6f7220617070726f76656420666f7220616c6c000060648201526084016106ea565b6108ed83836113eb565b505050565b6108fd335b82611459565b6109195760405162461bcd60e51b81526004016106ea906128bd565b6108ed8383836114d8565b60008281526020819052604090206001015461093f8161167f565b6108ed8383611689565b600061095483610d23565b82106109b65760405162461bcd60e51b815260206004820152602b60248201527f455243373231456e756d657261626c653a206f776e657220696e646578206f7560448201526a74206f6620626f756e647360a81b60648201526084016106ea565b506001600160a01b03919091166000908152600860209081526040808320938352929052205490565b6001600160a01b0381163314610a4f5760405162461bcd60e51b815260206004820152602f60248201527f416363657373436f6e74726f6c3a2063616e206f6e6c792072656e6f756e636560448201526e103937b632b9903337b91039b2b63360891b60648201526084016106ea565b610a5982826116ab565b5050565b610a877f65d7a28e3265b37a6474929f336521b332c1681b933f6cb9f3376673440d862a33610e51565b610adf5760405162461bcd60e51b8152602060048201526024808201527f4c4d3a206d75737420686176652070617573657220726f6c6520746f20756e706044820152636175736560e01b60648201526084016106ea565b610ae76116cd565b565b6108ed83838360405180602001604052806000815250610ffd565b610b0d336108f7565b610b295760405162461bcd60e51b81526004016106ea906128bd565b610b328161171f565b50565b6000610b40600a5490565b8210610ba35760405162461bcd60e51b815260206004820152602c60248201527f455243373231456e756d657261626c653a20676c6f62616c20696e646578206f60448201526b7574206f6620626f756e647360a01b60648201526084016106ea565b600a8281548110610bb657610bb661290b565b90600052602060002001549050919050565b610be0600080516020612ca383398151915233610e51565b610bfc5760405162461bcd60e51b81526004016106ea90612921565b601255565b6000818152600460205260408120546001600160a01b0316806106725760405162461bcd60e51b8152602060048201526018602482015277115490cdcc8c4e881a5b9d985b1a59081d1bdad95b88125160421b60448201526064016106ea565b610c8b7f9f2df0fed2c77648de5860a4cc508cd0818c85b8b8a1ab4ceeef8d981c8956a633610e51565b610ce15760405162461bcd60e51b815260206004820152602160248201527f4c4d3a206d7573742068617665206d696e74657220726f6c6520746f206d696e6044820152601d60fa1b60648201526084016106ea565b610b32816117c6565b610d02600080516020612ca383398151915233610e51565b610d1e5760405162461bcd60e51b81526004016106ea90612921565b601355565b60006001600160a01b038216610d8d5760405162461bcd60e51b815260206004820152602960248201527f4552433732313a2061646472657373207a65726f206973206e6f7420612076616044820152683634b21037bbb732b960b91b60648201526084016106ea565b506001600160a01b031660009081526005602052604090205490565b610dd37f65d7a28e3265b37a6474929f336521b332c1681b933f6cb9f3376673440d862a33610e51565b610e2a5760405162461bcd60e51b815260206004820152602260248201527f4c4d3a206d75737420686176652070617573657220726f6c6520746f20706175604482015261736560f01b60648201526084016106ea565b610ae7611852565b6000828152600160205260408120610e4a908361188f565b9392505050565b6000918252602082815260408084206001600160a01b0393909316845291905290205460ff1690565b6000610e94600080516020612ca383398151915233610e51565b610eb05760405162461bcd60e51b81526004016106ea90612921565b6014610ebd8385836129a4565b5060019392505050565b610edf600080516020612ca383398151915233610e51565b610efb5760405162461bcd60e51b81526004016106ea90612921565b825b610f078385612870565b811015610f3157600081815260106020526040902082905580610f2981612a65565b915050610efd565b50505050565b60606003805461073390612883565b610a5933838361189b565b600f8181548110610f6157600080fd5b906000526020600020016000915090508054610f7c90612883565b80601f0160208091040260200160405190810160405280929190818152602001828054610fa890612883565b8015610ff55780601f10610fca57610100808354040283529160200191610ff5565b820191906000526020600020905b815481529060010190602001808311610fd857829003601f168201915b505050505081565b6110073383611459565b6110235760405162461bcd60e51b81526004016106ea906128bd565b610f3184848484611969565b606061103a8261138c565b600082815260106020526040812054600f8054909190811061105e5761105e61290b565b90600052602060002001805461107390612883565b80601f016020809104026020016040519081016040528092919081815260200182805461109f90612883565b80156110ec5780601f106110c1576101008083540402835291602001916110ec565b820191906000526020600020905b8154815290600101906020018083116110cf57829003601f168201915b5050505050905060008151116111115760405180602001604052806000815250610e4a565b8061111b8461199c565b60405160200161112c929190612a7e565b6040516020818303038152906040529392505050565b600081815260016020526040812061067290611a9d565b6000828152602081905260409020600101546111748161167f565b6108ed83836116ab565b6000611198600080516020612ca383398151915233610e51565b6111b45760405162461bcd60e51b81526004016106ea90612921565b600f80546001810182556000919091527f8d1108e10bcb7c27dddfc02ed9d693a074039d026cf4ea4240b40f7d581ac802016111f18385836129a4565b5050600f5460405181907fe2b99f465dffd50a780cd71599e0cd07b8c196f7135847e49c58f0a7e170b0e09061122a9086908690612abd565b60405180910390a292915050565b60148054610f7c90612883565b6001600160a01b03811660009081526011602052604090205461129c5760405162461bcd60e51b815260206004820152600f60248201526e13134e881b9bdd081bdb881b1a5cdd608a1b60448201526064016106ea565b6001600160a01b03811660009081526011602052604081208054916112c083612aec565b9190505550610b32816117c6565b6112d88282610e51565b610a59576000828152602081815260408083206001600160a01b03851684529091529020805460ff1916600117905561130e3390565b6001600160a01b0316816001600160a01b0316837f2f8788117e7eff1d82e926ec794901d17c78024a50270940304540a733656f0d60405160405180910390a45050565b6000610e4a836001600160a01b038416611aa7565b60006001600160e01b0319821663780e9d6360e01b1480610672575061067282611af6565b6000818152600460205260409020546001600160a01b0316610b325760405162461bcd60e51b8152602060048201526018602482015277115490cdcc8c4e881a5b9d985b1a59081d1bdad95b88125160421b60448201526064016106ea565b600081815260066020526040902080546001600160a01b0319166001600160a01b038416908117909155819061142082610c01565b6001600160a01b03167f8c5be1e5ebec7d5bd14f71427d1e84f3dd0314c0f7b2291e5b200ac8c7c3b92560405160405180910390a45050565b60008061146583610c01565b9050806001600160a01b0316846001600160a01b031614806114ac57506001600160a01b0380821660009081526007602090815260408083209388168352929052205460ff165b806114d05750836001600160a01b03166114c5846107b6565b6001600160a01b0316145b949350505050565b826001600160a01b03166114eb82610c01565b6001600160a01b03161461154f5760405162461bcd60e51b815260206004820152602560248201527f4552433732313a207472616e736665722066726f6d20696e636f72726563742060448201526437bbb732b960d91b60648201526084016106ea565b6001600160a01b0382166115b15760405162461bcd60e51b8152602060048201526024808201527f4552433732313a207472616e7366657220746f20746865207a65726f206164646044820152637265737360e01b60648201526084016106ea565b6115bc838383611b36565b6115c76000826113eb565b6001600160a01b03831660009081526005602052604081208054600192906115f0908490612b03565b90915550506001600160a01b038216600090815260056020526040812080546001929061161e908490612870565b909155505060008181526004602052604080822080546001600160a01b0319166001600160a01b0386811691821790925591518493918716917fddf252ad1be2c89b69c2b068fc378daa952ba7f163c4a11628f55a4df523b3ef91a4505050565b610b328133611b41565b61169382826112ce565b60008281526001602052604090206108ed9082611352565b6116b58282611ba5565b60008281526001602052604090206108ed9082611c0a565b6116d5611c1f565b600c805460ff191690557f5db9ee0a495bf2e6ff9c91a7834c1ba4fdd244a5e8aa4e537bd38aeae4b073aa335b6040516001600160a01b03909116815260200160405180910390a1565b600061172a82610c01565b905061173881600084611b36565b6117436000836113eb565b6001600160a01b038116600090815260056020526040812080546001929061176c908490612b03565b909155505060008281526004602052604080822080546001600160a01b0319169055518391906001600160a01b038416907fddf252ad1be2c89b69c2b068fc378daa952ba7f163c4a11628f55a4df523b3ef908390a45050565b60006117d1600d5490565b905060135481106118245760405162461bcd60e51b815260206004820152601760248201527f6d6178696d756d20737570706c7920657863656564656400000000000000000060448201526064016106ea565b611832600d80546001019055565b61183c8282611c68565b6012546000918252601060205260409091205550565b61185a611db6565b600c805460ff191660011790557f62e78cea01bee320cd4e420270b5ea74000d11b0c9f74754ebdbfc544b05a2586117023390565b6000610e4a8383611dfc565b816001600160a01b0316836001600160a01b0316036118fc5760405162461bcd60e51b815260206004820152601960248201527f4552433732313a20617070726f766520746f2063616c6c65720000000000000060448201526064016106ea565b6001600160a01b03838116600081815260076020908152604080832094871680845294825291829020805460ff191686151590811790915591519182527f17307eab39ab6107e8899845ad3d59bd9653f200f220920489ca2b5937696c31910160405180910390a3505050565b6119748484846114d8565b61198084848484611e26565b610f315760405162461bcd60e51b81526004016106ea90612b16565b6060816000036119c35750506040805180820190915260018152600360fc1b602082015290565b8160005b81156119ed57806119d781612a65565b91506119e69050600a83612b7e565b91506119c7565b60008167ffffffffffffffff811115611a0857611a0861273e565b6040519080825280601f01601f191660200182016040528015611a32576020820181803683370190505b5090505b84156114d057611a47600183612b03565b9150611a54600a86612b92565b611a5f906030612870565b60f81b818381518110611a7457611a7461290b565b60200101906001600160f81b031916908160001a905350611a96600a86612b7e565b9450611a36565b6000610672825490565b6000818152600183016020526040812054611aee57508154600181810184556000848152602080822090930184905584548482528286019093526040902091909155610672565b506000610672565b60006001600160e01b031982166380ac58cd60e01b1480611b2757506001600160e01b03198216635b5e139f60e01b145b80610672575061067282611f27565b6108ed838383611f4c565b611b4b8282610e51565b610a5957611b63816001600160a01b03166014611fbe565b611b6e836020611fbe565b604051602001611b7f929190612ba6565b60408051601f198184030181529082905262461bcd60e51b82526106ea91600401612593565b611baf8282610e51565b15610a59576000828152602081815260408083206001600160a01b0385168085529252808320805460ff1916905551339285917ff6391f5c32d9c69d2a47ea670b442974b53935d1edc7fd64eb21e047a839171b9190a45050565b6000610e4a836001600160a01b03841661215a565b600c5460ff16610ae75760405162461bcd60e51b815260206004820152601460248201527314185d5cd8589b194e881b9bdd081c185d5cd95960621b60448201526064016106ea565b6001600160a01b038216611cbe5760405162461bcd60e51b815260206004820181905260248201527f4552433732313a206d696e7420746f20746865207a65726f206164647265737360448201526064016106ea565b6000818152600460205260409020546001600160a01b031615611d235760405162461bcd60e51b815260206004820152601c60248201527f4552433732313a20746f6b656e20616c7265616479206d696e7465640000000060448201526064016106ea565b611d2f60008383611b36565b6001600160a01b0382166000908152600560205260408120805460019290611d58908490612870565b909155505060008181526004602052604080822080546001600160a01b0319166001600160a01b03861690811790915590518392907fddf252ad1be2c89b69c2b068fc378daa952ba7f163c4a11628f55a4df523b3ef908290a45050565b600c5460ff1615610ae75760405162461bcd60e51b815260206004820152601060248201526f14185d5cd8589b194e881c185d5cd95960821b60448201526064016106ea565b6000826000018281548110611e1357611e1361290b565b9060005260206000200154905092915050565b60006001600160a01b0384163b15611f1c57604051630a85bd0160e11b81526001600160a01b0385169063150b7a0290611e6a903390899088908890600401612c1b565b6020604051808303816000875af1925050508015611ea5575060408051601f3d908101601f19168201909252611ea291810190612c58565b60015b611f02573d808015611ed3576040519150601f19603f3d011682016040523d82523d6000602084013e611ed8565b606091505b508051600003611efa5760405162461bcd60e51b81526004016106ea90612b16565b805181602001fd5b6001600160e01b031916630a85bd0160e11b1490506114d0565b506001949350505050565b60006001600160e01b03198216635a05180f60e01b148061067257506106728261224d565b611f57838383612282565b600c5460ff16156108ed5760405162461bcd60e51b815260206004820152602b60248201527f4552433732315061757361626c653a20746f6b656e207472616e73666572207760448201526a1a1a5b19481c185d5cd95960aa1b60648201526084016106ea565b60606000611fcd836002612c75565b611fd8906002612870565b67ffffffffffffffff811115611ff057611ff061273e565b6040519080825280601f01601f19166020018201604052801561201a576020820181803683370190505b509050600360fc1b816000815181106120355761203561290b565b60200101906001600160f81b031916908160001a905350600f60fb1b816001815181106120645761206461290b565b60200101906001600160f81b031916908160001a9053506000612088846002612c75565b612093906001612870565b90505b600181111561210b576f181899199a1a9b1b9c1cb0b131b232b360811b85600f16601081106120c7576120c761290b565b1a60f81b8282815181106120dd576120dd61290b565b60200101906001600160f81b031916908160001a90535060049490941c9361210481612aec565b9050612096565b508315610e4a5760405162461bcd60e51b815260206004820181905260248201527f537472696e67733a20686578206c656e67746820696e73756666696369656e7460448201526064016106ea565b6000818152600183016020526040812054801561224357600061217e600183612b03565b855490915060009061219290600190612b03565b90508181146121f75760008660000182815481106121b2576121b261290b565b90600052602060002001549050808760000184815481106121d5576121d561290b565b6000918252602080832090910192909255918252600188019052604090208390555b855486908061220857612208612c8c565b600190038181906000526020600020016000905590558560010160008681526020019081526020016000206000905560019350505050610672565b6000915050610672565b60006001600160e01b03198216637965db0b60e01b148061067257506301ffc9a760e01b6001600160e01b0319831614610672565b6001600160a01b0383166122dd576122d881600a80546000838152600b60205260408120829055600182018355919091527fc65a7bb8d6351c1cf70c95a316cc6a92839c986682d98bc35f958f4883f9d2a80155565b612300565b816001600160a01b0316836001600160a01b03161461230057612300838261233a565b6001600160a01b038216612317576108ed816123d7565b826001600160a01b0316826001600160a01b0316146108ed576108ed8282612486565b6000600161234784610d23565b6123519190612b03565b6000838152600960205260409020549091508082146123a4576001600160a01b03841660009081526008602090815260408083208584528252808320548484528184208190558352600990915290208190555b5060009182526009602090815260408084208490556001600160a01b039094168352600881528383209183525290812055565b600a546000906123e990600190612b03565b6000838152600b6020526040812054600a80549394509092849081106124115761241161290b565b9060005260206000200154905080600a83815481106124325761243261290b565b6000918252602080832090910192909255828152600b9091526040808220849055858252812055600a80548061246a5761246a612c8c565b6001900381819060005260206000200160009055905550505050565b600061249183610d23565b6001600160a01b039093166000908152600860209081526040808320868452825280832085905593825260099052919091209190915550565b6001600160e01b031981168114610b3257600080fd5b6000602082840312156124f257600080fd5b8135610e4a816124ca565b80356001600160a01b038116811461251457600080fd5b919050565b6000806040838503121561252c57600080fd5b612535836124fd565b946020939093013593505050565b60005b8381101561255e578181015183820152602001612546565b50506000910152565b6000815180845261257f816020860160208601612543565b601f01601f19169290920160200192915050565b602081526000610e4a6020830184612567565b6000602082840312156125b857600080fd5b5035919050565b6000806000606084860312156125d457600080fd5b6125dd846124fd565b92506125eb602085016124fd565b9150604084013590509250925092565b60006020828403121561260d57600080fd5b610e4a826124fd565b6000806040838503121561262957600080fd5b82359150612639602084016124fd565b90509250929050565b6000806040838503121561265557600080fd5b50508035926020909101359150565b6000806020838503121561267757600080fd5b823567ffffffffffffffff8082111561268f57600080fd5b818501915085601f8301126126a357600080fd5b8135818111156126b257600080fd5b8660208285010111156126c457600080fd5b60209290920196919550909350505050565b6000806000606084860312156126eb57600080fd5b505081359360208301359350604090920135919050565b6000806040838503121561271557600080fd5b61271e836124fd565b91506020830135801515811461273357600080fd5b809150509250929050565b634e487b7160e01b600052604160045260246000fd5b6000806000806080858703121561276a57600080fd5b612773856124fd565b9350612781602086016124fd565b925060408501359150606085013567ffffffffffffffff808211156127a557600080fd5b818701915087601f8301126127b957600080fd5b8135818111156127cb576127cb61273e565b604051601f8201601f19908116603f011681019083821181831017156127f3576127f361273e565b816040528281528a602084870101111561280c57600080fd5b82602086016020830137600060208483010152809550505050505092959194509250565b6000806040838503121561284357600080fd5b61284c836124fd565b9150612639602084016124fd565b634e487b7160e01b600052601160045260246000fd5b808201808211156106725761067261285a565b600181811c9082168061289757607f821691505b6020821081036128b757634e487b7160e01b600052602260045260246000fd5b50919050565b6020808252602e908201527f4552433732313a2063616c6c6572206973206e6f7420746f6b656e206f776e6560408201526d1c881b9bdc88185c1c1c9bdd995960921b606082015260800190565b634e487b7160e01b600052603260045260246000fd5b6020808252818101527f4c4d3a206d697373696e67206d657461646174612073657474657220726f6c65604082015260600190565b601f8211156108ed57600081815260208120601f850160051c8101602086101561297d5750805b601f850160051c820191505b8181101561299c57828155600101612989565b505050505050565b67ffffffffffffffff8311156129bc576129bc61273e565b6129d0836129ca8354612883565b83612956565b6000601f841160018114612a0457600085156129ec5750838201355b600019600387901b1c1916600186901b178355612a5e565b600083815260209020601f19861690835b82811015612a355786850135825560209485019460019092019101612a15565b5086821015612a525760001960f88860031b161c19848701351681555b505060018560011b0183555b5050505050565b600060018201612a7757612a7761285a565b5060010190565b60008351612a90818460208801612543565b835190830190612aa4818360208801612543565b64173539b7b760d91b9101908152600501949350505050565b60208152816020820152818360408301376000818301604090810191909152601f909201601f19160101919050565b600081612afb57612afb61285a565b506000190190565b818103818111156106725761067261285a565b60208082526032908201527f4552433732313a207472616e7366657220746f206e6f6e20455243373231526560408201527131b2b4bb32b91034b6b83632b6b2b73a32b960711b606082015260800190565b634e487b7160e01b600052601260045260246000fd5b600082612b8d57612b8d612b68565b500490565b600082612ba157612ba1612b68565b500690565b7f416363657373436f6e74726f6c3a206163636f756e7420000000000000000000815260008351612bde816017850160208801612543565b7001034b99036b4b9b9b4b733903937b6329607d1b6017918401918201528351612c0f816028840160208801612543565b01602801949350505050565b6001600160a01b0385811682528416602082015260408101839052608060608201819052600090612c4e90830184612567565b9695505050505050565b600060208284031215612c6a57600080fd5b8151610e4a816124ca565b80820281158282048414176106725761067261285a565b634e487b7160e01b600052603160045260246000fdfee5841138da2b679c816d2dc3ad8fea7892073d6542f742853759f8b99fa7f700a2646970667358221220e0feff063ec12400880706091dd899809fffd3356593c1f27b57cfa33e1e91e764736f6c63430008110033",
  "devdoc": {
    "details": "{ERC721} token, including:  - ability for holders to burn (destroy) their tokens  - a minter role that allows for token minting (creation)  - a pauser role that allows to stop all token transfers  - token ID and URI autogeneration This contract uses {AccessControl} to lock permissioned functions using the different roles - head to its documentation for details. The account that deploys the contract will be granted the minter and pauser roles, as well as the default admin role, which will let it grant both minter and pauser roles to other accounts. _Deprecated in favor of https://wizard.openzeppelin.com/[Contracts Wizard]._",
    "kind": "dev",
    "methods": {
      "approve(address,uint256)": {
        "details": "See {IERC721-approve}."
      },
      "balanceOf(address)": {
        "details": "See {IERC721-balanceOf}."
      },
      "burn(uint256)": {
        "details": "Burns `tokenId`. See {ERC721-_burn}. Requirements: - The caller must own `tokenId` or be an approved operator."
      },
      "constructor": {
        "details": "Grants `DEFAULT_ADMIN_ROLE`, `MINTER_ROLE` and `PAUSER_ROLE` to the account that deploys the contract. Token URIs will be autogenerated based on `baseURI` and their token IDs. See {ERC721-tokenURI}."
      },
      "getApproved(uint256)": {
        "details": "See {IERC721-getApproved}."
      },
      "getRoleAdmin(bytes32)": {
        "details": "Returns the admin role that controls `role`. See {grantRole} and {revokeRole}. To change a role's admin, use {_setRoleAdmin}."
      },
      "getRoleMember(bytes32,uint256)": {
        "details": "Returns one of the accounts that have `role`. `index` must be a value between 0 and {getRoleMemberCount}, non-inclusive. Role bearers are not sorted in any particular way, and their ordering may change at any point. WARNING: When using {getRoleMember} and {getRoleMemberCount}, make sure you perform all queries on the same block. See the following https://forum.openzeppelin.com/t/iterating-over-elements-on-enumerableset-in-openzeppelin-contracts/2296[forum post] for more information."
      },
      "getRoleMemberCount(bytes32)": {
        "details": "Returns the number of accounts that have `role`. Can be used together with {getRoleMember} to enumerate all bearers of a role."
      },
      "grantRole(bytes32,address)": {
        "details": "Grants `role` to `account`. If `account` had not been already granted `role`, emits a {RoleGranted} event. Requirements: - the caller must have ``role``'s admin role. May emit a {RoleGranted} event."
      },
      "hasRole(bytes32,address)": {
        "details": "Returns `true` if `account` has been granted `role`."
      },
      "isApprovedForAll(address,address)": {
        "details": "See {IERC721-isApprovedForAll}."
      },
      "mint(address)": {
        "details": "Creates a new token for `to`. Its token ID will be automatically assigned (and available on the emitted {IERC721-Transfer} event), and the token URI autogenerated based on the base URI passed at construction. See {ERC721-_mint}. Requirements: - the caller must have the `MINTER_ROLE`."
      },
      "name()": {
        "details": "See {IERC721Metadata-name}."
      },
      "ownerOf(uint256)": {
        "details": "See {IERC721-ownerOf}."
      },
      "pause()": {
        "details": "Pauses all token transfers. See {ERC721Pausable} and {Pausable-_pause}. Requirements: - the caller must have the `PAUSER_ROLE`."
      },
      "paused()": {
        "details": "Returns true if the contract is paused, and false otherwise."
      },
      "renounceRole(bytes32,address)": {
        "details": "Revokes `role` from the calling account. Roles are often managed via {grantRole} and {revokeRole}: this function's purpose is to provide a mechanism for accounts to lose their privileges if they are compromised (such as when a trusted device is misplaced). If the calling account had been revoked `role`, emits a {RoleRevoked} event. Requirements: - the caller must be `account`. May emit a {RoleRevoked} event."
      },
      "revokeRole(bytes32,address)": {
        "details": "Revokes `role` from `account`. If `account` had been granted `role`, emits a {RoleRevoked} event. Requirements: - the caller must have ``role``'s admin role. May emit a {RoleRevoked} event."
      },
      "safeTransferFrom(address,address,uint256)": {
        "details": "See {IERC721-safeTransferFrom}."
      },
      "safeTransferFrom(address,address,uint256,bytes)": {
        "details": "See {IERC721-safeTransferFrom}."
      },
      "setApprovalForAll(address,bool)": {
        "details": "See {IERC721-setApprovalForAll}."
      },
      "supportsInterface(bytes4)": {
        "details": "See {IERC165-supportsInterface}."
      },
      "symbol()": {
        "details": "See {IERC721Metadata-symbol}."
      },
      "tokenByIndex(uint256)": {
        "details": "See {IERC721Enumerable-tokenByIndex}."
      },
      "tokenOfOwnerByIndex(address,uint256)": {
        "details": "See {IERC721Enumerable-tokenOfOwnerByIndex}."
      },
      "tokenURI(uint256)": {
        "details": "See {IERC721Metadata-tokenURI}."
      },
      "totalSupply()": {
        "details": "See {IERC721Enumerable-totalSupply}."
      },
      "transferFrom(address,address,uint256)": {
        "details": "See {IERC721-transferFrom}."
      },
      "unpause()": {
        "details": "Unpauses all token transfers. See {ERC721Pausable} and {Pausable-_unpause}. Requirements: - the caller must have the `PAUSER_ROLE`."
      }
    },
    "version": 1
  },
  "userdoc": {
    "kind": "user",
    "methods": {},
    "version": 1
  },
  "storageLayout": {
    "storage": [
      {
        "astId": 24,
        "contract": "contracts/LarvaMaiorum.sol:LarvaMaiorum",
        "label": "_roles",
        "offset": 0,
        "slot": "0",
        "type": "t_mapping(t_bytes32,t_struct(RoleData)19_storage)"
      },
      {
        "astId": 338,
        "contract": "contracts/LarvaMaiorum.sol:LarvaMaiorum",
        "label": "_roleMembers",
        "offset": 0,
        "slot": "1",
        "type": "t_mapping(t_bytes32,t_struct(AddressSet)3079_storage)"
      },
      {
        "astId": 676,
        "contract": "contracts/LarvaMaiorum.sol:LarvaMaiorum",
        "label": "_name",
        "offset": 0,
        "slot": "2",
        "type": "t_string_storage"
      },
      {
        "astId": 678,
        "contract": "contracts/LarvaMaiorum.sol:LarvaMaiorum",
        "label": "_symbol",
        "offset": 0,
        "slot": "3",
        "type": "t_string_storage"
      },
      {
        "astId": 682,
        "contract": "contracts/LarvaMaiorum.sol:LarvaMaiorum",
        "label": "_owners",
        "offset": 0,
        "slot": "4",
        "type": "t_mapping(t_uint256,t_address)"
      },
      {
        "astId": 686,
        "contract": "contracts/LarvaMaiorum.sol:LarvaMaiorum",
        "label": "_balances",
        "offset": 0,
        "slot": "5",
        "type": "t_mapping(t_address,t_uint256)"
      },
      {
        "astId": 690,
        "contract": "contracts/LarvaMaiorum.sol:LarvaMaiorum",
        "label": "_tokenApprovals",
        "offset": 0,
        "slot": "6",
        "type": "t_mapping(t_uint256,t_address)"
      },
      {
        "astId": 696,
        "contract": "contracts/LarvaMaiorum.sol:LarvaMaiorum",
        "label": "_operatorApprovals",
        "offset": 0,
        "slot": "7",
        "type": "t_mapping(t_address,t_mapping(t_address,t_bool))"
      },
      {
        "astId": 1696,
        "contract": "contracts/LarvaMaiorum.sol:LarvaMaiorum",
        "label": "_ownedTokens",
        "offset": 0,
        "slot": "8",
        "type": "t_mapping(t_address,t_mapping(t_uint256,t_uint256))"
      },
      {
        "astId": 1700,
        "contract": "contracts/LarvaMaiorum.sol:LarvaMaiorum",
        "label": "_ownedTokensIndex",
        "offset": 0,
        "slot": "9",
        "type": "t_mapping(t_uint256,t_uint256)"
      },
      {
        "astId": 1703,
        "contract": "contracts/LarvaMaiorum.sol:LarvaMaiorum",
        "label": "_allTokens",
        "offset": 0,
        "slot": "10",
        "type": "t_array(t_uint256)dyn_storage"
      },
      {
        "astId": 1707,
        "contract": "contracts/LarvaMaiorum.sol:LarvaMaiorum",
        "label": "_allTokensIndex",
        "offset": 0,
        "slot": "11",
        "type": "t_mapping(t_uint256,t_uint256)"
      },
      {
        "astId": 560,
        "contract": "contracts/LarvaMaiorum.sol:LarvaMaiorum",
        "label": "_paused",
        "offset": 0,
        "slot": "12",
        "type": "t_bool"
      },
      {
        "astId": 3423,
        "contract": "contracts/LarvaMaiorum.sol:LarvaMaiorum",
        "label": "_tokenIdTracker",
        "offset": 0,
        "slot": "13",
        "type": "t_struct(Counter)2437_storage"
      },
      {
        "astId": 3425,
        "contract": "contracts/LarvaMaiorum.sol:LarvaMaiorum",
        "label": "_baseTokenURI",
        "offset": 0,
        "slot": "14",
        "type": "t_string_storage"
      },
      {
        "astId": 3428,
        "contract": "contracts/LarvaMaiorum.sol:LarvaMaiorum",
        "label": "metadataUris",
        "offset": 0,
        "slot": "15",
        "type": "t_array(t_string_storage)dyn_storage"
      },
      {
        "astId": 3432,
        "contract": "contracts/LarvaMaiorum.sol:LarvaMaiorum",
        "label": "tokenIdToMetadataUri",
        "offset": 0,
        "slot": "16",
        "type": "t_mapping(t_uint256,t_uint256)"
      },
      {
        "astId": 3436,
        "contract": "contracts/LarvaMaiorum.sol:LarvaMaiorum",
        "label": "allowList",
        "offset": 0,
        "slot": "17",
        "type": "t_mapping(t_address,t_uint256)"
      },
      {
        "astId": 3438,
        "contract": "contracts/LarvaMaiorum.sol:LarvaMaiorum",
        "label": "currentlyMinting",
        "offset": 0,
        "slot": "18",
        "type": "t_uint256"
      },
      {
        "astId": 3440,
        "contract": "contracts/LarvaMaiorum.sol:LarvaMaiorum",
        "label": "maxSupply",
        "offset": 0,
        "slot": "19",
        "type": "t_uint256"
      },
      {
        "astId": 3442,
        "contract": "contracts/LarvaMaiorum.sol:LarvaMaiorum",
        "label": "contractURI",
        "offset": 0,
        "slot": "20",
        "type": "t_string_storage"
      }
    ],
    "types": {
      "t_address": {
        "encoding": "inplace",
        "label": "address",
        "numberOfBytes": "20"
      },
      "t_array(t_bytes32)dyn_storage": {
        "base": "t_bytes32",
        "encoding": "dynamic_array",
        "label": "bytes32[]",
        "numberOfBytes": "32"
      },
      "t_array(t_string_storage)dyn_storage": {
        "base": "t_string_storage",
        "encoding": "dynamic_array",
        "label": "string[]",
        "numberOfBytes": "32"
      },
      "t_array(t_uint256)dyn_storage": {
        "base": "t_uint256",
        "encoding": "dynamic_array",
        "label": "uint256[]",
        "numberOfBytes": "32"
      },
      "t_bool": {
        "encoding": "inplace",
        "label": "bool",
        "numberOfBytes": "1"
      },
      "t_bytes32": {
        "encoding": "inplace",
        "label": "bytes32",
        "numberOfBytes": "32"
      },
      "t_mapping(t_address,t_bool)": {
        "encoding": "mapping",
        "key": "t_address",
        "label": "mapping(address => bool)",
        "numberOfBytes": "32",
        "value": "t_bool"
      },
      "t_mapping(t_address,t_mapping(t_address,t_bool))": {
        "encoding": "mapping",
        "key": "t_address",
        "label": "mapping(address => mapping(address => bool))",
        "numberOfBytes": "32",
        "value": "t_mapping(t_address,t_bool)"
      },
      "t_mapping(t_address,t_mapping(t_uint256,t_uint256))": {
        "encoding": "mapping",
        "key": "t_address",
        "label": "mapping(address => mapping(uint256 => uint256))",
        "numberOfBytes": "32",
        "value": "t_mapping(t_uint256,t_uint256)"
      },
      "t_mapping(t_address,t_uint256)": {
        "encoding": "mapping",
        "key": "t_address",
        "label": "mapping(address => uint256)",
        "numberOfBytes": "32",
        "value": "t_uint256"
      },
      "t_mapping(t_bytes32,t_struct(AddressSet)3079_storage)": {
        "encoding": "mapping",
        "key": "t_bytes32",
        "label": "mapping(bytes32 => struct EnumerableSet.AddressSet)",
        "numberOfBytes": "32",
        "value": "t_struct(AddressSet)3079_storage"
      },
      "t_mapping(t_bytes32,t_struct(RoleData)19_storage)": {
        "encoding": "mapping",
        "key": "t_bytes32",
        "label": "mapping(bytes32 => struct AccessControl.RoleData)",
        "numberOfBytes": "32",
        "value": "t_struct(RoleData)19_storage"
      },
      "t_mapping(t_bytes32,t_uint256)": {
        "encoding": "mapping",
        "key": "t_bytes32",
        "label": "mapping(bytes32 => uint256)",
        "numberOfBytes": "32",
        "value": "t_uint256"
      },
      "t_mapping(t_uint256,t_address)": {
        "encoding": "mapping",
        "key": "t_uint256",
        "label": "mapping(uint256 => address)",
        "numberOfBytes": "32",
        "value": "t_address"
      },
      "t_mapping(t_uint256,t_uint256)": {
        "encoding": "mapping",
        "key": "t_uint256",
        "label": "mapping(uint256 => uint256)",
        "numberOfBytes": "32",
        "value": "t_uint256"
      },
      "t_string_storage": {
        "encoding": "bytes",
        "label": "string",
        "numberOfBytes": "32"
      },
      "t_struct(AddressSet)3079_storage": {
        "encoding": "inplace",
        "label": "struct EnumerableSet.AddressSet",
        "members": [
          {
            "astId": 3078,
            "contract": "contracts/LarvaMaiorum.sol:LarvaMaiorum",
            "label": "_inner",
            "offset": 0,
            "slot": "0",
            "type": "t_struct(Set)2778_storage"
          }
        ],
        "numberOfBytes": "64"
      },
      "t_struct(Counter)2437_storage": {
        "encoding": "inplace",
        "label": "struct Counters.Counter",
        "members": [
          {
            "astId": 2436,
            "contract": "contracts/LarvaMaiorum.sol:LarvaMaiorum",
            "label": "_value",
            "offset": 0,
            "slot": "0",
            "type": "t_uint256"
          }
        ],
        "numberOfBytes": "32"
      },
      "t_struct(RoleData)19_storage": {
        "encoding": "inplace",
        "label": "struct AccessControl.RoleData",
        "members": [
          {
            "astId": 16,
            "contract": "contracts/LarvaMaiorum.sol:LarvaMaiorum",
            "label": "members",
            "offset": 0,
            "slot": "0",
            "type": "t_mapping(t_address,t_bool)"
          },
          {
            "astId": 18,
            "contract": "contracts/LarvaMaiorum.sol:LarvaMaiorum",
            "label": "adminRole",
            "offset": 0,
            "slot": "1",
            "type": "t_bytes32"
          }
        ],
        "numberOfBytes": "64"
      },
      "t_struct(Set)2778_storage": {
        "encoding": "inplace",
        "label": "struct EnumerableSet.Set",
        "members": [
          {
            "astId": 2773,
            "contract": "contracts/LarvaMaiorum.sol:LarvaMaiorum",
            "label": "_values",
            "offset": 0,
            "slot": "0",
            "type": "t_array(t_bytes32)dyn_storage"
          },
          {
            "astId": 2777,
            "contract": "contracts/LarvaMaiorum.sol:LarvaMaiorum",
            "label": "_indexes",
            "offset": 0,
            "slot": "1",
            "type": "t_mapping(t_bytes32,t_uint256)"
          }
        ],
        "numberOfBytes": "64"
      },
      "t_uint256": {
        "encoding": "inplace",
        "label": "uint256",
        "numberOfBytes": "32"
      }
    }
  }
}