{
  "address": "0x3E3D8640D6fCFA4fcfbE5e0922baaF0b8f99D7c4",
  "abi": [
    {
      "inputs": [
        {
          "internalType": "address",
          "name": "trustedForwarder",
          "type": "address"
        },
        {
          "internalType": "address",
          "name": "initialOwner",
          "type": "address"
        }
      ],
      "stateMutability": "nonpayable",
      "type": "constructor"
    },
    {
      "anonymous": false,
      "inputs": [
        {
          "indexed": true,
          "internalType": "address",
          "name": "account",
          "type": "address"
        },
        {
          "indexed": true,
          "internalType": "address",
          "name": "operator",
          "type": "address"
        },
        {
          "indexed": false,
          "internalType": "bool",
          "name": "approved",
          "type": "bool"
        }
      ],
      "name": "ApprovalForAll",
      "type": "event"
    },
    {
      "anonymous": false,
      "inputs": [
        {
          "indexed": true,
          "internalType": "bytes32",
          "name": "role",
          "type": "bytes32"
        },
        {
          "indexed": true,
          "internalType": "bytes32",
          "name": "previousAdminRole",
          "type": "bytes32"
        },
        {
          "indexed": true,
          "internalType": "bytes32",
          "name": "newAdminRole",
          "type": "bytes32"
        }
      ],
      "name": "RoleAdminChanged",
      "type": "event"
    },
    {
      "anonymous": false,
      "inputs": [
        {
          "indexed": true,
          "internalType": "bytes32",
          "name": "role",
          "type": "bytes32"
        },
        {
          "indexed": true,
          "internalType": "address",
          "name": "account",
          "type": "address"
        },
        {
          "indexed": true,
          "internalType": "address",
          "name": "sender",
          "type": "address"
        }
      ],
      "name": "RoleGranted",
      "type": "event"
    },
    {
      "anonymous": false,
      "inputs": [
        {
          "indexed": true,
          "internalType": "bytes32",
          "name": "role",
          "type": "bytes32"
        },
        {
          "indexed": true,
          "internalType": "address",
          "name": "account",
          "type": "address"
        },
        {
          "indexed": true,
          "internalType": "address",
          "name": "sender",
          "type": "address"
        }
      ],
      "name": "RoleRevoked",
      "type": "event"
    },
    {
      "anonymous": false,
      "inputs": [
        {
          "indexed": true,
          "internalType": "address",
          "name": "operator",
          "type": "address"
        },
        {
          "indexed": true,
          "internalType": "address",
          "name": "from",
          "type": "address"
        },
        {
          "indexed": true,
          "internalType": "address",
          "name": "to",
          "type": "address"
        },
        {
          "indexed": false,
          "internalType": "uint256[]",
          "name": "ids",
          "type": "uint256[]"
        },
        {
          "indexed": false,
          "internalType": "uint256[]",
          "name": "values",
          "type": "uint256[]"
        }
      ],
      "name": "TransferBatch",
      "type": "event"
    },
    {
      "anonymous": false,
      "inputs": [
        {
          "indexed": true,
          "internalType": "address",
          "name": "operator",
          "type": "address"
        },
        {
          "indexed": true,
          "internalType": "address",
          "name": "from",
          "type": "address"
        },
        {
          "indexed": true,
          "internalType": "address",
          "name": "to",
          "type": "address"
        },
        {
          "indexed": false,
          "internalType": "uint256",
          "name": "id",
          "type": "uint256"
        },
        {
          "indexed": false,
          "internalType": "uint256",
          "name": "value",
          "type": "uint256"
        }
      ],
      "name": "TransferSingle",
      "type": "event"
    },
    {
      "anonymous": false,
      "inputs": [
        {
          "indexed": false,
          "internalType": "string",
          "name": "value",
          "type": "string"
        },
        {
          "indexed": true,
          "internalType": "uint256",
          "name": "id",
          "type": "uint256"
        }
      ],
      "name": "URI",
      "type": "event"
    },
    {
      "inputs": [],
      "name": "DEFAULT_ADMIN_ROLE",
      "outputs": [
        {
          "internalType": "bytes32",
          "name": "",
          "type": "bytes32"
        }
      ],
      "stateMutability": "view",
      "type": "function"
    },
    {
      "inputs": [],
      "name": "MINTER_ROLE",
      "outputs": [
        {
          "internalType": "bytes32",
          "name": "",
          "type": "bytes32"
        }
      ],
      "stateMutability": "view",
      "type": "function"
    },
    {
      "inputs": [],
      "name": "URI_SETTER_ROLE",
      "outputs": [
        {
          "internalType": "bytes32",
          "name": "",
          "type": "bytes32"
        }
      ],
      "stateMutability": "view",
      "type": "function"
    },
    {
      "inputs": [
        {
          "internalType": "address",
          "name": "account",
          "type": "address"
        },
        {
          "internalType": "uint256",
          "name": "id",
          "type": "uint256"
        }
      ],
      "name": "balanceOf",
      "outputs": [
        {
          "internalType": "uint256",
          "name": "",
          "type": "uint256"
        }
      ],
      "stateMutability": "view",
      "type": "function"
    },
    {
      "inputs": [
        {
          "internalType": "address[]",
          "name": "accounts",
          "type": "address[]"
        },
        {
          "internalType": "uint256[]",
          "name": "ids",
          "type": "uint256[]"
        }
      ],
      "name": "balanceOfBatch",
      "outputs": [
        {
          "internalType": "uint256[]",
          "name": "",
          "type": "uint256[]"
        }
      ],
      "stateMutability": "view",
      "type": "function"
    },
    {
      "inputs": [],
      "name": "contractURI",
      "outputs": [
        {
          "internalType": "string",
          "name": "",
          "type": "string"
        }
      ],
      "stateMutability": "view",
      "type": "function"
    },
    {
      "inputs": [
        {
          "internalType": "uint256",
          "name": "id",
          "type": "uint256"
        }
      ],
      "name": "exists",
      "outputs": [
        {
          "internalType": "bool",
          "name": "",
          "type": "bool"
        }
      ],
      "stateMutability": "view",
      "type": "function"
    },
    {
      "inputs": [
        {
          "internalType": "bytes32",
          "name": "role",
          "type": "bytes32"
        }
      ],
      "name": "getRoleAdmin",
      "outputs": [
        {
          "internalType": "bytes32",
          "name": "",
          "type": "bytes32"
        }
      ],
      "stateMutability": "view",
      "type": "function"
    },
    {
      "inputs": [
        {
          "internalType": "bytes32",
          "name": "role",
          "type": "bytes32"
        },
        {
          "internalType": "address",
          "name": "account",
          "type": "address"
        }
      ],
      "name": "grantRole",
      "outputs": [],
      "stateMutability": "nonpayable",
      "type": "function"
    },
    {
      "inputs": [
        {
          "internalType": "bytes32",
          "name": "role",
          "type": "bytes32"
        },
        {
          "internalType": "address",
          "name": "account",
          "type": "address"
        }
      ],
      "name": "hasRole",
      "outputs": [
        {
          "internalType": "bool",
          "name": "",
          "type": "bool"
        }
      ],
      "stateMutability": "view",
      "type": "function"
    },
    {
      "inputs": [
        {
          "internalType": "address",
          "name": "account",
          "type": "address"
        },
        {
          "internalType": "address",
          "name": "operator",
          "type": "address"
        }
      ],
      "name": "isApprovedForAll",
      "outputs": [
        {
          "internalType": "bool",
          "name": "",
          "type": "bool"
        }
      ],
      "stateMutability": "view",
      "type": "function"
    },
    {
      "inputs": [
        {
          "internalType": "address",
          "name": "forwarder",
          "type": "address"
        }
      ],
      "name": "isTrustedForwarder",
      "outputs": [
        {
          "internalType": "bool",
          "name": "",
          "type": "bool"
        }
      ],
      "stateMutability": "view",
      "type": "function"
    },
    {
      "inputs": [
        {
          "internalType": "address",
          "name": "account",
          "type": "address"
        },
        {
          "internalType": "uint256",
          "name": "id",
          "type": "uint256"
        },
        {
          "internalType": "uint256",
          "name": "amount",
          "type": "uint256"
        },
        {
          "internalType": "bytes",
          "name": "data",
          "type": "bytes"
        }
      ],
      "name": "mint",
      "outputs": [],
      "stateMutability": "nonpayable",
      "type": "function"
    },
    {
      "inputs": [
        {
          "internalType": "address",
          "name": "to",
          "type": "address"
        },
        {
          "internalType": "uint256[]",
          "name": "ids",
          "type": "uint256[]"
        },
        {
          "internalType": "uint256[]",
          "name": "amounts",
          "type": "uint256[]"
        },
        {
          "internalType": "bytes",
          "name": "data",
          "type": "bytes"
        }
      ],
      "name": "mintBatch",
      "outputs": [],
      "stateMutability": "nonpayable",
      "type": "function"
    },
    {
      "inputs": [
        {
          "internalType": "bytes32",
          "name": "role",
          "type": "bytes32"
        },
        {
          "internalType": "address",
          "name": "account",
          "type": "address"
        }
      ],
      "name": "renounceRole",
      "outputs": [],
      "stateMutability": "nonpayable",
      "type": "function"
    },
    {
      "inputs": [
        {
          "internalType": "bytes32",
          "name": "role",
          "type": "bytes32"
        },
        {
          "internalType": "address",
          "name": "account",
          "type": "address"
        }
      ],
      "name": "revokeRole",
      "outputs": [],
      "stateMutability": "nonpayable",
      "type": "function"
    },
    {
      "inputs": [
        {
          "internalType": "address",
          "name": "from",
          "type": "address"
        },
        {
          "internalType": "address",
          "name": "to",
          "type": "address"
        },
        {
          "internalType": "uint256[]",
          "name": "ids",
          "type": "uint256[]"
        },
        {
          "internalType": "uint256[]",
          "name": "amounts",
          "type": "uint256[]"
        },
        {
          "internalType": "bytes",
          "name": "data",
          "type": "bytes"
        }
      ],
      "name": "safeBatchTransferFrom",
      "outputs": [],
      "stateMutability": "nonpayable",
      "type": "function"
    },
    {
      "inputs": [
        {
          "internalType": "address",
          "name": "from",
          "type": "address"
        },
        {
          "internalType": "address",
          "name": "to",
          "type": "address"
        },
        {
          "internalType": "uint256",
          "name": "id",
          "type": "uint256"
        },
        {
          "internalType": "uint256",
          "name": "amount",
          "type": "uint256"
        },
        {
          "internalType": "bytes",
          "name": "data",
          "type": "bytes"
        }
      ],
      "name": "safeTransferFrom",
      "outputs": [],
      "stateMutability": "nonpayable",
      "type": "function"
    },
    {
      "inputs": [
        {
          "internalType": "address",
          "name": "operator",
          "type": "address"
        },
        {
          "internalType": "bool",
          "name": "approved",
          "type": "bool"
        }
      ],
      "name": "setApprovalForAll",
      "outputs": [],
      "stateMutability": "nonpayable",
      "type": "function"
    },
    {
      "inputs": [
        {
          "internalType": "string",
          "name": "newuri",
          "type": "string"
        }
      ],
      "name": "setContractURI",
      "outputs": [],
      "stateMutability": "nonpayable",
      "type": "function"
    },
    {
      "inputs": [
        {
          "internalType": "string",
          "name": "newuri",
          "type": "string"
        }
      ],
      "name": "setURI",
      "outputs": [],
      "stateMutability": "nonpayable",
      "type": "function"
    },
    {
      "inputs": [
        {
          "internalType": "bytes4",
          "name": "interfaceId",
          "type": "bytes4"
        }
      ],
      "name": "supportsInterface",
      "outputs": [
        {
          "internalType": "bool",
          "name": "",
          "type": "bool"
        }
      ],
      "stateMutability": "view",
      "type": "function"
    },
    {
      "inputs": [
        {
          "internalType": "uint256",
          "name": "id",
          "type": "uint256"
        }
      ],
      "name": "totalSupply",
      "outputs": [
        {
          "internalType": "uint256",
          "name": "",
          "type": "uint256"
        }
      ],
      "stateMutability": "view",
      "type": "function"
    },
    {
      "inputs": [
        {
          "internalType": "uint256",
          "name": "",
          "type": "uint256"
        }
      ],
      "name": "uri",
      "outputs": [
        {
          "internalType": "string",
          "name": "",
          "type": "string"
        }
      ],
      "stateMutability": "view",
      "type": "function"
    },
    {
      "inputs": [],
      "name": "version",
      "outputs": [
        {
          "internalType": "uint64",
          "name": "",
          "type": "uint64"
        }
      ],
      "stateMutability": "view",
      "type": "function"
    }
  ],
  "transactionHash": "0x00816d1f208bf0dff460a6fb040e211bec4ca6a823bae624969784127cdb7db4",
  "args": [
    "0xe00e66A2713E924b9CC56319752021747dDDEaA3",
    "0x6DE3D3747D54d0Adc11e5Cf678D4045B0441D332"
  ],
  "numDeployments": 1,
  "solcInputHash": "46af7d23967cd35970d2d586a9b7516a",
  "bytecode": "0x60a06040523480156200001157600080fd5b506040516200448538038062004485833981810160405281019062000037919062000471565b816040518060400160405280601e81526020017f43727970746f20436f6c6f737365756d3a2047726170686963204c6f726500008152506200007f816200013660201b60201c565b508073ffffffffffffffffffffffffffffffffffffffff1660808173ffffffffffffffffffffffffffffffffffffffff168152505050620000ca6000801b826200015260201b60201c565b620000fc7f7804d923f43a17d325d77e781528e0793b2edd9890ab45fc64efd7b4b427744c826200015260201b60201c565b6200012e7f9f2df0fed2c77648de5860a4cc508cd0818c85b8b8a1ab4ceeef8d981c8956a6826200015260201b60201c565b50506200051d565b80600290805190602001906200014e92919062000357565b5050565b6200016482826200024460201b60201c565b620002405760016003600084815260200190815260200160002060000160008373ffffffffffffffffffffffffffffffffffffffff1673ffffffffffffffffffffffffffffffffffffffff16815260200190815260200160002060006101000a81548160ff021916908315150217905550620001e5620002af60201b60201c565b73ffffffffffffffffffffffffffffffffffffffff168173ffffffffffffffffffffffffffffffffffffffff16837f2f8788117e7eff1d82e926ec794901d17c78024a50270940304540a733656f0d60405160405180910390a45b5050565b60006003600084815260200190815260200160002060000160008373ffffffffffffffffffffffffffffffffffffffff1673ffffffffffffffffffffffffffffffffffffffff16815260200190815260200160002060009054906101000a900460ff16905092915050565b6000620002c6620002cb60201b62000d2e1760201c565b905090565b6000620002de336200031560201b60201c565b15620002f457601436033560601c905062000311565b620003096200034f60201b62000d601760201c565b905062000312565b5b90565b600060805173ffffffffffffffffffffffffffffffffffffffff168273ffffffffffffffffffffffffffffffffffffffff16149050919050565b600033905090565b8280546200036590620004e7565b90600052602060002090601f016020900481019282620003895760008555620003d5565b82601f10620003a457805160ff1916838001178555620003d5565b82800160010185558215620003d5579182015b82811115620003d4578251825591602001919060010190620003b7565b5b509050620003e49190620003e8565b5090565b5b8082111562000403576000816000905550600101620003e9565b5090565b600080fd5b600073ffffffffffffffffffffffffffffffffffffffff82169050919050565b600062000439826200040c565b9050919050565b6200044b816200042c565b81146200045757600080fd5b50565b6000815190506200046b8162000440565b92915050565b600080604083850312156200048b576200048a62000407565b5b60006200049b858286016200045a565b9250506020620004ae858286016200045a565b9150509250929050565b7f4e487b7100000000000000000000000000000000000000000000000000000000600052602260045260246000fd5b600060028204905060018216806200050057607f821691505b60208210811415620005175762000516620004b8565b5b50919050565b608051613f4c6200053960003960006109830152613f4c6000f3fe608060405234801561001057600080fd5b50600436106101725760003560e01c8063572b6c05116100de578063a22cb46511610097578063d547741f11610071578063d547741f1461047f578063e8a3d4851461049b578063e985e9c5146104b9578063f242432a146104e957610172565b8063a22cb46514610415578063bd85b03914610431578063d53913931461046157610172565b8063572b6c0514610341578063731133e9146103715780637f3457101461038d57806391d14854146103ab578063938e3d7b146103db578063a217fddf146103f757610172565b80632eb2c2d6116101305780632eb2c2d61461026f5780632f2ff15d1461028b57806336568abe146102a75780634e1273f4146102c35780634f558e79146102f357806354fd4d501461032357610172565b8062fdd58e1461017757806301ffc9a7146101a757806302fe5305146101d75780630e89341c146101f35780631f7fdffa14610223578063248a9ca31461023f575b600080fd5b610191600480360381019061018c91906126be565b610505565b60405161019e919061270d565b60405180910390f35b6101c160048036038101906101bc9190612780565b6105ce565b6040516101ce91906127c8565b60405180910390f35b6101f160048036038101906101ec9190612929565b6105e0565b005b61020d60048036038101906102089190612972565b610617565b60405161021a9190612a27565b60405180910390f35b61023d60048036038101906102389190612bb2565b6106ab565b005b61025960048036038101906102549190612ca3565b6106e8565b6040516102669190612cdf565b60405180910390f35b61028960048036038101906102849190612cfa565b610708565b005b6102a560048036038101906102a09190612dc9565b6107a9565b005b6102c160048036038101906102bc9190612dc9565b6107ca565b005b6102dd60048036038101906102d89190612ecc565b61084d565b6040516102ea9190613002565b60405180910390f35b61030d60048036038101906103089190612972565b610966565b60405161031a91906127c8565b60405180910390f35b61032b61097a565b6040516103389190613047565b60405180910390f35b61035b60048036038101906103569190613062565b61097f565b60405161036891906127c8565b60405180910390f35b61038b6004803603810190610386919061308f565b6109d7565b005b610395610a14565b6040516103a29190612cdf565b60405180910390f35b6103c560048036038101906103c09190612dc9565b610a38565b6040516103d291906127c8565b60405180910390f35b6103f560048036038101906103f09190612929565b610aa3565b005b6103ff610ae8565b60405161040c9190612cdf565b60405180910390f35b61042f600480360381019061042a919061313e565b610aef565b005b61044b60048036038101906104469190612972565b610b05565b604051610458919061270d565b60405180910390f35b610469610b22565b6040516104769190612cdf565b60405180910390f35b61049960048036038101906104949190612dc9565b610b46565b005b6104a3610b67565b6040516104b09190612a27565b60405180910390f35b6104d360048036038101906104ce919061317e565b610bf9565b6040516104e091906127c8565b60405180910390f35b61050360048036038101906104fe91906131be565b610c8d565b005b60008073ffffffffffffffffffffffffffffffffffffffff168373ffffffffffffffffffffffffffffffffffffffff161415610576576040517f08c379a000000000000000000000000000000000000000000000000000000000815260040161056d906132c7565b60405180910390fd5b60008083815260200190815260200160002060008473ffffffffffffffffffffffffffffffffffffffff1673ffffffffffffffffffffffffffffffffffffffff16815260200190815260200160002054905092915050565b60006105d982610d68565b9050919050565b7f7804d923f43a17d325d77e781528e0793b2edd9890ab45fc64efd7b4b427744c61060a81610de2565b61061382610df6565b5050565b60606002805461062690613316565b80601f016020809104026020016040519081016040528092919081815260200182805461065290613316565b801561069f5780601f106106745761010080835404028352916020019161069f565b820191906000526020600020905b81548152906001019060200180831161068257829003601f168201915b50505050509050919050565b7f9f2df0fed2c77648de5860a4cc508cd0818c85b8b8a1ab4ceeef8d981c8956a66106d581610de2565b6106e185858585610e10565b5050505050565b600060036000838152602001908152602001600020600101549050919050565b61071061103d565b73ffffffffffffffffffffffffffffffffffffffff168573ffffffffffffffffffffffffffffffffffffffff16148061075657506107558561075061103d565b610bf9565b5b610795576040517f08c379a000000000000000000000000000000000000000000000000000000000815260040161078c906133ba565b60405180910390fd5b6107a2858585858561104c565b5050505050565b6107b2826106e8565b6107bb81610de2565b6107c5838361136e565b505050565b6107d261103d565b73ffffffffffffffffffffffffffffffffffffffff168173ffffffffffffffffffffffffffffffffffffffff161461083f576040517f08c379a00000000000000000000000000000000000000000000000000000000081526004016108369061344c565b60405180910390fd5b610849828261144f565b5050565b60608151835114610893576040517f08c379a000000000000000000000000000000000000000000000000000000000815260040161088a906134de565b60405180910390fd5b6000835167ffffffffffffffff8111156108b0576108af6127fe565b5b6040519080825280602002602001820160405280156108de5781602001602082028036833780820191505090505b50905060005b845181101561095b5761092b858281518110610903576109026134fe565b5b602002602001015185838151811061091e5761091d6134fe565b5b6020026020010151610505565b82828151811061093e5761093d6134fe565b5b602002602001018181525050806109549061355c565b90506108e4565b508091505092915050565b60008061097283610b05565b119050919050565b600281565b60007f000000000000000000000000000000000000000000000000000000000000000073ffffffffffffffffffffffffffffffffffffffff168273ffffffffffffffffffffffffffffffffffffffff16149050919050565b7f9f2df0fed2c77648de5860a4cc508cd0818c85b8b8a1ab4ceeef8d981c8956a6610a0181610de2565b610a0d85858585611531565b5050505050565b7f7804d923f43a17d325d77e781528e0793b2edd9890ab45fc64efd7b4b427744c81565b60006003600084815260200190815260200160002060000160008373ffffffffffffffffffffffffffffffffffffffff1673ffffffffffffffffffffffffffffffffffffffff16815260200190815260200160002060009054906101000a900460ff16905092915050565b7f7804d923f43a17d325d77e781528e0793b2edd9890ab45fc64efd7b4b427744c610acd81610de2565b8160059080519060200190610ae3929190612573565b505050565b6000801b81565b610b01610afa61103d565b83836116e2565b5050565b600060046000838152602001908152602001600020549050919050565b7f9f2df0fed2c77648de5860a4cc508cd0818c85b8b8a1ab4ceeef8d981c8956a681565b610b4f826106e8565b610b5881610de2565b610b62838361144f565b505050565b606060058054610b7690613316565b80601f0160208091040260200160405190810160405280929190818152602001828054610ba290613316565b8015610bef5780601f10610bc457610100808354040283529160200191610bef565b820191906000526020600020905b815481529060010190602001808311610bd257829003601f168201915b5050505050905090565b6000600160008473ffffffffffffffffffffffffffffffffffffffff1673ffffffffffffffffffffffffffffffffffffffff16815260200190815260200160002060008373ffffffffffffffffffffffffffffffffffffffff1673ffffffffffffffffffffffffffffffffffffffff16815260200190815260200160002060009054906101000a900460ff16905092915050565b610c9561103d565b73ffffffffffffffffffffffffffffffffffffffff168573ffffffffffffffffffffffffffffffffffffffff161480610cdb5750610cda85610cd561103d565b610bf9565b5b610d1a576040517f08c379a0000000000000000000000000000000000000000000000000000000008152600401610d11906133ba565b60405180910390fd5b610d27858585858561184f565b5050505050565b6000610d393361097f565b15610d4d57601436033560601c9050610d5c565b610d55610d60565b9050610d5d565b5b90565b600033905090565b60007f7965db0b000000000000000000000000000000000000000000000000000000007bffffffffffffffffffffffffffffffffffffffffffffffffffffffff1916827bffffffffffffffffffffffffffffffffffffffffffffffffffffffff19161480610ddb5750610dda82611aeb565b5b9050919050565b610df381610dee61103d565b611bcd565b50565b8060029080519060200190610e0c929190612573565b5050565b600073ffffffffffffffffffffffffffffffffffffffff168473ffffffffffffffffffffffffffffffffffffffff161415610e80576040517f08c379a0000000000000000000000000000000000000000000000000000000008152600401610e7790613617565b60405180910390fd5b8151835114610ec4576040517f08c379a0000000000000000000000000000000000000000000000000000000008152600401610ebb906136a9565b60405180910390fd5b6000610ece61103d565b9050610edf81600087878787611c6a565b60005b8451811015610f9857838181518110610efe57610efd6134fe565b5b6020026020010151600080878481518110610f1c57610f1b6134fe565b5b6020026020010151815260200190815260200160002060008873ffffffffffffffffffffffffffffffffffffffff1673ffffffffffffffffffffffffffffffffffffffff1681526020019081526020016000206000828254610f7e91906136c9565b925050819055508080610f909061355c565b915050610ee2565b508473ffffffffffffffffffffffffffffffffffffffff16600073ffffffffffffffffffffffffffffffffffffffff168273ffffffffffffffffffffffffffffffffffffffff167f4a39dc06d4c0dbc64b70af90fd698a233a518aa5d07e595d983b8c0526c8f7fb878760405161101092919061371f565b60405180910390a461102781600087878787611c80565b61103681600087878787611c88565b5050505050565b6000611047610d2e565b905090565b8151835114611090576040517f08c379a0000000000000000000000000000000000000000000000000000000008152600401611087906136a9565b60405180910390fd5b600073ffffffffffffffffffffffffffffffffffffffff168473ffffffffffffffffffffffffffffffffffffffff161415611100576040517f08c379a00000000000000000000000000000000000000000000000000000000081526004016110f7906137c8565b60405180910390fd5b600061110a61103d565b905061111a818787878787611c6a565b60005b84518110156112cb57600085828151811061113b5761113a6134fe565b5b60200260200101519050600085838151811061115a576111596134fe565b5b60200260200101519050600080600084815260200190815260200160002060008b73ffffffffffffffffffffffffffffffffffffffff1673ffffffffffffffffffffffffffffffffffffffff168152602001908152602001600020549050818110156111fb576040517f08c379a00000000000000000000000000000000000000000000000000000000081526004016111f29061385a565b60405180910390fd5b81810360008085815260200190815260200160002060008c73ffffffffffffffffffffffffffffffffffffffff1673ffffffffffffffffffffffffffffffffffffffff168152602001908152602001600020819055508160008085815260200190815260200160002060008b73ffffffffffffffffffffffffffffffffffffffff1673ffffffffffffffffffffffffffffffffffffffff16815260200190815260200160002060008282546112b091906136c9565b92505081905550505050806112c49061355c565b905061111d565b508473ffffffffffffffffffffffffffffffffffffffff168673ffffffffffffffffffffffffffffffffffffffff168273ffffffffffffffffffffffffffffffffffffffff167f4a39dc06d4c0dbc64b70af90fd698a233a518aa5d07e595d983b8c0526c8f7fb878760405161134292919061371f565b60405180910390a4611358818787878787611c80565b611366818787878787611c88565b505050505050565b6113788282610a38565b61144b5760016003600084815260200190815260200160002060000160008373ffffffffffffffffffffffffffffffffffffffff1673ffffffffffffffffffffffffffffffffffffffff16815260200190815260200160002060006101000a81548160ff0219169083151502179055506113f061103d565b73ffffffffffffffffffffffffffffffffffffffff168173ffffffffffffffffffffffffffffffffffffffff16837f2f8788117e7eff1d82e926ec794901d17c78024a50270940304540a733656f0d60405160405180910390a45b5050565b6114598282610a38565b1561152d5760006003600084815260200190815260200160002060000160008373ffffffffffffffffffffffffffffffffffffffff1673ffffffffffffffffffffffffffffffffffffffff16815260200190815260200160002060006101000a81548160ff0219169083151502179055506114d261103d565b73ffffffffffffffffffffffffffffffffffffffff168173ffffffffffffffffffffffffffffffffffffffff16837ff6391f5c32d9c69d2a47ea670b442974b53935d1edc7fd64eb21e047a839171b60405160405180910390a45b5050565b600073ffffffffffffffffffffffffffffffffffffffff168473ffffffffffffffffffffffffffffffffffffffff1614156115a1576040517f08c379a000000000000000000000000000000000000000000000000000000000815260040161159890613617565b60405180910390fd5b60006115ab61103d565b905060006115b885611e6f565b905060006115c585611e6f565b90506115d683600089858589611c6a565b8460008088815260200190815260200160002060008973ffffffffffffffffffffffffffffffffffffffff1673ffffffffffffffffffffffffffffffffffffffff168152602001908152602001600020600082825461163591906136c9565b925050819055508673ffffffffffffffffffffffffffffffffffffffff16600073ffffffffffffffffffffffffffffffffffffffff168473ffffffffffffffffffffffffffffffffffffffff167fc3d58168c5ae7397731d063d5bbf3d657854427343f4c083240f7aacaa2d0f6289896040516116b392919061387a565b60405180910390a46116ca83600089858589611c80565b6116d983600089898989611ee9565b50505050505050565b8173ffffffffffffffffffffffffffffffffffffffff168373ffffffffffffffffffffffffffffffffffffffff161415611751576040517f08c379a000000000000000000000000000000000000000000000000000000000815260040161174890613915565b60405180910390fd5b80600160008573ffffffffffffffffffffffffffffffffffffffff1673ffffffffffffffffffffffffffffffffffffffff16815260200190815260200160002060008473ffffffffffffffffffffffffffffffffffffffff1673ffffffffffffffffffffffffffffffffffffffff16815260200190815260200160002060006101000a81548160ff0219169083151502179055508173ffffffffffffffffffffffffffffffffffffffff168373ffffffffffffffffffffffffffffffffffffffff167f17307eab39ab6107e8899845ad3d59bd9653f200f220920489ca2b5937696c318360405161184291906127c8565b60405180910390a3505050565b600073ffffffffffffffffffffffffffffffffffffffff168473ffffffffffffffffffffffffffffffffffffffff1614156118bf576040517f08c379a00000000000000000000000000000000000000000000000000000000081526004016118b6906137c8565b60405180910390fd5b60006118c961103d565b905060006118d685611e6f565b905060006118e385611e6f565b90506118f3838989858589611c6a565b600080600088815260200190815260200160002060008a73ffffffffffffffffffffffffffffffffffffffff1673ffffffffffffffffffffffffffffffffffffffff1681526020019081526020016000205490508581101561198a576040517f08c379a00000000000000000000000000000000000000000000000000000000081526004016119819061385a565b60405180910390fd5b85810360008089815260200190815260200160002060008b73ffffffffffffffffffffffffffffffffffffffff1673ffffffffffffffffffffffffffffffffffffffff168152602001908152602001600020819055508560008089815260200190815260200160002060008a73ffffffffffffffffffffffffffffffffffffffff1673ffffffffffffffffffffffffffffffffffffffff1681526020019081526020016000206000828254611a3f91906136c9565b925050819055508773ffffffffffffffffffffffffffffffffffffffff168973ffffffffffffffffffffffffffffffffffffffff168573ffffffffffffffffffffffffffffffffffffffff167fc3d58168c5ae7397731d063d5bbf3d657854427343f4c083240f7aacaa2d0f628a8a604051611abc92919061387a565b60405180910390a4611ad2848a8a86868a611c80565b611ae0848a8a8a8a8a611ee9565b505050505050505050565b60007fd9b67a26000000000000000000000000000000000000000000000000000000007bffffffffffffffffffffffffffffffffffffffffffffffffffffffff1916827bffffffffffffffffffffffffffffffffffffffffffffffffffffffff19161480611bb657507f0e89341c000000000000000000000000000000000000000000000000000000007bffffffffffffffffffffffffffffffffffffffffffffffffffffffff1916827bffffffffffffffffffffffffffffffffffffffffffffffffffffffff1916145b80611bc65750611bc5826120d0565b5b9050919050565b611bd78282610a38565b611c6657611bfc8173ffffffffffffffffffffffffffffffffffffffff16601461213a565b611c0a8360001c602061213a565b604051602001611c1b929190613a09565b6040516020818303038152906040526040517f08c379a0000000000000000000000000000000000000000000000000000000008152600401611c5d9190612a27565b60405180910390fd5b5050565b611c78868686868686612376565b505050505050565b505050505050565b611ca78473ffffffffffffffffffffffffffffffffffffffff16612548565b15611e67578373ffffffffffffffffffffffffffffffffffffffff1663bc197c8187878686866040518663ffffffff1660e01b8152600401611ced959493929190613aa7565b602060405180830381600087803b158015611d0757600080fd5b505af1925050508015611d3857506040513d601f19601f82011682018060405250810190611d359190613b24565b60015b611dde57611d44613b5e565b806308c379a01415611da15750611d59613b80565b80611d645750611da3565b806040517f08c379a0000000000000000000000000000000000000000000000000000000008152600401611d989190612a27565b60405180910390fd5b505b6040517f08c379a0000000000000000000000000000000000000000000000000000000008152600401611dd590613c88565b60405180910390fd5b63bc197c8160e01b7bffffffffffffffffffffffffffffffffffffffffffffffffffffffff1916817bffffffffffffffffffffffffffffffffffffffffffffffffffffffff191614611e65576040517f08c379a0000000000000000000000000000000000000000000000000000000008152600401611e5c90613d1a565b60405180910390fd5b505b505050505050565b60606000600167ffffffffffffffff811115611e8e57611e8d6127fe565b5b604051908082528060200260200182016040528015611ebc5781602001602082028036833780820191505090505b5090508281600081518110611ed457611ed36134fe565b5b60200260200101818152505080915050919050565b611f088473ffffffffffffffffffffffffffffffffffffffff16612548565b156120c8578373ffffffffffffffffffffffffffffffffffffffff1663f23a6e6187878686866040518663ffffffff1660e01b8152600401611f4e959493929190613d3a565b602060405180830381600087803b158015611f6857600080fd5b505af1925050508015611f9957506040513d601f19601f82011682018060405250810190611f969190613b24565b60015b61203f57611fa5613b5e565b806308c379a014156120025750611fba613b80565b80611fc55750612004565b806040517f08c379a0000000000000000000000000000000000000000000000000000000008152600401611ff99190612a27565b60405180910390fd5b505b6040517f08c379a000000000000000000000000000000000000000000000000000000000815260040161203690613c88565b60405180910390fd5b63f23a6e6160e01b7bffffffffffffffffffffffffffffffffffffffffffffffffffffffff1916817bffffffffffffffffffffffffffffffffffffffffffffffffffffffff1916146120c6576040517f08c379a00000000000000000000000000000000000000000000000000000000081526004016120bd90613d1a565b60405180910390fd5b505b505050505050565b60007f01ffc9a7000000000000000000000000000000000000000000000000000000007bffffffffffffffffffffffffffffffffffffffffffffffffffffffff1916827bffffffffffffffffffffffffffffffffffffffffffffffffffffffff1916149050919050565b60606000600283600261214d9190613d94565b61215791906136c9565b67ffffffffffffffff8111156121705761216f6127fe565b5b6040519080825280601f01601f1916602001820160405280156121a25781602001600182028036833780820191505090505b5090507f3000000000000000000000000000000000000000000000000000000000000000816000815181106121da576121d96134fe565b5b60200101907effffffffffffffffffffffffffffffffffffffffffffffffffffffffffffff1916908160001a9053507f78000000000000000000000000000000000000000000000000000000000000008160018151811061223e5761223d6134fe565b5b60200101907effffffffffffffffffffffffffffffffffffffffffffffffffffffffffffff1916908160001a9053506000600184600261227e9190613d94565b61228891906136c9565b90505b6001811115612328577f3031323334353637383961626364656600000000000000000000000000000000600f8616601081106122ca576122c96134fe565b5b1a60f81b8282815181106122e1576122e06134fe565b5b60200101907effffffffffffffffffffffffffffffffffffffffffffffffffffffffffffff1916908160001a905350600485901c94508061232190613dee565b905061228b565b506000841461236c576040517f08c379a000000000000000000000000000000000000000000000000000000000815260040161236390613e64565b60405180910390fd5b8091505092915050565b61238486868686868661256b565b600073ffffffffffffffffffffffffffffffffffffffff168573ffffffffffffffffffffffffffffffffffffffff1614156124365760005b8351811015612434578281815181106123d8576123d76134fe565b5b6020026020010151600460008684815181106123f7576123f66134fe565b5b60200260200101518152602001908152602001600020600082825461241c91906136c9565b925050819055508061242d9061355c565b90506123bc565b505b600073ffffffffffffffffffffffffffffffffffffffff168473ffffffffffffffffffffffffffffffffffffffff1614156125405760005b835181101561253e57600084828151811061248c5761248b6134fe565b5b6020026020010151905060008483815181106124ab576124aa6134fe565b5b6020026020010151905060006004600084815260200190815260200160002054905081811015612510576040517f08c379a000000000000000000000000000000000000000000000000000000000815260040161250790613ef6565b60405180910390fd5b8181036004600085815260200190815260200160002081905550505050806125379061355c565b905061246e565b505b505050505050565b6000808273ffffffffffffffffffffffffffffffffffffffff163b119050919050565b505050505050565b82805461257f90613316565b90600052602060002090601f0160209004810192826125a157600085556125e8565b82601f106125ba57805160ff19168380011785556125e8565b828001600101855582156125e8579182015b828111156125e75782518255916020019190600101906125cc565b5b5090506125f591906125f9565b5090565b5b808211156126125760008160009055506001016125fa565b5090565b6000604051905090565b600080fd5b600080fd5b600073ffffffffffffffffffffffffffffffffffffffff82169050919050565b60006126558261262a565b9050919050565b6126658161264a565b811461267057600080fd5b50565b6000813590506126828161265c565b92915050565b6000819050919050565b61269b81612688565b81146126a657600080fd5b50565b6000813590506126b881612692565b92915050565b600080604083850312156126d5576126d4612620565b5b60006126e385828601612673565b92505060206126f4858286016126a9565b9150509250929050565b61270781612688565b82525050565b600060208201905061272260008301846126fe565b92915050565b60007fffffffff0000000000000000000000000000000000000000000000000000000082169050919050565b61275d81612728565b811461276857600080fd5b50565b60008135905061277a81612754565b92915050565b60006020828403121561279657612795612620565b5b60006127a48482850161276b565b91505092915050565b60008115159050919050565b6127c2816127ad565b82525050565b60006020820190506127dd60008301846127b9565b92915050565b600080fd5b600080fd5b6000601f19601f8301169050919050565b7f4e487b7100000000000000000000000000000000000000000000000000000000600052604160045260246000fd5b612836826127ed565b810181811067ffffffffffffffff82111715612855576128546127fe565b5b80604052505050565b6000612868612616565b9050612874828261282d565b919050565b600067ffffffffffffffff821115612894576128936127fe565b5b61289d826127ed565b9050602081019050919050565b82818337600083830152505050565b60006128cc6128c784612879565b61285e565b9050828152602081018484840111156128e8576128e76127e8565b5b6128f38482856128aa565b509392505050565b600082601f8301126129105761290f6127e3565b5b81356129208482602086016128b9565b91505092915050565b60006020828403121561293f5761293e612620565b5b600082013567ffffffffffffffff81111561295d5761295c612625565b5b612969848285016128fb565b91505092915050565b60006020828403121561298857612987612620565b5b6000612996848285016126a9565b91505092915050565b600081519050919050565b600082825260208201905092915050565b60005b838110156129d95780820151818401526020810190506129be565b838111156129e8576000848401525b50505050565b60006129f98261299f565b612a0381856129aa565b9350612a138185602086016129bb565b612a1c816127ed565b840191505092915050565b60006020820190508181036000830152612a4181846129ee565b905092915050565b600067ffffffffffffffff821115612a6457612a636127fe565b5b602082029050602081019050919050565b600080fd5b6000612a8d612a8884612a49565b61285e565b90508083825260208201905060208402830185811115612ab057612aaf612a75565b5b835b81811015612ad95780612ac588826126a9565b845260208401935050602081019050612ab2565b5050509392505050565b600082601f830112612af857612af76127e3565b5b8135612b08848260208601612a7a565b91505092915050565b600067ffffffffffffffff821115612b2c57612b2b6127fe565b5b612b35826127ed565b9050602081019050919050565b6000612b55612b5084612b11565b61285e565b905082815260208101848484011115612b7157612b706127e8565b5b612b7c8482856128aa565b509392505050565b600082601f830112612b9957612b986127e3565b5b8135612ba9848260208601612b42565b91505092915050565b60008060008060808587031215612bcc57612bcb612620565b5b6000612bda87828801612673565b945050602085013567ffffffffffffffff811115612bfb57612bfa612625565b5b612c0787828801612ae3565b935050604085013567ffffffffffffffff811115612c2857612c27612625565b5b612c3487828801612ae3565b925050606085013567ffffffffffffffff811115612c5557612c54612625565b5b612c6187828801612b84565b91505092959194509250565b6000819050919050565b612c8081612c6d565b8114612c8b57600080fd5b50565b600081359050612c9d81612c77565b92915050565b600060208284031215612cb957612cb8612620565b5b6000612cc784828501612c8e565b91505092915050565b612cd981612c6d565b82525050565b6000602082019050612cf46000830184612cd0565b92915050565b600080600080600060a08688031215612d1657612d15612620565b5b6000612d2488828901612673565b9550506020612d3588828901612673565b945050604086013567ffffffffffffffff811115612d5657612d55612625565b5b612d6288828901612ae3565b935050606086013567ffffffffffffffff811115612d8357612d82612625565b5b612d8f88828901612ae3565b925050608086013567ffffffffffffffff811115612db057612daf612625565b5b612dbc88828901612b84565b9150509295509295909350565b60008060408385031215612de057612ddf612620565b5b6000612dee85828601612c8e565b9250506020612dff85828601612673565b9150509250929050565b600067ffffffffffffffff821115612e2457612e236127fe565b5b602082029050602081019050919050565b6000612e48612e4384612e09565b61285e565b90508083825260208201905060208402830185811115612e6b57612e6a612a75565b5b835b81811015612e945780612e808882612673565b845260208401935050602081019050612e6d565b5050509392505050565b600082601f830112612eb357612eb26127e3565b5b8135612ec3848260208601612e35565b91505092915050565b60008060408385031215612ee357612ee2612620565b5b600083013567ffffffffffffffff811115612f0157612f00612625565b5b612f0d85828601612e9e565b925050602083013567ffffffffffffffff811115612f2e57612f2d612625565b5b612f3a85828601612ae3565b9150509250929050565b600081519050919050565b600082825260208201905092915050565b6000819050602082019050919050565b612f7981612688565b82525050565b6000612f8b8383612f70565b60208301905092915050565b6000602082019050919050565b6000612faf82612f44565b612fb98185612f4f565b9350612fc483612f60565b8060005b83811015612ff5578151612fdc8882612f7f565b9750612fe783612f97565b925050600181019050612fc8565b5085935050505092915050565b6000602082019050818103600083015261301c8184612fa4565b905092915050565b600067ffffffffffffffff82169050919050565b61304181613024565b82525050565b600060208201905061305c6000830184613038565b92915050565b60006020828403121561307857613077612620565b5b600061308684828501612673565b91505092915050565b600080600080608085870312156130a9576130a8612620565b5b60006130b787828801612673565b94505060206130c8878288016126a9565b93505060406130d9878288016126a9565b925050606085013567ffffffffffffffff8111156130fa576130f9612625565b5b61310687828801612b84565b91505092959194509250565b61311b816127ad565b811461312657600080fd5b50565b60008135905061313881613112565b92915050565b6000806040838503121561315557613154612620565b5b600061316385828601612673565b925050602061317485828601613129565b9150509250929050565b6000806040838503121561319557613194612620565b5b60006131a385828601612673565b92505060206131b485828601612673565b9150509250929050565b600080600080600060a086880312156131da576131d9612620565b5b60006131e888828901612673565b95505060206131f988828901612673565b945050604061320a888289016126a9565b935050606061321b888289016126a9565b925050608086013567ffffffffffffffff81111561323c5761323b612625565b5b61324888828901612b84565b9150509295509295909350565b7f455243313135353a2061646472657373207a65726f206973206e6f742061207660008201527f616c6964206f776e657200000000000000000000000000000000000000000000602082015250565b60006132b1602a836129aa565b91506132bc82613255565b604082019050919050565b600060208201905081810360008301526132e0816132a4565b9050919050565b7f4e487b7100000000000000000000000000000000000000000000000000000000600052602260045260246000fd5b6000600282049050600182168061332e57607f821691505b60208210811415613342576133416132e7565b5b50919050565b7f455243313135353a2063616c6c6572206973206e6f7420746f6b656e206f776e60008201527f6572206e6f7220617070726f7665640000000000000000000000000000000000602082015250565b60006133a4602f836129aa565b91506133af82613348565b604082019050919050565b600060208201905081810360008301526133d381613397565b9050919050565b7f416363657373436f6e74726f6c3a2063616e206f6e6c792072656e6f756e636560008201527f20726f6c657320666f722073656c660000000000000000000000000000000000602082015250565b6000613436602f836129aa565b9150613441826133da565b604082019050919050565b6000602082019050818103600083015261346581613429565b9050919050565b7f455243313135353a206163636f756e747320616e6420696473206c656e67746860008201527f206d69736d617463680000000000000000000000000000000000000000000000602082015250565b60006134c86029836129aa565b91506134d38261346c565b604082019050919050565b600060208201905081810360008301526134f7816134bb565b9050919050565b7f4e487b7100000000000000000000000000000000000000000000000000000000600052603260045260246000fd5b7f4e487b7100000000000000000000000000000000000000000000000000000000600052601160045260246000fd5b600061356782612688565b91507fffffffffffffffffffffffffffffffffffffffffffffffffffffffffffffffff82141561359a5761359961352d565b5b600182019050919050565b7f455243313135353a206d696e7420746f20746865207a65726f2061646472657360008201527f7300000000000000000000000000000000000000000000000000000000000000602082015250565b60006136016021836129aa565b915061360c826135a5565b604082019050919050565b60006020820190508181036000830152613630816135f4565b9050919050565b7f455243313135353a2069647320616e6420616d6f756e7473206c656e6774682060008201527f6d69736d61746368000000000000000000000000000000000000000000000000602082015250565b60006136936028836129aa565b915061369e82613637565b604082019050919050565b600060208201905081810360008301526136c281613686565b9050919050565b60006136d482612688565b91506136df83612688565b9250827fffffffffffffffffffffffffffffffffffffffffffffffffffffffffffffffff038211156137145761371361352d565b5b828201905092915050565b600060408201905081810360008301526137398185612fa4565b9050818103602083015261374d8184612fa4565b90509392505050565b7f455243313135353a207472616e7366657220746f20746865207a65726f20616460008201527f6472657373000000000000000000000000000000000000000000000000000000602082015250565b60006137b26025836129aa565b91506137bd82613756565b604082019050919050565b600060208201905081810360008301526137e1816137a5565b9050919050565b7f455243313135353a20696e73756666696369656e742062616c616e636520666f60008201527f72207472616e7366657200000000000000000000000000000000000000000000602082015250565b6000613844602a836129aa565b915061384f826137e8565b604082019050919050565b6000602082019050818103600083015261387381613837565b9050919050565b600060408201905061388f60008301856126fe565b61389c60208301846126fe565b9392505050565b7f455243313135353a2073657474696e6720617070726f76616c2073746174757360008201527f20666f722073656c660000000000000000000000000000000000000000000000602082015250565b60006138ff6029836129aa565b915061390a826138a3565b604082019050919050565b6000602082019050818103600083015261392e816138f2565b9050919050565b600081905092915050565b7f416363657373436f6e74726f6c3a206163636f756e7420000000000000000000600082015250565b6000613976601783613935565b915061398182613940565b601782019050919050565b60006139978261299f565b6139a18185613935565b93506139b18185602086016129bb565b80840191505092915050565b7f206973206d697373696e6720726f6c6520000000000000000000000000000000600082015250565b60006139f3601183613935565b91506139fe826139bd565b601182019050919050565b6000613a1482613969565b9150613a20828561398c565b9150613a2b826139e6565b9150613a37828461398c565b91508190509392505050565b613a4c8161264a565b82525050565b600081519050919050565b600082825260208201905092915050565b6000613a7982613a52565b613a838185613a5d565b9350613a938185602086016129bb565b613a9c816127ed565b840191505092915050565b600060a082019050613abc6000830188613a43565b613ac96020830187613a43565b8181036040830152613adb8186612fa4565b90508181036060830152613aef8185612fa4565b90508181036080830152613b038184613a6e565b90509695505050505050565b600081519050613b1e81612754565b92915050565b600060208284031215613b3a57613b39612620565b5b6000613b4884828501613b0f565b91505092915050565b60008160e01c9050919050565b600060033d1115613b7d5760046000803e613b7a600051613b51565b90505b90565b600060443d1015613b9057613c13565b613b98612616565b60043d036004823e80513d602482011167ffffffffffffffff82111715613bc0575050613c13565b808201805167ffffffffffffffff811115613bde5750505050613c13565b80602083010160043d038501811115613bfb575050505050613c13565b613c0a8260200185018661282d565b82955050505050505b90565b7f455243313135353a207472616e7366657220746f206e6f6e204552433131353560008201527f526563656976657220696d706c656d656e746572000000000000000000000000602082015250565b6000613c726034836129aa565b9150613c7d82613c16565b604082019050919050565b60006020820190508181036000830152613ca181613c65565b9050919050565b7f455243313135353a204552433131353552656365697665722072656a6563746560008201527f6420746f6b656e73000000000000000000000000000000000000000000000000602082015250565b6000613d046028836129aa565b9150613d0f82613ca8565b604082019050919050565b60006020820190508181036000830152613d3381613cf7565b9050919050565b600060a082019050613d4f6000830188613a43565b613d5c6020830187613a43565b613d6960408301866126fe565b613d7660608301856126fe565b8181036080830152613d888184613a6e565b90509695505050505050565b6000613d9f82612688565b9150613daa83612688565b9250817fffffffffffffffffffffffffffffffffffffffffffffffffffffffffffffffff0483118215151615613de357613de261352d565b5b828202905092915050565b6000613df982612688565b91506000821415613e0d57613e0c61352d565b5b600182039050919050565b7f537472696e67733a20686578206c656e67746820696e73756666696369656e74600082015250565b6000613e4e6020836129aa565b9150613e5982613e18565b602082019050919050565b60006020820190508181036000830152613e7d81613e41565b9050919050565b7f455243313135353a206275726e20616d6f756e74206578636565647320746f7460008201527f616c537570706c79000000000000000000000000000000000000000000000000602082015250565b6000613ee06028836129aa565b9150613eeb82613e84565b604082019050919050565b60006020820190508181036000830152613f0f81613ed3565b905091905056fea26469706673582212207e4411fc70c6df19678b5336640e7e4e7877d047f290c7f7950ec66395e586b164736f6c63430008090033",
  "devdoc": {
    "kind": "dev",
    "methods": {
      "balanceOf(address,uint256)": {
        "details": "See {IERC1155-balanceOf}. Requirements: - `account` cannot be the zero address."
      },
      "balanceOfBatch(address[],uint256[])": {
        "details": "See {IERC1155-balanceOfBatch}. Requirements: - `accounts` and `ids` must have the same length."
      },
      "exists(uint256)": {
        "details": "Indicates whether any token exist with a given id, or not."
      },
      "getRoleAdmin(bytes32)": {
        "details": "Returns the admin role that controls `role`. See {grantRole} and {revokeRole}. To change a role's admin, use {_setRoleAdmin}."
      },
      "grantRole(bytes32,address)": {
        "details": "Grants `role` to `account`. If `account` had not been already granted `role`, emits a {RoleGranted} event. Requirements: - the caller must have ``role``'s admin role. May emit a {RoleGranted} event."
      },
      "hasRole(bytes32,address)": {
        "details": "Returns `true` if `account` has been granted `role`."
      },
      "isApprovedForAll(address,address)": {
        "details": "See {IERC1155-isApprovedForAll}."
      },
      "renounceRole(bytes32,address)": {
        "details": "Revokes `role` from the calling account. Roles are often managed via {grantRole} and {revokeRole}: this function's purpose is to provide a mechanism for accounts to lose their privileges if they are compromised (such as when a trusted device is misplaced). If the calling account had been revoked `role`, emits a {RoleRevoked} event. Requirements: - the caller must be `account`. May emit a {RoleRevoked} event."
      },
      "revokeRole(bytes32,address)": {
        "details": "Revokes `role` from `account`. If `account` had been granted `role`, emits a {RoleRevoked} event. Requirements: - the caller must have ``role``'s admin role. May emit a {RoleRevoked} event."
      },
      "safeBatchTransferFrom(address,address,uint256[],uint256[],bytes)": {
        "details": "See {IERC1155-safeBatchTransferFrom}."
      },
      "safeTransferFrom(address,address,uint256,uint256,bytes)": {
        "details": "See {IERC1155-safeTransferFrom}."
      },
      "setApprovalForAll(address,bool)": {
        "details": "See {IERC1155-setApprovalForAll}."
      },
      "totalSupply(uint256)": {
        "details": "Total amount of tokens in with a given id."
      },
      "uri(uint256)": {
        "details": "See {IERC1155MetadataURI-uri}. This implementation returns the same URI for *all* token types. It relies on the token type ID substitution mechanism https://eips.ethereum.org/EIPS/eip-1155#metadata[defined in the EIP]. Clients calling this function must replace the `\\{id\\}` substring with the actual token type ID."
      }
    },
    "version": 1
  },
  "userdoc": {
    "kind": "user",
    "methods": {},
    "version": 1
  },
  "storageLayout": {
    "storage": [
      {
        "astId": 497,
        "contract": "contracts/GraphicLore.sol:GraphicLore",
        "label": "_balances",
        "offset": 0,
        "slot": "0",
        "type": "t_mapping(t_uint256,t_mapping(t_address,t_uint256))"
      },
      {
        "astId": 503,
        "contract": "contracts/GraphicLore.sol:GraphicLore",
        "label": "_operatorApprovals",
        "offset": 0,
        "slot": "1",
        "type": "t_mapping(t_address,t_mapping(t_address,t_bool))"
      },
      {
        "astId": 505,
        "contract": "contracts/GraphicLore.sol:GraphicLore",
        "label": "_uri",
        "offset": 0,
        "slot": "2",
        "type": "t_string_storage"
      },
      {
        "astId": 24,
        "contract": "contracts/GraphicLore.sol:GraphicLore",
        "label": "_roles",
        "offset": 0,
        "slot": "3",
        "type": "t_mapping(t_bytes32,t_struct(RoleData)19_storage)"
      },
      {
        "astId": 1867,
        "contract": "contracts/GraphicLore.sol:GraphicLore",
        "label": "_totalSupply",
        "offset": 0,
        "slot": "4",
        "type": "t_mapping(t_uint256,t_uint256)"
      },
      {
        "astId": 2637,
        "contract": "contracts/GraphicLore.sol:GraphicLore",
        "label": "_contractURI",
        "offset": 0,
        "slot": "5",
        "type": "t_string_storage"
      }
    ],
    "types": {
      "t_address": {
        "encoding": "inplace",
        "label": "address",
        "numberOfBytes": "20"
      },
      "t_bool": {
        "encoding": "inplace",
        "label": "bool",
        "numberOfBytes": "1"
      },
      "t_bytes32": {
        "encoding": "inplace",
        "label": "bytes32",
        "numberOfBytes": "32"
      },
      "t_mapping(t_address,t_bool)": {
        "encoding": "mapping",
        "key": "t_address",
        "label": "mapping(address => bool)",
        "numberOfBytes": "32",
        "value": "t_bool"
      },
      "t_mapping(t_address,t_mapping(t_address,t_bool))": {
        "encoding": "mapping",
        "key": "t_address",
        "label": "mapping(address => mapping(address => bool))",
        "numberOfBytes": "32",
        "value": "t_mapping(t_address,t_bool)"
      },
      "t_mapping(t_address,t_uint256)": {
        "encoding": "mapping",
        "key": "t_address",
        "label": "mapping(address => uint256)",
        "numberOfBytes": "32",
        "value": "t_uint256"
      },
      "t_mapping(t_bytes32,t_struct(RoleData)19_storage)": {
        "encoding": "mapping",
        "key": "t_bytes32",
        "label": "mapping(bytes32 => struct AccessControl.RoleData)",
        "numberOfBytes": "32",
        "value": "t_struct(RoleData)19_storage"
      },
      "t_mapping(t_uint256,t_mapping(t_address,t_uint256))": {
        "encoding": "mapping",
        "key": "t_uint256",
        "label": "mapping(uint256 => mapping(address => uint256))",
        "numberOfBytes": "32",
        "value": "t_mapping(t_address,t_uint256)"
      },
      "t_mapping(t_uint256,t_uint256)": {
        "encoding": "mapping",
        "key": "t_uint256",
        "label": "mapping(uint256 => uint256)",
        "numberOfBytes": "32",
        "value": "t_uint256"
      },
      "t_string_storage": {
        "encoding": "bytes",
        "label": "string",
        "numberOfBytes": "32"
      },
      "t_struct(RoleData)19_storage": {
        "encoding": "inplace",
        "label": "struct AccessControl.RoleData",
        "members": [
          {
            "astId": 16,
            "contract": "contracts/GraphicLore.sol:GraphicLore",
            "label": "members",
            "offset": 0,
            "slot": "0",
            "type": "t_mapping(t_address,t_bool)"
          },
          {
            "astId": 18,
            "contract": "contracts/GraphicLore.sol:GraphicLore",
            "label": "adminRole",
            "offset": 0,
            "slot": "1",
            "type": "t_bytes32"
          }
        ],
        "numberOfBytes": "64"
      },
      "t_uint256": {
        "encoding": "inplace",
        "label": "uint256",
        "numberOfBytes": "32"
      }
    }
  }
}